:0100000003FC
:0100010007F7
:0100020003FA
:0100030002FA
:0100040013E8
:0100050008F2
:0100060003F6
:0100070005F3
:0100080003F4
:0100090002F4
:01000A0007EE
:01000B0004F0
:01000C0003F0
:01000D0005ED
:01000E0005EC
:01000F0003ED
:0100100006E9
:010011000AE4
:010012000AE3
:0100130009E3
:010014000BE0
:010015000DDD
:0100160009E0
:0100170002E6
:0100180006E1
:0100190003E3
:01001A0003E2
:01001B0007DD
:01001C000AD9
:01001D0006DC
:01001E0003DE
:01001F0002DE
:010020000FD0
:010021000FCF
:010022000FCE
:0100230006D6
:0100240004D7
:010025000AD0
:010026000ACF
:010027000DCB
:010028000DCA
:0100290013C3
:01002A0009CC
:01002B000BC9
:01002C0009CA
:01002D0001D1
:01002E0009C8
:01002F0009C7
:0100300007C8
:0100310001CD
:010032000BC2
:0100330003C9
:0100340003C8
:0100350006C4
:0100360005C4
:0100370002C6
:0100380003C4
:010039000DB9
:01003A000DB8
:01003B0017AD
:01003C0004BF
:01003D0007BB
:01003E0003BE
:01003F0002BE
:0100400006B9
:0100410002BC
:0100420001BC
:0100430006B6
:0100440014A7
:0100450001B9
:0100460007B2
:0100470004B4
:0100480003B4
:0100490002B4
:01004A0002B3
:01004B0005AF
:01004C0007AC
:01004D0005AD
:01004E0003AE
:01004F0009A7
:0100500009A6
:0100510009A5
:0100520009A4
:0100530004A8
:0100540003A8
:0100550006A4
:0100560004A5
:0100570006A2
:0100580003A4
:01005900099D
:01005A0004A1
:01005B00099B
:01005C00099A
:01005D00069C
:01005E0001A0
:01005F00059B
:01006000059A
:01006100029C
:01006200029B
:01006300019B
:01006400019A
:010065000199
:010066000F8A
:010067000A8E
:010068000A8D
:010069000393
:01006A00098C
:01006B00098B
:01006C00068D
:01006D00038F
:01006E00038E
:01006F000987
:010070000986
:01007100028C
:01007200028B
:010073000A82
:010074000388
:010075000189
:010076000683
:010077001771
:010078000582
:010079000680
:01007A00067F
:01007B000183
:01007C00047F
:01007D00037F
:01007E00067B
:01007F00126E
:010080000E71
:01008100017D
:010082000D70
:01008300027A
:010084000A71
:010085000674
:010086000673
:010087000474
:010088000473
:010089000274
:01008A00066F
:01008B000371
:01008C00056E
:01008D00036F
:01008E000A67
:01008F000868
:010090000768
:010091001658
:010092001657
:01009300105C
:010094000269
:010095000466
:010096000267
:010097000761
:010098000562
:010099000B5B
:01009A000B5A
:01009B00095B
:01009C00075C
:01009D00085A
:01009E000E53
:01009F00035D
:0100A0000857
:0100A1000658
:0100A2000459
:0100A3000656
:0100A4000259
:0100A5000654
:0100A6000653
:0100A7000256
:0100A800094E
:0100A9000254
:0100AA000154
:0100AB000153
:0100AC00084B
:0100AD00064C
:0100AE00064B
:0100AF00024E
:0100B000024D
:0100B1000648
:0100B200113C
:0100B3001735
:0100B4001734
:0100B5001634
:0100B6001633
:0100B7001236
:0100B8000245
:0100B9000244
:0100BA000144
:0100BB00093B
:0100BC000142
:0100BD00043E
:0100BE00033E
:0100BF00063A
:0100C0000837
:0100C100102E
:0100C200033A
:0100C3000438
:0100C4000932
:0100C5000139
:0100C6000138
:0100C700092F
:0100C8000631
:0100C900092D
:0100CA00062F
:0100CB000133
:0100CC000132
:0100CD00032F
:0100CE00022F
:0100CF00022E
:0100D0000B24
:0100D1000628
:0100D2000528
:0100D3000626
:0100D4000526
:0100D5000129
:0100D6000326
:0100D7000325
:0100D800091E
:0100D900071F
:0100DA000D18
:0100DB000D17
:0100DC00091A
:0100DD000919
:0100DE00021F
:0100DF00031D
:0100E000021D
:0100E100041A
:0100E2000914
:0100E300021A
:0100E4000219
:0100E5000A10
:0100E6000712
:0100E700090F
:0100E8000116
:0100E9000115
:0100EA000213
:0100EB000311
:0100EC001201
:0100ED001200
:0100EE000A07
:0100EF00040C
:0100F0000906
:0100F100030B
:0100F2000409
:0100F3000309
:0100F40013F8
:0100F5000307
:0100F6000405
:0100F7000404
:0100F80008FF
:0100F9000204
:0100FA000203
:0100FB000301
:0100FC0005FE
:0100FD000DF5
:0100FE000EF3
:0100FF0005FB
:0101000002FC
:010101000EEF
:0101020004F8
:0101030005F6
:0101040004F6
:0101050006F3
:0101060003F5
:0101070003F4
:0101080008EE
:0101090002F3
:01010A0009EB
:01010B0006ED
:01010C0009E9
:01010D0009E8
:01010E0002EE
:01010F0009E6
:0101100003EB
:0101110007E6
:0101120004E8
:0101130003E8
:0101140014D6
:0101150003E6
:0101160015D3
:0101170017D0
:0101180002E4
:0101190002E3
:01011A0002E2
:01011B0002E1
:01011C0004DE
:01011D0013CE
:01011E0006DA
:01011F000AD5
:0101200006D8
:0101210013CA
:010122000AD2
:0101230006D5
:0101240001D9
:0101250002D7
:0101260003D5
:0101270002D5
:0101280003D3
:0101290003D2
:01012A0004D0
:01012B0009CA
:01012C0009C9
:01012D0009C8
:01012E000FC1
:01012F000FC0
:0101300002CC
:0101310007C6
:0101320005C7
:0101330004C7
:0101340008C2
:0101350001C8
:0101360001C7
:0101370009BE
:0101380012B4
:0101390012B3
:01013A0009BB
:01013B000EB5
:01013C0003BF
:01013D0008B9
:01013E0006BA
:01013F0008B7
:0101400005B9
:0101410001BC
:010142000AB2
:0101430004B7
:0101440003B7
:0101450005B4
:0101460004B4
:0101470005B2
:0101480007AF
:0101490008AD
:01014A0008AC
:01014B0001B2
:01014C0002B0
:01014D0009A8
:01014E000EA2
:01014F000CA3
:0101500009A5
:0101510009A4
:0101520003A9
:0101530002A9
:0101540003A7
:0101550003A6
:0101560001A7
:0101570002A5
:01015800099D
:01015900099C
:01015A0002A2
:01015B0002A1
:01015C0002A0
:01015D000F92
:01015E00069A
:01015F000798
:01016000029C
:010161000499
:010162001389
:010163001388
:010164000397
:010165000198
:010166000395
:010167000295
:010168000393
:010169000B8A
:01016A00078D
:01016B000A89
:01016C000989
:01016D000988
:01016E00068A
:01016F000689
:01017000028C
:01017100028B
:01017200018B
:01017300018A
:010174000288
:010175000683
:010176000682
:010177000681
:010178000383
:01017900067F
:01017A00067E
:01017B00047F
:01017C000979
:01017D00037E
:01017E00027E
:01017F001768
:01018000027C
:010181000677
:01018200027A
:010183000279
:010184000476
:010185000376
:010186000375
:010187000473
:010188000670
:010189000174
:01018A000272
:01018B000370
:01018C00036F
:01018D00036E
:01018E00066A
:01018F00046B
:010190000965
:010191000A63
:010192000963
:010193001556
:010194000763
:010195000960
:010196000464
:010197000463
:010198000462
:01019900095C
:01019A001153
:01019B000360
:01019C00035F
:01019D00134E
:01019E000759
:01019F000659
:0101A0000658
:0101A1000657
:0101A2000458
:0101A3000259
:0101A4000654
:0101A5000E4B
:0101A6000E4A
:0101A7000255
:0101A8000551
:0101A9000B4A
:0101AA00074D
:0101AB000350
:0101AC000250
:0101AD00034E
:0101AE00034D
:0101AF00024D
:0101B000014D
:0101B100034A
:0101B2000349
:0101B3000942
:0101B4000941
:0101B5000742
:0101B6000543
:0101B700093E
:0101B800093D
:0101B9000144
:0101BA000143
:0101BB00063D
:0101BC00033F
:0101BD00023F
:0101BE00013F
:0101BF001728
:0101C000043A
:0101C100033A
:0101C2000438
:0101C3000338
:0101C4000337
:0101C5000831
:0101C6000236
:0101C7000136
:0101C8000432
:0101C9000332
:0101CA000232
:0101CB00052E
:0101CC00052D
:0101CD00022F
:0101CE00012F
:0101CF00032C
:0101D000032B
:0101D100012C
:0101D2000527
:0101D3001714
:0101D4000B1F
:0101D5000623
:0101D6000A1E
:0101D7001710
:0101D800170F
:0101D900071E
:0101DA000C18
:0101DB000E15
:0101DC000220
:0101DD000918
:0101DE000719
:0101DF000F10
:0101E0000915
:0101E1000716
:0101E200120A
:0101E3000615
:0101E4000A10
:0101E5000910
:0101E6000711
:0101E7000314
:0101E8000610
:0101E900060F
:0101EA00090B
:0101EB000310
:0101EC000D05
:0101ED00030E
:0101EE00040C
:0101EF00050A
:0101F000040A
:0101F100030A
:0101F2000507
:0101F3000506
:0101F4000208
:0101F5000306
:0101F6000206
:0101F7000CFB
:0101F8000501
:0101F9000500
:0101FA000CF8
:0101FB000201
:0101FC000200
:0101FD0008F9
:0101FE0002FE
:0101FF0002FD
:0102000002FB
:0102010002FA
:0102020009F2
:0102030001F9
:0102040002F7
:0102050003F5
:0102060003F4
:0102070003F3
:0102080005F0
:0102090008EC
:01020A0005EE
:01020B0005ED
:01020C000AE7
:01020D0003ED
:01020E0012DD
:01020F0009E5
:0102100007E6
:0102110005E7
:0102120012D9
:0102130009E1
:0102140002E7
:0102150001E7
:0102160009DE
:010217000ADC
:010218000CD9
:0102190006DE
:01021A0015CE
:01021B0004DE
:01021C0004DD
:01021D0001DF
:01021E0002DD
:01021F0009D5
:0102200009D4
:0102210016C6
:0102220007D4
:0102230005D5
:0102240007D2
:0102250007D1
:0102260003D4
:0102270009CD
:0102280010C5
:0102290010C4
:01022A0004CF
:01022B0003CF
:01022C0001D0
:01022D0003CD
:01022E0002CD
:01022F0005C9
:0102300006C7
:0102310001CB
:010232000BC0
:010233000BBF
:0102340009C0
:0102350009BF
:0102360009BE
:0102370002C4
:0102380002C3
:0102390002C2
:01023A0011B2
:01023B0011B1
:01023C0002BF
:01023D0006BA
:01023E0006B9
:01023F0006B8
:0102400005B8
:0102410005B7
:0102420002B9
:0102430002B8
:010244000EAB
:0102450009AF
:010246000FA8
:010247000FA7
:0102480009AC
:01024900159F
:01024A0004AF
:01024B0006AC
:01024C0009A8
:01024D0003AD
:01024E0001AE
:01024F0005A9
:0102500002AB
:010251001498
:0102520004A7
:0102530004A6
:0102540003A6
:0102550003A5
:0102560002A5
:0102570006A0
:0102580003A2
:01025900059F
:01025A00079C
:01025B00069C
:01025C0001A0
:01025D00069A
:01025E000699
:01025F000698
:01026000039A
:010261000795
:010262000299
:010263000694
:010264000792
:010265000494
:010266000295
:01026700098D
:01026800098C
:01026900058F
:01026A000192
:01026B000290
:01026C000B86
:01026D00038D
:01026E000986
:01026F00048A
:01027000038A
:010271000587
:010272000883
:010273000288
:010274000386
:010275000484
:01027600087F
:010277001274
:010278000B7A
:01027900057F
:01027A000182
:01027B000181
:01027C00027F
:01027D00057B
:01027E00017E
:01027F00037B
:010280001667
:01028100027A
:010282000279
:010283000C6E
:010284000970
:01028500096F
:01028600096E
:010287000670
:01028800096C
:010289001361
:01028A000271
:01028B00135F
:01028C00036E
:01028D00016F
:01028E00046B
:01028F000569
:010290000667
:010291000864
:010292000467
:010293000367
:010294001356
:010295001454
:010296001453
:010297000660
:01029800065F
:01029900075D
:01029A00075C
:01029B00075B
:01029C000958
:01029D000A56
:01029E000A55
:01029F00025C
:0102A000025B
:0102A1000656
:0102A2000655
:0102A3000357
:0102A4000356
:0102A5000256
:0102A6000354
:0102A7000551
:0102A8000550
:0102A9000D47
:0102AA00054E
:0102AB00034F
:0102AC00024F
:0102AD00054B
:0102AE000649
:0102AF000648
:0102B000014C
:0102B1000349
:0102B200014A
:0102B3000941
:0102B4000148
:0102B5000147
:0102B600093E
:0102B700172F
:0102B8001332
:0102B900093B
:0102BA000241
:0102BB00063C
:0102BC00033E
:0102BD00053B
:0102BE00053A
:0102BF00033B
:0102C0000439
:0102C1000339
:0102C2000338
:0102C3001228
:0102C4001227
:0102C5000236
:0102C6000235
:0102C7000333
:0102C800082D
:0102C900052F
:0102CA00042F
:0102CB000230
:0102CC00052C
:0102CD00042C
:0102CE00022D
:0102CF00022C
:0102D000111C
:0102D1000923
:0102D2000625
:0102D3000921
:0102D4000623
:0102D5000127
:0102D6000324
:0102D7000B1B
:0102D8000A1B
:0102D9001113
:0102DA000221
:0102DB00031F
:0102DC00041D
:0102DD00041C
:0102DE00051A
:0102DF00011D
:0102E0000716
:0102E1000319
:0102E200011A
:0102E3000614
:0102E4000E0B
:0102E500090F
:0102E6001205
:0102E7001204
:0102E8000A0B
:0102E9000B09
:0102EA000112
:0102EB000111
:0102EC00040D
:0102ED00040C
:0102EE000609
:0102EF000707
:0102F0000508
:0102F100010B
:0102F2000407
:0102F3000406
:0102F4000900
:0102F50009FF
:0102F6000601
:0102F70009FD
:0102F8000BFA
:0102F90006FE
:0102FA000102
:0102FB000101
:0102FC0002FF
:0102FD0005FB
:0102FE0004FB
:0102FF0003FB
:0103000002FA
:0103010002F9
:0103020004F6
:0103030012E7
:010304000AEE
:0103050005F2
:0103060006F0
:0103070007EE
:0103080002F2
:0103090002F1
:01030A0005ED
:01030B0001F0
:01030C0002EE
:01030D0002ED
:01030E0006E8
:01030F0006E7
:0103100003E9
:0103110001EA
:0103120002E8
:0103130001E8
:0103140002E6
:0103150002E5
:0103160001E5
:010317000ADB
:0103180009DB
:0103190004DF
:01031A0004DE
:01031B000BD6
:01031C0003DD
:01031D0002DD
:01031E0006D8
:01031F0004D9
:0103200004D8
:0103210003D8
:0103220004D6
:010323000BCE
:0103240004D4
:0103250009CE
:0103260009CD
:0103270007CE
:0103280008CC
:0103290007CC
:01032A000AC8
:01032B000AC7
:01032C0002CE
:01032D0004CB
:01032E0009C5
:01032F0005C8
:0103300004C8
:0103310004C7
:0103320005C5
:0103330005C4
:0103340008C0
:0103350003C4
:0103360004C2
:0103370002C3
:0103380002C2
:0103390006BD
:01033A0006BC
:01033B0003BE
:01033C0002BE
:01033D0001BE
:01033E0003BB
:01033F0002BB
:0103400006B6
:0103410006B5
:0103420008B2
:0103430005B4
:0103440006B2
:0103450009AE
:0103460004B2
:0103470006AF
:0103480002B2
:010349000FA4
:01034A0001B1
:01034B0003AE
:01034C0001AF
:01034D0006A9
:01034E0001AD
:01034F0005A8
:0103500009A3
:0103510009A2
:0103520009A1
:0103530002A7
:0103540002A6
:0103550002A5
:0103560001A5
:01035700069F
:01035800069E
:0103590001A2
:01035A000A98
:01035B00039E
:01035C00039D
:01035D000798
:01035E00039B
:01035F000499
:010360000696
:010361000596
:010362000397
:010363000990
:010364000692
:010365000394
:010366000690
:010367000392
:010368000391
:010369000390
:01036A00078B
:01036B000988
:01036C000789
:01036D000887
:01036E000A84
:01036F000588
:01037000018B
:010371000C7F
:010372000585
:010373000287
:010374000C7C
:010375000681
:010376000680
:010377000D78
:010378000D77
:01037900067D
:01037A000181
:01037B00067B
:01037C000779
:01037D00017E
:01037E00027C
:01037F000479
:010380000973
:010381000279
:010382000674
:010383001762
:010384001761
:010385000176
:010386000274
:010387000174
:010388000272
:010389000F64
:01038A00036F
:01038B00046D
:01038C00046C
:01038D000966
:01038E000668
:01038F000568
:010390000369
:010391000368
:010392000268
:010393000168
:010394000662
:010395000166
:010396000264
:010397000164
:01039800085C
:010399000261
:01039A000B57
:01039B00055C
:01039C00065A
:01039D00035C
:01039E000A54
:01039F000954
:0103A0000A52
:0103A1000A51
:0103A2000A50
:0103A3000356
:0103A4000157
:0103A5000D4A
:0103A6000D49
:0103A700074E
:0103A8000351
:0103A9000251
:0103AA000250
:0103AB000150
:0103AC000848
:0103AD00024D
:0103AE00044A
:0103AF00014C
:0103B0000646
:0103B1000249
:0103B2000743
:0103B3000346
:0103B400093F
:0103B5000542
:0103B6000541
:0103B7000342
:0103B8000341
:0103B900073C
:0103BA00063C
:0103BB00063B
:0103BC000937
:0103BD000837
:0103BE00023C
:0103BF000736
:0103C000013B
:0103C1000833
:0103C2000535
:0103C3000237
:0103C4000731
:0103C500082F
:0103C600082E
:0103C700062F
:0103C800062E
:0103C900082B
:0103CA001220
:0103CB00072A
:0103CC000729
:0103CD00032C
:0103CE000628
:0103CF00032A
:0103D0000923
:0103D1000328
:0103D2000822
:0103D3000425
:0103D4000820
:0103D500081F
:0103D6000521
:0103D7000421
:0103D8000123
:0103D900091A
:0103DA00041E
:0103DB000120
:0103DC000B15
:0103DD000916
:0103DE00041A
:0103DF00031A
:0103E000011B
:0103E1000219
:0103E2000911
:0103E3000910
:0103E4001305
:0103E5001304
:0103E600080E
:0103E700080D
:0103E8000113
:0103E900040F
:0103EA000210
:0103EB00060B
:0103EC000709
:0103ED000609
:0103EE000509
:0103EF000904
:0103F0000903
:0103F1000407
:0103F2000208
:0103F3000108
:0103F4000602
:0103F5000601
:0103F6000105
:0103F7000104
:0103F80007FD
:0103F90007FC
:0103FA0007FB
:0103FB0002FF
:0103FC0003FD
:0103FD0002FD
:0103FE0002FC
:0103FF0001FC
:0104000003F8
:0104010004F6
:0104020005F4
:0104030009EF
:010404000AED
:010405000AEC
:0104060003F2
:0104070003F1
:0104080013E0
:0104090009E9
:01040A0013DE
:01040B0004EC
:01040C0009E6
:01040D0013DB
:01040E0006E7
:01040F0005E7
:0104100012D9
:010411000CDE
:0104120001E8
:0104130001E7
:0104140002E5
:0104150009DD
:0104160002E3
:0104170002E2
:0104180006DD
:0104190008DA
:01041A0001E0
:01041B0006DA
:01041C0005DA
:01041D0005D9
:01041E0002DB
:01041F0005D7
:0104200004D7
:0104210007D3
:0104220003D6
:0104230003D5
:0104240002D5
:0104250001D5
:0104260002D3
:0104270001D3
:0104280002D1
:0104290001D1
:01042A0002CF
:01042B0002CE
:01042C0003CC
:01042D0002CC
:01042E0004C9
:01042F0003C9
:0104300006C5
:0104310007C3
:0104320004C5
:0104330003C5
:0104340002C5
:0104350003C3
:0104360002C3
:0104370003C1
:0104380005BE
:0104390005BD
:01043A0011B0
:01043B000AB6
:01043C0004BB
:01043D0009B5
:01043E0009B4
:01043F0008B4
:0104400002B9
:0104410002B8
:0104420006B3
:0104430005B3
:0104440006B1
:0104450008AE
:0104460004B1
:0104470004B0
:0104480002B1
:0104490002B0
:01044A0003AE
:01044B0002AE
:01044C0002AD
:01044D0009A5
:01044E0002AB
:01044F0007A5
:0104500003A8
:0104510001A9
:0104520002A7
:0104530005A3
:0104540001A6
:0104550006A0
:0104560003A2
:01045700099B
:0104580003A0
:01045900079B
:01045A0001A0
:01045B00019F
:01045C000D92
:01045D00049A
:01045E00039A
:01045F000399
:010460000A91
:010461000A90
:010462000396
:010463000395
:010464001582
:010465000D89
:010466001580
:010467001480
:010468000291
:010469000989
:01046A00038E
:01046B00038D
:01046C000986
:01046D000A84
:01046E000984
:01046F000983
:010470000289
:010471000783
:010472000386
:010473000682
:010474000A7D
:010475000482
:010476000283
:010477000381
:01047800077C
:010479000280
:01047A00037E
:01047B000A76
:01047C00027D
:01047D00027C
:01047E00027B
:01047F00027A
:01048000017A
:010481000179
:010482000178
:010483000177
:010484000B6C
:010485000670
:010486000B6A
:010487000B69
:010488000370
:010489000270
:01048A000C65
:01048B00016F
:01048C000966
:01048D00016D
:01048E00036A
:01048F00016B
:010490000962
:010491000961
:010492001257
:010493001256
:010494000364
:010495000264
:010496000164
:010497000361
:010498000162
:01049900085A
:01049A00025F
:01049B00045C
:01049C00035C
:01049D00035B
:01049E00035A
:01049F000359
:0104A0000556
:0104A1000852
:0104A2000F4A
:0104A3000850
:0104A4000453
:0104A5000650
:0104A600064F
:0104A700064E
:0104A8000152
:0104A9000B47
:0104AA000F42
:0104AB000D43
:0104AC000946
:0104AD000945
:0104AE000449
:0104AF000448
:0104B0000447
:0104B1000347
:0104B2000148
:0104B3000A3E
:0104B4000245
:0104B5000442
:0104B600073E
:0104B7000341
:0104B8000340
:0104B900033F
:0104BA00033E
:0104BB00023E
:0104BC00033C
:0104BD000935
:0104BE000835
:0104BF000834
:0104C0000932
:0104C100102A
:0104C2000435
:0104C3000434
:0104C4000235
:0104C5000B2B
:0104C6000233
:0104C7000232
:0104C8000231
:0104C9000230
:0104CA00052C
:0104CB001020
:0104CC00022D
:0104CD000529
:0104CE00022B
:0104CF00022A
:0104D0000229
:0104D1000525
:0104D2000326
:0104D3000226
:0104D4001017
:0104D5000D19
:0104D6000322
:0104D7000321
:0104D8000320
:0104D900031F
:0104DA000B16
:0104DB00051B
:0104DC00051A
:0104DD000717
:0104DE00031A
:0104DF000616
:0104E0000813
:0104E1000317
:0104E2000613
:0104E300090F
:0104E400080F
:0104E5000115
:0104E6000312
:0104E7000212
:0104E800090A
:0104E9000909
:0104EA000908
:0104EB000907
:0104EC000609
:0104ED00010D
:0104EE00020B
:0104EF000606
:0104F0000605
:0104F1000BFF
:0104F2000BFE
:0104F3000BFD
:0104F4000BFC
:0104F50009FD
:0104F6000104
:0104F7000103
:0104F8000102
:0104F90003FF
:0104FA0003FE
:0104FB0003FD
:0104FC0003FC
:0104FD0002FC
:0104FE000AF3
:0104FF0009F3
:0105000009F1
:0105010009F0
:0105020009EF
:0105030002F5
:0105040001F5
:0105050002F3
:0105060002F2
:0105070001F2
:0105080002F0
:0105090005EC
:01050A0006EA
:01050B0005EA
:01050C000CE2
:01050D0005E8
:01050E0009E3
:01050F0009E2
:0105100004E6
:0105110005E4
:0105120005E3
:0105130007E0
:0105140013D3
:0105150003E2
:0105160003E1
:0105170005DE
:0105180004DE
:0105190003DE
:01051A0009D7
:01051B0006D9
:01051C0004DA
:01051D0001DC
:01051E0001DB
:01051F0003D8
:0105200002D8
:0105210004D5
:0105220003D5
:0105230004D3
:0105240007CF
:0105250003D2
:0105260004D0
:0105270003D0
:0105280009C9
:0105290017BA
:01052A0002CE
:01052B0001CE
:01052C0007C7
:01052D0006C7
:01052E0006C6
:01052F0007C4
:0105300009C1
:0105310006C3
:0105320006C2
:0105330005C2
:0105340005C1
:0105350003C2
:0105360005BF
:0105370004BF
:0105380002C0
:0105390013AE
:01053A0013AD
:01053B0014AB
:01053C0014AA
:01053D000CB1
:01053E000CB0
:01053F0007B4
:0105400004B6
:0105410004B5
:0105420005B3
:0105430001B6
:0105440006B0
:0105450001B4
:0105460001B3
:0105470003B0
:0105480002B0
:0105490002AF
:01054A0007A9
:01054B0003AC
:01054C0009A5
:01054D0006A7
:01054E0005A7
:01054F0006A5
:0105500003A7
:0105510003A6
:0105520003A5
:0105530002A5
:0105540003A3
:0105550001A4
:01055600069E
:01055700178C
:01055800049E
:01055900069B
:01055A00049C
:01055B000798
:01055C000797
:01055D000598
:01055E00029A
:01055F000992
:010560000793
:010561000594
:010562000395
:010563000C8B
:010564000E88
:010565000491
:010566000490
:010567000390
:01056800038F
:01056900038E
:01056A00038D
:01056B00028D
:01056C00028C
:01056D000489
:01056E000488
:01056F000C7F
:010570000B7F
:010571000485
:010572000781
:010573000186
:01057400097D
:01057500077E
:01057600067E
:010577000B78
:010578000B77
:01057900126F
:01057A00057B
:01057B00017E
:01057C00146A
:01057D000479
:01057E00027A
:01057F000576
:010580000773
:010581000475
:010582000375
:010583000473
:010584000373
:010585000273
:01058600096B
:01058700086B
:010588001161
:01058900066B
:01058A00115F
:01058B00115E
:01058C00016D
:01058D000964
:01058E000963
:01058F000962
:010590000466
:010591000960
:01059200095F
:010593000463
:010594000363
:01059500095C
:010596000361
:010597000261
:010598000260
:01059900025F
:01059A00015F
:01059B00025D
:01059C00035B
:01059D00035A
:01059E000359
:01059F000259
:0105A0000357
:0105A1000356
:0105A2001741
:0105A3000354
:0105A4000452
:0105A500173E
:0105A6000153
:0105A7000152
:0105A8000250
:0105A900024F
:0105AA00034D
:0105AB00034C
:0105AC00024C
:0105AD000548
:0105AE000646
:0105AF000942
:0105B0000941
:0105B1000940
:0105B2000147
:0105B3000344
:0105B4000D39
:0105B5000441
:0105B6000D37
:0105B7001231
:0105B800053D
:0105B9000839
:0105BA000937
:0105BB000936
:0105BC000737
:0105BD000736
:0105BE000834
:0105BF000A31
:0105C0000337
:0105C1000435
:0105C2000533
:0105C3000532
:0105C4001026
:0105C5001025
:0105C600052F
:0105C7000132
:0105C8000230
:0105C900042D
:0105CA00062A
:0105CB000629
:0105CC00042A
:0105CD000429
:0105CE000527
:0105CF000427
:0105D0000327
:0105D1000920
:0105D2000721
:0105D3000720
:0105D4000620
:0105D500081D
:0105D600071D
:0105D700071C
:0105D8000919
:0105D900041D
:0105DA00041C
:0105DB00041B
:0105DC000A14
:0105DD000617
:0105DE000A12
:0105DF000A11
:0105E0000713
:0105E1000712
:0105E2000414
:0105E3000314
:0105E4000511
:0105E5000B0A
:0105E600080C
:0105E7000310
:0105E800030F
:0105E900060B
:0105EA00030D
:0105EB00050A
:0105EC00010D
:0105ED00010C
:0105EE00010B
:0105EF000308
:0105F0000307
:0105F1000306
:0105F20009FF
:0105F3000205
:0105F4000600
:0105F50006FF
:0105F6000400
:0105F70010F3
:0105F80009F9
:0105F90009F8
:0105FA0005FB
:0105FB0002FD
:0105FC0004FA
:0105FD0007F6
:0105FE0003F9
:0105FF0003F8
:0106000005F4
:0106010001F7
:0106020002F5
:0106030002F4
:0106040002F3
:0106050003F1
:0106060006ED
:0106070005ED
:0106080002EF
:0106090004EC
:01060A0005EA
:01060B0005E9
:01060C0006E7
:01060D0004E8
:01060E0002E9
:01060F0002E8
:0106100002E7
:0106110002E6
:0106120009DE
:0106130009DD
:0106140005E0
:010615000DD7
:0106160006DD
:0106170003DF
:0106180002DF
:0106190005DB
:01061A0003DC
:01061B0009D5
:01061C0007D6
:01061D0003D9
:01061E0003D8
:01061F0002D8
:0106200006D3
:0106210009CF
:0106220007D0
:0106230003D3
:0106240009CC
:0106250001D3
:0106260002D1
:0106270003CF
:0106280003CE
:0106290005CB
:01062A0001CE
:01062B0006C8
:01062C0009C4
:01062D000BC1
:01062E000BC0
:01062F0005C5
:0106300012B7
:0106310006C2
:0106320001C6
:0106330002C4
:0106340005C0
:0106350009BB
:0106360009BA
:0106370005BD
:0106380001C0
:0106390002BE
:01063A0001BE
:01063B0002BC
:01063C0003BA
:01063D0004B8
:01063E0001BA
:01063F0002B8
:0106400002B7
:0106410003B5
:0106420003B4
:0106430002B4
:0106440002B3
:0106450003B1
:0106460003B0
:0106470005AD
:0106480004AD
:0106490006AA
:01064A0005AA
:01064B0003AB
:01064C0004A9
:01064D0006A6
:01064E0002A9
:01064F0005A5
:0106500004A5
:0106510004A4
:0106520004A3
:0106530003A3
:0106540004A1
:01065500089C
:0106560003A0
:0106570001A1
:010658000998
:010659000997
:01065A000D92
:01065B00019D
:01065C000697
:01065D001785
:01065E001784
:01065F000A90
:010660000693
:010661000395
:010662000B8C
:010663000492
:010664001283
:010665001084
:010666001083
:01066700038F
:010668000190
:01066900038D
:01066A00038C
:01066B00028C
:01066C000489
:01066D000785
:01066E000784
:01066F000684
:010670000485
:010671000385
:010672000384
:01067300077F
:010674000580
:01067500067E
:010676001271
:010677000979
:01067800037E
:01067900057B
:01067A000679
:01067B000678
:01067C000578
:01067D00017B
:01067E000D6E
:01067F000179
:010680000475
:010681000573
:010682000275
:010683000175
:010684000471
:010685000371
:010686000370
:01068700046E
:01068800066B
:01068900056B
:01068A000768
:01068B000A64
:01068C000A63
:01068D000369
:01068E000368
:01068F000268
:010690000861
:010691000B5D
:010692000661
:01069300095D
:01069400095C
:010695000262
:010696000261
:010697000260
:01069800035E
:010699000957
:01069A000956
:01069B00015D
:01069C000D50
:01069D000458
:01069E000655
:01069F000159
:0106A0000455
:0106A100094F
:0106A2000D4A
:0106A3000155
:0106A400094C
:0106A500094B
:0106A600044F
:0106A700044E
:0106A800044D
:0106A900024E
:0106AA00054A
:0106AB000648
:0106AC00034A
:0106AD00024A
:0106AE00014A
:0106AF000248
:0106B0000247
:0106B1000345
:0106B2000443
:0106B3000244
:0106B4000144
:0106B5000341
:0106B600053E
:0106B700033F
:0106B800033E
:0106B900053B
:0106BA00053A
:0106BB00043A
:0106BC000637
:0106BD00013B
:0106BE000536
:0106BF000C2E
:0106C0000C2D
:0106C1000335
:0106C2000B2C
:0106C3000D29
:0106C4000332
:0106C500062E
:0106C6000330
:0106C700062C
:0106C8000130
:0106C9000A26
:0106CA000926
:0106CB000925
:0106CC000924
:0106CD00022A
:0106CE000922
:0106CF000921
:0106D0001019
:0106D1001018
:0106D2000324
:0106D3000323
:0106D400061F
:0106D500061E
:0106D600081B
:0106D700061C
:0106D800021F
:0106D900140C
:0106DA00031C
:0106DB000915
:0106DC00031A
:0106DD00021A
:0106DE000615
:0106DF000911
:0106E0000217
:0106E1000315
:0106E2000413
:0106E300080E
:0106E4000312
:0106E500050F
:0106E600040F
:0106E700040E
:0106E800030E
:0106E900050B
:0106EA0015FA
:0106EB0015F9
:0106EC00010C
:0106ED00020A
:0106EE00010A
:0106EF000109
:0106F0000207
:0106F1000206
:0106F2000106
:0106F3000105
:0106F40017EE
:0106F5000301
:0106F6000102
:0106F70017EB
:0106F80005FC
:0106F90004FC
:0106FA0007F8
:0106FB0003FB
:0106FC0006F7
:0106FD0005F7
:0106FE0002F9
:0106FF0005F5
:0107000004F4
:0107010017E0
:0107020002F4
:0107030005F0
:0107040009EB
:0107050001F2
:0107060009E9
:0107070009E8
:0107080009E7
:010709000BE4
:01070A0002EC
:01070B0004E9
:01070C0003E9
:01070D0005E6
:01070E000CDE
:01070F000CDD
:0107100004E4
:010711000ADD
:0107120003E3
:0107130009DC
:0107140005DF
:010715000BD8
:0107160002E0
:0107170004DD
:0107180002DE
:0107190002DD
:01071A0004DA
:01071B0009D4
:01071C0003D9
:01071D0003D8
:01071E0003D7
:01071F0002D7
:0107200001D7
:0107210003D4
:0107220003D3
:0107230001D4
:0107240002D2
:0107250002D1
:0107260002D0
:010727000CC5
:0107280009C7
:0107290006C9
:01072A0002CC
:01072B0003CA
:01072C0003C9
:01072D0004C7
:01072E0003C7
:01072F0007C2
:0107300006C2
:0107310006C1
:0107320006C0
:010733000EB7
:0107340012B2
:010735000CB7
:010736000EB4
:010737000EB3
:0107380014AC
:0107390014AB
:01073A0011AD
:01073B0011AC
:01073C0002BA
:01073D0002B9
:01073E000DAD
:01073F000DAC
:0107400009AF
:0107410007B0
:0107420002B4
:0107430002B3
:0107440003B1
:0107450001B2
:0107460005AD
:0107470003AE
:0107480006AA
:0107490009A6
:01074A0002AC
:01074B0004A9
:01074C0005A7
:01074D0003A8
:01074E0005A5
:01074F001297
:010750000E9A
:01075100099E
:0107520003A3
:0107530002A3
:0107540004A0
:01075500049F
:0107560001A1
:01075700059C
:01075800069A
:010759000C93
:01075A00019D
:01075B000697
:01075C000399
:01075D000992
:01075E000595
:01075F000693
:010760000692
:010761000B8C
:010762000690
:01076300068F
:010764000490
:01076500048F
:01076600038F
:010767000D84
:010768000987
:010769000986
:01076A00038B
:01076B00018C
:01076C000389
:01076D000388
:01076E001575
:01076F000485
:010770000286
:010771000186
:010772000185
:010773000283
:010774000480
:01077500067D
:01077600077B
:01077700027F
:01077800037D
:01077900027D
:01077A00037B
:01077B00037A
:01077C00027A
:01077D000477
:01077E000773
:01077F000772
:010780000573
:010781000572
:010782000A6C
:010783000273
:01078400066E
:010785000370
:01078600036F
:01078700056C
:01078800026E
:01078900046B
:01078A000965
:01078B000667
:01078C00026A
:01078D000368
:01078E000169
:01078F000168
:01079000095F
:01079100095E
:010792001452
:010793001451
:01079400075D
:01079500095A
:010796000260
:01079700025F
:01079800025E
:010799000659
:01079A00035B
:01079B00025B
:01079C000359
:01079D000754
:01079E000951
:01079F000950
:0107A000094F
:0107A100094E
:0107A200094D
:0107A300064F
:0107A4000351
:0107A5000B48
:0107A600064C
:0107A7000150
:0107A800044C
:0107A900024D
:0107AA00024C
:0107AB000647
:0107AC000448
:0107AD000843
:0107AE000149
:0107AF000346
:0107B0000840
:0107B1000443
:0107B2000145
:0107B300073E
:0107B400053F
:0107B5000340
:0107B600063C
:0107B7000938
:0107B800043C
:0107B900043B
:0107BA00033B
:0107BB00023B
:0107BC00023A
:0107BD000239
:0107BE000337
:0107BF000336
:0107C0000830
:0107C1000334
:0107C2000234
:0107C3000233
:0107C4000133
:0107C500052E
:0107C6000230
:0107C700032E
:0107C800032D
:0107C900042B
:0107CA00022C
:0107CB000E1F
:0107CC000824
:0107CD000427
:0107CE000921
:0107CF000A1F
:0107D0000D1B
:0107D1000D1A
:0107D2000620
:0107D3000322
:0107D400071D
:0107D5000221
:0107D600061C
:0107D700041D
:0107D800031D
:0107D900051A
:0107DA000519
:0107DB000D10
:0107DC001309
:0107DD000615
:0107DE000218
:0107DF000217
:0107E0000513
:0107E1000710
:0107E2000313
:0107E3000C09
:0107E400070D
:0107E500040F
:0107E600060C
:0107E700030E
:0107E800050B
:0107E900020D
:0107EA00020C
:0107EB00020B
:0107EC00020A
:0107ED000407
:0107EE000703
:0107EF000306
:0107F00009FF
:0107F1000CFB
:0107F20009FD
:0107F30009FC
:0107F4000BF9
:0107F50006FD
:0107F60003FF
:0107F70002FF
:0107F8000BF5
:0107F9000BF4
:0107FA0002FC
:0107FB0007F6
:0107FC0004F8
:0107FD0005F6
:0107FE0006F4
:0107FF0006F3
:0108000010E7
:0108010010E6
:0108020010E5
:0108030010E4
:0108040001F2
:0108050002F0
:0108060004ED
:0108070001EF
:0108080001EE
:0108090002EC
:01080A0003EA
:01080B0003E9
:01080C0003E8
:01080D0007E3
:01080E0001E8
:01080F0007E1
:0108100005E2
:0108110005E1
:0108120009DC
:0108130005DF
:0108140009DA
:0108150009D9
:010816000AD7
:0108170003DD
:010818000AD5
:0108190004DA
:01081A000AD3
:01081B0013C9
:01081C000AD1
:01081D0009D1
:01081E0002D7
:01081F0002D6
:0108200003D4
:0108210004D2
:0108220003D2
:0108230003D1
:0108240002D1
:0108250002D0
:0108260008C9
:0108270009C7
:0108280009C6
:0108290009C5
:01082A000AC3
:01082B000AC2
:01082C0003C8
:01082D0009C1
:01082E0006C3
:01082F0004C4
:0108300006C1
:0108310007BF
:0108320002C3
:0108330005BF
:0108340001C2
:010835000AB8
:0108360006BB
:0108370009B7
:0108380008B7
:0108390006B8
:01083A0007B6
:01083B0002BA
:01083C0003B8
:01083D0003B7
:01083E000AAF
:01083F0001B7
:0108400004B3
:010841000BAB
:0108420004B1
:0108430004B0
:0108440003B0
:0108450002B0
:0108460002AF
:0108470002AE
:0108480001AE
:0108490001AD
:01084A0003AA
:01084B0005A7
:01084C0005A6
:01084D0009A1
:01084E0001A8
:01084F0001A7
:0108500003A4
:0108510003A3
:0108520003A2
:01085300059F
:01085400089B
:01085500059D
:010856000D94
:010857000D93
:010858000996
:010859000B93
:01085A000B92
:01085B00029A
:01085C00019A
:01085D000991
:01085E000792
:01085F00098F
:010860000691
:01086100098D
:010862000A8B
:010863000391
:010864000390
:01086500038F
:010866000988
:010867000F81
:01086800018E
:010869000985
:01086A00018C
:01086B00028A
:01086C000586
:01086D000E7C
:01086E000980
:01086F000187
:010870000681
:010871000185
:010872000481
:01087300057F
:01087400067D
:01087500057D
:01087600057C
:01087700037D
:01087800037C
:01087900146A
:01087A00037A
:01087B000D6F
:01087C000576
:01087D000476
:01087E000772
:01087F000276
:010880000176
:010881000472
:01088200096C
:010883000173
:010884000D66
:01088500056D
:01088600036E
:01088700016F
:01088800016E
:010889000B63
:01088A000568
:01088B00016B
:01088C00016A
:01088D000565
:01088E001554
:01088F000365
:010890000364
:010891000462
:010892000461
:010893000361
:010894000360
:010895000959
:010896000160
:010897000957
:01089800025D
:01089900035B
:01089A000558
:01089B00025A
:01089C000952
:01089D000555
:01089E000554
:01089F000553
:0108A0000750
:0108A1000551
:0108A200074E
:0108A300054F
:0108A400064D
:0108A500064C
:0108A600024F
:0108A7000A46
:0108A800024D
:0108A900024C
:0108AA00014C
:0108AB000D3F
:0108AC00014A
:0108AD000149
:0108AE000247
:0108AF000246
:0108B0000245
:0108B1001036
:0108B2001035
:0108B3000A3A
:0108B4000A39
:0108B500172B
:0108B6000A37
:0108B7000937
:0108B8000936
:0108B9000539
:0108BA000934
:0108BB000834
:0108BC000833
:0108BD000931
:0108BE000633
:0108BF001226
:0108C0001225
:0108C1000234
:0108C2000332
:0108C3000F25
:0108C4000E25
:0108C500052D
:0108C6000928
:0108C7000828
:0108C8000827
:0108C900042A
:0108CA00022B
:0108CB000527
:0108CC000526
:0108CD000327
:0108CE000524
:0108CF000226
:0108D0000225
:0108D1000422
:0108D2000223
:0108D3000222
:0108D400170C
:0108D5000220
:0108D600041D
:0108D7000917
:0108D8000619
:0108D900041A
:0108DA00021B
:0108DB00021A
:0108DC00011A
:0108DD000A10
:0108DE000A0F
:0108DF00090F
:0108E0000C0B
:0108E1000412
:0108E200070E
:0108E300080C
:0108E400090A
:0108E5000210
:0108E600020F
:0108E700030D
:0108E8000609
:0108E9000905
:0108EA000706
:0108EB00020A
:0108EC000A01
:0108ED0015F5
:0108EE000AFF
:0108EF000404
:0108F00009FE
:0108F1000600
:0108F20006FF
:0108F30006FE
:0108F40006FD
:0108F50009F9
:0108F60009F8
:0108F70004FC
:0108F80004FB
:0108F90002FC
:0108FA0002FB
:0108FB0002FA
:0108FC0004F7
:0108FD0013E7
:0108FE0008F1
:0108FF0004F4
:0109000003F3
:0109010002F3
:010902000AEA
:0109030006ED
:0109040016DC
:0109050016DB
:0109060001EF
:0109070005EA
:0109080009E5
:0109090001EC
:01090A0005E7
:01090B0001EA
:01090C0006E4
:01090D0007E2
:01090E0005E3
:01090F0009DE
:0109100005E1
:0109110005E0
:0109120002E2
:0109130001E2
:0109140006DC
:0109150008D9
:0109160002DE
:0109170003DC
:0109180003DB
:0109190003DA
:01091A0003D9
:01091B0004D7
:01091C0008D2
:01091D0004D5
:01091E0003D5
:01091F0003D4
:0109200009CD
:0109210009CC
:0109220006CE
:0109230006CD
:0109240002D0
:0109250002CF
:0109260002CE
:0109270002CD
:0109280001CD
:0109290001CC
:01092A000BC1
:01092B000BC0
:01092C0017B3
:01092D0004C5
:01092E0009BF
:01092F0007C0
:0109300003C3
:0109310003C2
:010932000ABA
:0109330003C0
:0109340007BB
:0109350006BB
:0109360017A9
:0109370017A8
:0109380007B7
:0109390007B6
:01093A0013A9
:01093B0006B5
:01093C0006B4
:01093D0004B5
:01093E0005B3
:01093F0005B2
:010940000AAC
:010941000AAB
:0109420004B0
:0109430004AF
:0109440003AF
:0109450001B0
:010946000AA6
:0109470009A6
:01094800139B
:0109490003AA
:01094A000AA2
:01094B0009A2
:01094C0005A5
:01094D0006A3
:01094E000A9E
:01094F000A9D
:0109500006A0
:01095100069F
:0109520004A0
:0109530003A0
:0109540002A0
:01095500059C
:01095600029E
:01095700059A
:010958000698
:01095900029B
:01095A00029A
:01095B000992
:01095C000991
:01095D000297
:01095E000197
:01095F000295
:010960001383
:010961001382
:010962000193
:010963000291
:010964000989
:01096500048D
:01096600028E
:010967000A85
:010968000688
:010969000687
:01096A000587
:01096B000586
:01096C000288
:01096D000188
:01096E00097F
:01096F00097E
:01097000097D
:01097100097C
:01097200057F
:010973000A79
:01097400037F
:010975000180
:01097600067A
:01097700027D
:01097800037B
:01097900027B
:01097A00027A
:01097B000279
:01097C000B6F
:01097D000B6E
:01097E000375
:01097F00096E
:010980000670
:010981000372
:010982000470
:01098300046F
:01098400066C
:01098500066B
:01098600046C
:010987000768
:01098800046A
:010989000964
:01098A000666
:01098B000A61
:01098C000664
:01098D000762
:01098E000662
:01098F001255
:01099000075F
:010991000164
:010992000460
:01099300075C
:01099400065C
:01099500065B
:010996000B55
:01099700144B
:01099800025C
:01099900025B
:01099A00025A
:01099B000259
:01099C000C4E
:01099D000455
:01099E000256
:01099F000354
:0109A0000155
:0109A100084D
:0109A2000C48
:0109A3000152
:0109A400074B
:0109A500024F
:0109A6000749
:0109A700133C
:0109A8000747
:0109A900034A
:0109AA000745
:0109AB000348
:0109AC000545
:0109AD001336
:0109AE000642
:0109AF000740
:0109B000093D
:0109B1000540
:0109B200053F
:0109B300053E
:0109B400073B
:0109B500053C
:0109B6000937
:0109B7000936
:0109B8000737
:0109B9000736
:0109BA000438
:0109BB000635
:0109BC000634
:0109BD000633
:0109BE000830
:0109BF000136
:0109C0000234
:0109C1000233
:0109C200052F
:0109C300062D
:0109C400032F
:0109C5000A27
:0109C600032D
:0109C700052A
:0109C8000E20
:0109C900022B
:0109CA000329
:0109CB000724
:0109CC000624
:0109CD000623
:0109CE000325
:0109CF000225
:0109D0000224
:0109D100061F
:0109D2000321
:0109D300061D
:0109D400061C
:0109D5000120
:0109D600031D
:0109D700021D
:0109D800021C
:0109D900021B
:0109DA00011B
:0109DB00011A
:0109DC000218
:0109DD000217
:0109DE00090F
:0109DF000C0B
:0109E0000412
:0109E1000312
:0109E2000C08
:0109E3000310
:0109E4000909
:0109E500030E
:0109E600030D
:0109E7000A05
:0109E8000A04
:0109E9000904
:0109EA000408
:0109EB000308
:0109EC000901
:0109ED000900
:0109EE000305
:0109EF000AFD
:0109F0000AFC
:0109F1000203
:0109F2000202
:0109F3000300
:0109F4000200
:0109F5000100
:0109F60007F9
:0109F70006F9
:0109F80006F8
:0109F90003FA
:0109FA000DEF
:0109FB0003F8
:0109FC000FEB
:0109FD0007F2
:0109FE0003F5
:0109FF0006F1
:010A000009EC
:010A010017DD
:010A020017DC
:010A030004EE
:010A040002EF
:010A050002EE
:010A060004EB
:010A070002EC
:010A080007E6
:010A090001EB
:010A0A0001EA
:010A0B0009E1
:010A0C0006E3
:010A0D0006E2
:010A0E0009DE
:010A0F000ADC
:010A100009DC
:010A110007DD
:010A120005DE
:010A130008DA
:010A140009D8
:010A150005DB
:010A160005DA
:010A170005D9
:010A180005D8
:010A190005D7
:010A1A0002D9
:010A1B0003D7
:010A1C0007D2
:010A1D0008D0
:010A1E0004D3
:010A1F0004D2
:010A200004D1
:010A210004D0
:010A220009CA
:010A230004CE
:010A240004CD
:010A250006CA
:010A260006C9
:010A270007C7
:010A280001CC
:010A290001CB
:010A2A000AC1
:010A2B0017B3
:010A2C000FBA
:010A2D0017B1
:010A2E0009BE
:010A2F0002C4
:010A300003C2
:010A310003C1
:010A320003C0
:010A330002C0
:010A34000AB7
:010A350017A9
:010A360009B6
:010A370002BC
:010A380003BA
:010A390005B7
:010A3A0013A8
:010A3B0012A8
:010A3C0012A7
:010A3D0003B5
:010A3E0009AE
:010A3F0007AF
:010A400007AE
:010A410006AE
:010A420005AE
:010A430005AD
:010A440008A9
:010A450002AE
:010A460002AD
:010A470003AB
:010A480004A9
:010A490006A6
:010A4A0009A2
:010A4B0003A7
:010A4C001693
:010A4D0003A5
:010A4E0001A6
:010A4F00178F
:010A5000069F
:010A5100079D
:010A5200059E
:010A5300059D
:010A5400069B
:010A55000799
:010A56000798
:010A5700029C
:010A58000697
:010A59000399
:010A5A000398
:010A5B000397
:010A5C000396
:010A5D000593
:010A5E00088F
:010A5F00088E
:010A60000293
:010A61001282
:010A62001380
:010A63001082
:010A64001081
:010A6500028E
:010A6600058A
:010A67000589
:010A68000687
:010A69000587
:010A6A000784
:010A6B000684
:010A6C000386
:010A6D000682
:010A6E000A7D
:010A6F000680
:010A70000481
:010A71000282
:010A7200047F
:010A7300057D
:010A74000978
:010A7500166A
:010A76001669
:010A7700027C
:010A78000578
:010A79000676
:010A7A000D6E
:010A7B001763
:010A7C001762
:010A7D000474
:010A7E000176
:010A7F000175
:010A80000273
:010A8100056F
:010A82000172
:010A83000270
:010A84000869
:010A8500046C
:010A8600105F
:010A8700105E
:010A8800105D
:010A89000E5E
:010A8A000E5D
:010A8B001654
:010A8C001653
:010A8D001454
:010A8E001453
:010A8F00095D
:010A90001055
:010A9100065E
:010A92000360
:010A9300045E
:010A9400025F
:010A9500025E
:010A96000659
:010A9700045A
:010A98000657
:010A99000359
:010A9A000655
:010A9B000555
:010A9C000455
:010A9D000256
:010A9E000354
:010A9F000353
:010AA000094C
:010AA1000351
:010AA2000152
:010AA300034F
:010AA4000948
:010AA5000947
:010AA600054A
:010AA7000549
:010AA800034A
:010AA9000745
:010AAA000546
:010AAB000347
:010AAC000148
:010AAD000A3E
:010AAE000146
:010AAF000B3B
:010AB0000441
:010AB1000341
:010AB2000142
:010AB3000240
:010AB4000140
:010AB500122E
:010AB6000A35
:010AB7000A34
:010AB8000934
:010AB9000933
:010ABA00013A
:010ABB000238
:010ABC000732
:010ABD000731
:010ABE000631
:010ABF000630
:010AC000062F
:010AC1000133
:010AC2000132
:010AC300052D
:010AC400022F
:010AC500032D
:010AC600032C
:010AC7000628
:010AC800022B
:010AC9000D1F
:010ACA000328
:010ACB000327
:010ACC000128
:010ACD000226
:010ACE000126
:010ACF000224
:010AD0001312
:010AD100081C
:010AD200091A
:010AD3000919
:010AD4000120
:010AD500021E
:010AD600031C
:010AD700021C
:010AD8000419
:010AD9000418
:010ADA000615
:010ADB000614
:010ADC000217
:010ADD000216
:010ADE000215
:010ADF000214
:010AE0000114
:010AE1000113
:010AE200060D
:010AE300030F
:010AE400050C
:010AE500020E
:010AE6000C03
:010AE7000FFF
:010AE80013FA
:010AE90013F9
:010AEA000506
:010AEB000505
:010AEC000603
:010AED000305
:010AEE000502
:010AEF000501
:010AF0000500
:010AF10005FF
:010AF20006FD
:010AF3000101
:010AF40006FB
:010AF50006FA
:010AF60001FE
:010AF70001FD
:010AF80001FC
:010AF9000AF2
:010AFA0011EA
:010AFB0011E9
:010AFC000BEE
:010AFD0003F5
:010AFE0004F3
:010AFF0007EF
:010B000007ED
:010B010007EC
:010B020001F1
:010B030002EF
:010B040002EE
:010B050002ED
:010B060012DC
:010B070012DB
:010B08000AE2
:010B090003E8
:010B0A0003E7
:010B0B0002E7
:010B0C0002E6
:010B0D0001E6
:010B0E0009DD
:010B0F0006DF
:010B100009DB
:010B110009DA
:010B120003DF
:010B130003DE
:010B140001DF
:010B150002DD
:010B160005D9
:010B170003DA
:010B180003D9
:010B190003D8
:010B1A0002D8
:010B1B0002D7
:010B1C0003D5
:010B1D0003D4
:010B1E0003D3
:010B1F0003D2
:010B200001D3
:010B210001D2
:010B220002D0
:010B230002CF
:010B240003CD
:010B250005CA
:010B260001CD
:010B270005C8
:010B280003C9
:010B290003C8
:010B2A0009C1
:010B2B0006C3
:010B2C0009BF
:010B2D0009BE
:010B2E0006C0
:010B2F000CB9
:010B30000BB9
:010B310002C1
:010B320003BF
:010B330009B8
:010B340009B7
:010B350009B6
:010B36000CB2
:010B370002BB
:010B380001BB
:010B390004B7
:010B3A0005B5
:010B3B0007B2
:010B3C0007B1
:010B3D0007B0
:010B3E0002B4
:010B3F000AAB
:010B400006AE
:010B410006AD
:010B420004AE
:010B430004AD
:010B440005AB
:010B450005AA
:010B460004AA
:010B470004A9
:010B480003A9
:010B490007A4
:010B4A0002A8
:010B4B0003A6
:010B4C0005A3
:010B4D0005A2
:010B4E0004A2
:010B4F0003A2
:010B500004A0
:010B510003A0
:010B5200069C
:010B5300069B
:010B5400029E
:010B5500059A
:010B5600029C
:010B5700019C
:010B5800019B
:010B5900019A
:010B5A000298
:010B5B000297
:010B5C000296
:010B5D000295
:010B5E001482
:010B5F000491
:010B60000B89
:010B61000093
:010B62000092
:010B63000091
:010B64000090
:010B6500008F
:010B6600008E
:010B6700008D
:010B6800008C
:010B6900008B
:010B6A00008A
:010B6B000089
:010B6C000088
:010B6D000087
:010B6E000086
:010B6F000085
:010B70000084
:010B71000083
:010B72000082
:010B73000081
:010B74000080
:010B7500007F
:010B7600007E
:010B7700007D
:010B7800007C
:010B7900007B
:010B7A00007A
:010B7B000079
:010B7C000078
:010B7D000077
:010B7E000076
:010B7F000075
:010B80000074
:010B81000073
:010B82000072
:010B83000071
:010B84000070
:010B8500006F
:010B8600006E
:010B8700006D
:010B8800006C
:010B8900006B
:010B8A00006A
:010B8B000069
:010B8C000068
:010B8D000067
:010B8E000066
:010B8F000065
:010B90000064
:010B91000063
:010B92000062
:010B93000061
:010B94000060
:010B9500005F
:010B9600005E
:010B9700005D
:010B9800005C
:010B9900005B
:010B9A00005A
:010B9B000059
:010B9C000058
:010B9D000057
:010B9E000056
:010B9F000055
:010BA0000054
:010BA1000053
:010BA2000052
:010BA3000051
:010BA4000050
:010BA500004F
:010BA600004E
:010BA700004D
:010BA800004C
:010BA900004B
:010BAA00004A
:010BAB000049
:010BAC000048
:010BAD000047
:010BAE000046
:010BAF000045
:010BB0000044
:010BB1000043
:010BB2000042
:010BB3000041
:010BB4000040
:010BB500003F
:010BB600003E
:010BB700003D
:010BB800003C
:010BB900003B
:010BBA00003A
:010BBB000039
:010BBC000038
:010BBD000037
:010BBE000036
:010BBF000035
:010BC0000034
:010BC1000033
:010BC2000032
:010BC3000031
:010BC4000030
:010BC500002F
:010BC600002E
:010BC700002D
:010BC800002C
:010BC900002B
:010BCA00002A
:010BCB000029
:010BCC000028
:010BCD000027
:010BCE000026
:010BCF000025
:010BD0000024
:010BD1000023
:010BD2000022
:010BD3000021
:010BD4000020
:010BD500001F
:010BD600001E
:010BD700001D
:010BD800001C
:010BD900001B
:010BDA00001A
:010BDB000019
:010BDC000018
:010BDD000017
:010BDE000016
:010BDF000015
:010BE0000014
:010BE1000013
:010BE2000012
:010BE3000011
:010BE4000010
:010BE500000F
:010BE600000E
:010BE700000D
:010BE800000C
:010BE900000B
:010BEA00000A
:010BEB000009
:010BEC000008
:010BED000007
:010BEE000006
:010BEF000005
:010BF0000004
:010BF1000003
:010BF2000002
:010BF3000001
:010BF4000000
:010BF50000FF
:010BF60000FE
:010BF70000FD
:010BF80000FC
:010BF90000FB
:010BFA0000FA
:010BFB0000F9
:010BFC0000F8
:010BFD0000F7
:010BFE0000F6
:010BFF0000F5
:010C000000F3
:010C010000F2
:010C020000F1
:010C030000F0
:010C040000EF
:010C050000EE
:010C060000ED
:010C070000EC
:010C080000EB
:010C090000EA
:010C0A0000E9
:010C0B0000E8
:010C0C0000E7
:010C0D0000E6
:010C0E0000E5
:010C0F0000E4
:010C100000E3
:010C110000E2
:010C120000E1
:010C130000E0
:010C140000DF
:010C150000DE
:010C160000DD
:010C170000DC
:010C180000DB
:010C190000DA
:010C1A0000D9
:010C1B0000D8
:010C1C0000D7
:010C1D0000D6
:010C1E0000D5
:010C1F0000D4
:010C200000D3
:010C210000D2
:010C220000D1
:010C230000D0
:010C240000CF
:010C250000CE
:010C260000CD
:010C270000CC
:010C280000CB
:010C290000CA
:010C2A0000C9
:010C2B0000C8
:010C2C0000C7
:010C2D0000C6
:010C2E0000C5
:010C2F0000C4
:010C300000C3
:010C310000C2
:010C320000C1
:010C330000C0
:010C340000BF
:010C350000BE
:010C360000BD
:010C370000BC
:010C380000BB
:010C390000BA
:010C3A0000B9
:010C3B0000B8
:010C3C0000B7
:010C3D0000B6
:010C3E0000B5
:010C3F0000B4
:010C400000B3
:010C410000B2
:010C420000B1
:010C430000B0
:010C440000AF
:010C450000AE
:010C460000AD
:010C470000AC
:010C480000AB
:010C490000AA
:010C4A0000A9
:010C4B0000A8
:010C4C0000A7
:010C4D0000A6
:010C4E0000A5
:010C4F0000A4
:010C500000A3
:010C510000A2
:010C520000A1
:010C530000A0
:010C5400009F
:010C5500009E
:010C5600009D
:010C5700009C
:010C5800009B
:010C5900009A
:010C5A000099
:010C5B000098
:010C5C000097
:010C5D000096
:010C5E000095
:010C5F000094
:010C60000093
:010C61000092
:010C62000091
:010C63000090
:010C6400008F
:010C6500008E
:010C6600008D
:010C6700008C
:010C6800008B
:010C6900008A
:010C6A000089
:010C6B000088
:010C6C000087
:010C6D000086
:010C6E000085
:010C6F000084
:010C70000083
:010C71000082
:010C72000081
:010C73000080
:010C7400007F
:010C7500007E
:010C7600007D
:010C7700007C
:010C7800007B
:010C7900007A
:010C7A000079
:010C7B000078
:010C7C000077
:010C7D000076
:010C7E000075
:010C7F000074
:010C80000073
:010C81000072
:010C82000071
:010C83000070
:010C8400006F
:010C8500006E
:010C8600006D
:010C8700006C
:010C8800006B
:010C8900006A
:010C8A000069
:010C8B000068
:010C8C000067
:010C8D000066
:010C8E000065
:010C8F000064
:010C90000063
:010C91000062
:010C92000061
:010C93000060
:010C9400005F
:010C9500005E
:010C9600005D
:010C9700005C
:010C9800005B
:010C9900005A
:010C9A000059
:010C9B000058
:010C9C000057
:010C9D000056
:010C9E000055
:010C9F000054
:010CA0000053
:010CA1000052
:010CA2000051
:010CA3000050
:010CA400004F
:010CA500004E
:010CA600004D
:010CA700004C
:010CA800004B
:010CA900004A
:010CAA000049
:010CAB000048
:010CAC000047
:010CAD000046
:010CAE000045
:010CAF000044
:010CB0000043
:010CB1000042
:010CB2000041
:010CB3000040
:010CB400003F
:010CB500003E
:010CB600003D
:010CB700003C
:010CB800003B
:010CB900003A
:010CBA000039
:010CBB000038
:010CBC000037
:010CBD000036
:010CBE000035
:010CBF000034
:010CC0000033
:010CC1000032
:010CC2000031
:010CC3000030
:010CC400002F
:010CC500002E
:010CC600002D
:010CC700002C
:010CC800002B
:010CC900002A
:010CCA000029
:010CCB000028
:010CCC000027
:010CCD000026
:010CCE000025
:010CCF000024
:010CD0000023
:010CD1000022
:010CD2000021
:010CD3000020
:010CD400001F
:010CD500001E
:010CD600001D
:010CD700001C
:010CD800001B
:010CD900001A
:010CDA000019
:010CDB000018
:010CDC000017
:010CDD000016
:010CDE000015
:010CDF000014
:010CE0000013
:010CE1000012
:010CE2000011
:010CE3000010
:010CE400000F
:010CE500000E
:010CE600000D
:010CE700000C
:010CE800000B
:010CE900000A
:010CEA000009
:010CEB000008
:010CEC000007
:010CED000006
:010CEE000005
:010CEF000004
:010CF0000003
:010CF1000002
:010CF2000001
:010CF3000000
:010CF40000FF
:010CF50000FE
:010CF60000FD
:010CF70000FC
:010CF80000FB
:010CF90000FA
:010CFA0000F9
:010CFB0000F8
:010CFC0000F7
:010CFD0000F6
:010CFE0000F5
:010CFF0000F4
:010D000000F2
:010D010000F1
:010D020000F0
:010D030000EF
:010D040000EE
:010D050000ED
:010D060000EC
:010D070000EB
:010D080000EA
:010D090000E9
:010D0A0000E8
:010D0B0000E7
:010D0C0000E6
:010D0D0000E5
:010D0E0000E4
:010D0F0000E3
:010D100000E2
:010D110000E1
:010D120000E0
:010D130000DF
:010D140000DE
:010D150000DD
:010D160000DC
:010D170000DB
:010D180000DA
:010D190000D9
:010D1A0000D8
:010D1B0000D7
:010D1C0000D6
:010D1D0000D5
:010D1E0000D4
:010D1F0000D3
:010D200000D2
:010D210000D1
:010D220000D0
:010D230000CF
:010D240000CE
:010D250000CD
:010D260000CC
:010D270000CB
:010D280000CA
:010D290000C9
:010D2A0000C8
:010D2B0000C7
:010D2C0000C6
:010D2D0000C5
:010D2E0000C4
:010D2F0000C3
:010D300000C2
:010D310000C1
:010D320000C0
:010D330000BF
:010D340000BE
:010D350000BD
:010D360000BC
:010D370000BB
:010D380000BA
:010D390000B9
:010D3A0000B8
:010D3B0000B7
:010D3C0000B6
:010D3D0000B5
:010D3E0000B4
:010D3F0000B3
:010D400000B2
:010D410000B1
:010D420000B0
:010D430000AF
:010D440000AE
:010D450000AD
:010D460000AC
:010D470000AB
:010D480000AA
:010D490000A9
:010D4A0000A8
:010D4B0000A7
:010D4C0000A6
:010D4D0000A5
:010D4E0000A4
:010D4F0000A3
:010D500000A2
:010D510000A1
:010D520000A0
:010D5300009F
:010D5400009E
:010D5500009D
:010D5600009C
:010D5700009B
:010D5800009A
:010D59000099
:010D5A000098
:010D5B000097
:010D5C000096
:010D5D000095
:010D5E000094
:010D5F000093
:010D60000092
:010D61000091
:010D62000090
:010D6300008F
:010D6400008E
:010D6500008D
:010D6600008C
:010D6700008B
:010D6800008A
:010D69000089
:010D6A000088
:010D6B000087
:010D6C000086
:010D6D000085
:010D6E000084
:010D6F000083
:010D70000082
:010D71000081
:010D72000080
:010D7300007F
:010D7400007E
:010D7500007D
:010D7600007C
:010D7700007B
:010D7800007A
:010D79000079
:010D7A000078
:010D7B000077
:010D7C000076
:010D7D000075
:010D7E000074
:010D7F000073
:010D80000072
:010D81000071
:010D82000070
:010D8300006F
:010D8400006E
:010D8500006D
:010D8600006C
:010D8700006B
:010D8800006A
:010D89000069
:010D8A000068
:010D8B000067
:010D8C000066
:010D8D000065
:010D8E000064
:010D8F000063
:010D90000062
:010D91000061
:010D92000060
:010D9300005F
:010D9400005E
:010D9500005D
:010D9600005C
:010D9700005B
:010D9800005A
:010D99000059
:010D9A000058
:010D9B000057
:010D9C000056
:010D9D000055
:010D9E000054
:010D9F000053
:010DA0000052
:010DA1000051
:010DA2000050
:010DA300004F
:010DA400004E
:010DA500004D
:010DA600004C
:010DA700004B
:010DA800004A
:010DA9000049
:010DAA000048
:010DAB000047
:010DAC000046
:010DAD000045
:010DAE000044
:010DAF000043
:010DB0000042
:010DB1000041
:010DB2000040
:010DB300003F
:010DB400003E
:010DB500003D
:010DB600003C
:010DB700003B
:010DB800003A
:010DB9000039
:010DBA000038
:010DBB000037
:010DBC000036
:010DBD000035
:010DBE000034
:010DBF000033
:010DC0000032
:010DC1000031
:010DC2000030
:010DC300002F
:010DC400002E
:010DC500002D
:010DC600002C
:010DC700002B
:010DC800002A
:010DC9000029
:010DCA000028
:010DCB000027
:010DCC000026
:010DCD000025
:010DCE000024
:010DCF000023
:010DD0000022
:010DD1000021
:010DD2000020
:010DD300001F
:010DD400001E
:010DD500001D
:010DD600001C
:010DD700001B
:010DD800001A
:010DD9000019
:010DDA000018
:010DDB000017
:010DDC000016
:010DDD000015
:010DDE000014
:010DDF000013
:010DE0000012
:010DE1000011
:010DE2000010
:010DE300000F
:010DE400000E
:010DE500000D
:010DE600000C
:010DE700000B
:010DE800000A
:010DE9000009
:010DEA000008
:010DEB000007
:010DEC000006
:010DED000005
:010DEE000004
:010DEF000003
:010DF0000002
:010DF1000001
:010DF2000000
:010DF30000FF
:010DF40000FE
:010DF50000FD
:010DF60000FC
:010DF70000FB
:010DF80000FA
:010DF90000F9
:010DFA0000F8
:010DFB0000F7
:010DFC0000F6
:010DFD0000F5
:010DFE0000F4
:010DFF0000F3
:010E000000F1
:010E010000F0
:010E020000EF
:010E030000EE
:010E040000ED
:010E050000EC
:010E060000EB
:010E070000EA
:010E080000E9
:010E090000E8
:010E0A0000E7
:010E0B0000E6
:010E0C0000E5
:010E0D0000E4
:010E0E0000E3
:010E0F0000E2
:010E100000E1
:010E110000E0
:010E120000DF
:010E130000DE
:010E140000DD
:010E150000DC
:010E160000DB
:010E170000DA
:010E180000D9
:010E190000D8
:010E1A0000D7
:010E1B0000D6
:010E1C0000D5
:010E1D0000D4
:010E1E0000D3
:010E1F0000D2
:010E200000D1
:010E210000D0
:010E220000CF
:010E230000CE
:010E240000CD
:010E250000CC
:010E260000CB
:010E270000CA
:010E280000C9
:010E290000C8
:010E2A0000C7
:010E2B0000C6
:010E2C0000C5
:010E2D0000C4
:010E2E0000C3
:010E2F0000C2
:010E300000C1
:010E310000C0
:010E320000BF
:010E330000BE
:010E340000BD
:010E350000BC
:010E360000BB
:010E370000BA
:010E380000B9
:010E390000B8
:010E3A0000B7
:010E3B0000B6
:010E3C0000B5
:010E3D0000B4
:010E3E0000B3
:010E3F0000B2
:010E400000B1
:010E410000B0
:010E420000AF
:010E430000AE
:010E440000AD
:010E450000AC
:010E460000AB
:010E470000AA
:010E480000A9
:010E490000A8
:010E4A0000A7
:010E4B0000A6
:010E4C0000A5
:010E4D0000A4
:010E4E0000A3
:010E4F0000A2
:010E500000A1
:010E510000A0
:010E5200009F
:010E5300009E
:010E5400009D
:010E5500009C
:010E5600009B
:010E5700009A
:010E58000099
:010E59000098
:010E5A000097
:010E5B000096
:010E5C000095
:010E5D000094
:010E5E000093
:010E5F000092
:010E60000091
:010E61000090
:010E6200008F
:010E6300008E
:010E6400008D
:010E6500008C
:010E6600008B
:010E6700008A
:010E68000089
:010E69000088
:010E6A000087
:010E6B000086
:010E6C000085
:010E6D000084
:010E6E000083
:010E6F000082
:010E70000081
:010E71000080
:010E7200007F
:010E7300007E
:010E7400007D
:010E7500007C
:010E7600007B
:010E7700007A
:010E78000079
:010E79000078
:010E7A000077
:010E7B000076
:010E7C000075
:010E7D000074
:010E7E000073
:010E7F000072
:010E80000071
:010E81000070
:010E8200006F
:010E8300006E
:010E8400006D
:010E8500006C
:010E8600006B
:010E8700006A
:010E88000069
:010E89000068
:010E8A000067
:010E8B000066
:010E8C000065
:010E8D000064
:010E8E000063
:010E8F000062
:010E90000061
:010E91000060
:010E9200005F
:010E9300005E
:010E9400005D
:010E9500005C
:010E9600005B
:010E9700005A
:010E98000059
:010E99000058
:010E9A000057
:010E9B000056
:010E9C000055
:010E9D000054
:010E9E000053
:010E9F000052
:010EA0000051
:010EA1000050
:010EA200004F
:010EA300004E
:010EA400004D
:010EA500004C
:010EA600004B
:010EA700004A
:010EA8000049
:010EA9000048
:010EAA000047
:010EAB000046
:010EAC000045
:010EAD000044
:010EAE000043
:010EAF000042
:010EB0000041
:010EB1000040
:010EB200003F
:010EB300003E
:010EB400003D
:010EB500003C
:010EB600003B
:010EB700003A
:010EB8000039
:010EB9000038
:010EBA000037
:010EBB000036
:010EBC000035
:010EBD000034
:010EBE000033
:010EBF000032
:010EC0000031
:010EC1000030
:010EC200002F
:010EC300002E
:010EC400002D
:010EC500002C
:010EC600002B
:010EC700002A
:010EC8000029
:010EC9000028
:010ECA000027
:010ECB000026
:010ECC000025
:010ECD000024
:010ECE000023
:010ECF000022
:010ED0000021
:010ED1000020
:010ED200001F
:010ED300001E
:010ED400001D
:010ED500001C
:010ED600001B
:010ED700001A
:010ED8000019
:010ED9000018
:010EDA000017
:010EDB000016
:010EDC000015
:010EDD000014
:010EDE000013
:010EDF000012
:010EE0000011
:010EE1000010
:010EE200000F
:010EE300000E
:010EE400000D
:010EE500000C
:010EE600000B
:010EE700000A
:010EE8000009
:010EE9000008
:010EEA000007
:010EEB000006
:010EEC000005
:010EED000004
:010EEE000003
:010EEF000002
:010EF0000001
:010EF1000000
:010EF20000FF
:010EF30000FE
:010EF40000FD
:010EF50000FC
:010EF60000FB
:010EF70000FA
:010EF80000F9
:010EF90000F8
:010EFA0000F7
:010EFB0000F6
:010EFC0000F5
:010EFD0000F4
:010EFE0000F3
:010EFF0000F2
:010F000000F0
:010F010000EF
:010F020000EE
:010F030000ED
:010F040000EC
:010F050000EB
:010F060000EA
:010F070000E9
:010F080000E8
:010F090000E7
:010F0A0000E6
:010F0B0000E5
:010F0C0000E4
:010F0D0000E3
:010F0E0000E2
:010F0F0000E1
:010F100000E0
:010F110000DF
:010F120000DE
:010F130000DD
:010F140000DC
:010F150000DB
:010F160000DA
:010F170000D9
:010F180000D8
:010F190000D7
:010F1A0000D6
:010F1B0000D5
:010F1C0000D4
:010F1D0000D3
:010F1E0000D2
:010F1F0000D1
:010F200000D0
:010F210000CF
:010F220000CE
:010F230000CD
:010F240000CC
:010F250000CB
:010F260000CA
:010F270000C9
:010F280000C8
:010F290000C7
:010F2A0000C6
:010F2B0000C5
:010F2C0000C4
:010F2D0000C3
:010F2E0000C2
:010F2F0000C1
:010F300000C0
:010F310000BF
:010F320000BE
:010F330000BD
:010F340000BC
:010F350000BB
:010F360000BA
:010F370000B9
:010F380000B8
:010F390000B7
:010F3A0000B6
:010F3B0000B5
:010F3C0000B4
:010F3D0000B3
:010F3E0000B2
:010F3F0000B1
:010F400000B0
:010F410000AF
:010F420000AE
:010F430000AD
:010F440000AC
:010F450000AB
:010F460000AA
:010F470000A9
:010F480000A8
:010F490000A7
:010F4A0000A6
:010F4B0000A5
:010F4C0000A4
:010F4D0000A3
:010F4E0000A2
:010F4F0000A1
:010F500000A0
:010F5100009F
:010F5200009E
:010F5300009D
:010F5400009C
:010F5500009B
:010F5600009A
:010F57000099
:010F58000098
:010F59000097
:010F5A000096
:010F5B000095
:010F5C000094
:010F5D000093
:010F5E000092
:010F5F000091
:010F60000090
:010F6100008F
:010F6200008E
:010F6300008D
:010F6400008C
:010F6500008B
:010F6600008A
:010F67000089
:010F68000088
:010F69000087
:010F6A000086
:010F6B000085
:010F6C000084
:010F6D000083
:010F6E000082
:010F6F000081
:010F70000080
:010F7100007F
:010F7200007E
:010F7300007D
:010F7400007C
:010F7500007B
:010F7600007A
:010F77000079
:010F78000078
:010F79000077
:010F7A000076
:010F7B000075
:010F7C000074
:010F7D000073
:010F7E000072
:010F7F000071
:010F80000070
:010F8100006F
:010F8200006E
:010F8300006D
:010F8400006C
:010F8500006B
:010F8600006A
:010F87000069
:010F88000068
:010F89000067
:010F8A000066
:010F8B000065
:010F8C000064
:010F8D000063
:010F8E000062
:010F8F000061
:010F90000060
:010F9100005F
:010F9200005E
:010F9300005D
:010F9400005C
:010F9500005B
:010F9600005A
:010F97000059
:010F98000058
:010F99000057
:010F9A000056
:010F9B000055
:010F9C000054
:010F9D000053
:010F9E000052
:010F9F000051
:010FA0000050
:010FA100004F
:010FA200004E
:010FA300004D
:010FA400004C
:010FA500004B
:010FA600004A
:010FA7000049
:010FA8000048
:010FA9000047
:010FAA000046
:010FAB000045
:010FAC000044
:010FAD000043
:010FAE000042
:010FAF000041
:010FB0000040
:010FB100003F
:010FB200003E
:010FB300003D
:010FB400003C
:010FB500003B
:010FB600003A
:010FB7000039
:010FB8000038
:010FB9000037
:010FBA000036
:010FBB000035
:010FBC000034
:010FBD000033
:010FBE000032
:010FBF000031
:010FC0000030
:010FC100002F
:010FC200002E
:010FC300002D
:010FC400002C
:010FC500002B
:010FC600002A
:010FC7000029
:010FC8000028
:010FC9000027
:010FCA000026
:010FCB000025
:010FCC000024
:010FCD000023
:010FCE000022
:010FCF000021
:010FD0000020
:010FD100001F
:010FD200001E
:010FD300001D
:010FD400001C
:010FD500001B
:010FD600001A
:010FD7000019
:010FD8000018
:010FD9000017
:010FDA000016
:010FDB000015
:010FDC000014
:010FDD000013
:010FDE000012
:010FDF000011
:010FE0000010
:010FE100000F
:010FE200000E
:010FE300000D
:010FE400000C
:010FE500000B
:010FE600000A
:010FE7000009
:010FE8000008
:010FE9000007
:010FEA000006
:010FEB000005
:010FEC000004
:010FED000003
:010FEE000002
:010FEF000001
:010FF0000000
:010FF10000FF
:010FF20000FE
:010FF30000FD
:010FF40000FC
:010FF50000FB
:010FF60000FA
:010FF70000F9
:010FF80000F8
:010FF90000F7
:010FFA0000F6
:010FFB0000F5
:010FFC0000F4
:010FFD0000F3
:010FFE0000F2
:010FFF0000F1
:00000001FF
