:0100000009F6
:0100010007F7
:0100020009F4
:0100030006F6
:0100040013E8
:0100050010EA
:0100060006F3
:010007000AEE
:0100080006F1
:0100090006F0
:01000A0007EE
:01000B000CE8
:01000C0003F0
:01000D000FE3
:01000E000AE7
:01000F0009E7
:0100100006E9
:010011000AE4
:010012000AE3
:0100130009E3
:010014000BE0
:010015000DDD
:0100160009E0
:0100170006E2
:010018000CDB
:0100190003E3
:01001A0006DF
:01001B000ED6
:01001C000AD9
:01001D000CD6
:01001E0003DE
:01001F0006DA
:010020000FD0
:010021000FCF
:010022000FCE
:010023000CD0
:010024000CCF
:010025000AD0
:010026000ACF
:010027000DCB
:010028000DCA
:0100290013C3
:01002A0009CC
:01002B000BC9
:01002C0009CA
:01002D0003CF
:01002E0009C8
:01002F0009C7
:010030000EC1
:0100310002CC
:010032000BC2
:0100330009C3
:0100340009C2
:0100350006C4
:0100360005C4
:0100370006C2
:0100380006C1
:010039000DB9
:01003A000DB8
:01003B0017AD
:01003C000CB7
:01003D000EB4
:01003E0006BB
:01003F0006BA
:010040000CB3
:0100410006B8
:0100420003BA
:010043000CB0
:0100440014A7
:0100450002B8
:010046000EAB
:010047000CAC
:0100480009AE
:0100490006B0
:01004A0006AF
:01004B000AAA
:01004C000EA5
:01004D0005AD
:01004E0009A8
:01004F0009A7
:0100500009A6
:0100510009A5
:0100520009A4
:0100530004A8
:0100540009A2
:0100550006A4
:010056000C9D
:0100570006A2
:0100580003A4
:01005900099D
:01005A0004A1
:01005B00099B
:01005C00099A
:01005D000C96
:01005E00029F
:01005F000A96
:010060000A95
:010061000698
:010062000499
:01006300029A
:010064000398
:010065000397
:010066000F8A
:010067000A8E
:010068000A8D
:010069000690
:01006A00098C
:01006B00098B
:01006C00068D
:01006D00068C
:01006E00068B
:01006F000987
:010070000986
:010071000688
:010072000687
:010073000A82
:010074000388
:010075000288
:010076000C7D
:010077001771
:010078000A7D
:010079000C7A
:01007A000C79
:01007B000381
:01007C00087B
:01007D00067C
:01007E00067B
:01007F00126E
:010080000E71
:01008100027C
:010082000D70
:010083000478
:010084000A71
:010085000674
:010086000673
:010087000C6C
:010088000473
:010089000472
:01008A00066F
:01008B00066E
:01008C000F64
:01008D000969
:01008E000A67
:01008F000868
:010090000768
:010091001658
:010092001657
:01009300105C
:010094000665
:010095000C5E
:010096000663
:010097000E5A
:010098000A5D
:010099000B5B
:01009A000B5A
:01009B001252
:01009C000E55
:01009D00085A
:01009E000E53
:01009F00065A
:0100A000104F
:0100A1000658
:0100A2000459
:0100A3000656
:0100A4000457
:0100A5000654
:0100A6000653
:0100A7000652
:0100A800094E
:0100A9000650
:0100AA000352
:0100AB000351
:0100AC00084B
:0100AD00064C
:0100AE00064B
:0100AF00064A
:0100B000044B
:0100B1000C42
:0100B200113C
:0100B3001735
:0100B4001734
:0100B5001634
:0100B6001633
:0100B7001236
:0100B8000641
:0100B9000442
:0100BA000342
:0100BB001232
:0100BC000340
:0100BD00043E
:0100BE00063B
:0100BF00063A
:0100C000102F
:0100C100102E
:0100C2000934
:0100C3000834
:0100C4000932
:0100C5000337
:0100C6000237
:0100C700092F
:0100C8001225
:0100C900092D
:0100CA000C29
:0100CB000232
:0100CC000330
:0100CD000929
:0100CE00042D
:0100CF00042C
:0100D0000B24
:0100D1000628
:0100D2000A23
:0100D3000C20
:0100D4000F1C
:0100D5000327
:0100D6000920
:0100D7000622
:0100D800091E
:0100D9000E18
:0100DA000D18
:0100DB000D17
:0100DC00091A
:0100DD000919
:0100DE00061B
:0100DF00061A
:0100E000041B
:0100E100041A
:0100E2000914
:0100E3000418
:0100E4000615
:0100E5000A10
:0100E6000E0B
:0100E700090F
:0100E8000314
:0100E9000313
:0100EA000411
:0100EB00060E
:0100EC001201
:0100ED001200
:0100EE000A07
:0100EF00040C
:0100F00012FD
:0100F1000608
:0100F2000805
:0100F3000903
:0100F40013F8
:0100F5000307
:0100F6000405
:0100F7000404
:0100F80010F7
:0100F9000402
:0100FA0006FF
:0100FB0009FB
:0100FC000FF4
:0100FD000DF5
:0100FE000EF3
:0100FF000AF6
:0101000006F8
:010101000EEF
:010102000CF0
:0101030005F6
:010104000CEE
:010105000CED
:0101060006F2
:0101070006F1
:0101080010E6
:0101090006EF
:01010A0009EB
:01010B0006ED
:01010C0009E9
:01010D0009E8
:01010E0006EA
:01010F0009E6
:0101100003EB
:0101110015D8
:010112000CE0
:0101130009E2
:0101140014D6
:0101150009E0
:0101160015D3
:0101170017D0
:0101180004E2
:0101190004E1
:01011A0006DE
:01011B0006DD
:01011C0004DE
:01011D0013CE
:01011E000CD4
:01011F000AD5
:010120000CD2
:0101210013CA
:010122000AD2
:010123000CCF
:0101240002D8
:0101250004D5
:0101260009CF
:0101270004D3
:0101280009CD
:0101290009CC
:01012A0004D0
:01012B0009CA
:01012C0009C9
:01012D0009C8
:01012E000FC1
:01012F000FC0
:0101300004CA
:0101310007C6
:010132000AC2
:0101330008C3
:0101340010BA
:0101350003C6
:0101360003C5
:0101370009BE
:0101380012B4
:0101390012B3
:01013A0009BB
:01013B000EB5
:01013C0006BC
:01013D0010B1
:01013E000CB4
:01013F0010AF
:010140000AB4
:0101410003BA
:010142000AB2
:0101430004B7
:0101440009B1
:0101450005B4
:010146000CAC
:010147000AAD
:010148000EA8
:0101490010A5
:01014A0008AC
:01014B0002B1
:01014C0006AC
:01014D0009A8
:01014E000EA2
:01014F000CA3
:01015000129C
:01015100129B
:0101520009A3
:0101530006A5
:0101540009A1
:0101550009A0
:0101560002A6
:0101570006A1
:01015800099D
:01015900099C
:01015A00069E
:01015B00069D
:01015C00069C
:01015D000F92
:01015E00069A
:01015F000E91
:010160000698
:010161000499
:010162001389
:010163001388
:010164000991
:010165000396
:01016600098F
:010167000493
:010168000690
:01016900167F
:01016A000E86
:01016B00147F
:01016C000989
:01016D000988
:01016E000C84
:01016F000C83
:010170000688
:010171000687
:010172000389
:010173000388
:010174000684
:010175000C7D
:010176000C7C
:010177000C7B
:01017800097D
:010179000C79
:01017A000C78
:01017B00087B
:01017C000979
:01017D00037E
:01017E00067A
:01017F001768
:01018000047A
:01018100126B
:010182000676
:010183000675
:010184000476
:010185000970
:010186000375
:010187000473
:010188000C6A
:010189000372
:01018A00066E
:01018B000370
:01018C000969
:01018D000968
:01018E000C64
:01018F00046B
:010190000965
:010191000A63
:010192000963
:010193001556
:010194000763
:010195000960
:010196000464
:010197000C5B
:010198000C5A
:01019900095C
:01019A001153
:01019B00095A
:01019C00065C
:01019D00134E
:01019E000759
:01019F000C53
:0101A0000C52
:0101A1000657
:0101A2000458
:0101A3000655
:0101A4000654
:0101A5000E4B
:0101A6000E4A
:0101A7000651
:0101A8000551
:0101A9000B4A
:0101AA000E46
:0101AB00094A
:0101AC00064C
:0101AD000948
:0101AE000947
:0101AF00044B
:0101B000024C
:0101B1000944
:0101B2000943
:0101B3000942
:0101B4000941
:0101B5000742
:0101B6000A3E
:0101B700093E
:0101B800093D
:0101B9000342
:0101BA000341
:0101BB000C37
:0101BC00063C
:0101BD00043D
:0101BE00023E
:0101BF001728
:0101C000043A
:0101C1000934
:0101C2000C30
:0101C3000635
:0101C4000337
:0101C5001029
:0101C6000434
:0101C7000235
:0101C800082E
:0101C900062F
:0101CA00062E
:0101CB000A29
:0101CC000A28
:0101CD00042D
:0101CE00032D
:0101CF000629
:0101D0000628
:0101D100032A
:0101D2000A22
:0101D3001714
:0101D4000B1F
:0101D5000623
:0101D6001414
:0101D7001710
:0101D800170F
:0101D9000E17
:0101DA000C18
:0101DB000E15
:0101DC00061C
:0101DD000918
:0101DE000E12
:0101DF000F10
:0101E0000915
:0101E1000E0F
:0101E200120A
:0101E3000615
:0101E4000A10
:0101E5000910
:0101E6000711
:0101E7000314
:0101E8000610
:0101E9000C09
:0101EA001202
:0101EB00090A
:0101EC000D05
:0101ED00030E
:0101EE000C04
:0101EF000A05
:0101F0000806
:0101F1000904
:0101F2000507
:0101F3000506
:0101F4000604
:0101F5000306
:0101F6000602
:0101F7000CFB
:0101F8000FF7
:0101F9000AFB
:0101FA000CF8
:0101FB0006FD
:0101FC0006FC
:0101FD0010F1
:0101FE0006FA
:0101FF0006F9
:0102000006F7
:0102010006F6
:0102020009F2
:0102030003F7
:0102040006F3
:0102050006F2
:0102060009EE
:0102070009ED
:010208000AEB
:0102090010E4
:01020A0005EE
:01020B0005ED
:01020C000AE7
:01020D0006EA
:01020E0012DD
:01020F0009E5
:0102100007E6
:010211000AE2
:0102120012D9
:0102130009E1
:0102140006E3
:0102150003E5
:0102160009DE
:010217000ADC
:010218000CD9
:010219000CD8
:01021A0015CE
:01021B0008DA
:01021C0008D9
:01021D0003DD
:01021E0004DB
:01021F0009D5
:0102200009D4
:0102210016C6
:010222000ECD
:010223000FCB
:010224000ECB
:010225000ECA
:0102260006D1
:0102270009CD
:0102280010C5
:0102290010C4
:01022A0008CB
:01022B0009C9
:01022C0003CE
:01022D0009C7
:01022E0006C9
:01022F000AC4
:0102300012BB
:0102310003C9
:010232000BC0
:010233000BBF
:0102340009C0
:0102350009BF
:0102360009BE
:0102370004C2
:0102380006BF
:0102390006BE
:01023A0011B2
:01023B0011B1
:01023C0004BD
:01023D0012AE
:01023E000CB3
:01023F000CB2
:010240000FAE
:010241000FAD
:0102420006B5
:0102430006B4
:010244000EAB
:0102450009AF
:010246000FA8
:010247000FA7
:0102480009AC
:01024900159F
:01024A000CA7
:01024B000CA6
:01024C00129F
:01024D0009A7
:01024E0003AC
:01024F000AA4
:0102500004A9
:010251001498
:0102520008A3
:0102530008A2
:0102540009A0
:0102550003A5
:0102560004A3
:0102570006A0
:01025800069F
:010259000A9A
:01025A00079C
:01025B00069C
:01025C00039E
:01025D00128E
:01025E000699
:01025F000698
:01026000039A
:010261000795
:010262000695
:010263000694
:010264000792
:010265000C8C
:010266000493
:01026700098D
:01026800098C
:010269000F85
:01026A000390
:01026B00068C
:01026C000B86
:01026D000987
:01026E000986
:01026F00048A
:010270000687
:010271000A82
:01027200107B
:010273000486
:010274000980
:010275000880
:01027600087F
:010277001274
:010278000B7A
:01027900057F
:01027A000380
:01027B00037F
:01027C00067B
:01027D000A76
:01027E00037C
:01027F00037B
:010280001667
:010281000676
:010282000675
:010283000C6E
:010284000970
:01028500096F
:01028600096E
:010287000670
:01028800096C
:010289001361
:01028A00066D
:01028B00135F
:01028C000968
:01028D00036D
:01028E00046B
:01028F000A64
:010290000667
:010291000864
:010292000C5F
:010293000664
:010294001356
:010295001454
:010296001453
:010297000660
:01029800065F
:010299000E56
:01029A000E55
:01029B00075B
:01029C000958
:01029D000A56
:01029E000A55
:01029F000658
:0102A0000657
:0102A1000656
:0102A2000655
:0102A3000654
:0102A4000950
:0102A5000652
:0102A6000651
:0102A7000A4C
:0102A8000A4B
:0102A9000D47
:0102AA00054E
:0102AB00064C
:0102AC00044D
:0102AD00054B
:0102AE000C43
:0102AF000648
:0102B000034A
:0102B1000943
:0102B2000249
:0102B3001238
:0102B4000346
:0102B5000345
:0102B6001235
:0102B700172F
:0102B8001332
:0102B900093B
:0102BA00063D
:0102BB000C36
:0102BC00063B
:0102BD000A36
:0102BE000F30
:0102BF000638
:0102C0000835
:0102C1000636
:0102C2000635
:0102C3001228
:0102C4001227
:0102C5000434
:0102C6000433
:0102C700092D
:0102C800082D
:0102C900052F
:0102CA00082B
:0102CB00042E
:0102CC000F22
:0102CD000828
:0102CE00042B
:0102CF00042A
:0102D000111C
:0102D100121A
:0102D2000C1F
:0102D3000921
:0102D4000C1D
:0102D5000226
:0102D6000621
:0102D7000B1B
:0102D8000A1B
:0102D9001113
:0102DA00061D
:0102DB000919
:0102DC000C15
:0102DD000C14
:0102DE000F10
:0102DF00031B
:0102E0000716
:0102E1000913
:0102E2000318
:0102E3000C0E
:0102E4000E0B
:0102E500090F
:0102E6001205
:0102E7001204
:0102E8000A0B
:0102E9000B09
:0102EA000310
:0102EB00030F
:0102EC000C05
:0102ED000808
:0102EE000C03
:0102EF000E00
:0102F0000A03
:0102F100020A
:0102F2000CFF
:0102F3000CFE
:0102F40012F7
:0102F50012F6
:0102F6000CFB
:0102F70009FD
:0102F8000BFA
:0102F9000CF8
:0102FA000300
:0102FB0003FF
:0102FC0004FD
:0102FD0005FB
:0102FE0004FB
:0102FF0009F5
:0103000006F6
:0103010006F5
:0103020008F2
:0103030012E7
:010304000AEE
:0103050005F2
:0103060006F0
:010307000EE7
:0103080004F0
:0103090004EF
:01030A000AE8
:01030B0003EE
:01030C0004EC
:01030D0004EB
:01030E0006E8
:01030F0006E7
:0103100006E6
:0103110003E8
:0103120004E6
:0103130003E6
:0103140006E2
:0103150006E1
:0103160003E3
:010317000ADB
:0103180009DB
:0103190008DB
:01031A0008DA
:01031B000BD6
:01031C0009D7
:01031D0006D9
:01031E000CD2
:01031F000CD1
:0103200008D4
:0103210003D8
:0103220004D6
:0103230016C3
:0103240008D0
:0103250009CE
:0103260009CD
:010327000EC7
:0103280008CC
:010329000EC5
:01032A0014BE
:01032B000AC7
:01032C0004CC
:01032D0004CB
:01032E0009C5
:01032F0005C8
:0103300004C8
:0103310004C7
:0103320005C5
:010333000ABF
:0103340008C0
:0103350003C4
:0103360004C2
:0103370006BF
:0103380004C0
:010339000CB7
:01033A0006BC
:01033B0009B8
:01033C0004BC
:01033D0003BC
:01033E0009B5
:01033F0004B9
:0103400012AA
:010341000CAF
:0103420008B2
:0103430005B4
:0103440006B2
:0103450009AE
:010346000CAA
:0103470006AF
:0103480006AE
:010349000FA4
:01034A0002B0
:01034B0006AB
:01034C0002AE
:01034D0006A9
:01034E0003AB
:01034F0005A8
:0103500009A3
:0103510009A2
:0103520009A1
:0103530004A5
:0103540006A2
:0103550006A1
:0103560003A3
:010357000C99
:01035800069E
:0103590003A0
:01035A000A98
:01035B00069B
:01035C000997
:01035D000E91
:01035E000698
:01035F000895
:010360000C90
:010361000A91
:010362000694
:010363000990
:010364000C8C
:01036500098E
:010366000690
:010367000392
:01036800068E
:01036900068D
:01036A000E84
:01036B000988
:01036C000E82
:01036D00107F
:01036E000A84
:01036F000588
:010370000389
:010371000C7F
:010372000585
:010373000485
:010374000C7C
:010375000681
:010376000680
:010377000D78
:010378000D77
:01037900067D
:01037A00037F
:01037B00067B
:01037C000E72
:01037D00027D
:01037E00047A
:01037F000479
:010380000973
:010381000477
:010382000674
:010383001762
:010384001761
:010385000374
:010386000472
:010387000372
:010388000470
:010389000F64
:01038A00036F
:01038B00046D
:01038C00046C
:01038D000966
:01038E000668
:01038F000A63
:010390000666
:010391000665
:010392000664
:010393000267
:010394000662
:010395000364
:010396000660
:010397000362
:010398001054
:01039900065D
:01039A00164C
:01039B000A57
:01039C00124E
:01039D000956
:01039E000A54
:01039F000954
:0103A0000A52
:0103A1000A51
:0103A2000A50
:0103A3000950
:0103A4000355
:0103A5000D4A
:0103A6000D49
:0103A700074E
:0103A800094B
:0103A900064D
:0103AA00064C
:0103AB00024F
:0103AC001040
:0103AD000649
:0103AE000C42
:0103AF00034A
:0103B0000646
:0103B1000447
:0103B2000E3C
:0103B3000643
:0103B400093F
:0103B5000A3D
:0103B6000A3C
:0103B700063F
:0103B800093B
:0103B9000E35
:0103BA000C36
:0103BB000C35
:0103BC000937
:0103BD00102F
:0103BE000638
:0103BF000E2F
:0103C000023A
:0103C100102B
:0103C2000A30
:0103C3000435
:0103C4000731
:0103C5001027
:0103C6001026
:0103C700062F
:0103C8000C28
:0103C900082B
:0103CA001220
:0103CB000E23
:0103CC000E22
:0103CD000629
:0103CE00121C
:0103CF00032A
:0103D0000923
:0103D1000625
:0103D200101A
:0103D3000425
:0103D4001018
:0103D5001017
:0103D6000A1C
:0103D700081D
:0103D8000222
:0103D900091A
:0103DA00081A
:0103DB00031E
:0103DC000B15
:0103DD000916
:0103DE000816
:0103DF000617
:0103E0000319
:0103E1000615
:0103E2000911
:0103E3000910
:0103E4001305
:0103E5001304
:0103E600080E
:0103E700080D
:0103E8000311
:0103E900040F
:0103EA00060C
:0103EB00060B
:0103EC000E02
:0103ED000C03
:0103EE000509
:0103EF000904
:0103F0000903
:0103F1000803
:0103F2000604
:0103F3000306
:0103F4000CFC
:0103F5000CFB
:0103F6000204
:0103F7000302
:0103F8000EF6
:0103F9000EF5
:0103FA000EF4
:0103FB0006FB
:0103FC0009F7
:0103FD0004FB
:0103FE0006F8
:0103FF0003FA
:0104000009F2
:0104010004F6
:0104020005F4
:0104030009EF
:010404000AED
:010405000AEC
:0104060009EC
:0104070009EB
:0104080013E0
:0104090009E9
:01040A0013DE
:01040B0004EC
:01040C0009E6
:01040D0013DB
:01040E000CE1
:01040F0005E7
:0104100012D9
:010411000CDE
:0104120003E6
:0104130003E5
:0104140004E3
:0104150009DD
:0104160004E1
:0104170004E0
:0104180006DD
:0104190008DA
:01041A0003DE
:01041B0006DA
:01041C0005DA
:01041D0005D9
:01041E0006D7
:01041F000FCD
:010420000CCF
:010421000ECC
:0104220006D3
:0104230006D2
:0104240004D3
:0104250003D3
:0104260004D1
:0104270003D1
:0104280004CF
:0104290003CF
:01042A0004CD
:01042B0006CA
:01042C0009C6
:01042D0004CA
:01042E000CC1
:01042F0003C9
:0104300006C5
:0104310007C3
:0104320008C1
:0104330003C5
:0104340006C1
:0104350009BD
:0104360004C1
:0104370006BE
:010438000AB9
:010439000AB8
:01043A0011B0
:01043B0014AC
:01043C0004BB
:01043D0009B5
:01043E0009B4
:01043F0010AC
:0104400004B7
:0104410004B6
:0104420006B3
:010443000AAE
:0104440006B1
:0104450008AE
:0104460008AD
:0104470008AC
:0104480004AF
:0104490006AC
:01044A0006AB
:01044B0004AC
:01044C0004AB
:01044D00129C
:01044E0004A9
:01044F000E9E
:0104500006A5
:0104510003A7
:0104520004A5
:010453000F99
:0104540003A4
:0104550006A0
:01045600099C
:01045700099B
:01045800099A
:01045900158D
:01045A00029F
:01045B00039D
:01045C000D92
:01045D000896
:01045E000994
:01045F000993
:010460000A91
:010461000A90
:010462000693
:010463000692
:010464001582
:010465000D89
:010466001580
:010467001480
:01046800068D
:010469000989
:01046A000988
:01046B00038D
:01046C000986
:01046D000A84
:01046E000984
:01046F000983
:010470000487
:010471000E7C
:010472000683
:010473000C7C
:010474000A7D
:01047500087E
:01047600067F
:01047700097B
:010478000E75
:01047900067C
:01047A000978
:01047B000A76
:01047C000679
:01047D000678
:01047E000677
:01047F000676
:010480000378
:010481000377
:010482000376
:010483000276
:010484000B6C
:010485000670
:010486000B6A
:010487000B69
:01048800096A
:01048900046E
:01048A000C65
:01048B00036D
:01048C000966
:01048D00036B
:01048E000964
:01048F000369
:010490000962
:010491000961
:010492001257
:010493001256
:01049400095E
:010495000660
:010496000362
:01049700095B
:010498000360
:010499001052
:01049A00045D
:01049B000858
:01049C000659
:01049D000658
:01049E000954
:01049F000953
:0104A0000A51
:0104A1000852
:0104A2000F4A
:0104A3000850
:0104A4000453
:0104A5000650
:0104A600064F
:0104A700064E
:0104A8000251
:0104A9000B47
:0104AA000F42
:0104AB000D43
:0104AC000946
:0104AD000945
:0104AE000449
:0104AF000448
:0104B0000447
:0104B1000347
:0104B2000346
:0104B3001434
:0104B4000641
:0104B5000442
:0104B600073E
:0104B700093B
:0104B800093A
:0104B900063C
:0104BA00063B
:0104BB00043C
:0104BC000639
:0104BD000935
:0104BE000835
:0104BF000834
:0104C0000932
:0104C100102A
:0104C2000C2D
:0104C3000C2C
:0104C4000631
:0104C5001620
:0104C600062F
:0104C700062E
:0104C800062D
:0104C900062C
:0104CA000A27
:0104CB001020
:0104CC000629
:0104CD000A24
:0104CE000627
:0104CF00022A
:0104D0000625
:0104D1000A20
:0104D2000623
:0104D3000424
:0104D4001017
:0104D5000D19
:0104D600061F
:0104D700091B
:0104D800061D
:0104D900061C
:0104DA000B16
:0104DB000A16
:0104DC000A15
:0104DD001509
:0104DE000914
:0104DF000616
:0104E000100B
:0104E1000317
:0104E2000C0D
:0104E300090F
:0104E400080F
:0104E5000214
:0104E6000312
:0104E700060E
:0104E8001201
:0104E9000909
:0104EA000908
:0104EB000907
:0104EC000609
:0104ED00020C
:0104EE000409
:0104EF000C00
:0104F0000CFF
:0104F10016F4
:0104F20016F3
:0104F3000BFD
:0104F4000BFC
:0104F50009FD
:0104F6000302
:0104F7000202
:0104F8000201
:0104F90009F9
:0104FA0009F8
:0104FB0009F7
:0104FC0009F6
:0104FD0006F8
:0104FE000AF3
:0104FF0009F3
:0105000009F1
:0105010009F0
:0105020009EF
:0105030006F1
:0105040003F3
:0105050006EF
:0105060006EE
:0105070003F0
:0105080006EC
:010509000AE7
:01050A0006EA
:01050B000AE5
:01050C000CE2
:01050D000AE3
:01050E0009E3
:01050F0012D9
:0105100004E6
:010511000ADF
:010512000ADE
:010513000ED9
:0105140013D3
:0105150006DF
:0105160006DE
:010517000AD9
:0105180008DA
:0105190006DB
:01051A0012CE
:01051B000CD3
:01051C0008D6
:01051D0003DA
:01051E0003D9
:01051F0009D2
:0105200004D6
:010521000CCD
:0105220009CF
:0105230008CF
:0105240007CF
:0105250009CC
:010526000CC8
:0105270006CD
:0105280009C9
:0105290017BA
:01052A0006CA
:01052B0003CC
:01052C000EC0
:01052D000CC1
:01052E000CC0
:01052F0007C4
:0105300009C1
:010531000CBD
:010532000CBC
:010533000FB8
:010534000FB7
:0105350009BC
:010536000FB5
:0105370008BB
:0105380004BE
:0105390013AE
:01053A0013AD
:01053B0014AB
:01053C0014AA
:01053D000CB1
:01053E000CB0
:01053F000EAD
:0105400008B2
:010541000CAD
:0105420005B3
:0105430003B4
:010544000CAA
:0105450003B2
:0105460003B1
:0105470009AA
:0105480006AC
:0105490004AD
:01054A000EA2
:01054B0006A9
:01054C0009A5
:01054D0006A7
:01054E000AA2
:01054F0006A5
:0105500006A4
:0105510009A0
:01055200099F
:0105530006A1
:0105540006A0
:0105550003A2
:01055600069E
:01055700178C
:01055800049E
:010559000C95
:01055A000898
:01055B000E91
:01055C000E90
:01055D000A93
:01055E000696
:01055F000992
:010560000793
:010561000A8F
:01056200098F
:010563000C8B
:010564000E88
:01056500088D
:01056600088C
:01056700068D
:01056800068C
:010569000988
:01056A000987
:01056B000689
:01056C000688
:01056D000885
:01056E000884
:01056F000C7F
:010570000B7F
:010571000485
:010572000781
:010573000384
:01057400097D
:01057500077E
:01057600067E
:010577000B78
:010578000B77
:01057900126F
:01057A00057B
:01057B00037C
:01057C00146A
:01057D000479
:01057E000478
:01057F000A71
:010580000E6C
:010581000871
:01058200096F
:01058300086F
:010584000670
:010585000471
:01058600096B
:01058700086B
:010588001161
:01058900066B
:01058A00115F
:01058B00115E
:01058C00036B
:01058D00125B
:01058E00125A
:01058F001259
:010590000862
:010591000960
:01059200095F
:01059300085F
:01059400095D
:01059500095C
:01059600095B
:01059700065D
:01059800065C
:01059900065B
:01059A00035D
:01059B000659
:01059C000658
:01059D000657
:01059E000656
:01059F000457
:0105A0000951
:0105A1000950
:0105A2001741
:0105A3000354
:0105A4000452
:0105A500173E
:0105A6000351
:0105A7000350
:0105A800044E
:0105A900064B
:0105AA00034D
:0105AB000649
:0105AC00044A
:0105AD000F3E
:0105AE000C40
:0105AF000942
:0105B0000941
:0105B1000940
:0105B2000345
:0105B3000641
:0105B4000D39
:0105B5000441
:0105B6000D37
:0105B7001231
:0105B800053D
:0105B9000839
:0105BA000937
:0105BB000936
:0105BC000E30
:0105BD000E2F
:0105BE00102C
:0105BF000A31
:0105C0000634
:0105C1000435
:0105C2000533
:0105C3000532
:0105C4001026
:0105C5001025
:0105C6000F25
:0105C7000231
:0105C800062C
:0105C900042D
:0105CA000C24
:0105CB000C23
:0105CC000826
:0105CD000825
:0105CE000527
:0105CF000823
:0105D0000624
:0105D1001217
:0105D2000E1A
:0105D3000E19
:0105D4000C1A
:0105D5001015
:0105D600150F
:0105D700150E
:0105D8001210
:0105D9000819
:0105DA000C14
:0105DB000C13
:0105DC00140A
:0105DD000617
:0105DE001408
:0105DF001407
:0105E0000E0C
:0105E1000E0B
:0105E2000810
:0105E300090E
:0105E4000A0C
:0105E5000B0A
:0105E6001004
:0105E700060D
:0105E8000909
:0105E9000C05
:0105EA000907
:0105EB000A05
:0105EC00030B
:0105ED00020B
:0105EE000309
:0105EF000902
:0105F0000604
:0105F1000603
:0105F20009FF
:0105F3000601
:0105F4000CFA
:0105F50006FF
:0105F6000400
:0105F70010F3
:0105F80009F9
:0105F90009F8
:0105FA000AF6
:0105FB0006F9
:0105FC0008F6
:0105FD0015E8
:0105FE0009F3
:0105FF0003F8
:010600000AEF
:0106010003F5
:0106020004F3
:0106030006F0
:0106040006EF
:0106050006EE
:010606000CE7
:010607000FE3
:0106080004ED
:0106090008E8
:01060A000AE5
:01060B000AE4
:01060C000CE1
:01060D0008E4
:01060E0004E7
:01060F0004E6
:0106100006E3
:0106110002E6
:0106120009DE
:0106130009DD
:010614000ADB
:010615000DD7
:0106160006DD
:0106170003DF
:0106180006DB
:0106190005DB
:01061A0009D6
:01061B0009D5
:01061C0007D6
:01061D0006D6
:01061E0006D5
:01061F0004D6
:0106200012C7
:0106210009CF
:010622000EC9
:0106230006D0
:0106240009CC
:0106250003D1
:0106260006CD
:0106270009C9
:0106280006CB
:010629000AC6
:01062A0003CC
:01062B0006C8
:01062C0009C4
:01062D000BC1
:01062E000BC0
:01062F000AC0
:0106300012B7
:0106310006C2
:0106320003C4
:0106330006C0
:0106340005C0
:0106350009BB
:0106360009BA
:010637000FB3
:0106380003BE
:0106390006BA
:01063A0003BC
:01063B0006B8
:01063C0006B7
:01063D0008B4
:01063E0003B8
:01063F0006B4
:0106400004B5
:0106410006B2
:0106420009AE
:0106430006B0
:0106440006AF
:0106450006AE
:0106460009AA
:010647000AA8
:0106480004AD
:0106490006AA
:01064A000AA5
:01064B0006A8
:01064C0008A5
:01064D0006A6
:01064E0004A7
:01064F000AA0
:0106500008A1
:010651000C9C
:010652000C9B
:01065300099D
:010654000C99
:010655001094
:01065600069D
:0106570002A0
:010658000998
:010659000997
:01065A000D92
:01065B00029C
:01065C000697
:01065D001785
:01065E001784
:01065F000A90
:010660000693
:010661000395
:010662000B8C
:010663000492
:010664001283
:010665001084
:010666001083
:01066700068C
:01066800028F
:01066900068A
:01066A000689
:01066B000688
:01066C000489
:01066D000785
:01066E000784
:01066F000684
:010670000881
:010671000385
:010672000384
:010673000E78
:010674000A7B
:010675000C78
:010676001271
:010677000979
:010678000978
:010679000A76
:01067A000C73
:01067B000C72
:01067C000A73
:01067D00027A
:01067E000D6E
:01067F000377
:010680000C6D
:010681000F69
:010682000473
:010683000373
:01068400086D
:01068500066E
:010686000370
:01068700046E
:01068800066B
:01068900056B
:01068A000768
:01068B000A64
:01068C000A63
:01068D000666
:01068E000962
:01068F000664
:010690001059
:010691001652
:010692000C5B
:010693001254
:010694001253
:010695000460
:01069600045F
:01069700065C
:010698000958
:010699000957
:01069A000956
:01069B00035B
:01069C000D50
:01069D000458
:01069E000655
:01069F000357
:0106A0000C4D
:0106A100094F
:0106A2000D4A
:0106A3000254
:0106A400094C
:0106A500094B
:0106A600084B
:0106A700084A
:0106A8000849
:0106A900064A
:0106AA000F40
:0106AB000C42
:0106AC000944
:0106AD000448
:0106AE000348
:0106AF000644
:0106B0000643
:0106B1000642
:0106B200083F
:0106B3000640
:0106B4000342
:0106B5000341
:0106B600053E
:0106B700033F
:0106B800063B
:0106B9000A36
:0106BA000A35
:0106BB000C32
:0106BC000637
:0106BD00023A
:0106BE000A31
:0106BF000C2E
:0106C0000C2D
:0106C100092F
:0106C2000B2C
:0106C3000D29
:0106C400062F
:0106C5000C28
:0106C6000330
:0106C700062C
:0106C800032E
:0106C9000A26
:0106CA000926
:0106CB000925
:0106CC000924
:0106CD000626
:0106CE000922
:0106CF000921
:0106D0001019
:0106D1001018
:0106D200091E
:0106D300091D
:0106D400061F
:0106D500061E
:0106D6001013
:0106D7000C16
:0106D800061B
:0106D900140C
:0106DA000916
:0106DB000915
:0106DC000914
:0106DD000418
:0106DE000C0F
:0106DF000911
:0106E0000415
:0106E100090F
:0106E200080F
:0106E3001006
:0106E400060F
:0106E5000F05
:0106E600080B
:0106E700040E
:0106E800060B
:0106E9000A06
:0106EA0015FA
:0106EB0015F9
:0106EC00030A
:0106ED000606
:0106EE000209
:0106EF000208
:0106F0000405
:0106F1000404
:0106F2000205
:0106F3000303
:0106F40017EE
:0106F50006FE
:0106F6000300
:0106F70017EB
:0106F8000AF7
:0106F9000CF4
:0106FA000EF1
:0106FB0009F5
:0106FC000CF1
:0106FD000AF2
:0106FE0004F7
:0106FF000AF0
:010700000CEC
:0107010017E0
:0107020004F2
:010703000AEB
:0107040009EB
:0107050003F0
:0107060009E9
:0107070009E8
:0107080012DE
:010709000BE4
:01070A0004EA
:01070B0008E5
:01070C0009E3
:01070D000AE1
:01070E000CDE
:01070F000CDD
:0107100004E4
:010711000ADD
:0107120006E0
:0107130009DC
:0107140005DF
:0107150016CD
:0107160006DC
:0107170008D9
:0107180004DC
:0107190006D9
:01071A0004DA
:01071B0009D4
:01071C0006D6
:01071D0006D5
:01071E0009D1
:01071F0006D3
:0107200003D5
:0107210006D1
:0107220009CD
:0107230003D2
:0107240006CE
:0107250006CD
:0107260004CE
:010727000CC5
:0107280009C7
:010729000CC3
:01072A0006C8
:01072B0009C4
:01072C0009C3
:01072D0008C3
:01072E0006C4
:01072F0007C2
:010730000CBC
:010731000CBB
:0107320006C0
:010733000EB7
:0107340012B2
:010735000CB7
:010736000EB4
:010737000EB3
:0107380014AC
:0107390014AB
:01073A0011AD
:01073B0011AC
:01073C0006B6
:01073D0006B5
:01073E000DAD
:01073F000DAC
:0107400009AF
:0107410007B0
:0107420006B0
:0107430006AF
:0107440009AB
:0107450003B0
:010746000AA8
:0107470009A8
:01074800129E
:0107490009A6
:01074A0004AA
:01074B000CA1
:01074C0005A7
:01074D0003A8
:01074E0005A5
:01074F001297
:010750000E9A
:01075100099E
:0107520006A0
:0107530004A1
:01075400089C
:01075500089B
:0107560002A0
:01075700059C
:010758000C94
:010759000C93
:01075A00039B
:01075B000C91
:01075C000696
:01075D000992
:01075E000595
:01075F000693
:010760000692
:010761000B8C
:010762001284
:010763001283
:01076400088C
:01076500088B
:01076600038F
:010767000D84
:010768000987
:010769000986
:01076A000985
:01076B00028B
:01076C000686
:01076D000685
:01076E001575
:01076F000C7D
:010770000682
:010771000384
:010772000383
:01077300067F
:010774000C78
:010775001271
:01077600077B
:01077700047D
:010778000977
:01077900047B
:01077A000678
:01077B000677
:01077C00027A
:01077D000873
:01077E000773
:01077F000772
:010780000573
:010781000572
:010782000A6C
:010783000273
:01078400066E
:010785000370
:010786000969
:01078700056C
:01078800066A
:010789000867
:01078A000965
:01078B000667
:01078C000468
:01078D000368
:01078E000268
:01078F000366
:01079000095F
:01079100095E
:010792001452
:010793001451
:010794000E56
:01079500095A
:01079600045E
:01079700045D
:01079800065A
:01079900124D
:01079A000658
:01079B000459
:01079C000953
:01079D000E4D
:01079E001248
:01079F001247
:0107A000094F
:0107A100094E
:0107A200094D
:0107A300064F
:0107A400064E
:0107A5000B48
:0107A6000C46
:0107A700034E
:0107A8000848
:0107A9000649
:0107AA00044A
:0107AB000C41
:0107AC000C40
:0107AD000843
:0107AE000347
:0107AF000643
:0107B0000840
:0107B100083F
:0107B2000343
:0107B3000E37
:0107B4000A3A
:0107B5000340
:0107B600063C
:0107B7000938
:0107B8000838
:0107B9000837
:0107BA000638
:0107BB000637
:0107BC000636
:0107BD000635
:0107BE000931
:0107BF000930
:0107C0000830
:0107C1000631
:0107C2000432
:0107C3000431
:0107C4000331
:0107C5000A29
:0107C600062C
:0107C7000928
:0107C800062A
:0107C9000827
:0107CA000628
:0107CB000E1F
:0107CC000824
:0107CD000427
:0107CE000921
:0107CF000A1F
:0107D0000D1B
:0107D1000D1A
:0107D2000620
:0107D300061F
:0107D4000E16
:0107D500041F
:0107D600061C
:0107D700041D
:0107D8000917
:0107D9000A15
:0107DA000519
:0107DB000D10
:0107DC001309
:0107DD000615
:0107DE000218
:0107DF000415
:0107E0000513
:0107E1000E09
:0107E2000610
:0107E30017FE
:0107E4000E06
:0107E500080B
:0107E600060C
:0107E700030E
:0107E800050B
:0107E900040B
:0107EA000608
:0107EB000607
:0107EC000606
:0107ED000CFF
:0107EE0015F5
:0107EF000306
:0107F00009FF
:0107F1000CFB
:0107F20009FD
:0107F30009FC
:0107F40016EE
:0107F5000CF7
:0107F60009F9
:0107F70004FD
:0107F80016EA
:0107F90016E9
:0107FA0004FA
:0107FB0007F6
:0107FC0004F8
:0107FD000FEC
:0107FE000CEE
:0107FF000CED
:0108000010E7
:0108010010E6
:0108020010E5
:0108030010E4
:0108040003F0
:0108050004EE
:0108060008E9
:0108070003ED
:0108080002ED
:0108090006E8
:01080A0009E4
:01080B0009E3
:01080C0006E5
:01080D000EDC
:01080E0003E6
:01080F0007E1
:0108100005E2
:0108110005E1
:0108120009DC
:010813000ADA
:0108140009DA
:0108150009D9
:0108160014CD
:0108170003DD
:0108180014CB
:0108190008D6
:01081A0014C9
:01081B0013C9
:01081C0014C7
:01081D0009D1
:01081E0004D5
:01081F0006D2
:0108200006D1
:0108210008CE
:0108220006CF
:0108230006CE
:0108240004CF
:0108250006CC
:0108260008C9
:0108270009C7
:0108280009C6
:0108290012BC
:01082A0014B9
:01082B0014B8
:01082C0006C5
:01082D0009C1
:01082E0006C3
:01082F0008C0
:010830000CBB
:0108310007BF
:0108320006BF
:010833000ABA
:0108340003C0
:010835000AB8
:010836000CB5
:0108370012AE
:0108380010AF
:010839000CB2
:01083A000EAF
:01083B0006B6
:01083C0006B5
:01083D0006B4
:01083E000AAF
:01083F0003B5
:0108400008AF
:0108410016A0
:0108420008AD
:0108430008AC
:0108440009AA
:0108450004AE
:0108460006AB
:0108470006AA
:0108480003AC
:0108490003AB
:01084A0009A4
:01084B0005A7
:01084C000F9C
:01084D0009A1
:01084E0003A6
:01084F0002A6
:01085000099E
:01085100099D
:01085200099C
:010853000A9A
:010854001093
:010855000A98
:010856000D94
:010857000D93
:010858000996
:010859000B93
:01085A000B92
:01085B000696
:01085C000398
:01085D000991
:01085E000E8B
:01085F00098F
:010860000691
:01086100098D
:010862001481
:010863000391
:010864000390
:01086500038F
:010866000988
:010867000F81
:01086800038C
:01086900127C
:01086A00038A
:01086B000488
:01086C000586
:01086D000E7C
:01086E000980
:01086F000385
:010870001275
:010871000383
:010872000C79
:01087300057F
:010874000C77
:010875000A78
:010876000A77
:01087700067A
:010878000976
:01087900146A
:01087A000677
:01087B000D6F
:01087C000F6C
:01087D000476
:01087E000E6B
:01087F000672
:010880000374
:01088100086E
:010882001263
:010883000371
:010884000D66
:010885000A68
:010886000968
:01088700036D
:01088800036C
:010889000B63
:01088A000A63
:01088B000369
:01088C000368
:01088D000A60
:01088E001554
:01088F000365
:010890000661
:010891000462
:010892000461
:010893000361
:010894000360
:010895001250
:01089600035E
:01089700124E
:010898000659
:010899000955
:01089A000A53
:01089B000656
:01089C001249
:01089D000A50
:01089E000A4F
:01089F000553
:0108A0000750
:0108A1000551
:0108A200074E
:0108A300054F
:0108A4001241
:0108A5000C46
:0108A600044D
:0108A7000A46
:0108A8000649
:0108A9000648
:0108AA00024B
:0108AB000D3F
:0108AC000348
:0108AD000347
:0108AE000643
:0108AF000642
:0108B0000641
:0108B1001036
:0108B2001035
:0108B3000A3A
:0108B4000A39
:0108B500172B
:0108B600142D
:0108B7000937
:0108B8000936
:0108B9000539
:0108BA000934
:0108BB000834
:0108BC000833
:0108BD000931
:0108BE000C2D
:0108BF001226
:0108C0001225
:0108C1000630
:0108C2000332
:0108C3000F25
:0108C4000E25
:0108C5000A28
:0108C6000928
:0108C7000828
:0108C8000827
:0108C9000C22
:0108CA000429
:0108CB000F1D
:0108CC000A21
:0108CD000624
:0108CE000524
:0108CF000424
:0108D0000621
:0108D1000C1A
:0108D200061F
:0108D300061E
:0108D400170C
:0108D500061C
:0108D6000C15
:0108D700120E
:0108D8000C13
:0108D9000816
:0108DA000419
:0108DB000616
:0108DC000318
:0108DD001406
:0108DE001405
:0108DF001206
:0108E0000C0B
:0108E100080E
:0108E2000E07
:0108E3001004
:0108E400090A
:0108E500040E
:0108E600040D
:0108E700060A
:0108E8000609
:0108E9000905
:0108EA000706
:0108EB000606
:0108EC000A01
:0108ED0015F5
:0108EE000AFF
:0108EF000800
:0108F00009FE
:0108F1000CFA
:0108F2000CF9
:0108F3000CF8
:0108F4000CF7
:0108F50009F9
:0108F60009F8
:0108F70004FC
:0108F80004FB
:0108F90006F8
:0108FA0004F9
:0108FB0004F8
:0108FC0004F7
:0108FD0013E7
:0108FE0008F1
:0108FF000CEC
:0109000003F3
:0109010004F1
:010902000AEA
:0109030006ED
:0109040016DC
:0109050016DB
:0109060003ED
:010907000FE0
:0109080009E5
:0109090003EA
:01090A000FDD
:01090B0003E8
:01090C0006E4
:01090D000EDB
:01090E000ADE
:01090F0009DE
:010910000ADC
:010911000ADB
:0109120004E0
:0109130002E1
:0109140006DC
:0109150010D1
:0109160004DC
:0109170009D6
:0109180009D5
:0109190006D7
:01091A0009D3
:01091B0008D3
:01091C0010CA
:01091D000CCD
:01091E0009CF
:01091F0009CE
:0109200009CD
:0109210012C3
:010922000CC8
:010923000CC7
:0109240006CC
:0109250004CD
:0109260006CA
:0109270006C9
:0109280003CB
:0109290003CA
:01092A0016B6
:01092B0016B5
:01092C0017B3
:01092D0004C5
:01092E0012B6
:01092F000EB9
:0109300009BD
:0109310009BC
:0109320014B0
:0109330009BA
:010934000EB4
:0109350006BB
:0109360017A9
:0109370017A8
:0109380007B7
:0109390007B6
:01093A0013A9
:01093B0006B5
:01093C0006B4
:01093D0008B1
:01093E000FA9
:01093F000FA8
:0109400014A2
:0109410014A1
:0109420004B0
:0109430004AF
:0109440003AF
:0109450003AE
:01094600149C
:0109470009A6
:01094800139B
:0109490003AA
:01094A001498
:01094B0009A2
:01094C0005A5
:01094D0006A3
:01094E001494
:01094F001493
:010950000C9A
:010951000C99
:01095200089C
:01095300069D
:01095400049E
:010955000F92
:01095600069A
:010957000A95
:010958000C92
:010959000499
:01095A000696
:01095B001289
:01095C000991
:01095D000693
:01095E000395
:01095F000691
:010960001383
:010961001382
:010962000292
:01096300068D
:010964001280
:010965000889
:01096600068A
:010967000A85
:010968000688
:010969000687
:01096A000F7D
:01096B000A81
:01096C000486
:01096D000386
:01096E00097F
:01096F00097E
:01097000097D
:01097100097C
:01097200057F
:01097300146F
:01097400067C
:01097500027F
:01097600067A
:010977000679
:010978000975
:010979000479
:01097A000676
:01097B000477
:01097C001664
:01097D001663
:01097E00096F
:01097F00096E
:010980001264
:01098100066F
:01098200086C
:01098300086B
:010984000C66
:010985000C65
:010986000868
:010987000E61
:010988000C62
:01098900125B
:01098A00125A
:01098B001457
:01098C000C5E
:01098D000E5B
:01098E000662
:01098F001255
:010990000E58
:010991000263
:010992000C58
:01099300075C
:010994000C56
:010995000C55
:01099600164A
:01099700144B
:01099800045A
:010999000459
:01099A000656
:01099B000655
:01099C001743
:01099D000C4D
:01099E000454
:01099F000651
:0109A0000353
:0109A100084D
:0109A2000C48
:0109A3000350
:0109A400074B
:0109A500064B
:0109A6000749
:0109A700133C
:0109A8000747
:0109A9000944
:0109AA000745
:0109AB000645
:0109AC000545
:0109AD001336
:0109AE000642
:0109AF000E39
:0109B000093D
:0109B1000540
:0109B200053F
:0109B300053E
:0109B400073B
:0109B5000A37
:0109B6000937
:0109B7000936
:0109B8000737
:0109B9000736
:0109BA000834
:0109BB000C2F
:0109BC000C2E
:0109BD000C2D
:0109BE000830
:0109BF000334
:0109C0000432
:0109C100062F
:0109C2000F25
:0109C300062D
:0109C4000929
:0109C500141D
:0109C6000927
:0109C700052A
:0109C8000E20
:0109C9000429
:0109CA000626
:0109CB000724
:0109CC000624
:0109CD001217
:0109CE000622
:0109CF000423
:0109D0000620
:0109D1000C19
:0109D2000321
:0109D300061D
:0109D400061C
:0109D500031E
:0109D6000917
:0109D7000619
:0109D8000618
:0109D9000617
:0109DA000319
:0109DB000318
:0109DC000614
:0109DD000613
:0109DE00090F
:0109DF000C0B
:0109E000080E
:0109E1000312
:0109E2000C08
:0109E3000310
:0109E4000909
:0109E500030E
:0109E600030D
:0109E70014FB
:0109E80014FA
:0109E90012FB
:0109EA000C00
:0109EB000605
:0109EC0012F8
:0109ED000900
:0109EE000602
:0109EF0014F3
:0109F00014F2
:0109F10006FF
:0109F20006FE
:0109F3000300
:0109F40006FC
:0109F50003FE
:0109F60007F9
:0109F70006F9
:0109F80006F8
:0109F90006F7
:0109FA000DEF
:0109FB0006F5
:0109FC000FEB
:0109FD0007F2
:0109FE0006F2
:0109FF000CEB
:010A000009EC
:010A010017DD
:010A020017DC
:010A03000CE6
:010A040006EB
:010A050006EA
:010A06000CE3
:010A070006E8
:010A08000EDF
:010A090002EA
:010A0A0003E8
:010A0B0009E1
:010A0C000CDD
:010A0D000CDC
:010A0E0009DE
:010A0F000ADC
:010A100009DC
:010A110007DD
:010A120005DE
:010A130008DA
:010A140012CF
:010A15000AD6
:010A16000AD5
:010A17000AD4
:010A18000AD3
:010A190005D7
:010A1A0002D9
:010A1B0006D4
:010A1C0007D2
:010A1D0010C8
:010A1E0008CF
:010A1F0004D2
:010A200008CD
:010A210004D0
:010A220009CA
:010A230008CA
:010A240004CD
:010A25000CC4
:010A26000CC3
:010A270007C7
:010A280003CA
:010A290003C9
:010A2A000AC1
:010A2B0017B3
:010A2C000FBA
:010A2D0017B1
:010A2E0009BE
:010A2F0006C0
:010A300006BF
:010A310009BB
:010A320009BA
:010A330004BE
:010A340014AD
:010A350017A9
:010A360012AD
:010A370006B8
:010A380006B7
:010A390005B7
:010A3A0013A8
:010A3B0012A8
:010A3C0012A7
:010A3D0003B5
:010A3E0009AE
:010A3F0007AF
:010A400007AE
:010A410006AE
:010A42000AA9
:010A43000AA8
:010A440010A1
:010A450006AA
:010A460006A9
:010A470009A5
:010A480008A5
:010A49000CA0
:010A4A0009A2
:010A4B0006A4
:010A4C001693
:010A4D0003A5
:010A4E0003A4
:010A4F00178F
:010A5000069F
:010A51000E96
:010A52000A99
:010A5300059D
:010A5400069B
:010A55000E92
:010A56000E91
:010A5700049A
:010A58000C91
:010A59000696
:010A5A000695
:010A5B000991
:010A5C000990
:010A5D000A8E
:010A5E00088F
:010A5F00088E
:010A60000491
:010A61001282
:010A62001380
:010A63001082
:010A64001081
:010A6500068A
:010A6600058A
:010A67000589
:010A68000687
:010A69000587
:010A6A000784
:010A6B000684
:010A6C000980
:010A6D000682
:010A6E001473
:010A6F000C7A
:010A70000C79
:010A7100067E
:010A7200087B
:010A73000A78
:010A74000978
:010A7500166A
:010A76001669
:010A7700047A
:010A78000F6E
:010A79000C70
:010A7A000D6E
:010A7B001763
:010A7C001762
:010A7D000870
:010A7E000275
:010A7F000373
:010A8000066F
:010A81000A6A
:010A82000370
:010A8300046E
:010A84000869
:010A8500046C
:010A8600105F
:010A8700105E
:010A8800105D
:010A89000E5E
:010A8A000E5D
:010A8B001654
:010A8C001653
:010A8D001454
:010A8E001453
:010A8F00095D
:010A90001055
:010A91000C58
:010A9200065D
:010A9300085A
:010A9400065B
:010A9500065A
:010A96000659
:010A97000856
:010A98000C51
:010A99000953
:010A9A000655
:010A9B000555
:010A9C000851
:010A9D000652
:010A9E000651
:010A9F000650
:010AA0001243
:010AA1000351
:010AA2000251
:010AA300064C
:010AA4000948
:010AA5000947
:010AA6000F40
:010AA7000F3F
:010AA8000647
:010AA9000E3E
:010AAA000546
:010AAB000347
:010AAC000247
:010AAD000A3E
:010AAE000344
:010AAF000B3B
:010AB000083D
:010AB100093B
:010AB2000241
:010AB300063C
:010AB400033E
:010AB500122E
:010AB6000A35
:010AB7000A34
:010AB8000934
:010AB9000933
:010ABA000338
:010ABB000436
:010ABC000E2B
:010ABD000E2A
:010ABE000631
:010ABF000630
:010AC0001223
:010AC1000331
:010AC2000330
:010AC3000A28
:010AC400042D
:010AC500062A
:010AC6000926
:010AC7000C22
:010AC8000627
:010AC9000D1F
:010ACA000625
:010ACB000624
:010ACC000326
:010ACD000622
:010ACE000324
:010ACF000620
:010AD0001312
:010AD1001014
:010AD2001211
:010AD3001210
:010AD400031E
:010AD500041C
:010AD6000619
:010AD700041A
:010AD8000815
:010AD9000814
:010ADA000C0F
:010ADB000C0E
:010ADC000613
:010ADD000612
:010ADE000611
:010ADF000610
:010AE0000213
:010AE1000311
:010AE2000C07
:010AE3000909
:010AE4000F02
:010AE500040C
:010AE6000C03
:010AE7000FFF
:010AE80013FA
:010AE90013F9
:010AEA000A01
:010AEB000A00
:010AEC0012F7
:010AED000602
:010AEE000AFD
:010AEF000AFC
:010AF0000AFB
:010AF1000AFA
:010AF20012F1
:010AF30003FF
:010AF40012EF
:010AF50012EE
:010AF60003FC
:010AF70003FB
:010AF80003FA
:010AF9000AF2
:010AFA0011EA
:010AFB0011E9
:010AFC000BEE
:010AFD0006F2
:010AFE0008EF
:010AFF0007EF
:010B00000EE6
:010B01000EE5
:010B020002F0
:010B030006EB
:010B040004EC
:010B050006E9
:010B060012DC
:010B070012DB
:010B08000AE2
:010B090009E2
:010B0A0006E4
:010B0B0006E3
:010B0C0006E2
:010B0D0003E4
:010B0E0009DD
:010B0F0006DF
:010B100012D2
:010B110009DA
:010B120009D9
:010B130009D8
:010B140003DD
:010B150004DB
:010B16000AD4
:010B170009D4
:010B180009D3
:010B190009D2
:010B1A0006D4
:010B1B0006D3
:010B1C0009CF
:010B1D0009CE
:010B1E0006D0
:010B1F0009CC
:010B200003D1
:010B210003D0
:010B220006CC
:010B230004CD
:010B240006CA
:010B25000FC0
:010B260003CB
:010B27000AC3
:010B280003C9
:010B290006C5
:010B2A0012B8
:010B2B0006C3
:010B2C0012B6
:010B2D0012B5
:010B2E0006C0
:010B2F000CB9
:010B300016AE
:010B310006BD
:010B320006BC
:010B330012AF
:010B340009B7
:010B350009B6
:010B36000CB2
:010B370004B9
:010B380003B9
:010B390008B3
:010B3A000FAB
:010B3B000EAB
:010B3C000EAA
:010B3D000EA9
:010B3E0004B2
:010B3F0014A1
:010B40000CA8
:010B41000CA7
:010B420008AA
:010B430008A9
:010B44000FA1
:010B45000FA0
:010B46000CA2
:010B47000CA1
:010B480009A3
:010B49001596
:010B4A0004A6
:010B4B0009A0
:010B4C000F99
:010B4D000F98
:010B4E00089E
:010B4F00069F
:010B500004A0
:010B510003A0
:010B52000C96
:010B53000C95
:010B5400069A
:010B55000A95
:010B56000698
:010B5700029B
:010B58000399
:010B59000398
:010B5A000694
:010B5B000693
:010B5C000692
:010B5D000691
:010B5E001482
:010B5F00088D
:010B6000167E
:010B61000093
:010B62000092
:010B63000091
:010B64000090
:010B6500008F
:010B6600008E
:010B6700008D
:010B6800008C
:010B6900008B
:010B6A00008A
:010B6B000089
:010B6C000088
:010B6D000087
:010B6E000086
:010B6F000085
:010B70000084
:010B71000083
:010B72000082
:010B73000081
:010B74000080
:010B7500007F
:010B7600007E
:010B7700007D
:010B7800007C
:010B7900007B
:010B7A00007A
:010B7B000079
:010B7C000078
:010B7D000077
:010B7E000076
:010B7F000075
:010B80000074
:010B81000073
:010B82000072
:010B83000071
:010B84000070
:010B8500006F
:010B8600006E
:010B8700006D
:010B8800006C
:010B8900006B
:010B8A00006A
:010B8B000069
:010B8C000068
:010B8D000067
:010B8E000066
:010B8F000065
:010B90000064
:010B91000063
:010B92000062
:010B93000061
:010B94000060
:010B9500005F
:010B9600005E
:010B9700005D
:010B9800005C
:010B9900005B
:010B9A00005A
:010B9B000059
:010B9C000058
:010B9D000057
:010B9E000056
:010B9F000055
:010BA0000054
:010BA1000053
:010BA2000052
:010BA3000051
:010BA4000050
:010BA500004F
:010BA600004E
:010BA700004D
:010BA800004C
:010BA900004B
:010BAA00004A
:010BAB000049
:010BAC000048
:010BAD000047
:010BAE000046
:010BAF000045
:010BB0000044
:010BB1000043
:010BB2000042
:010BB3000041
:010BB4000040
:010BB500003F
:010BB600003E
:010BB700003D
:010BB800003C
:010BB900003B
:010BBA00003A
:010BBB000039
:010BBC000038
:010BBD000037
:010BBE000036
:010BBF000035
:010BC0000034
:010BC1000033
:010BC2000032
:010BC3000031
:010BC4000030
:010BC500002F
:010BC600002E
:010BC700002D
:010BC800002C
:010BC900002B
:010BCA00002A
:010BCB000029
:010BCC000028
:010BCD000027
:010BCE000026
:010BCF000025
:010BD0000024
:010BD1000023
:010BD2000022
:010BD3000021
:010BD4000020
:010BD500001F
:010BD600001E
:010BD700001D
:010BD800001C
:010BD900001B
:010BDA00001A
:010BDB000019
:010BDC000018
:010BDD000017
:010BDE000016
:010BDF000015
:010BE0000014
:010BE1000013
:010BE2000012
:010BE3000011
:010BE4000010
:010BE500000F
:010BE600000E
:010BE700000D
:010BE800000C
:010BE900000B
:010BEA00000A
:010BEB000009
:010BEC000008
:010BED000007
:010BEE000006
:010BEF000005
:010BF0000004
:010BF1000003
:010BF2000002
:010BF3000001
:010BF4000000
:010BF50000FF
:010BF60000FE
:010BF70000FD
:010BF80000FC
:010BF90000FB
:010BFA0000FA
:010BFB0000F9
:010BFC0000F8
:010BFD0000F7
:010BFE0000F6
:010BFF0000F5
:010C000000F3
:010C010000F2
:010C020000F1
:010C030000F0
:010C040000EF
:010C050000EE
:010C060000ED
:010C070000EC
:010C080000EB
:010C090000EA
:010C0A0000E9
:010C0B0000E8
:010C0C0000E7
:010C0D0000E6
:010C0E0000E5
:010C0F0000E4
:010C100000E3
:010C110000E2
:010C120000E1
:010C130000E0
:010C140000DF
:010C150000DE
:010C160000DD
:010C170000DC
:010C180000DB
:010C190000DA
:010C1A0000D9
:010C1B0000D8
:010C1C0000D7
:010C1D0000D6
:010C1E0000D5
:010C1F0000D4
:010C200000D3
:010C210000D2
:010C220000D1
:010C230000D0
:010C240000CF
:010C250000CE
:010C260000CD
:010C270000CC
:010C280000CB
:010C290000CA
:010C2A0000C9
:010C2B0000C8
:010C2C0000C7
:010C2D0000C6
:010C2E0000C5
:010C2F0000C4
:010C300000C3
:010C310000C2
:010C320000C1
:010C330000C0
:010C340000BF
:010C350000BE
:010C360000BD
:010C370000BC
:010C380000BB
:010C390000BA
:010C3A0000B9
:010C3B0000B8
:010C3C0000B7
:010C3D0000B6
:010C3E0000B5
:010C3F0000B4
:010C400000B3
:010C410000B2
:010C420000B1
:010C430000B0
:010C440000AF
:010C450000AE
:010C460000AD
:010C470000AC
:010C480000AB
:010C490000AA
:010C4A0000A9
:010C4B0000A8
:010C4C0000A7
:010C4D0000A6
:010C4E0000A5
:010C4F0000A4
:010C500000A3
:010C510000A2
:010C520000A1
:010C530000A0
:010C5400009F
:010C5500009E
:010C5600009D
:010C5700009C
:010C5800009B
:010C5900009A
:010C5A000099
:010C5B000098
:010C5C000097
:010C5D000096
:010C5E000095
:010C5F000094
:010C60000093
:010C61000092
:010C62000091
:010C63000090
:010C6400008F
:010C6500008E
:010C6600008D
:010C6700008C
:010C6800008B
:010C6900008A
:010C6A000089
:010C6B000088
:010C6C000087
:010C6D000086
:010C6E000085
:010C6F000084
:010C70000083
:010C71000082
:010C72000081
:010C73000080
:010C7400007F
:010C7500007E
:010C7600007D
:010C7700007C
:010C7800007B
:010C7900007A
:010C7A000079
:010C7B000078
:010C7C000077
:010C7D000076
:010C7E000075
:010C7F000074
:010C80000073
:010C81000072
:010C82000071
:010C83000070
:010C8400006F
:010C8500006E
:010C8600006D
:010C8700006C
:010C8800006B
:010C8900006A
:010C8A000069
:010C8B000068
:010C8C000067
:010C8D000066
:010C8E000065
:010C8F000064
:010C90000063
:010C91000062
:010C92000061
:010C93000060
:010C9400005F
:010C9500005E
:010C9600005D
:010C9700005C
:010C9800005B
:010C9900005A
:010C9A000059
:010C9B000058
:010C9C000057
:010C9D000056
:010C9E000055
:010C9F000054
:010CA0000053
:010CA1000052
:010CA2000051
:010CA3000050
:010CA400004F
:010CA500004E
:010CA600004D
:010CA700004C
:010CA800004B
:010CA900004A
:010CAA000049
:010CAB000048
:010CAC000047
:010CAD000046
:010CAE000045
:010CAF000044
:010CB0000043
:010CB1000042
:010CB2000041
:010CB3000040
:010CB400003F
:010CB500003E
:010CB600003D
:010CB700003C
:010CB800003B
:010CB900003A
:010CBA000039
:010CBB000038
:010CBC000037
:010CBD000036
:010CBE000035
:010CBF000034
:010CC0000033
:010CC1000032
:010CC2000031
:010CC3000030
:010CC400002F
:010CC500002E
:010CC600002D
:010CC700002C
:010CC800002B
:010CC900002A
:010CCA000029
:010CCB000028
:010CCC000027
:010CCD000026
:010CCE000025
:010CCF000024
:010CD0000023
:010CD1000022
:010CD2000021
:010CD3000020
:010CD400001F
:010CD500001E
:010CD600001D
:010CD700001C
:010CD800001B
:010CD900001A
:010CDA000019
:010CDB000018
:010CDC000017
:010CDD000016
:010CDE000015
:010CDF000014
:010CE0000013
:010CE1000012
:010CE2000011
:010CE3000010
:010CE400000F
:010CE500000E
:010CE600000D
:010CE700000C
:010CE800000B
:010CE900000A
:010CEA000009
:010CEB000008
:010CEC000007
:010CED000006
:010CEE000005
:010CEF000004
:010CF0000003
:010CF1000002
:010CF2000001
:010CF3000000
:010CF40000FF
:010CF50000FE
:010CF60000FD
:010CF70000FC
:010CF80000FB
:010CF90000FA
:010CFA0000F9
:010CFB0000F8
:010CFC0000F7
:010CFD0000F6
:010CFE0000F5
:010CFF0000F4
:010D000000F2
:010D010000F1
:010D020000F0
:010D030000EF
:010D040000EE
:010D050000ED
:010D060000EC
:010D070000EB
:010D080000EA
:010D090000E9
:010D0A0000E8
:010D0B0000E7
:010D0C0000E6
:010D0D0000E5
:010D0E0000E4
:010D0F0000E3
:010D100000E2
:010D110000E1
:010D120000E0
:010D130000DF
:010D140000DE
:010D150000DD
:010D160000DC
:010D170000DB
:010D180000DA
:010D190000D9
:010D1A0000D8
:010D1B0000D7
:010D1C0000D6
:010D1D0000D5
:010D1E0000D4
:010D1F0000D3
:010D200000D2
:010D210000D1
:010D220000D0
:010D230000CF
:010D240000CE
:010D250000CD
:010D260000CC
:010D270000CB
:010D280000CA
:010D290000C9
:010D2A0000C8
:010D2B0000C7
:010D2C0000C6
:010D2D0000C5
:010D2E0000C4
:010D2F0000C3
:010D300000C2
:010D310000C1
:010D320000C0
:010D330000BF
:010D340000BE
:010D350000BD
:010D360000BC
:010D370000BB
:010D380000BA
:010D390000B9
:010D3A0000B8
:010D3B0000B7
:010D3C0000B6
:010D3D0000B5
:010D3E0000B4
:010D3F0000B3
:010D400000B2
:010D410000B1
:010D420000B0
:010D430000AF
:010D440000AE
:010D450000AD
:010D460000AC
:010D470000AB
:010D480000AA
:010D490000A9
:010D4A0000A8
:010D4B0000A7
:010D4C0000A6
:010D4D0000A5
:010D4E0000A4
:010D4F0000A3
:010D500000A2
:010D510000A1
:010D520000A0
:010D5300009F
:010D5400009E
:010D5500009D
:010D5600009C
:010D5700009B
:010D5800009A
:010D59000099
:010D5A000098
:010D5B000097
:010D5C000096
:010D5D000095
:010D5E000094
:010D5F000093
:010D60000092
:010D61000091
:010D62000090
:010D6300008F
:010D6400008E
:010D6500008D
:010D6600008C
:010D6700008B
:010D6800008A
:010D69000089
:010D6A000088
:010D6B000087
:010D6C000086
:010D6D000085
:010D6E000084
:010D6F000083
:010D70000082
:010D71000081
:010D72000080
:010D7300007F
:010D7400007E
:010D7500007D
:010D7600007C
:010D7700007B
:010D7800007A
:010D79000079
:010D7A000078
:010D7B000077
:010D7C000076
:010D7D000075
:010D7E000074
:010D7F000073
:010D80000072
:010D81000071
:010D82000070
:010D8300006F
:010D8400006E
:010D8500006D
:010D8600006C
:010D8700006B
:010D8800006A
:010D89000069
:010D8A000068
:010D8B000067
:010D8C000066
:010D8D000065
:010D8E000064
:010D8F000063
:010D90000062
:010D91000061
:010D92000060
:010D9300005F
:010D9400005E
:010D9500005D
:010D9600005C
:010D9700005B
:010D9800005A
:010D99000059
:010D9A000058
:010D9B000057
:010D9C000056
:010D9D000055
:010D9E000054
:010D9F000053
:010DA0000052
:010DA1000051
:010DA2000050
:010DA300004F
:010DA400004E
:010DA500004D
:010DA600004C
:010DA700004B
:010DA800004A
:010DA9000049
:010DAA000048
:010DAB000047
:010DAC000046
:010DAD000045
:010DAE000044
:010DAF000043
:010DB0000042
:010DB1000041
:010DB2000040
:010DB300003F
:010DB400003E
:010DB500003D
:010DB600003C
:010DB700003B
:010DB800003A
:010DB9000039
:010DBA000038
:010DBB000037
:010DBC000036
:010DBD000035
:010DBE000034
:010DBF000033
:010DC0000032
:010DC1000031
:010DC2000030
:010DC300002F
:010DC400002E
:010DC500002D
:010DC600002C
:010DC700002B
:010DC800002A
:010DC9000029
:010DCA000028
:010DCB000027
:010DCC000026
:010DCD000025
:010DCE000024
:010DCF000023
:010DD0000022
:010DD1000021
:010DD2000020
:010DD300001F
:010DD400001E
:010DD500001D
:010DD600001C
:010DD700001B
:010DD800001A
:010DD9000019
:010DDA000018
:010DDB000017
:010DDC000016
:010DDD000015
:010DDE000014
:010DDF000013
:010DE0000012
:010DE1000011
:010DE2000010
:010DE300000F
:010DE400000E
:010DE500000D
:010DE600000C
:010DE700000B
:010DE800000A
:010DE9000009
:010DEA000008
:010DEB000007
:010DEC000006
:010DED000005
:010DEE000004
:010DEF000003
:010DF0000002
:010DF1000001
:010DF2000000
:010DF30000FF
:010DF40000FE
:010DF50000FD
:010DF60000FC
:010DF70000FB
:010DF80000FA
:010DF90000F9
:010DFA0000F8
:010DFB0000F7
:010DFC0000F6
:010DFD0000F5
:010DFE0000F4
:010DFF0000F3
:010E000000F1
:010E010000F0
:010E020000EF
:010E030000EE
:010E040000ED
:010E050000EC
:010E060000EB
:010E070000EA
:010E080000E9
:010E090000E8
:010E0A0000E7
:010E0B0000E6
:010E0C0000E5
:010E0D0000E4
:010E0E0000E3
:010E0F0000E2
:010E100000E1
:010E110000E0
:010E120000DF
:010E130000DE
:010E140000DD
:010E150000DC
:010E160000DB
:010E170000DA
:010E180000D9
:010E190000D8
:010E1A0000D7
:010E1B0000D6
:010E1C0000D5
:010E1D0000D4
:010E1E0000D3
:010E1F0000D2
:010E200000D1
:010E210000D0
:010E220000CF
:010E230000CE
:010E240000CD
:010E250000CC
:010E260000CB
:010E270000CA
:010E280000C9
:010E290000C8
:010E2A0000C7
:010E2B0000C6
:010E2C0000C5
:010E2D0000C4
:010E2E0000C3
:010E2F0000C2
:010E300000C1
:010E310000C0
:010E320000BF
:010E330000BE
:010E340000BD
:010E350000BC
:010E360000BB
:010E370000BA
:010E380000B9
:010E390000B8
:010E3A0000B7
:010E3B0000B6
:010E3C0000B5
:010E3D0000B4
:010E3E0000B3
:010E3F0000B2
:010E400000B1
:010E410000B0
:010E420000AF
:010E430000AE
:010E440000AD
:010E450000AC
:010E460000AB
:010E470000AA
:010E480000A9
:010E490000A8
:010E4A0000A7
:010E4B0000A6
:010E4C0000A5
:010E4D0000A4
:010E4E0000A3
:010E4F0000A2
:010E500000A1
:010E510000A0
:010E5200009F
:010E5300009E
:010E5400009D
:010E5500009C
:010E5600009B
:010E5700009A
:010E58000099
:010E59000098
:010E5A000097
:010E5B000096
:010E5C000095
:010E5D000094
:010E5E000093
:010E5F000092
:010E60000091
:010E61000090
:010E6200008F
:010E6300008E
:010E6400008D
:010E6500008C
:010E6600008B
:010E6700008A
:010E68000089
:010E69000088
:010E6A000087
:010E6B000086
:010E6C000085
:010E6D000084
:010E6E000083
:010E6F000082
:010E70000081
:010E71000080
:010E7200007F
:010E7300007E
:010E7400007D
:010E7500007C
:010E7600007B
:010E7700007A
:010E78000079
:010E79000078
:010E7A000077
:010E7B000076
:010E7C000075
:010E7D000074
:010E7E000073
:010E7F000072
:010E80000071
:010E81000070
:010E8200006F
:010E8300006E
:010E8400006D
:010E8500006C
:010E8600006B
:010E8700006A
:010E88000069
:010E89000068
:010E8A000067
:010E8B000066
:010E8C000065
:010E8D000064
:010E8E000063
:010E8F000062
:010E90000061
:010E91000060
:010E9200005F
:010E9300005E
:010E9400005D
:010E9500005C
:010E9600005B
:010E9700005A
:010E98000059
:010E99000058
:010E9A000057
:010E9B000056
:010E9C000055
:010E9D000054
:010E9E000053
:010E9F000052
:010EA0000051
:010EA1000050
:010EA200004F
:010EA300004E
:010EA400004D
:010EA500004C
:010EA600004B
:010EA700004A
:010EA8000049
:010EA9000048
:010EAA000047
:010EAB000046
:010EAC000045
:010EAD000044
:010EAE000043
:010EAF000042
:010EB0000041
:010EB1000040
:010EB200003F
:010EB300003E
:010EB400003D
:010EB500003C
:010EB600003B
:010EB700003A
:010EB8000039
:010EB9000038
:010EBA000037
:010EBB000036
:010EBC000035
:010EBD000034
:010EBE000033
:010EBF000032
:010EC0000031
:010EC1000030
:010EC200002F
:010EC300002E
:010EC400002D
:010EC500002C
:010EC600002B
:010EC700002A
:010EC8000029
:010EC9000028
:010ECA000027
:010ECB000026
:010ECC000025
:010ECD000024
:010ECE000023
:010ECF000022
:010ED0000021
:010ED1000020
:010ED200001F
:010ED300001E
:010ED400001D
:010ED500001C
:010ED600001B
:010ED700001A
:010ED8000019
:010ED9000018
:010EDA000017
:010EDB000016
:010EDC000015
:010EDD000014
:010EDE000013
:010EDF000012
:010EE0000011
:010EE1000010
:010EE200000F
:010EE300000E
:010EE400000D
:010EE500000C
:010EE600000B
:010EE700000A
:010EE8000009
:010EE9000008
:010EEA000007
:010EEB000006
:010EEC000005
:010EED000004
:010EEE000003
:010EEF000002
:010EF0000001
:010EF1000000
:010EF20000FF
:010EF30000FE
:010EF40000FD
:010EF50000FC
:010EF60000FB
:010EF70000FA
:010EF80000F9
:010EF90000F8
:010EFA0000F7
:010EFB0000F6
:010EFC0000F5
:010EFD0000F4
:010EFE0000F3
:010EFF0000F2
:010F000000F0
:010F010000EF
:010F020000EE
:010F030000ED
:010F040000EC
:010F050000EB
:010F060000EA
:010F070000E9
:010F080000E8
:010F090000E7
:010F0A0000E6
:010F0B0000E5
:010F0C0000E4
:010F0D0000E3
:010F0E0000E2
:010F0F0000E1
:010F100000E0
:010F110000DF
:010F120000DE
:010F130000DD
:010F140000DC
:010F150000DB
:010F160000DA
:010F170000D9
:010F180000D8
:010F190000D7
:010F1A0000D6
:010F1B0000D5
:010F1C0000D4
:010F1D0000D3
:010F1E0000D2
:010F1F0000D1
:010F200000D0
:010F210000CF
:010F220000CE
:010F230000CD
:010F240000CC
:010F250000CB
:010F260000CA
:010F270000C9
:010F280000C8
:010F290000C7
:010F2A0000C6
:010F2B0000C5
:010F2C0000C4
:010F2D0000C3
:010F2E0000C2
:010F2F0000C1
:010F300000C0
:010F310000BF
:010F320000BE
:010F330000BD
:010F340000BC
:010F350000BB
:010F360000BA
:010F370000B9
:010F380000B8
:010F390000B7
:010F3A0000B6
:010F3B0000B5
:010F3C0000B4
:010F3D0000B3
:010F3E0000B2
:010F3F0000B1
:010F400000B0
:010F410000AF
:010F420000AE
:010F430000AD
:010F440000AC
:010F450000AB
:010F460000AA
:010F470000A9
:010F480000A8
:010F490000A7
:010F4A0000A6
:010F4B0000A5
:010F4C0000A4
:010F4D0000A3
:010F4E0000A2
:010F4F0000A1
:010F500000A0
:010F5100009F
:010F5200009E
:010F5300009D
:010F5400009C
:010F5500009B
:010F5600009A
:010F57000099
:010F58000098
:010F59000097
:010F5A000096
:010F5B000095
:010F5C000094
:010F5D000093
:010F5E000092
:010F5F000091
:010F60000090
:010F6100008F
:010F6200008E
:010F6300008D
:010F6400008C
:010F6500008B
:010F6600008A
:010F67000089
:010F68000088
:010F69000087
:010F6A000086
:010F6B000085
:010F6C000084
:010F6D000083
:010F6E000082
:010F6F000081
:010F70000080
:010F7100007F
:010F7200007E
:010F7300007D
:010F7400007C
:010F7500007B
:010F7600007A
:010F77000079
:010F78000078
:010F79000077
:010F7A000076
:010F7B000075
:010F7C000074
:010F7D000073
:010F7E000072
:010F7F000071
:010F80000070
:010F8100006F
:010F8200006E
:010F8300006D
:010F8400006C
:010F8500006B
:010F8600006A
:010F87000069
:010F88000068
:010F89000067
:010F8A000066
:010F8B000065
:010F8C000064
:010F8D000063
:010F8E000062
:010F8F000061
:010F90000060
:010F9100005F
:010F9200005E
:010F9300005D
:010F9400005C
:010F9500005B
:010F9600005A
:010F97000059
:010F98000058
:010F99000057
:010F9A000056
:010F9B000055
:010F9C000054
:010F9D000053
:010F9E000052
:010F9F000051
:010FA0000050
:010FA100004F
:010FA200004E
:010FA300004D
:010FA400004C
:010FA500004B
:010FA600004A
:010FA7000049
:010FA8000048
:010FA9000047
:010FAA000046
:010FAB000045
:010FAC000044
:010FAD000043
:010FAE000042
:010FAF000041
:010FB0000040
:010FB100003F
:010FB200003E
:010FB300003D
:010FB400003C
:010FB500003B
:010FB600003A
:010FB7000039
:010FB8000038
:010FB9000037
:010FBA000036
:010FBB000035
:010FBC000034
:010FBD000033
:010FBE000032
:010FBF000031
:010FC0000030
:010FC100002F
:010FC200002E
:010FC300002D
:010FC400002C
:010FC500002B
:010FC600002A
:010FC7000029
:010FC8000028
:010FC9000027
:010FCA000026
:010FCB000025
:010FCC000024
:010FCD000023
:010FCE000022
:010FCF000021
:010FD0000020
:010FD100001F
:010FD200001E
:010FD300001D
:010FD400001C
:010FD500001B
:010FD600001A
:010FD7000019
:010FD8000018
:010FD9000017
:010FDA000016
:010FDB000015
:010FDC000014
:010FDD000013
:010FDE000012
:010FDF000011
:010FE0000010
:010FE100000F
:010FE200000E
:010FE300000D
:010FE400000C
:010FE500000B
:010FE600000A
:010FE7000009
:010FE8000008
:010FE9000007
:010FEA000006
:010FEB000005
:010FEC000004
:010FED000003
:010FEE000002
:010FEF000001
:010FF0000000
:010FF10000FF
:010FF20000FE
:010FF30000FD
:010FF40000FC
:010FF50000FB
:010FF60000FA
:010FF70000F9
:010FF80000F8
:010FF90000F7
:010FFA0000F6
:010FFB0000F5
:010FFC0000F4
:010FFD0000F3
:010FFE0000F2
:010FFF0000F1
:00000001FF
