:020000000216E6
:020001003E239C
:020002003E7E40
:020003003F219B
:020004003F3982
:02000500008E6B
:020006003E506A
:020007003E8633
:020008003F2592
:02000900013EB6
:02000A003E6254
:02000B003E0FA6
:02000C003F7241
:02000D000044AD
:02000E003D545F
:02000F003EEBC6
:020010003FA609
:0200110000ED00
:020012000128C3
:020013003F9517
:02001400017574
:02001500011ECA
:020016003FA702
:020017003F6543
:02001800006383
:020019003EFDAA
:02001A003E5B4B
:02001B0000766D
:02001C003F594A
:02001D003E9B08
:02001E003F7F22
:02001F00005D82
:020020003FB3EC
:020021003F9905
:02002200010DCE
:020023003E603D
:02002400004892
:020025003EFD9E
:020026003FD6C3
:02002700018452
:0200280001C312
:020029003FB0E6
:02002A003FE7AE
:02002B003F99FB
:02002C00002BA7
:02002D0000E3EE
:02002E003FA1F0
:02002F000010BF
:020030003E414F
:020031003F107E
:020032003FF39A
:020033003E2C61
:020034000127A2
:020035003E701B
:020036003F6D1C
:020037003E8BFE
:020038003F2B5C
:020039003FB0D6
:02003A003F91F4
:02003B00017D45
:02003C003F0A79
:02003D003D8EF6
:02003E00002C94
:02003F00007C43
:02004000002D91
:020041003E0B74
:0200420000FDBF
:020043003D6C12
:02004400017049
:020045003F82F8
:020046003DACCF
:020047003F2850
:020048003E8FE9
:02004900002E87
:02004A000011A3
:02004B0000644F
:02004C0000258D
:02004D00003F72
:02004E003F3F32
:02004F003FA3CD
:020050003DAEC3
:02005100006C41
:02005200011C8F
:020053003CADC2
:020054003EC9A3
:020055003F85E5
:020056003EEC7E
:020057003ECD9C
:020058003F90D7
:020059003FD195
:02005A00004D57
:02005B00013F63
:02005C003F68FB
:02005D00004859
:02005E00007B25
:02005F0000445B
:020060003EB1AF
:02006100007429
:020062003E4519
:020063003FCF8D
:020064003E64F8
:0200650000BEDB
:020066003FBC9D
:020067003FF167
:020068003FA7B0
:020069003EF463
:02006A0000D3C1
:02006B0000345F
:02006C0000345E
:02006D003EB49F
:02006E003EB1A1
:02006F003EF35E
:020070003EA1AF
:020071003FF757
:020072003F014C
:02007300017218
:020074003FA1AA
:020075003F6DDD
:02007600000484
:020077003FEC5C
:020078003EDA6E
:02007900005F26
:02007A00004341
:02007B0000C1C2
:02007C00003949
:02007D003EBD86
:02007E0000DEA2
:02007F003E9DA4
:0200800000106E
:020081003F77C7
:020082003FA697
:020083003F6AD2
:020084003FAB90
:0200850000B2C7
:0200860000DC9C
:02008700003146
:020088003F1C1B
:020089003EBE79
:02008A003F2411
:02008B003F41F3
:02008C003EBD77
:02008D003F052D
:02008E0000A4CC
:02008F003FC36D
:020090003FA986
:02009100011953
:020092000192D9
:020093003FBA72
:020094003EE844
:02009500004E1B
:02009600004226
:020097003EC564
:020098000068FE
:020099003FE83E
:02009A003F978E
:02009B00004023
:02009C003F1013
:02009D00013E22
:02009E003FAD74
:02009F00005906
:0200A000000E50
:0200A1003EFA25
:0200A200010754
:0200A300003724
:0200A4003E68B4
:0200A5003EF922
:0200A6003E8694
:0200A7003FC355
:0200A800004A0C
:0200A9003FC551
:0200AA003ECB4B
:0200AB00003E15
:0200AC003EA272
:0200AD0000361B
:0200AE000053FD
:0200AF003FB858
:0200B0003DB160
:0200B100004904
:0200B2003FBB52
:0200B3003E7895
:0200B400001337
:0200B500002425
:0200B6003EE624
:0200B700000344
:0200B8003FA85F
:0200B900003312
:0200BA003F986D
:0200BB003DC73F
:0200BC003FB74C
:0200BD003F1DE5
:0200BE003EE31F
:0200BF003EFE03
:0200C0000042FC
:0200C1003F6E90
:0200C2003F738A
:0200C3003EB746
:0200C40001BE7B
:0200C5003EF308
:0200C6000091A7
:0200C700014EE8
:0200C8003F8A6D
:0200C9003F9660
:0200CA00005CD8
:0200CB003F1CD8
:0200CC00004BE7
:0200CD003F35BD
:0200CE00002709
:0200CF00000827
:0200D0003F9C53
:0200D100001617
:0200D200008D9F
:0200D3003E27C6
:0200D4003F8566
:0200D5003F8D5D
:0200D6003F28C1
:0200D700005ACD
:0200D800002FF7
:0200D9003EC027
:0200DA003F30B5
:0200DB003F13D1
:0200DC00009092
:0200DD0000CD54
:0200DE003F27BA
:0200DF003F9947
:0200E0003E7967
:0200E10000A17C
:0200E200009686
:0200E3003FBF1D
:0200E400004AD0
:0200E5003F9B3F
:0200E6000035E3
:0200E7000070A7
:0200E80000F026
:0200E900000213
:0200EA003EFDD9
:0200EB003FA034
:0200EC003F32A1
:0200ED003EF2E1
:0200EE000033DD
:0200EF003F9F31
:0200F0000036D8
:0200F1003EFAD5
:0200F2003EF9D5
:0200F3003FCB01
:0200F40000E129
:0200F500010BFD
:0200F6000023E5
:0200F7003E5772
:0200F80000CC3A
:0200F9003F0BBB
:0200FA000032D2
:0200FB003EF7CE
:0200FC003EC5FF
:0200FD003F3E84
:0200FE003F9D24
:0200FF003F4977
:02010000008D70
:020101003F8E2F
:020102003EE9D4
:0201030000D624
:020104003FBFFB
:020105000050A8
:020106003EF4C5
:020107000029CD
:020108003F5066
:02010900003FB5
:02010A003F7F35
:02010B00000AE8
:02010C000024CD
:02010D003F1B96
:02010E003F8C24
:02010F00005698
:020110003F3678
:020111003DB8F7
:02011200006487
:020113000008E2
:020114003EEBC0
:020115003E1F8B
:020116000025C2
:020117003EFCAC
:020118000027BE
:020119003F3B6A
:02011A003FE3C1
:02011B000011D1
:02011C003E3E65
:02011D0000F5EB
:02011E00007768
:02011F0000B529
:020120003EE7B8
:020121003EE9B5
:020122003FBDDF
:020123003FC8D3
:02012400002FAA
:020125003F1386
:0201260001F6E0
:020127000036A0
:020128003ED4C3
:020129003EE1B5
:02012A003FD5BF
:02012B0000D3FF
:02012C003ED9BA
:02012D003EF49E
:02012E003EE9A8
:02012F00006C62
:020130003F1579
:020131003E6826
:020132003F5735
:02013300003199
:020134003F5E2C
:020135003FD0B9
:020136003FE5A3
:020137003EEC9C
:0201380000576E
:0201390000794B
:02013A0000F9CA
:02013B003DD4B1
:02013C003F5C26
:02013D003E87FB
:02013E00006C53
:02013F000006B8
:02014000002895
:020141003F99E4
:020142003E027B
:020143003F611A
:020144000103B5
:020145003EFA80
:020146003EDD9C
:020147003F6F08
:02014800004E67
:020149003E482E
:02014A00003B78
:02014B003EC9AB
:02014C0000535E
:02014D003FAFC2
:02014E003FE48C
:02014F00006549
:020150000000AD
:0201510000C0EC
:020152003F2C40
:020153003F6803
:02015400002881
:020155000008A0
:020156003F7BED
:020157003F78EF
:02015800003372
:02015900000B99
:02015A003F174D
:02015B0000178B
:02015C0000366B
:02015D003FBBA6
:02015E003FE67A
:02015F0000108E
:020160003F134B
:0201610000227A
:02016200003269
:020163003EDC80
:02016400002B6E
:020165003F87D2
:020166003DD783
:02016700000B8B
:020168003FF85E
:020169003EAFA7
:02016A00005E35
:02016B003FBF94
:02016C003FED65
:02016D003F371A
:02016E0001B3DB
:02016F0000C6C8
:020170003E82CD
:020171003DDE71
:020172000091FA
:0201730000ADDD
:02017400003F4A
:02017500000385
:020176003FFE4A
:02017700007313
:020178003F0D39
:020179003DFD4A
:02017A0000651E
:02017B003FC182
:02017C003FF250
:02017D00000B75
:02017E003F83BD
:02017F003FB48B
:020180003F67D7
:020181003FF944
:02018200005F1C
:020183003F013A
:02018400002455
:020185003FCA6F
:020186003EAF8A
:02018700007EF8
:02018800006C09
:020189003FF93C
:02018A003F36FE
:02018B003DC075
:02018C003FBF73
:02018D003FC76A
:02018E003FB779
:02018F003FF837
:020190000098D5
:020191003F86A7
:02019200003A31
:020193003FBE6D
:020194003F67C3
:0201950000B5B3
:020196003F71B7
:020197003F4ADD
:020198003EE344
:020199003F988D
:02019A003F9F85
:02019B003F4DD6
:02019C003F75AD
:02019D003FE73A
:02019E0000D887
:02019F0000431B
:0201A000002736
:0201A1003E031B
:0201A2003FAE6E
:0201A3000098C2
:0201A400000554
:0201A5003F9089
:0201A6003F1CFC
:0201A700003620
:0201A800000352
:0201A900010152
:0201AA003E888D
:0201AB003F30E3
:0201AC00001D34
:0201AD0000212F
:0201AE003ED33E
:0201AF0000A1AD
:0201B000002F1E
:0201B1003F12FB
:0201B200000942
:0201B300005DED
:0201B400003217
:0201B5003E53B7
:0201B6003CED1E
:0201B700003610
:0201B8003EDB2C
:0201B90000D66E
:0201BA003FB94B
:0201BB00002D15
:0201BC0000F64B
:0201BD0000023E
:0201BE003F7888
:0201BF0000D26C
:0201C0003FCE30
:0201C1003FFA03
:0201C2003EA558
:0201C3003F5BA0
:0201C40000D762
:0201C500003107
:0201C6003F46B2
:0201C7003FA453
:0201C800000E27
:0201C9000078BC
:0201CA003EDE17
:0201CB0000FB37
:0201CC003FB83A
:0201CD003F5D94
:0201CE00005FD0
:0201CF003EB23E
:0201D0003DF5FB
:0201D10000C666
:0201D200002CFF
:0201D3003E806C
:0201D4000049E0
:0201D5000162C5
:0201D6003FC721
:0201D7003E6A7E
:0201D8003ECF18
:0201D9003FD90C
:0201DA000042E1
:0201DB003FEAF9
:0201DC0000C061
:0201DD00001F01
:0201DE003FA33D
:0201DF003FEDF2
:0201E00000C855
:0201E1003F1BC2
:0201E20000D348
:0201E300000416
:0201E4000121F7
:0201E5003F6D6C
:0201E6003FFBDD
:0201E7003F7562
:0201E8003EC710
:0201E9000025EF
:0201EA003FB91B
:0201EB003FC211
:0201EC003F25AD
:0201ED0000B15F
:0201EE003FD6FA
:0201EF0000709E
:0201F0003F06C8
:0201F1003F19B4
:0201F2003F3696
:0201F3003FB318
:0201F4003F1AB0
:0201F5003F9534
:0201F600007592
:0201F70000E91D
:0201F8003E883F
:0201F9003EF4D2
:0201FA00004AB9
:0201FB003EB70D
:0201FC003F259D
:0201FD000029D7
:0201FE000028D7
:0201FF000005F9
:020200003FD6E7
:020201003F07B5
:0202020000FCFE
:02020300007980
:020204003F0BAE
:020205003F7A3E
:02020600002BCB
:020207003EDED9
:020208000042B2
:020209000032C1
:02020A003FF3C0
:02020B000110E0
:02020C003FD1E0
:02020D003FF9B7
:02020E0000FFEF
:02020F003FF9B5
:020210000000EC
:020211003E7934
:020212000008E2
:0202130000C425
:020214000029BF
:020215003F06A2
:02021600007670
:020217000041A4
:020218003F3273
:020219003EB0F5
:02021A000033AF
:02021B0000F9E8
:02021C003FD0D1
:02021D003F524E
:02021E000030AE
:02021F003FC4DA
:02022000003F9D
:020221003EF6A7
:02022200008357
:02022300019E3A
:0202240002FCDA
:02022500009A3D
:020226003F6235
:0202270000A92C
:020228003EE1B5
:020229003EEDA8
:02022A0000CF03
:02022B003FFB97
:02022C0000AD23
:02022D00000EC1
:02022E003FDFB0
:02022F003FA0EE
:020230003F6B22
:020231003FB3D9
:02023200009733
:0202330000F8D1
:0202340000E9DF
:020235003F6622
:02023600000BBB
:020237003F1175
:02023800002E96
:020239003EB6CF
:02023A003FF58E
:02023B003FFD85
:02023C003FBCC5
:02023D003F7D03
:02023E00006A54
:02023F003FC1BD
:020240003FC7B6
:020241000010AB
:0202420000308A
:020243003F0E6C
:02024400005E5A
:0202450000F6C1
:020246003CEF8B
:02024700003A7B
:020248000000B4
:0202490000F3C0
:02024A003FE78C
:02024B000002AF
:02024C0000A50B
:02024D003FF779
:02024E0000B1FD
:02024F003F99D5
:020250003F5B12
:0202510000FAB1
:020252003FE685
:02025300009C0D
:020254003EFC6E
:020255003F97D1
:020256003F6BFC
:020257003F1353
:02025800001E86
:020259003F6CF8
:02025A003F9EC5
:02025B00012D73
:02025C003F243D
:02025D003F411F
:02025E0000EBB3
:02025F00004459
:020260003FB8A5
:020261003F63F9
:02026200009307
:02026300005346
:02026400001682
:0202650000583F
:02026600003C5A
:020267003F4214
:020268003F193C
:020269003FA8AC
:02026A003F1142
:02026B003F78DA
:02026C0000EBA5
:02026D003F4B05
:02026E003F222D
:02026F003FC688
:020270003FB39A
:02027100004447
:020272003ED27A
:020273003F75D5
:020274003FBB8E
:020275003F1731
:020276003F90B7
:0202770000067F
:0202780000CABA
:0202790000CDB6
:02027A003FCD76
:02027B003FF54D
:02027C003F1928
:02027D00005A25
:02027E003FCE71
:02027F003E9AA5
:0202800000007C
:020281003F83B9
:020282003EC874
:02028300005F1A
:020284003FB584
:020285003E90A9
:020286003DBF7A
:02028700006015
:020288003FB580
:020289003F0133
:02028A00000C66
:02028B0000264B
:02028C003FFD34
:02028D003FDC54
:02028E003FFC33
:02028F003E45EA
:020290003FC36A
:0202910000016A
:02029200000961
:02029300001356
:020294003E4EDC
:0202950000A1C6
:020296003FAB7C
:02029700003A2B
:02029800003133
:0202990000174C
:02029A003E42E2
:02029B003FC35F
:02029C00012D32
:02029D0000233C
:02029E003F75AA
:02029F003FC955
:0202A00000104C
:0202A10000AFAC
:0202A20001BD9C
:0202A300004E0B
:0202A4003FCA4F
:0202A5003F35E3
:0202A600005FF7
:0202A7003FFD19
:0202A80001361D
:0202A9003FFB19
:0202AA003EF123
:0202AB003FF81A
:0202AC00000947
:0202AD003FEC24
:0202AE003E15FB
:0202AF00007BD2
:0202B0003FCE3F
:0202B100003219
:0202B2003FCF3C
:0202B30001CF79
:0202B40000C781
:0202B500002720
:0202B6003FD631
:0202B7003FE620
:0202B8003FF70E
:0202B9003FF212
:0202BA000047FB
:0202BB00002021
:0202BC0000053B
:0202BD0000300F
:0202BE0000122C
:0202BF00000C31
:0202C0003FBB42
:0202C100000D2E
:0202C2000061D9
:0202C300002712
:0202C400000632
:0202C50000290E
:0202C6003F6394
:0202C7003F27CF
:0202C8003F30C5
:0202C9003FA351
:0202CA003ED024
:0202CB000054DD
:0202CC003F7E73
:0202CD003EF4FD
:0202CE003F7F70
:0202CF003F02EC
:0202D0003FE805
:0202D100003BF0
:0202D2003FE605
:0202D300000029
:0202D4003F5990
:0202D5000048DF
:0202D6000027FF
:0202D7003FB630
:0202D800015DC6
:0202D9000138EA
:0202DA003F2FB4
:0202DB003EC81B
:0202DC00001E02
:0202DD003ED50C
:0202DE003EEFF1
:0202DF003FA43A
:0202E000007D9F
:0202E100009685
:0202E2003FEDEE
:0202E3000046D3
:0202E4003FFFDA
:0202E50000D245
:0202E6000021F5
:0202E7003F18BE
:0202E800000212
:0202E90001C74B
:0202EA00009280
:0202EB003FAE24
:0202EC000031DF
:0202ED000011FE
:0202EE003F9D32
:0202EF003FFAD4
:0202F0003E15B9
:0202F1003EB815
:0202F2003F9932
:0202F3003F4684
:0202F400009474
:0202F50000EA1D
:0202F6003F7C4B
:0202F700003DC8
:0202F800002ADA
:0202F9003EA322
:0202FA003E4B79
:0202FB003FB012
:0202FC000026DA
:0202FD0000BE41
:0202FE003F9827
:0202FF0000D02D
:020300000054A7
:020301003EBFFD
:02030200016197
:020303003FF7C2
:020304003FD1E7
:020305003F8E29
:0203060000AD48
:020307003FFDB8
:0203080000569D
:020309003EF1C3
:02030A000025CC
:02030B003FC2EF
:02030C000021CE
:02030D003EF4BC
:02030E003E7D32
:02030F000023C9
:020310000049A2
:020311003FBBF0
:02031200002FBA
:02031300005395
:02031400001DCA
:020315003EE5C3
:0203160000CD18
:020317003FBDE8
:020318000004DF
:020319000003DF
:02031A003FB2F0
:02031B003E653D
:02031C000013CC
:02031D003FFFA0
:02031E003FC3DB
:02031F0001EAF1
:020320003FC0DC
:020321003F4F4C
:02032200002EAB
:020323003FF9A0
:020324000010C7
:020325000002D4
:020326000026AF
:02032700006371
:020328003E7322
:0203290000379B
:02032A003FF49E
:02032B003FBFD2
:02032C003FD2BE
:02032D00008B43
:02032E003F4F3F
:02032F00004B81
:0203300000ECDF
:020331003F3556
:02033200005475
:020333003EA1E9
:020334000010B7
:02033500005C6A
:020336003FD9AD
:020337000022A2
:02033800001BA8
:020339003FFE85
:02033A000000C1
:02033B003F88F9
:02033C003FFE82
:02033D003FA8D7
:02033E00017F3D
:02033F003F027B
:020340003F6D0F
:020341003FF883
:02034200006653
:02034300002E8A
:02034400008B2C
:0203450000AE08
:020346003F1A5C
:020347003F7005
:02034800005C57
:020349003F7201
:02034A003EEE85
:02034B003F4928
:02034C003F88E8
:02034D00003678
:02034E0000AB02
:02034F003F0C61
:0203500000D0DB
:02035100013B6E
:020352003FB2B8
:02035300003672
:020354003F194F
:0203550000396D
:020356003F9BCB
:02035700002F75
:0203580000277C
:0203590000376B
:02035A003E86DD
:02035B003FD58C
:02035C00000996
:02035D00005549
:02035E0000019C
:02035F00007329
:02036000002774
:020361003EB3A9
:020362003FC298
:02036300000791
:020364003FC791
:02036500003462
:0203660000AFE6
:020367003FFE57
:020368003FCD87
:02036900007919
:02036A003EE56E
:02036B0001038C
:02036C00006A25
:02036D00003658
:02036E003ED877
:02036F00005A32
:020370003E77D6
:02037100003357
:020372003FFA50
:02037300002B5D
:020374003ECE7B
:020375003EE95F
:0203760000473E
:020377003FF550
:020378003FBD87
:02037900009AE8
:02037A00006120
:02037B0000215F
:02037C00001E61
:02037D003FA996
:02037E003FD569
:02037F00009CE0
:020380003F84B8
:020381003BFA45
:020382003F9C9E
:020383003FEA4F
:02038400012551
:020385003FFB3C
:0203860000096C
:020387000090E4
:020388003FD460
:0203890001432E
:02038A0000ABC6
:02038B003F979A
:02038C003F161A
:02038D0000006E
:02038E003FA18D
:02038F003F9499
:020390003FD656
:02039100002644
:02039200016008
:020393003FAA7F
:0203940000C3A4
:020395003F4FD8
:020396003FFD29
:020397003FE63F
:02039800011151
:02039900002F33
:02039A003FC85A
:02039B0000411F
:02039C003FFE22
:02039D003FB768
:02039E003FF727
:02039F00005408
:0203A0003FA775
:0203A1003E908C
:0203A2003ED249
:0203A300023620
:0203A4003E22F7
:0203A5003F3CDB
:0203A6003F5FB7
:0203A70000DA7A
:0203A8003FF81C
:0203A9003FCF44
:0203AA00020F40
:0203AB003FE32E
:0203AC003FFC14
:0203AD003FF619
:0203AE003F56B8
:0203AF003FF21B
:0203B000009CAF
:0203B1003F6E9D
:0203B200000E3B
:0203B300002C1C
:0203B4003F55B3
:0203B500004BFB
:0203B6003FB84E
:0203B7003FE520
:0203B8003FF311
:0203B9000073CF
:0203BA003DF80C
:0203BB00002B15
:0203BC003FFB05
:0203BD00004DF1
:0203BE003FB14D
:0203BF003E34CA
:0203C0003FF309
:0203C100003505
:0203C2003FCD2D
:0203C3003F0CED
:0203C4003FDC1C
:0203C5003EE90F
:0203C600001A1B
:0203C700000F25
:0203C8003EA94C
:0203C900000C26
:0203CA003EFAF9
:0203CB0000151B
:0203CC003FDB15
:0203CD0000A886
:0203CE003F18D6
:0203CF003F816C
:0203D0003F9458
:0203D1003F8665
:0203D2000082A7
:0203D3003FC524
:0203D4000067C0
:0203D5000073B3
:0203D6003F27BF
:0203D7003F12D3
:0203D8003EB92C
:0203D90000958D
:0203DA003FF3EF
:0203DB003F22BF
:0203DC003FEDF3
:0203DD003FC11E
:0203DE003EE1FE
:0203DF003E8D51
:0203E000008992
:0203E100001109
:0203E2000124F4
:0203E3003FC118
:0203E4003FF6E2
:0203E500009680
:0203E6000027EE
:0203E700002BE9
:0203E8003FDAFA
:0203E9003F9A39
:0203EA000047CA
:0203EB00000010
:0203EC000069A6
:0203ED003E933D
:0203EE003FC00E
:0203EF00000B01
:0203F0003F10BC
:0203F1003FBB10
:0203F2003EF8D3
:0203F30000A167
:0203F4000029DE
:0203F5003FC007
:0203F6003FB610
:0203F7003FFEC7
:0203F800001CE7
:0203F9003FCFF4
:0203FA00004FB2
:0203FB003FFFC2
:0203FC003F8B35
:0203FD003FFDC2
:0203FE003FEDD1
:0203FF003FBC01
:02040000002ECC
:020401003FD0EA
:020402003FDBDE
:020403003F7A3E
:020404003F9E19
:020405003FFFB7
:020406003F6C49
:020407000005EE
:020408003F5A59
:020409003FAA08
:02040A000026CA
:02040B003FC0F0
:02040C003FE4CB
:02040D003F07A7
:02040E0000618B
:02040F003EF6B7
:020410003A7E32
:0204110000F4F5
:020412000002E6
:020413000039AE
:02041400002ABC
:020415003F2383
:020416003D2F78
:020417003EB5F0
:020418003F3073
:0204190000A839
:02041A000001DF
:02041B00004E91
:02041C0000419D
:02041D003E910E
:02041E003FD5C8
:02041F003F5A42
:020420003FF3A8
:020421003F1585
:0204220000894F
:020423003F7523
:020424000027AF
:020425003FC2D4
:020426003F7E17
:020427003FC9CB
:02042800001DB5
:020429003FFD95
:02042A00013798
:02042B003FC0D0
:02042C00003995
:02042D0000408D
:02042E003FADE0
:02042F003FF29A
:020430000000CA
:020431003FB2D8
:020432003FC2C7
:0204330000784F
:02043400006264
:020435003FF492
:0204360000368E
:020437003FD5AF
:02043800001DA5
:020439003FF58D
:02043A003F99E8
:02043B003FACD4
:02043C003F4738
:02043D003FD8A6
:02043E0000318B
:02043F0000D2E9
:020440003F92E9
:020441003FF981
:02044200001C9C
:02044300022D88
:020444003FF483
:020445003FADC9
:0204460001268D
:020447003F9DD7
:020448003E5321
:020449003F076B
:02044A0000357B
:02044B003FD69A
:02044C00003C72
:02044D003F135B
:02044E003F4429
:02044F00002487
:020450000002A8
:020451003ED09B
:02045200026E38
:0204530000B7F0
:0204540000287E
:020455003F3036
:0204560000EEB6
:020457003F70F4
:020458003F362D
:020459003E96CD
:02045A0000613F
:02045B003F98C8
:02045C003FC39C
:02045D003F213D
:02045E00002775
:02045F003EDB82
:02046000002773
:02046100000A8F
:02046200006F29
:02046300006F28
:020464003FE86F
:020465003F9FB7
:0204660000E4B0
:0204670000DCB7
:020468000099F9
:020469003E6AE9
:02046A00002B65
:02046B0000820D
:02046C003F92BD
:02046D003FB09E
:02046E00010E7D
:02046F003F4903
:02047000003F4B
:020471003F50FA
:020472003F69E0
:02047300000B7C
:020474003F63E4
:020475003FB294
:020476003EA1A5
:020477003F71D3
:02047800000181
:020479000190F0
:02047A003E6CD6
:02047B003E73CE
:02047C00002C52
:02047D003EB28D
:02047E003E9F9F
:02047F003F4BF1
:020480003FF645
:020481000093E6
:020482003F82B7
:020483003F83B5
:020484003F66D1
:02048500003C39
:020486003FEC49
:020487003ECC69
:02048800003B37
:020489003F3101
:02048A00009DD3
:02048B003FB57B
:02048C003F64CB
:02048D003F78B6
:02048E003EB777
:02048F003FD557
:020490003FE447
:02049100010563
:020492003F38F1
:020493003F1F09
:02049400001D49
:020495003F31F5
:020496003FEE37
:020497003EB76E
:020498000079E9
:020499003FF131
:02049A00002C34
:02049B003FCD53
:02049C003FEF30
:02049D003EBA65
:02049E00001F3D
:02049F00000358
:0204A000009EBC
:0204A1003FA476
:0204A2000086D2
:0204A3003FD543
:0204A4003ED048
:0204A50000D67F
:0204A600005AFA
:0204A7003F1FF5
:0204A8003FDC37
:0204A9003FB65C
:0204AA003FF819
:0204AB0000B19E
:0204AC003F5BB4
:0204AD003FF915
:0204AE003FFE0F
:0204AF0000D972
:0204B0003DED20
:0204B1003F25E5
:0204B2000062E6
:0204B3003E47C2
:0204B400008CBA
:0204B5003FF70F
:0204B6000095AF
:0204B7003FFD07
:0204B80000261C
:0204B9000084BD
:0204BA003FFB06
:0204BB003F24DC
:0204BC003F8C73
:0204BD0000211C
:0204BE0000211B
:0204BF003FC03C
:0204C000000535
:0204C1003F9C5E
:0204C200001523
:0204C3003FD226
:0204C4003F6295
:0204C5003FF402
:0204C600002D07
:0204C7003F29CB
:0204C8003FD023
:0204C9003F35BD
:0204CA003FC42D
:0204CB003FF2FE
:0204CC000043EB
:0204CD003F5599
:0204CE0000AC80
:0204CF00004DDE
:0204D000002505
:0204D1003FD119
:0204D2000030F8
:0204D3000073B4
:0204D400002204
:0204D5003FCB1B
:0204D6000052D2
:0204D7003FCD17
:0204D8000028FA
:0204D9003F6082
:0204DA00002AF6
:0204DB003FC020
:0204DC000027F7
:0204DD0000918C
:0204DE0000928A
:0204DF003F9E3E
:0204E0000038E2
:0204E1003FB723
:0204E2003F5A7F
:0204E3003FB622
:0204E4000074A2
:0204E5003F7D59
:0204E600000410
:0204E7000064AF
:0204E8000130E1
:0204E9003F5280
:0204EA003F27AA
:0204EB003EE6EB
:0204EC003FCE01
:0204ED003F9836
:0204EE003FB518
:0204EF003EB21B
:0204F000003CCE
:0204F100004ABF
:0204F2003D9437
:0204F30000E126
:0204F40000CD39
:0204F5000025E0
:0204F6003F3095
:0204F7003F4B79
:0204F8003F467D
:0204F900002BD6
:0204FA0002C43A
:0204FB00001DE2
:0204FC003FFFC0
:0204FD00003BC2
:0204FE003FB10C
:0204FF003FF4C8
:020500003ED7E4
:020501003FBBFE
:020502003F7642
:02050300002EC8
:0205040000A055
:02050500003DB7
:020506003F10A4
:020507003FEDC6
:02050800000AE7
:02050900002BC5
:02050A003FF8B8
:02050B000018D6
:02050C003F9B13
:02050D003FC6E7
:02050E003FBAF2
:02050F003FE5C6
:020510003FF4B6
:020511000026C2
:020512003FFBAD
:020513003F3374
:020514003FCBDB
:020515000033B1
:020516003FD2D2
:02051700007F63
:02051800012BB5
:020519003FF0B1
:02051A003FC5DB
:02051B003F2E71
:02051C00009B42
:02051D003FF6A7
:02051E003EDAC3
:02051F003FFE9D
:02052000006079
:020521003FE7B2
:0205220000AB2C
:020523000028AE
:02052400006174
:020525000026AE
:020526003F5242
:02052700004191
:020528003FF999
:020529003FA6EB
:02052A003FF799
:02052B003FFA95
:02052C00001BB2
:02052D00007755
:02052E003FB8D4
:02052F003FFB90
:020530003FADDD
:020531003EC7C3
:020532003FFC8C
:0205330000A71F
:020534003F7B0B
:020535003F384D
:020536000000C3
:020537003FF390
:020538000004BD
:020539003F6120
:02053A00002D92
:02053B00000BB3
:02053C00007449
:02053D00005567
:02053E003DAAD4
:02053F003F5724
:02054000007544
:020541003FBCBD
:020542003FD1A7
:020543003FFA7D
:020544003FF87E
:020545000001B3
:02054600006C47
:020547003FFB78
:020548003FF87A
:02054900001C94
:02054A00004A65
:02054B00001E90
:02054C00002588
:02054D003F77F6
:02054E003FF17B
:02054F003F8DDE
:02055000013672
:020551003DB2B9
:020552003F491F
:02055300001294
:020554003EC7A0
:02055500002282
:020556003FF96B
:02055700002280
:020558003FDB87
:0205590000316F
:02055A003FA1BF
:02055B0000CFCF
:02055C0000D6C7
:02055D003F0E4F
:02055E00000B90
:02055F003E0F4D
:020560003FCA90
:020561000099FF
:020562003FC890
:0205630000A1F5
:020564003FC591
:02056500002E66
:020566003F4E06
:0205670000583A
:020568003F2032
:02056900003C54
:02056A003FF15F
:02056B003FCE81
:02056C0000F796
:02056D003FF15C
:02056E003F8CC0
:02056F00001D6D
:0205700001CFB9
:02057100003B4D
:02057200007E09
:02057300009BEB
:0205740000661F
:020575003F271E
:020576003F360E
:020577003F54EF
:02057800000978
:0205790000235D
:02057A003FDD63
:02057B0000235B
:02057C003FCD71
:02057D003F89B4
:02057E003F0F2D
:02057F00005327
:02058000004633
:02058100003C3C
:020582003F6DCB
:020583003F64D3
:020584003F70C6
:020585003F3302
:020586003F3103
:0205870000234F
:020588003FD65C
:020589000171FE
:02058A0000224D
:02058B003FAA85
:02058C003FE34B
:02058D003F022B
:02058E003F85A7
:02058F00000961
:020590003EEA41
:0205910000F474
:020592003EF732
:0205930000E680
:020594003EFD2A
:02059500009DC7
:020596003FEB39
:02059700001052
:020598003F1111
:020599003F29F8
:02059A00009BC4
:02059B003FF926
:02059C0000213C
:02059D003EDF3F
:02059E0000C299
:02059F00004C0E
:0205A000000554
:0205A1003F26F3
:0205A2003FF127
:0205A300005BFB
:0205A400000055
:0205A5003FF81D
:0205A6000097BC
:0205A7000098BA
:0205A8003ED43F
:0205A9003FFC15
:0205AA00002926
:0205AB003FC748
:0205AC00004607
:0205AD003F3ECF
:0205AE003FC646
:0205AF00003119
:0205B000002A1F
:0205B1000148FF
:0205B2003F7692
:0205B30000A2A4
:0205B4003F8185
:0205B5003ED135
:0205B60000053E
:0205B70000073B
:0205B8003FCB37
:0205B900000040
:0205BA003FC838
:0205BB003FFE01
:0205BC000072CB
:0205BD003FCC31
:0205BE003F3CC0
:0205BF003E9765
:0205C000003108
:0205C10000D761
:0205C200002017
:0205C3003F896E
:0205C4000084B1
:0205C5003FF9FC
:0205C600003EF5
:0205C70000FA38
:0205C8000033FE
:0205C9003FBF32
:0205CA00002B04
:0205CB003F25CA
:0205CC00008F9E
:0205CD003FBF2E
:0205CE0000012A
:0205CF003F6685
:0205D000006BBE
:0205D100003AEE
:0205D200001710
:0205D3003FBC2B
:0205D4003F479F
:0205D5003FA73E
:0205D600001D06
:0205D7003FFEE5
:0205D8000034ED
:0205D90000948C
:0205DA0000041B
:0205DB003FAC33
:0205DC00015FBD
:0205DD0000001C
:0205DE003FFDDF
:0205DF000060BA
:0205E0003D419B
:0205E10000799F
:0205E2003F6C6C
:0205E3003FFED9
:0205E4000059BC
:0205E500016CA7
:0205E600003DD6
:0205E7003FFED5
:0205E8003FFCD6
:0205E9003F19B8
:0205EA003FCA06
:0205EB000032DC
:0205EC003FE9E5
:0205ED003F735A
:0205EE00002FDC
:0205EF0001F019
:0205F0003FBD0D
:0205F1003F7455
:0205F2003D7159
:0205F3003FC106
:0205F4000029DC
:0205F5000038CC
:0205F600004FB4
:0205F7003F0CB7
:0205F8000020E1
:0205F9003FF1D0
:0205FA00000AF5
:0205FB003FF5CA
:0205FC00000AF3
:0205FD000007F5
:0205FE000108F2
:0205FF003FEFCC
:020600003F6851
:020601003FF0C8
:02060200000EE8
:020603003FFFB7
:020604000025CF
:020605003FD3E1
:020606003F684B
:020607003EECC7
:0206080000C729
:020609003FF0C0
:02060A003FFCB3
:02060B003FF2BC
:02060C00005795
:02060D003FBDEF
:02060E003FDFCC
:02060F000007E2
:020610000006E2
:02061100007374
:020612003FCED9
:020613003F7630
:020614003FFDA8
:020615000011D2
:0206160000AE34
:020617003FCCD6
:0206180000B62A
:020619003FA2FE
:02061A003F247B
:02061B003FBBE3
:02061C003FA8F5
:02061D003FAFED
:02061E003F504B
:02061F003FCBCF
:020620003F8217
:0206210001577F
:02062200000BCB
:020623003F4A4C
:020624000101D2
:020625003FFD97
:020626003F2F64
:02062700008A47
:020628003FAAE7
:020629003ECEC3
:02062A003F1D72
:02062B00002AA3
:02062C0000A02C
:02062D003FB8D4
:02062E003F5D2E
:02062F003F3C4E
:02063000007454
:020631003F3D4B
:02063200000BBB
:020633003FF492
:020634003FFB8A
:020635003F0B79
:020636003F4D36
:020637003FB8CA
:020638003FC0C1
:020639003F4E32
:02063A00007549
:02063B00002E8F
:02063C003F5F1E
:02063D003EF984
:02063E00005862
:02063F003FB6C4
:020640003F8FEA
:02064100002D8A
:020642003FFE79
:0206430001A70D
:020644003FFF76
:020645000000B3
:020646003F6211
:0206470000B4FD
:0206480000644C
:020649003FFA76
:02064A00007836
:02064B0000525B
:02064C003EC6A8
:02064D00000BA0
:02064E003FD695
:02064F00005653
:020650003F2643
:02065100000E99
:02065200008521
:0206530000A005
:020654003F6302
:020655003F283C
:020656003FF073
:020657003FD38F
:020658003FF968
:020659003FC29E
:02065A003FC49B
:02065B00006439
:02065C003FBCA1
:02065D00002C6F
:02065E003EEB71
:02065F0000B8E1
:020660003ED08A
:0206610000A1F6
:02066200015243
:020663003FAAAC
:020664003FBF96
:0206650000246F
:020666003ED67E
:020667003F9BB7
:02066800007E12
:0206690001DFAF
:02066A003F1D32
:02066B003ED679
:02066C003F55F8
:02066D003F86C6
:02066E00001E6C
:02066F003FED5D
:020670003FCD7C
:0206710000EC9B
:020672003FBC8B
:020673003F76D0
:02067400000480
:020675003FFD47
:020676003FD370
:0206770000354C
:0206780000057B
:020679003FFC44
:02067A003FD06F
:02067B00006815
:02067C003FCC71
:02067D003E4EEF
:02067E003FF942
:02067F003FCD6D
:020680003F8DAC
:02068100003C3B
:020682003FD265
:020683003FBA7C
:020684003F8AAB
:02068500006A09
:0206860000254D
:0206870000C0B1
:020688003FD061
:02068900005A15
:02068A003F5CD3
:02068B00000469
:02068C00010E5D
:02068D00004C1F
:02068E003FC962
:02068F00003D2C
:020690003FF831
:020691003FFF29
:02069200001353
:02069300001451
:020694003FDD48
:020695003E2401
:020696003FD152
:0206970000243D
:02069800019BC4
:020699003F31EF
:02069A003E9C84
:02069B00000855
:02069C003F73AA
:02069D00000556
:02069E000071E9
:02069F00002E2B
:0206A0003FF029
:0206A100003324
:0206A2003FAF68
:0206A30000DE77
:0206A40000A3B1
:0206A500002C27
:0206A600003D15
:0206A700008AC7
:0206A8000264EA
:0206A900002827
:0206AA0000004E
:0206AB003FE32B
:0206AC003EF31B
:0206AD003FCD3F
:0206AE003FCA41
:0206AF00001C2D
:0206B0003E49C1
:0206B10000A5A2
:0206B2003FFE09
:0206B300003213
:0206B4003F23E2
:0206B500002320
:0206B6000056EC
:0206B7003D8084
:0206B8000081BF
:0206B9003D12F0
:0206BA003F6798
:0206BB000056E7
:0206BC003EE519
:0206BD000072C9
:0206BE003EF606
:0206BF00000831
:0206C0000087B1
:0206C1003F7781
:0206C2003F8077
:0206C3003FAC4A
:0206C4003FAF46
:0206C500001B18
:0206C6003FDC17
:0206C70000F140
:0206C8003F757C
:0206C90000032C
:0206CA003FB03F
:0206CB003FFFEF
:0206CC003F3DB0
:0206CD00003DEE
:0206CE003FE803
:0206CF003F36B4
:0206D0003FE603
:0206D1003F994F
:0206D2000034F2
:0206D300000025
:0206D4003FFFE6
:0206D5003FA341
:0206D6003E9351
:0206D7003FF6EC
:0206D8000043DD
:0206D9003F2AB6
:0206DA003F835C
:0206DB003FD00E
:0206DC00003BE1
:0206DD003FF7E5
:0206DE003E38A4
:0206DF003FC911
:0206E0003FD306
:0206E1003FFEDA
:0206E200004DC9
:0206E3003F0DC9
:0206E40000080C
:0206E50000FA19
:0206E6003FFBD8
:0206E7003FF2E0
:0206E80000A769
:0206E900000609
:0206EA003FFFD0
:0206EB000057B6
:0206EC003FFFCE
:0206ED003F7A52
:0206EE003F6B60
:0206EF00000504
:0206F0003FA326
:0206F1000009FE
:0206F2003FDBEC
:0206F3003FC9FD
:0206F4003EEBDB
:0206F5003FD9EB
:0206F600000BF7
:0206F7003E744F
:0206F800002AD6
:0206F9003F3B85
:0206FA00001CE2
:0206FB00011BE1
:0206FC000046B6
:0206FD003F328A
:0206FE000024D6
:0206FF000032C7
:020700003FF4C4
:020701003FD6E1
:020702003FE0D6
:020703003FF8BD
:020704003FF0C4
:020705003FA310
:02070600001ED3
:020707003F7B36
:0207080000A649
:02070900002CC2
:02070A003FCEE0
:02070B003F7E2F
:02070C003FEFBD
:02070D003F9813
:02070E003FCAE0
:02070F003F8128
:020710003FCCDC
:02071100002EB8
:020712000003E2
:020713003FCBDA
:02071400003FA4
:020715003E188C
:020716003F4A58
:020717003FD5CC
:020718000030AF
:020719000001DD
:02071A00002BB2
:02071B003DBEE1
:02071C00026871
:02071D003FBBE0
:02071E00005089
:02071F003E8D0D
:020720003FFC9C
:020721003FC5D2
:020722000024B1
:020723003FC8CD
:020724003FE3B1
:020725000006CC
:02072600002DA4
:020727003FDBB6
:020728003F7A16
:0207290000E1ED
:02072A003F8509
:02072B003FCAC3
:02072C003FEE9E
:02072D003FC1CA
:02072E000002C7
:02072F003FD3B6
:020730000021A6
:020731003FF592
:02073200002C99
:020733003EDFA7
:020734003FC7BD
:0207350000744E
:020736003FDAA8
:020737003F522F
:0207380000A619
:0207390000724C
:02073A003FEA94
:02073B003F89F4
:02073C00004A71
:02073D003ECBB1
:02073E003FF585
:02073F003FBCBD
:020740003FDF99
:0207410001F1C4
:0207420000278E
:020743003F4A2B
:0207440000EBC8
:020745003FC7AC
:020746003F472B
:02074700013F70
:020748003E8EE3
:020749003F3837
:02074A003F2648
:02074B003FDA93
:02074C00008C1F
:02074D00005D4D
:02074E003FF872
:02074F003F6306
:020750003FF078
:020751003FA9BE
:020752003FB3B3
:02075300001391
:020754003F075D
:02075500002F73
:020756003FF171
:0207570000534D
:020758003FB5AB
:020759003ECA96
:02075A0000217C
:02075B003F5706
:02075C00002A71
:02075D003FF368
:02075E00003366
:02075F003F3722
:0207600000494E
:0207610001BADB
:02076200000491
:020763003FED68
:02076400005142
:0207650000C4CE
:02076600002F62
:020767003FC48D
:02076800002C63
:020769003FF55A
:02076A0000CDC0
:02076B003F2F1E
:02076C00002665
:02076D003F4605
:02076E000091F8
:02076F00000A7E
:020770003E0544
:02077100008006
:0207720000661F
:020773003F3C09
:0207740000DDA6
:020775003F71D2
:02077600000A77
:020777003FCF72
:02077800002F50
:020779003FF44B
:02077A00016A12
:02077B0001512A
:02077C00000C6F
:02077D003FCB70
:02077E003EC17A
:02077F00004236
:02078000003A3D
:020781003F2413
:02078200005025
:02078300004034
:0207840000442F
:020785003F76BD
:0207860000B7BA
:020787003F6BC6
:020788003F42EE
:02078900002D41
:02078A003EED42
:02078B00000666
:02078C003F8D9F
:02078D003FBB70
:02078E003F83A7
:02078F00006AFE
:0207900000293E
:020791003EE642
:0207920000A6BF
:02079300006BF9
:02079400005A09
:020795003FB66D
:020796003EAE75
:020797003F2001
:0207980000421D
:020799003F031C
:02079A0000A2BB
:02079B00000656
:02079C003F70AC
:02079D0000005A
:02079E003FE832
:02079F003F59C0
:0207A0003F898F
:0207A1003EF127
:0207A2000081D4
:0207A3003FB263
:0207A4003EE332
:0207A5003F22F1
:0207A60000A8A9
:0207A7003FC64B
:0207A800002E21
:0207A9003FAC63
:0207AA003FE22C
:0207AB000062EA
:0207AC003F1CF0
:0207AD000089C1
:0207AE003FF218
:0207AF003E7A90
:0207B000001334
:0207B1003FCE39
:0207B2003F5DA9
:0207B30000152F
:0207B4003F9272
:0207B5000066DC
:0207B6000087BA
:0207B7003F9D64
:0207B80000E05F
:0207B9003ED62A
:0207BA00011725
:0207BB00002319
:0207BC00002219
:0207BD003FFDFE
:0207BE00002D0C
:0207BF003F7980
:0207C0003FE414
:0207C1000064D2
:0207C2003FBF37
:0207C3003FFAFB
:0207C40000CA69
:0207C5003F866D
:0207C6003FD41E
:0207C700000030
:0207C80000042B
:0207C9000033FB
:0207CA00002FFE
:0207CB003FF1FC
:0207CC003FAD3F
:0207CD003F618A
:0207CE003FF8F2
:0207CF000032F6
:0207D0000034F3
:0207D1003F6F78
:0207D20000BF66
:0207D30000D94B
:0207D400002AF9
:0207D5003EAC38
:0207D6003FF1F1
:0207D70000C35D
:0207D8000039E6
:0207D9003E6977
:0207DA00001EFF
:0207DB003EB12D
:0207DC0000001B
:0207DD0000A773
:0207DE00001207
:0207DF003F5485
:0207E0000055C2
:0207E1000074A2
:0207E2003FF5E1
:0207E3000044D0
:0207E4003F2CA8
:0207E5003F547F
:0207E6003FEEE4
:0207E700000709
:0207E8000022ED
:0207E9003F6867
:0207EA000067A6
:0207EB003EEAE4
:0207EC00004AC1
:0207ED0000A763
:0207EE003E0BC0
:0207EF003FC603
:0207F0000028DF
:0207F1003F9D2A
:0207F20001B74D
:0207F3003F9F26
:0207F4003CE9DE
:0207F5003FDDE6
:0207F6003FF0D2
:0207F7003F7051
:0207F8000040BF
:0207F9003D625F
:0207FA00000FEE
:0207FB0000EF0D
:0207FC000023D8
:0207FD003FFDBE
:0207FE00000FEA
:0207FF0000B642
:020800000025D1
:020801003FA115
:020802003FC4F1
:020803003FF9BB
:02080400002FC3
:020805003FD9D9
:020806000026CA
:020807003FD6DA
:020808003FEEC1
:020809003FFBB3
:02080A003FD2DB
:02080B003F8C20
:02080C000044A6
:02080D003FD9D1
:02080E000011D7
:02080F000046A1
:020810003CEDBD
:020811003E8A1D
:0208120000E202
:020813000023C0
:020814003EF9AB
:020815000013CE
:02081600001EC2
:0208170000AC33
:020818000036A8
:0208190000726B
:02081A000009D3
:02081B003FCECE
:02081C000022B8
:02081D0000D702
:02081E00002CAC
:02081F003FD3C5
:020820003FDCBB
:02082100010BC9
:02082200001CB8
:020823003F375D
:020824003F652E
:020825003FFD95
:020826003DF59E
:020827003F95FB
:020828000006C8
:020829003FD4BA
:02082A003FC8C5
:02082B003FEF9D
:02082C00014A7F
:02082D003ED7B4
:02082E000011B7
:02082F003FD3B5
:0208300000388E
:02083100009E27
:020832003F8AFB
:020833003FE0A4
:020834003FB3D0
:020835003FC7BB
:02083600004080
:02083700004A75
:0208380000318D
:020839003F3F3F
:02083A000015A7
:02083B003FBCC0
:02083C00002298
:02083D003F99E1
:02083E0000298F
:02083F00004F68
:020840003FBCBB
:0208410000278E
:0208420001258E
:020843003F4A2A
:02084400006A48
:020845003EABC8
:0208460000248C
:020847003FF47C
:0208480000A30B
:020849003FC9A5
:02084A003F323B
:02084B003FAFBD
:02084C003F5C0F
:02084D003F8BDF
:02084E00007533
:02084F00005D4A
:020850000006A0
:02085100002C79
:020852003F0A5B
:020853003F4B19
:02085400001290
:020855003F4121
:0208560000AEF2
:020857003FE080
:0208580000128C
:0208590000F4A9
:02085A003FB8A5
:02085B00006239
:02085C0000009A
:02085D0000D9C0
:02085E003F1445
:02085F003F75E3
:020860003FFF58
:0208610000B8DD
:02086200003163
:02086300001D76
:020864003FF360
:020865003FE56D
:020866003FD27F
:02086700002A65
:0208680000345A
:0208690000EF9E
:02086A0000008C
:02086B0000008B
:02086C0000B9D1
:02086D00010088
:02086E003FF554
:02086F00000384
:020870003F0F38
:020871003F91B5
:020872003FD372
:020873000094EF
:020874003FFB48
:020875003FDC66
:0208760000F987
:020877003FEB55
:020878003DEF52
:0208790000700D
:02087A00004933
:02087B003F6ECE
:02087C00005822
:02087D00008FEA
:02087E003FDB5E
:02087F00003D3A
:02088000006E08
:02088100000570
:02088200002E46
:0208830000264D
:020884003FCE65
:02088500000071
:0208860001432C
:0208870000A6C9
:020888003EF838
:020889003F86A8
:02088A003FCB62
:02088B000084E7
:02088C003FCA61
:02088D00002E3B
:02088E003FDB4E
:02088F003FB870
:020890003F8E99
:02089100000A5B
:020892000065FF
:0208930002332E
:020894003FB96A
:0208950000570A
:02089600004917
:0208970000A3BC
:0208980000144A
:020899003F8E90
:02089A003F0518
:02089B00003A21
:02089C0000D684
:02089D00001D3C
:02089E003FF722
:02089F003EA673
:0208A0003FD344
:0208A100002035
:0208A20000CD87
:0208A30000292A
:0208A40000272B
:0208A5003E29EA
:0208A6003F32DF
:0208A7003FDD33
:0208A8003FFA15
:0208A9003F44CA
:0208AA003F8C81
:0208AB00003516
:0208AC000066E4
:0208AD003FFB0F
:0208AE003F8188
:0208AF00002D1A
:0208B000000B3B
:0208B100002C19
:0208B2003F8A7B
:0208B300000D36
:0208B40000261C
:0208B50000231E
:0208B6003FB74A
:0208B7003FB34D
:0208B8003F05FA
:0208B900000C31
:0208BA00003C00
:0208BB000078C3
:0208BC003FCB30
:0208BD00002A0F
:0208BE003F7089
:0208BF003C718A
:0208C0003FF700
:0208C1003F7086
:0208C2003FF9FC
:0208C3003F787C
:0208C4003FC82B
:0208C50000240D
:0208C6003FA849
:0208C70000F53A
:0208C80001BD70
:0208C9000163C9
:0208CA00000D1F
:0208CB003FE903
:0208CC00000921
:0208CD0000F336
:0208CE003FDE0B
:0208CF00003AED
:0208D0003FC81F
:0208D1000149DB
:0208D2003C0CDC
:0208D3000060C3
:0208D4003FFAE9
:0208D500002BF6
:0208D6003F11D0
:0208D7000021FE
:0208D8003EDC04
:0208D900007E9F
:0208DA003FB12C
:0208DB003F9F3D
:0208DC003FD10A
:0208DD003F6971
:0208DE003FD900
:0208DF000052C5
:0208E0003FD8FF
:0208E10000C154
:0208E2003F1EB7
:0208E300003DD6
:0208E4003E21B3
:0208E5000021F0
:0208E6003FFAD7
:0208E700007798
:0208E8000066A8
:0208E9003E705F
:0208EA003E14BA
:0208EB000022E9
:0208EC00010504
:0208ED003FE8E2
:0208EE00001CEC
:0208EF00009A6D
:0208F0003FD0F7
:0208F100001DE8
:0208F2003FB90C
:0208F30000B94A
:0208F4003FCFF4
:0208F5000027DA
:0208F6003FF2CF
:0208F7003E645D
:0208F8003FF1CE
:0208F9000029D4
:0208FA003FD3EA
:0208FB0004A651
:0208FC003FD5E6
:0208FD0000E910
:0208FE000038C0
:0208FF003F1A9E
:020900003FA016
:020901003F9F16
:020902003FD2E2
:020903003FC7EC
:0209040000B53C
:02090500007A76
:020906003FD1DF
:02090700000AE4
:020908003FC5E9
:020909003F8B22
:02090A00005596
:02090B003FD6D5
:02090C000039B0
:02090D000026C2
:02090E003E8425
:02090F003FCFD8
:020910000022C3
:020911003EEBBB
:020912003F693B
:020913003F8320
:02091400009849
:020915003ED2D0
:020916003F643C
:020917003EDCC4
:020918003E5B44
:020919003FB1EC
:02091A003F4F4D
:02091B003F4952
:02091C000039A0
:02091D000108CF
:02091E00007364
:02091F003F2671
:02092000009441
:020921003FA0F5
:020922003FBDD7
:020923003FF99A
:0209240000349D
:0209250000AB25
:02092600002CA3
:020927003F2A65
:020928003FF896
:02092900006B61
:02092A000011BA
:02092B003FD8B3
:02092C003F4B3F
:02092D003FD7B2
:02092E00006364
:02092F000004C2
:02093000000CB9
:020931003FBBCA
:0209320000D8EB
:0209330000279B
:020934003F136F
:0209350000843C
:0209360000239C
:020937003F1A65
:0209380000328B
:020939000018A4
:02093A003FF18B
:02093B00003E7C
:02093C00009C1D
:02093D0000E8D0
:02093E003FB0C8
:02093F003F5621
:02094000000FA6
:0209410000CCE8
:02094200003083
:0209430000961C
:020944003FBFB3
:020945003FFD74
:0209460000347B
:020947003EEE82
:020948003F6C02
:020949003F5716
:02094A003F85E7
:02094B00009317
:02094C003FF377
:02094D00001F89
:02094E00001C8B
:02094F003E4424
:02095000002283
:020951003F88DD
:0209520000B2F1
:0209530001AFF2
:0209540000CBD6
:020955003EFD65
:0209560000247B
:0209570000811D
:020958003FD886
:020959003F75E8
:02095A003FD488
:02095B0000405A
:02095C0000EEAB
:02095D003FF861
:02095E0000593E
:02095F00001185
:02096000002471
:020961003EF95D
:020962003FCE86
:020963003F3A19
:02096400002170
:020965003FD978
:02096600002669
:020967003F4A05
:02096800011C70
:0209690000EE9E
:02096A003FCE7E
:02096B00006B1F
:02096C003F7CCE
:02096D003FF554
:02096E00000D7A
:02096F003FC483
:020970003F1E28
:020971003FCC79
:02097200002261
:020973003FD46F
:02097400000E73
:02097500002858
:0209760000B6C9
:020977003FD867
:020978003FA896
:020979003F72CB
:02097A003C64DB
:02097B000084F6
:02097C003FEA50
:02097D00000771
:02097E00003C3B
:02097F003FF641
:02098000007500
:020981003F3DF8
:020982003C43F4
:020983003F5DD6
:02098400003140
:020985003FD75A
:0209860000056A
:020987003E4EE2
:02098800012F3D
:020989003F9895
:02098A00002744
:02098B00007DED
:02098C003FC268
:02098D003FF435
:02098E00006FF8
:02098F00003036
:020990003F9096
:020991003FCC59
:02099200004F14
:020993003FB172
:0209940000233E
:020995003F7EA3
:02099600007AE5
:020997000073EB
:0209980000213C
:020999003FF627
:02099A003FA874
:02099B00000159
:02099C00001445
:02099D0001292E
:02099E003FAE6A
:02099F003FD245
:0209A000000055
:0209A1003FDB3A
:0209A2003F9B79
:0209A3003FD241
:0209A40000252C
:0209A5003FF120
:0209A6000057F8
:0209A700004FFF
:0209A8003FF717
:0209A9003FD33A
:0209AA003EFE0F
:0209AB003F7794
:0209AC00007BCE
:0209AD00004305
:0209AE0000093E
:0209AF003F67A0
:0209B00000271E
:0209B1003FDB2A
:0209B200000340
:0209B3003FFC07
:0209B400005BE6
:0209B50001320D
:0209B6003F629E
:0209B7003E2DD3
:0209B80022001B
:0209B9003FC33A
:0209BA003FF804
:0209BB003FD922
:0209BC003FF109
:0209BD003F5B9E
:0209BE00011620
:0209BF003FBE39
:0209C000002312
:0209C1003FCB2A
:0209C20000250E
:0209C30000072B
:0209C4000143ED
:0209C5003FE011
:0209C6003F519F
:0209C7003F8669
:0209C8003F8866
:0209C9000041EB
:0209CA003F8567
:0209CB003FC328
:0209CC0000C267
:0209CD003FA742
:0209CE003F36B2
:0209CF000078AE
:0209D00000AB7A
:0209D100003FE5
:0209D2003FC91B
:0209D3000047DB
:0209D400000E13
:0209D5003F01E0
:0209D6003ECF12
:0209D7000026F8
:0209D8003E954A
:0209D9003FB825
:0209DA000079A2
:0209DB003FF1EA
:0209DC003F25B5
:0209DD00002AEE
:0209DE003ED405
:0209DF000043D3
:0209E00000090C
:0209E1003FF6DF
:0209E2000049CA
:0209E3003E983C
:0209E4003FCA08
:0209E5000056BA
:0209E6003FC010
:0209E700000A04
:0209E800008786
:0209E9000040CC
:0209EA0000010A
:0209EB003F814A
:0209EC000015F4
:0209ED003F7B4E
:0209EE003F5F69
:0209EF000149BC
:0209F00000D530
:0209F100001CE8
:0209F2003EA71E
:0209F3003EA61E
:0209F40000679A
:0209F5003FBD04
:0209F600009669
:0209F7003FD6E9
:0209F8000003FA
:0209F9003FFCC1
:0209FA003FC3F9
:0209FB003F7744
:0209FC0000C039
:0209FD003FD7E2
:0209FE003FD4E4
:0209FF00003BBB
:020A00000040B4
:020A01000021D2
:020A02003F2A89
:020A0300025B94
:020A04000030C0
:020A05000025CA
:020A06003FF5BA
:020A0700002DC0
:020A08003F04A9
:020A09003FD7D5
:020A0A003FC3E8
:020A0B000024C5
:020A0C003EF6B4
:020A0D000032B5
:020A0E003F188F
:020A0F003FF9AD
:020A10003F01A4
:020A110000BB28
:020A120000479B
:020A13000001E0
:020A14003FCDD4
:020A150000A53A
:020A16003FD1CE
:020A17003FB6E8
:020A18003FEFAE
:020A19003FFD9F
:020A1A003FCBD0
:020A1B003FA5F5
:020A1C000115C2
:020A1D000036A1
:020A1E00008452
:020A1F003F9006
:020A20000008CC
:020A21000003D0
:020A220000577B
:020A230000547D
:020A24003FC0D1
:020A25000023AC
:020A26003FFD92
:020A270000309D
:020A2800005973
:020A29003FF795
:020A2A003F93F8
:020A2B0000AA1F
:020A2C003F8306
:020A2D000021A6
:020A2E003FF295
:020A2F003F6D19
:020A300000F9CB
:020A3100002D96
:020A32003F3152
:020A330000477A
:020A34003FDEA3
:020A35003FEF91
:020A36003FD2AD
:020A37003FD8A6
:020A3800004A72
:020A390000714A
:020A3A003FCFAC
:020A3B003FFE7C
:020A3C003F94E5
:020A3D003F2652
:020A3E0000D6E0
:020A3F0000199C
:020A40003FD1A4
:020A4100004073
:020A42003FA6CD
:020A4300002988
:020A44003FDB96
:020A45003FCAA6
:020A46003F4A25
:020A47000008A5
:020A48003FBBB2
:020A4900005C4F
:020A4A003FF477
:020A4B00002188
:020A4C003EED7D
:020A4D000006A1
:020A4E003FBEA9
:020A4F003E3A2D
:020A5000004C58
:020A5100003271
:020A52003F92D1
:020A53003F7EE4
:020A540000C7D9
:020A55003F5F01
:020A56003FF56A
:020A5700001E7F
:020A58003FFC61
:020A5900001685
:020A5A00000A90
:020A5B003E1A41
:020A5C003FF168
:020A5D0000E3B4
:020A5E003FC88F
:020A5F00009302
:020A60003F76DF
:020A61003FEC68
:020A62003FCD86
:020A6300006A27
:020A64003FF958
:020A65003FE26E
:020A660000543A
:020A67003FFB53
:020A68003F90BD
:020A6900001E6D
:020A6A0000EAA0
:020A6B00001C6D
:020A6C003FDC6D
:020A6D00003354
:020A6E00005333
:020A6F0000285D
:020A70003FED58
:020A7100001D66
:020A72003FD66D
:020A7300003948
:020A74003FCF72
:020A7500001D62
:020A76003F1B24
:020A7700005B22
:020A78003F8BB2
:020A7900003C3F
:020A7A003FF942
:020A7B003F7EBC
:020A7C003F76C3
:020A7D003F1D1B
:020A7E0000CEA8
:020A7F00000372
:020A80003FF540
:020A8100001261
:020A82003FCE65
:020A83003A91A6
:020A84000072FE
:020A85003FFD33
:020A86003FDA55
:020A87000076F7
:020A88003E5AD4
:020A89003FF735
:020A8A00005812
:020A8B00001F4A
:020A8C003FF138
:020A8D00000463
:020A8E003FBA6D
:020A8F003FD353
:020A90003FAE77
:020A9100002043
:020A92003F81A2
:020A9300000B56
:020A94003FF62B
:020A950000005F
:020A96003E79A7
:020A9700000954
:020A9800001943
:020A9900009FBC
:020A9A003F1209
:020A9B003F9981
:020A9C00001840
:020A9D00005FF8
:020A9E003FC552
:020A9F00000A4B
:020AA0003F8194
:020AA10000084B
:020AA2003F8093
:020AA300000948
:020AA4003FF021
:020AA500007CD3
:020AA60000222C
:020AA7003F8F7F
:020AA800000745
:020AA900000348
:020AAA00000347
:020AAB00004AFF
:020AAC003F9970
:020AAD000054F3
:020AAE003F788F
:020AAF003E8F78
:020AB0003F36CF
:020AB1003FBC48
:020AB2003F758E
:020AB30000053C
:020AB4003F8180
:020AB5003F36CA
:020AB60000CC72
:020AB7003FAC52
:020AB8003FBB42
:020AB9003F7983
:020ABA003F708B
:020ABB003FD426
:020ABC003FE910
:020ABD003FF206
:020ABE00003CFA
:020ABF00002D08
:020AC0003F9362
:020AC10000949F
:020AC20000082A
:020AC300001120
:020AC4003EBF33
:020AC5000088A7
:020AC600012A03
:020AC7000064C9
:020AC8003F44A9
:020AC9003FDC10
:020ACA00001E0C
:020ACB003E9655
:020ACC000071B7
:020ACD003E9C4D
:020ACE000083A3
:020ACF003FF2F4
:020AD0003FECF9
:020AD1003F23C1
:020AD20000859D
:020AD3003FD70B
:020AD4003FD50C
:020AD5003FFFE1
:020AD60000A27C
:020AD7003FAA34
:020AD8003FF8E5
:020AD90000A576
:020ADA00000D0D
:020ADB0000A772
:020ADC000031E7
:020ADD003F12C6
:020ADE003F5285
:020ADF00000312
:020AE000010112
:020AE1003FC50F
:020AE2003F478C
:020AE3003FC80A
:020AE400002AE6
:020AE5003FC30D
:020AE60000828C
:020AE70000E726
:020AE8000023E9
:020AE9003F5775
:020AEA0000CD3D
:020AEB003FAB1F
:020AEC003F7257
:020AED003FF1D7
:020AEE000057AF
:020AEF000047BE
:020AF000012CD7
:020AF10000D132
:020AF2003FD1F2
:020AF3000053AE
:020AF4000032CE
:020AF5003F11AF
:020AF6000006F8
:020AF7003FCAF4
:020AF80000BD3F
:020AF9003FCFED
:020AFA0000B248
:020AFB00006495
:020AFC003FEECB
:020AFD0000F403
:020AFE003FF3C4
:020AFF000013E2
:020B0000000DE6
:020B010000B83A
:020B02000024CD
:020B0300000AE6
:020B0400008966
:020B05003FF5BA
:020B06000008E5
:020B07003FBEEF
:020B08000028C3
:020B09003F4566
:020B0A000015D4
:020B0B003FA603
:020B0C0000489F
:020B0D003F297E
:020B0E000026BF
:020B0F003FD0D5
:020B1000007172
:020B11003FF2B1
:020B12003FB1F1
:020B130001A43B
:020B14003F3967
:020B15003FC5DA
:020B16003FA4FA
:020B170000C715
:020B1800012EAC
:020B19003F8813
:020B1A000038A1
:020B1B003FF7A2
:020B1C00006B6C
:020B1D003FD6C1
:020B1E000028AD
:020B1F003FFF96
:020B20003FF99B
:020B21003FC6CD
:020B22003FF1A1
:020B23003FB4DD
:020B2400003897
:020B2500013796
:020B26000003CA
:020B27003E820C
:020B28003F9EEE
:020B29003FCAC1
:020B2A000000C9
:020B2B003F6128
:020B2C003F94F4
:020B2D000006C0
:020B2E000021A4
:020B2F00012D96
:020B30000008BB
:020B31003FAFD4
:020B320000D8E9
:020B3300005E62
:020B34003F7B05
:020B35003FF18E
:020B360000CAF3
:020B37003ED5A9
:020B3800000AB1
:020B39003FA5D6
:020B3A00003584
:020B3B003FD0A9
:020B3C00004176
:020B3D000008AE
:020B3E003F0373
:020B3F003FDE97
:020B400000565D
:020B41003FD2A1
:020B42003F056D
:020B43003FF879
:020B4400012A84
:020B450000A30B
:020B46003FC5A9
:020B47003FC8A5
:020B4800002982
:020B49003FD596
:020B4A00004267
:020B4B003F3C2D
:020B4C003FBBAD
:020B4D00001393
:020B4E003FF76F
:020B4F003FD392
:020B5000003073
:020B510000B4EE
:020B5200001190
:020B530000C0E0
:020B540000316E
:020B55003FF46B
:020B56003F8ED0
:020B570000A6F6
:020B58003FF26A
:020B59003FD982
:020B5A003F64F6
:020B5B003FF465
:020B5C00001C7B
:020B5D003F3423
:020B5E003FD086
:020B5F003FDE77
:020B6000007C17
:020B6100000092
:020B6200000091
:020B6300000090
:020B640000008F
:020B650000008E
:020B660000008D
:020B670000008C
:020B680000008B
:020B690000008A
:020B6A00000089
:020B6B00000088
:020B6C00000087
:020B6D00000086
:020B6E00000085
:020B6F00000084
:020B7000000083
:020B7100000082
:020B7200000081
:020B7300000080
:020B740000007F
:020B750000007E
:020B760000007D
:020B770000007C
:020B780000007B
:020B790000007A
:020B7A00000079
:020B7B00000078
:020B7C00000077
:020B7D00000076
:020B7E00000075
:020B7F00000074
:020B8000000073
:020B8100000072
:020B8200000071
:020B8300000070
:020B840000006F
:020B850000006E
:020B860000006D
:020B870000006C
:020B880000006B
:020B890000006A
:020B8A00000069
:020B8B00000068
:020B8C00000067
:020B8D00000066
:020B8E00000065
:020B8F00000064
:020B9000000063
:020B9100000062
:020B9200000061
:020B9300000060
:020B940000005F
:020B950000005E
:020B960000005D
:020B970000005C
:020B980000005B
:020B990000005A
:020B9A00000059
:020B9B00000058
:020B9C00000057
:020B9D00000056
:020B9E00000055
:020B9F00000054
:020BA000000053
:020BA100000052
:020BA200000051
:020BA300000050
:020BA40000004F
:020BA50000004E
:020BA60000004D
:020BA70000004C
:020BA80000004B
:020BA90000004A
:020BAA00000049
:020BAB00000048
:020BAC00000047
:020BAD00000046
:020BAE00000045
:020BAF00000044
:020BB000000043
:020BB100000042
:020BB200000041
:020BB300000040
:020BB40000003F
:020BB50000003E
:020BB60000003D
:020BB70000003C
:020BB80000003B
:020BB90000003A
:020BBA00000039
:020BBB00000038
:020BBC00000037
:020BBD00000036
:020BBE00000035
:020BBF00000034
:020BC000000033
:020BC100000032
:020BC200000031
:020BC300000030
:020BC40000002F
:020BC50000002E
:020BC60000002D
:020BC70000002C
:020BC80000002B
:020BC90000002A
:020BCA00000029
:020BCB00000028
:020BCC00000027
:020BCD00000026
:020BCE00000025
:020BCF00000024
:020BD000000023
:020BD100000022
:020BD200000021
:020BD300000020
:020BD40000001F
:020BD50000001E
:020BD60000001D
:020BD70000001C
:020BD80000001B
:020BD90000001A
:020BDA00000019
:020BDB00000018
:020BDC00000017
:020BDD00000016
:020BDE00000015
:020BDF00000014
:020BE000000013
:020BE100000012
:020BE200000011
:020BE300000010
:020BE40000000F
:020BE50000000E
:020BE60000000D
:020BE70000000C
:020BE80000000B
:020BE90000000A
:020BEA00000009
:020BEB00000008
:020BEC00000007
:020BED00000006
:020BEE00000005
:020BEF00000004
:020BF000000003
:020BF100000002
:020BF200000001
:020BF300000000
:020BF4000000FF
:020BF5000000FE
:020BF6000000FD
:020BF7000000FC
:020BF8000000FB
:020BF9000000FA
:020BFA000000F9
:020BFB000000F8
:020BFC000000F7
:020BFD000000F6
:020BFE000000F5
:020BFF000000F4
:020C00000000F2
:020C01000000F1
:020C02000000F0
:020C03000000EF
:020C04000000EE
:020C05000000ED
:020C06000000EC
:020C07000000EB
:020C08000000EA
:020C09000000E9
:020C0A000000E8
:020C0B000000E7
:020C0C000000E6
:020C0D000000E5
:020C0E000000E4
:020C0F000000E3
:020C10000000E2
:020C11000000E1
:020C12000000E0
:020C13000000DF
:020C14000000DE
:020C15000000DD
:020C16000000DC
:020C17000000DB
:020C18000000DA
:020C19000000D9
:020C1A000000D8
:020C1B000000D7
:020C1C000000D6
:020C1D000000D5
:020C1E000000D4
:020C1F000000D3
:020C20000000D2
:020C21000000D1
:020C22000000D0
:020C23000000CF
:020C24000000CE
:020C25000000CD
:020C26000000CC
:020C27000000CB
:020C28000000CA
:020C29000000C9
:020C2A000000C8
:020C2B000000C7
:020C2C000000C6
:020C2D000000C5
:020C2E000000C4
:020C2F000000C3
:020C30000000C2
:020C31000000C1
:020C32000000C0
:020C33000000BF
:020C34000000BE
:020C35000000BD
:020C36000000BC
:020C37000000BB
:020C38000000BA
:020C39000000B9
:020C3A000000B8
:020C3B000000B7
:020C3C000000B6
:020C3D000000B5
:020C3E000000B4
:020C3F000000B3
:020C40000000B2
:020C41000000B1
:020C42000000B0
:020C43000000AF
:020C44000000AE
:020C45000000AD
:020C46000000AC
:020C47000000AB
:020C48000000AA
:020C49000000A9
:020C4A000000A8
:020C4B000000A7
:020C4C000000A6
:020C4D000000A5
:020C4E000000A4
:020C4F000000A3
:020C50000000A2
:020C51000000A1
:020C52000000A0
:020C530000009F
:020C540000009E
:020C550000009D
:020C560000009C
:020C570000009B
:020C580000009A
:020C5900000099
:020C5A00000098
:020C5B00000097
:020C5C00000096
:020C5D00000095
:020C5E00000094
:020C5F00000093
:020C6000000092
:020C6100000091
:020C6200000090
:020C630000008F
:020C640000008E
:020C650000008D
:020C660000008C
:020C670000008B
:020C680000008A
:020C6900000089
:020C6A00000088
:020C6B00000087
:020C6C00000086
:020C6D00000085
:020C6E00000084
:020C6F00000083
:020C7000000082
:020C7100000081
:020C7200000080
:020C730000007F
:020C740000007E
:020C750000007D
:020C760000007C
:020C770000007B
:020C780000007A
:020C7900000079
:020C7A00000078
:020C7B00000077
:020C7C00000076
:020C7D00000075
:020C7E00000074
:020C7F00000073
:020C8000000072
:020C8100000071
:020C8200000070
:020C830000006F
:020C840000006E
:020C850000006D
:020C860000006C
:020C870000006B
:020C880000006A
:020C8900000069
:020C8A00000068
:020C8B00000067
:020C8C00000066
:020C8D00000065
:020C8E00000064
:020C8F00000063
:020C9000000062
:020C9100000061
:020C9200000060
:020C930000005F
:020C940000005E
:020C950000005D
:020C960000005C
:020C970000005B
:020C980000005A
:020C9900000059
:020C9A00000058
:020C9B00000057
:020C9C00000056
:020C9D00000055
:020C9E00000054
:020C9F00000053
:020CA000000052
:020CA100000051
:020CA200000050
:020CA30000004F
:020CA40000004E
:020CA50000004D
:020CA60000004C
:020CA70000004B
:020CA80000004A
:020CA900000049
:020CAA00000048
:020CAB00000047
:020CAC00000046
:020CAD00000045
:020CAE00000044
:020CAF00000043
:020CB000000042
:020CB100000041
:020CB200000040
:020CB30000003F
:020CB40000003E
:020CB50000003D
:020CB60000003C
:020CB70000003B
:020CB80000003A
:020CB900000039
:020CBA00000038
:020CBB00000037
:020CBC00000036
:020CBD00000035
:020CBE00000034
:020CBF00000033
:020CC000000032
:020CC100000031
:020CC200000030
:020CC30000002F
:020CC40000002E
:020CC50000002D
:020CC60000002C
:020CC70000002B
:020CC80000002A
:020CC900000029
:020CCA00000028
:020CCB00000027
:020CCC00000026
:020CCD00000025
:020CCE00000024
:020CCF00000023
:020CD000000022
:020CD100000021
:020CD200000020
:020CD30000001F
:020CD40000001E
:020CD50000001D
:020CD60000001C
:020CD70000001B
:020CD80000001A
:020CD900000019
:020CDA00000018
:020CDB00000017
:020CDC00000016
:020CDD00000015
:020CDE00000014
:020CDF00000013
:020CE000000012
:020CE100000011
:020CE200000010
:020CE30000000F
:020CE40000000E
:020CE50000000D
:020CE60000000C
:020CE70000000B
:020CE80000000A
:020CE900000009
:020CEA00000008
:020CEB00000007
:020CEC00000006
:020CED00000005
:020CEE00000004
:020CEF00000003
:020CF000000002
:020CF100000001
:020CF200000000
:020CF3000000FF
:020CF4000000FE
:020CF5000000FD
:020CF6000000FC
:020CF7000000FB
:020CF8000000FA
:020CF9000000F9
:020CFA000000F8
:020CFB000000F7
:020CFC000000F6
:020CFD000000F5
:020CFE000000F4
:020CFF000000F3
:020D00000000F1
:020D01000000F0
:020D02000000EF
:020D03000000EE
:020D04000000ED
:020D05000000EC
:020D06000000EB
:020D07000000EA
:020D08000000E9
:020D09000000E8
:020D0A000000E7
:020D0B000000E6
:020D0C000000E5
:020D0D000000E4
:020D0E000000E3
:020D0F000000E2
:020D10000000E1
:020D11000000E0
:020D12000000DF
:020D13000000DE
:020D14000000DD
:020D15000000DC
:020D16000000DB
:020D17000000DA
:020D18000000D9
:020D19000000D8
:020D1A000000D7
:020D1B000000D6
:020D1C000000D5
:020D1D000000D4
:020D1E000000D3
:020D1F000000D2
:020D20000000D1
:020D21000000D0
:020D22000000CF
:020D23000000CE
:020D24000000CD
:020D25000000CC
:020D26000000CB
:020D27000000CA
:020D28000000C9
:020D29000000C8
:020D2A000000C7
:020D2B000000C6
:020D2C000000C5
:020D2D000000C4
:020D2E000000C3
:020D2F000000C2
:020D30000000C1
:020D31000000C0
:020D32000000BF
:020D33000000BE
:020D34000000BD
:020D35000000BC
:020D36000000BB
:020D37000000BA
:020D38000000B9
:020D39000000B8
:020D3A000000B7
:020D3B000000B6
:020D3C000000B5
:020D3D000000B4
:020D3E000000B3
:020D3F000000B2
:020D40000000B1
:020D41000000B0
:020D42000000AF
:020D43000000AE
:020D44000000AD
:020D45000000AC
:020D46000000AB
:020D47000000AA
:020D48000000A9
:020D49000000A8
:020D4A000000A7
:020D4B000000A6
:020D4C000000A5
:020D4D000000A4
:020D4E000000A3
:020D4F000000A2
:020D50000000A1
:020D51000000A0
:020D520000009F
:020D530000009E
:020D540000009D
:020D550000009C
:020D560000009B
:020D570000009A
:020D5800000099
:020D5900000098
:020D5A00000097
:020D5B00000096
:020D5C00000095
:020D5D00000094
:020D5E00000093
:020D5F00000092
:020D6000000091
:020D6100000090
:020D620000008F
:020D630000008E
:020D640000008D
:020D650000008C
:020D660000008B
:020D670000008A
:020D6800000089
:020D6900000088
:020D6A00000087
:020D6B00000086
:020D6C00000085
:020D6D00000084
:020D6E00000083
:020D6F00000082
:020D7000000081
:020D7100000080
:020D720000007F
:020D730000007E
:020D740000007D
:020D750000007C
:020D760000007B
:020D770000007A
:020D7800000079
:020D7900000078
:020D7A00000077
:020D7B00000076
:020D7C00000075
:020D7D00000074
:020D7E00000073
:020D7F00000072
:020D8000000071
:020D8100000070
:020D820000006F
:020D830000006E
:020D840000006D
:020D850000006C
:020D860000006B
:020D870000006A
:020D8800000069
:020D8900000068
:020D8A00000067
:020D8B00000066
:020D8C00000065
:020D8D00000064
:020D8E00000063
:020D8F00000062
:020D9000000061
:020D9100000060
:020D920000005F
:020D930000005E
:020D940000005D
:020D950000005C
:020D960000005B
:020D970000005A
:020D9800000059
:020D9900000058
:020D9A00000057
:020D9B00000056
:020D9C00000055
:020D9D00000054
:020D9E00000053
:020D9F00000052
:020DA000000051
:020DA100000050
:020DA20000004F
:020DA30000004E
:020DA40000004D
:020DA50000004C
:020DA60000004B
:020DA70000004A
:020DA800000049
:020DA900000048
:020DAA00000047
:020DAB00000046
:020DAC00000045
:020DAD00000044
:020DAE00000043
:020DAF00000042
:020DB000000041
:020DB100000040
:020DB20000003F
:020DB30000003E
:020DB40000003D
:020DB50000003C
:020DB60000003B
:020DB70000003A
:020DB800000039
:020DB900000038
:020DBA00000037
:020DBB00000036
:020DBC00000035
:020DBD00000034
:020DBE00000033
:020DBF00000032
:020DC000000031
:020DC100000030
:020DC20000002F
:020DC30000002E
:020DC40000002D
:020DC50000002C
:020DC60000002B
:020DC70000002A
:020DC800000029
:020DC900000028
:020DCA00000027
:020DCB00000026
:020DCC00000025
:020DCD00000024
:020DCE00000023
:020DCF00000022
:020DD000000021
:020DD100000020
:020DD20000001F
:020DD30000001E
:020DD40000001D
:020DD50000001C
:020DD60000001B
:020DD70000001A
:020DD800000019
:020DD900000018
:020DDA00000017
:020DDB00000016
:020DDC00000015
:020DDD00000014
:020DDE00000013
:020DDF00000012
:020DE000000011
:020DE100000010
:020DE20000000F
:020DE30000000E
:020DE40000000D
:020DE50000000C
:020DE60000000B
:020DE70000000A
:020DE800000009
:020DE900000008
:020DEA00000007
:020DEB00000006
:020DEC00000005
:020DED00000004
:020DEE00000003
:020DEF00000002
:020DF000000001
:020DF100000000
:020DF2000000FF
:020DF3000000FE
:020DF4000000FD
:020DF5000000FC
:020DF6000000FB
:020DF7000000FA
:020DF8000000F9
:020DF9000000F8
:020DFA000000F7
:020DFB000000F6
:020DFC000000F5
:020DFD000000F4
:020DFE000000F3
:020DFF000000F2
:020E00000000F0
:020E01000000EF
:020E02000000EE
:020E03000000ED
:020E04000000EC
:020E05000000EB
:020E06000000EA
:020E07000000E9
:020E08000000E8
:020E09000000E7
:020E0A000000E6
:020E0B000000E5
:020E0C000000E4
:020E0D000000E3
:020E0E000000E2
:020E0F000000E1
:020E10000000E0
:020E11000000DF
:020E12000000DE
:020E13000000DD
:020E14000000DC
:020E15000000DB
:020E16000000DA
:020E17000000D9
:020E18000000D8
:020E19000000D7
:020E1A000000D6
:020E1B000000D5
:020E1C000000D4
:020E1D000000D3
:020E1E000000D2
:020E1F000000D1
:020E20000000D0
:020E21000000CF
:020E22000000CE
:020E23000000CD
:020E24000000CC
:020E25000000CB
:020E26000000CA
:020E27000000C9
:020E28000000C8
:020E29000000C7
:020E2A000000C6
:020E2B000000C5
:020E2C000000C4
:020E2D000000C3
:020E2E000000C2
:020E2F000000C1
:020E30000000C0
:020E31000000BF
:020E32000000BE
:020E33000000BD
:020E34000000BC
:020E35000000BB
:020E36000000BA
:020E37000000B9
:020E38000000B8
:020E39000000B7
:020E3A000000B6
:020E3B000000B5
:020E3C000000B4
:020E3D000000B3
:020E3E000000B2
:020E3F000000B1
:020E40000000B0
:020E41000000AF
:020E42000000AE
:020E43000000AD
:020E44000000AC
:020E45000000AB
:020E46000000AA
:020E47000000A9
:020E48000000A8
:020E49000000A7
:020E4A000000A6
:020E4B000000A5
:020E4C000000A4
:020E4D000000A3
:020E4E000000A2
:020E4F000000A1
:020E50000000A0
:020E510000009F
:020E520000009E
:020E530000009D
:020E540000009C
:020E550000009B
:020E560000009A
:020E5700000099
:020E5800000098
:020E5900000097
:020E5A00000096
:020E5B00000095
:020E5C00000094
:020E5D00000093
:020E5E00000092
:020E5F00000091
:020E6000000090
:020E610000008F
:020E620000008E
:020E630000008D
:020E640000008C
:020E650000008B
:020E660000008A
:020E6700000089
:020E6800000088
:020E6900000087
:020E6A00000086
:020E6B00000085
:020E6C00000084
:020E6D00000083
:020E6E00000082
:020E6F00000081
:020E7000000080
:020E710000007F
:020E720000007E
:020E730000007D
:020E740000007C
:020E750000007B
:020E760000007A
:020E7700000079
:020E7800000078
:020E7900000077
:020E7A00000076
:020E7B00000075
:020E7C00000074
:020E7D00000073
:020E7E00000072
:020E7F00000071
:020E8000000070
:020E810000006F
:020E820000006E
:020E830000006D
:020E840000006C
:020E850000006B
:020E860000006A
:020E8700000069
:020E8800000068
:020E8900000067
:020E8A00000066
:020E8B00000065
:020E8C00000064
:020E8D00000063
:020E8E00000062
:020E8F00000061
:020E9000000060
:020E910000005F
:020E920000005E
:020E930000005D
:020E940000005C
:020E950000005B
:020E960000005A
:020E9700000059
:020E9800000058
:020E9900000057
:020E9A00000056
:020E9B00000055
:020E9C00000054
:020E9D00000053
:020E9E00000052
:020E9F00000051
:020EA000000050
:020EA10000004F
:020EA20000004E
:020EA30000004D
:020EA40000004C
:020EA50000004B
:020EA60000004A
:020EA700000049
:020EA800000048
:020EA900000047
:020EAA00000046
:020EAB00000045
:020EAC00000044
:020EAD00000043
:020EAE00000042
:020EAF00000041
:020EB000000040
:020EB10000003F
:020EB20000003E
:020EB30000003D
:020EB40000003C
:020EB50000003B
:020EB60000003A
:020EB700000039
:020EB800000038
:020EB900000037
:020EBA00000036
:020EBB00000035
:020EBC00000034
:020EBD00000033
:020EBE00000032
:020EBF00000031
:020EC000000030
:020EC10000002F
:020EC20000002E
:020EC30000002D
:020EC40000002C
:020EC50000002B
:020EC60000002A
:020EC700000029
:020EC800000028
:020EC900000027
:020ECA00000026
:020ECB00000025
:020ECC00000024
:020ECD00000023
:020ECE00000022
:020ECF00000021
:020ED000000020
:020ED10000001F
:020ED20000001E
:020ED30000001D
:020ED40000001C
:020ED50000001B
:020ED60000001A
:020ED700000019
:020ED800000018
:020ED900000017
:020EDA00000016
:020EDB00000015
:020EDC00000014
:020EDD00000013
:020EDE00000012
:020EDF00000011
:020EE000000010
:020EE10000000F
:020EE20000000E
:020EE30000000D
:020EE40000000C
:020EE50000000B
:020EE60000000A
:020EE700000009
:020EE800000008
:020EE900000007
:020EEA00000006
:020EEB00000005
:020EEC00000004
:020EED00000003
:020EEE00000002
:020EEF00000001
:020EF000000000
:020EF1000000FF
:020EF2000000FE
:020EF3000000FD
:020EF4000000FC
:020EF5000000FB
:020EF6000000FA
:020EF7000000F9
:020EF8000000F8
:020EF9000000F7
:020EFA000000F6
:020EFB000000F5
:020EFC000000F4
:020EFD000000F3
:020EFE000000F2
:020EFF000000F1
:020F00000000EF
:020F01000000EE
:020F02000000ED
:020F03000000EC
:020F04000000EB
:020F05000000EA
:020F06000000E9
:020F07000000E8
:020F08000000E7
:020F09000000E6
:020F0A000000E5
:020F0B000000E4
:020F0C000000E3
:020F0D000000E2
:020F0E000000E1
:020F0F000000E0
:020F10000000DF
:020F11000000DE
:020F12000000DD
:020F13000000DC
:020F14000000DB
:020F15000000DA
:020F16000000D9
:020F17000000D8
:020F18000000D7
:020F19000000D6
:020F1A000000D5
:020F1B000000D4
:020F1C000000D3
:020F1D000000D2
:020F1E000000D1
:020F1F000000D0
:020F20000000CF
:020F21000000CE
:020F22000000CD
:020F23000000CC
:020F24000000CB
:020F25000000CA
:020F26000000C9
:020F27000000C8
:020F28000000C7
:020F29000000C6
:020F2A000000C5
:020F2B000000C4
:020F2C000000C3
:020F2D000000C2
:020F2E000000C1
:020F2F000000C0
:020F30000000BF
:020F31000000BE
:020F32000000BD
:020F33000000BC
:020F34000000BB
:020F35000000BA
:020F36000000B9
:020F37000000B8
:020F38000000B7
:020F39000000B6
:020F3A000000B5
:020F3B000000B4
:020F3C000000B3
:020F3D000000B2
:020F3E000000B1
:020F3F000000B0
:020F40000000AF
:020F41000000AE
:020F42000000AD
:020F43000000AC
:020F44000000AB
:020F45000000AA
:020F46000000A9
:020F47000000A8
:020F48000000A7
:020F49000000A6
:020F4A000000A5
:020F4B000000A4
:020F4C000000A3
:020F4D000000A2
:020F4E000000A1
:020F4F000000A0
:020F500000009F
:020F510000009E
:020F520000009D
:020F530000009C
:020F540000009B
:020F550000009A
:020F5600000099
:020F5700000098
:020F5800000097
:020F5900000096
:020F5A00000095
:020F5B00000094
:020F5C00000093
:020F5D00000092
:020F5E00000091
:020F5F00000090
:020F600000008F
:020F610000008E
:020F620000008D
:020F630000008C
:020F640000008B
:020F650000008A
:020F6600000089
:020F6700000088
:020F6800000087
:020F6900000086
:020F6A00000085
:020F6B00000084
:020F6C00000083
:020F6D00000082
:020F6E00000081
:020F6F00000080
:020F700000007F
:020F710000007E
:020F720000007D
:020F730000007C
:020F740000007B
:020F750000007A
:020F7600000079
:020F7700000078
:020F7800000077
:020F7900000076
:020F7A00000075
:020F7B00000074
:020F7C00000073
:020F7D00000072
:020F7E00000071
:020F7F00000070
:020F800000006F
:020F810000006E
:020F820000006D
:020F830000006C
:020F840000006B
:020F850000006A
:020F8600000069
:020F8700000068
:020F8800000067
:020F8900000066
:020F8A00000065
:020F8B00000064
:020F8C00000063
:020F8D00000062
:020F8E00000061
:020F8F00000060
:020F900000005F
:020F910000005E
:020F920000005D
:020F930000005C
:020F940000005B
:020F950000005A
:020F9600000059
:020F9700000058
:020F9800000057
:020F9900000056
:020F9A00000055
:020F9B00000054
:020F9C00000053
:020F9D00000052
:020F9E00000051
:020F9F00000050
