:020000003DC9F8
:020001000153A9
:020002000110EB
:02000300012DCD
:020004000142B7
:020005003E219A
:02000600007088
:02000700007186
:0200080000DA1C
:020009003E6E49
:02000A00012EC5
:02000B0000B340
:02000C0001BA37
:02000D003DD2E2
:02000E0000747C
:02000F00008966
:0200100000EE00
:020011003F5757
:020012003FB4F9
:02001300015B8F
:020014003FCEDD
:020015003F7931
:020016000124C3
:0200170000C522
:020018003E7D2B
:0200190001776D
:02001A000100E3
:02001B003E683D
:02001C0000D40E
:02001D00006C75
:02001E00010DD2
:02001F003EA8F9
:0200200001736A
:020021000136A6
:020022003F8B12
:020023000027B4
:020024003E702C
:02002500003B9E
:02002600014790
:020027003FB3E5
:020028003FF3A4
:0200290001894B
:02002A0000EFE5
:02002B0000F6DD
:02002C003D0B8A
:02002D003F9002
:02002E0000666A
:02002F003D5B37
:02003000004886
:02003100003B92
:020032000113B8
:020033000019B2
:020034003EEE9E
:0200350000C405
:02003600016166
:02003700008443
:02003800009531
:02003900012B99
:02003A0000F4D0
:02003B003FDDA7
:02003C0000467C
:02003D00003C85
:02003E003EA9D9
:02003F003F1A66
:020040003E5E22
:02004100002E8F
:020042003F9FDE
:02004300003F7C
:020044003FB5C6
:0200450000A118
:02004600000DAB
:02004700006354
:0200480000199D
:020049003EBEB9
:02004A003D9FD8
:02004B003FBABA
:02004C003EDD97
:02004D003EBCB7
:02004E0000456B
:02004F0000B5FA
:020050000009A5
:020051003FF47A
:020052003FA7C6
:02005300003675
:02005400011594
:02005500016741
:0200560000BDEB
:02005700006047
:02005800014362
:02005900007530
:02005A003F0B5A
:02005B00000B98
:02005C00008A18
:02005D003E83E0
:02005E003F7AE7
:02005F003E67FA
:02006000002777
:020061003F4816
:0200620000118B
:0200630000AEED
:02006400001387
:020065003FC991
:02006600014F48
:0200670001385E
:0200680000D9BD
:02006900004C49
:02006A003FADA8
:02006B003F2A2A
:02006C003F55FE
:02006D0000236E
:02006E0000137D
:02006F0000315E
:0200700000117D
:0200710000C7C6
:02007200001F6D
:02007300000388
:02007400008703
:02007500006425
:020076003DE269
:0200770000FC8B
:0200780000186E
:020079003FDB6B
:02007A003F6CD9
:02007B003FD56F
:02007C003F5DE6
:02007D00004041
:02007E003FBB86
:02007F00003C43
:020080003EBD83
:02008100004D30
:020082000087F5
:02008300003D3E
:020084000084F6
:020085003FFD3D
:020086003FBE7B
:020087003F69CF
:02008800010B6A
:02008900008DE8
:02008A0000A3D1
:02008B000088EB
:02008C00005C16
:02008D00005C15
:02008E003F80B1
:02008F0000DA95
:02009000012449
:020091003FD25C
:020092003FB07D
:02009300010B5F
:02009400003238
:020095003EAC7F
:020096003F4DDC
:0200970000392E
:020098003F7DAA
:02009900009EC7
:02009A000079EB
:02009B003F51D3
:02009C00001D45
:02009D003FF230
:02009E0000D38D
:02009F003FD34D
:0200A0003E74AC
:0200A100003D20
:0200A2003FAF6E
:0200A3003F2DEF
:0200A400000D4D
:0200A500002138
:0200A60000094F
:0200A700007ED9
:0200A8003F6EA9
:0200A90000A3B2
:0200AA00001044
:0200AB003F0113
:0200AC00000949
:0200AD003EF61D
:0200AE003F769B
:0200AF000071DE
:0200B00000004E
:0200B1003F5BB3
:0200B20000CD7F
:0200B300003615
:0200B4003EF21A
:0200B5003F25E5
:0200B600001038
:0200B70000A2A5
:0200B8000090B6
:0200B9003E7F88
:0200BA000060E4
:0200BB00001F24
:0200BC0000AD95
:0200BD0000F34E
:0200BE00007DC3
:0200BF00007FC0
:0200C0003EC040
:0200C1000098A5
:0200C200004DEF
:0200C300003902
:0200C4003FE714
:0200C500002F0A
:0200C6003F8970
:0200C7003FBD3B
:0200C800006ACC
:0200C90000979E
:0200CA003F8B6A
:0200CB0000240F
:0200CC003F07EC
:0200CD00002E03
:0200CE003EAD45
:0200CF003DE80A
:0200D0000083AB
:0200D1003EB837
:0200D2003F8A63
:0200D300000B20
:0200D4000058D2
:0200D500006DBC
:0200D600002AFE
:0200D7003F8860
:0200D8003E5593
:0200D90000091C
:0200DA00003BE9
:0200DB0000190A
:0200DC003FD013
:0200DD003F9F43
:0200DE000032EE
:0200DF0000819E
:0200E000003BE3
:0200E1003FAF2F
:0200E2003FFDE0
:0200E300010A10
:0200E4003F2BB0
:0200E5000074A5
:0200E6003E805A
:0200E7003F9E3A
:0200E8003FE5F2
:0200E9003E5285
:0200EA00003DD7
:0200EB0000779C
:0200EC00002DE5
:0200ED000012FF
:0200EE003E755D
:0200EF000060AF
:0200F0003EC30D
:0200F100000D00
:0200F200003AD2
:0200F300013AD0
:0200F4003FF5D6
:0200F5003FC901
:0200F6003E1AB0
:0200F700000106
:0200F8003FEBDC
:0200F9000010F5
:0200FA003F3D88
:0200FB0000D231
:0200FC00004BB7
:0200FD0000946D
:0200FE0000E51B
:0200FF0000817E
:020100003F4C72
:0201010000B547
:020102000044B7
:020103003F9E1D
:020104000042B7
:020105003F6A4F
:02010600002BCC
:020107003F2097
:02010800003CB9
:020109003F7045
:02010A00006291
:02010B003E9D17
:02010C003EEFC4
:02010D000032BE
:02010E00006F80
:02010F003F8E21
:020110000039B4
:020111003FFFAE
:020112003F7B31
:020113003E7E2E
:02011400002FBA
:020115000000E8
:020116003DC8E2
:02011700000FD7
:020118003ED1D6
:02011900001FC5
:02011A0000B52E
:02011B003EF3B1
:02011C000031B0
:02011D003FC0E1
:02011E003FCAD6
:02011F003FB9E6
:02012000003E9F
:02012100000ECE
:020122000032A9
:02012300010DCC
:020124003E4853
:02012500000FC9
:020126000007D0
:020127003F8512
:020128000029AC
:02012900000ACA
:02012A00005281
:02012B003FBDD6
:02012C000026AB
:02012D00000AC6
:02012E000027A8
:02012F003F94FB
:02013000002F9E
:020131000000CC
:02013200004F7C
:020133003F5A31
:020134000027A2
:02013500018740
:0201360000A621
:020137000009BD
:020138003FE79F
:020139003FA9DC
:02013A003FFC88
:02013B003FF98A
:02013C00002A97
:02013D000000C0
:02013E003FD3AD
:02013F003EB9C7
:020140003E7C03
:02014100005369
:02014200002695
:02014300011C9D
:020144003F6317
:02014500006553
:0201460000496E
:02014700007343
:020148003F5224
:02014900000FA5
:02014A003E462F
:02014B00001F93
:02014C003F3141
:02014D0000AC04
:02014E0000D7D8
:02014F003F87E8
:0201500000F2BB
:020151003FB0BD
:02015200002D7E
:02015300003F6B
:020154003F93D7
:020155003E6703
:02015600006047
:02015700003F67
:020158003E8FD8
:020159003EA4C2
:02015A0000455E
:02015B003F3033
:02015C003F4121
:02015D0000CFD1
:02015E0000DCC3
:02015F003F035C
:02016000002776
:020161003F4C11
:020162003F99C3
:02016300001288
:020164003F4812
:02016500004355
:02016600002572
:020167003EED6B
:0201680001375D
:02016900000391
:02016A003FD97B
:02016B0000B4DE
:02016C0000553C
:02016D0000137D
:02016E00000C83
:02016F003FC28D
:02017000001F6E
:020171003FFA53
:020172003FE26A
:020173003FBC8F
:020174003F5BEF
:020175003EC387
:02017600010482
:020177003FA4A3
:02017800003451
:020179003FFB4A
:02017A003FB58F
:02017B0001156C
:02017C00013749
:02017D003EF052
:02017E00002B54
:02017F000084FA
:02018000003F3E
:020181003DB08F
:020182003FAD8F
:02018300001268
:020184003E47F4
:02018500010473
:02018600002651
:020187003FB681
:020188003FAA8C
:020189003DA88F
:02018A0000274C
:02018B003FF93A
:02018C00003C35
:02018D0000EC84
:02018E00004F20
:02018F003D4BE6
:020190003FF836
:02019100003A32
:020192003EF538
:0201930000C4A6
:02019400004722
:020195003FBF6A
:0201960001184E
:020197000087DF
:020198000067FE
:0201990000BDA7
:02019A0000BCA7
:02019B00006101
:02019C00005D04
:02019D0000CB95
:02019E003FAC74
:02019F003F0916
:0201A0003EF12E
:0201A10000223A
:0201A200009AC1
:0201A3003FCA51
:0201A4003E8992
:0201A500003424
:0201A600001A3D
:0201A7003F9A7D
:0201A8003E65B2
:0201A9003FDE37
:0201AA00000251
:0201AB00004210
:0201AC003F49C9
:0201AD003E5BB7
:0201AE00000649
:0201AF003FE629
:0201B0003F7797
:0201B100003319
:0201B2003EFE0F
:0201B3003FBA51
:0201B4003F7892
:0201B500003513
:0201B6003FF711
:0201B7003F4ABD
:0201B800000441
:0201B9003FF015
:0201BA0000CB78
:0201BB003F51B2
:0201BC003FC939
:0201BD00013F00
:0201BE0000251A
:0201BF003FFD02
:0201C000011428
:0201C100012318
:0201C2003FFFFD
:0201C300003DFD
:0201C4003FCC2E
:0201C5003EC832
:0201C600000D2A
:0201C700004AEC
:0201C8003F55A1
:0201C900000430
:0201CA0000062D
:0201CB0000072B
:0201CC0000979A
:0201CD000043ED
:0201CE003FAB45
:0201CF00002806
:0201D0003FFAF4
:0201D1003FF5F8
:0201D2003F8E5E
:0201D300002406
:0201D4003F9F4B
:0201D500001018
:0201D60000CB5C
:0201D700001D09
:0201D8003FFFE7
:0201D9000068BC
:0201DA003F9E46
:0201DB0000C45E
:0201DC003FC71B
:0201DD003E8C56
:0201DE000042DD
:0201DF00007CA2
:0201E0003FC816
:0201E1000025F7
:0201E2003FCD0F
:0201E3000045D5
:0201E4003FD00A
:0201E5000028F0
:0201E6003E5D7C
:0201E700003DD9
:0201E8003FFFD7
:0201E9003F8D48
:0201EA000070A3
:0201EB000040D2
:0201EC0000060B
:0201ED00000010
:0201EE00018589
:0201EF003FC906
:0201F000000508
:0201F10000A468
:0201F200009378
:0201F3000150B9
:0201F400004ABF
:0201F500008880
:0201F6003F8E3A
:0201F7003FBA0D
:0201F8000034D1
:0201F9000011F3
:0201FA003F7B49
:0201FB00000BF7
:0201FC00002FD2
:0201FD003F5071
:0201FE003F2997
:0201FF003EA31D
:020200000042BA
:020201000010EB
:020202003FFCBF
:020203003FAD0D
:020204000033C5
:020205000039BE
:020206003EEECA
:020207000009EC
:020208003F496C
:020209003F783C
:02020A0000F9F9
:02020B003FC4EE
:02020C0000757B
:02020D003D565C
:02020E000006E8
:02020F003DD5DB
:0202100000BF2D
:020211000002E9
:0202120000FEEC
:020213003FC1E9
:020214003F6445
:020215000007E0
:020216003FDEC9
:020217003F7B2B
:020218000026BE
:020219000000E3
:02021A003F6340
:02021B003FCBD7
:02021C00007A66
:02021D00001CC3
:02021E003E811F
:02021F0000D00D
:020220003FEFAE
:02022100000CCF
:020222003FFF9C
:020223003FD1C9
:020224000018C0
:020225003FBBDD
:020226000028AE
:020227003FC4D2
:020228000032A2
:020229000005CE
:02022A003FFC97
:02022B003E444F
:02022C003FF29F
:02022D003F3B55
:02022E0000AB23
:02022F00004F7E
:0202300000418B
:02023100006962
:020232000004C6
:020233003FCBBF
:02023400000ABE
:02023500002B9C
:0202360000D1F5
:020237000006BF
:020238003FA9DC
:020239000000C3
:02023A00004082
:02023B003E92F1
:02023C0000556B
:02023D0000219E
:02023E003FB1CE
:02023F0000B508
:0202400000318B
:020241003F1D5F
:020242003FBAC1
:020243000006B3
:020244003FD4A5
:020245003FCDAB
:02024600001D99
:020247003F8CEA
:02024800006450
:020249003FCDA7
:02024A0000347E
:02024B003EFB78
:02024C003FE988
:02024D003E135E
:02024E003FEF80
:02024F00002F7E
:02025000003874
:020251003FD19B
:02025200005F4B
:020253003FBCAE
:02025400009315
:020255000102A4
:02025600009016
:02025700004F56
:020258003EE284
:0202590000544F
:02025A0000861C
:02025B003FF86A
:02025C00001E82
:02025D0000356A
:02025E003FB8A7
:02025F003F4D11
:0202600000BBE1
:02026100002774
:020262003FA9B2
:020263003FDF7B
:020264003F0B4E
:020265003F89CF
:020266003F7ADD
:0202670000375E
:02026800001084
:0202690000375C
:02026A00000C86
:02026B00002C65
:02026C003FC889
:02026D00002E61
:02026E00000E80
:02026F00008607
:02027000008FFD
:020271003F4DFF
:02027200000B7F
:02027300004247
:020274000094F4
:02027500003255
:02027600003650
:0202770000C5C0
:020278003FC184
:020279003FF74D
:02027A00011A67
:02027B0000B8C9
:02027C00000B75
:02027D003FA0A0
:02027E00011E5F
:02027F0000314C
:020280003ED767
:02028100002A51
:020282003FFD3E
:020283003FEB4F
:020284000098E0
:02028500002255
:020286003FF83F
:02028700000471
:020288000088EC
:0202890000294A
:02028A003F40F3
:02028B003F59D9
:02028C003EC66C
:02028D00006E01
:02028E003ECF61
:02028F00002449
:02029000008AE2
:020291000090DB
:020292003F35F6
:02029300017BED
:020294003FF930
:0202950000085F
:02029600004C1A
:020297003F9F87
:020298003F79AC
:02029900021A47
:02029A003FF62D
:02029B00005B06
:02029C003FD34E
:02029D003EB46D
:02029E0000233B
:02029F000064F9
:0202A0003F48D5
:0202A10000104B
:0202A2003FD645
:0202A3003FD644
:0202A40000BB9D
:0202A500003423
:0202A6003FB562
:0202A7000067EE
:0202A8003FD441
:0202A90000B2A1
:0202AA00000052
:0202AB000089C8
:0202AC003F41D0
:0202AD000055FA
:0202AE003FF718
:0202AF00000449
:0202B00000BA92
:0202B1003F8389
:0202B20000C585
:0202B300001138
:0202B4003FD138
:0202B5003E66A3
:0202B600013015
:0202B7000064E1
:0202B8003E64A2
:0202B900008AB9
:0202BA003FAF54
:0202BB003EF90A
:0202BC003F36CB
:0202BD003F2AD6
:0202BE003F609F
:0202BF000192AA
:0202C0000062DA
:0202C1000086B5
:0202C2003FB843
:0202C3003FB248
:0202C4003F21D8
:0202C5003FCD2B
:0202C600001422
:0202C7000091A4
:0202C8000072C2
:0202C90000AD86
:0202CA00003101
:0202CB003F4AA8
:0202CC00001D13
:0202CD000033FC
:0202CE00005DD1
:0202CF0000200D
:0202D000009399
:0202D1003F7A72
:0202D200007AB0
:0202D3003E7279
:0202D4000030F8
:0202D5003F8E5A
:0202D6003FCA1D
:0202D7000085A0
:0202D80000071D
:0202D9003FC71D
:0202DA000025FD
:0202DB0000041D
:0202DC003F04DD
:0202DD0000051A
:0202DE000032EC
:0202DF000061BC
:0202E0003FDB02
:0202E1003FB923
:0202E200009A80
:0202E3003FA03A
:0202E40001080F
:0202E5003FC711
:0202E6003ED107
:0202E700000B0A
:0202E800011201
:0202E9003FD400
:0202EA003FEEE5
:0202EB000066AB
:0202EC003EC909
:0202ED003F4A86
:0202EE00002EE0
:0202EF003E755A
:0202F000002AE2
:0202F1003FFCD0
:0202F200003CCE
:0202F300000EFB
:0202F4003FFCCD
:0202F5003FCAFE
:0202F600002FD7
:0202F7003F9B2B
:0202F8003D6F58
:0202F9003FFDC7
:0202FA00002AD8
:0202FB000054AD
:0202FC003F843D
:0202FD003FC7F9
:0202FE000030CE
:0202FF003FCBF3
:020300003F6755
:020301003FFBC0
:02030200000FEA
:020303003E7644
:02030400005F98
:020305000023D3
:020306003FFCBA
:020307003EC7EF
:020308000000F3
:020309003FFDB6
:02030A003EC3F0
:02030B0000836D
:02030C003F4B65
:02030D000000EE
:02030E000025C8
:02030F003F8924
:020310003F9616
:02031100006F7B
:020312003F0D9D
:020313003FB2F7
:020314003E06A3
:020315003FFEA9
:020316003FF8AE
:02031700006381
:0203180000964D
:020319003F0E95
:02031A000036AB
:02031B003FF9A8
:02031C000129B5
:02031D003EE3BD
:02031E000035A8
:02031F003FD8C5
:02032000002EAD
:02032100000BCF
:020322003F4159
:020323003E5446
:0203240000C314
:020325003F1E79
:020326003D8A0E
:020327003FB4E1
:020328000029AA
:020329003FA1F2
:02032A00009839
:02032B00008D43
:02032C00006867
:02032D003FC4CB
:02032E000028A5
:02032F003FA9E4
:020330000018B3
:020331000008C2
:020332003FF397
:020333003FFB8E
:0203340000EADD
:020335003FB7D0
:0203360000883D
:020337003F8FF6
:020338003D7115
:020339003EE59F
:02033A00009130
:02033B000020A0
:02033C0000DFE0
:02033D00003589
:02033E00000EAF
:02033F003FFE7F
:02034000002B90
:020341003E9DDF
:020342000000B9
:020343003F96E3
:020344000004B3
:020345003FCEA9
:02034600008431
:0203470000B400
:020348003F551F
:02034900005B57
:02034A00003081
:02034B0000436D
:02034C0000446B
:02034D003EEC84
:02034E003FB9B5
:02034F00003D6F
:020350003FC1AB
:020351000001A9
:0203520000B5F4
:020353003E90DA
:02035400000C9B
:020355003F8ED9
:0203560000584D
:020357003EA9BD
:020358003F7CE8
:020359003F461D
:02035A003FFA68
:02035B0000316F
:02035C003F2040
:02035D003FC39C
:02035E003EC09F
:02035F003FEB72
:020360003F84D8
:02036100002E6C
:02036200009FFA
:0203630000ECAC
:0203640000C6D1
:020365003EEA6E
:020366003FC591
:02036700009EF6
:02036800010290
:02036900000B87
:02036A00000190
:02036B0000048C
:02036C003FB799
:02036D003FD679
:02036E003FFE50
:02036F003FB598
:020370003FF953
:020371003F4A01
:020372003E7CCF
:020373003F9DAC
:020374003FFB4D
:02037500002561
:020376003F97AF
:0203770000691B
:02037800008DF6
:0203790000047E
:02037A003FB58D
:02037B003F8AB7
:02037C003F7CC4
:02037D00003549
:02037E00016F0D
:02037F003FF647
:02038000002259
:02038100001B5F
:02038200003940
:02038300006018
:020384003FCE6A
:020385000095E1
:020386003F55E1
:020387003FED48
:02038800012A48
:02038900000B67
:02038A003FC969
:02038B0000333D
:02038C00000A65
:02038D00005B13
:02038E0000313C
:02038F00003E2E
:02039000014525
:020391003DD954
:020392003FD753
:02039300003632
:020394003FCE5A
:0203950000372F
:020396003F0125
:02039700007DE7
:020398003FD450
:020399003F41E2
:02039A00008BD6
:02039B003F7FA2
:02039C003F0B15
:02039D00002B33
:02039E003EB06F
:02039F00000359
:0203A000003D1E
:0203A100002733
:0203A2003FFD1D
:0203A300001048
:0203A4003FF523
:0203A50000272F
:0203A600000D48
:0203A700000153
:0203A8003EAB6A
:0203A900005FF3
:0203AA003FDA38
:0203AB0000410F
:0203AC003EF51C
:0203AD000065E9
:0203AE00000845
:0203AF000060EC
:0203B0003FCB41
:0203B100002D1D
:0203B2003F5BAF
:0203B3003F0306
:0203B40000083F
:0203B500000046
:0203B6000078CD
:0203B7000092B2
:0203B8003E19EC
:0203B9003FFE05
:0203BA003FF30F
:0203BB003EC63C
:0203BC003EEB16
:0203BD003FA25D
:0203BE00003C01
:0203BF00002715
:0203C0003E1AE3
:0203C100000535
:0203C200009C9D
:0203C300002F09
:0203C40002260F
:0203C500002115
:0203C6003F7C7A
:0203C700013CF7
:0203C8003FF8FC
:0203C900019B96
:0203CA003FFFF3
:0203CB0000F33D
:0203CC0001EF3F
:0203CD003F4EA1
:0203CE00004EDF
:0203CF0000929A
:0203D000009497
:0203D100006EBC
:0203D2003FCD1D
:0203D30001190E
:0203D400000E19
:0203D5003FAB3C
:0203D6000039EC
:0203D700000F15
:0203D800002FF4
:0203D9003FBE25
:0203DA0000B66B
:0203DB0000130D
:0203DC0000E837
:0203DD0000B965
:0203DE000035E8
:0203DF003FFDE0
:0203E0003FE3F9
:0203E1003F3C9F
:0203E200000A0F
:0203E300009781
:0203E4000053C4
:0203E5003FBF18
:0203E6003F7165
:0203E7003F7A5B
:0203E800004BC8
:0203E9000040D2
:0203EA003F884A
:0203EB003EDFF3
:0203EC003FBD13
:0203ED003FFCD3
:0203EE000028E5
:0203EF003F4D80
:0203F000003BD0
:0203F100007496
:0203F2000024E5
:0203F3003FBF0A
:0203F4003E3B8E
:0203F500008A7C
:0203F6000055B0
:0203F7003ED6F0
:0203F8003D8244
:0203F90000F50D
:0203FA003FBF03
:0203FB003EFEC4
:0203FC000031CE
:0203FD003F00BF
:0203FE00006A93
:0203FF00006498
:020400003FA417
:0204010000ED0C
:020402000055A3
:020403000017E0
:02040400003EB8
:020405003EBEF9
:02040600002BC9
:020407003F2094
:020408000021D1
:020409000038B9
:02040A003F7F32
:02040B0000757A
:02040C00008E60
:02040D000004E9
:02040E003FD5D8
:02040F000001EA
:02041000001CCE
:020411003FD1D9
:0204120000D216
:020413003FA800
:020414003E9C0C
:020415000000E5
:02041600001DC7
:020417003FFAAA
:02041800001EC4
:020419003FCBD7
:02041A00008858
:02041B003FB1EF
:02041C003FF3AC
:02041D003FFDA1
:02041E00006B71
:02041F00000AD1
:0204200000A238
:020421000002D7
:020422003FF0A9
:020423000015C2
:020424003F9AFD
:02042500008352
:020426000023B1
:0204270000A033
:020428003D464F
:020429003EECA7
:02042A000008C8
:02042B0000705F
:02042C003FC3CC
:02042D003FB2DC
:02042E0000428A
:02042F003E0B82
:0204300000BD0D
:02043100004386
:02043200002B9D
:020433003FBECA
:020434003FB7D0
:020435003E3D4A
:020436003FFA8B
:020437000107BB
:020438003EC1C3
:020439003E493A
:02043A0000348C
:02043B0000348B
:02043C0000338B
:02043D0001AB11
:02043E003FA6D7
:02043F003FD2AA
:02044000001F9B
:020441003ED8A3
:020442003B522B
:020443003FDB9D
:0204440000575F
:02044500004E67
:020446000006AE
:0204470000377C
:0204480000288A
:020449003FFE74
:02044A003F5021
:02044B00013777
:02044C003F97D8
:02044D003FFC72
:02044E0000317B
:02044F003F95D7
:0204500000C8E2
:020451003FF872
:02045200001098
:020453003FD098
:020454003F3631
:0204550000960F
:020456003FB5B0
:02045700006A39
:02045800002B77
:0204590000069B
:02045A003F96CB
:02045B00005B44
:02045C0000DCC2
:02045D00001984
:02045E003F4F0E
:02045F00000992
:020460003F4F0C
:020461003F0951
:02046200000098
:020463003FADAB
:0204640000B9DD
:02046500004D48
:020466003FE66F
:020467003FC98B
:020468003FD87B
:020469003FFB57
:02046A003F9FB2
:02046B003FBB95
:02046C0000434B
:02046D00008EFF
:02046E00000785
:02046F0000107B
:020470003FCB80
:02047100001079
:02047200004741
:020473003F1E2A
:0204740000285E
:02047500006C19
:0204760000285C
:02047700001F64
:0204780000D2B0
:020479003FD56D
:02047A0000255B
:02047B003FF947
:02047C003F4FF0
:02047D003FFA44
:02047E00002557
:02047F00000972
:0204800000CDAD
:020481003FC179
:02048200003246
:02048300002255
:02048400002F47
:020485003FA78F
:0204860000353F
:020487003FFD37
:020488003F8CA7
:0204890000036E
:02048A00000868
:02048B0000452A
:02048C00002C42
:02048D0000115C
:02048E00001E4E
:02048F00011C4E
:020490000075F5
:020491003FD159
:02049200002444
:02049300000265
:020494003EE642
:02049500000065
:0204960000590B
:020497003FF92B
:020498003FDB48
:020499003D869E
:02049A003F9091
:02049B0000B4AB
:02049C00009DC1
:02049D003FFA24
:02049E003EED31
:02049F003F4BD1
:0204A000000852
:0204A100002C2D
:0204A200000355
:0204A300011F37
:0204A400002C2A
:0204A5003FD244
:0204A6003FC352
:0204A700000053
:0204A800004210
:0204A90000420F
:0204AA000096BA
:0204AB003FC947
:0204AC00002727
:0204AD003EDE31
:0204AE00013E0D
:0204AF003FD03C
:0204B000001F2B
:0204B100000247
:0204B2003FE326
:0204B3003FF216
:0204B4003FF611
:0204B5003EEC1B
:0204B600000044
:0204B7003F28DC
:0204B8003F35CE
:0204B9003FCA38
:0204BA00006DD3
:0204BB0000003F
:0204BC00003905
:0204BD003F9E60
:0204BE003F35C8
:0204BF000068D3
:0204C00000CB6F
:0204C100001D1C
:0204C2000140F7
:0204C30000C572
:0204C40000280E
:0204C5003E29CE
:0204C6003FD91C
:0204C700000033
:0204C800002B07
:0204C900000130
:0204CA00003FF1
:0204CB003E2BC6
:0204CC003F9E51
:0204CD00000528
:0204CE003FFDF0
:0204CF003FB834
:0204D0003E9854
:0204D10000CC5D
:0204D2003FEBFE
:0204D3003FC820
:0204D4003EB632
:0204D500008B9A
:0204D6003FD70E
:0204D70000889B
:0204D8003FD50E
:0204D900000A17
:0204DA003EF8EA
:0204DB000051CE
:0204DC003E5E82
:0204DD003FCD11
:0204DE003F5489
:0204DF0000E734
:0204E0003EB923
:0204E10000C158
:0204E2000039DF
:0204E300004FC8
:0204E4003F9E39
:0204E5000046CF
:0204E6003ECA0C
:0204E7003FB123
:0204E8003FCC07
:0204E9000034DD
:0204EA00000907
:0204EB000028E7
:0204EC00012EDF
:0204ED000054B9
:0204EE00006AA2
:0204EF00002DDE
:0204F0003F8E3D
:0204F1003FE4E6
:0204F2003FF6D3
:0204F3003FF4D4
:0204F4003FCCFB
:0204F5003EDEE9
:0204F600000400
:0204F7000039CA
:0204F800000AF8
:0204F9003EE3E0
:0204FA003FDBE6
:0204FB003C0AB9
:0204FC003F04BB
:0204FD003F417D
:0204FE00004DAF
:0204FF00008675
:020500003FFFBB
:02050100003CBC
:020502000014E3
:020503003F5562
:020504003FCBEB
:020505003EF5C1
:020506000000F3
:02050700009D55
:020508003F278B
:020509003F7E33
:02050A003EBBF6
:02050B0002B834
:02050C000027C6
:02050D000023C9
:02050E00005794
:02050F00007B6F
:020510003DFEAE
:020511003FE4C5
:020512003ED6D3
:020513000024C2
:02051400009D48
:020515003F4065
:020516000100E2
:020517003FF8AB
:020518003FD1D1
:02051900004A96
:02051A00009847
:02051B00002DB1
:02051C003FCAD4
:02051D00009A42
:02051E003FFAA2
:02051F00009149
:020520003FBBDF
:02052100003F99
:020522003FCCCC
:020523003F3E59
:020524003FBFD7
:020525003FB7DE
:020526000008CB
:020527003FBCD7
:020528003EDBB8
:02052900004C84
:02052A003EADE4
:02052B0000B41A
:02052C003F8D01
:02052D003FF19C
:02052E0000705B
:02052F0000B416
:02053000003D8C
:02053100001DAB
:020532003EE8A1
:020533000013B3
:02053400001DA8
:02053500002A9A
:020536003F265E
:02053700006B57
:020538003F5A28
:02053900002799
:02053A003FA9D7
:02053B0000CAF4
:02053C003FC7B7
:02053D003FFF7E
:02053E003FF18B
:02053F00003387
:020540003FC7B3
:02054100003F79
:0205420000BAFD
:0205430000496D
:020544003EE394
:0205450000AA0A
:020546003FBDB7
:02054700003082
:020548003EE78C
:020549003D1261
:02054A003FBAB6
:02054B003F600F
:02054C003FA2CC
:02054D0000317B
:02054E003E0E5F
:02054F00002F7B
:020550003FD991
:02055100001C8C
:020552000005A2
:0205530000FCAA
:020554003FF571
:020555003ED393
:020556003F1153
:020557003E81E3
:02055800019010
:020559003F530E
:02055A00001B84
:02055B00000797
:02055C003FD589
:02055D0000217B
:02055E003F7BE1
:02055F00002179
:02056000007C1D
:02056100000296
:02056200008A0D
:020563003FFB5C
:02056400007F16
:020565003FC88D
:0205660000048F
:02056700001280
:020568003FFE54
:020569003FB79A
:02056A003DC58D
:02056B00006826
:02056C003FCD81
:02056D00004547
:02056E00001675
:02056F003EE864
:020570003FDB6F
:020571003F94B5
:020572003FCC7C
:0205730000077F
:020574003FC97D
:02057500002460
:020576003FFD47
:02057700002062
:020578003F5EE4
:020579003F88B9
:02057A0001F38B
:02057B003DE25F
:02057C00007EFF
:02057D0000C3B9
:02057E00006516
:02057F003F5EDD
:020580003F6DCD
:020581003F51E8
:02058200004631
:02058300003E38
:02058400004530
:02058500001D57
:02058600003D36
:020587003F57DC
:02058800006B06
:020589003FD061
:02058A003F161A
:02058B0000640A
:02058C000071FC
:02058D0000006C
:02058E00002B40
:02058F003F33F8
:02059000002E3B
:020591003FCB5E
:0205920000382F
:020593003FD057
:02059400002540
:020595003FC461
:0205960000372C
:020597003F66BD
:0205980000273A
:0205990000035D
:02059A003FE937
:02059B003E9A86
:02059C003F829C
:02059D003FFD20
:02059E0000005B
:02059F003FB566
:0205A000003326
:0205A100000C4C
:0205A200002631
:0205A3003FBD5A
:0205A400010A4A
:0205A5003ED343
:0205A6003FF222
:0205A7003FC251
:0205A800002B26
:0205A9003EEF23
:0205AA003EAA67
:0205AB000074DA
:0205AC003FA16D
:0205AD00000448
:0205AE00003C0F
:0205AF003FAE5D
:0205B0003EFB10
:0205B1003FD435
:0205B200003D0A
:0205B3003FCB3C
:0205B400002C19
:0205B5003FF80D
:0205B600010141
:0205B7003F679C
:0205B8000060E1
:0205B9003F49B8
:0205BA000052ED
:0205BB003F3AC5
:0205BC003FF10D
:0205BD000093A9
:0205BE0000201B
:0205BF003FF308
:0205C0003F5E9C
:0205C1003FD227
:0205C2003DE119
:0205C300001620
:0205C400000431
:0205C5003EE610
:0205C6003F9E56
:0205C7003FD51E
:0205C8003F9E54
:0205C900005AD6
:0205CA003F17D9
:0205CB003FFBF4
:0205CC0000002D
:0205CD000058D4
:0205CE000059D2
:0205CF00000A20
:0205D0003FF3F7
:0205D1003FAE3B
:0205D2000A001D
:0205D3000055D1
:0205D400002DF8
:0205D500002AFA
:0205D6003E766F
:0205D7003F01E2
:0205D80000031E
:0205D9003FCD14
:0205DA00011509
:0205DB000032EC
:0205DC0000110C
:0205DD003F29B4
:0205DE00005DBE
:0205DF003FBA21
:0205E000001BFE
:0205E1003FC514
:0205E200002CEB
:0205E3003F2AAD
:0205E4003FD402
:0205E5003FDBFA
:0205E600000310
:0205E7003F3E95
:0205E80000C34E
:0205E9003FFED3
:0205EA000038D7
:0205EB003FA52A
:0205EC000042CB
:0205ED00000705
:0205EE003F5577
:0205EF003FDBF0
:0205F0000035D4
:0205F100000CFC
:0205F2000021E6
:0205F3000066A0
:0205F4003F4A7C
:0205F5003FB60F
:0205F600000003
:0205F7003FFEC5
:0205F8003ED3F0
:0205F9003E259D
:0205FA0000639C
:0205FB003EE4DC
:0205FC0000FC01
:0205FD003F4F6E
:0205FE000011EA
:0205FF003D813C
:020600000026D2
:020601003DDDDD
:0206020000C82E
:020603003F486E
:020604003EA313
:0206050000BA39
:020606000031C1
:020607003FF6BC
:020608000000F0
:020609003E2F82
:02060A000035B9
:02060B003E9619
:02060C003FE2CB
:02060D000042A9
:02060E00002CBE
:02060F003F6446
:02061000004D9B
:020611003FC6E2
:020612000035B1
:020613000011D4
:0206140000855F
:020615003F8222
:020616000014CE
:02061700008061
:020618003F6B36
:02061900009946
:02061A000037A7
:02061B00009C41
:02061C0000815B
:02061D00006972
:02061E000018C2
:02061F00003C9D
:02062000002EAA
:02062100000ACD
:020622003F2F68
:0206230000399C
:020624003FCEC7
:0206250000CE05
:020626000005CD
:020627003FEDA5
:02062800006C64
:020629000027A8
:02062A000002CC
:02062B003F1876
:02062C003FBECF
:02062D00004487
:02062E000019B1
:02062F00003990
:020630003FBDCC
:020631000023A4
:020632003F4740
:02063300008342
:020634003EEB9B
:0206350000259E
:020636000007BB
:02063700004081
:02063800007749
:0206390000219E
:02063A003FC3BC
:02063B003F631B
:02063C000008B4
:02063D00002C8F
:02063E003FBAC1
:02063F00003D7C
:02064000002494
:020641003FC3B5
:020642003F0E69
:0206430000189D
:020644003F2451
:02064500006251
:020646000007AB
:02064700000CA5
:020648003FC3AE
:0206490000406F
:02064A003FC5AA
:02064B003FCCA2
:02064C003FF677
:02064D00009A11
:02064E0000E5C5
:02064F003FBBAF
:020650000005A3
:0206510000A304
:020652003FC5A2
:0206530000089D
:0206540000089C
:02065500002A79
:020656003E0460
:02065700006140
:020658003F154C
:02065900003A65
:02065A00008A14
:02065B003FE07E
:02065C0000524A
:02065D003F65F7
:02065E003FF962
:02065F00000792
:020660003FF564
:02066100000295
:020662003FDA7D
:02066300002B6A
:0206640000791B
:020665003FA7AD
:020666003FF65D
:02066700002869
:020668003FCD84
:02066900001679
:02066A003FFF50
:02066B00002469
:02066C0000018B
:02066D00002665
:02066E003F8DBE
:02066F00004742
:0206700000ACDC
:02067100001770
:02067200005531
:02067300002362
:020674003F52F3
:02067500008AF9
:0206760000C9B9
:020677003F86BC
:020678003F64DD
:02067900006A15
:02067A0000BDC1
:02067B003FDE60
:02067C00009DDF
:02067D00002556
:02067E003EE953
:02067F00003940
:02068000000E6A
:020681003FCA6E
:02068200009ED8
:02068300004035
:02068400000A6A
:02068500000073
:020686003FAA89
:0206870000026F
:02068800007BF5
:020689003FD45C
:02068A0000026C
:02068B0000511C
:02068C003FD459
:02068D003FFE2E
:02068E000079F1
:02068F003FBC6E
:020690003EFB2F
:020691000092D5
:020692003F9592
:0206930002E182
:0206940002164C
:0206950000243F
:02069600008AD8
:020697003E70B3
:020698003FDB46
:0206990000213E
:02069A003FF22D
:02069B000093CA
:02069C00000557
:02069D00005FFC
:02069E003FC655
:02069F003F9882
:0206A0003E4FCB
:0206A1003F8B8D
:0206A20000272F
:0206A30000084D
:0206A4003FD144
:0206A5003F868E
:0206A6003FBD56
:0206A700000D44
:0206A8003FDE33
:0206A9003F53BD
:0206AA003F45CA
:0206AB00004EFF
:0206AC003FF815
:0206AD000053F8
:0206AE00006FDB
:0206AF003B3ED0
:0206B0003FF118
:0206B1003FF810
:0206B2003F3CCB
:0206B3003FEB1B
:0206B4003FFA0B
:0206B5003DC640
:0206B6003FC340
:0206B700002021
:0206B8003FCE33
:0206B90000231C
:0206BA00000737
:0206BB003FDC22
:0206BC003FF409
:0206BD003FEF0D
:0206BE003FF605
:0206BF0000D168
:0206C0003FD029
:0206C100009B9C
:0206C2000070C6
:0206C300008CA9
:0206C4000076BE
:0206C5003F05EF
:0206C60000B67C
:0206C7003FC929
:0206C8000040F0
:0206C9003EEC05
:0206CA000083AB
:0206CB003EC22D
:0206CC000034F8
:0206CD003FA745
:0206CE000034F6
:0206CF00000524
:0206D000008C9C
:0206D1000044E3
:0206D2003EFBED
:0206D3003F21C5
:0206D40000CD57
:0206D500003AE9
:0206D6000024FE
:0206D7003E17CC
:0206D8003FAD34
:0206D90000001F
:0206DA00002AF4
:0206DB0000D548
:0206DC003FEEEF
:0206DD003ED904
:0206DE000026F4
:0206DF00008198
:0206E000004ACE
:0206E1003F1CBC
:0206E2003FF5E2
:0206E3003FFBDB
:0206E40000F71D
:0206E5003FD400
:0206E6000046CC
:0206E7003E399A
:0206E8003FFAD7
:0206E9003F4C84
:0206EA000054BA
:0206EB003FB31B
:0206EC00009478
:0206ED00000B00
:0206EE000030DA
:0206EF003F507A
:0206F0000027E1
:0206F1003F6761
:0206F2000060A6
:0206F300008481
:0206F4000024E0
:0206F500012ED4
:0206F60000EA18
:0206F7003FF2D0
:0206F8003F00C1
:0206F9003FFFC1
:0206FA003E516F
:0206FB003FD9E5
:0206FC003FD1EC
:0206FD003FFCC0
:0206FE003FBFFC
:0206FF003FB109
:02070000006B8C
:0207010000ED09
:0207020000678E
:020703003F03B2
:020704000041B2
:02070500001ED4
:020706003EF9BA
:020707000008E8
:020708000000EF
:020709003FA906
:02070A000026C7
:02070B000007E5
:02070C00002FBC
:02070D000014D6
:02070E000039B0
:02070F000010D8
:020710000038AF
:020711003F9116
:02071200006184
:0207130000667E
:020714003FBCE8
:020715003FEFB4
:020716000028B9
:0207170000C61A
:020718003F663A
:020719003F623D
:02071A003F4B53
:02071B003FEEAF
:02071C000015C6
:02071D00004694
:02071E003FF1A9
:02071F003FF1A8
:02072000008156
:02072100004E88
:020722003F8016
:02072300006470
:020724000033A0
:020725003F781B
:020726003F6032
:02072700016B64
:020728000028A7
:020729003FD6B9
:02072A000026A7
:02072B00006C60
:02072C000025A6
:02072D00004486
:02072E00006E5B
:02072F0000B117
:020730003FAADE
:020731003EA6E2
:020732003FF195
:020733003FF68F
:02073400003C87
:020735003FCAB9
:0207360000358C
:020737003FFE83
:02073800000BB4
:020739003FC4BB
:02073A00004677
:02073B000013A9
:02073C003FFB81
:02073D003FF685
:02073E00008039
:02073F00004375
:02074000005166
:020741003FDD9A
:020742003FF97D
:020743003FFD78
:02074400000BA8
:02074500005161
:02074600002B86
:020747003FDB96
:02074800001F90
:020749003FFA75
:02074A00002A83
:02074B0001208B
:02074C000009A2
:02074D003FCC9F
:02074E00008A1F
:02074F000000A8
:02075000006B3C
:02075100002086
:0207520000376E
:020753003F97CE
:02075400001C87
:020755003FB4AF
:02075600003F62
:020757003FC59C
:02075800002778
:020759003FF36C
:02075A003DADB3
:02075B003FFE5F
:02075C003F5507
:02075D003EBCA0
:02075E00000396
:02075F003FFA5F
:020760003FF95F
:020761003FDC7B
:02076200006035
:020763003C9DBB
:0207640000048F
:020765003FD380
:020766003FB1A1
:0207670000543C
:020768003FD27E
:020769003EDF71
:02076A0000117C
:02076B003FFC51
:02076C003FD17B
:02076D003FFC4F
:02076E00000386
:02076F003F96B3
:02077000001E69
:020771003FCE79
:020772003FFA4C
:020773003FFA4B
:02077400001073
:02077500000082
:02077600007D04
:020777000082FE
:020778003FD769
:020779003EDF61
:02077A00001667
:02077B003FDB62
:02077C0000DBA0
:02077D00005624
:02077E00001E5B
:02077F003FC277
:020780003FB583
:02078100000076
:020782003FDC5A
:020783003FB87D
:020784003FB87C
:02078500009CD6
:020786003F979B
:02078700004B25
:0207880000244B
:020789003F51DE
:02078A00001F4E
:02078B003EFA34
:02078C00003635
:02078D00007CEE
:02078E00005019
:02078F003FB475
:020790003F0127
:02079100000561
:020792003FF92D
:020793003FBC69
:020794003FA084
:020795000069F9
:02079600002140
:02079700000060
:020798003FCA56
:020799003FFE21
:02079A003FF22C
:02079B003F45D8
:02079C00002A31
:02079D003F1209
:02079E00004019
:02079F00001147
:0207A00000292E
:0207A1003FFB1C
:0207A2003FD93D
:0207A30000BC98
:0207A400002E25
:0207A5003FFD16
:0207A6003FF71B
:0207A700006CE4
:0207A8003F040C
:0207A900003618
:0207AA00004C01
:0207AB003FC24B
:0207AC00002427
:0207AD003FCC3F
:0207AE000066E3
:0207AF003FF316
:0207B000013E08
:0207B1000099AD
:0207B20000281D
:0207B3003F8C79
:0207B40000390A
:0207B5003FC340
:0207B600000A37
:0207B70000241C
:0207B80000152A
:0207B9003FF807
:0207BA00000D30
:0207BB003FAA53
:0207BC003F9864
:0207BD003F2FCC
:0207BE003FAD4D
:0207BF00000B2D
:0207C0000038FF
:0207C1003FC82F
:0207C200002D08
:0207C3003F21D4
:0207C40000052E
:0207C500000D25
:0207C6000058D9
:0207C7003F5998
:0207C800009699
:0207C9003FAE41
:0207CA003FC42A
:0207CB003E6589
:0207CC00002605
:0207CD00000327
:0207CE00008E9B
:0207CF003FA049
:0207D0003F9355
:0207D100000B1B
:0207D200000B1A
:0207D3003FD312
:0207D4003FB430
:0207D5003FF4EF
:0207D600002FF2
:0207D7003FD20F
:0207D8003FF0F0
:0207D9003FF1EE
:0207DA003E9748
:0207DB003FF3EA
:0207DC000071AA
:0207DD003FD10A
:0207DE0000D049
:0207DF00000018
:0207E000000E09
:0207E1003FCD0A
:0207E200003ADB
:0207E3003FBE17
:0207E4000021F2
:0207E50000040E
:0207E6000024ED
:0207E7003F7160
:0207E8003FB51B
:0207E90000030B
:0207EA0000000D
:0207EB003FF6D7
:0207EC003FC00C
:0207ED003FD2F9
:0207EE000025E4
:0207EF000057B1
:0207F0003EFECB
:0207F1000015F1
:0207F200000FF6
:0207F3000015EF
:0207F400001EE5
:0207F50001E61B
:0207F6000042BF
:0207F700000BF5
:0207F8003FF6CA
:0207F9003FEED1
:0207FA0000DC21
:0207FB003FD8E5
:0207FC003D724C
:0207FD003F4B70
:0207FE0001A652
:0207FF003FD4E5
:020800003FECCB
:020801000019DC
:020802000044B0
:020803003F278D
:020804003F7142
:0208050000F8F9
:020806003EE7CB
:0208070000D21D
:020808000049A5
:020809003F3876
:02080A000034B8
:02080B000010DB
:02080C003FD3D8
:02080D00011BCD
:02080E0000B236
:02080F003FC0E8
:02081000001DC9
:020811003FF3B3
:02081200000BD9
:020813003FA8FC
:02081400001DC5
:020815003F9012
:020816003F465B
:020817003FD2CE
:020818000009D5
:020819003FCBD3
:02081A00004795
:02081B00008B50
:02081C003FE4B7
:02081D003FD6C4
:02081E003F3762
:02081F0000AA2D
:020820000029AD
:020821003FD8BE
:020822003B8316
:020823000003D0
:020824000021B1
:020825003F454D
:020826000023AD
:020827000014BB
:02082800006B63
:0208290000A528
:02082A000024A8
:02082B003DA9E5
:02082C000015B5
:02082D003FF397
:02082E0000BC0C
:02082F0000B215
:020830003FCCBB
:020831003FD3B3
:02083200003094
:02083300034779
:02083400003C86
:02083500004C75
:020836003FDEA3
:020837003FB6CA
:020838003F522D
:020839003FFD81
:02083A000116A5
:02083B00003289
:02083C003F6F0C
:02083D00002495
:02083E003F7207
:02083F003FC6B2
:02084000003284
:020841003FA9CD
:0208420000179D
:020843000000B3
:020844000006AC
:020845003FF47E
:020846003F7DF4
:020847003ECFA2
:020848000009A5
:02084900007E2F
:02084A00006646
:02084B0000B0FB
:02084C00004169
:02084D00004F5A
:02084E003FBAAF
:02084F003FBBAD
:020850003F1E49
:020851003F75F1
:0208520000069E
:0208530000366D
:020854003F5211
:02085500003C65
:020856003FCA97
:0208570000ACF3
:020858003F322D
:02085900000499
:02085A00007824
:02085B003FF16B
:02085C003EFC60
:02085D00000198
:02085E00000098
:02085F00003F58
:020860003F1047
:02086100000293
:020862003FA5B0
:020863003E5FF6
:020864003E4E06
:0208650000840D
:0208660000F39D
:020867003ED879
:020868003FACA3
:0208690000008D
:02086A003F3A13
:02086B0000BECD
:02086C003FD17A
:02086D00000881
:02086E003EB991
:02086F0000AADD
:020870003FFB4C
:02087100003B4A
:0208720000DBA9
:0208730000077C
:020874003F093A
:020875000084FD
:020876003FD26F
:0208770000512E
:020878003FF14E
:02087900000578
:02087A003FB687
:02087B00003B40
:02087C003FBE7D
:02087D00000F6A
:02087E0001A3D4
:02087F003F8EAA
:020880003FC473
:0208810000CEA7
:020882003FAC89
:020883003E95A0
:020884000095DD
:0208850000630E
:020886003FD859
:0208870000026D
:020888003FF837
:02088900002944
:02088A00008BE1
:02088B003FFD2F
:02088C0000C2A8
:02088D003F43E7
:02088E000189DE
:02088F00003433
:02089000000D59
:02089100004B1A
:020892003FB86D
:0208930000164D
:02089400004022
:0208950000045D
:020896003FC061
:02089700001649
:020898003F9887
:02089900002C31
:02089A003FF726
:02089B003F32EA
:02089C003FD447
:02089D003E0912
:02089E003EF921
:02089F00001F38
:0208A00000BE98
:0208A1003F8F87
:0208A2003FD441
:0208A3003FE133
:0208A4003FAB68
:0208A50000252C
:0208A6003FF918
:0208A7000054FB
:0208A8003F2BE4
:0208A900002D20
:0208AA0000113B
:0208AB003FA06C
:0208AC003FCB40
:0208AD000074D5
:0208AE00001335
:0208AF003FB850
:0208B0003F7394
:0208B1003FCB3B
:0208B200001133
:0208B30000C182
:0208B4003FAF54
:0208B5003EDD26
:0208B600003010
:0208B700002A15
:0208B8003FFB04
:0208B9000087B6
:0208BA003FB944
:0208BB0000102B
:0208BC000082B8
:0208BD003E8D6E
:0208BE00000632
:0208BF00001E19
:0208C0003EFBFD
:0208C100002F06
:0208C2003F2CC9
:0208C30000240F
:0208C400007AB8
:0208C5003F648E
:0208C600001E12
:0208C70000101F
:0208C8003FDC13
:0208C90000101D
:0208CA003F7677
:0208CB000064C7
:0208CC003F7675
:0208CD00000920
:0208CE00024ADC
:0208CF003F6781
:0208D000005FC7
:0208D100000C19
:0208D2003FEEF7
:0208D3003FF5EF
:0208D4003F34AF
:0208D5003F5F83
:0208D6003FF6EB
:0208D7003E6C75
:0208D8003FF4EB
:0208D9003FF8E6
:0208DA00002BF1
:0208DB000029F2
:0208DC0000908A
:0208DD00001EFB
:0208DE0000ED2B
:0208DF003FD701
:0208E000010411
:0208E10000080D
:0208E2003FFED7
:0208E3003FE3F1
:0208E4003FEFE4
:0208E5003F547E
:0208E6003F428F
:0208E7003FFAD6
:0208E8003FCA05
:0208E9000024E9
:0208EA003FEFDE
:0208EB003DBD11
:0208EC003FDAF1
:0208ED00006A9F
:0208EE003F9633
:0208EF00000FF8
:0208F000007690
:0208F1003EAE19
:0208F2000031D3
:0208F3000013F0
:0208F40000758D
:0208F5003F8141
:0208F6003E764C
:0208F700001DE2
:0208F8003E8937
:0208F9003FE4DA
:0208FA0000926A
:0208FB000018E3
:0208FC0000DE1C
:0208FD00000EEB
:0208FE003FB900
:0208FF00004BAC
:02090000009B5A
:02090100006490
:0209020000965D
:0209030000A34F
:020904003FDBD7
:020905003FB6FB
:02090600008669
:020907003F1C93
:0209080000717C
:02090900002DBF
:02090A003FB4F8
:02090B00019950
:02090C003F7832
:02090D003F9514
:02090E000021C6
:02090F0000FBEB
:020910003F7036
:020911003FFEA7
:020912000022C1
:020913000018CA
:020914003FF6AC
:020915003FF9A8
:020916000039A6
:020917003FF9A6
:020918000020BD
:0209190000419B
:02091A000027B4
:02091B000000DA
:02091C003F7327
:02091D003FD4C5
:02091E00000ACD
:02091F003FFD9A
:020920003FFC9A
:020921000023B1
:02092200003C97
:020923003EB5DF
:020924003FD1C1
:020925003FCEC3
:020926003FADE3
:020927003FFF90
:02092800009736
:020929003FC4C9
:02092A0000BB10
:02092B000117B2
:02092C00002B9E
:02092D000101C6
:02092E003FF395
:02092F003F1077
:02093000008B3A
:0209310000675D
:020932000008BB
:020933003FA7DC
:02093400002B96
:020935003FCDB4
:020936003F82FE
:020937003FFC83
:020938003FD6A8
:020939003F96E7
:02093A0000B506
:02093B003FB2C9
:02093C000006B3
:02093D003FD6A3
:02093E00003384
:02093F000001B5
:0209400000E0D5
:020941003FD4A1
:020942003F650F
:020943003FCFA4
:02094400002988
:020945003F3C35
:020946003FE38D
:020947003FF778
:02094800002F7E
:020949000001AB
:02094A00001F8C
:02094B003FCF9C
:02094C00003E6B
:02094D003F9DCC
:02094E00220085
:02094F003FF077
:020950003F4D19
:02095100000F95
:020952000000A3
:020953003FDC87
:020954000000A1
:020955003FFC65
:020956003F95CB
:020957003FCC93
:02095800002D70
:02095900000795
:02095A00004D4E
:02095B003FBD9E
:02095C00001287
:02095D003F2534
:02095E003FF464
:02095F003F8DCA
:020960003F89CD
:020961003FF560
:0209620000494A
:020963003FFE55
:020964003C7ADB
:02096500017718
:020966003EB39E
:020967003FFE51
:02096800001578
:020969003FD578
:02096A0000404B
:02096B003FC289
:02096C00003356
:02096D003EF05A
:02096E00007F08
:02096F00006A1C
:02097000002263
:020971000095EF
:020972003CDB6C
:0209730000B1D1
:02097400004D34
:020975003FAF92
:02097600000E71
:0209770000EB93
:0209780000334A
:02097900000577
:02097A0000215A
:02097B003FCF6C
:02097C00002851
:02097D003F73C6
:02097E003FF543
:02097F003F0F28
:020980003FFF37
:020981003FFB3A
:02098200001C57
:02098300000270
:020984003FEB47
:0209850001224D
:0209860000C3AC
:020987003FF13E
:02098800001756
:02098900001557
:02098A003EE746
:02098B003FCD5E
:02098C00002445
:02098D003EC565
:02098E00000364
:02098F003FAE79
:02099000003A2B
:020991000082E2
:02099200001251
:0209930000283A
:020994003FD34F
:02099500000E52
:020996003FEE32
:020997003FCE51
:020998003F24FA
:020999003EDE40
:02099A00002833
:02099B003F63B8
:02099C0000B2A7
:02099D003FDA3F
:02099E00002C2B
:02099F00009EB8
:0209A000006CE9
:0209A100014013
:0209A20000242F
:0209A3000098BA
:0209A4003F37DB
:0209A5003E947E
:0209A600000748
:0209A7003FC748
:0209A8000051FC
:0209A90000A6A6
:0209AA00001C2F
:0209AB00000545
:0209AC00000841
:0209AD003FBF4A
:0209AE0000E85F
:0209AF00000244
:0209B0003F0BFB
:0209B100015EE5
:0209B20000370C
:0209B3003F1EE5
:0209B400001031
:0209B5003FDA27
:0209B60000201F
:0209B7003FF00F
:0209B800001C21
:0209B900005DDF
:0209BA000046F5
:0209BB00011425
:0209BC00003405
:0209BD00000632
:0209BE00000E29
:0209BF00003501
:0209C0003E7087
:0209C1000086AE
:0209C2003EB144
:0209C3003F7E75
:0209C400001021
:0209C50003131A
:0209C6000063CC
:0209C7000073BB
:0209C800006DC0
:0209C9003F5697
:0209CA000047E4
:0209CB000071B9
:0209CC003FC02A
:0209CD000058D0
:0209CE0000081F
:0209CF003FF1F6
:0209D0003FC224
:0209D1003F8560
:0209D20000B86B
:0209D3003FA93A
:0209D4003F2EB4
:0209D5000030F0
:0209D6003FF9E7
:0209D7003F7669
:0209D8003FF6E8
:0209D9000027F5
:0209DA003FC814
:0209DB00009B7F
:0209DC003FFDDD
:0209DD003FBA1F
:0209DE003FF6E2
:0209DF003FF2E5
:0209E0003F7462
:0209E100007B99
:0209E2003FAC28
:0209E3000020F2
:0209E400008A87
:0209E500000B05
:0209E600006AA5
:0209E70000B05E
:0209E8003FC608
:0209E9003FC904
:0209EA003F4785
:0209EB00002FDB
:0209EC003F8A40
:0209ED00003DCB
:0209EE000008FF
:0209EF000013F3
:0209F0003FD1F5
:0209F1002200E2
:0209F2003FF4D0
:0209F3000028DA
:0209F4003FC002
:0209F500002FD1
:0209F6003FCFF1
:0209F700003AC4
:0209F8003F5668
:0209F90000A557
:0209FA000059A2
:0209FB000035C5
:0209FC003FD3E7
:0209FD00004EAA
:0209FE000100F6
:0209FF003FF0C7
:020A00003FB203
:020A01003F10A4
:020A02003FFAB9
:020A03000015DC
:020A04003FB100
:020A05003F2888
:020A06003EAA06
:020A07003F6549
:020A08003FF7B6
:020A0900005398
:020A0A00004B9F
:020A0B003E802B
:020A0C003FF5B4
:020A0D003FDBCD
:020A0E003FF7B0
:020A0F0000994C
:020A10003FF7AE
:020A1100000ED5
:020A12003FBDE6
:020A1300005B86
:020A140000835D
:020A15000000DF
:020A1600009D41
:020A1700002EAF
:020A18003E138B
:020A1900009D3E
:020A1A00007169
:020A1B00003E9B
:020A1C003FDABF
:020A1D003FD2C6
:020A1E003FD0C7
:020A1F00003A9B
:020A20003F7C19
:020A210000597A
:020A22003FC9CA
:020A23003FB7DB
:020A240000438D
:020A25003F810F
:020A26003F3B54
:020A27003FAEE0
:020A28003FC7C6
:020A2900008348
:020A2A00000CBE
:020A2B000001C8
:020A2C000011B7
:020A2D003E1B6E
:020A2E003E93F5
:020A2F00002E97
:020A30003FD6AF
:020A31003FB9CB
:020A32003FFC87
:020A33003FFF83
:020A3400028A34
:020A3500004976
:020A360000A717
:020A3700004578
:020A38003FC0BD
:020A3900000EAD
:020A3A00007743
:020A3B00004178
:020A3C000012A6
:020A3D00002B8C
:020A3E003FD3A4
:020A3F00026350
:020A4000009F15
:020A41003FF084
:020A4200001B97
:020A43003F165C
:020A4400017D32
:020A450000327D
:020A46000000AE
:020A4700010BA1
:020A4800004567
:020A4900000E9D
:020A4A003F0962
:020A4B003FA7C3
:020A4C003FF376
:020A4D00004760
:020A4E00003571
:020A4F00001D88
:020A50003FC79E
:020A51003FE77D
:020A520000148E
:020A5300002978
:020A54003FD48D
:020A550000207F
:020A56003EE47C
:020A57003B2E34
:020A58003F5D00
:020A5900027425
:020A5A003F7EDD
:020A5B00001C7D
:020A5C003E96C4
:020A5D00000A8D
:020A5E00005541
:020A5F00000B8A
:020A6000000094
:020A6100005B38
:020A6200007022
:020A63003FF55D
:020A64003F153C
:020A650000335C
:020A66003FC58A
:020A6700004449
:020A6800000C80
:020A69003D2C22
:020A6A003FD873
:020A6B003E0249
:020A6C00014E39
:020A6D003FF553
:020A6E003FCC7B
:020A6F003F0C3A
:020A70003DE364
:020A71003E64E1
:020A720000B3CF
:020A73003F9AA8
:020A740000710F
:020A75003E6DD4
:020A76003FF649
:020A77003FFD41
:020A7800000676
:020A79003FF04C
:020A7A003F2912
:020A7B00002950
:020A7C00000177
:020A7D00002255
:020A7E003FD760
:020A7F00008DE8
:020A80003EED49
:020A8100012B47
:020A8200006111
:020A8300001C55
:020A84003FD160
:020A8500002F40
:020A860000F37B
:020A8700000964
:020A88003FF03D
:020A8900006B00
:020A8A003FCA61
:020A8B003DE04C
:020A8C003E84A6
:020A8D00005215
:020A8E00003036
:020A8F0000471E
:020A9000004420
:020A91003F65BF
:020A920000055D
:020A9300007CE5
:020A94003F120F
:020A9500005708
:020A96003FF12E
:020A970000A4B9
:020A98003F9B82
:020A99003F8B91
:020A9A00003723
:020A9B00006CED
:020A9C003F5EBB
:020A9D003FB365
:020A9E000067EF
:020A9F003F39DD
:020AA00000292B
:020AA1003F34E0
:020AA200004111
:020AA3003F4BC7
:020AA40000BD93
:020AA5003FC24E
:020AA6003FDF30
:020AA70000232A
:020AA80000E567
:020AA9003F24E8
:020AAA0000DA70
:020AAB003FB555
:020AAC00003117
:020AAD003FBF49
:020AAE0000370F
:020AAF003FF511
:020AB000003014
:020AB1000050F3
:020AB200002A18
:020AB3003F61A1
:020AB40000310F
:020AB5003FFD03
:020AB6003FF807
:020AB700003508
:020AB800002F0D
:020AB900000D2E
:020ABA00003109
:020ABB0000F445
:020ABC00003FF9
:020ABD003E5D9C
:020ABE003FE90E
:020ABF003FA551
:020AC000003301
:020AC1003FD024
:020AC20000D161
:020AC3003F8B67
:020AC40000240C
:020AC5003FCC24
:020AC600000D21
:020AC7003FC826
:020AC800002408
:020AC90001CA60
:020ACA003E1DCF
:020ACB003FF2F8
:020ACC003FE603
:020ACD003FF4F4
:020ACE003FE9FE
:020ACF003E9354
:020AD0000052D2
:020AD1003FF8EC
:020AD2003FFCE7
:020AD300011709
:020AD400004FD1
:020AD5003F5090
:020AD6003FFFE0
:020AD7000020FD
:020AD8000064B8
:020AD9003FCD0F
:020ADA0000E832
:020ADB003FCE0C
:020ADC003F7C5D
:020ADD003FF8E0
:020ADE000020F6
:020ADF003F5E78
:020AE000001004
:020AE100004FC4
:020AE200002BE7
:020AE300005AB7
:020AE4003F428F
:020AE500006AA5
:020AE60000000E
:020AE7003FD6F8
:020AE8003F7B52
:020AE90000000B
:020AEA00000FFB
:020AEB000025E4
:020AEC000021E7
:020AED003EA227
:020AEE003FFFC8
:020AEF003FB115
:020AF0000015EF
:020AF1003FD3F1
:020AF2000024DE
:020AF3003FC4FE
:020AF4003FFBC6
:020AF5003FFBC5
:020AF600007688
:020AF700006697
:020AF8000007F5
:020AF900006F8C
:020AFA000011E9
:020AFB003FCBEF
:020AFC00005C9C
:020AFD003FD9DF
:020AFE000047AF
:020AFF003FA313
:020B0000006A89
:020B01003FD5DE
:020B02003F5959
:020B03003F8B26
:020B04000012DD
:020B05003EFFB1
:020B0600006C81
:020B07000043A9
:020B08003EF6B7
:020B09003FFBB0
:020B0A00019058
:020B0B000025C3
:020B0C000000E7
:020B0D003FF7B0
:020B0E003F2185
:020B0F0000984C
:020B10003FF2B2
:020B11003EA400
:020B12000041A0
:020B13003FDCC5
:020B1400002BB4
:020B1500004995
:020B16000034A9
:020B17003FD9C4
:020B18000013C8
:020B19000014C6
:020B1A003FA2F8
:020B1B003F1485
:020B1C000014C3
:020B1D0000B71F
:020B1E003F2076
:020B1F003F692C
:020B2000007B58
:020B210000567C
:020B2200005081
:020B2300002DA3
:020B24003FB5DB
:020B25003FDCB3
:020B2600008E3F
:020B27003FF09D
:020B2800003299
:020B2900004B7F
:020B2A0000AB1E
:020B2B000000C8
:020B2C00001EA9
:020B2D003F7F08
:020B2E003FC9BD
:020B2F003FDAAB
:020B300000665D
:020B3100001DA5
:020B32000015AC
:020B33003FD0B1
:020B3400002897
:020B35003EEF91
:020B3600000DB0
:020B37003FF18C
:020B380000A912
:020B3900000FAB
:020B3A003FC1B9
:020B3B00006553
:020B3C003FE890
:020B3D003F8BEC
:020B3E00002590
:020B3F0001941F
:020B40000013A0
:020B410000783A
:020B4200001E93
:020B43003F2A47
:020B440000149B
:020B45003FD39C
:020B460000208D
:020B4700004567
:020B48003F92DA
:020B4900009614
:020B4A003FF773
:020B4B003FFB6E
:020B4C00002483
:020B4D003F96D1
:020B4E00003570
:020B4F0000A202
:020B50003F7DE7
:020B51003FD390
:020B520000AFF2
:020B53003FD889
:020B54003FC29E
:020B55003F1F40
:020B5600002D70
:020B57003FD687
:020B5800005843
:020B590000DDBD
:020B5A00001E7B
:020B5B003F1A3F
:020B5C003EEB6E
:020B5D003FF85F
:020B5E0000375E
:020B5F0001AEE5
:020B6000000093
:020B6100000092
:020B6200000091
:020B6300000090
:020B640000008F
:020B650000008E
:020B660000008D
:020B670000008C
:020B680000008B
:020B690000008A
:020B6A00000089
:020B6B00000088
:020B6C00000087
:020B6D00000086
:020B6E00000085
:020B6F00000084
:020B7000000083
:020B7100000082
:020B7200000081
:020B7300000080
:020B740000007F
:020B750000007E
:020B760000007D
:020B770000007C
:020B780000007B
:020B790000007A
:020B7A00000079
:020B7B00000078
:020B7C00000077
:020B7D00000076
:020B7E00000075
:020B7F00000074
:020B8000000073
:020B8100000072
:020B8200000071
:020B8300000070
:020B840000006F
:020B850000006E
:020B860000006D
:020B870000006C
:020B880000006B
:020B890000006A
:020B8A00000069
:020B8B00000068
:020B8C00000067
:020B8D00000066
:020B8E00000065
:020B8F00000064
:020B9000000063
:020B9100000062
:020B9200000061
:020B9300000060
:020B940000005F
:020B950000005E
:020B960000005D
:020B970000005C
:020B980000005B
:020B990000005A
:020B9A00000059
:020B9B00000058
:020B9C00000057
:020B9D00000056
:020B9E00000055
:020B9F00000054
:020BA000000053
:020BA100000052
:020BA200000051
:020BA300000050
:020BA40000004F
:020BA50000004E
:020BA60000004D
:020BA70000004C
:020BA80000004B
:020BA90000004A
:020BAA00000049
:020BAB00000048
:020BAC00000047
:020BAD00000046
:020BAE00000045
:020BAF00000044
:020BB000000043
:020BB100000042
:020BB200000041
:020BB300000040
:020BB40000003F
:020BB50000003E
:020BB60000003D
:020BB70000003C
:020BB80000003B
:020BB90000003A
:020BBA00000039
:020BBB00000038
:020BBC00000037
:020BBD00000036
:020BBE00000035
:020BBF00000034
:020BC000000033
:020BC100000032
:020BC200000031
:020BC300000030
:020BC40000002F
:020BC50000002E
:020BC60000002D
:020BC70000002C
:020BC80000002B
:020BC90000002A
:020BCA00000029
:020BCB00000028
:020BCC00000027
:020BCD00000026
:020BCE00000025
:020BCF00000024
:020BD000000023
:020BD100000022
:020BD200000021
:020BD300000020
:020BD40000001F
:020BD50000001E
:020BD60000001D
:020BD70000001C
:020BD80000001B
:020BD90000001A
:020BDA00000019
:020BDB00000018
:020BDC00000017
:020BDD00000016
:020BDE00000015
:020BDF00000014
:020BE000000013
:020BE100000012
:020BE200000011
:020BE300000010
:020BE40000000F
:020BE50000000E
:020BE60000000D
:020BE70000000C
:020BE80000000B
:020BE90000000A
:020BEA00000009
:020BEB00000008
:020BEC00000007
:020BED00000006
:020BEE00000005
:020BEF00000004
:020BF000000003
:020BF100000002
:020BF200000001
:020BF300000000
:020BF4000000FF
:020BF5000000FE
:020BF6000000FD
:020BF7000000FC
:020BF8000000FB
:020BF9000000FA
:020BFA000000F9
:020BFB000000F8
:020BFC000000F7
:020BFD000000F6
:020BFE000000F5
:020BFF000000F4
:020C00000000F2
:020C01000000F1
:020C02000000F0
:020C03000000EF
:020C04000000EE
:020C05000000ED
:020C06000000EC
:020C07000000EB
:020C08000000EA
:020C09000000E9
:020C0A000000E8
:020C0B000000E7
:020C0C000000E6
:020C0D000000E5
:020C0E000000E4
:020C0F000000E3
:020C10000000E2
:020C11000000E1
:020C12000000E0
:020C13000000DF
:020C14000000DE
:020C15000000DD
:020C16000000DC
:020C17000000DB
:020C18000000DA
:020C19000000D9
:020C1A000000D8
:020C1B000000D7
:020C1C000000D6
:020C1D000000D5
:020C1E000000D4
:020C1F000000D3
:020C20000000D2
:020C21000000D1
:020C22000000D0
:020C23000000CF
:020C24000000CE
:020C25000000CD
:020C26000000CC
:020C27000000CB
:020C28000000CA
:020C29000000C9
:020C2A000000C8
:020C2B000000C7
:020C2C000000C6
:020C2D000000C5
:020C2E000000C4
:020C2F000000C3
:020C30000000C2
:020C31000000C1
:020C32000000C0
:020C33000000BF
:020C34000000BE
:020C35000000BD
:020C36000000BC
:020C37000000BB
:020C38000000BA
:020C39000000B9
:020C3A000000B8
:020C3B000000B7
:020C3C000000B6
:020C3D000000B5
:020C3E000000B4
:020C3F000000B3
:020C40000000B2
:020C41000000B1
:020C42000000B0
:020C43000000AF
:020C44000000AE
:020C45000000AD
:020C46000000AC
:020C47000000AB
:020C48000000AA
:020C49000000A9
:020C4A000000A8
:020C4B000000A7
:020C4C000000A6
:020C4D000000A5
:020C4E000000A4
:020C4F000000A3
:020C50000000A2
:020C51000000A1
:020C52000000A0
:020C530000009F
:020C540000009E
:020C550000009D
:020C560000009C
:020C570000009B
:020C580000009A
:020C5900000099
:020C5A00000098
:020C5B00000097
:020C5C00000096
:020C5D00000095
:020C5E00000094
:020C5F00000093
:020C6000000092
:020C6100000091
:020C6200000090
:020C630000008F
:020C640000008E
:020C650000008D
:020C660000008C
:020C670000008B
:020C680000008A
:020C6900000089
:020C6A00000088
:020C6B00000087
:020C6C00000086
:020C6D00000085
:020C6E00000084
:020C6F00000083
:020C7000000082
:020C7100000081
:020C7200000080
:020C730000007F
:020C740000007E
:020C750000007D
:020C760000007C
:020C770000007B
:020C780000007A
:020C7900000079
:020C7A00000078
:020C7B00000077
:020C7C00000076
:020C7D00000075
:020C7E00000074
:020C7F00000073
:020C8000000072
:020C8100000071
:020C8200000070
:020C830000006F
:020C840000006E
:020C850000006D
:020C860000006C
:020C870000006B
:020C880000006A
:020C8900000069
:020C8A00000068
:020C8B00000067
:020C8C00000066
:020C8D00000065
:020C8E00000064
:020C8F00000063
:020C9000000062
:020C9100000061
:020C9200000060
:020C930000005F
:020C940000005E
:020C950000005D
:020C960000005C
:020C970000005B
:020C980000005A
:020C9900000059
:020C9A00000058
:020C9B00000057
:020C9C00000056
:020C9D00000055
:020C9E00000054
:020C9F00000053
:020CA000000052
:020CA100000051
:020CA200000050
:020CA30000004F
:020CA40000004E
:020CA50000004D
:020CA60000004C
:020CA70000004B
:020CA80000004A
:020CA900000049
:020CAA00000048
:020CAB00000047
:020CAC00000046
:020CAD00000045
:020CAE00000044
:020CAF00000043
:020CB000000042
:020CB100000041
:020CB200000040
:020CB30000003F
:020CB40000003E
:020CB50000003D
:020CB60000003C
:020CB70000003B
:020CB80000003A
:020CB900000039
:020CBA00000038
:020CBB00000037
:020CBC00000036
:020CBD00000035
:020CBE00000034
:020CBF00000033
:020CC000000032
:020CC100000031
:020CC200000030
:020CC30000002F
:020CC40000002E
:020CC50000002D
:020CC60000002C
:020CC70000002B
:020CC80000002A
:020CC900000029
:020CCA00000028
:020CCB00000027
:020CCC00000026
:020CCD00000025
:020CCE00000024
:020CCF00000023
:020CD000000022
:020CD100000021
:020CD200000020
:020CD30000001F
:020CD40000001E
:020CD50000001D
:020CD60000001C
:020CD70000001B
:020CD80000001A
:020CD900000019
:020CDA00000018
:020CDB00000017
:020CDC00000016
:020CDD00000015
:020CDE00000014
:020CDF00000013
:020CE000000012
:020CE100000011
:020CE200000010
:020CE30000000F
:020CE40000000E
:020CE50000000D
:020CE60000000C
:020CE70000000B
:020CE80000000A
:020CE900000009
:020CEA00000008
:020CEB00000007
:020CEC00000006
:020CED00000005
:020CEE00000004
:020CEF00000003
:020CF000000002
:020CF100000001
:020CF200000000
:020CF3000000FF
:020CF4000000FE
:020CF5000000FD
:020CF6000000FC
:020CF7000000FB
:020CF8000000FA
:020CF9000000F9
:020CFA000000F8
:020CFB000000F7
:020CFC000000F6
:020CFD000000F5
:020CFE000000F4
:020CFF000000F3
:020D00000000F1
:020D01000000F0
:020D02000000EF
:020D03000000EE
:020D04000000ED
:020D05000000EC
:020D06000000EB
:020D07000000EA
:020D08000000E9
:020D09000000E8
:020D0A000000E7
:020D0B000000E6
:020D0C000000E5
:020D0D000000E4
:020D0E000000E3
:020D0F000000E2
:020D10000000E1
:020D11000000E0
:020D12000000DF
:020D13000000DE
:020D14000000DD
:020D15000000DC
:020D16000000DB
:020D17000000DA
:020D18000000D9
:020D19000000D8
:020D1A000000D7
:020D1B000000D6
:020D1C000000D5
:020D1D000000D4
:020D1E000000D3
:020D1F000000D2
:020D20000000D1
:020D21000000D0
:020D22000000CF
:020D23000000CE
:020D24000000CD
:020D25000000CC
:020D26000000CB
:020D27000000CA
:020D28000000C9
:020D29000000C8
:020D2A000000C7
:020D2B000000C6
:020D2C000000C5
:020D2D000000C4
:020D2E000000C3
:020D2F000000C2
:020D30000000C1
:020D31000000C0
:020D32000000BF
:020D33000000BE
:020D34000000BD
:020D35000000BC
:020D36000000BB
:020D37000000BA
:020D38000000B9
:020D39000000B8
:020D3A000000B7
:020D3B000000B6
:020D3C000000B5
:020D3D000000B4
:020D3E000000B3
:020D3F000000B2
:020D40000000B1
:020D41000000B0
:020D42000000AF
:020D43000000AE
:020D44000000AD
:020D45000000AC
:020D46000000AB
:020D47000000AA
:020D48000000A9
:020D49000000A8
:020D4A000000A7
:020D4B000000A6
:020D4C000000A5
:020D4D000000A4
:020D4E000000A3
:020D4F000000A2
:020D50000000A1
:020D51000000A0
:020D520000009F
:020D530000009E
:020D540000009D
:020D550000009C
:020D560000009B
:020D570000009A
:020D5800000099
:020D5900000098
:020D5A00000097
:020D5B00000096
:020D5C00000095
:020D5D00000094
:020D5E00000093
:020D5F00000092
:020D6000000091
:020D6100000090
:020D620000008F
:020D630000008E
:020D640000008D
:020D650000008C
:020D660000008B
:020D670000008A
:020D6800000089
:020D6900000088
:020D6A00000087
:020D6B00000086
:020D6C00000085
:020D6D00000084
:020D6E00000083
:020D6F00000082
:020D7000000081
:020D7100000080
:020D720000007F
:020D730000007E
:020D740000007D
:020D750000007C
:020D760000007B
:020D770000007A
:020D7800000079
:020D7900000078
:020D7A00000077
:020D7B00000076
:020D7C00000075
:020D7D00000074
:020D7E00000073
:020D7F00000072
:020D8000000071
:020D8100000070
:020D820000006F
:020D830000006E
:020D840000006D
:020D850000006C
:020D860000006B
:020D870000006A
:020D8800000069
:020D8900000068
:020D8A00000067
:020D8B00000066
:020D8C00000065
:020D8D00000064
:020D8E00000063
:020D8F00000062
:020D9000000061
:020D9100000060
:020D920000005F
:020D930000005E
:020D940000005D
:020D950000005C
:020D960000005B
:020D970000005A
:020D9800000059
:020D9900000058
:020D9A00000057
:020D9B00000056
:020D9C00000055
:020D9D00000054
:020D9E00000053
:020D9F00000052
:020DA000000051
:020DA100000050
:020DA20000004F
:020DA30000004E
:020DA40000004D
:020DA50000004C
:020DA60000004B
:020DA70000004A
:020DA800000049
:020DA900000048
:020DAA00000047
:020DAB00000046
:020DAC00000045
:020DAD00000044
:020DAE00000043
:020DAF00000042
:020DB000000041
:020DB100000040
:020DB20000003F
:020DB30000003E
:020DB40000003D
:020DB50000003C
:020DB60000003B
:020DB70000003A
:020DB800000039
:020DB900000038
:020DBA00000037
:020DBB00000036
:020DBC00000035
:020DBD00000034
:020DBE00000033
:020DBF00000032
:020DC000000031
:020DC100000030
:020DC20000002F
:020DC30000002E
:020DC40000002D
:020DC50000002C
:020DC60000002B
:020DC70000002A
:020DC800000029
:020DC900000028
:020DCA00000027
:020DCB00000026
:020DCC00000025
:020DCD00000024
:020DCE00000023
:020DCF00000022
:020DD000000021
:020DD100000020
:020DD20000001F
:020DD30000001E
:020DD40000001D
:020DD50000001C
:020DD60000001B
:020DD70000001A
:020DD800000019
:020DD900000018
:020DDA00000017
:020DDB00000016
:020DDC00000015
:020DDD00000014
:020DDE00000013
:020DDF00000012
:020DE000000011
:020DE100000010
:020DE20000000F
:020DE30000000E
:020DE40000000D
:020DE50000000C
:020DE60000000B
:020DE70000000A
:020DE800000009
:020DE900000008
:020DEA00000007
:020DEB00000006
:020DEC00000005
:020DED00000004
:020DEE00000003
:020DEF00000002
:020DF000000001
:020DF100000000
:020DF2000000FF
:020DF3000000FE
:020DF4000000FD
:020DF5000000FC
:020DF6000000FB
:020DF7000000FA
:020DF8000000F9
:020DF9000000F8
:020DFA000000F7
:020DFB000000F6
:020DFC000000F5
:020DFD000000F4
:020DFE000000F3
:020DFF000000F2
:020E00000000F0
:020E01000000EF
:020E02000000EE
:020E03000000ED
:020E04000000EC
:020E05000000EB
:020E06000000EA
:020E07000000E9
:020E08000000E8
:020E09000000E7
:020E0A000000E6
:020E0B000000E5
:020E0C000000E4
:020E0D000000E3
:020E0E000000E2
:020E0F000000E1
:020E10000000E0
:020E11000000DF
:020E12000000DE
:020E13000000DD
:020E14000000DC
:020E15000000DB
:020E16000000DA
:020E17000000D9
:020E18000000D8
:020E19000000D7
:020E1A000000D6
:020E1B000000D5
:020E1C000000D4
:020E1D000000D3
:020E1E000000D2
:020E1F000000D1
:020E20000000D0
:020E21000000CF
:020E22000000CE
:020E23000000CD
:020E24000000CC
:020E25000000CB
:020E26000000CA
:020E27000000C9
:020E28000000C8
:020E29000000C7
:020E2A000000C6
:020E2B000000C5
:020E2C000000C4
:020E2D000000C3
:020E2E000000C2
:020E2F000000C1
:020E30000000C0
:020E31000000BF
:020E32000000BE
:020E33000000BD
:020E34000000BC
:020E35000000BB
:020E36000000BA
:020E37000000B9
:020E38000000B8
:020E39000000B7
:020E3A000000B6
:020E3B000000B5
:020E3C000000B4
:020E3D000000B3
:020E3E000000B2
:020E3F000000B1
:020E40000000B0
:020E41000000AF
:020E42000000AE
:020E43000000AD
:020E44000000AC
:020E45000000AB
:020E46000000AA
:020E47000000A9
:020E48000000A8
:020E49000000A7
:020E4A000000A6
:020E4B000000A5
:020E4C000000A4
:020E4D000000A3
:020E4E000000A2
:020E4F000000A1
:020E50000000A0
:020E510000009F
:020E520000009E
:020E530000009D
:020E540000009C
:020E550000009B
:020E560000009A
:020E5700000099
:020E5800000098
:020E5900000097
:020E5A00000096
:020E5B00000095
:020E5C00000094
:020E5D00000093
:020E5E00000092
:020E5F00000091
:020E6000000090
:020E610000008F
:020E620000008E
:020E630000008D
:020E640000008C
:020E650000008B
:020E660000008A
:020E6700000089
:020E6800000088
:020E6900000087
:020E6A00000086
:020E6B00000085
:020E6C00000084
:020E6D00000083
:020E6E00000082
:020E6F00000081
:020E7000000080
:020E710000007F
:020E720000007E
:020E730000007D
:020E740000007C
:020E750000007B
:020E760000007A
:020E7700000079
:020E7800000078
:020E7900000077
:020E7A00000076
:020E7B00000075
:020E7C00000074
:020E7D00000073
:020E7E00000072
:020E7F00000071
:020E8000000070
:020E810000006F
:020E820000006E
:020E830000006D
:020E840000006C
:020E850000006B
:020E860000006A
:020E8700000069
:020E8800000068
:020E8900000067
:020E8A00000066
:020E8B00000065
:020E8C00000064
:020E8D00000063
:020E8E00000062
:020E8F00000061
:020E9000000060
:020E910000005F
:020E920000005E
:020E930000005D
:020E940000005C
:020E950000005B
:020E960000005A
:020E9700000059
:020E9800000058
:020E9900000057
:020E9A00000056
:020E9B00000055
:020E9C00000054
:020E9D00000053
:020E9E00000052
:020E9F00000051
:020EA000000050
:020EA10000004F
:020EA20000004E
:020EA30000004D
:020EA40000004C
:020EA50000004B
:020EA60000004A
:020EA700000049
:020EA800000048
:020EA900000047
:020EAA00000046
:020EAB00000045
:020EAC00000044
:020EAD00000043
:020EAE00000042
:020EAF00000041
:020EB000000040
:020EB10000003F
:020EB20000003E
:020EB30000003D
:020EB40000003C
:020EB50000003B
:020EB60000003A
:020EB700000039
:020EB800000038
:020EB900000037
:020EBA00000036
:020EBB00000035
:020EBC00000034
:020EBD00000033
:020EBE00000032
:020EBF00000031
:020EC000000030
:020EC10000002F
:020EC20000002E
:020EC30000002D
:020EC40000002C
:020EC50000002B
:020EC60000002A
:020EC700000029
:020EC800000028
:020EC900000027
:020ECA00000026
:020ECB00000025
:020ECC00000024
:020ECD00000023
:020ECE00000022
:020ECF00000021
:020ED000000020
:020ED10000001F
:020ED20000001E
:020ED30000001D
:020ED40000001C
:020ED50000001B
:020ED60000001A
:020ED700000019
:020ED800000018
:020ED900000017
:020EDA00000016
:020EDB00000015
:020EDC00000014
:020EDD00000013
:020EDE00000012
:020EDF00000011
:020EE000000010
:020EE10000000F
:020EE20000000E
:020EE30000000D
:020EE40000000C
:020EE50000000B
:020EE60000000A
:020EE700000009
:020EE800000008
:020EE900000007
:020EEA00000006
:020EEB00000005
:020EEC00000004
:020EED00000003
:020EEE00000002
:020EEF00000001
:020EF000000000
:020EF1000000FF
:020EF2000000FE
:020EF3000000FD
:020EF4000000FC
:020EF5000000FB
:020EF6000000FA
:020EF7000000F9
:020EF8000000F8
:020EF9000000F7
:020EFA000000F6
:020EFB000000F5
:020EFC000000F4
:020EFD000000F3
:020EFE000000F2
:020EFF000000F1
:020F00000000EF
:020F01000000EE
:020F02000000ED
:020F03000000EC
:020F04000000EB
:020F05000000EA
:020F06000000E9
:020F07000000E8
:020F08000000E7
:020F09000000E6
:020F0A000000E5
:020F0B000000E4
:020F0C000000E3
:020F0D000000E2
:020F0E000000E1
:020F0F000000E0
:020F10000000DF
:020F11000000DE
:020F12000000DD
:020F13000000DC
:020F14000000DB
:020F15000000DA
:020F16000000D9
:020F17000000D8
:020F18000000D7
:020F19000000D6
:020F1A000000D5
:020F1B000000D4
:020F1C000000D3
:020F1D000000D2
:020F1E000000D1
:020F1F000000D0
:020F20000000CF
:020F21000000CE
:020F22000000CD
:020F23000000CC
:020F24000000CB
:020F25000000CA
:020F26000000C9
:020F27000000C8
:020F28000000C7
:020F29000000C6
:020F2A000000C5
:020F2B000000C4
:020F2C000000C3
:020F2D000000C2
:020F2E000000C1
:020F2F000000C0
:020F30000000BF
:020F31000000BE
:020F32000000BD
:020F33000000BC
:020F34000000BB
:020F35000000BA
:020F36000000B9
:020F37000000B8
:020F38000000B7
:020F39000000B6
:020F3A000000B5
:020F3B000000B4
:020F3C000000B3
:020F3D000000B2
:020F3E000000B1
:020F3F000000B0
:020F40000000AF
:020F41000000AE
:020F42000000AD
:020F43000000AC
:020F44000000AB
:020F45000000AA
:020F46000000A9
:020F47000000A8
:020F48000000A7
:020F49000000A6
:020F4A000000A5
:020F4B000000A4
:020F4C000000A3
:020F4D000000A2
:020F4E000000A1
:020F4F000000A0
:020F500000009F
:020F510000009E
:020F520000009D
:020F530000009C
:020F540000009B
:020F550000009A
:020F5600000099
:020F5700000098
:020F5800000097
:020F5900000096
:020F5A00000095
:020F5B00000094
:020F5C00000093
:020F5D00000092
:020F5E00000091
:020F5F00000090
:020F600000008F
:020F610000008E
:020F620000008D
:020F630000008C
:020F640000008B
:020F650000008A
:020F6600000089
:020F6700000088
:020F6800000087
:020F6900000086
:020F6A00000085
:020F6B00000084
:020F6C00000083
:020F6D00000082
:020F6E00000081
:020F6F00000080
:020F700000007F
:020F710000007E
:020F720000007D
:020F730000007C
:020F740000007B
:020F750000007A
:020F7600000079
:020F7700000078
:020F7800000077
:020F7900000076
:020F7A00000075
:020F7B00000074
:020F7C00000073
:020F7D00000072
:020F7E00000071
:020F7F00000070
:020F800000006F
:020F810000006E
:020F820000006D
:020F830000006C
:020F840000006B
:020F850000006A
:020F8600000069
:020F8700000068
:020F8800000067
:020F8900000066
:020F8A00000065
:020F8B00000064
:020F8C00000063
:020F8D00000062
:020F8E00000061
:020F8F00000060
:020F900000005F
:020F910000005E
:020F920000005D
:020F930000005C
:020F940000005B
:020F950000005A
:020F9600000059
:020F9700000058
:020F9800000057
:020F9900000056
:020F9A00000055
:020F9B00000054
:020F9C00000053
:020F9D00000052
:020F9E00000051
:020F9F00000050
