:02000000001FDF
:0200010000DC21
:02000200009D5F
:020003000029D2
:020004000054A6
:02000500005D9C
:02000600006197
:02000700004AAD
:02000800004DA9
:02000900005F96
:02000A000050A4
:02000B00004EA5
:02000C00005999
:02000D00008A67
:02000E00008E62
:02000F00007679
:02001000008767
:02001100007974
:020012000049A3
:02001300003CAF
:02001400005892
:0200150000C425
:0200160000FFE9
:0200170000FEE9
:0200180000FFE7
:0200190000FFE6
:02001A0000FFE5
:02001B0000FFE4
:02001C0000FFE3
:02001D0000FFE2
:02001E0000FFE1
:02001F0000FFE0
:0200200000FFDF
:0200210000FFDE
:0200220000FFDD
:0200230000FFDC
:0200240000FFDB
:0200250000FFDA
:0200260000FFD9
:0200270000FFD8
:0200280000FFD7
:0200290000FFD6
:02002A0000FFD5
:02002B0000FFD4
:02002C0000FFD3
:02002D0000FFD2
:02002E0000FFD1
:02002F0000FFD0
:02003000001FAF
:0200310000DCF1
:02003200009D2F
:020033000029A2
:02003400005476
:02003500005D6C
:02003600006167
:02003700004A7D
:02003800004D79
:02003900005F66
:02003A00005074
:02003B00004E75
:02003C00005969
:02003D00008A37
:02003E00008E32
:02003F00007649
:02004000008737
:02004100007944
:02004200004973
:02004300003C7F
:02004400005862
:0200450000C4F5
:0200460000FFB9
:0200470000FEB9
:0200480000FFB7
:0200490000FFB6
:02004A0000FFB5
:02004B0000FFB4
:02004C0000FFB3
:02004D0000FFB2
:02004E0000FFB1
:02004F0000FFB0
:0200500000FFAF
:0200510000FFAE
:0200520000FFAD
:0200530000FFAC
:0200540000FFAB
:0200550000FFAA
:0200560000FFA9
:0200570000FFA8
:0200580000FFA7
:0200590000FFA6
:02005A0000FFA5
:02005B0000FFA4
:02005C0000FFA3
:02005D0000FFA2
:02005E0000FFA1
:02005F0000FFA0
:02006000000D91
:0200610000326B
:0200620000DEBE
:0200630000FC9F
:0200640000FD9D
:02006500008613
:02006600001E7A
:02006700003364
:02006800006234
:02006900007124
:02006A00005044
:02006B0000682B
:02006C0000830F
:02006D00004D44
:02006E00005040
:02006F00004A45
:02007000004C42
:02007100006D20
:0200720000414B
:0200730000711A
:02007400004545
:02007500005E2B
:02007600003F49
:02007700005532
:02007800003B4B
:0200790000483D
:02007A00008FF5
:02007B00007112
:02007C00009DE5
:02007D00008100
:02007E00006818
:02007F00007807
:02008000007A04
:0200810000A5D8
:020082000082FA
:0200830000502B
:0200840000601A
:02008500003C3D
:02008600003B3D
:02008700003740
:02008800005620
:02008900006B0A
:02008A0000D0A4
:02008B0000FA79
:02008C0000FD75
:02008D0000FD74
:02008E0000FD73
:02008F0000FF70
:02009000000E60
:02009100001657
:02009200001458
:0200930000313A
:0200940000D199
:0200950000FE6B
:0200960000FF69
:0200970000FA6D
:0200980000FB6B
:0200990000FF66
:02009A0000FA6A
:02009B00005F04
:02009C00002042
:02009D00001B46
:02009E00001D43
:02009F00003629
:0200A000005509
:0200A100006DF0
:0200A2000078E4
:0200A3000079E2
:0200A4000086D4
:0200A500004910
:0200A6000064F4
:0200A7000067F0
:0200A800006CEA
:0200A900009CB9
:0200AA00005CF8
:0200AB00004112
:0200AC000058FA
:0200AD000057FA
:0200AE000068E8
:0200AF00003C13
:0200B000005EF0
:0200B100004C01
:0200B200004FFD
:0200B300007DCE
:0200B400002A20
:0200B500002B1E
:0200B6000084C4
:0200B700007DCA
:0200B8000052F4
:0200B900004104
:0200BA000063E1
:0200BB00004CF7
:0200BC000056EC
:0200BD00003B06
:0200BE00003A06
:0200BF00004BF4
:0200C000004DF1
:0200C10000310C
:0200C200001725
:0200C300003209
:0200C4000074C6
:0200C500008EAB
:0200C6000052E6
:0200C700007FB8
:0200C80000A591
:0200C900007EB7
:0200CA000073C1
:0200CB0000979C
:0200CC000051E1
:0200CD000072BF
:0200CE000085AB
:0200CF000068C7
:0200D0000081AD
:0200D100008AA3
:0200D20000A08C
:0200D30000B279
:0200D400007AB0
:0200D500005ECB
:0200D600003CEC
:0200D700004ADD
:0200D8000074B2
:0200D900005ACB
:0200DA000038EC
:0200DB000046DD
:0200DC00003CE6
:0200DD000031F0
:0200DE000026FA
:0200DF00004CD3
:0200E000005AC4
:0200E100006CB1
:0200E2000058C4
:0200E300008B90
:0200E40000DC3E
:0200E50000FF1A
:0200E60000FA1E
:0200E70000FB1C
:0200E80000FD19
:0200E90000FD18
:0200EA0000FD17
:0200EB0000FD16
:0200EC0000FD15
:0200ED0000FD14
:0200EE0000FE12
:0200EF0000FF10
:0200F000001FEF
:0200F10000DC31
:0200F200009D6F
:0200F3000029E2
:0200F4000054B6
:0200F500005DAC
:0200F6000061A7
:0200F700004ABD
:0200F800004DB9
:0200F900005FA6
:0200FA000050B4
:0200FB00004EB5
:0200FC000059A9
:0200FD00008A77
:0200FE00008E72
:0200FF00007689
:02010000008776
:02010100007983
:020102000049B2
:02010300003CBE
:020104000058A1
:0201050000C434
:0201060000FFF8
:0201070000FEF8
:0201080000FFF6
:0201090000FFF5
:02010A0000FFF4
:02010B0000FFF3
:02010C0000FFF2
:02010D0000FFF1
:02010E0000FFF0
:02010F0000FFEF
:0201100000FFEE
:0201110000FFED
:0201120000FFEC
:0201130000FFEB
:0201140000FFEA
:0201150000FFE9
:0201160000FFE8
:0201170000FFE7
:0201180000FFE6
:0201190000FFE5
:02011A0000FFE4
:02011B0000FFE3
:02011C0000FFE2
:02011D0000FFE1
:02011E0000FFE0
:02011F0000FFDF
:02012000001FBE
:0201210000DC00
:02012200009D3E
:020123000029B1
:02012400005485
:02012500005D7B
:02012600006176
:02012700004A8C
:02012800004D88
:02012900005F75
:02012A00005083
:02012B00004E84
:02012C00005978
:02012D00008A46
:02012E00008E41
:02012F00007658
:02013000008746
:02013100007953
:02013200004982
:02013300003C8E
:02013400005871
:0201350000C404
:0201360000FFC8
:0201370000FEC8
:0201380000FFC6
:0201390000FFC5
:02013A0000FFC4
:02013B0000FFC3
:02013C0000FFC2
:02013D0000FFC1
:02013E0000FFC0
:02013F0000FFBF
:020140000016A7
:0201410000B408
:02014200003982
:02014300002793
:02014400002C8D
:02014500003F79
:0201460000397E
:02014700003C7A
:02014800004075
:0201490000496B
:02014A00005D56
:02014B0000545E
:02014C0000763B
:02014D0000862A
:02014E00007F30
:02014F00007E30
:02015000006C41
:02015100007636
:02015200005754
:02015300003773
:02015400004861
:02015500007236
:0201560000FCAB
:0201570000FDA9
:0201580000FFA6
:0201590000FFA5
:02015A0000FFA4
:02015B0000FFA3
:02015C0000FFA2
:02015D0000FFA1
:02015E0000FFA0
:02015F0000FF9F
:0201600000FF9E
:0201610000FF9D
:0201620000FF9C
:0201630000FF9B
:0201640000FF9A
:0201650000FF99
:0201660000FF98
:0201670000FF97
:0201680000FF96
:0201690000FF95
:02016A0000FF94
:02016B0000FF93
:02016C0000FF92
:02016D0000FF91
:02016E0000FF90
:02016F0000FF8F
:02017000001677
:0201710000B4D8
:02017200003952
:02017300002763
:02017400002C5D
:02017500003F49
:0201760000394E
:02017700003C4A
:02017800004045
:0201790000493B
:02017A00005D26
:02017B0000542E
:02017C0000760B
:02017D000086FA
:02017E00007F00
:02017F00007E00
:02018000006C11
:02018100007606
:02018200005724
:02018300003743
:02018400004831
:02018500007206
:0201860000FC7B
:0201870000FD79
:0201880000FF76
:0201890000FF75
:02018A0000FF74
:02018B0000FF73
:02018C0000FF72
:02018D0000FF71
:02018E0000FF70
:02018F0000FF6F
:0201900000FF6E
:0201910000FF6D
:0201920000FF6C
:0201930000FF6B
:0201940000FF6A
:0201950000FF69
:0201960000FF68
:0201970000FF67
:0201980000FF66
:0201990000FF65
:02019A0000FF64
:02019B0000FF63
:02019C0000FF62
:02019D0000FF61
:02019E0000FF60
:02019F0000FF5F
:0201A000000B52
:0201A100001F3D
:0201A20000D487
:0201A30000FA60
:0201A40000D980
:0201A500003028
:0201A600002136
:0201A700004511
:0201A800003C19
:0201A900003321
:0201AA00004F04
:0201AB000066EC
:0201AC00005100
:0201AD000053FD
:0201AE00003F10
:0201AF00004806
:0201B0000065E8
:0201B100003D0F
:0201B200004CFF
:0201B3000056F4
:0201B4000063E6
:0201B500004602
:0201B600006BDC
:0201B700004FF7
:0201B8000049FC
:0201B9000083C1
:0201BA000093B0
:0201BB00008EB4
:0201BC000097AA
:0201BD000088B8
:0201BE000072CD
:0201BF000068D6
:0201C000007BC2
:0201C100007BC1
:0201C2000093A8
:0201C300007EBC
:0201C4000049F0
:0201C5000042F6
:0201C600003DFA
:0201C7000049ED
:0201C8000043F2
:0201C9000062D2
:0201CA000064CF
:0201CB0000E44E
:0201CC0000FD34
:0201CD0000FD33
:0201CE0000FD32
:0201CF0000FD31
:0201D000000B22
:0201D100001418
:0201D200001219
:0201D300001F0B
:0201D40000BD6C
:0201D50000FF29
:0201D60000FF28
:0201D70000F432
:0201D80000F530
:0201D90000FF25
:0201DA0000D350
:0201DB00001D05
:0201DC00001809
:0201DD000021FF
:0201DE000033EC
:0201DF000046D8
:0201E0000075A8
:0201E100006AB2
:0201E2000049D2
:0201E3000071A9
:0201E400002BEE
:0201E500004DCB
:0201E600006EA9
:0201E7000067AF
:0201E8000061B4
:0201E90000878D
:0201EA00004BC8
:0201EB00005DB5
:0201EC00004DC4
:0201ED000051BF
:0201EE00002DE2
:0201EF000033DB
:0201F0000061AC
:0201F1000039D3
:0201F200008487
:0201F3000052B8
:0201F400002BDE
:0201F5000052B6
:0201F600008780
:0201F700006A9C
:0201F800003CC9
:0201F900004DB7
:0201FA000059AA
:0201FB00003DC5
:0201FC000040C1
:0201FD000040C0
:0201FE00006996
:0201FF000054AA
:020200000034C8
:02020100002FCC
:02020200006397
:02020300008E6B
:02020400008E6A
:02020500009E59
:02020600007A7C
:02020700008E67
:0202080000AE46
:02020900009E55
:02020A00007E74
:02020B00008A67
:02020C0000717F
:02020D00006D82
:02020E00005797
:02020F00009C51
:02021000004F9D
:0202110000608B
:0202120000B733
:02021300009950
:0202140000A147
:02021500009552
:02021600006D79
:020217000039AC
:02021800004F95
:0202190000756E
:02021A00004D95
:02021B00002CB5
:02021C00003AA6
:02021D0000429D
:02021E000026B8
:02021F00004796
:0202200000409C
:02022100004E8D
:0202220000706A
:02022300005881
:02022400008256
:0202250000EFE8
:0202260000FADC
:0202270000F6DF
:0202280000FDD7
:0202290000FDD6
:02022A0000FDD5
:02022B0000FDD4
:02022C0000FDD3
:02022D0000FDD2
:02022E0000FED0
:02022F0000FECF
:020230000016B6
:0202310000B417
:02023200003991
:020233000027A2
:02023400002C9C
:02023500003F88
:0202360000398D
:02023700003C89
:02023800004084
:0202390000497A
:02023A00005D65
:02023B0000546D
:02023C0000764A
:02023D00008639
:02023E00007F3F
:02023F00007E3F
:02024000006C50
:02024100007645
:02024200005763
:02024300003782
:02024400004870
:02024500007245
:0202460000FCBA
:0202470000FDB8
:0202480000FFB5
:0202490000FFB4
:02024A0000FFB3
:02024B0000FFB2
:02024C0000FFB1
:02024D0000FFB0
:02024E0000FFAF
:02024F0000FFAE
:0202500000FFAD
:0202510000FFAC
:0202520000FFAB
:0202530000FFAA
:0202540000FFA9
:0202550000FFA8
:0202560000FFA7
:0202570000FFA6
:0202580000FFA5
:0202590000FFA4
:02025A0000FFA3
:02025B0000FFA2
:02025C0000FFA1
:02025D0000FFA0
:02025E0000FF9F
:02025F0000FF9E
:02026000001686
:0202610000B4E7
:02026200003961
:02026300002772
:02026400002C6C
:02026500003F58
:0202660000395D
:02026700003C59
:02026800004054
:0202690000494A
:02026A00005D35
:02026B0000543D
:02026C0000761A
:02026D00008609
:02026E00007F0F
:02026F00007E0F
:02027000006C20
:02027100007615
:02027200005733
:02027300003752
:02027400004840
:02027500007215
:0202760000FC8A
:0202770000FD88
:0202780000FF85
:0202790000FF84
:02027A0000FF83
:02027B0000FF82
:02027C0000FF81
:02027D0000FF80
:02027E0000FF7F
:02027F0000FF7E
:02028000001864
:020281000096E5
:02028200002D4D
:02028300002455
:02028400001C5C
:02028500002B4C
:02028600002E48
:02028700003045
:02028800005321
:02028900005320
:02028A0000442E
:02028B0000571A
:02028C000074FC
:02028D000076F9
:02028E00006509
:02028F00006FFE
:020290000072FA
:02029100005912
:02029200006901
:02029300003732
:02029400003830
:02029500005017
:0202960000CD99
:0202970000FD68
:0202980000FF65
:0202990000FF64
:02029A0000FF63
:02029B0000FF62
:02029C0000FF61
:02029D0000FF60
:02029E0000FF5F
:02029F0000FF5E
:0202A00000FF5D
:0202A10000FF5C
:0202A20000FF5B
:0202A30000FF5A
:0202A40000FF59
:0202A50000FF58
:0202A60000FF57
:0202A70000FF56
:0202A80000FF55
:0202A90000FF54
:0202AA0000FF53
:0202AB0000FF52
:0202AC0000FF51
:0202AD0000FF50
:0202AE0000FF4F
:0202AF0000FF4E
:0202B000001834
:0202B1000096B5
:0202B200002D1D
:0202B300002425
:0202B400001C2C
:0202B500002B1C
:0202B600002E18
:0202B700003015
:0202B8000053F1
:0202B9000053F0
:0202BA000044FE
:0202BB000057EA
:0202BC000074CC
:0202BD000076C9
:0202BE000065D9
:0202BF00006FCE
:0202C0000072CA
:0202C1000059E2
:0202C2000069D1
:0202C300003702
:0202C400003800
:0202C5000050E7
:0202C60000CD69
:0202C70000FD38
:0202C80000FF35
:0202C90000FF34
:0202CA0000FF33
:0202CB0000FF32
:0202CC0000FF31
:0202CD0000FF30
:0202CE0000FF2F
:0202CF0000FF2E
:0202D00000FF2D
:0202D10000FF2C
:0202D20000FF2B
:0202D30000FF2A
:0202D40000FF29
:0202D50000FF28
:0202D60000FF27
:0202D70000FF26
:0202D80000FF25
:0202D90000FF24
:0202DA0000FF23
:0202DB0000FF22
:0202DC0000FF21
:0202DD0000FF20
:0202DE0000FF1F
:0202DF0000FF1E
:0202E000000814
:0202E100000C0F
:0202E20000BE5C
:0202E30000FD1C
:0202E400007E9A
:0202E500000D0A
:0202E6000030E6
:0202E7000023F2
:0202E8000022F2
:0202E900002DE6
:0202EA00006BA7
:0202EB00003DD4
:0202EC000039D7
:0202ED00003CD3
:0202EE000037D7
:0202EF00004CC1
:0202F000005DAF
:0202F100002FDC
:0202F2000048C2
:0202F300004BBE
:0202F400004ABE
:0202F5000060A7
:0202F600005DA9
:0202F7000048BD
:0202F800006D97
:0202F90000847F
:0202FA00008C76
:0202FB0000877A
:0202FC00009070
:0202FD00007F80
:0202FE00007985
:0202FF00008578
:0203000000817A
:0203010000609A
:02030200006E8B
:02030300008375
:02030400006E89
:02030500002BCB
:02030600003CB9
:02030700004DA7
:020308000049AA
:020309000048AA
:02030A0000638E
:02030B0000CA26
:02030C0000FDF2
:02030D0000FDF1
:02030E0000FDF0
:02030F0000FDEF
:02031000000BE0
:020311000011D9
:02031200000FDA
:02031300001ECA
:0203140000AD3A
:0203150000FFE7
:0203160000FFE6
:0203170000F4F0
:0203180000FAE9
:0203190000F0F2
:02031A0000677A
:02031B000010D0
:02031C000012CD
:02031D000025B9
:02031E000036A7
:02031F00005686
:0203200000419A
:020321000031A9
:02032200004396
:02032300003B9D
:020324000023B4
:02032500006472
:0203260000686D
:02032700006173
:02032800007162
:02032900005E74
:02032A00004B86
:02032B00005C74
:02032C0000547B
:02032D00003698
:02032E00003A93
:02032F00005379
:02033000006368
:02033100006B5F
:02033200003A8F
:02033300003890
:0203340000497E
:02033500006165
:02033600006461
:0203370000497B
:02033800005073
:02033900005E64
:02033A00004879
:02033B00005A66
:02033C00007B44
:02033D00006757
:02033E0000625B
:02033F00003B81
:02034000003487
:02034100005961
:02034200008039
:02034300009424
:02034400007C3B
:0203450000A412
:02034600009A1B
:0203470000892B
:0203480000AB08
:02034900009C16
:02034A0000743D
:02034B0000951B
:02034C00006E41
:02034D0000743A
:02034E00004865
:02034F00009913
:02035000009714
:02035100003C6E
:02035200006544
:0203530000AEFA
:02035400008C1B
:02035500007F27
:0203560000AAFB
:02035700006C38
:02035800002F74
:0203590000346E
:02035A00005D44
:02035B0000415F
:02035C0000336C
:02035D00003D61
:02035E00004558
:02035F00004755
:02036000004556
:02036100004456
:02036200004F4A
:02036300006F29
:02036400003D5A
:02036500009105
:0203660000F2A3
:0203670000F59F
:0203680000FB98
:0203690000FD95
:02036A0000FD94
:02036B0000FD93
:02036C0000FD92
:02036D0000FD91
:02036E0000FD90
:02036F0000FD8F
:02037000001873
:020371000096F4
:02037200002D5C
:02037300002464
:02037400001C6B
:02037500002B5B
:02037600002E57
:02037700003054
:02037800005330
:0203790000532F
:02037A0000443D
:02037B00005729
:02037C0000740B
:02037D00007608
:02037E00006518
:02037F00006F0D
:02038000007209
:02038100005921
:02038200006910
:02038300003741
:0203840000383F
:02038500005026
:0203860000CDA8
:0203870000FD77
:0203880000FF74
:0203890000FF73
:02038A0000FF72
:02038B0000FF71
:02038C0000FF70
:02038D0000FF6F
:02038E0000FF6E
:02038F0000FF6D
:0203900000FF6C
:0203910000FF6B
:0203920000FF6A
:0203930000FF69
:0203940000FF68
:0203950000FF67
:0203960000FF66
:0203970000FF65
:0203980000FF64
:0203990000FF63
:02039A0000FF62
:02039B0000FF61
:02039C0000FF60
:02039D0000FF5F
:02039E0000FF5E
:02039F0000FF5D
:0203A000001843
:0203A1000096C4
:0203A200002D2C
:0203A300002434
:0203A400001C3B
:0203A500002B2B
:0203A600002E27
:0203A700003024
:0203A800005300
:0203A9000053FF
:0203AA0000440D
:0203AB000057F9
:0203AC000074DB
:0203AD000076D8
:0203AE000065E8
:0203AF00006FDD
:0203B0000072D9
:0203B1000059F1
:0203B2000069E0
:0203B300003711
:0203B40000380F
:0203B5000050F6
:0203B60000CD78
:0203B70000FD47
:0203B80000FF44
:0203B90000FF43
:0203BA0000FF42
:0203BB0000FF41
:0203BC0000FF40
:0203BD0000FF3F
:0203BE0000FF3E
:0203BF0000FF3D
:0203C000001D1E
:0203C1000080BA
:0203C200002217
:0203C300001E1A
:0203C400001B1C
:0203C500002313
:0203C600002411
:0203C700003FF5
:0203C8000060D3
:0203C9000036FC
:0203CA000045EC
:0203CB000051DF
:0203CC000059D6
:0203CD000052DC
:0203CE00005AD3
:0203CF00005DCF
:0203D0000072B9
:0203D100005FCB
:0203D2000053D6
:0203D300004BDD
:0203D4000031F6
:0203D5000046E0
:0203D60000A184
:0203D70000F92B
:0203D80000FF24
:0203D90000FF23
:0203DA0000FF22
:0203DB0000FF21
:0203DC0000FF20
:0203DD0000FF1F
:0203DE0000FF1E
:0203DF0000FF1D
:0203E00000FF1C
:0203E10000FF1B
:0203E20000FF1A
:0203E30000FF19
:0203E40000FF18
:0203E50000FF17
:0203E60000FF16
:0203E70000FF15
:0203E80000FF14
:0203E90000FF13
:0203EA0000FF12
:0203EB0000FF11
:0203EC0000FF10
:0203ED0000FF0F
:0203EE0000FF0E
:0203EF0000FF0D
:0203F000001DEE
:0203F10000808A
:0203F2000022E7
:0203F300001EEA
:0203F400001BEC
:0203F5000023E3
:0203F6000024E1
:0203F700003FC5
:0203F8000060A3
:0203F9000036CC
:0203FA000045BC
:0203FB000051AF
:0203FC000059A6
:0203FD000052AC
:0203FE00005AA3
:0203FF00005D9F
:02040000007288
:02040100005F9A
:020402000053A5
:02040300004BAC
:020404000031C5
:020405000046AF
:0204060000A153
:0204070000F9FA
:0204080000FFF3
:0204090000FFF2
:02040A0000FFF1
:02040B0000FFF0
:02040C0000FFEF
:02040D0000FFEE
:02040E0000FFED
:02040F0000FFEC
:0204100000FFEB
:0204110000FFEA
:0204120000FFE9
:0204130000FFE8
:0204140000FFE7
:0204150000FFE6
:0204160000FFE5
:0204170000FFE4
:0204180000FFE3
:0204190000FFE2
:02041A0000FFE1
:02041B0000FFE0
:02041C0000FFDF
:02041D0000FFDE
:02041E0000FFDD
:02041F0000FFDC
:020420000009D1
:020421000005D4
:0204220000C018
:0204230000F2E5
:02042400003D99
:020425000013C2
:02042600001FB5
:02042700001FB4
:02042800001FB3
:02042900003B96
:02042A0000319F
:02042B00002AA5
:02042C00003698
:02042D00003F8E
:02042E00003696
:02042F00004883
:02043000002AA0
:02043100003099
:02043200004682
:02043300004D7A
:02043400006D59
:02043500006164
:02043600004480
:02043700005271
:02043800005A68
:0204390000863B
:02043A00009030
:02043B0000724D
:02043C0000744A
:02043D00007746
:02043E00008F2D
:02043F0000714A
:02044000007D3D
:02044100006554
:02044200005068
:02044300008B2C
:02044400005E58
:02044500005362
:02044600001E96
:02044700002F84
:02044800004171
:0204490000446D
:02044A00003F71
:02044B0000951A
:02044C0000FCB2
:02044D0000FDB0
:02044E0000FDAF
:02044F0000FDAE
:02045000000AA0
:02045100000D9C
:02045200000D9B
:02045300001E89
:0204540000980E
:0204550000FFA6
:0204560000FFA5
:0204570000F7AC
:0204580000FFA3
:02045900008819
:02045A0000059B
:02045B00001986
:02045C00001A84
:02045D00001F7E
:02045E00005547
:02045F00003E5D
:02046000002179
:02046100002871
:02046200003860
:02046300001D7A
:02046400004D49
:02046500006D28
:02046600006A2A
:0204670000573C
:02046800005C36
:0204690000335E
:02046A00004C44
:02046B00004F40
:02046C0000305E
:02046D00003954
:02046E0000523A
:02046F00005239
:02047000005D2D
:02047100005E2B
:02047200002B5D
:02047300003453
:0204740000582E
:02047500006322
:02047600004B39
:02047700005033
:02047800007C06
:02047900006C15
:02047A0000453B
:02047B00004D32
:02047C0000413D
:02047D00007409
:02047E00005725
:02047F00005F1C
:02048000004C2E
:02048100007504
:02048200006E0A
:020483000091E6
:020484000079FD
:02048500009FD6
:02048600008AEA
:020487000083F0
:020488000090E2
:020489000086EB
:02048A000077F9
:02048B00007CF3
:02048C000076F8
:02048D000086E7
:02048E00005418
:02048F00008BE0
:02049000008DDD
:02049100007DEC
:02049200004424
:020493000075F2
:0204940000AABC
:02049500007EE7
:02049600007FE5
:0204970000A1C2
:020498000065FD
:02049900002A37
:02049A00002C34
:02049B00004E11
:02049C00004519
:02049D00003B22
:02049E00004715
:02049F00004D0E
:0204A000004317
:0204A100004316
:0204A200005008
:0204A300006DEA
:0204A400004A0C
:0204A50000460F
:0204A60000BF95
:0204A70000FF54
:0204A80000FC56
:0204A90000FD54
:0204AA0000FD53
:0204AB0000FD52
:0204AC0000FD51
:0204AD0000FD50
:0204AE0000FD4F
:0204AF0000FD4E
:0204B000001D2D
:0204B1000080C9
:0204B200002226
:0204B300001E29
:0204B400001B2B
:0204B500002322
:0204B600002420
:0204B700003F04
:0204B8000060E2
:0204B90000360B
:0204BA000045FB
:0204BB000051EE
:0204BC000059E5
:0204BD000052EB
:0204BE00005AE2
:0204BF00005DDE
:0204C0000072C8
:0204C100005FDA
:0204C2000053E5
:0204C300004BEC
:0204C400003105
:0204C5000046EF
:0204C60000A193
:0204C70000F93A
:0204C80000FF33
:0204C90000FF32
:0204CA0000FF31
:0204CB0000FF30
:0204CC0000FF2F
:0204CD0000FF2E
:0204CE0000FF2D
:0204CF0000FF2C
:0204D00000FF2B
:0204D10000FF2A
:0204D20000FF29
:0204D30000FF28
:0204D40000FF27
:0204D50000FF26
:0204D60000FF25
:0204D70000FF24
:0204D80000FF23
:0204D90000FF22
:0204DA0000FF21
:0204DB0000FF20
:0204DC0000FF1F
:0204DD0000FF1E
:0204DE0000FF1D
:0204DF0000FF1C
:0204E000001DFD
:0204E100008099
:0204E2000022F6
:0204E300001EF9
:0204E400001BFB
:0204E5000023F2
:0204E6000024F0
:0204E700003FD4
:0204E8000060B2
:0204E9000036DB
:0204EA000045CB
:0204EB000051BE
:0204EC000059B5
:0204ED000052BB
:0204EE00005AB2
:0204EF00005DAE
:0204F000007298
:0204F100005FAA
:0204F2000053B5
:0204F300004BBC
:0204F4000031D5
:0204F5000046BF
:0204F60000A163
:0204F70000F90A
:0204F80000FF03
:0204F90000FF02
:0204FA0000FF01
:0204FB0000FF00
:0204FC0000FFFF
:0204FD0000FFFE
:0204FE0000FFFD
:0204FF0000FFFC
:02050000001DDC
:02050100007583
:020502000018DF
:02050300001DD9
:020504000029CC
:020505000022D2
:020506000018DB
:020507000040B2
:02050800003CB5
:02050900002DC3
:02050A000031BE
:02050B000040AE
:02050C00003EAF
:02050D00003DAF
:02050E00004BA0
:02050F00004F9B
:02051000006A7F
:02051100006583
:020512000036B1
:020513000041A5
:020514000031B4
:02051500003BA9
:02051600006083
:0205170000EFF3
:0205180000FFE2
:0205190000FFE1
:02051A0000FFE0
:02051B0000FFDF
:02051C0000FFDE
:02051D0000FFDD
:02051E0000FFDC
:02051F0000FFDB
:0205200000FFDA
:0205210000FFD9
:0205220000FFD8
:0205230000FFD7
:0205240000FFD6
:0205250000FFD5
:0205260000FFD4
:0205270000FFD3
:0205280000FFD2
:0205290000FFD1
:02052A0000FFD0
:02052B0000FFCF
:02052C0000FFCE
:02052D0000FFCD
:02052E0000FFCC
:02052F0000FFCB
:02053000001DAC
:02053100007553
:020532000018AF
:02053300001DA9
:0205340000299C
:020535000022A2
:020536000018AB
:02053700004082
:02053800003C85
:02053900002D93
:02053A0000318E
:02053B0000407E
:02053C00003E7F
:02053D00003D7F
:02053E00004B70
:02053F00004F6B
:02054000006A4F
:02054100006553
:02054200003681
:02054300004175
:02054400003184
:02054500003B79
:02054600006053
:0205470000EFC3
:0205480000FFB2
:0205490000FFB1
:02054A0000FFB0
:02054B0000FFAF
:02054C0000FFAE
:02054D0000FFAD
:02054E0000FFAC
:02054F0000FFAB
:0205500000FFAA
:0205510000FFA9
:0205520000FFA8
:0205530000FFA7
:0205540000FFA6
:0205550000FFA5
:0205560000FFA4
:0205570000FFA3
:0205580000FFA2
:0205590000FFA1
:02055A0000FFA0
:02055B0000FF9F
:02055C0000FF9E
:02055D0000FF9D
:02055E0000FF9C
:02055F0000FF9B
:02056000000990
:02056100000890
:0205620000BFD8
:0205630000EAAC
:0205640000167F
:0205650000167E
:0205660000197A
:0205670000286A
:0205680000276A
:0205690000216F
:02056A00001E71
:02056B0000335B
:02056C00003459
:02056D00003A52
:02056E00002467
:02056F00002763
:02057000003F4A
:02057100004741
:02057200005D2A
:02057300005531
:02057400006025
:02057500003A4A
:0205760000493A
:02057700005929
:0205780000730E
:02057900007808
:02057A000080FF
:02057B00006D11
:02057C00006914
:02057D00007DFF
:02057E0000611A
:02057F00007307
:02058000007108
:02058100007305
:02058200004C2B
:020583000078FE
:020584000079FC
:02058500004232
:02058600003E35
:02058700001A58
:0205880000442D
:02058900003C34
:02058A00003E31
:02058B00004925
:02058C0000E28B
:02058D0000FC70
:02058E0000FA71
:02058F0000FC6E
:02059000000960
:02059100000C5C
:02059200000A5D
:02059300001A4C
:020594000072F3
:0205950000FA6A
:0205960000FF64
:0205970000FD65
:0205980000E77A
:02059900002838
:02059A00000B54
:02059B00001747
:02059C00002835
:02059D00003626
:02059E00003D1E
:02059F00001545
:0205A000002F2A
:0205A100003E1A
:0205A200002433
:0205A300002A2C
:0205A4000079DC
:0205A500006BE9
:0205A600004D06
:0205A70000341E
:0205A800004809
:0205A90000331D
:0205AA00003C13
:0205AB0000420C
:0205AC00002627
:0205AD00003D0F
:0205AE000052F9
:0205AF00004505
:0205B0000068E1
:0205B100005DEB
:0205B20000291E
:0205B300003D09
:0205B400004AFB
:0205B500004AFA
:0205B6000046FD
:0205B700005BE7
:0205B8000061E0
:0205B9000053ED
:0205BA00004DF2
:0205BB00006DD1
:0205BC00006DD0
:0205BD00005AE2
:0205BE000052E9
:0205BF000052E8
:0205C000005CDD
:0205C1000079BF
:0205C2000073C4
:0205C30000A690
:0205C400006FC6
:0205C500007ABA
:0205C6000079BA
:0205C7000090A2
:0205C800008CA5
:0205C900008AA6
:0205CA00007DB2
:0205CB000076B8
:0205CC00007AB3
:0205CD000080AC
:0205CE000071BA
:0205CF00009496
:0205D0000073B6
:0205D100008A9E
:0205D200007AAD
:0205D3000047DF
:0205D400006ABB
:0205D50000A77D
:0205D600005EC5
:0205D7000079A9
:0205D800008F92
:0205D9000066BA
:0205DA00001708
:0205DB00002FEF
:0205DC00004BD2
:0205DD00003AE2
:0205DE00004FCC
:0205DF00005CBE
:0205E000004DCC
:0205E1000048D0
:0205E200004ACD
:0205E3000065B1
:0205E400006DA8
:0205E5000035DF
:0205E60000967D
:0205E70000FF13
:0205E80000FD14
:0205E90000FD13
:0205EA0000FD12
:0205EB0000FD11
:0205EC0000FD10
:0205ED0000FD0F
:0205EE0000FD0E
:0205EF0000FD0D
:0205F000001DEC
:0205F100007593
:0205F2000018EF
:0205F300001DE9
:0205F4000029DC
:0205F5000022E2
:0205F6000018EB
:0205F7000040C2
:0205F800003CC5
:0205F900002DD3
:0205FA000031CE
:0205FB000040BE
:0205FC00003EBF
:0205FD00003DBF
:0205FE00004BB0
:0205FF00004FAB
:02060000006A8E
:02060100006592
:020602000036C0
:020603000041B4
:020604000031C3
:02060500003BB8
:02060600006092
:0206070000EF02
:0206080000FFF1
:0206090000FFF0
:02060A0000FFEF
:02060B0000FFEE
:02060C0000FFED
:02060D0000FFEC
:02060E0000FFEB
:02060F0000FFEA
:0206100000FFE9
:0206110000FFE8
:0206120000FFE7
:0206130000FFE6
:0206140000FFE5
:0206150000FFE4
:0206160000FFE3
:0206170000FFE2
:0206180000FFE1
:0206190000FFE0
:02061A0000FFDF
:02061B0000FFDE
:02061C0000FFDD
:02061D0000FFDC
:02061E0000FFDB
:02061F0000FFDA
:02062000001DBB
:02062100007562
:020622000018BE
:02062300001DB8
:020624000029AB
:020625000022B1
:020626000018BA
:02062700004091
:02062800003C94
:02062900002DA2
:02062A0000319D
:02062B0000408D
:02062C00003E8E
:02062D00003D8E
:02062E00004B7F
:02062F00004F7A
:02063000006A5E
:02063100006562
:02063200003690
:02063300004184
:02063400003193
:02063500003B88
:02063600006062
:0206370000EFD2
:0206380000FFC1
:0206390000FFC0
:02063A0000FFBF
:02063B0000FFBE
:02063C0000FFBD
:02063D0000FFBC
:02063E0000FFBB
:02063F0000FFBA
:02064000001F99
:02064100005067
:020642000016A0
:0206430000278E
:02064400001D97
:0206450000159E
:0206460000238F
:02064700003A77
:02064800001F91
:0206490000248B
:02064A0000228C
:02064B0000228B
:02064C00002389
:02064D00002388
:02064E00003377
:02064F00004564
:02065000004A5E
:0206510000495E
:02065200001C8A
:02065300001C89
:02065400001D87
:0206550000257E
:0206560000376B
:0206570000EAB7
:0206580000FFA1
:0206590000FFA0
:02065A0000FF9F
:02065B0000FF9E
:02065C0000FF9D
:02065D0000FF9C
:02065E0000FF9B
:02065F0000FF9A
:0206600000FF99
:0206610000FF98
:0206620000FF97
:0206630000FF96
:0206640000FF95
:0206650000FF94
:0206660000FF93
:0206670000FF92
:0206680000FF91
:0206690000FF90
:02066A0000FF8F
:02066B0000FF8E
:02066C0000FF8D
:02066D0000FF8C
:02066E0000FF8B
:02066F0000FF8A
:02067000001F69
:02067100005037
:02067200001670
:0206730000275E
:02067400001D67
:0206750000156E
:0206760000235F
:02067700003A47
:02067800001F61
:0206790000245B
:02067A0000225C
:02067B0000225B
:02067C00002359
:02067D00002358
:02067E00003347
:02067F00004534
:02068000004A2E
:0206810000492E
:02068200001C5A
:02068300001C59
:02068400001D57
:0206850000254E
:0206860000373B
:0206870000EA87
:0206880000FF71
:0206890000FF70
:02068A0000FF6F
:02068B0000FF6E
:02068C0000FF6D
:02068D0000FF6C
:02068E0000FF6B
:02068F0000FF6A
:0206900000FF69
:0206910000FF68
:0206920000FF67
:0206930000FF66
:0206940000FF65
:0206950000FF64
:0206960000FF63
:0206970000FF62
:0206980000FF61
:0206990000FF60
:02069A0000FF5F
:02069B0000FF5E
:02069C0000FF5D
:02069D0000FF5C
:02069E0000FF5B
:02069F0000FF5A
:0206A000000C4C
:0206A100000E49
:0206A20000C88E
:0206A30000E075
:0206A400000054
:0206A50000153E
:0206A60000272B
:0206A70000222F
:0206A800001937
:0206A900001B34
:0206AA00001C32
:0206AB0000321B
:0206AC00003616
:0206AD00001E2D
:0206AE00002A20
:0206AF00003A0F
:0206B000006CDC
:0206B1000065E2
:0206B200004CFA
:0206B3000050F5
:0206B40000281C
:0206B5000051F2
:0206B600004BF7
:0206B700006FD2
:0206B800006DD3
:0206B900006FD0
:0206BA000078C6
:0206BB000068D5
:0206BC000055E7
:0206BD000076C5
:0206BE00006AD0
:0206BF000066D3
:0206C0000067D1
:0206C100007ABD
:0206C200005DD9
:0206C300004FE6
:0206C400007BB9
:0206C500004EE5
:0206C600005ED4
:0206C7000036FB
:0206C8000035FB
:0206C9000033FC
:0206CA000049E5
:0206CB000032FB
:0206CC00009D8F
:0206CD0000FF2C
:0206CE0000FB2F
:0206CF0000FB2E
:0206D00000091F
:0206D100000A1D
:0206D20000081E
:0206D300001A0B
:0206D4000051D3
:0206D50000F42F
:0206D60000FD25
:0206D70000FB26
:0206D80000968A
:0206D90000100F
:0206DA00001707
:0206DB00001A03
:0206DC00002AF2
:0206DD000034E7
:0206DE00001703
:0206DF00001900
:0206E0000022F6
:0206E1000020F7
:0206E2000025F1
:0206E300003BDA
:0206E400006CA8
:0206E5000053C0
:0206E6000036DC
:0206E700002AE7
:0206E8000041CF
:0206E900003DD2
:0206EA00002CE2
:0206EB000044C9
:0206EC000035D7
:0206ED000049C2
:0206EE00004AC0
:0206EF00003ACF
:0206F0000068A0
:0206F1000046C1
:0206F200001EE8
:0206F3000042C3
:0206F4000044C0
:0206F5000045BE
:0206F6000051B1
:0206F7000047BA
:0206F8000031CF
:0206F900004DB2
:0206FA00005EA0
:0206FB00006C91
:0206FC00006B91
:0206FD00003BC0
:0206FE000056A4
:0206FF00003ABF
:02070000006394
:02070100007581
:02070200009164
:02070300009064
:02070400008370
:02070500008C66
:02070600008071
:0207070000866A
:0207080000945B
:02070900009A54
:02070A00007B72
:02070B00007E6E
:02070C00007873
:02070D00007C6E
:02070E00008267
:02070F00009652
:02071000008F58
:02071100006B7B
:02071200005C89
:02071300006B79
:02071400003EA5
:02071500008B57
:02071600009C45
:02071700005E82
:02071800005A85
:02071900007C62
:02071A00004D90
:02071B00001DBF
:02071C000036A5
:02071D000030AA
:02071E00004495
:02071F00005781
:02072000005186
:02072100004591
:020722000030A5
:0207230000567E
:0207240000745F
:02072500004D85
:0207260000834E
:0207270000F3DD
:0207280000FDD2
:0207290000FDD1
:02072A0000FDD0
:02072B0000FDCF
:02072C0000FDCE
:02072D0000FDCD
:02072E0000FDCC
:02072F0000FDCB
:02073000001FA8
:02073100005076
:020732000016AF
:0207330000279D
:02073400001DA6
:020735000015AD
:0207360000239E
:02073700003A86
:02073800001FA0
:0207390000249A
:02073A0000229B
:02073B0000229A
:02073C00002398
:02073D00002397
:02073E00003386
:02073F00004573
:02074000004A6D
:0207410000496D
:02074200001C99
:02074300001C98
:02074400001D96
:0207450000258D
:0207460000377A
:0207470000EAC6
:0207480000FFB0
:0207490000FFAF
:02074A0000FFAE
:02074B0000FFAD
:02074C0000FFAC
:02074D0000FFAB
:02074E0000FFAA
:02074F0000FFA9
:0207500000FFA8
:0207510000FFA7
:0207520000FFA6
:0207530000FFA5
:0207540000FFA4
:0207550000FFA3
:0207560000FFA2
:0207570000FFA1
:0207580000FFA0
:0207590000FF9F
:02075A0000FF9E
:02075B0000FF9D
:02075C0000FF9C
:02075D0000FF9B
:02075E0000FF9A
:02075F0000FF99
:02076000001F78
:02076100005046
:0207620000167F
:0207630000276D
:02076400001D76
:0207650000157D
:0207660000236E
:02076700003A56
:02076800001F70
:0207690000246A
:02076A0000226B
:02076B0000226A
:02076C00002368
:02076D00002367
:02076E00003356
:02076F00004543
:02077000004A3D
:0207710000493D
:02077200001C69
:02077300001C68
:02077400001D66
:0207750000255D
:0207760000374A
:0207770000EA96
:0207780000FF80
:0207790000FF7F
:02077A0000FF7E
:02077B0000FF7D
:02077C0000FF7C
:02077D0000FF7B
:02077E0000FF7A
:02077F0000FF79
:02078000001E59
:02078100005323
:0207820000185D
:0207830000175D
:02078400001261
:02078500000C66
:0207860000363B
:02078700001F51
:02078800001C53
:02078900001658
:02078A0000115C
:02078B00001557
:02078C00001A51
:02078D00002842
:02078E00002346
:02078F00005315
:0207900000392E
:02079100002046
:02079200001253
:02079300001252
:0207940000164D
:0207950000144E
:0207960000273A
:0207970000BEA2
:0207980000FF60
:0207990000FF5F
:02079A0000FF5E
:02079B0000FF5D
:02079C0000FF5C
:02079D0000FF5B
:02079E0000FF5A
:02079F0000FF59
:0207A00000FF58
:0207A10000FF57
:0207A20000FF56
:0207A30000FF55
:0207A40000FF54
:0207A50000FF53
:0207A60000FF52
:0207A70000FF51
:0207A80000FF50
:0207A90000FF4F
:0207AA0000FF4E
:0207AB0000FF4D
:0207AC0000FF4C
:0207AD0000FF4B
:0207AE0000FF4A
:0207AF0000FF49
:0207B000001E29
:0207B1000053F3
:0207B20000182D
:0207B30000172D
:0207B400001231
:0207B500000C36
:0207B60000360B
:0207B700001F21
:0207B800001C23
:0207B900001628
:0207BA0000112C
:0207BB00001527
:0207BC00001A21
:0207BD00002812
:0207BE00002316
:0207BF000053E5
:0207C0000039FE
:0207C100002016
:0207C200001223
:0207C300001222
:0207C40000161D
:0207C50000141E
:0207C60000270A
:0207C70000BE72
:0207C80000FF30
:0207C90000FF2F
:0207CA0000FF2E
:0207CB0000FF2D
:0207CC0000FF2C
:0207CD0000FF2B
:0207CE0000FF2A
:0207CF0000FF29
:0207D00000FF28
:0207D10000FF27
:0207D20000FF26
:0207D30000FF25
:0207D40000FF24
:0207D50000FF23
:0207D60000FF22
:0207D70000FF21
:0207D80000FF20
:0207D90000FF1F
:0207DA0000FF1E
:0207DB0000FF1D
:0207DC0000FF1C
:0207DD0000FF1B
:0207DE0000FF1A
:0207DF0000FF19
:0207E000000D0A
:0207E100001204
:0207E20000D83D
:0207E30000957F
:0207E400000013
:0207E500001BF7
:0207E6000025EC
:0207E700001EF2
:0207E8000017F8
:0207E9000016F8
:0207EA000027E6
:0207EB000026E6
:0207EC00002BE0
:0207ED000023E7
:0207EE000031D8
:0207EF000050B8
:0207F000007A8D
:0207F1000042C4
:0207F200004ABB
:0207F3000039CB
:0207F400003FC4
:0207F500004AB8
:0207F6000048B9
:0207F7000052AE
:0207F800006C93
:0207F90000609E
:0207FA00005AA3
:0207FB00005BA1
:0207FC000058A3
:0207FD00006397
:0207FE00005E9B
:0207FF000053A5
:02080000007581
:02080100007A7B
:02080200006094
:02080300004EA5
:02080400006D85
:02080500005E93
:020806000049A7
:02080700004AA5
:020808000027C7
:020809000041AC
:02080A000043A9
:02080B000042A9
:02080C00005892
:02080D0000FFEA
:02080E0000F8F0
:02080F0000FAED
:02081000000ADC
:020811000008DD
:020812000006DE
:020813000024BF
:0208140000469C
:0208150000FBE6
:0208160000F8E8
:0208170000ECF3
:02081800005D81
:020819000013CA
:02081A000015C7
:02081B000018C3
:02081C000025B5
:02081D00001EBB
:02081E00001BBD
:02081F00002BAC
:020820000018BE
:020821000014C1
:020822000032A2
:0208230000458E
:02082400004092
:0208250000379A
:020826000029A7
:0208270000329D
:02082800003A94
:02082900003994
:02082A00002CA0
:02082B00004B80
:02082C00003595
:02082D00004E7B
:02082E0000497F
:02082F00003196
:02083000004185
:02083100001FA6
:02083200002D97
:02083300003B88
:02083400003B87
:0208350000556C
:02083600005B65
:02083700003788
:02083800004E70
:02083900008538
:02083A00008636
:02083B00006952
:02083C00004A70
:02083D00004574
:02083E00005A5E
:02083F00004D6A
:0208400000575F
:02084100006C49
:0208420000852F
:02084300007043
:0208440000931F
:0208450000961B
:0208460000832D
:0208470000634C
:02084800007C32
:0208490000911C
:02084A00006B41
:02084B00007E2D
:02084C00007337
:02084D00009A0F
:02084E00007038
:02084F00008B1C
:02085000006D39
:02085100009312
:02085200005054
:02085300006142
:02085400006C36
:02085500005C45
:0208560000940C
:02085700007728
:02085800005549
:02085900006439
:02085A00006933
:02085B00002D6E
:02085C00001F7B
:02085D00002871
:02085E0000296F
:02085F00003C5B
:02086000004B4B
:02086100003D58
:02086200004A4A
:02086300003261
:02086400005939
:0208650000751C
:0208660000523E
:0208670000D1BE
:0208680000FF8F
:0208690000FD90
:02086A0000FD8F
:02086B0000FD8E
:02086C0000FD8D
:02086D0000FD8C
:02086E0000FD8B
:02086F0000FD8A
:02087000001E68
:02087100005332
:0208720000186C
:0208730000176C
:02087400001270
:02087500000C75
:0208760000364A
:02087700001F60
:02087800001C62
:02087900001667
:02087A0000116B
:02087B00001566
:02087C00001A60
:02087D00002851
:02087E00002355
:02087F00005324
:0208800000393D
:02088100002055
:02088200001262
:02088300001261
:0208840000165C
:0208850000145D
:02088600002749
:0208870000BEB1
:0208880000FF6F
:0208890000FF6E
:02088A0000FF6D
:02088B0000FF6C
:02088C0000FF6B
:02088D0000FF6A
:02088E0000FF69
:02088F0000FF68
:0208900000FF67
:0208910000FF66
:0208920000FF65
:0208930000FF64
:0208940000FF63
:0208950000FF62
:0208960000FF61
:0208970000FF60
:0208980000FF5F
:0208990000FF5E
:02089A0000FF5D
:02089B0000FF5C
:02089C0000FF5B
:02089D0000FF5A
:02089E0000FF59
:02089F0000FF58
:0208A000001E38
:0208A100005302
:0208A20000183C
:0208A30000173C
:0208A400001240
:0208A500000C45
:0208A60000361A
:0208A700001F30
:0208A800001C32
:0208A900001637
:0208AA0000113B
:0208AB00001536
:0208AC00001A30
:0208AD00002821
:0208AE00002325
:0208AF000053F4
:0208B00000390D
:0208B100002025
:0208B200001232
:0208B300001231
:0208B40000162C
:0208B50000142D
:0208B600002719
:0208B70000BE81
:0208B80000FF3F
:0208B90000FF3E
:0208BA0000FF3D
:0208BB0000FF3C
:0208BC0000FF3B
:0208BD0000FF3A
:0208BE0000FF39
:0208BF0000FF38
:0208C0000043F3
:0208C1000083B2
:0208C200000A2A
:0208C300000E25
:0208C400000E24
:0208C500000B26
:0208C600002D03
:0208C70000240B
:0208C800001717
:0208C90000101D
:0208CA00001C10
:0208CB00002A01
:0208CC00002FFB
:0208CD00002FFA
:0208CE000048E0
:0208CF000065C2
:0208D0000037EF
:0208D100005BCA
:0208D2000075AF
:0208D3000025FE
:0208D400001909
:0208D50000170A
:0208D6000029F7
:0208D7000079A6
:0208D80000FF1F
:0208D90000FF1E
:0208DA0000FF1D
:0208DB0000FF1C
:0208DC0000FF1B
:0208DD0000FF1A
:0208DE0000FF19
:0208DF0000FF18
:0208E00000FF17
:0208E10000FF16
:0208E20000FF15
:0208E30000FF14
:0208E40000FF13
:0208E50000FF12
:0208E60000FF11
:0208E70000FF10
:0208E80000FF0F
:0208E90000FF0E
:0208EA0000FF0D
:0208EB0000FF0C
:0208EC0000FF0B
:0208ED0000FF0A
:0208EE0000FF09
:0208EF0000FF08
:0208F0000043C3
:0208F100008382
:0208F200000AFA
:0208F300000EF5
:0208F400000EF4
:0208F500000BF6
:0208F600002DD3
:0208F7000024DB
:0208F8000017E7
:0208F9000010ED
:0208FA00001CE0
:0208FB00002AD1
:0208FC00002FCB
:0208FD00002FCA
:0208FE000048B0
:0208FF00006592
:020900000037BE
:02090100005B99
:0209020000757E
:020903000025CD
:020904000019D8
:020905000017D9
:020906000029C6
:02090700007975
:0209080000FFEE
:0209090000FFED
:02090A0000FFEC
:02090B0000FFEB
:02090C0000FFEA
:02090D0000FFE9
:02090E0000FFE8
:02090F0000FFE7
:0209100000FFE6
:0209110000FFE5
:0209120000FFE4
:0209130000FFE3
:0209140000FFE2
:0209150000FFE1
:0209160000FFE0
:0209170000FFDF
:0209180000FFDE
:0209190000FFDD
:02091A0000FFDC
:02091B0000FFDB
:02091C0000FFDA
:02091D0000FFD9
:02091E0000FFD8
:02091F0000FFD7
:02092000000EC7
:02092100001ABA
:0209220000DEF5
:02092300005280
:020924000009C8
:020925000022AE
:02092600001AB5
:020927000017B7
:02092800001CB1
:02092900001EAE
:02092A000027A4
:02092B000023A7
:02092C000022A7
:02092D000020A8
:02092E00002D9A
:02092F00005E68
:02093000006C59
:02093100004084
:0209320000378C
:02093300003191
:02093400004978
:0209350000328E
:0209360000526D
:02093700004E70
:02093800006657
:02093900004676
:02093A00004E6D
:02093B00005169
:02093C00005069
:02093D00006256
:02093E0000595E
:02093F00004B6B
:02094000006C49
:02094100007B39
:02094200006C47
:0209430000575B
:02094400004C65
:0209450000565A
:02094600003877
:02094700004B63
:0209480000337A
:0209490000327A
:02094A00004962
:02094B00005258
:02094C00003673
:02094D0000C2E6
:02094E0000FEA9
:02094F0000FAAC
:02095000000A9B
:0209510000079D
:0209520000079C
:0209530000287A
:02095400004958
:0209550000FFA1
:0209560000F7A8
:0209570000DEC0
:02095800005845
:02095900000B91
:02095A00002279
:02095B00001387
:02095C00002277
:02095D00001682
:02095E00002077
:02095F0000187E
:02096000002273
:0209610000286C
:0209620000296A
:02096300003E54
:02096400002A67
:02096500002967
:02096600001F70
:0209670000305E
:02096800003459
:02096900003557
:02096A00003556
:02096B00004941
:02096C00002663
:02096D00004840
:02096E00004641
:02096F0000275F
:02097000004144
:02097100003153
:0209720000265D
:02097300002C56
:0209740000522F
:02097500004F31
:02097600002E51
:02097700006717
:02097800006716
:02097900006D0F
:02097A00004D2E
:02097B00003F3B
:02097C00003148
:02097D00003D3B
:02097E00004631
:02097F00006115
:02098000004C29
:02098100007AFA
:02098200007DF6
:02098300007FF3
:020984000094DD
:020985000085EB
:020986000083EC
:02098700005C12
:02098800006B02
:020989000082EA
:02098A00005E0D
:02098B00007CEE
:02098C00006DFC
:02098D0000B2B6
:02098E00005B0C
:02098F000083E3
:020990000072F3
:020991000087DD
:02099200006CF7
:02099300006CF6
:02099400002938
:02099500005B05
:020996000090CF
:020997000093CB
:02099800007FDE
:0209990000411B
:02099A00004D0E
:02099B00005A00
:02099C00001C3D
:02099D00002632
:02099E00001B3C
:02099F0000272F
:0209A00000490C
:0209A100003E16
:0209A200003F14
:0209A30000470B
:0209A40000252C
:0209A500004E02
:0209A60000420D
:0209A70000A1AD
:0209A80000F954
:0209A90000F953
:0209AA0000FD4E
:0209AB0000FC4E
:0209AC0000FD4C
:0209AD0000FC4C
:0209AE0000FD4A
:0209AF0000FD49
:0209B000004302
:0209B1000083C1
:0209B200000A39
:0209B300000E34
:0209B400000E33
:0209B500000B35
:0209B600002D12
:0209B70000241A
:0209B800001726
:0209B90000102C
:0209BA00001C1F
:0209BB00002A10
:0209BC00002F0A
:0209BD00002F09
:0209BE000048EF
:0209BF000065D1
:0209C0000037FE
:0209C100005BD9
:0209C2000075BE
:0209C30000250D
:0209C400001918
:0209C500001719
:0209C600002906
:0209C7000079B5
:0209C80000FF2E
:0209C90000FF2D
:0209CA0000FF2C
:0209CB0000FF2B
:0209CC0000FF2A
:0209CD0000FF29
:0209CE0000FF28
:0209CF0000FF27
:0209D00000FF26
:0209D10000FF25
:0209D20000FF24
:0209D30000FF23
:0209D40000FF22
:0209D50000FF21
:0209D60000FF20
:0209D70000FF1F
:0209D80000FF1E
:0209D90000FF1D
:0209DA0000FF1C
:0209DB0000FF1B
:0209DC0000FF1A
:0209DD0000FF19
:0209DE0000FF18
:0209DF0000FF17
:0209E0000043D2
:0209E100008391
:0209E200000A09
:0209E300000E04
:0209E400000E03
:0209E500000B05
:0209E600002DE2
:0209E7000024EA
:0209E8000017F6
:0209E9000010FC
:0209EA00001CEF
:0209EB00002AE0
:0209EC00002FDA
:0209ED00002FD9
:0209EE000048BF
:0209EF000065A1
:0209F0000037CE
:0209F100005BA9
:0209F20000758E
:0209F3000025DD
:0209F4000019E8
:0209F5000017E9
:0209F6000029D6
:0209F700007985
:0209F80000FFFE
:0209F90000FFFD
:0209FA0000FFFC
:0209FB0000FFFB
:0209FC0000FFFA
:0209FD0000FFF9
:0209FE0000FFF8
:0209FF0000FFF7
:020A000000A64E
:020A010000995A
:020A02000007EB
:020A0300000AE7
:020A0400000AE6
:020A05000009E6
:020A0600002CC2
:020A0700003AB3
:020A0800001BD1
:020A0900002CBF
:020A0A00005A90
:020A0B00007E6B
:020A0C00006F79
:020A0D00006483
:020A0E00005294
:020A0F00002BBA
:020A10000027BD
:020A1100005F84
:020A120000984A
:020A1300009849
:020A14000031AF
:020A1500001FC0
:020A1600001FBF
:020A170000716C
:020A180000FFDD
:020A190000FFDC
:020A1A0000FFDB
:020A1B0000FFDA
:020A1C0000FFD9
:020A1D0000FFD8
:020A1E0000FFD7
:020A1F0000FFD6
:020A200000FFD5
:020A210000FFD4
:020A220000FFD3
:020A230000FFD2
:020A240000FFD1
:020A250000FFD0
:020A260000FFCF
:020A270000FFCE
:020A280000FFCD
:020A290000FFCC
:020A2A0000FFCB
:020A2B0000FFCA
:020A2C0000FFC9
:020A2D0000FFC8
:020A2E0000FFC7
:020A2F0000FFC6
:020A300000A61E
:020A310000992A
:020A32000007BB
:020A3300000AB7
:020A3400000AB6
:020A35000009B6
:020A3600002C92
:020A3700003A83
:020A3800001BA1
:020A3900002C8F
:020A3A00005A60
:020A3B00007E3B
:020A3C00006F49
:020A3D00006453
:020A3E00005264
:020A3F00002B8A
:020A400000278D
:020A4100005F54
:020A420000981A
:020A4300009819
:020A440000317F
:020A4500001F90
:020A4600001F8F
:020A470000713C
:020A480000FFAD
:020A490000FFAC
:020A4A0000FFAB
:020A4B0000FFAA
:020A4C0000FFA9
:020A4D0000FFA8
:020A4E0000FFA7
:020A4F0000FFA6
:020A500000FFA5
:020A510000FFA4
:020A520000FFA3
:020A530000FFA2
:020A540000FFA1
:020A550000FFA0
:020A560000FF9F
:020A570000FF9E
:020A580000FF9D
:020A590000FF9C
:020A5A0000FF9B
:020A5B0000FF9A
:020A5C0000FF99
:020A5D0000FF98
:020A5E0000FF97
:020A5F0000FF96
:020A600000068E
:020A6100002A69
:020A620000EAA8
:020A630000177A
:020A6400001080
:020A650000216E
:020A6600001777
:020A6700001C71
:020A6800002B61
:020A6900002269
:020A6A00002565
:020A6B00002267
:020A6C00001A6E
:020A6D00001D6A
:020A6E00002C5A
:020A6F0000592C
:020A7000005D27
:020A7100002063
:020A7200002C56
:020A730000354C
:020A7400002F51
:020A7500003B44
:020A7600004737
:020A7700004F2E
:020A780000413B
:020A7900004635
:020A7A0000403A
:020A7B00004732
:020A7C00004731
:020A7D00005126
:020A7E00005125
:020A7F00005124
:020A8000006F05
:020A8100007300
:020A8200006A08
:020A8300005C15
:020A8400003E32
:020A8500004728
:020A8600003836
:020A8700004F1E
:020A8800003834
:020A890000303B
:020A8A00003D2D
:020A8B00004524
:020A8C00003C2C
:020A8D00006CFB
:020A8E0000FE68
:020A8F0000FA6B
:020A900000075D
:020A910000095A
:020A9200001250
:020A9300000A57
:020A9400005808
:020A950000FA65
:020A960000FF5F
:020A970000CB92
:020A9800003725
:020A9900000A51
:020A9A00001248
:020A9B00002138
:020A9C00001345
:020A9D00001740
:020A9E00001E38
:020A9F00002F26
:020AA00000292B
:020AA10000242F
:020AA200002929
:020AA30000232E
:020AA400001838
:020AA500002728
:020AA600002628
:020AA700003815
:020AA800004408
:020AA900002328
:020AAA00004703
:020AAB00003C0D
:020AAC00002325
:020AAD00003A0D
:020AAE00002323
:020AAF00001530
:020AB000003212
:020AB100004AF9
:020AB20000231F
:020AB3000054ED
:020AB400006FD1
:020AB500003A05
:020AB6000053EB
:020AB7000062DB
:020AB8000063D9
:020AB9000069D2
:020ABA00003A00
:020ABB00003405
:020ABC000057E1
:020ABD00004AED
:020ABE000055E1
:020ABF000052E3
:020AC0000051E3
:020AC1000092A1
:020AC2000063CF
:020AC3000089A8
:020AC4000081AF
:020AC500007FB0
:020AC6000072BC
:020AC7000068C5
:020AC8000069C3
:020AC9000085A6
:020ACA000071B9
:020ACB00008E9B
:020ACC000056D2
:020ACD00006DBA
:020ACE000078AE
:020ACF000063C2
:020AD0000077AD
:020AD1000076AD
:020AD200007CA6
:020AD3000074AD
:020AD4000039E7
:020AD500005EC1
:020AD60000839B
:020AD7000073AA
:020AD800009389
:020AD900006DAE
:020ADA000033E7
:020ADB000055C4
:020ADC00003FD9
:020ADD00001EF9
:020ADE000024F2
:020ADF000016FF
:020AE0000043D1
:020AE1000047CC
:020AE2000039D9
:020AE3000053BE
:020AE400003CD4
:020AE5000043CC
:020AE6000029E5
:020AE700007598
:020AE80000F11B
:020AE90000E823
:020AEA0000FD0D
:020AEB0000F613
:020AEC0000FF09
:020AED0000F512
:020AEE0000FE08
:020AEF0000FD08
:020AF00000A65E
:020AF10000996A
:020AF2000007FB
:020AF300000AF7
:020AF400000AF6
:020AF5000009F6
:020AF600002CD2
:020AF700003AC3
:020AF800001BE1
:020AF900002CCF
:020AFA00005AA0
:020AFB00007E7B
:020AFC00006F89
:020AFD00006493
:020AFE000052A4
:020AFF00002BCA
:020B00000027CC
:020B0100005F93
:020B0200009859
:020B0300009858
:020B04000031BE
:020B0500001FCF
:020B0600001FCE
:020B070000717B
:020B080000FFEC
:020B090000FFEB
:020B0A0000FFEA
:020B0B0000FFE9
:020B0C0000FFE8
:020B0D0000FFE7
:020B0E0000FFE6
:020B0F0000FFE5
:020B100000FFE4
:020B110000FFE3
:020B120000FFE2
:020B130000FFE1
:020B140000FFE0
:020B150000FFDF
:020B160000FFDE
:020B170000FFDD
:020B180000FFDC
:020B190000FFDB
:020B1A0000FFDA
:020B1B0000FFD9
:020B1C0000FFD8
:020B1D0000FFD7
:020B1E0000FFD6
:020B1F0000FFD5
:020B200000A62D
:020B2100009939
:020B22000007CA
:020B2300000AC6
:020B2400000AC5
:020B25000009C5
:020B2600002CA1
:020B2700003A92
:020B2800001BB0
:020B2900002C9E
:020B2A00005A6F
:020B2B00007E4A
:020B2C00006F58
:020B2D00006462
:020B2E00005273
:020B2F00002B99
:020B300000279C
:020B3100005F63
:020B3200009829
:020B3300009828
:020B340000318E
:020B3500001F9F
:020B3600001F9E
:020B370000714B
:020B380000FFBC
:020B390000FFBB
:020B3A0000FFBA
:020B3B0000FFB9
:020B3C0000FFB8
:020B3D0000FFB7
:020B3E0000FFB6
:020B3F0000FFB5
:020B400000F1C2
:020B4100009D15
:020B4200000BA6
:020B43000008A8
:020B44000008A7
:020B45000006A8
:020B4600003F6E
:020B4700004C60
:020B4800003B70
:020B4900003179
:020B4A00003376
:020B4B00005E4A
:020B4C00009A0D
:020B4D00008D19
:020B4E00003E67
:020B4F00001E86
:020B500000297A
:020B510000564C
:020B5200007F22
:020B530000CCD4
:020B540000B4EB
:020B5500001886
:020B560000217C
:020B5700008715
:020B580000FF9C
:020B590000FF9B
:020B5A0000FF9A
:020B5B0000FF99
:020B5C0000FF98
:020B5D0000FF97
:020B5E0000FF96
:020B5F0000FF95
:020B600000FF94
:020B610000FF93
:020B620000FF92
:020B630000FF91
:020B640000FF90
:020B650000FF8F
:020B660000FF8E
:020B670000FF8D
:020B680000FF8C
:020B690000FF8B
:020B6A0000FF8A
:020B6B0000FF89
:020B6C0000FF88
:020B6D0000FF87
:020B6E0000FF86
:020B6F0000FF85
:020B700000F192
:020B7100009DE5
:020B7200000B76
:020B7300000878
:020B7400000877
:020B7500000678
:020B7600003F3E
:020B7700004C30
:020B7800003B40
:020B7900003149
:020B7A00003346
:020B7B00005E1A
:020B7C00009ADD
:020B7D00008DE9
:020B7E00003E37
:020B7F00001E56
:020B800000294A
:020B810000561C
:020B8200007FF2
:020B830000CCA4
:020B840000B4BB
:020B8500001856
:020B860000214C
:020B87000087E5
:020B880000FF6C
:020B890000FF6B
:020B8A0000FF6A
:020B8B0000FF69
:020B8C0000FF68
:020B8D0000FF67
:020B8E0000FF66
:020B8F0000FF65
:020B900000FF64
:020B910000FF63
:020B920000FF62
:020B930000FF61
:020B940000FF60
:020B950000FF5F
:020B960000FF5E
:020B970000FF5D
:020B980000FF5C
:020B990000FF5B
:020B9A0000FF5A
:020B9B0000FF59
:020B9C0000FF58
:020B9D0000FF57
:020B9E0000FF56
:020B9F0000FF55
:020BA00000084B
:020BA100004909
:020BA20000D47D
:020BA30000054B
:020BA40000103F
:020BA500001F2F
:020BA600001835
:020BA700002824
:020BA800002922
:020BA900002426
:020BAA00002425
:020BAB00002226
:020BAC00001334
:020BAD00001F27
:020BAE00003A0B
:020BAF00004AFA
:020BB000002C17
:020BB10000231F
:020BB200002819
:020BB30000320E
:020BB400002F10
:020BB500003D01
:020BB60000320B
:020BB7000040FC
:020BB800002C0F
:020BB900003505
:020BBA00003504
:020BBB00003DFB
:020BBC000047F0
:020BBD000044F2
:020BBE000047EE
:020BBF000051E3
:020BC0000061D2
:020BC1000071C1
:020BC2000069C8
:020BC3000060D0
:020BC4000030FF
:020BC500002A04
:020BC600002904
:020BC700003AF2
:020BC800002EFD
:020BC900002FFB
:020BCA00003DEC
:020BCB00002DFB
:020BCC000040E7
:020BCD00004DD9
:020BCE0000E83D
:020BCF0000FA2A
:020BD00000071C
:020BD100001012
:020BD200000E13
:020BD30000061A
:020BD4000065BA
:020BD50000FA24
:020BD60000FB22
:020BD70000B864
:020BD800000B10
:020BD900000713
:020BDA00001900
:020BDB00001EFA
:020BDC00001AFD
:020BDD000029ED
:020BDE000031E4
:020BDF000025EF
:020BE0000023F0
:020BE1000024EE
:020BE200001EF3
:020BE3000016FA
:020BE4000015FA
:020BE5000027E7
:020BE600002AE3
:020BE7000040CC
:020BE8000037D4
:020BE900002DDD
:020BEA000043C6
:020BEB00002BDD
:020BEC00001EE9
:020BED000029DD
:020BEE000018ED
:020BEF00001DE7
:020BF0000033D0
:020BF1000042C0
:020BF2000053AE
:020BF30000847C
:020BF4000056A9
:020BF500003DC1
:020BF600006796
:020BF700004FAD
:020BF80000718A
:020BF900003EBC
:020BFA000037C2
:020BFB000036C2
:020BFC00006C8B
:020BFD00004FA7
:020BFE0000599C
:020BFF00005A9A
:020C0000007181
:020C0100008170
:020C020000628E
:020C0300007778
:020C040000826C
:020C0500007677
:020C0600006C80
:020C0700007D6E
:020C0800005D8D
:020C0900006B7E
:020C0A00007B6D
:020C0B00007D6A
:020C0C00006185
:020C0D00004F96
:020C0E00008163
:020C0F00006083
:020C100000667C
:020C1100008160
:020C120000627E
:020C1300005F80
:020C1400004995
:020C1500005C81
:020C1600005F7D
:020C1700007863
:020C1800009149
:020C1900008554
:020C1A0000399F
:020C1B00004592
:020C1C00005086
:020C1D000031A4
:020C1E000025AF
:020C1F000021B2
:020C2000002AA8
:020C2100004889
:020C2200002DA3
:020C2300003B94
:020C240000606E
:020C2500003E8F
:020C2600003B91
:020C2700003D8E
:020C280000A723
:020C290000FBCE
:020C2A0000FCCC
:020C2B0000FACD
:020C2C0000FEC8
:020C2D0000FDC8
:020C2E0000FBC9
:020C2F0000FCC7
:020C300000F1D1
:020C3100009D24
:020C3200000BB5
:020C33000008B7
:020C34000008B6
:020C35000006B7
:020C3600003F7D
:020C3700004C6F
:020C3800003B7F
:020C3900003188
:020C3A00003385
:020C3B00005E59
:020C3C00009A1C
:020C3D00008D28
:020C3E00003E76
:020C3F00001E95
:020C4000002989
:020C410000565B
:020C4200007F31
:020C430000CCE3
:020C440000B4FA
:020C4500001895
:020C460000218B
:020C4700008724
:020C480000FFAB
:020C490000FFAA
:020C4A0000FFA9
:020C4B0000FFA8
:020C4C0000FFA7
:020C4D0000FFA6
:020C4E0000FFA5
:020C4F0000FFA4
:020C500000FFA3
:020C510000FFA2
:020C520000FFA1
:020C530000FFA0
:020C540000FF9F
:020C550000FF9E
:020C560000FF9D
:020C570000FF9C
:020C580000FF9B
:020C590000FF9A
:020C5A0000FF99
:020C5B0000FF98
:020C5C0000FF97
:020C5D0000FF96
:020C5E0000FF95
:020C5F0000FF94
:020C600000F1A1
:020C6100009DF4
:020C6200000B85
:020C6300000887
:020C6400000886
:020C6500000687
:020C6600003F4D
:020C6700004C3F
:020C6800003B4F
:020C6900003158
:020C6A00003355
:020C6B00005E29
:020C6C00009AEC
:020C6D00008DF8
:020C6E00003E46
:020C6F00001E65
:020C7000002959
:020C710000562B
:020C7200007F01
:020C730000CCB3
:020C740000B4CA
:020C7500001865
:020C760000215B
:020C77000087F4
:020C780000FF7B
:020C790000FF7A
:020C7A0000FF79
:020C7B0000FF78
:020C7C0000FF77
:020C7D0000FF76
:020C7E0000FF75
:020C7F0000FF74
:020C800000F181
:020C810000B8B9
:020C8200001858
:020C8300000768
:020C8400000767
:020C8500000667
:020C8600005517
:020C8700006605
:020C8800003337
:020C8900001554
:020C8A00001652
:020C8B00003A2D
:020C8C0000B5B1
:020C8D0000D095
:020C8E00003B29
:020C8F0000283B
:020C900000174B
:020C9100004918
:020C9200005F01
:020C930000BCA3
:020C940000E777
:020C9500003F1E
:020C9600002933
:020C970000D883
:020C980000FF5B
:020C990000FF5A
:020C9A0000FF59
:020C9B0000FF58
:020C9C0000FF57
:020C9D0000FF56
:020C9E0000FF55
:020C9F0000FF54
:020CA00000FF53
:020CA10000FF52
:020CA20000FF51
:020CA30000FF50
:020CA40000FF4F
:020CA50000FF4E
:020CA60000FF4D
:020CA70000FF4C
:020CA80000FF4B
:020CA90000FF4A
:020CAA0000FF49
:020CAB0000FF48
:020CAC0000FF47
:020CAD0000FF46
:020CAE0000FF45
:020CAF0000FF44
:020CB00000F151
:020CB10000B889
:020CB200001828
:020CB300000738
:020CB400000737
:020CB500000637
:020CB6000055E7
:020CB7000066D5
:020CB800003307
:020CB900001524
:020CBA00001622
:020CBB00003AFD
:020CBC0000B581
:020CBD0000D065
:020CBE00003BF9
:020CBF0000280B
:020CC00000171B
:020CC1000049E8
:020CC200005FD1
:020CC30000BC73
:020CC40000E747
:020CC500003FEE
:020CC600002903
:020CC70000D853
:020CC80000FF2B
:020CC90000FF2A
:020CCA0000FF29
:020CCB0000FF28
:020CCC0000FF27
:020CCD0000FF26
:020CCE0000FF25
:020CCF0000FF24
:020CD00000FF23
:020CD10000FF22
:020CD20000FF21
:020CD30000FF20
:020CD40000FF1F
:020CD50000FF1E
:020CD60000FF1D
:020CD70000FF1C
:020CD80000FF1B
:020CD90000FF1A
:020CDA0000FF19
:020CDB0000FF18
:020CDC0000FF17
:020CDD0000FF16
:020CDE0000FF15
:020CDF0000FF14
:020CE000000B07
:020CE1000055BC
:020CE20000967A
:020CE300000609
:020CE4000014FA
:020CE500001FEE
:020CE6000025E7
:020CE7000034D7
:020CE8000021E9
:020CE9000024E5
:020CEA00001EEA
:020CEB00001EE9
:020CEC00000FF7
:020CED000022E3
:020CEE00004DB7
:020CEF000030D3
:020CF000001DE5
:020CF1000024DD
:020CF200002CD4
:020CF3000024DB
:020CF4000020DE
:020CF5000024D9
:020CF6000024D8
:020CF7000025D6
:020CF8000025D5
:020CF900002DCC
:020CFA00002DCB
:020CFB000022D5
:020CFC00003CBA
:020CFD00002FC6
:020CFE000048AC
:020CFF000046AD
:020D0000005D94
:020D0100004EA2
:020D0200006A85
:020D0300004AA4
:020D04000022CB
:020D0500001CD0
:020D06000019D2
:020D07000029C1
:020D08000024C5
:020D09000026C2
:020D0A000028BF
:020D0B000037AF
:020D0C000035B0
:020D0D0000459F
:020D0E0000C81B
:020D0F0000FBE7
:020D1000000AD7
:020D11000012CE
:020D1200000BD4
:020D13000007D7
:020D1400007667
:020D150000F9E3
:020D160000FFDC
:020D170000B327
:020D18000000D9
:020D19000015C3
:020D1A00001EB9
:020D1B000014C2
:020D1C000016BF
:020D1D00002DA7
:020D1E00002BA8
:020D1F000017BB
:020D2000001CB5
:020D21000021AF
:020D22000018B7
:020D2300001EB0
:020D24000015B8
:020D2500002AA2
:020D260000319A
:020D2700004783
:020D2800002D9C
:020D290000398F
:020D2A00003097
:020D2B000013B3
:020D2C00001FA6
:020D2D0000299B
:020D2E000022A1
:020D2F00003B87
:020D3000005071
:020D3100007E42
:020D320000803F
:020D3300004E70
:020D3400002A93
:020D3500006458
:020D3600006457
:020D3700003B7F
:020D3800005B5E
:020D39000012A6
:020D3A00003F78
:020D3B0000575F
:020D3C00004D68
:020D3D0000456F
:020D3E00004370
:020D3F0000832F
:020D400000872A
:020D4100007937
:020D4200007936
:020D430000525C
:020D4400008E1F
:020D4500007E2E
:020D4600005754
:020D4700006941
:020D4800005356
:020D4900005652
:020D4A00006146
:020D4B00007E28
:020D4C0000782D
:020D4D00005E46
:020D4E00007231
:020D4F0000742E
:020D5000005D44
:020D5100007F21
:020D5200006D32
:020D5300006F2F
:020D540000623B
:020D5500005349
:020D5600004B50
:020D5700003F5B
:020D5800008811
:020D5900008117
:020D5A00005F38
:020D5B00003363
:020D5C0000662F
:020D5D00004B49
:020D5E00002F64
:020D5F0000345E
:020D6000001978
:020D6100004947
:020D6200002B64
:020D630000226C
:020D6400004B42
:020D6500003F4D
:020D6600003D4E
:020D6700002A60
:020D6800005633
:020D690000F692
:020D6A0000FB8C
:020D6B0000FA8C
:020D6C0000F98C
:020D6D0000FE86
:020D6E0000FA89
:020D6F0000FC86
:020D700000F190
:020D710000B8C8
:020D7200001867
:020D7300000777
:020D7400000776
:020D7500000676
:020D7600005526
:020D7700006614
:020D7800003346
:020D7900001563
:020D7A00001661
:020D7B00003A3C
:020D7C0000B5C0
:020D7D0000D0A4
:020D7E00003B38
:020D7F0000284A
:020D800000175A
:020D8100004927
:020D8200005F10
:020D830000BCB2
:020D840000E786
:020D8500003F2D
:020D8600002942
:020D870000D892
:020D880000FF6A
:020D890000FF69
:020D8A0000FF68
:020D8B0000FF67
:020D8C0000FF66
:020D8D0000FF65
:020D8E0000FF64
:020D8F0000FF63
:020D900000FF62
:020D910000FF61
:020D920000FF60
:020D930000FF5F
:020D940000FF5E
:020D950000FF5D
:020D960000FF5C
:020D970000FF5B
:020D980000FF5A
:020D990000FF59
:020D9A0000FF58
:020D9B0000FF57
:020D9C0000FF56
:020D9D0000FF55
:020D9E0000FF54
:020D9F0000FF53
:020DA00000F160
:020DA10000B898
:020DA200001837
:020DA300000747
:020DA400000746
:020DA500000646
:020DA6000055F6
:020DA7000066E4
:020DA800003316
:020DA900001533
:020DAA00001631
:020DAB00003A0C
:020DAC0000B590
:020DAD0000D074
:020DAE00003B08
:020DAF0000281A
:020DB00000172A
:020DB1000049F7
:020DB200005FE0
:020DB30000BC82
:020DB40000E756
:020DB500003FFD
:020DB600002912
:020DB70000D862
:020DB80000FF3A
:020DB90000FF39
:020DBA0000FF38
:020DBB0000FF37
:020DBC0000FF36
:020DBD0000FF35
:020DBE0000FF34
:020DBF0000FF33
:020DC000008AA7
:020DC100007FB1
:020DC200001A15
:020DC300000B23
:020DC400000924
:020DC500000824
:020DC600004DDE
:020DC7000034F6
:020DC8000031F8
:020DC9000032F6
:020DCA000042E5
:020DCB00005ACC
:020DCC0000CF56
:020DCD0000E73D
:020DCE0000B172
:020DCF000076AC
:020DD0000076AB
:020DD100008799
:020DD20000CA55
:020DD30000EA34
:020DD40000E736
:020DD500005FBD
:020DD600008695
:020DD70000F129
:020DD80000FF1A
:020DD90000FF19
:020DDA0000FF18
:020DDB0000FF17
:020DDC0000FF16
:020DDD0000FF15
:020DDE0000FF14
:020DDF0000FF13
:020DE00000FF12
:020DE10000FF11
:020DE20000FF10
:020DE30000FF0F
:020DE40000FF0E
:020DE50000FF0D
:020DE60000FF0C
:020DE70000FF0B
:020DE80000FF0A
:020DE90000FF09
:020DEA0000FF08
:020DEB0000FF07
:020DEC0000FF06
:020DED0000FF05
:020DEE0000FF04
:020DEF0000FF03
:020DF000008A77
:020DF100007F81
:020DF200001AE5
:020DF300000BF3
:020DF4000009F4
:020DF5000008F4
:020DF600004DAE
:020DF7000034C6
:020DF8000031C8
:020DF9000032C6
:020DFA000042B5
:020DFB00005A9C
:020DFC0000CF26
:020DFD0000E70D
:020DFE0000B142
:020DFF0000767C
:020E000000767A
:020E0100008768
:020E020000CA24
:020E030000EA03
:020E040000E705
:020E0500005F8C
:020E0600008664
:020E070000F1F8
:020E080000FFE9
:020E090000FFE8
:020E0A0000FFE7
:020E0B0000FFE6
:020E0C0000FFE5
:020E0D0000FFE4
:020E0E0000FFE3
:020E0F0000FFE2
:020E100000FFE1
:020E110000FFE0
:020E120000FFDF
:020E130000FFDE
:020E140000FFDD
:020E150000FFDC
:020E160000FFDB
:020E170000FFDA
:020E180000FFD9
:020E190000FFD8
:020E1A0000FFD7
:020E1B0000FFD6
:020E1C0000FFD5
:020E1D0000FFD4
:020E1E0000FFD3
:020E1F0000FFD2
:020E2000000CC4
:020E210000557A
:020E220000527C
:020E2300000AC3
:020E24000012BA
:020E2500001CAF
:020E2600001FAB
:020E27000029A0
:020E2800001AAE
:020E29000015B2
:020E2A000019AD
:020E2B000011B4
:020E2C000017AD
:020E2D0000358E
:020E2E0000378B
:020E2F00002D94
:020E30000015AB
:020E3100002699
:020E320000239B
:020E330000209D
:020E3400001BA1
:020E3500001D9E
:020E3600002496
:020E3700001D9C
:020E380000199F
:020E3900002097
:020E3A00002294
:020E3B00001E97
:020E3C0000288C
:020E3D00002A89
:020E3E0000387A
:020E3F0000545D
:020E4000004868
:020E4100003C73
:020E4200003777
:020E4300003C71
:020E4400001894
:020E4500000D9E
:020E4600001793
:020E4700001792
:020E480000198F
:020E4900001295
:020E4A00001690
:020E4B00003075
:020E4C0000287C
:020E4D0000386B
:020E4E0000B4EE
:020E4F0000FBA6
:020E5000000C94
:020E5100000D92
:020E5200000C92
:020E5300000C91
:020E5400008616
:020E550000FC9F
:020E560000FF9B
:020E5700009CFD
:020E5800000197
:020E5900001B7C
:020E5A00001A7C
:020E5B00001184
:020E5C00001A7A
:020E5D00002E65
:020E5E00002171
:020E5F0000177A
:020E6000001B75
:020E6100001976
:020E620000137B
:020E630000216C
:020E6400001379
:020E6500002863
:020E6600002D5D
:020E6700003A4F
:020E6800002464
:020E6900003651
:020E6A00001F67
:020E6B00001471
:020E6C00002A5A
:020E6D0000374C
:020E6E0000354D
:020E6F00004E33
:020E7000006C14
:020E71000084FB
:020E7200006717
:020E7300004A33
:020E740000522A
:020E7500006912
:020E7600002F4B
:020E7700005623
:020E7800001C5C
:020E7900002057
:020E7A00005026
:020E7B0000690C
:020E7C00005321
:020E7D00003E35
:020E7E00005A18
:020E7F00008CE5
:020E800000610F
:020E8100007BF4
:020E8200005618
:020E8300005617
:020E8400008EDE
:020E85000070FB
:020E8600006109
:020E8700006009
:020E8800004B1D
:020E89000072F5
:020E8A00005511
:020E8B000080E5
:020E8C000077ED
:020E8D00006EF5
:020E8E0000451D
:020E8F000085DC
:020E900000560A
:020E91000068F7
:020E92000077E7
:020E93000086D7
:020E9400006BF1
:020E9500004C0F
:020E9600004F0B
:020E9700004217
:020E98000066F2
:020E99000083D4
:020E9A00006CEA
:020E9B0000470E
:020E9C000067ED
:020E9D00005DF6
:020E9E00003D15
:020E9F0000450C
:020EA000001D33
:020EA10000440B
:020EA200003D11
:020EA30000321B
:020EA400003A12
:020EA5000066E5
:020EA600004505
:020EA700003316
:020EA800003810
:020EA90000DE69
:020EAA0000FF47
:020EAB0000FD48
:020EAC0000F84C
:020EAD0000FD46
:020EAE0000F949
:020EAF0000FB46
:020EB000008AB6
:020EB100007FC0
:020EB200001A24
:020EB300000B32
:020EB400000933
:020EB500000833
:020EB600004DED
:020EB700003405
:020EB800003107
:020EB900003205
:020EBA000042F4
:020EBB00005ADB
:020EBC0000CF65
:020EBD0000E74C
:020EBE0000B181
:020EBF000076BB
:020EC0000076BA
:020EC1000087A8
:020EC20000CA64
:020EC30000EA43
:020EC40000E745
:020EC500005FCC
:020EC6000086A4
:020EC70000F138
:020EC80000FF29
:020EC90000FF28
:020ECA0000FF27
:020ECB0000FF26
:020ECC0000FF25
:020ECD0000FF24
:020ECE0000FF23
:020ECF0000FF22
:020ED00000FF21
:020ED10000FF20
:020ED20000FF1F
:020ED30000FF1E
:020ED40000FF1D
:020ED50000FF1C
:020ED60000FF1B
:020ED70000FF1A
:020ED80000FF19
:020ED90000FF18
:020EDA0000FF17
:020EDB0000FF16
:020EDC0000FF15
:020EDD0000FF14
:020EDE0000FF13
:020EDF0000FF12
:020EE000008A86
:020EE100007F90
:020EE200001AF4
:020EE300000B02
:020EE400000903
:020EE500000803
:020EE600004DBD
:020EE7000034D5
:020EE8000031D7
:020EE9000032D5
:020EEA000042C4
:020EEB00005AAB
:020EEC0000CF35
:020EED0000E71C
:020EEE0000B151
:020EEF0000768B
:020EF00000768A
:020EF100008778
:020EF20000CA34
:020EF30000EA13
:020EF40000E715
:020EF500005F9C
:020EF600008674
:020EF70000F108
:020EF80000FFF9
:020EF90000FFF8
:020EFA0000FFF7
:020EFB0000FFF6
:020EFC0000FFF5
:020EFD0000FFF4
:020EFE0000FFF3
:020EFF0000FFF2
:020F0000000DE2
:020F0100000FDF
:020F0200001CD1
:020F0300000EDE
:020F0400000BE0
:020F05000013D7
:020F0600007A6F
:020F0700008A5E
:020F0800006B7C
:020F090000687E
:020F0A00009451
:020F0B0000B133
:020F0C0000DA09
:020F0D0000F2F0
:020F0E0000DD04
:020F0F0000DD03
:020F100000CA15
:020F110000D20C
:020F120000E4F9
:020F130000EBF1
:020F140000E9F2
:020F150000A337
:020F160000DFFA
:020F170000F6E2
:020F180000FFD8
:020F190000FFD7
:020F1A0000FFD6
:020F1B0000FFD5
:020F1C0000FFD4
:020F1D0000FFD3
:020F1E0000FFD2
:020F1F0000FFD1
:020F200000FFD0
:020F210000FFCF
:020F220000FFCE
:020F230000FFCD
:020F240000FFCC
:020F250000FFCB
:020F260000FFCA
:020F270000FFC9
:020F280000FFC8
:020F290000FFC7
:020F2A0000FFC6
:020F2B0000FFC5
:020F2C0000FFC4
:020F2D0000FFC3
:020F2E0000FFC2
:020F2F0000FFC1
:020F3000000DB2
:020F3100000FAF
:020F3200001CA1
:020F3300000EAE
:020F3400000BB0
:020F35000013A7
:020F3600007A3F
:020F3700008A2E
:020F3800006B4C
:020F390000684E
:020F3A00009421
:020F3B0000B103
:020F3C0000DAD9
:020F3D0000F2C0
:020F3E0000DDD4
:020F3F0000DDD3
:020F400000CAE5
:020F410000D2DC
:020F420000E4C9
:020F430000EBC1
:020F440000E9C2
:020F450000A307
:020F460000DFCA
:020F470000F6B2
:020F480000FFA8
:020F490000FFA7
:020F4A0000FFA6
:020F4B0000FFA5
:020F4C0000FFA4
:020F4D0000FFA3
:020F4E0000FFA2
:020F4F0000FFA1
:020F500000FFA0
:020F510000FF9F
:020F520000FF9E
:020F530000FF9D
:020F540000FF9C
:020F550000FF9B
:020F560000FF9A
:020F570000FF99
:020F580000FF98
:020F590000FF97
:020F5A0000FF96
:020F5B0000FF95
:020F5C0000FF94
:020F5D0000FF93
:020F5E0000FF92
:020F5F0000FF91
:020F6000000F80
:020F6100005A34
:020F6200004B42
:020F6300000884
:020F6400001774
:020F6500001F6B
:020F6600002069
:020F6700001672
:020F6800001770
:020F6900001472
:020F6A00001075
:020F6B0000087C
:020F6C0000146F
:020F6D00004F33
:020F6E0000275A
:020F6F00001B65
:020F7000001768
:020F7100001D61
:020F7200001865
:020F7300001567
:020F7400001665
:020F7500001268
:020F7600001861
:020F7700001860
:020F7800001A5D
:020F7900001D59
:020F7A00001E57
:020F7B00002351
:020F7C00002152
:020F7D00001C56
:020F7E00004031
:020F7F00005818
:020F800000442B
:020F8100002E40
:020F820000214C
:020F8300002D3F
:020F840000115A
:020F8500000D5D
:020F8600001653
:020F8700001454
:020F880000194E
:020F8900000C5A
:020F8A00000D58
:020F8B00002044
:020F8C00003330
:020F8D00002C36
:020F8E00008CD5
:020F8F0000F769
:020F900000025D
:020F9100000757
:020F9200000F4E
:020F9300000C50
:020F9400008ECD
:020F950000FF5B
:020F960000FE5B
:020F9700005503
:020F9800000255
:020F9900001244
:020F9A00001243
:020F9B00001B39
:020F9C0000282B
:020F9D0000282A
:020F9E0000222F
:020F9F00001C34
