:010000000CF3
:0100010004FA
:0100020012EB
:0100030009F3
:0100040002F9
:010005000CEE
:010006000CED
:0100070004F4
:0100080007F0
:010009000CEA
:01000A0004F1
:01000B0013E1
:01000C0008EB
:01000D0006EC
:01000E000EE3
:01000F000EE2
:0100100003EC
:0100110002EC
:0100120002EB
:0100130002EA
:0100140002E9
:0100150008E2
:0100160002E7
:010017000ADE
:010018000ED9
:0100190008DE
:01001A000FD6
:01001B0005DF
:01001C0002E1
:01001D0003DF
:01001E0006DB
:01001F000DD3
:0100200003DC
:0100210003DB
:0100220008D5
:0100230007D5
:0100240015C6
:0100250002D8
:010026000ACF
:0100270002D6
:0100280002D5
:010029000BCB
:01002A0002D3
:01002B0002D2
:01002C0002D1
:01002D0013BF
:01002E0002CF
:01002F0002CE
:0100300007C8
:0100310012BC
:0100320002CB
:0100330006C6
:010034000CBF
:0100350004C6
:0100360008C1
:0100370012B6
:0100380006C1
:0100390002C4
:01003A0002C3
:01003B0008BC
:01003C0008BB
:01003D0003BF
:01003E0008B9
:01003F000CB4
:0100400006B9
:0100410009B5
:0100420012AB
:0100430010AC
:0100440002B9
:0100450012A8
:010046000AAF
:010047000EAA
:0100480007B0
:0100490009AD
:01004A0009AC
:01004B0004B0
:01004C0007AC
:01004D0004AE
:01004E0006AB
:01004F0002AE
:0100500002AD
:0100510002AC
:0100520002AB
:0100530006A6
:010054000C9F
:0100550008A2
:010056001099
:0100570003A5
:01005800089F
:0100590002A4
:01005A0005A0
:01005B0002A2
:01005C0002A1
:01005D00069C
:01005E00128F
:01005F00049C
:010060000897
:010061000A94
:010062000A93
:01006300128A
:010064001685
:010065001288
:010066000396
:010067000296
:010068000295
:010069000A8C
:01006A000491
:01006B000292
:01006C000390
:01006D00068C
:01006E00068B
:01006F00028E
:01007000028D
:010071000985
:010072000984
:01007300028A
:010074000685
:010075001476
:010076000980
:01007700097F
:010078000780
:010079000581
:01007A00067F
:01007B001272
:01007C00087B
:01007D001270
:01007E00037E
:01007F00047C
:01008000027D
:01008100136B
:010082000B72
:010083000B71
:010084000576
:010085000476
:010086000475
:010087000573
:01008800086F
:010089000C6A
:01008A000372
:01008B00066E
:01008C00165D
:01008D001161
:01008E00026F
:01008F00036D
:01009000036C
:01009100036B
:01009200036A
:010093000468
:010094001358
:010095000664
:010096001158
:010097000365
:010098000463
:010099000363
:01009A000362
:01009B000A5A
:01009C000360
:01009D00085A
:01009E000958
:01009F00065A
:0100A000055A
:0100A100035B
:0100A2000855
:0100A3000359
:0100A4000A51
:0100A5000357
:0100A6000356
:0100A7000A4E
:0100A8000255
:0100A9000C4A
:0100AA001243
:0100AB00163E
:0100AC00044F
:0100AD00034F
:0100AE00034E
:0100AF000B45
:0100B0000C43
:0100B1000B43
:0100B2000A43
:0100B300014B
:0100B400014A
:0100B5000149
:0100B6000148
:0100B7000147
:0100B800093E
:0100B900093D
:0100BA001233
:0100BB000440
:0100BC001231
:0100BD00063C
:0100BE000E33
:0100BF00033D
:0100C0000639
:0100C100033B
:0100C200122B
:0100C3000537
:0100C4000239
:0100C5001228
:0100C6001326
:0100C7000236
:0100C8001324
:0100C9000234
:0100CA00072E
:0100CB001420
:0100CC00161D
:0100CD00072B
:0100CE000B26
:0100CF000B25
:0100D000022D
:0100D100032B
:0100D2000429
:0100D3000C20
:0100D4000625
:0100D5001218
:0100D6000623
:0100D7000820
:0100D8000225
:0100D9000C1A
:0100DA000223
:0100DB000222
:0100DC000221
:0100DD000220
:0100DE000918
:0100DF000719
:0100E0000916
:0100E1000519
:0100E2000518
:0100E300100C
:0100E4000A11
:0100E5000515
:0100E6000514
:0100E7000216
:0100E8001205
:0100E9001204
:0100EA00090C
:0100EB00070D
:0100EC000112
:0100ED000111
:0100EE00050C
:0100EF000709
:0100F000050A
:0100F1000C02
:0100F2000B02
:0100F3000FFD
:0100F4000803
:0100F5000901
:0100F6000504
:0100F7000503
:0100F8000304
:0100F9000AFC
:0100FA000AFB
:0100FB0010F4
:0100FC0007FC
:0100FD000200
:0100FE0003FE
:0100FF0006FA
:010100000AF4
:0101010003FA
:0101020005F7
:0101030008F3
:0101040005F5
:0101050003F6
:0101060006F2
:0101070006F1
:0101080003F3
:010109000DE8
:01010A0002F2
:01010B0003F0
:01010C0003EF
:01010D0003EE
:01010E000CE4
:01010F0002ED
:0101100006E8
:0101110008E5
:010112000AE2
:0101130006E5
:0101140001E9
:0101150006E3
:0101160001E7
:0101170001E6
:0101180009DD
:0101190009DC
:01011A0009DB
:01011B0009DA
:01011C0006DC
:01011D0008D9
:01011E0008D8
:01011F0002DD
:0101200005D9
:0101210001DC
:0101220002DA
:0101230003D8
:0101240017C3
:010125000DCC
:0101260006D2
:0101270010C7
:0101280006D0
:0101290006CF
:01012A0005CF
:01012B0002D1
:01012C0002D0
:01012D0002CF
:01012E0002CE
:01012F0002CD
:0101300009C5
:0101310003CA
:0101320006C6
:0101330005C6
:0101340003C7
:0101350012B7
:0101360013B5
:0101370002C5
:0101380001C5
:0101390001C4
:01013A0006BE
:01013B0002C1
:01013C0009B9
:01013D000AB7
:01013E0003BD
:01013F000BB4
:0101400005B9
:0101410012AB
:0101420002BA
:0101430008B3
:010144000CAE
:0101450004B5
:010146000EAA
:0101470004B3
:0101480005B1
:0101490003B2
:01014A0006AE
:01014B00149F
:01014C00139F
:01014D0002AF
:01014E0003AD
:01014F0002AD
:0101500003AB
:0101510003AA
:0101520006A6
:010153000F9C
:0101540006A4
:0101550006A3
:010156001296
:010157000C9B
:0101580002A4
:0101590002A3
:01015A00099B
:01015B000D96
:01015C000999
:01015D00039E
:01015E00039D
:01015F00039C
:010160000995
:010161000598
:01016200029A
:010163000299
:010164000694
:010165001287
:010166000A8E
:010167000B8C
:01016800088E
:01016900098C
:01016A000490
:01016B000390
:01016C000290
:01016D00028F
:01016E00038D
:01016F00038C
:010170000985
:010171000984
:010172001379
:010173001378
:010174000A80
:010175000584
:010176000385
:010177000384
:010178000680
:01017900097C
:01017A000480
:01017B000E75
:01017C000280
:01017D00067B
:01017E000977
:01017F000778
:01018000116D
:010181000B72
:010182000D6F
:010183000972
:010184000575
:010185000673
:010186000672
:01018700086F
:010188000373
:01018900175E
:01018A000A6A
:01018B00066D
:01018C001260
:01018D001061
:01018E00036D
:01018F000669
:01019000026C
:01019100026B
:01019200026A
:010193000962
:010194000664
:010195000267
:010196000860
:010197000562
:010198000561
:010199000263
:01019A000361
:01019B001350
:01019C00065C
:01019D00025F
:01019E00055B
:01019F00055A
:0101A0000559
:0101A100035A
:0101A2000755
:0101A3000952
:0101A4000357
:0101A5000257
:0101A6000256
:0101A700094E
:0101A8000650
:0101A9000253
:0101AA000B49
:0101AB00064D
:0101AC000949
:0101AD00064B
:0101AE00064A
:0101AF000946
:0101B000133B
:0101B1000647
:0101B2000646
:0101B3000249
:0101B4000248
:0101B5000643
:0101B6000642
:0101B7000245
:0101B8000244
:0101B9001233
:0101BA001232
:0101BB000B38
:0101BC00073B
:0101BD000F32
:0101BE00162A
:0101BF000837
:0101C0000935
:0101C1000C31
:0101C2000735
:0101C3000B30
:0101C4000733
:0101C5000C2D
:0101C600092F
:0101C7001621
:0101C8000B2B
:0101C900062F
:0101CA00171D
:0101CB00052E
:0101CC00052D
:0101CD000C25
:0101CE00121E
:0101CF000827
:0101D0000826
:0101D100121B
:0101D2001517
:0101D3000229
:0101D4000228
:0101D5000326
:0101D6000226
:0101D7000225
:0101D8000224
:0101D9000322
:0101DA000222
:0101DB00081B
:0101DC000A18
:0101DD00021F
:0101DE00031D
:0101DF00031C
:0101E000021C
:0101E1000518
:0101E200011B
:0101E3000516
:0101E4000218
:0101E5000217
:0101E6000315
:0101E7000710
:0101E8000412
:0101E900070E
:0101EA000212
:0101EB00060D
:0101EC000210
:0101ED00070A
:0101EE00050B
:0101EF00040B
:0101F0000509
:0101F1000B02
:0101F2000408
:0101F3000803
:0101F40017F3
:0101F5000603
:0101F60015F3
:0101F7000205
:0101F8000402
:0101F90008FD
:0101FA0005FF
:0101FB000AF9
:0101FC0009F9
:0101FD0006FB
:0101FE0009F7
:0101FF0009F6
:0102000009F4
:0102010009F3
:0102020002F9
:0102030012E8
:0102040015E4
:0102050006F2
:0102060006F1
:0102070006F0
:0102080008ED
:0102090005EF
:01020A0005EE
:01020B0005ED
:01020C0003EE
:01020D0006EA
:01020E0001EE
:01020F0002EC
:0102100003EA
:0102110004E8
:0102120001EA
:0102130002E8
:0102140009E0
:0102150017D1
:0102160002E5
:0102170002E4
:0102180002E3
:010219000CD8
:01021A0001E2
:01021B000CD6
:01021C0012CF
:01021D0012CE
:01021E000CD3
:01021F0002DC
:0102200002DB
:0102210002DA
:0102220004D7
:0102230010CA
:0102240004D5
:0102250004D4
:010226000BCC
:0102270008CE
:0102280002D3
:0102290002D2
:01022A0008CB
:01022B0006CC
:01022C0012BF
:01022D0006CA
:01022E0009C6
:01022F0004CA
:0102300003CA
:0102310012BA
:0102320002C9
:0102330002C8
:0102340002C7
:0102350002C6
:0102360009BE
:010237000CBA
:0102380009BC
:0102390009BB
:01023A0002C1
:01023B0002C0
:01023C0009B8
:01023D0003BD
:01023E000EB1
:01023F0003BB
:010240000EAF
:010241000EAE
:0102420009B2
:0102430009B1
:0102440002B7
:0102450002B6
:0102460002B5
:0102470002B4
:0102480004B1
:0102490003B1
:01024A0008AB
:01024B0005AD
:01024C0002AF
:01024D0006AA
:01024E00129D
:01024F0004AA
:010250000CA1
:0102510001AB
:0102520005A6
:0102530005A5
:010254000A9F
:0102550008A0
:010256000F98
:0102570004A2
:010258000E97
:0102590004A0
:01025A0003A0
:01025B00039F
:01025C00128F
:01025D000E92
:01025E00039C
:01025F00039B
:010260000895
:010261000399
:010262000A91
:010263000397
:010264000396
:010265000B8D
:010266000A8D
:010267000294
:010268000293
:010269000490
:01026A00147F
:01026B000A88
:01026C00038E
:01026D000A86
:01026E00028D
:01026F000589
:010270000687
:010271000488
:010272000487
:010273000981
:010274000E7B
:010275001375
:010276000582
:01027700087E
:01027800087D
:01027900097B
:01027A001271
:01027B001270
:01027C000978
:01027D001769
:01027E00126D
:01027F000678
:01028000017C
:010281000A72
:010282000A71
:010283000278
:010284000277
:010285000276
:010286000275
:010287000373
:010288000372
:010289000173
:01028A00096A
:01028B000171
:01028C00066B
:01028D00125E
:01028E000669
:01028F00046A
:01029000036A
:010291000369
:010292000566
:010293000763
:010294000168
:010295000563
:010296000562
:010297000363
:010298000362
:010299000361
:01029A000360
:01029B00035F
:01029C00025F
:01029D00045C
:01029E00045B
:01029F000A54
:0102A0001548
:0102A1000656
:0102A2000655
:0102A3000654
:0102A4000653
:0102A5001444
:0102A6000651
:0102A7000452
:0102A8000451
:0102A9000A4A
:0102AA00064D
:0102AB00084A
:0102AC000948
:0102AD00044C
:0102AE000748
:0102AF00034B
:0102B000133A
:0102B1000646
:0102B2001239
:0102B3000248
:0102B4001435
:0102B5001632
:0102B6000245
:0102B7000244
:0102B8000342
:0102B9000242
:0102BA000A39
:0102BB00063C
:0102BC000C35
:0102BD00043C
:0102BE00043B
:0102BF00112D
:0102C0000934
:0102C1000735
:0102C2000734
:0102C3000139
:0102C4000138
:0102C5000E2A
:0102C600092E
:0102C7001224
:0102C8000431
:0102C9000430
:0102CA00072C
:0102CB00161C
:0102CC00042D
:0102CD000729
:0102CE000926
:0102CF001618
:0102D000022B
:0102D1000824
:0102D2000328
:0102D3000228
:0102D4000920
:0102D5001216
:0102D6000621
:0102D7000224
:0102D8000223
:0102D9000222
:0102DA00091A
:0102DB00081A
:0102DC00061B
:0102DD00061A
:0102DE00041B
:0102DF00130B
:0102E000031A
:0102E1000C10
:0102E2001209
:0102E3000416
:0102E4000910
:0102E5000216
:0102E6000215
:0102E7000214
:0102E8000213
:0102E9000212
:0102EA001201
:0102EB0014FE
:0102EC00060B
:0102ED000808
:0102EE00030C
:0102EF000707
:0102F0000C01
:0102F10012FA
:0102F2000506
:0102F3000505
:0102F4000405
:0102F5000404
:0102F6000601
:0102F7000204
:0102F8000203
:0102F90006FE
:0102FA0017EC
:0102FB0013EF
:0102FC000BF6
:0102FD0004FC
:0102FE0005FA
:0102FF0009F5
:0103000009F3
:0103010009F2
:010302000AF0
:0103030003F6
:0103040003F5
:0103050004F3
:0103060007EF
:0103070005F0
:010308000CE8
:0103090017DC
:01030A0004EE
:01030B0012DF
:01030C0009E7
:01030D0009E6
:01030E0003EB
:01030F0003EA
:010310000CE0
:0103110012D9
:010312000CDE
:0103130012D7
:0103140009DF
:0103150009DE
:0103160012D4
:0103170002E3
:0103180002E2
:0103190005DE
:01031A0006DC
:01031B0002DF
:01031C0008D8
:01031D0015CA
:01031E0003DB
:01031F000BD2
:0103200005D7
:0103210006D5
:0103220006D4
:0103230016C3
:0103240006D2
:0103250002D5
:0103260002D4
:0103270003D2
:0103280006CE
:0103290003D0
:01032A0010C2
:01032B0002CF
:01032C0010C0
:01032D0006C9
:01032E0002CC
:01032F0004C9
:0103300005C7
:0103310005C6
:0103320004C6
:0103330004C5
:0103340003C5
:0103350008BF
:0103360006C0
:0103370009BC
:010338000ABA
:0103390004BF
:01033A0003BF
:01033B0006BB
:01033C000CB4
:01033D0014AB
:01033E0009B5
:01033F0009B4
:0103400004B8
:0103410004B7
:0103420003B7
:0103430004B5
:0103440003B5
:0103450002B5
:0103460005B1
:0103470007AE
:010348000AAA
:0103490002B1
:01034A0012A0
:01034B0008A9
:01034C00129E
:01034D0003AC
:01034E00129C
:01034F0004A9
:0103500002AA
:0103510002A9
:0103520002A8
:010353000C9D
:01035400099F
:01035500099E
:010356001393
:010357000B9A
:0103580003A1
:01035900148F
:01035A0002A0
:01035B000899
:01035C000898
:01035D00039C
:01035E000896
:01035F00108D
:010360000498
:010361000497
:010362000694
:010363000297
:010364000494
:010365000691
:010366000393
:01036700078E
:010368001084
:01036900078C
:01036A00048E
:01036B00028F
:01036C00038D
:01036D00048B
:01036E00028C
:01036F000489
:010370001775
:010371000289
:010372000486
:010373000A7F
:010374000286
:010375000384
:010376000383
:01037700067F
:01037800067E
:01037900047F
:01037A00156D
:01037B00047D
:01037C00067A
:01037D00136C
:01037E000E70
:01037F000677
:01038000027A
:010381000B70
:010382000377
:010383000277
:010384000276
:010385001265
:010386000B6B
:010387001461
:010388000D67
:010389000B68
:01038A00076B
:01038B00056C
:01038C00056B
:01038D00026D
:01038E00036B
:01038F000469
:010390000864
:010391000E5D
:010392000961
:010393001257
:010394000365
:010395001750
:010396000A5C
:010397001253
:010398000361
:010399000B58
:01039A000C56
:01039B00045D
:01039C00045C
:01039D000659
:01039E000559
:01039F00025B
:0103A000025A
:0103A1000259
:0103A2000258
:0103A3001049
:0103A4001444
:0103A5000255
:0103A6000254
:0103A700064F
:0103A800064E
:0103A900094A
:0103AA000F43
:0103AB00133E
:0103AC000749
:0103AD000946
:0103AE000846
:0103AF00123B
:0103B0000448
:0103B1000942
:0103B2000743
:0103B3000B3E
:0103B4000246
:0103B5000542
:0103B6000541
:0103B700083D
:0103B800063E
:0103B900043F
:0103BA00063C
:0103BB00043D
:0103BC00023E
:0103BD00043B
:0103BE000A34
:0103BF000736
:0103C0001428
:0103C1000437
:0103C2000634
:0103C3000C2D
:0103C4000335
:0103C5000433
:0103C6000432
:0103C7000332
:0103C800082C
:0103C9000330
:0103CA000131
:0103CB00052C
:0103CC00052B
:0103CD000A25
:0103CE001717
:0103CF000726
:0103D000022A
:0103D1000625
:0103D2000426
:0103D3000821
:0103D4000424
:0103D5000423
:0103D600081E
:0103D7000520
:0103D8001311
:0103D900081B
:0103DA000D15
:0103DB00170A
:0103DC00021E
:0103DD00021D
:0103DE000618
:0103DF000617
:0103E000120A
:0103E1000912
:0103E2000218
:0103E3000217
:0103E4000315
:0103E5000314
:0103E6000313
:0103E7000312
:0103E8001301
:0103E900060D
:0103EA001002
:0103EB00030E
:0103EC00040C
:0103ED000F00
:0103EE00040A
:0103EF00020B
:0103F000020A
:0103F1000605
:0103F2000BFF
:0103F30015F4
:0103F4000404
:0103F5000304
:0103F60015F1
:0103F70013F2
:0103F8000301
:0103F9000300
:0103FA0007FB
:0103FB0009F8
:0103FC0008F8
:0103FD000BF4
:0103FE0009F5
:0103FF0012EB
:0104000007F4
:0104010008F2
:0104020006F3
:0104030002F6
:0104040002F5
:0104050002F4
:0104060006EF
:0104070006EE
:0104080001F2
:0104090002F0
:01040A0001F0
:01040B0006EA
:01040C0002ED
:01040D0001ED
:01040E0003EA
:01040F0005E7
:0104100001EA
:0104110002E8
:0104120013D6
:0104130012D6
:0104140009DE
:0104150002E4
:010416000ADB
:010417000ADA
:0104180003E0
:0104190008DA
:01041A0012CF
:01041B0003DD
:01041C0004DB
:01041D0004DA
:01041E000ECF
:01041F0004D8
:0104200005D6
:0104210004D6
:010422000BCE
:0104230006D2
:0104240009CE
:0104250013C3
:0104260009CC
:0104270012C2
:0104280009CA
:0104290017BB
:01042A000EC3
:01042B0009C7
:01042C0006C9
:01042D000DC1
:01042E0006C7
:01042F0007C5
:0104300003C8
:0104310003C7
:0104320005C4
:0104330008C0
:0104340009BE
:0104350006C0
:0104360009BC
:0104370006BE
:0104380007BC
:0104390007BB
:01043A0003BE
:01043B0003BD
:01043C0005BA
:01043D0002BC
:01043E0002BB
:01043F0003B9
:0104400009B2
:0104410009B1
:0104420003B6
:0104430004B4
:0104440004B3
:0104450003B3
:0104460005B0
:0104470005AF
:010448000CA7
:0104490009A9
:01044A000CA5
:01044B000BA5
:01044C000BA4
:01044D0006A8
:01044E001499
:01044F000E9E
:01045000109B
:010451001397
:010452000A9F
:0104530004A4
:010454001592
:0104550003A3
:010456000E97
:0104570002A2
:01045800099A
:01045900049E
:01045A00138E
:01045B00148C
:01045C00029D
:01045D000896
:01045E000697
:01045F000696
:010460000299
:010461000298
:010462000693
:010463000692
:01046400088F
:010465000294
:010466000293
:010467000292
:01046800098A
:010469000290
:01046A00078A
:01046B000789
:01046C00038C
:01046D00028C
:01046E00028B
:01046F000389
:010470000A81
:010471000783
:010472000683
:010473000682
:010474000285
:010475000A7C
:01047600097C
:01047700067E
:01047800057E
:010479001072
:01047A000879
:01047B00027E
:01047C000976
:01047D000975
:01047E000974
:01047F000973
:010480001269
:010481001268
:010482001267
:010483001365
:010484000275
:010485000571
:010486000273
:010487000272
:01048800066D
:010489000B67
:01048A00076A
:01048B00125E
:01048C00026D
:01048D00125C
:01048E000865
:01048F00125A
:010490000269
:010491000268
:010492000168
:010493000167
:010494000760
:01049500095D
:010496001550
:01049700075D
:01049800164D
:010499000C56
:01049A000958
:01049B00065A
:01049C000758
:01049D000757
:01049E000657
:01049F000656
:0104A0000A51
:0104A1000357
:0104A2000752
:0104A3000751
:0104A4000651
:0104A5000353
:0104A6000352
:0104A7000351
:0104A8001241
:0104A9000250
:0104AA00024F
:0104AB00024E
:0104AC00024D
:0104AD00024C
:0104AE000845
:0104AF000943
:0104B0000546
:0104B1000644
:0104B2001336
:0104B3000444
:0104B400093E
:0104B5000541
:0104B6000441
:0104B700063E
:0104B800063D
:0104B900083A
:0104BA00073A
:0104BB000A36
:0104BC000A35
:0104BD00023C
:0104BE000439
:0104BF000438
:0104C0000239
:0104C1000238
:0104C2000633
:0104C3000632
:0104C400092E
:0104C5000F27
:0104C600092C
:0104C700092B
:0104C800092A
:0104C9000929
:0104CA00042D
:0104CB00022E
:0104CC000A25
:0104CD00042A
:0104CE000A23
:0104CF000923
:0104D0000B20
:0104D1000624
:0104D2000623
:0104D300091F
:0104D4000522
:0104D5000620
:0104D600061F
:0104D7000C18
:0104D800081B
:0104D900081A
:0104DA000C15
:0104DB00041C
:0104DC00041B
:0104DD00041A
:0104DE000F0E
:0104DF000814
:0104E0000516
:0104E1000614
:0104E2000316
:0104E3000216
:0104E4000314
:0104E5001402
:0104E600060F
:0104E7000A0A
:0104E8000211
:0104E9000210
:0104EA00020F
:0104EB00020E
:0104EC00030C
:0104ED0012FC
:0104EE000A03
:0104EF000408
:0104F0000308
:0104F1000901
:0104F2000900
:0104F3000206
:0104F4000205
:0104F5000204
:0104F60014F1
:0104F70014F0
:0104F80012F1
:0104F90006FC
:0104FA0016EB
:0104FB0006FA
:0104FC0006F9
:0104FD0017E7
:0104FE0002FB
:0104FF0002FA
:0105000002F8
:0105010002F7
:0105020002F6
:0105030009EE
:0105040012E4
:0105050009EC
:0105060017DD
:0105070012E1
:0105080009E9
:0105090004ED
:01050A0005EB
:01050B0004EB
:01050C0003EB
:01050D0004E9
:01050E0002EA
:01050F0002E9
:0105100006E4
:0105110004E5
:0105120004E4
:0105130003E4
:0105140003E3
:0105150006DF
:0105160009DB
:0105170004DF
:010518000BD7
:0105190006DB
:01051A000AD6
:01051B000AD5
:01051C0005D9
:01051D0012CB
:01051E0013C9
:01051F0006D5
:010520000BCF
:0105210007D2
:010522000BCD
:0105230005D2
:0105240003D3
:0105250006CF
:0105260006CE
:0105270006CD
:0105280002D0
:0105290002CF
:01052A0009C7
:01052B0012BD
:01052C000DC1
:01052D0004C9
:01052E0004C8
:01052F0004C7
:0105300002C8
:0105310003C6
:0105320003C5
:0105330005C2
:0105340005C1
:0105350006BF
:0105360006BE
:0105370006BD
:010538000CB6
:0105390001C0
:01053A0001BF
:01053B0001BE
:01053C0001BD
:01053D0002BB
:01053E0002BA
:01053F0012A9
:0105400007B3
:010541000CAD
:0105420009AF
:0105430014A3
:0105440003B3
:0105450012A3
:0105460012A2
:0105470006AD
:0105480009A9
:0105490009A8
:01054A0003AD
:01054B0006A9
:01054C0004AA
:01054D0003AA
:01054E0004A8
:01054F0003A8
:010550000C9E
:0105510006A3
:0105520006A2
:01055300099E
:010554000C9A
:010555001491
:0105560004A0
:0105570001A2
:01055800059D
:01055900069B
:01055A00069A
:01055B00049B
:01055C00049A
:01055D000994
:01055E000C90
:01055F000299
:010560000397
:010561000495
:010562000692
:01056300088F
:010564000393
:010565000590
:01056600058F
:01056700068D
:01056800068C
:01056900068B
:01056A00068A
:01056B00127D
:01056C000985
:01056D000588
:01056E000587
:01056F000388
:010570000387
:010571000584
:010572000385
:010573001275
:010574000284
:010575000382
:010576000381
:010577000281
:010578000280
:01057900047D
:01057A00057B
:01057B001669
:01057C00017D
:01057D000875
:01057E000A72
:01057F000477
:010580000377
:010581000574
:010582001464
:010583000671
:010584000670
:010585000A6B
:010586000470
:010587000370
:010588000270
:01058900036E
:01058A00026E
:01058B00026D
:01058C00135B
:01058D00026B
:01058E00026A
:01058F000269
:010590000565
:010591000267
:010592000266
:01059300085F
:010594000660
:010595000263
:01059600065E
:010597000C57
:010598000959
:010599000958
:01059A00124E
:01059B001649
:01059C000658
:01059D000657
:01059E00104C
:01059F000952
:0105A0000654
:0105A1000653
:0105A2000256
:0105A300084F
:0105A400084E
:0105A5000253
:0105A6001242
:0105A7001241
:0105A8000B47
:0105A9000948
:0105AA000749
:0105AB000649
:0105AC001737
:0105AD000449
:0105AE000646
:0105AF000249
:0105B0000248
:0105B1000247
:0105B2001434
:0105B3000641
:0105B4000244
:0105B500063F
:0105B6000242
:0105B7000142
:0105B800053D
:0105B900043D
:0105BA00023E
:0105BB00023D
:0105BC00033B
:0105BD00033A
:0105BE000339
:0105BF000239
:0105C0000931
:0105C1000B2E
:0105C2000533
:0105C3000532
:0105C4000432
:0105C5000431
:0105C600052F
:0105C700151E
:0105C8000929
:0105C900062B
:0105CA00062A
:0105CB00042B
:0105CC000529
:0105CD000528
:0105CE000428
:0105CF000526
:0105D0000624
:0105D1000227
:0105D2000325
:0105D3000324
:0105D4000B1B
:0105D5000322
:0105D6000420
:0105D700041F
:0105D800041E
:0105D9000819
:0105DA00120E
:0105DB00100F
:0105DC00041A
:0105DD00031A
:0105DE000418
:0105DF000417
:0105E0000416
:0105E1000415
:0105E2000513
:0105E3000710
:0105E40017FF
:0105E5000411
:0105E6000410
:0105E7000C07
:0105E8000C06
:0105E900060B
:0105EA00060A
:0105EB00040B
:0105EC0012FC
:0105ED0012FB
:0105EE0016F6
:0105EF000CFF
:0105F0000604
:0105F1000603
:0105F2000206
:0105F30009FE
:0105F40007FF
:0105F5000302
:0105F60006FE
:0105F7000201
:0105F8000200
:0105F90002FF
:0105FA0006FA
:0105FB000EF1
:0105FC0011ED
:0105FD000CF1
:0105FE0009F3
:0105FF000CEF
:0106000009F0
:0106010012E6
:0106020009EE
:0106030009ED
:0106040017DE
:0106050014E0
:0106060008EB
:0106070004EE
:010608000AE7
:0106090006EA
:01060A0007E8
:01060B0007E7
:01060C0003EA
:01060D0013D9
:01060E0009E2
:01060F0009E1
:010610000ADF
:0106110009DF
:0106120002E5
:0106130002E4
:0106140004E1
:0106150004E0
:0106160003E0
:0106170006DC
:010618000AD7
:0106190007D9
:01061A0009D6
:01061B0002DC
:01061C0003DA
:01061D0006D6
:01061E000AD1
:01061F000AD0
:0106200005D4
:0106210002D6
:0106220008CF
:010623000CCA
:0106240002D3
:0106250012C2
:0106260010C3
:0106270006CC
:0106280007CA
:0106290004CC
:01062A0014BB
:01062B0003CB
:01062C0002CB
:01062D0002CA
:01062E0002C9
:01062F0004C6
:0106300001C8
:0106310003C5
:0106320013B4
:0106330009BD
:0106340006BF
:0106350002C2
:0106360002C1
:0106370004BE
:0106380012AF
:010639000EB2
:01063A0012AD
:01063B0009B5
:01063C0006B7
:01063D0007B5
:01063E0014A7
:01063F0009B1
:010640000FAA
:0106410006B2
:0106420006B1
:0106430009AD
:0106440009AC
:0106450006AE
:0106460006AD
:0106470004AE
:0106480008A9
:0106490003AD
:01064A0004AB
:01064B001797
:01064C0006A7
:01064D0003A9
:01064E00109B
:01064F0004A6
:0106500005A4
:01065100099F
:01065200099E
:0106530006A0
:010654001491
:010655001193
:01065600079C
:01065700178B
:01065800029F
:01065900029E
:01065A00029D
:01065B00128C
:01065C00039A
:01065D00019B
:01065E00019A
:01065F000694
:010660000594
:010661000692
:010662000295
:010663000591
:010664000590
:010665000292
:010666000291
:01066700068C
:01066800127F
:01066900068A
:01066A000689
:01066B000B83
:01066C000588
:01066D000587
:01066E000586
:01066F000387
:010670000584
:010671000880
:01067200087F
:010673000B7B
:010674000481
:010675000381
:010676000281
:010677000280
:01067800077A
:01067900047C
:01067A00037C
:01067B00037B
:01067C000479
:01067D001369
:01067E000279
:01067F001268
:010680000574
:010681000474
:010682001067
:010683001264
:010684000570
:01068500066E
:01068600066D
:010687000B67
:01068800036E
:01068900046C
:01068A00056A
:01068B00046A
:01068C000469
:01068D000963
:01068E000A61
:01068F001555
:010690000B5E
:010691000662
:010692000364
:010693000660
:01069400065F
:010695000B59
:010696001251
:01069700164C
:01069800065B
:01069900025E
:01069A00025D
:01069B00124C
:01069C00035A
:01069D000656
:01069E000457
:01069F001248
:0106A0000653
:0106A1000256
:0106A2000255
:0106A3001244
:0106A4000253
:0106A5000252
:0106A600054E
:0106A700054D
:0106A800054C
:0106A9000947
:0106AA001738
:0106AB000846
:0106AC000647
:0106AD000943
:0106AE001239
:0106AF000B3F
:0106B0000B3E
:0106B1000C3C
:0106B200083F
:0106B3000E38
:0106B4001530
:0106B5000C38
:0106B600043F
:0106B700073B
:0106B800063B
:0106B900043C
:0106BA00043B
:0106BB000638
:0106BC00033A
:0106BD001329
:0106BE000536
:0106BF000931
:0106C0000237
:0106C1001127
:0106C2000433
:0106C3000333
:0106C4001025
:0106C500052F
:0106C600062D
:0106C700032F
:0106C800141D
:0106C900052B
:0106CA00022D
:0106CB00022C
:0106CC00022B
:0106CD000923
:0106CE000229
:0106CF000228
:0106D0000227
:0106D1000226
:0106D2000621
:0106D3000620
:0106D4000322
:0106D5000321
:0106D6000320
:0106D700071B
:0106D8000C15
:0106D900021E
:0106DA000619
:0106DB00021C
:0106DC000617
:0106DD000E0E
:0106DE00100B
:0106DF000218
:0106E0001504
:0106E1000612
:0106E2000512
:0106E300080E
:0106E400070E
:0106E5000410
:0106E600060D
:0106E700060C
:0106E800070A
:0106E9000907
:0106EA000609
:0106EB000806
:0106EC0012FB
:0106ED000903
:0106EE0013F8
:0106EF0017F3
:0106F0000900
:0106F10009FF
:0106F20012F5
:0106F30012F4
:0106F4000104
:0106F50008FC
:0106F60012F1
:0106F7000101
:0106F80004FD
:0106F9000AF6
:0106FA0003FC
:0106FB000AF4
:0106FC0005F8
:0106FD0006F6
:0106FE0009F2
:0106FF0004F6
:0107000005F3
:0107010007F0
:010702000AEC
:0107030004F1
:0107040002F2
:0107050012E1
:0107060002F0
:0107070002EF
:0107080002EE
:0107090002ED
:01070A0009E5
:01070B000EDF
:01070C000FDD
:01070D0004E7
:01070E0003E7
:01070F0003E6
:0107100006E2
:0107110004E3
:0107120008DE
:0107130006DF
:0107140006DE
:010715000CD7
:0107160009D9
:0107170017CA
:010718000BD5
:0107190009D6
:01071A0005D9
:01071B0002DB
:01071C0006D6
:01071D0006D5
:01071E0010CA
:01071F000ACF
:0107200012C6
:0107210009CE
:010722000ACC
:0107230012C3
:010724000FC5
:010725000FC4
:010726000CC6
:0107270002CF
:0107280002CE
:0107290003CC
:01072A000AC4
:01072B0012BB
:01072C000AC2
:01072D0005C6
:01072E0007C3
:01072F0003C6
:0107300003C5
:0107310003C4
:0107320004C2
:0107330002C3
:0107340001C3
:0107350008BB
:0107360002C0
:0107370002BF
:0107380004BC
:0107390004BB
:01073A0002BC
:01073B0002BB
:01073C0009B3
:01073D0009B2
:01073E0002B8
:01073F0002B7
:0107400002B6
:0107410004B3
:010742000CAA
:010743000CA9
:010744000EA6
:01074500149F
:0107460004AE
:010747000DA4
:0107480006AA
:0107490002AD
:01074A000CA2
:01074B000F9E
:01074C0004A8
:01074D0006A5
:01074E0008A2
:01074F0001A8
:0107500002A6
:0107510002A5
:0107520006A0
:010753001194
:01075400059F
:01075500059E
:010756001290
:01075700049D
:01075800039D
:01075900029D
:01075A001589
:01075B00039A
:01075C000696
:01075D000893
:01075E000991
:01075F000594
:010760000395
:010761000592
:010762000393
:010763000392
:01076400058F
:01076500088B
:01076600068C
:01076700038E
:01076800028E
:01076900028D
:01076A000A84
:01076B00127B
:01076C000785
:01076D000784
:01076E000189
:01076F000584
:010770000C7C
:010771001473
:010772001373
:01077300097C
:010774000E76
:010775000E75
:01077600037F
:01077700126F
:01077800067A
:010779000976
:01077A000A74
:01077B000A73
:01077C000C70
:01077D000A71
:01077E000377
:01077F000376
:010780000474
:010781000473
:010782000274
:010783000A6B
:010784000371
:01078500076C
:010786000D65
:01078700046D
:010788000A66
:01078900056A
:01078A00026C
:01078B000667
:01078C000963
:01078D000764
:01078E001654
:01078F001257
:010790000266
:010791000265
:010792000264
:010793000263
:010794000361
:010795000261
:010796000959
:010797000958
:010798000F51
:01079900035C
:01079A000658
:01079B000A53
:01079C000656
:01079D000952
:01079E000258
:01079F000257
:0107A0000256
:0107A1000255
:0107A2000254
:0107A3000352
:0107A400084C
:0107A5000251
:0107A600034F
:0107A700123F
:0107A8000A46
:0107A9000A45
:0107AA000945
:0107AB00034A
:0107AC000547
:0107AD000447
:0107AE001337
:0107AF000643
:0107B0000741
:0107B1001037
:0107B2001234
:0107B3000A3B
:0107B4000440
:0107B500063D
:0107B600043E
:0107B700033E
:0107B800063A
:0107B9000639
:0107BA000935
:0107BB000C31
:0107BC000A32
:0107BD000A31
:0107BE000634
:0107BF000633
:0107C0000434
:0107C1000631
:0107C2000A2C
:0107C3000A2B
:0107C4001222
:0107C500042F
:0107C600171B
:0107C700062B
:0107C8000A26
:0107C900131C
:0107CA000A24
:0107CB000726
:0107CC000428
:0107CD000526
:0107CE000228
:0107CF000227
:0107D0000226
:0107D1000225
:0107D2000323
:0107D300081D
:0107D400081C
:0107D5000C17
:0107D600031F
:0107D700071A
:0107D8000719
:0107D900041B
:0107DA00041A
:0107DB00021B
:0107DC00011B
:0107DD000318
:0107DE000A10
:0107DF000C0D
:0107E0000414
:0107E1000413
:0107E2000610
:0107E3000510
:0107E400070D
:0107E500050E
:0107E600030F
:0107E7000C05
:0107E800040C
:0107E9000B04
:0107EA000C02
:0107EB000904
:0107EC0017F5
:0107ED0013F8
:0107EE000604
:0107EF000603
:0107F0000206
:0107F1000205
:0107F2000204
:0107F3000203
:0107F4000202
:0107F50008FB
:0107F60007FB
:0107F70009F8
:0107F80002FE
:0107F90002FD
:0107FA000AF4
:0107FB0003FA
:0107FC0005F7
:0107FD0004F7
:0107FE0004F6
:0107FF0004F5
:0108000002F5
:0108010002F4
:0108020002F3
:0108030002F2
:0108040017DC
:010805000AE8
:0108060017DA
:0108070013DD
:0108080012DD
:0108090009E5
:01080A0006E7
:01080B0006E6
:01080C0014D7
:01080D0003E7
:01080E0012D7
:01080F0003E5
:0108100006E1
:0108110006E0
:0108120006DF
:0108130005DF
:0108140002E1
:0108150002E0
:0108160002DF
:0108170006DA
:0108180002DD
:0108190005D9
:01081A0002DB
:01081B0001DB
:01081C0002D9
:01081D0002D8
:01081E0013C6
:01081F0009CF
:0108200007D0
:010821000EC8
:0108220008CD
:0108230008CC
:0108240009CA
:0108250009C9
:0108260006CB
:0108270002CE
:0108280002CD
:0108290002CC
:01082A0002CB
:01082B0002CA
:01082C0009C2
:01082D0002C8
:01082E0004C5
:01082F0009BF
:0108300007C0
:0108310005C1
:010832000ABB
:0108330004C0
:0108340016AD
:0108350002C0
:0108360003BE
:0108370002BE
:0108380005BA
:0108390004BA
:01083A0006B7
:01083B000CB0
:01083C0006B5
:01083D0006B4
:01083E0002B7
:01083F0013A5
:0108400006B1
:0108410008AE
:0108420006AF
:0108430006AE
:0108440006AD
:01084500179B
:010846000AA7
:010847000AA6
:01084800139C
:01084900139B
:01084A00109D
:01084B0008A4
:01084C0006A5
:01084D0002A8
:01084E001297
:01084F001296
:0108500006A1
:0108510006A0
:01085200069F
:0108530004A0
:01085400069D
:010855000A98
:01085600029F
:01085700039D
:01085800029D
:01085900039B
:01085A00039A
:01085B000F8D
:01085C001487
:01085D000298
:01085E000693
:01085F000296
:010860000394
:010861000294
:01086200068F
:01086300098B
:01086400098A
:01086500068C
:01086600028F
:01086700048C
:01086800127D
:01086900028C
:01086A00137A
:01086B000F7D
:01086C000784
:01086D000B7F
:01086E000287
:01086F001276
:010870000384
:010871001472
:010872000580
:010873000480
:010874000380
:01087500047E
:01087600047D
:01087700067A
:010878000679
:01087900017D
:01087A000776
:01087B000478
:01087C000477
:01087D000575
:01087E000376
:01087F000A6E
:010880001265
:010881000F67
:01088200086D
:01088300175D
:010884000271
:01088500046E
:010886000A67
:01088700125E
:010888001758
:01088900026C
:01088A000469
:01088B00125A
:01088C001259
:01088D000961
:01088E000A5F
:01088F000761
:010890000661
:01089100075F
:01089200075E
:01089300065E
:01089400065D
:010895000260
:01089600124F
:01089700025E
:010898000A55
:010899000B53
:01089A000459
:01089B000953
:01089C000259
:01089D000456
:01089E000455
:01089F000454
:0108A0000354
:0108A1000452
:0108A2000352
:0108A3000450
:0108A400044F
:0108A5000E44
:0108A6000B46
:0108A700024E
:0108A8000B44
:0108A9000945
:0108AA00123B
:0108AB000448
:0108AC001239
:0108AD001238
:0108AE000940
:0108AF00093F
:0108B000093E
:0108B1000343
:0108B2000342
:0108B3000242
:0108B4000241
:0108B5000240
:0108B600023F
:0108B700023E
:0108B800023D
:0108B9000638
:0108BA00023B
:0108BB000537
:0108BC000536
:0108BD000238
:0108BE000336
:0108BF000434
:0108C0000433
:0108C100171F
:0108C200072E
:0108C3000430
:0108C400052E
:0108C500042E
:0108C600022F
:0108C700032D
:0108C800032C
:0108C900121C
:0108CA00101D
:0108CB00101C
:0108CC000427
:0108CD000822
:0108CE000425
:0108CF00091F
:0108D000091E
:0108D1001016
:0108D2001312
:0108D300091B
:0108D4000122
:0108D500170B
:0108D600051C
:0108D700130D
:0108D800031C
:0108D9000C12
:0108DA000914
:0108DB000A12
:0108DC001407
:0108DD000713
:0108DE000712
:0108DF000216
:0108E0000512
:0108E1000610
:0108E2000312
:0108E300060E
:0108E4000211
:0108E5000909
:0108E6000B06
:0108E7000B05
:0108E800030C
:0108E900020C
:0108EA000607
:0108EB0017F5
:0108EC000803
:0108ED000604
:0108EE000207
:0108EF000503
:0108F0000205
:0108F1000303
:0108F2000302
:0108F3000301
:0108F4000300
:0108F5000200
:0108F60002FF
:0108F70005FB
:0108F80005FA
:0108F90009F5
:0108FA000EEF
:0108FB000AF2
:0108FC0005F6
:0108FD0001F9
:0108FE0003F6
:0108FF0005F3
:0109000008EE
:010901000CE9
:0109020002F2
:0109030003F0
:0109040002F0
:0109050002EF
:0109060013DD
:0109070004EB
:0109080002EC
:0109090012DB
:01090A000AE2
:01090B0012D9
:01090C0003E7
:01090D0017D2
:01090E0004E4
:01090F0002E5
:0109100004E2
:0109110005E0
:0109120009DB
:0109130013D0
:0109140008DA
:0109150008D9
:010916000AD6
:0109170006D9
:0109180007D7
:0109190006D7
:01091A0006D6
:01091B000FCC
:01091C0006D4
:01091D0007D2
:01091E0006D2
:01091F0006D1
:0109200002D4
:0109210002D3
:0109220003D1
:0109230003D0
:0109240009C9
:0109250009C8
:0109260009C7
:0109270009C6
:0109280012BC
:0109290012BB
:01092A0002CA
:01092B0002C9
:01092C0001C9
:01092D0008C1
:01092E0002C6
:01092F0005C2
:0109300006C0
:0109310007BE
:0109320002C2
:0109330006BD
:0109340005BD
:0109350009B8
:0109360001BF
:0109370001BE
:0109380003BB
:0109390003BA
:01093A0006B6
:01093B0003B8
:01093C0003B7
:01093D0005B4
:01093E0005B3
:01093F0005B2
:0109400002B4
:0109410002B3
:0109420005AF
:0109430007AC
:0109440006AC
:01094500179A
:0109460007A9
:0109470002AD
:0109480002AC
:0109490007A6
:01094A0008A4
:01094B0007A4
:01094C0005A5
:01094D0003A6
:01094E0008A0
:01094F00089F
:0109500003A3
:0109510003A2
:01095200059F
:01095300069D
:010954000C96
:01095500059C
:010956000997
:010957000B94
:01095800049A
:010959000994
:01095A000D8F
:01095B000299
:01095C000298
:01095D000A8F
:01095E001484
:01095F00098E
:010960000294
:010961000293
:01096200167E
:01096300098A
:01096400177B
:010965001081
:01096600127E
:01096700028D
:01096800038B
:01096900038A
:01096A000488
:01096B000784
:01096C000A80
:01096D001376
:01096E000286
:01096F000285
:010970000284
:010971000382
:01097200067E
:010973000281
:01097400087A
:01097500126F
:01097600057B
:010977000C73
:010978000678
:010979000A73
:01097A001765
:01097B000972
:01097C000278
:01097D000277
:01097E000870
:01097F000275
:010980000373
:01098100066F
:01098200056F
:01098300056E
:01098400036F
:01098500036E
:010986000769
:01098700036C
:010988000668
:01098900026B
:01098A00105C
:01098B000764
:01098C000862
:01098D000366
:01098E000365
:01098F000166
:010990000B5B
:010991001253
:01099200065E
:010993000360
:01099400045E
:01099500045D
:010996000A56
:01099700015E
:010998000955
:010999000954
:01099A000953
:01099B000952
:01099C000951
:01099D000653
:01099E000A4E
:01099F00094E
:0109A0001244
:0109A1000352
:0109A2000252
:0109A3001241
:0109A400034F
:0109A5000A47
:0109A600034D
:0109A700014E
:0109A800034B
:0109A9000B42
:0109AA000349
:0109AB000B40
:0109AC000446
:0109AD000A3F
:0109AE000741
:0109AF000641
:0109B0000244
:0109B1000441
:0109B2000440
:0109B300043F
:0109B400033F
:0109B500043D
:0109B600033D
:0109B700033C
:0109B800033B
:0109B900033A
:0109BA000537
:0109BB000338
:0109BC000337
:0109BD000534
:0109BE000830
:0109BF001324
:0109C000092D
:0109C100092C
:0109C200062E
:0109C3000330
:0109C4000E24
:0109C500042D
:0109C6000729
:0109C700042B
:0109C800042A
:0109C9001617
:0109CA000626
:0109CB000328
:0109CC000327
:0109CD001118
:0109CE000622
:0109CF00091E
:0109D0000A1C
:0109D1000520
:0109D200081C
:0109D3000320
:0109D400031F
:0109D500130E
:0109D600061A
:0109D7000A15
:0109D8000A14
:0109D9000914
:0109DA00120A
:0109DB001209
:0109DC000911
:0109DD000910
:0109DE000216
:0109DF000215
:0109E000080E
:0109E100060F
:0109E2000212
:0109E300060D
:0109E4000210
:0109E500060B
:0109E600060A
:0109E700030C
:0109E800030B
:0109E900020B
:0109EA000606
:0109EB000605
:0109EC000208
:0109ED000207
:0109EE000602
:0109EF000403
:0109F0000402
:0109F10009FC
:0109F20009FB
:0109F30006FD
:0109F40009F9
:0109F50012EF
:0109F60003FD
:0109F70003FC
:0109F80003FB
:0109F90007F6
:0109FA0002FA
:0109FB0006F5
:0109FC0006F4
:0109FD0003F6
:0109FE0010E8
:0109FF0003F4
:010A000002F3
:010A010002F2
:010A020002F1
:010A030005ED
:010A040009E8
:010A050012DE
:010A060005EA
:010A070011DD
:010A080009E4
:010A090017D5
:010A0A0012D9
:010A0B0002E8
:010A0C000EDB
:010A0D0003E5
:010A0E0002E5
:010A0F0002E4
:010A100002E3
:010A110007DD
:010A120004DF
:010A130003DF
:010A140003DE
:010A150004DC
:010A160004DB
:010A170004DA
:010A180004D9
:010A190006D6
:010A1A0009D2
:010A1B000AD0
:010A1C0003D6
:010A1D0004D4
:010A1E0008CF
:010A1F0005D1
:010A200005D0
:010A210005CF
:010A220006CD
:010A230005CD
:010A240006CB
:010A250005CB
:010A260005CA
:010A270006C8
:010A280012BB
:010A290012BA
:010A2A0002C9
:010A2B0004C6
:010A2C0004C5
:010A2D0004C4
:010A2E0006C1
:010A2F0009BD
:010A300009BC
:010A310006BE
:010A320006BD
:010A330009B9
:010A340006BB
:010A350003BD
:010A360002BD
:010A37000AB4
:010A38000AB3
:010A390004B8
:010A3A0001BA
:010A3B0001B9
:010A3C0001B8
:010A3D0006B2
:010A3E0005B2
:010A3F0007AF
:010A400007AE
:010A410003B1
:010A420004AF
:010A430004AE
:010A440005AC
:010A450009A7
:010A460009A6
:010A47000CA2
:010A480005A8
:010A490003A9
:010A4A0002A9
:010A4B0007A3
:010A4C0002A7
:010A4D0007A1
:010A4E001394
:010A4F0003A3
:010A500005A0
:010A5100059F
:010A5200049F
:010A5300069C
:010A5400039E
:010A55000799
:010A56000798
:010A57000D91
:010A5800039A
:010A5900118B
:010A5A00118A
:010A5B000892
:010A5C000891
:010A5D000C8C
:010A5E000592
:010A5F000690
:010A6000098C
:010A61000193
:010A62000192
:010A63000290
:010A6400028F
:010A65000B85
:010A6600048B
:010A6700048A
:010A6800038A
:010A69000686
:010A6A000388
:010A6B000387
:010A6C000683
:010A6D000385
:010A6E00087F
:010A6F000581
:010A7000077E
:010A71000B79
:010A7200067D
:010A7300047E
:010A7400027F
:010A7500017F
:010A7600017E
:010A77000975
:010A78000479
:010A79000379
:010A7A000972
:010A7B000179
:010A7C000178
:010A7D000573
:010A7E001265
:010A7F001462
:010A8000096C
:010A81001361
:010A82001360
:010A83000969
:010A8400066B
:010A85000769
:010A8600036C
:010A8700036B
:010A8800036A
:010A8900026A
:010A8A000269
:010A8B000268
:010A8C000267
:010A8D000464
:010A8E000463
:010A8F000264
:010A90000362
:010A91000361
:010A9200095A
:010A9300085A
:010A94000A57
:010A95000957
:010A9600035C
:010A97000559
:010A9800035A
:010A99000C50
:010A9A000457
:010A9B000456
:010A9C000653
:010A9D000C4C
:010A9E000651
:010A9F000650
:010AA000074E
:010AA100064E
:010AA2001340
:010AA300064C
:010AA400024F
:010AA500024E
:010AA600054A
:010AA7000549
:010AA8000746
:010AA9000349
:010AAA000843
:010AAB000A40
:010AAC001237
:010AAD000246
:010AAE001433
:010AAF000244
:010AB000063F
:010AB100063E
:010AB2001231
:010AB3000F33
:010AB400122F
:010AB500013F
:010AB600023D
:010AB700023C
:010AB8000439
:010AB9000438
:010ABA001427
:010ABB000D2D
:010ABC000732
:010ABD000731
:010ABE000532
:010ABF000531
:010AC0000332
:010AC1001222
:010AC2001221
:010AC3000929
:010AC4000F22
:010AC500062A
:010AC6000C23
:010AC700032B
:010AC8000D20
:010AC9000B21
:010ACA000625
:010ACB000624
:010ACC001712
:010ACD000A1E
:010ACE001215
:010ACF000A1C
:010AD0000124
:010AD100061E
:010AD2000221
:010AD3000220
:010AD400120F
:010AD5000917
:010AD6000619
:010AD7000915
:010AD8000518
:010AD9000517
:010ADA000516
:010ADB000515
:010ADC000910
:010ADD00090F
:010ADE000A0D
:010ADF000A0C
:010AE0001203
:010AE1001202
:010AE200090A
:010AE300070B
:010AE40013FE
:010AE5001000
:010AE6000807
:010AE7000608
:010AE800010C
:010AE900010B
:010AEA000407
:010AEB000406
:010AEC000306
:010AED000602
:010AEE000403
:010AEF000600
:010AF00009FC
:010AF10009FB
:010AF2000300
:010AF30012F0
:010AF40003FE
:010AF50003FD
:010AF60012ED
:010AF70012EC
:010AF80016E7
:010AF90007F5
:010AFA0006F5
:010AFB0006F4
:010AFC0008F1
:010AFD0010E8
:010AFE0006F1
:010AFF0004F2
:010B000003F1
:010B010003F0
:010B020012E0
:010B03000AE7
:010B040009E7
:010B050009E6
:010B060001ED
:010B070001EC
:010B080002EA
:010B090006E5
:010B0A0008E2
:010B0B0009E0
:010B0C0010D8
:010B0D0012D5
:010B0E0002E4
:010B0F0003E2
:010B100002E2
:010B110002E1
:010B120006DC
:010B130012CF
:010B140017C9
:010B150009D6
:010B160004DA
:010B17000DD0
:010B180010CC
:010B19000ECD
:010B1A0009D1
:010B1B0010C9
:010B1C000DCB
:010B1D000DCA
:010B1E000CCA
:010B1F000ACB
:010B200012C2
:010B210012C1
:010B220009C9
:010B23000BC6
:010B240008C8
:010B250008C7
:010B260012BC
:010B270005C8
:010B280006C6
:010B290009C2
:010B2A0002C8
:010B2B0003C6
:010B2C0002C6
:010B2D0002C5
:010B2E0005C1
:010B2F0009BC
:010B300011B3
:010B31000CB7
:010B320008BA
:010B330005BC
:010B340002BE
:010B350002BD
:010B360002BC
:010B37000DB0
:010B380013A9
:010B390006B5
:010B3A0004B6
:010B3B0003B6
:010B3C0003B5
:010B3D0003B4
:010B3E0009AD
:010B3F0002B3
:010B400004B0
:010B410004AF
:010B420005AD
:010B430005AC
:010B440004AC
:010B450004AB
:010B4600109E
:010B4700109D
:010B480007A5
:010B490003A8
:010B4A0009A1
:010B4B001198
:010B4C0008A0
:010B4D00089F
:010B4E0005A1
:010B4F000B9A
:010B50000C98
:010B5100069D
:010B5200039F
:010B5300039E
:010B54000997
:010B55000B94
:010B56000995
:010B5700128B
:010B58001389
:010B59001289
:010B5A000991
:010B5B000990
:010B5C00098F
:010B5D00098E
:010B5E000195
:010B5F00177E
:010B60000391
:010B61000093
:010B62000092
:010B63000091
:010B64000090
:010B6500008F
:010B6600008E
:010B6700008D
:010B6800008C
:010B6900008B
:010B6A00008A
:010B6B000089
:010B6C000088
:010B6D000087
:010B6E000086
:010B6F000085
:010B70000084
:010B71000083
:010B72000082
:010B73000081
:010B74000080
:010B7500007F
:010B7600007E
:010B7700007D
:010B7800007C
:010B7900007B
:010B7A00007A
:010B7B000079
:010B7C000078
:010B7D000077
:010B7E000076
:010B7F000075
:010B80000074
:010B81000073
:010B82000072
:010B83000071
:010B84000070
:010B8500006F
:010B8600006E
:010B8700006D
:010B8800006C
:010B8900006B
:010B8A00006A
:010B8B000069
:010B8C000068
:010B8D000067
:010B8E000066
:010B8F000065
:010B90000064
:010B91000063
:010B92000062
:010B93000061
:010B94000060
:010B9500005F
:010B9600005E
:010B9700005D
:010B9800005C
:010B9900005B
:010B9A00005A
:010B9B000059
:010B9C000058
:010B9D000057
:010B9E000056
:010B9F000055
:010BA0000054
:010BA1000053
:010BA2000052
:010BA3000051
:010BA4000050
:010BA500004F
:010BA600004E
:010BA700004D
:010BA800004C
:010BA900004B
:010BAA00004A
:010BAB000049
:010BAC000048
:010BAD000047
:010BAE000046
:010BAF000045
:010BB0000044
:010BB1000043
:010BB2000042
:010BB3000041
:010BB4000040
:010BB500003F
:010BB600003E
:010BB700003D
:010BB800003C
:010BB900003B
:010BBA00003A
:010BBB000039
:010BBC000038
:010BBD000037
:010BBE000036
:010BBF000035
:010BC0000034
:010BC1000033
:010BC2000032
:010BC3000031
:010BC4000030
:010BC500002F
:010BC600002E
:010BC700002D
:010BC800002C
:010BC900002B
:010BCA00002A
:010BCB000029
:010BCC000028
:010BCD000027
:010BCE000026
:010BCF000025
:010BD0000024
:010BD1000023
:010BD2000022
:010BD3000021
:010BD4000020
:010BD500001F
:010BD600001E
:010BD700001D
:010BD800001C
:010BD900001B
:010BDA00001A
:010BDB000019
:010BDC000018
:010BDD000017
:010BDE000016
:010BDF000015
:010BE0000014
:010BE1000013
:010BE2000012
:010BE3000011
:010BE4000010
:010BE500000F
:010BE600000E
:010BE700000D
:010BE800000C
:010BE900000B
:010BEA00000A
:010BEB000009
:010BEC000008
:010BED000007
:010BEE000006
:010BEF000005
:010BF0000004
:010BF1000003
:010BF2000002
:010BF3000001
:010BF4000000
:010BF50000FF
:010BF60000FE
:010BF70000FD
:010BF80000FC
:010BF90000FB
:010BFA0000FA
:010BFB0000F9
:010BFC0000F8
:010BFD0000F7
:010BFE0000F6
:010BFF0000F5
:010C000000F3
:010C010000F2
:010C020000F1
:010C030000F0
:010C040000EF
:010C050000EE
:010C060000ED
:010C070000EC
:010C080000EB
:010C090000EA
:010C0A0000E9
:010C0B0000E8
:010C0C0000E7
:010C0D0000E6
:010C0E0000E5
:010C0F0000E4
:010C100000E3
:010C110000E2
:010C120000E1
:010C130000E0
:010C140000DF
:010C150000DE
:010C160000DD
:010C170000DC
:010C180000DB
:010C190000DA
:010C1A0000D9
:010C1B0000D8
:010C1C0000D7
:010C1D0000D6
:010C1E0000D5
:010C1F0000D4
:010C200000D3
:010C210000D2
:010C220000D1
:010C230000D0
:010C240000CF
:010C250000CE
:010C260000CD
:010C270000CC
:010C280000CB
:010C290000CA
:010C2A0000C9
:010C2B0000C8
:010C2C0000C7
:010C2D0000C6
:010C2E0000C5
:010C2F0000C4
:010C300000C3
:010C310000C2
:010C320000C1
:010C330000C0
:010C340000BF
:010C350000BE
:010C360000BD
:010C370000BC
:010C380000BB
:010C390000BA
:010C3A0000B9
:010C3B0000B8
:010C3C0000B7
:010C3D0000B6
:010C3E0000B5
:010C3F0000B4
:010C400000B3
:010C410000B2
:010C420000B1
:010C430000B0
:010C440000AF
:010C450000AE
:010C460000AD
:010C470000AC
:010C480000AB
:010C490000AA
:010C4A0000A9
:010C4B0000A8
:010C4C0000A7
:010C4D0000A6
:010C4E0000A5
:010C4F0000A4
:010C500000A3
:010C510000A2
:010C520000A1
:010C530000A0
:010C5400009F
:010C5500009E
:010C5600009D
:010C5700009C
:010C5800009B
:010C5900009A
:010C5A000099
:010C5B000098
:010C5C000097
:010C5D000096
:010C5E000095
:010C5F000094
:010C60000093
:010C61000092
:010C62000091
:010C63000090
:010C6400008F
:010C6500008E
:010C6600008D
:010C6700008C
:010C6800008B
:010C6900008A
:010C6A000089
:010C6B000088
:010C6C000087
:010C6D000086
:010C6E000085
:010C6F000084
:010C70000083
:010C71000082
:010C72000081
:010C73000080
:010C7400007F
:010C7500007E
:010C7600007D
:010C7700007C
:010C7800007B
:010C7900007A
:010C7A000079
:010C7B000078
:010C7C000077
:010C7D000076
:010C7E000075
:010C7F000074
:010C80000073
:010C81000072
:010C82000071
:010C83000070
:010C8400006F
:010C8500006E
:010C8600006D
:010C8700006C
:010C8800006B
:010C8900006A
:010C8A000069
:010C8B000068
:010C8C000067
:010C8D000066
:010C8E000065
:010C8F000064
:010C90000063
:010C91000062
:010C92000061
:010C93000060
:010C9400005F
:010C9500005E
:010C9600005D
:010C9700005C
:010C9800005B
:010C9900005A
:010C9A000059
:010C9B000058
:010C9C000057
:010C9D000056
:010C9E000055
:010C9F000054
:010CA0000053
:010CA1000052
:010CA2000051
:010CA3000050
:010CA400004F
:010CA500004E
:010CA600004D
:010CA700004C
:010CA800004B
:010CA900004A
:010CAA000049
:010CAB000048
:010CAC000047
:010CAD000046
:010CAE000045
:010CAF000044
:010CB0000043
:010CB1000042
:010CB2000041
:010CB3000040
:010CB400003F
:010CB500003E
:010CB600003D
:010CB700003C
:010CB800003B
:010CB900003A
:010CBA000039
:010CBB000038
:010CBC000037
:010CBD000036
:010CBE000035
:010CBF000034
:010CC0000033
:010CC1000032
:010CC2000031
:010CC3000030
:010CC400002F
:010CC500002E
:010CC600002D
:010CC700002C
:010CC800002B
:010CC900002A
:010CCA000029
:010CCB000028
:010CCC000027
:010CCD000026
:010CCE000025
:010CCF000024
:010CD0000023
:010CD1000022
:010CD2000021
:010CD3000020
:010CD400001F
:010CD500001E
:010CD600001D
:010CD700001C
:010CD800001B
:010CD900001A
:010CDA000019
:010CDB000018
:010CDC000017
:010CDD000016
:010CDE000015
:010CDF000014
:010CE0000013
:010CE1000012
:010CE2000011
:010CE3000010
:010CE400000F
:010CE500000E
:010CE600000D
:010CE700000C
:010CE800000B
:010CE900000A
:010CEA000009
:010CEB000008
:010CEC000007
:010CED000006
:010CEE000005
:010CEF000004
:010CF0000003
:010CF1000002
:010CF2000001
:010CF3000000
:010CF40000FF
:010CF50000FE
:010CF60000FD
:010CF70000FC
:010CF80000FB
:010CF90000FA
:010CFA0000F9
:010CFB0000F8
:010CFC0000F7
:010CFD0000F6
:010CFE0000F5
:010CFF0000F4
:010D000000F2
:010D010000F1
:010D020000F0
:010D030000EF
:010D040000EE
:010D050000ED
:010D060000EC
:010D070000EB
:010D080000EA
:010D090000E9
:010D0A0000E8
:010D0B0000E7
:010D0C0000E6
:010D0D0000E5
:010D0E0000E4
:010D0F0000E3
:010D100000E2
:010D110000E1
:010D120000E0
:010D130000DF
:010D140000DE
:010D150000DD
:010D160000DC
:010D170000DB
:010D180000DA
:010D190000D9
:010D1A0000D8
:010D1B0000D7
:010D1C0000D6
:010D1D0000D5
:010D1E0000D4
:010D1F0000D3
:010D200000D2
:010D210000D1
:010D220000D0
:010D230000CF
:010D240000CE
:010D250000CD
:010D260000CC
:010D270000CB
:010D280000CA
:010D290000C9
:010D2A0000C8
:010D2B0000C7
:010D2C0000C6
:010D2D0000C5
:010D2E0000C4
:010D2F0000C3
:010D300000C2
:010D310000C1
:010D320000C0
:010D330000BF
:010D340000BE
:010D350000BD
:010D360000BC
:010D370000BB
:010D380000BA
:010D390000B9
:010D3A0000B8
:010D3B0000B7
:010D3C0000B6
:010D3D0000B5
:010D3E0000B4
:010D3F0000B3
:010D400000B2
:010D410000B1
:010D420000B0
:010D430000AF
:010D440000AE
:010D450000AD
:010D460000AC
:010D470000AB
:010D480000AA
:010D490000A9
:010D4A0000A8
:010D4B0000A7
:010D4C0000A6
:010D4D0000A5
:010D4E0000A4
:010D4F0000A3
:010D500000A2
:010D510000A1
:010D520000A0
:010D5300009F
:010D5400009E
:010D5500009D
:010D5600009C
:010D5700009B
:010D5800009A
:010D59000099
:010D5A000098
:010D5B000097
:010D5C000096
:010D5D000095
:010D5E000094
:010D5F000093
:010D60000092
:010D61000091
:010D62000090
:010D6300008F
:010D6400008E
:010D6500008D
:010D6600008C
:010D6700008B
:010D6800008A
:010D69000089
:010D6A000088
:010D6B000087
:010D6C000086
:010D6D000085
:010D6E000084
:010D6F000083
:010D70000082
:010D71000081
:010D72000080
:010D7300007F
:010D7400007E
:010D7500007D
:010D7600007C
:010D7700007B
:010D7800007A
:010D79000079
:010D7A000078
:010D7B000077
:010D7C000076
:010D7D000075
:010D7E000074
:010D7F000073
:010D80000072
:010D81000071
:010D82000070
:010D8300006F
:010D8400006E
:010D8500006D
:010D8600006C
:010D8700006B
:010D8800006A
:010D89000069
:010D8A000068
:010D8B000067
:010D8C000066
:010D8D000065
:010D8E000064
:010D8F000063
:010D90000062
:010D91000061
:010D92000060
:010D9300005F
:010D9400005E
:010D9500005D
:010D9600005C
:010D9700005B
:010D9800005A
:010D99000059
:010D9A000058
:010D9B000057
:010D9C000056
:010D9D000055
:010D9E000054
:010D9F000053
:010DA0000052
:010DA1000051
:010DA2000050
:010DA300004F
:010DA400004E
:010DA500004D
:010DA600004C
:010DA700004B
:010DA800004A
:010DA9000049
:010DAA000048
:010DAB000047
:010DAC000046
:010DAD000045
:010DAE000044
:010DAF000043
:010DB0000042
:010DB1000041
:010DB2000040
:010DB300003F
:010DB400003E
:010DB500003D
:010DB600003C
:010DB700003B
:010DB800003A
:010DB9000039
:010DBA000038
:010DBB000037
:010DBC000036
:010DBD000035
:010DBE000034
:010DBF000033
:010DC0000032
:010DC1000031
:010DC2000030
:010DC300002F
:010DC400002E
:010DC500002D
:010DC600002C
:010DC700002B
:010DC800002A
:010DC9000029
:010DCA000028
:010DCB000027
:010DCC000026
:010DCD000025
:010DCE000024
:010DCF000023
:010DD0000022
:010DD1000021
:010DD2000020
:010DD300001F
:010DD400001E
:010DD500001D
:010DD600001C
:010DD700001B
:010DD800001A
:010DD9000019
:010DDA000018
:010DDB000017
:010DDC000016
:010DDD000015
:010DDE000014
:010DDF000013
:010DE0000012
:010DE1000011
:010DE2000010
:010DE300000F
:010DE400000E
:010DE500000D
:010DE600000C
:010DE700000B
:010DE800000A
:010DE9000009
:010DEA000008
:010DEB000007
:010DEC000006
:010DED000005
:010DEE000004
:010DEF000003
:010DF0000002
:010DF1000001
:010DF2000000
:010DF30000FF
:010DF40000FE
:010DF50000FD
:010DF60000FC
:010DF70000FB
:010DF80000FA
:010DF90000F9
:010DFA0000F8
:010DFB0000F7
:010DFC0000F6
:010DFD0000F5
:010DFE0000F4
:010DFF0000F3
:010E000000F1
:010E010000F0
:010E020000EF
:010E030000EE
:010E040000ED
:010E050000EC
:010E060000EB
:010E070000EA
:010E080000E9
:010E090000E8
:010E0A0000E7
:010E0B0000E6
:010E0C0000E5
:010E0D0000E4
:010E0E0000E3
:010E0F0000E2
:010E100000E1
:010E110000E0
:010E120000DF
:010E130000DE
:010E140000DD
:010E150000DC
:010E160000DB
:010E170000DA
:010E180000D9
:010E190000D8
:010E1A0000D7
:010E1B0000D6
:010E1C0000D5
:010E1D0000D4
:010E1E0000D3
:010E1F0000D2
:010E200000D1
:010E210000D0
:010E220000CF
:010E230000CE
:010E240000CD
:010E250000CC
:010E260000CB
:010E270000CA
:010E280000C9
:010E290000C8
:010E2A0000C7
:010E2B0000C6
:010E2C0000C5
:010E2D0000C4
:010E2E0000C3
:010E2F0000C2
:010E300000C1
:010E310000C0
:010E320000BF
:010E330000BE
:010E340000BD
:010E350000BC
:010E360000BB
:010E370000BA
:010E380000B9
:010E390000B8
:010E3A0000B7
:010E3B0000B6
:010E3C0000B5
:010E3D0000B4
:010E3E0000B3
:010E3F0000B2
:010E400000B1
:010E410000B0
:010E420000AF
:010E430000AE
:010E440000AD
:010E450000AC
:010E460000AB
:010E470000AA
:010E480000A9
:010E490000A8
:010E4A0000A7
:010E4B0000A6
:010E4C0000A5
:010E4D0000A4
:010E4E0000A3
:010E4F0000A2
:010E500000A1
:010E510000A0
:010E5200009F
:010E5300009E
:010E5400009D
:010E5500009C
:010E5600009B
:010E5700009A
:010E58000099
:010E59000098
:010E5A000097
:010E5B000096
:010E5C000095
:010E5D000094
:010E5E000093
:010E5F000092
:010E60000091
:010E61000090
:010E6200008F
:010E6300008E
:010E6400008D
:010E6500008C
:010E6600008B
:010E6700008A
:010E68000089
:010E69000088
:010E6A000087
:010E6B000086
:010E6C000085
:010E6D000084
:010E6E000083
:010E6F000082
:010E70000081
:010E71000080
:010E7200007F
:010E7300007E
:010E7400007D
:010E7500007C
:010E7600007B
:010E7700007A
:010E78000079
:010E79000078
:010E7A000077
:010E7B000076
:010E7C000075
:010E7D000074
:010E7E000073
:010E7F000072
:010E80000071
:010E81000070
:010E8200006F
:010E8300006E
:010E8400006D
:010E8500006C
:010E8600006B
:010E8700006A
:010E88000069
:010E89000068
:010E8A000067
:010E8B000066
:010E8C000065
:010E8D000064
:010E8E000063
:010E8F000062
:010E90000061
:010E91000060
:010E9200005F
:010E9300005E
:010E9400005D
:010E9500005C
:010E9600005B
:010E9700005A
:010E98000059
:010E99000058
:010E9A000057
:010E9B000056
:010E9C000055
:010E9D000054
:010E9E000053
:010E9F000052
:010EA0000051
:010EA1000050
:010EA200004F
:010EA300004E
:010EA400004D
:010EA500004C
:010EA600004B
:010EA700004A
:010EA8000049
:010EA9000048
:010EAA000047
:010EAB000046
:010EAC000045
:010EAD000044
:010EAE000043
:010EAF000042
:010EB0000041
:010EB1000040
:010EB200003F
:010EB300003E
:010EB400003D
:010EB500003C
:010EB600003B
:010EB700003A
:010EB8000039
:010EB9000038
:010EBA000037
:010EBB000036
:010EBC000035
:010EBD000034
:010EBE000033
:010EBF000032
:010EC0000031
:010EC1000030
:010EC200002F
:010EC300002E
:010EC400002D
:010EC500002C
:010EC600002B
:010EC700002A
:010EC8000029
:010EC9000028
:010ECA000027
:010ECB000026
:010ECC000025
:010ECD000024
:010ECE000023
:010ECF000022
:010ED0000021
:010ED1000020
:010ED200001F
:010ED300001E
:010ED400001D
:010ED500001C
:010ED600001B
:010ED700001A
:010ED8000019
:010ED9000018
:010EDA000017
:010EDB000016
:010EDC000015
:010EDD000014
:010EDE000013
:010EDF000012
:010EE0000011
:010EE1000010
:010EE200000F
:010EE300000E
:010EE400000D
:010EE500000C
:010EE600000B
:010EE700000A
:010EE8000009
:010EE9000008
:010EEA000007
:010EEB000006
:010EEC000005
:010EED000004
:010EEE000003
:010EEF000002
:010EF0000001
:010EF1000000
:010EF20000FF
:010EF30000FE
:010EF40000FD
:010EF50000FC
:010EF60000FB
:010EF70000FA
:010EF80000F9
:010EF90000F8
:010EFA0000F7
:010EFB0000F6
:010EFC0000F5
:010EFD0000F4
:010EFE0000F3
:010EFF0000F2
:010F000000F0
:010F010000EF
:010F020000EE
:010F030000ED
:010F040000EC
:010F050000EB
:010F060000EA
:010F070000E9
:010F080000E8
:010F090000E7
:010F0A0000E6
:010F0B0000E5
:010F0C0000E4
:010F0D0000E3
:010F0E0000E2
:010F0F0000E1
:010F100000E0
:010F110000DF
:010F120000DE
:010F130000DD
:010F140000DC
:010F150000DB
:010F160000DA
:010F170000D9
:010F180000D8
:010F190000D7
:010F1A0000D6
:010F1B0000D5
:010F1C0000D4
:010F1D0000D3
:010F1E0000D2
:010F1F0000D1
:010F200000D0
:010F210000CF
:010F220000CE
:010F230000CD
:010F240000CC
:010F250000CB
:010F260000CA
:010F270000C9
:010F280000C8
:010F290000C7
:010F2A0000C6
:010F2B0000C5
:010F2C0000C4
:010F2D0000C3
:010F2E0000C2
:010F2F0000C1
:010F300000C0
:010F310000BF
:010F320000BE
:010F330000BD
:010F340000BC
:010F350000BB
:010F360000BA
:010F370000B9
:010F380000B8
:010F390000B7
:010F3A0000B6
:010F3B0000B5
:010F3C0000B4
:010F3D0000B3
:010F3E0000B2
:010F3F0000B1
:010F400000B0
:010F410000AF
:010F420000AE
:010F430000AD
:010F440000AC
:010F450000AB
:010F460000AA
:010F470000A9
:010F480000A8
:010F490000A7
:010F4A0000A6
:010F4B0000A5
:010F4C0000A4
:010F4D0000A3
:010F4E0000A2
:010F4F0000A1
:010F500000A0
:010F5100009F
:010F5200009E
:010F5300009D
:010F5400009C
:010F5500009B
:010F5600009A
:010F57000099
:010F58000098
:010F59000097
:010F5A000096
:010F5B000095
:010F5C000094
:010F5D000093
:010F5E000092
:010F5F000091
:010F60000090
:010F6100008F
:010F6200008E
:010F6300008D
:010F6400008C
:010F6500008B
:010F6600008A
:010F67000089
:010F68000088
:010F69000087
:010F6A000086
:010F6B000085
:010F6C000084
:010F6D000083
:010F6E000082
:010F6F000081
:010F70000080
:010F7100007F
:010F7200007E
:010F7300007D
:010F7400007C
:010F7500007B
:010F7600007A
:010F77000079
:010F78000078
:010F79000077
:010F7A000076
:010F7B000075
:010F7C000074
:010F7D000073
:010F7E000072
:010F7F000071
:010F80000070
:010F8100006F
:010F8200006E
:010F8300006D
:010F8400006C
:010F8500006B
:010F8600006A
:010F87000069
:010F88000068
:010F89000067
:010F8A000066
:010F8B000065
:010F8C000064
:010F8D000063
:010F8E000062
:010F8F000061
:010F90000060
:010F9100005F
:010F9200005E
:010F9300005D
:010F9400005C
:010F9500005B
:010F9600005A
:010F97000059
:010F98000058
:010F99000057
:010F9A000056
:010F9B000055
:010F9C000054
:010F9D000053
:010F9E000052
:010F9F000051
:010FA0000050
:010FA100004F
:010FA200004E
:010FA300004D
:010FA400004C
:010FA500004B
:010FA600004A
:010FA7000049
:010FA8000048
:010FA9000047
:010FAA000046
:010FAB000045
:010FAC000044
:010FAD000043
:010FAE000042
:010FAF000041
:010FB0000040
:010FB100003F
:010FB200003E
:010FB300003D
:010FB400003C
:010FB500003B
:010FB600003A
:010FB7000039
:010FB8000038
:010FB9000037
:010FBA000036
:010FBB000035
:010FBC000034
:010FBD000033
:010FBE000032
:010FBF000031
:010FC0000030
:010FC100002F
:010FC200002E
:010FC300002D
:010FC400002C
:010FC500002B
:010FC600002A
:010FC7000029
:010FC8000028
:010FC9000027
:010FCA000026
:010FCB000025
:010FCC000024
:010FCD000023
:010FCE000022
:010FCF000021
:010FD0000020
:010FD100001F
:010FD200001E
:010FD300001D
:010FD400001C
:010FD500001B
:010FD600001A
:010FD7000019
:010FD8000018
:010FD9000017
:010FDA000016
:010FDB000015
:010FDC000014
:010FDD000013
:010FDE000012
:010FDF000011
:010FE0000010
:010FE100000F
:010FE200000E
:010FE300000D
:010FE400000C
:010FE500000B
:010FE600000A
:010FE7000009
:010FE8000008
:010FE9000007
:010FEA000006
:010FEB000005
:010FEC000004
:010FED000003
:010FEE000002
:010FEF000001
:010FF0000000
:010FF10000FF
:010FF20000FE
:010FF30000FD
:010FF40000FC
:010FF50000FB
:010FF60000FA
:010FF70000F9
:010FF80000F8
:010FF90000F7
:010FFA0000F6
:010FFB0000F5
:010FFC0000F4
:010FFD0000F3
:010FFE0000F2
:010FFF0000F1
:00000001FF
