:010000000CF3
:010001000CF2
:0100020012EB
:0100030009F3
:0100040004F7
:010005000CEE
:010006000CED
:0100070004F4
:0100080007F0
:010009000CEA
:01000A000CE9
:01000B0013E1
:01000C0017DC
:01000D0006EC
:01000E000EE3
:01000F000EE2
:0100100009E6
:0100110006E8
:0100120006E7
:0100130004E8
:0100140006E5
:0100150017D3
:0100160006E3
:010017000ADE
:010018000ED9
:0100190017CF
:01001A000FD6
:01001B0005DF
:01001C0006DD
:01001D0003DF
:01001E0012CF
:01001F000DD3
:0100200006D9
:0100210006D8
:0100220017C6
:010023000ECE
:0100240015C6
:0100250004D6
:0100260014C5
:0100270006D2
:0100280004D3
:0100290016C0
:01002A0006CF
:01002B0006CE
:01002C0004CF
:01002D0013BF
:01002E0004CD
:01002F0004CC
:010030000EC1
:0100310012BC
:0100320004C9
:0100330006C6
:010034000CBF
:010035000CBE
:0100360017B2
:0100370012B6
:010038000CBB
:0100390004C2
:01003A0004C1
:01003B0017AD
:01003C0008BB
:01003D0003BF
:01003E0010B1
:01003F000CB4
:0100400006B9
:0100410009B5
:0100420012AB
:0100430010AC
:0100440004B7
:0100450012A8
:0100460014A5
:010047000EAA
:0100480007B0
:0100490009AD
:01004A0009AC
:01004B0008AC
:01004C000EA5
:01004D000CA6
:01004E0006AB
:01004F0006AA
:0100500006A9
:0100510006A8
:0100520006A7
:01005300129A
:010054000C9F
:010055001793
:010056001099
:0100570006A2
:010058001790
:0100590004A2
:01005A000F96
:01005B0004A0
:01005C00049F
:01005D00069C
:01005E00128F
:01005F00049C
:010060000897
:010061000A94
:010062000A93
:01006300128A
:010064001685
:010065001288
:010066000693
:010067000494
:010068000493
:010069001482
:01006A00088D
:01006B00068E
:01006C00068D
:01006D000C86
:01006E000C85
:01006F00068A
:010070000689
:010071000985
:010072000984
:010073000686
:010074000C7F
:010075001476
:010076001277
:010077001276
:010078000E79
:010079000A7C
:01007A000C79
:01007B001272
:01007C00087B
:01007D001270
:01007E00067B
:01007F000C74
:01008000047B
:01008100136B
:010082001667
:010083000B71
:010084000F6C
:010085000C6E
:010086000C6D
:010087000573
:010088001760
:010089000C6A
:01008A00096C
:01008B00066E
:01008C00165D
:01008D001161
:01008E00066B
:01008F00066A
:010090000669
:010091000668
:010092000667
:010093000864
:010094001358
:010095000664
:010096001158
:010097000365
:01009800085F
:01009900095D
:01009A00095C
:01009B000A5A
:01009C000360
:01009D00174B
:01009E00124F
:01009F00065A
:0100A0000A55
:0100A1000955
:0100A200104D
:0100A3000953
:0100A4001447
:0100A5000951
:0100A6000950
:0100A7000A4E
:0100A8000651
:0100A9000C4A
:0100AA001243
:0100AB00163E
:0100AC00084B
:0100AD00064C
:0100AE00064B
:0100AF000B45
:0100B0001738
:0100B1001638
:0100B2001439
:0100B300024A
:0100B4000249
:0100B5000248
:0100B6000247
:0100B7000345
:0100B800093E
:0100B900093D
:0100BA001233
:0100BB00083C
:0100BC001231
:0100BD000C36
:0100BE000E33
:0100BF00063A
:0100C0000639
:0100C1000935
:0100C200122B
:0100C3000537
:0100C4000437
:0100C5001228
:0100C6001326
:0100C7000434
:0100C8001324
:0100C9000630
:0100CA000E27
:0100CB001420
:0100CC00161D
:0100CD00072B
:0100CE00161B
:0100CF00161A
:0100D0000629
:0100D1000925
:0100D2000429
:0100D3000C20
:0100D4000625
:0100D5001218
:0100D6000623
:0100D7001018
:0100D8000621
:0100D900170F
:0100DA000421
:0100DB000420
:0100DC00061D
:0100DD00061C
:0100DE000918
:0100DF000E12
:0100E000120D
:0100E1000F0F
:0100E2000F0E
:0100E300100C
:0100E4000A11
:0100E5000F0B
:0100E6000A0F
:0100E7000612
:0100E8001205
:0100E9001204
:0100EA001203
:0100EB000E06
:0100EC000211
:0100ED000210
:0100EE000F02
:0100EF0015FB
:0100F000050A
:0100F10017F7
:0100F20016F7
:0100F3000FFD
:0100F40017F4
:0100F50012F8
:0100F6000AFF
:0100F7000AFE
:0100F8000601
:0100F90014F2
:0100FA000AFB
:0100FB0010F4
:0100FC0007FC
:0100FD0006FC
:0100FE0006FB
:0100FF000CF4
:010100000AF4
:0101010006F7
:0101020005F7
:0101030017E4
:0101040005F5
:0101050006F3
:0101060006F2
:0101070006F1
:0101080003F3
:010109000DE8
:01010A0004F0
:01010B0009EA
:01010C0006EC
:01010D0006EB
:01010E000CE4
:01010F0006E9
:010110000CE2
:0101110008E5
:010112000AE2
:0101130006E5
:0101140002E8
:0101150006E3
:0101160002E6
:0101170002E5
:0101180009DD
:0101190009DC
:01011A0009DB
:01011B0009DA
:01011C0012D0
:01011D0017CA
:01011E0008D8
:01011F0004DB
:010120000AD4
:0101210003DA
:0101220006D6
:0101230006D5
:0101240017C3
:010125000DCC
:0101260006D2
:0101270010C7
:0101280006D0
:0101290006CF
:01012A000ACA
:01012B0006CD
:01012C0006CC
:01012D0006CB
:01012E0006CA
:01012F0006C9
:0101300009C5
:0101310006C7
:0101320006C6
:0101330005C6
:0101340003C7
:0101350012B7
:0101360013B5
:0101370006C1
:0101380003C3
:0101390003C2
:01013A0012B2
:01013B0006BD
:01013C0009B9
:01013D0014AD
:01013E0006BA
:01013F0016A9
:0101400005B9
:0101410012AB
:0101420006B6
:0101430017A4
:010144000CAE
:010145000CAD
:010146000EAA
:0101470008AF
:0101480005B1
:0101490003B2
:01014A0012A2
:01014B00149F
:01014C00139F
:01014D0006AB
:01014E0006AA
:01014F0006A9
:0101500006A8
:0101510006A7
:0101520006A6
:010153000F9C
:0101540006A4
:0101550006A3
:010156001296
:010157000C9B
:0101580006A0
:01015900069F
:01015A00099B
:01015B000D96
:01015C000999
:01015D00069B
:01015E000997
:01015F00039C
:010160000995
:010161000A93
:010162000498
:010163000497
:010164000694
:010165001287
:010166000A8E
:010167001681
:010168001086
:010169001283
:01016A00088C
:01016B00068D
:01016C00068C
:01016D00068B
:01016E00068A
:01016F000689
:010170000985
:010171000984
:010172001379
:010173001378
:010174000A80
:010175000A7F
:010176000682
:010177000681
:010178000680
:01017900097C
:01017A000480
:01017B000E75
:01017C00067C
:01017D00126F
:01017E000977
:01017F00156A
:01018000116D
:010181000B72
:010182000D6F
:010183000972
:010184000F6B
:010185000673
:010186001266
:010187001760
:010188000373
:01018900175E
:01018A000A6A
:01018B001261
:01018C001260
:01018D001061
:01018E00036D
:01018F00125D
:010190000668
:010191000667
:010192000666
:010193001259
:010194000C5E
:010195000663
:010196001751
:010197000562
:010198000561
:01019900065F
:01019A00065E
:01019B001350
:01019C000C56
:01019D00045D
:01019E000A56
:01019F000A55
:0101A0000A54
:0101A1000954
:0101A2001547
:0101A3000952
:0101A4000951
:0101A5000455
:0101A6000454
:0101A700094E
:0101A8001244
:0101A900064F
:0101AA000B49
:0101AB00064D
:0101AC000949
:0101AD00064B
:0101AE00064A
:0101AF000946
:0101B000133B
:0101B1000647
:0101B2000646
:0101B3000447
:0101B4000446
:0101B5001237
:0101B6000642
:0101B7000641
:0101B8000640
:0101B9001233
:0101BA001232
:0101BB000B38
:0101BC000E34
:0101BD000F32
:0101BE00162A
:0101BF001728
:0101C000122C
:0101C1000C31
:0101C2000735
:0101C3001625
:0101C4000E2C
:0101C5001722
:0101C6001226
:0101C7001621
:0101C8000B2B
:0101C900062F
:0101CA00171D
:0101CB000A29
:0101CC000A28
:0101CD00171A
:0101CE00121E
:0101CF00101F
:0101D000101E
:0101D100121B
:0101D2001517
:0101D3000625
:0101D4000624
:0101D5000920
:0101D6000226
:0101D7000621
:0101D8000620
:0101D900061F
:0101DA000420
:0101DB00170C
:0101DC000A18
:0101DD00061B
:0101DE00061A
:0101DF000916
:0101E0000618
:0101E1000A13
:0101E200021A
:0101E3000F0C
:0101E4000614
:0101E5000613
:0101E600090F
:0101E7000E09
:0101E800080E
:0101E900070E
:0101EA000410
:0101EB00060D
:0101EC00060C
:0101ED0015FC
:0101EE00050B
:0101EF00040B
:0101F0000509
:0101F1000B02
:0101F2000C00
:0101F30017F4
:0101F40017F3
:0101F50012F7
:0101F60015F3
:0101F7000601
:0101F8000402
:0101F90008FD
:0101FA000FF5
:0101FB000AF9
:0101FC0009F9
:0101FD0006FB
:0101FE0009F7
:0101FF0009F6
:0102000009F4
:0102010009F3
:0102020006F5
:0102030012E8
:0102040015E4
:0102050006F2
:0102060006F1
:0102070006F0
:0102080010E5
:010209000AEA
:01020A000AE9
:01020B000AE8
:01020C0006EB
:01020D000CE4
:01020E0003EC
:01020F0006E8
:0102100009E4
:0102110008E4
:0102120003E8
:0102130004E6
:0102140009E0
:0102150017D1
:0102160006E1
:0102170006E0
:0102180006DF
:010219000CD8
:01021A0002E1
:01021B000CD6
:01021C0012CF
:01021D0012CE
:01021E0017C8
:01021F0004DA
:0102200006D7
:0102210006D6
:0102220008D3
:0102230010CA
:0102240008D1
:0102250008D0
:010226000BCC
:0102270017BF
:0102280004D1
:0102290004D0
:01022A0010C3
:01022B0006CC
:01022C0012BF
:01022D0006CA
:01022E0009C6
:01022F0008C6
:0102300003CA
:0102310012BA
:0102320006C5
:0102330006C4
:0102340004C5
:0102350004C4
:0102360012B5
:010237000CBA
:0102380009BC
:0102390009BB
:01023A0006BD
:01023B0006BC
:01023C0009B8
:01023D0003BD
:01023E000EB1
:01023F0003BB
:010240000EAF
:010241000EAE
:0102420009B2
:0102430009B1
:0102440006B3
:0102450006B2
:0102460006B1
:0102470006B0
:0102480008AD
:0102490009AB
:01024A0008AB
:01024B000AA8
:01024C0004AD
:01024D0006AA
:01024E00129D
:01024F0008A6
:010250001796
:0102510003A9
:010252000AA1
:010253000AA0
:010254000A9F
:010255001791
:010256000F98
:010257000C9A
:010258000E97
:0102590004A0
:01025A00069D
:01025B00069C
:01025C00128F
:01025D000E92
:01025E000699
:01025F000698
:010260001786
:010261000696
:010262000A91
:010263000694
:010264000693
:010265000B8D
:010266000A8D
:010267000690
:01026800068F
:010269000490
:01026A00147F
:01026B000A88
:01026C00068B
:01026D000A86
:01026E00048B
:01026F000A84
:010270000C81
:010271000884
:010272000487
:010273000981
:010274000E7B
:010275001375
:010276000A7D
:010277001076
:01027800176E
:010279001272
:01027A001271
:01027B001270
:01027C000978
:01027D001769
:01027E00126D
:01027F000C72
:01028000037A
:010281000A72
:010282000A71
:010283000674
:010284000475
:010285000672
:010286000671
:01028700096D
:01028800066F
:010289000371
:01028A00096A
:01028B00036F
:01028C00066B
:01028D00125E
:01028E00125D
:01028F000866
:010290000964
:010291000963
:010292000566
:010293000E5C
:010294000366
:010295000F59
:010296000F58
:010297000660
:01029800065F
:01029900065E
:01029A00065D
:01029B00065C
:01029C00065B
:01029D000858
:01029E000857
:01029F000A54
:0102A0001548
:0102A1000C50
:0102A2000C4F
:0102A3000C4E
:0102A4000653
:0102A5001444
:0102A6000C4B
:0102A700084E
:0102A800084D
:0102A9001440
:0102AA000C47
:0102AB001042
:0102AC000948
:0102AD000C44
:0102AE000E41
:0102AF000945
:0102B000133A
:0102B1000646
:0102B2001239
:0102B3000446
:0102B4001435
:0102B5001632
:0102B6000443
:0102B7000442
:0102B800063F
:0102B900063E
:0102BA000A39
:0102BB000C36
:0102BC00172A
:0102BD00043C
:0102BE00043B
:0102BF00112D
:0102C000122B
:0102C1000E2E
:0102C2000E2D
:0102C3000337
:0102C4000336
:0102C5000E2A
:0102C600092E
:0102C7001224
:0102C8000C29
:0102C900082C
:0102CA00072C
:0102CB00161C
:0102CC00042D
:0102CD000729
:0102CE000926
:0102CF001618
:0102D0000627
:0102D1000824
:0102D2000625
:0102D3000624
:0102D4000920
:0102D5001216
:0102D6000C1B
:0102D7000422
:0102D8000421
:0102D900061E
:0102DA00091A
:0102DB00081A
:0102DC00061B
:0102DD00061A
:0102DE00041B
:0102DF00130B
:0102E0000914
:0102E1000C10
:0102E2001209
:0102E3000416
:0102E4001207
:0102E5000414
:0102E6000413
:0102E7000412
:0102E800060F
:0102E9000410
:0102EA001201
:0102EB0014FE
:0102EC00060B
:0102ED000808
:0102EE00030C
:0102EF000E00
:0102F00017F6
:0102F10012FA
:0102F2000506
:0102F3000505
:0102F4000801
:0102F5000800
:0102F6000CFB
:0102F7000600
:0102F80006FF
:0102F9000CF8
:0102FA0017EC
:0102FB0013EF
:0102FC000BF6
:0102FD0008F8
:0102FE000AF5
:0102FF0009F5
:0103000009F3
:0103010009F2
:0103020014E6
:0103030009F0
:0103040009EF
:0103050008EF
:0103060015E1
:010307000AEB
:010308000CE8
:0103090017DC
:01030A0008EA
:01030B0012DF
:01030C0009E7
:01030D0009E6
:01030E0006E8
:01030F0006E7
:0103100017D5
:0103110012D9
:0103120017D3
:0103130012D7
:0103140009DF
:0103150009DE
:0103160012D4
:0103170006DF
:0103180006DE
:0103190005DE
:01031A0006DC
:01031B0006DB
:01031C0008D8
:01031D0015CA
:01031E0003DB
:01031F000BD2
:010320000AD2
:010321000CCF
:0103220012C8
:0103230016C3
:0103240006D2
:0103250006D1
:0103260006D0
:0103270006CF
:0103280012C2
:0103290003D0
:01032A0010C2
:01032B0006CB
:01032C0010C0
:01032D0012BD
:01032E0006C8
:01032F0008C5
:010330000AC2
:010331000AC1
:010332000CBE
:0103330008C1
:0103340009BF
:0103350017B0
:0103360012B4
:0103370009BC
:010338000ABA
:0103390004BF
:01033A0009B9
:01033B0006BB
:01033C000CB4
:01033D0014AB
:01033E0009B5
:01033F0009B4
:0103400004B8
:0103410008B3
:0103420009B1
:010343000CAD
:0103440009AF
:0103450006B1
:0103460005B1
:0103470015A0
:010348000AAA
:0103490006AD
:01034A0012A0
:01034B0008A9
:01034C00129E
:01034D0009A6
:01034E00129C
:01034F000CA1
:0103500006A6
:0103510004A7
:0103520004A6
:010353001792
:01035400099F
:01035500099E
:010356001393
:01035700168F
:01035800069E
:01035900148F
:01035A00069C
:01035B001091
:01035C000898
:01035D000699
:01035E00108E
:01035F00108D
:010360000498
:010361000893
:010362000C8E
:010363000693
:010364000890
:010365000691
:010366000690
:010367001580
:010368001084
:01036900078C
:01036A00048E
:01036B00068B
:01036C00068A
:01036D00048B
:01036E000688
:01036F000C81
:010370001775
:010371000685
:010372000C7E
:010373000A7F
:010374000682
:01037500097E
:01037600097D
:010377001273
:010378001272
:010379000C77
:01037A00156D
:01037B000C75
:01037C00067A
:01037D00136C
:01037E000E70
:01037F00126B
:010380000478
:010381000B70
:010382000971
:010383000475
:010384000474
:010385001265
:010386000B6B
:010387001461
:010388000D67
:01038900165D
:01038A000E64
:01038B000A67
:01038C000A66
:01038D000669
:01038E000965
:01038F000865
:01039000105C
:010391000E5D
:010392000961
:010393001257
:01039400095F
:010395001750
:010396000A5C
:010397001253
:01039800065E
:010399000B58
:01039A000C56
:01039B00045D
:01039C00045C
:01039D000659
:01039E000F4F
:01039F000657
:0103A0000656
:0103A1000655
:0103A2000654
:0103A3001049
:0103A4001444
:0103A5000453
:0103A6000452
:0103A7001243
:0103A800064E
:0103A900094A
:0103AA000F43
:0103AB00133E
:0103AC000749
:0103AD000946
:0103AE000846
:0103AF00123B
:0103B0000C40
:0103B1000942
:0103B2000E3C
:0103B3001633
:0103B4000642
:0103B5000A3D
:0103B6000A3C
:0103B7001035
:0103B800063E
:0103B900083B
:0103BA00063C
:0103BB000839
:0103BC00043C
:0103BD000837
:0103BE000A34
:0103BF000E2F
:0103C0001428
:0103C1000437
:0103C2000C2E
:0103C3000C2D
:0103C4000632
:0103C500082F
:0103C600082E
:0103C700092C
:0103C8001024
:0103C900062D
:0103CA00032F
:0103CB00052C
:0103CC00052B
:0103CD000A25
:0103CE001717
:0103CF001518
:0103D0000626
:0103D1000C1F
:0103D2000822
:0103D3001712
:0103D4000820
:0103D500081F
:0103D600081E
:0103D7000520
:0103D8001311
:0103D900170C
:0103DA000D15
:0103DB00170A
:0103DC00041C
:0103DD000619
:0103DE000C12
:0103DF000C11
:0103E000120A
:0103E1000912
:0103E2000416
:0103E3000415
:0103E400090F
:0103E500090E
:0103E6000610
:0103E700060F
:0103E8001301
:0103E9001201
:0103EA001002
:0103EB000908
:0103EC00040C
:0103ED000F00
:0103EE000806
:0103EF000607
:0103F0000606
:0103F1000CFF
:0103F2000BFF
:0103F30015F4
:0103F4000800
:0103F5000601
:0103F60015F1
:0103F70013F2
:0103F80006FE
:0103F90006FD
:0103FA000EF4
:0103FB0009F8
:0103FC0008F8
:0103FD0016E9
:0103FE0009F5
:0103FF0012EB
:0104000007F4
:0104010010EA
:010402000CED
:0104030004F4
:0104040004F3
:0104050004F2
:0104060006EF
:0104070006EE
:0104080003F0
:0104090006EC
:01040A0003EE
:01040B000CE4
:01040C0004EB
:01040D0003EB
:01040E0003EA
:01040F000AE2
:0104100003E8
:0104110006E4
:0104120013D6
:0104130012D6
:0104140012D5
:0104150006E0
:0104160014D1
:0104170014D0
:0104180006DD
:0104190017CB
:01041A0012CF
:01041B0006DA
:01041C0008D7
:01041D0008D6
:01041E000ECF
:01041F0004D8
:0104200005D6
:0104210008D2
:0104220016C3
:0104230006D2
:0104240009CE
:0104250013C3
:0104260009CC
:0104270012C2
:0104280009CA
:0104290017BB
:01042A000EC3
:01042B0009C7
:01042C0006C9
:01042D000DC1
:01042E0006C7
:01042F0015B7
:0104300009C2
:0104310009C1
:010432000ABF
:0104330017B1
:0104340009BE
:0104350006C0
:0104360009BC
:0104370006BE
:010438000EB5
:010439000EB4
:01043A0009B8
:01043B0006BA
:01043C000AB5
:01043D0004BA
:01043E0006B7
:01043F0006B6
:0104400009B2
:0104410009B1
:0104420009B0
:0104430004B4
:010444000CAB
:0104450009AD
:010446000AAB
:010447000AAA
:01044800179C
:0104490009A9
:01044A00179A
:01044B000BA5
:01044C001699
:01044D0006A8
:01044E001499
:01044F000E9E
:01045000109B
:010451001397
:010452000A9F
:0104530004A4
:010454001592
:0104550006A0
:010456000E97
:01045700069E
:01045800099A
:01045900049E
:01045A00138E
:01045B00148C
:01045C00049B
:01045D000896
:01045E000697
:01045F000696
:010460000497
:010461000496
:010462000693
:010463000692
:010464001780
:010465000690
:010466000491
:010467000490
:01046800098A
:01046900068C
:01046A00078A
:01046B000E82
:01046C000689
:01046D00048A
:01046E000687
:01046F000686
:010470000A81
:010471000E7C
:010472000C7D
:010473000C7C
:010474000681
:010475001472
:01047600097C
:01047700067E
:01047800057E
:010479001072
:01047A000879
:01047B00067A
:01047C000976
:01047D000975
:01047E000974
:01047F000973
:010480001269
:010481001268
:010482001267
:010483001365
:010484000671
:010485000F67
:01048600066F
:01048700066E
:01048800066D
:01048900165C
:01048A00155C
:01048B00125E
:01048C000669
:01048D00125C
:01048E000865
:01048F00125A
:010490000665
:010491000664
:010492000267
:010493000266
:010494000760
:01049500095D
:010496001550
:01049700075D
:01049800164D
:01049900174B
:01049A000958
:01049B000C54
:01049C000E51
:01049D000E50
:01049E000657
:01049F000656
:0104A0001447
:0104A1000951
:0104A2001544
:0104A3000E4A
:0104A4000C4B
:0104A500094D
:0104A600064F
:0104A700064E
:0104A8001241
:0104A900064C
:0104AA00064B
:0104AB00064A
:0104AC000649
:0104AD000648
:0104AE001736
:0104AF00123A
:0104B0000A41
:0104B1000C3E
:0104B2001336
:0104B3000444
:0104B400093E
:0104B5000F37
:0104B6000C39
:0104B700063E
:0104B800063D
:0104B9001032
:0104BA000E33
:0104BB00142C
:0104BC00142B
:0104BD000638
:0104BE000C31
:0104BF000C30
:0104C0000635
:0104C1000634
:0104C2000633
:0104C3000632
:0104C400092E
:0104C5000F27
:0104C600092C
:0104C700092B
:0104C800092A
:0104C9000929
:0104CA000829
:0104CB00042C
:0104CC000A25
:0104CD00042A
:0104CE000A23
:0104CF00121A
:0104D0000B20
:0104D1000C1E
:0104D2000C1D
:0104D300091F
:0104D4000F18
:0104D5000C1A
:0104D6000C19
:0104D7000C18
:0104D800081B
:0104D900081A
:0104DA00170A
:0104DB000818
:0104DC00041B
:0104DD00041A
:0104DE000F0E
:0104DF001705
:0104E0000516
:0104E1001208
:0104E2000316
:0104E3000414
:0104E400090E
:0104E5001402
:0104E6001203
:0104E7000A0A
:0104E800040F
:0104E900060C
:0104EA00060B
:0104EB00060A
:0104EC000906
:0104ED0012FC
:0104EE0014F9
:0104EF000408
:0104F0000605
:0104F10012F8
:0104F20012F7
:0104F3000602
:0104F4000601
:0104F5000600
:0104F60014F1
:0104F70014F0
:0104F80012F1
:0104F90006FC
:0104FA0016EB
:0104FB0006FA
:0104FC0006F9
:0104FD0017E7
:0104FE0006F7
:0104FF0006F6
:0105000006F4
:0105010006F3
:0105020006F2
:0105030009EE
:0105040012E4
:0105050009EC
:0105060017DD
:0105070012E1
:0105080009E9
:0105090008E9
:01050A000FE1
:01050B0008E7
:01050C0006E8
:01050D0008E5
:01050E0006E6
:01050F0004E7
:010510000CDE
:0105110008E1
:0105120008E0
:0105130006E1
:0105140006E0
:010515000CD9
:0105160012D2
:0105170008DB
:0105180016CC
:010519000CD5
:01051A0014CC
:01051B0014CB
:01051C000AD4
:01051D0012CB
:01051E0013C9
:01051F0006D5
:0105200016C4
:0105210007D2
:010522000BCD
:010523000ACD
:0105240009CD
:0105250006CF
:0105260006CE
:0105270006CD
:0105280006CC
:0105290006CB
:01052A0009C7
:01052B0012BD
:01052C000DC1
:01052D0008C5
:01052E0008C4
:01052F0008C3
:0105300006C4
:0105310006C3
:0105320006C2
:0105330005C2
:0105340005C1
:0105350006BF
:0105360006BE
:010537000CB7
:0105380017AB
:0105390002BF
:01053A0002BE
:01053B0002BD
:01053C0002BC
:01053D0006B7
:01053E0006B6
:01053F0012A9
:0105400007B3
:010541000CAD
:0105420012A6
:0105430014A3
:0105440006B0
:0105450012A3
:0105460012A2
:0105470006AD
:0105480009A9
:01054900129F
:01054A0006AA
:01054B000CA3
:01054C000CA2
:01054D0006A7
:01054E0004A8
:01054F0009A2
:010550000C9E
:0105510006A3
:0105520006A2
:01055300099E
:010554000C9A
:010555001491
:010556000C98
:0105570003A0
:010558000F93
:01055900069B
:01055A000C94
:01055B000897
:01055C000896
:01055D000994
:01055E000C90
:01055F000695
:010560000991
:010561000891
:010562000692
:010563001780
:010564000690
:010565000590
:01056600058F
:01056700068D
:01056800068C
:01056900068B
:01056A00068A
:01056B00127D
:01056C000985
:01056D000A83
:01056E000A82
:01056F000685
:010570000684
:010571000A7F
:010572000682
:010573001275
:010574000680
:01057500097C
:01057600067E
:01057700047F
:01057800047E
:010579000C75
:01057A000A76
:01057B001669
:01057C00027C
:01057D001766
:01057E000A72
:01057F000873
:010580000674
:010581000574
:010582001464
:010583000C6B
:010584000670
:010585000A6B
:010586000C68
:01058700066D
:01058800046E
:01058900066B
:01058A00046C
:01058B00046B
:01058C00135B
:01058D00026B
:01058E00026A
:01058F000269
:010590000A60
:010591000465
:010592000662
:010593001057
:010594000660
:01059500065F
:01059600065E
:010597000C57
:010598000959
:010599000958
:01059A00124E
:01059B001649
:01059C000658
:01059D000657
:01059E00104C
:01059F000952
:0105A0000654
:0105A1000653
:0105A2000652
:0105A3001740
:0105A400173F
:0105A500064F
:0105A6001242
:0105A7001241
:0105A800163C
:0105A9000948
:0105AA00153B
:0105AB000C43
:0105AC001737
:0105AD000449
:0105AE000646
:0105AF000645
:0105B0000644
:0105B1000643
:0105B2001434
:0105B3000C3B
:0105B4000442
:0105B5000C39
:0105B6000440
:0105B7000340
:0105B8000A38
:0105B9000C35
:0105BA00063A
:0105BB00043B
:0105BC000638
:0105BD000637
:0105BE000636
:0105BF000437
:0105C0001228
:0105C1001623
:0105C2000A2E
:0105C3000A2D
:0105C4000C2A
:0105C5000C29
:0105C600052F
:0105C700151E
:0105C8000929
:0105C9000C25
:0105CA000C24
:0105CB000827
:0105CC000A24
:0105CD000A23
:0105CE000C20
:0105CF000A21
:0105D0000C1E
:0105D1000425
:0105D2000622
:0105D3000621
:0105D4000B1B
:0105D500061F
:0105D6000420
:0105D700041F
:0105D800081A
:0105D9001011
:0105DA00120E
:0105DB00100F
:0105DC000816
:0105DD000914
:0105DE000814
:0105DF000813
:0105E0000812
:0105E1000811
:0105E2000513
:0105E3000710
:0105E40017FF
:0105E500080D
:0105E600080C
:0105E70017FC
:0105E8000C06
:0105E9000C05
:0105EA00060A
:0105EB000807
:0105EC0012FC
:0105ED0012FB
:0105EE0016F6
:0105EF000CFF
:0105F0000CFE
:0105F1000CFD
:0105F2000602
:0105F30009FE
:0105F40007FF
:0105F50009FC
:0105F60012F2
:0105F70004FF
:0105F80006FC
:0105F90006FB
:0105FA000CF4
:0105FB000EF1
:0105FC0011ED
:0105FD000CF1
:0105FE0009F3
:0105FF0017E4
:0106000009F0
:0106010012E6
:0106020009EE
:0106030009ED
:0106040017DE
:0106050014E0
:0106060010E3
:0106070004EE
:010608000AE7
:0106090006EA
:01060A0007E8
:01060B0007E7
:01060C0006E7
:01060D0013D9
:01060E0009E2
:01060F0009E1
:010610000ADF
:0106110012D6
:0106120004E3
:0106130004E2
:0106140008DD
:010615000CD8
:0106160006DD
:010617000CD6
:010618000AD7
:0106190015CB
:01061A0009D6
:01061B0006D8
:01061C0006D7
:01061D000CD0
:01061E0014C7
:01061F000AD0
:0106200005D4
:0106210004D4
:0106220008CF
:0106230017BF
:0106240004D1
:0106250012C2
:0106260010C3
:0106270006CC
:010628000EC3
:0106290008C8
:01062A0014BB
:01062B0009C5
:01062C0006C7
:01062D0004C8
:01062E0004C7
:01062F0008C2
:0106300002C7
:0106310009BF
:0106320013B4
:0106330009BD
:0106340012B3
:0106350006BE
:0106360006BD
:0106370004BE
:0106380012AF
:010639000EB2
:01063A0012AD
:01063B0009B5
:01063C000CB1
:01063D0007B5
:01063E0014A7
:01063F0009B1
:010640000FAA
:0106410006B2
:0106420006B1
:0106430009AD
:0106440009AC
:010645000CA8
:0106460006AD
:0106470008AA
:01064800179A
:0106490006AA
:01064A0008A7
:01064B001797
:01064C000CA1
:01064D0009A3
:01064E00109B
:01064F0004A6
:0106500005A4
:01065100099F
:01065200099E
:0106530006A0
:010654001491
:010655001193
:01065600079C
:01065700178B
:01065800069B
:01065900049C
:01065A000699
:01065B00128C
:01065C000994
:01065D00029A
:01065E000299
:01065F001288
:010660000F8A
:010661001286
:010662000493
:010663000A8C
:010664000A8B
:01066500068E
:01066600068D
:01066700068C
:01066800127F
:01066900068A
:01066A000689
:01066B000B83
:01066C000A83
:01066D000A82
:01066E000A81
:01066F000684
:010670000A7F
:010671001078
:010672001077
:010673001670
:01067400087D
:01067500067E
:01067600067D
:01067700067C
:01067800077A
:010679000878
:01067A000679
:01067B00037B
:01067C000875
:01067D001369
:01067E000477
:01067F001268
:010680000574
:010681000474
:010682001067
:010683001264
:010684000A6B
:010685000C68
:010686000C67
:01068700165C
:010688000968
:010689000C64
:01068A000A65
:01068B000866
:01068C000865
:01068D00125A
:01068E000A61
:01068F001555
:010690001653
:010691000662
:010692000364
:010693000C5A
:010694000C59
:01069500164E
:010696001251
:01069700164C
:01069800065B
:01069900065A
:01069A000659
:01069B00124C
:01069C000657
:01069D000C50
:01069E000C4F
:01069F001248
:0106A0000653
:0106A1000652
:0106A2000651
:0106A3001244
:0106A400064F
:0106A500064E
:0106A6000A49
:0106A700054D
:0106A800054C
:0106A9000947
:0106AA001738
:0106AB000846
:0106AC000647
:0106AD000943
:0106AE001239
:0106AF000B3F
:0106B0000B3E
:0106B1001731
:0106B200083F
:0106B3000E38
:0106B4001530
:0106B500172D
:0106B600083B
:0106B700152D
:0106B8000C35
:0106B900043C
:0106BA00043B
:0106BB000638
:0106BC000934
:0106BD001329
:0106BE000A31
:0106BF001228
:0106C0000633
:0106C1001127
:0106C2000C2B
:0106C3000630
:0106C4001025
:0106C500052F
:0106C6001221
:0106C700062C
:0106C800141D
:0106C9000F21
:0106CA000629
:0106CB000628
:0106CC000627
:0106CD000923
:0106CE000625
:0106CF000624
:0106D0000623
:0106D1000622
:0106D2000621
:0106D3000620
:0106D400061F
:0106D500091B
:0106D6000320
:0106D7000E14
:0106D8000C15
:0106D900041C
:0106DA000619
:0106DB00041A
:0106DC000617
:0106DD000E0E
:0106DE00100B
:0106DF000614
:0106E0001504
:0106E1000612
:0106E2000512
:0106E3001006
:0106E4000E07
:0106E5000410
:0106E6000C07
:0106E7000C06
:0106E8000E03
:0106E90012FE
:0106EA0012FD
:0106EB0017F7
:0106EC0012FB
:0106ED000903
:0106EE0013F8
:0106EF0017F3
:0106F0000900
:0106F10009FF
:0106F20012F5
:0106F30012F4
:0106F4000302
:0106F50008FC
:0106F60012F1
:0106F70003FF
:0106F80004FD
:0106F9000AF6
:0106FA0006F9
:0106FB000AF4
:0106FC0005F8
:0106FD000CF0
:0106FE0009F2
:0106FF0008F2
:0107000005F3
:010701000EE9
:010702000AEC
:0107030004F1
:0107040006EE
:0107050012E1
:0107060006EC
:0107070006EB
:0107080004EC
:0107090006E9
:01070A0009E5
:01070B000EDF
:01070C000FDD
:01070D0008E3
:01070E0006E4
:01070F0006E3
:010710000CDC
:010711000CDB
:0107120010D6
:0107130012D3
:0107140012D2
:0107150017CC
:0107160009D9
:0107170017CA
:0107180016CA
:0107190009D6
:01071A000AD4
:01071B0006D7
:01071C000CD0
:01071D000CCF
:01071E0010CA
:01071F000ACF
:0107200012C6
:0107210009CE
:010722000ACC
:0107230012C3
:010724000FC5
:010725000FC4
:0107260017BB
:0107270006CB
:0107280006CA
:0107290006C9
:01072A000AC4
:01072B0012BB
:01072C000AC2
:01072D000AC1
:01072E000EBC
:01072F0009C0
:0107300006C2
:0107310006C1
:0107320008BE
:0107330004C1
:0107340003C1
:0107350010B3
:0107360006BC
:0107370006BB
:010738000CB4
:010739000CB3
:01073A0006B8
:01073B0006B7
:01073C0009B3
:01073D0009B2
:01073E0006B4
:01073F0006B3
:0107400004B4
:010741000CAB
:010742000CAA
:010743000CA9
:010744000EA6
:01074500149F
:0107460008AA
:010747000DA4
:0107480006AA
:0107490006A9
:01074A000CA2
:01074B000F9E
:01074C000CA0
:01074D001299
:01074E001793
:01074F0003A6
:0107500004A4
:0107510004A3
:010752000C9A
:010753001194
:01075400059F
:01075500059E
:010756001290
:010757000C95
:01075800069A
:010759000699
:01075A001589
:01075B000697
:01075C000C90
:01075D00108B
:01075E001288
:01075F000F8A
:01076000098F
:010761000F88
:010762000393
:010763000392
:010764000A8A
:010765001083
:010766000C86
:010767000988
:01076800068A
:010769000689
:01076A000A84
:01076B00127B
:01076C000E7E
:01076D000E7D
:01076E000387
:01076F000584
:010770000C7C
:010771001473
:010772001373
:01077300097C
:010774000E76
:010775000E75
:010776000979
:01077700126F
:01077800067A
:01077900126D
:01077A00146A
:01077B001469
:01077C001765
:01077D001467
:01077E000971
:01077F000970
:010780000870
:01078100086F
:010782000472
:010783001461
:01078400066E
:01078500155E
:010786000D65
:010787000C65
:010788000A66
:01078900056A
:01078A000668
:01078B00125B
:01078C000963
:01078D001556
:01078E001654
:01078F001257
:010790000662
:010791000661
:010792000660
:01079300065F
:01079400065E
:01079500045F
:010796000959
:010797000958
:010798000F51
:01079900035C
:01079A000C52
:01079B001449
:01079C000656
:01079D001249
:01079E000456
:01079F000455
:0107A0000652
:0107A1000651
:0107A2000650
:0107A300064F
:0107A4001044
:0107A500064D
:0107A600064C
:0107A700123F
:0107A8000A46
:0107A9000A45
:0107AA000945
:0107AB000647
:0107AC000547
:0107AD000843
:0107AE001337
:0107AF000C3D
:0107B0001533
:0107B1001037
:0107B2001234
:0107B3000A3B
:0107B4000440
:0107B5001231
:0107B6000C36
:0107B700063B
:0107B800063A
:0107B9000639
:0107BA00122C
:0107BB000C31
:0107BC000A32
:0107BD000A31
:0107BE000634
:0107BF000633
:0107C0000830
:0107C1000C2B
:0107C2000A2C
:0107C3000A2B
:0107C4001222
:0107C500042F
:0107C600171B
:0107C700062B
:0107C800141C
:0107C900131C
:0107CA000A24
:0107CB001518
:0107CC000824
:0107CD000A21
:0107CE000426
:0107CF000623
:0107D0000424
:0107D1000423
:0107D200091D
:0107D3001015
:0107D4001014
:0107D500170C
:0107D6000919
:0107D7000E13
:0107D8000719
:0107D9000817
:0107DA000C12
:0107DB000419
:0107DC000319
:0107DD000912
:0107DE001406
:0107DF001702
:0107E0000C0C
:0107E100080F
:0107E2000610
:0107E3000A0B
:0107E4000E06
:0107E5000A09
:0107E6000909
:0107E70017FA
:0107E8000C04
:0107E90016F9
:0107EA000C02
:0107EB000904
:0107EC0017F5
:0107ED0013F8
:0107EE000604
:0107EF0012F7
:0107F0000602
:0107F1000403
:0107F2000600
:0107F30006FF
:0107F4000400
:0107F50008FB
:0107F60007FB
:0107F70012EF
:0107F80004FC
:0107F90004FB
:0107FA0014EA
:0107FB0006F7
:0107FC000AF2
:0107FD0004F7
:0107FE0008F2
:0107FF0008F1
:0108000006F1
:0108010006F0
:0108020006EF
:0108030006EE
:0108040017DC
:010805000AE8
:0108060017DA
:0108070013DD
:0108080012DD
:0108090009E5
:01080A0006E7
:01080B0006E6
:01080C0014D7
:01080D0006E4
:01080E0012D7
:01080F0009DF
:0108100012D5
:0108110012D4
:0108120012D3
:010813000ADA
:0108140004DF
:0108150004DE
:0108160004DD
:010817000CD4
:0108180004DB
:010819000AD4
:01081A0004D9
:01081B0003D9
:01081C0004D7
:01081D0006D4
:01081E0013C6
:01081F0009CF
:0108200007D0
:010821000EC8
:0108220008CD
:0108230008CC
:0108240012C1
:0108250009C9
:0108260012BF
:0108270006CA
:0108280006C9
:0108290004CA
:01082A0004C9
:01082B0004C8
:01082C0012B9
:01082D0006C4
:01082E0008C1
:01082F0012B6
:010830000EB9
:010831000FB7
:010832000ABB
:0108330004C0
:0108340016AD
:0108350006BC
:0108360006BB
:0108370004BC
:010838000AB5
:0108390008B6
:01083A000CB1
:01083B000CB0
:01083C0006B5
:01083D0006B4
:01083E0004B5
:01083F0013A5
:0108400006B1
:0108410008AE
:0108420006AF
:0108430006AE
:0108440006AD
:01084500179B
:010846000AA7
:010847000AA6
:01084800139C
:01084900139B
:01084A00109D
:01084B001795
:01084C0006A5
:01084D0006A4
:01084E001297
:01084F001296
:0108500006A1
:0108510006A0
:01085200069F
:0108530004A0
:01085400069D
:010855000A98
:01085600069B
:01085700069A
:010858000699
:010859000698
:01085A000697
:01085B000F8D
:01085C001487
:01085D000496
:01085E000C8D
:01085F000692
:01086000098E
:010861000690
:010862000C89
:010863001282
:010864001281
:010865001280
:01086600068B
:010867000C84
:01086800127D
:01086900048A
:01086A00137A
:01086B000F7D
:01086C000E7D
:01086D001674
:01086E000683
:01086F001276
:010870000384
:010871001472
:010872000580
:010873000C78
:01087400067D
:01087500087A
:010876000879
:010877000C74
:010878000679
:01087900037B
:01087A000E6F
:01087B000C70
:01087C000477
:01087D000F6B
:01087E000673
:01087F000A6E
:010880001265
:010881000F67
:01088200086D
:01088300175D
:01088400066D
:01088500086A
:010886000A67
:01088700125E
:010888001758
:010889000668
:01088A000865
:01088B00125A
:01088C001259
:01088D001258
:01088E001455
:01088F000E5A
:010890000C5B
:010891001551
:010892001550
:010893001252
:010894001251
:01089500045E
:01089600124F
:01089700045C
:010898000A55
:010899000B53
:01089A000459
:01089B000953
:01089C000457
:01089D000852
:01089E000851
:01089F000C4C
:0108A000094E
:0108A1000C4A
:0108A200094C
:0108A3000C48
:0108A400044F
:0108A5000E44
:0108A6000B46
:0108A700064A
:0108A8000B44
:0108A9000945
:0108AA00123B
:0108AB000C40
:0108AC001239
:0108AD001238
:0108AE000940
:0108AF00093F
:0108B000093E
:0108B1000640
:0108B200063F
:0108B300063E
:0108B400063D
:0108B500063C
:0108B600043D
:0108B700063A
:0108B8000639
:0108B900122C
:0108BA000637
:0108BB000F2D
:0108BC000F2C
:0108BD000436
:0108BE000633
:0108BF000830
:0108C000082F
:0108C100171F
:0108C2000E27
:0108C300082C
:0108C4000A29
:0108C500082A
:0108C600042D
:0108C700062A
:0108C8000629
:0108C900121C
:0108CA00101D
:0108CB00101C
:0108CC000823
:0108CD00101A
:0108CE000C1D
:0108CF00091F
:0108D000091E
:0108D1001016
:0108D2001312
:0108D300091B
:0108D4000320
:0108D500170B
:0108D600051C
:0108D700130D
:0108D8000619
:0108D9001707
:0108DA000914
:0108DB000A12
:0108DC001407
:0108DD000713
:0108DE000712
:0108DF000216
:0108E0000A0D
:0108E1000C0A
:0108E2000312
:0108E3000C08
:0108E400060D
:0108E5000909
:0108E60016FB
:0108E70016FA
:0108E8000906
:0108E900040A
:0108EA0012FB
:0108EB0017F5
:0108EC0017F4
:0108ED0012F8
:0108EE000405
:0108EF000AFE
:0108F0000601
:0108F1000600
:0108F20006FF
:0108F30006FE
:0108F40006FD
:0108F50006FC
:0108F60006FB
:0108F7000AF6
:0108F8000AF5
:0108F90009F5
:0108FA000EEF
:0108FB000AF2
:0108FC000AF1
:0108FD0003F7
:0108FE0009F0
:0108FF0005F3
:0109000017DF
:010901000CE9
:0109020004F0
:0109030009EA
:0109040006EC
:0109050006EB
:0109060013DD
:0109070004EB
:0109080006E8
:0109090012DB
:01090A000AE2
:01090B0012D9
:01090C0009E1
:01090D0017D2
:01090E0008E0
:01090F0004E3
:0109100008DE
:010911000ADB
:0109120012D2
:0109130013D0
:0109140017CB
:0109150008D9
:010916000AD6
:0109170006D9
:0109180007D7
:010919000CD1
:01091A0006D6
:01091B000FCC
:01091C0006D4
:01091D0007D2
:01091E0006D2
:01091F0006D1
:0109200006D0
:0109210004D1
:0109220006CE
:0109230006CD
:0109240009C9
:0109250012BF
:0109260009C7
:0109270009C6
:0109280012BC
:0109290012BB
:01092A0004C8
:01092B0004C7
:01092C0002C8
:01092D0010B9
:01092E0004C4
:01092F000ABD
:0109300006C0
:0109310007BE
:0109320004C0
:0109330006BD
:010934000AB8
:0109350012AF
:0109360002BE
:0109370002BD
:0109380006B8
:0109390006B7
:01093A0012AA
:01093B0009B2
:01093C0009B1
:01093D000AAF
:01093E0005B3
:01093F0005B2
:0109400004B2
:0109410004B1
:010942000AAA
:010943000EA5
:010944000CA6
:01094500179A
:010946000EA2
:0109470006A9
:0109480004AA
:010949000E9F
:01094A00109C
:01094B001596
:01094C000F9B
:01094D0006A3
:01094E001098
:01094F001097
:0109500003A3
:0109510003A2
:010952000A9A
:01095300069D
:010954000C96
:01095500059C
:010956000997
:010957000B94
:01095800049A
:010959000994
:01095A000D8F
:01095B000497
:01095C000694
:01095D000A8F
:01095E001484
:01095F00098E
:010960000492
:010961000491
:01096200167E
:01096300098A
:01096400177B
:010965001081
:01096600127E
:010967000689
:010968000985
:010969000984
:01096A000488
:01096B000784
:01096C001476
:01096D001376
:01096E000682
:01096F000681
:010970000482
:01097100097C
:010972001272
:010973000281
:01097400087A
:01097500126F
:010976000F71
:010977000C73
:010978000678
:010979001469
:01097A001765
:01097B000972
:01097C000476
:01097D000475
:01097E000870
:01097F000671
:010980000373
:010981000C69
:01098200056F
:01098300056E
:01098400066C
:01098500066B
:010986000E62
:01098700036C
:010988000668
:010989000469
:01098A00105C
:01098B000764
:01098C000862
:01098D000663
:01098E00095F
:01098F000364
:010990001650
:010991001253
:01099200065E
:01099300095A
:01099400045E
:01099500045D
:010996000A56
:01099700035C
:01099800124C
:01099900124B
:01099A000953
:01099B000952
:01099C001248
:01099D000653
:01099E000A4E
:01099F001245
:0109A0001244
:0109A100094C
:0109A200064E
:0109A3001241
:0109A4000949
:0109A5000A47
:0109A6000947
:0109A700034C
:0109A8000945
:0109A9000B42
:0109AA000943
:0109AB000B40
:0109AC000842
:0109AD001435
:0109AE001533
:0109AF000C3B
:0109B0000640
:0109B100083D
:0109B200083C
:0109B300083B
:0109B4000939
:0109B5000839
:0109B6000937
:0109B7000936
:0109B8000935
:0109B9000934
:0109BA000A32
:0109BB000635
:0109BC000634
:0109BD000A2F
:0109BE001028
:0109BF001324
:0109C0001224
:0109C100092C
:0109C200062E
:0109C300062D
:0109C4000E24
:0109C5000829
:0109C6000729
:0109C7000C23
:0109C8000826
:0109C9001617
:0109CA000626
:0109CB000625
:0109CC000624
:0109CD001118
:0109CE000C1C
:0109CF001215
:0109D0000A1C
:0109D1000A1B
:0109D200170D
:0109D300061D
:0109D400061C
:0109D500130E
:0109D600061A
:0109D7000A15
:0109D8000A14
:0109D9000914
:0109DA00120A
:0109DB001209
:0109DC000911
:0109DD000910
:0109DE000612
:0109DF000413
:0109E000080E
:0109E1001203
:0109E2000410
:0109E3000C07
:0109E400040E
:0109E50012FF
:0109E60012FE
:0109E7000609
:0109E8000608
:0109E9000409
:0109EA000606
:0109EB000CFF
:0109EC000406
:0109ED000603
:0109EE000CFC
:0109EF0008FF
:0109F00008FE
:0109F10009FC
:0109F20009FB
:0109F30012F1
:0109F40009F9
:0109F50012EF
:0109F60006FA
:0109F70009F6
:0109F80009F5
:0109F9000EEF
:0109FA0006F6
:0109FB000CEF
:0109FC0012E8
:0109FD0006F3
:0109FE0010E8
:0109FF0003F4
:010A000006EF
:010A010004F0
:010A020004EF
:010A030005ED
:010A040009E8
:010A050012DE
:010A060005EA
:010A070011DD
:010A080012DB
:010A090017D5
:010A0A0012D9
:010A0B0006E4
:010A0C000EDB
:010A0D0003E5
:010A0E0006E1
:010A0F0006E0
:010A100006DF
:010A110015CF
:010A12000CD7
:010A130009D9
:010A140006DB
:010A150008D8
:010A160008D7
:010A170008D6
:010A180008D5
:010A19000CD0
:010A1A0012C9
:010A1B0014C6
:010A1C0009D0
:010A1D0008D0
:010A1E0010C7
:010A1F000ACC
:010A20000ACB
:010A21000FC5
:010A220012C1
:010A23000AC8
:010A240012BF
:010A25000AC6
:010A26000AC5
:010A270012BC
:010A280012BB
:010A290012BA
:010A2A0006C5
:010A2B0008C2
:010A2C0008C1
:010A2D0008C0
:010A2E0012B5
:010A2F0009BD
:010A300012B3
:010A310006BE
:010A320006BD
:010A330012B0
:010A34000CB5
:010A350006BA
:010A360002BD
:010A37000AB4
:010A380014A9
:010A39000CB0
:010A3A0003B8
:010A3B0003B7
:010A3C0003B6
:010A3D0012A6
:010A3E000AAD
:010A3F000EA8
:010A40000EA7
:010A410009AB
:010A420008AB
:010A430004AE
:010A440005AC
:010A450009A7
:010A460009A6
:010A47000CA2
:010A480005A8
:010A490003A9
:010A4A0006A5
:010A4B0007A3
:010A4C0004A5
:010A4D000E9A
:010A4E001394
:010A4F0006A0
:010A50000F96
:010A51000A9A
:010A5200089B
:010A53000C96
:010A54000998
:010A55000E92
:010A56000E91
:010A57000D91
:010A58000697
:010A5900118B
:010A5A00118A
:010A5B000892
:010A5C000891
:010A5D001781
:010A5E000F88
:010A5F001284
:010A60001283
:010A61000391
:010A62000390
:010A6300068C
:010A6400068B
:010A65000B85
:010A66000C83
:010A67000C82
:010A68000984
:010A69000C80
:010A6A000685
:010A6B000981
:010A6C000683
:010A6D00097F
:010A6E001077
:010A6F000A7C
:010A7000077E
:010A71000B79
:010A72000C77
:010A7300087A
:010A7400047D
:010A7500037D
:010A7600037C
:010A7700126C
:010A78000479
:010A79000379
:010A7A001269
:010A7B000377
:010A7C000376
:010A7D000573
:010A7E001265
:010A7F001462
:010A8000096C
:010A81001361
:010A82001360
:010A83000969
:010A8400125F
:010A85000E62
:010A86000669
:010A87000965
:010A88000964
:010A89000666
:010A8A000665
:010A8B000664
:010A8C000663
:010A8D000C5C
:010A8E000C5B
:010A8F000462
:010A9000065F
:010A91000361
:010A92001251
:010A93001052
:010A94000A57
:010A95000957
:010A96000956
:010A97000A54
:010A9800035A
:010A99000C50
:010A9A000C4F
:010A9B000852
:010A9C000653
:010A9D000C4C
:010A9E000C4B
:010A9F000650
:010AA000074E
:010AA1001242
:010AA2001340
:010AA3000C46
:010AA400064B
:010AA500064A
:010AA600054A
:010AA7000549
:010AA8000E3F
:010AA9000349
:010AAA001734
:010AAB001436
:010AAC001237
:010AAD000642
:010AAE001433
:010AAF000640
:010AB000063F
:010AB100063E
:010AB2001231
:010AB3000F33
:010AB400122F
:010AB500033D
:010AB6000639
:010AB7000638
:010AB8000835
:010AB9000834
:010ABA001427
:010ABB000D2D
:010ABC000732
:010ABD000731
:010ABE000A2D
:010ABF000A2C
:010AC0000332
:010AC1001222
:010AC2001221
:010AC3000929
:010AC4000F22
:010AC5000C24
:010AC6000C23
:010AC7000628
:010AC8000D20
:010AC9001616
:010ACA000625
:010ACB000624
:010ACC001712
:010ACD000A1E
:010ACE001215
:010ACF000A1C
:010AD0000322
:010AD1000C18
:010AD200041F
:010AD300041E
:010AD400120F
:010AD5000917
:010AD6000C13
:010AD7000915
:010AD8000A13
:010AD9000A12
:010ADA000A11
:010ADB000A10
:010ADC000910
:010ADD00090F
:010ADE000A0D
:010ADF000A0C
:010AE0001203
:010AE1001202
:010AE2001201
:010AE300070B
:010AE40013FE
:010AE5001000
:010AE60010FF
:010AE7000C02
:010AE800020B
:010AE900020A
:010AEA000803
:010AEB000802
:010AEC000306
:010AED000CFC
:010AEE0008FF
:010AEF000CFA
:010AF00012F3
:010AF10012F2
:010AF2000300
:010AF30012F0
:010AF40003FE
:010AF50003FD
:010AF60012ED
:010AF70012EC
:010AF80016E7
:010AF90015E7
:010AFA0012E9
:010AFB0012E8
:010AFC0017E2
:010AFD0010E8
:010AFE0006F1
:010AFF0008EE
:010B000006EE
:010B010006ED
:010B020012E0
:010B03000AE7
:010B040009E7
:010B050009E6
:010B060003EB
:010B070003EA
:010B080006E6
:010B090006E5
:010B0A0010DA
:010B0B0009E0
:010B0C0010D8
:010B0D0012D5
:010B0E0006E0
:010B0F0006DF
:010B100004E0
:010B110006DD
:010B120006DC
:010B130012CF
:010B140017C9
:010B150009D6
:010B160008D6
:010B17000DD0
:010B180010CC
:010B19000ECD
:010B1A0009D1
:010B1B0010C9
:010B1C000DCB
:010B1D000DCA
:010B1E0017BF
:010B1F000ACB
:010B200012C2
:010B210012C1
:010B220009C9
:010B230016BB
:010B240008C8
:010B250008C7
:010B260012BC
:010B270005C8
:010B28000CC0
:010B290012B9
:010B2A0004C6
:010B2B0006C3
:010B2C0002C6
:010B2D0002C5
:010B2E000ABC
:010B2F0012B3
:010B300011B3
:010B31000CB7
:010B320010B2
:010B330005BC
:010B340006BA
:010B350006B9
:010B360006B8
:010B37000DB0
:010B380013A9
:010B390006B5
:010B3A0004B6
:010B3B0006B3
:010B3C0006B2
:010B3D0006B1
:010B3E0012A4
:010B3F0004B1
:010B400008AC
:010B410008AB
:010B42000AA8
:010B43000AA7
:010B440004AC
:010B450004AB
:010B4600109E
:010B4700109D
:010B480007A5
:010B490003A8
:010B4A0009A1
:010B4B001198
:010B4C0008A0
:010B4D00089F
:010B4E000A9C
:010B4F00168F
:010B5000178D
:010B51000C97
:010B5200069C
:010B5300069B
:010B54000997
:010B55001689
:010B56000995
:010B5700128B
:010B58001389
:010B59001289
:010B5A000991
:010B5B000990
:010B5C00098F
:010B5D00098E
:010B5E000393
:010B5F00177E
:010B6000068E
:010B61000093
:010B62000092
:010B63000091
:010B64000090
:010B6500008F
:010B6600008E
:010B6700008D
:010B6800008C
:010B6900008B
:010B6A00008A
:010B6B000089
:010B6C000088
:010B6D000087
:010B6E000086
:010B6F000085
:010B70000084
:010B71000083
:010B72000082
:010B73000081
:010B74000080
:010B7500007F
:010B7600007E
:010B7700007D
:010B7800007C
:010B7900007B
:010B7A00007A
:010B7B000079
:010B7C000078
:010B7D000077
:010B7E000076
:010B7F000075
:010B80000074
:010B81000073
:010B82000072
:010B83000071
:010B84000070
:010B8500006F
:010B8600006E
:010B8700006D
:010B8800006C
:010B8900006B
:010B8A00006A
:010B8B000069
:010B8C000068
:010B8D000067
:010B8E000066
:010B8F000065
:010B90000064
:010B91000063
:010B92000062
:010B93000061
:010B94000060
:010B9500005F
:010B9600005E
:010B9700005D
:010B9800005C
:010B9900005B
:010B9A00005A
:010B9B000059
:010B9C000058
:010B9D000057
:010B9E000056
:010B9F000055
:010BA0000054
:010BA1000053
:010BA2000052
:010BA3000051
:010BA4000050
:010BA500004F
:010BA600004E
:010BA700004D
:010BA800004C
:010BA900004B
:010BAA00004A
:010BAB000049
:010BAC000048
:010BAD000047
:010BAE000046
:010BAF000045
:010BB0000044
:010BB1000043
:010BB2000042
:010BB3000041
:010BB4000040
:010BB500003F
:010BB600003E
:010BB700003D
:010BB800003C
:010BB900003B
:010BBA00003A
:010BBB000039
:010BBC000038
:010BBD000037
:010BBE000036
:010BBF000035
:010BC0000034
:010BC1000033
:010BC2000032
:010BC3000031
:010BC4000030
:010BC500002F
:010BC600002E
:010BC700002D
:010BC800002C
:010BC900002B
:010BCA00002A
:010BCB000029
:010BCC000028
:010BCD000027
:010BCE000026
:010BCF000025
:010BD0000024
:010BD1000023
:010BD2000022
:010BD3000021
:010BD4000020
:010BD500001F
:010BD600001E
:010BD700001D
:010BD800001C
:010BD900001B
:010BDA00001A
:010BDB000019
:010BDC000018
:010BDD000017
:010BDE000016
:010BDF000015
:010BE0000014
:010BE1000013
:010BE2000012
:010BE3000011
:010BE4000010
:010BE500000F
:010BE600000E
:010BE700000D
:010BE800000C
:010BE900000B
:010BEA00000A
:010BEB000009
:010BEC000008
:010BED000007
:010BEE000006
:010BEF000005
:010BF0000004
:010BF1000003
:010BF2000002
:010BF3000001
:010BF4000000
:010BF50000FF
:010BF60000FE
:010BF70000FD
:010BF80000FC
:010BF90000FB
:010BFA0000FA
:010BFB0000F9
:010BFC0000F8
:010BFD0000F7
:010BFE0000F6
:010BFF0000F5
:010C000000F3
:010C010000F2
:010C020000F1
:010C030000F0
:010C040000EF
:010C050000EE
:010C060000ED
:010C070000EC
:010C080000EB
:010C090000EA
:010C0A0000E9
:010C0B0000E8
:010C0C0000E7
:010C0D0000E6
:010C0E0000E5
:010C0F0000E4
:010C100000E3
:010C110000E2
:010C120000E1
:010C130000E0
:010C140000DF
:010C150000DE
:010C160000DD
:010C170000DC
:010C180000DB
:010C190000DA
:010C1A0000D9
:010C1B0000D8
:010C1C0000D7
:010C1D0000D6
:010C1E0000D5
:010C1F0000D4
:010C200000D3
:010C210000D2
:010C220000D1
:010C230000D0
:010C240000CF
:010C250000CE
:010C260000CD
:010C270000CC
:010C280000CB
:010C290000CA
:010C2A0000C9
:010C2B0000C8
:010C2C0000C7
:010C2D0000C6
:010C2E0000C5
:010C2F0000C4
:010C300000C3
:010C310000C2
:010C320000C1
:010C330000C0
:010C340000BF
:010C350000BE
:010C360000BD
:010C370000BC
:010C380000BB
:010C390000BA
:010C3A0000B9
:010C3B0000B8
:010C3C0000B7
:010C3D0000B6
:010C3E0000B5
:010C3F0000B4
:010C400000B3
:010C410000B2
:010C420000B1
:010C430000B0
:010C440000AF
:010C450000AE
:010C460000AD
:010C470000AC
:010C480000AB
:010C490000AA
:010C4A0000A9
:010C4B0000A8
:010C4C0000A7
:010C4D0000A6
:010C4E0000A5
:010C4F0000A4
:010C500000A3
:010C510000A2
:010C520000A1
:010C530000A0
:010C5400009F
:010C5500009E
:010C5600009D
:010C5700009C
:010C5800009B
:010C5900009A
:010C5A000099
:010C5B000098
:010C5C000097
:010C5D000096
:010C5E000095
:010C5F000094
:010C60000093
:010C61000092
:010C62000091
:010C63000090
:010C6400008F
:010C6500008E
:010C6600008D
:010C6700008C
:010C6800008B
:010C6900008A
:010C6A000089
:010C6B000088
:010C6C000087
:010C6D000086
:010C6E000085
:010C6F000084
:010C70000083
:010C71000082
:010C72000081
:010C73000080
:010C7400007F
:010C7500007E
:010C7600007D
:010C7700007C
:010C7800007B
:010C7900007A
:010C7A000079
:010C7B000078
:010C7C000077
:010C7D000076
:010C7E000075
:010C7F000074
:010C80000073
:010C81000072
:010C82000071
:010C83000070
:010C8400006F
:010C8500006E
:010C8600006D
:010C8700006C
:010C8800006B
:010C8900006A
:010C8A000069
:010C8B000068
:010C8C000067
:010C8D000066
:010C8E000065
:010C8F000064
:010C90000063
:010C91000062
:010C92000061
:010C93000060
:010C9400005F
:010C9500005E
:010C9600005D
:010C9700005C
:010C9800005B
:010C9900005A
:010C9A000059
:010C9B000058
:010C9C000057
:010C9D000056
:010C9E000055
:010C9F000054
:010CA0000053
:010CA1000052
:010CA2000051
:010CA3000050
:010CA400004F
:010CA500004E
:010CA600004D
:010CA700004C
:010CA800004B
:010CA900004A
:010CAA000049
:010CAB000048
:010CAC000047
:010CAD000046
:010CAE000045
:010CAF000044
:010CB0000043
:010CB1000042
:010CB2000041
:010CB3000040
:010CB400003F
:010CB500003E
:010CB600003D
:010CB700003C
:010CB800003B
:010CB900003A
:010CBA000039
:010CBB000038
:010CBC000037
:010CBD000036
:010CBE000035
:010CBF000034
:010CC0000033
:010CC1000032
:010CC2000031
:010CC3000030
:010CC400002F
:010CC500002E
:010CC600002D
:010CC700002C
:010CC800002B
:010CC900002A
:010CCA000029
:010CCB000028
:010CCC000027
:010CCD000026
:010CCE000025
:010CCF000024
:010CD0000023
:010CD1000022
:010CD2000021
:010CD3000020
:010CD400001F
:010CD500001E
:010CD600001D
:010CD700001C
:010CD800001B
:010CD900001A
:010CDA000019
:010CDB000018
:010CDC000017
:010CDD000016
:010CDE000015
:010CDF000014
:010CE0000013
:010CE1000012
:010CE2000011
:010CE3000010
:010CE400000F
:010CE500000E
:010CE600000D
:010CE700000C
:010CE800000B
:010CE900000A
:010CEA000009
:010CEB000008
:010CEC000007
:010CED000006
:010CEE000005
:010CEF000004
:010CF0000003
:010CF1000002
:010CF2000001
:010CF3000000
:010CF40000FF
:010CF50000FE
:010CF60000FD
:010CF70000FC
:010CF80000FB
:010CF90000FA
:010CFA0000F9
:010CFB0000F8
:010CFC0000F7
:010CFD0000F6
:010CFE0000F5
:010CFF0000F4
:010D000000F2
:010D010000F1
:010D020000F0
:010D030000EF
:010D040000EE
:010D050000ED
:010D060000EC
:010D070000EB
:010D080000EA
:010D090000E9
:010D0A0000E8
:010D0B0000E7
:010D0C0000E6
:010D0D0000E5
:010D0E0000E4
:010D0F0000E3
:010D100000E2
:010D110000E1
:010D120000E0
:010D130000DF
:010D140000DE
:010D150000DD
:010D160000DC
:010D170000DB
:010D180000DA
:010D190000D9
:010D1A0000D8
:010D1B0000D7
:010D1C0000D6
:010D1D0000D5
:010D1E0000D4
:010D1F0000D3
:010D200000D2
:010D210000D1
:010D220000D0
:010D230000CF
:010D240000CE
:010D250000CD
:010D260000CC
:010D270000CB
:010D280000CA
:010D290000C9
:010D2A0000C8
:010D2B0000C7
:010D2C0000C6
:010D2D0000C5
:010D2E0000C4
:010D2F0000C3
:010D300000C2
:010D310000C1
:010D320000C0
:010D330000BF
:010D340000BE
:010D350000BD
:010D360000BC
:010D370000BB
:010D380000BA
:010D390000B9
:010D3A0000B8
:010D3B0000B7
:010D3C0000B6
:010D3D0000B5
:010D3E0000B4
:010D3F0000B3
:010D400000B2
:010D410000B1
:010D420000B0
:010D430000AF
:010D440000AE
:010D450000AD
:010D460000AC
:010D470000AB
:010D480000AA
:010D490000A9
:010D4A0000A8
:010D4B0000A7
:010D4C0000A6
:010D4D0000A5
:010D4E0000A4
:010D4F0000A3
:010D500000A2
:010D510000A1
:010D520000A0
:010D5300009F
:010D5400009E
:010D5500009D
:010D5600009C
:010D5700009B
:010D5800009A
:010D59000099
:010D5A000098
:010D5B000097
:010D5C000096
:010D5D000095
:010D5E000094
:010D5F000093
:010D60000092
:010D61000091
:010D62000090
:010D6300008F
:010D6400008E
:010D6500008D
:010D6600008C
:010D6700008B
:010D6800008A
:010D69000089
:010D6A000088
:010D6B000087
:010D6C000086
:010D6D000085
:010D6E000084
:010D6F000083
:010D70000082
:010D71000081
:010D72000080
:010D7300007F
:010D7400007E
:010D7500007D
:010D7600007C
:010D7700007B
:010D7800007A
:010D79000079
:010D7A000078
:010D7B000077
:010D7C000076
:010D7D000075
:010D7E000074
:010D7F000073
:010D80000072
:010D81000071
:010D82000070
:010D8300006F
:010D8400006E
:010D8500006D
:010D8600006C
:010D8700006B
:010D8800006A
:010D89000069
:010D8A000068
:010D8B000067
:010D8C000066
:010D8D000065
:010D8E000064
:010D8F000063
:010D90000062
:010D91000061
:010D92000060
:010D9300005F
:010D9400005E
:010D9500005D
:010D9600005C
:010D9700005B
:010D9800005A
:010D99000059
:010D9A000058
:010D9B000057
:010D9C000056
:010D9D000055
:010D9E000054
:010D9F000053
:010DA0000052
:010DA1000051
:010DA2000050
:010DA300004F
:010DA400004E
:010DA500004D
:010DA600004C
:010DA700004B
:010DA800004A
:010DA9000049
:010DAA000048
:010DAB000047
:010DAC000046
:010DAD000045
:010DAE000044
:010DAF000043
:010DB0000042
:010DB1000041
:010DB2000040
:010DB300003F
:010DB400003E
:010DB500003D
:010DB600003C
:010DB700003B
:010DB800003A
:010DB9000039
:010DBA000038
:010DBB000037
:010DBC000036
:010DBD000035
:010DBE000034
:010DBF000033
:010DC0000032
:010DC1000031
:010DC2000030
:010DC300002F
:010DC400002E
:010DC500002D
:010DC600002C
:010DC700002B
:010DC800002A
:010DC9000029
:010DCA000028
:010DCB000027
:010DCC000026
:010DCD000025
:010DCE000024
:010DCF000023
:010DD0000022
:010DD1000021
:010DD2000020
:010DD300001F
:010DD400001E
:010DD500001D
:010DD600001C
:010DD700001B
:010DD800001A
:010DD9000019
:010DDA000018
:010DDB000017
:010DDC000016
:010DDD000015
:010DDE000014
:010DDF000013
:010DE0000012
:010DE1000011
:010DE2000010
:010DE300000F
:010DE400000E
:010DE500000D
:010DE600000C
:010DE700000B
:010DE800000A
:010DE9000009
:010DEA000008
:010DEB000007
:010DEC000006
:010DED000005
:010DEE000004
:010DEF000003
:010DF0000002
:010DF1000001
:010DF2000000
:010DF30000FF
:010DF40000FE
:010DF50000FD
:010DF60000FC
:010DF70000FB
:010DF80000FA
:010DF90000F9
:010DFA0000F8
:010DFB0000F7
:010DFC0000F6
:010DFD0000F5
:010DFE0000F4
:010DFF0000F3
:010E000000F1
:010E010000F0
:010E020000EF
:010E030000EE
:010E040000ED
:010E050000EC
:010E060000EB
:010E070000EA
:010E080000E9
:010E090000E8
:010E0A0000E7
:010E0B0000E6
:010E0C0000E5
:010E0D0000E4
:010E0E0000E3
:010E0F0000E2
:010E100000E1
:010E110000E0
:010E120000DF
:010E130000DE
:010E140000DD
:010E150000DC
:010E160000DB
:010E170000DA
:010E180000D9
:010E190000D8
:010E1A0000D7
:010E1B0000D6
:010E1C0000D5
:010E1D0000D4
:010E1E0000D3
:010E1F0000D2
:010E200000D1
:010E210000D0
:010E220000CF
:010E230000CE
:010E240000CD
:010E250000CC
:010E260000CB
:010E270000CA
:010E280000C9
:010E290000C8
:010E2A0000C7
:010E2B0000C6
:010E2C0000C5
:010E2D0000C4
:010E2E0000C3
:010E2F0000C2
:010E300000C1
:010E310000C0
:010E320000BF
:010E330000BE
:010E340000BD
:010E350000BC
:010E360000BB
:010E370000BA
:010E380000B9
:010E390000B8
:010E3A0000B7
:010E3B0000B6
:010E3C0000B5
:010E3D0000B4
:010E3E0000B3
:010E3F0000B2
:010E400000B1
:010E410000B0
:010E420000AF
:010E430000AE
:010E440000AD
:010E450000AC
:010E460000AB
:010E470000AA
:010E480000A9
:010E490000A8
:010E4A0000A7
:010E4B0000A6
:010E4C0000A5
:010E4D0000A4
:010E4E0000A3
:010E4F0000A2
:010E500000A1
:010E510000A0
:010E5200009F
:010E5300009E
:010E5400009D
:010E5500009C
:010E5600009B
:010E5700009A
:010E58000099
:010E59000098
:010E5A000097
:010E5B000096
:010E5C000095
:010E5D000094
:010E5E000093
:010E5F000092
:010E60000091
:010E61000090
:010E6200008F
:010E6300008E
:010E6400008D
:010E6500008C
:010E6600008B
:010E6700008A
:010E68000089
:010E69000088
:010E6A000087
:010E6B000086
:010E6C000085
:010E6D000084
:010E6E000083
:010E6F000082
:010E70000081
:010E71000080
:010E7200007F
:010E7300007E
:010E7400007D
:010E7500007C
:010E7600007B
:010E7700007A
:010E78000079
:010E79000078
:010E7A000077
:010E7B000076
:010E7C000075
:010E7D000074
:010E7E000073
:010E7F000072
:010E80000071
:010E81000070
:010E8200006F
:010E8300006E
:010E8400006D
:010E8500006C
:010E8600006B
:010E8700006A
:010E88000069
:010E89000068
:010E8A000067
:010E8B000066
:010E8C000065
:010E8D000064
:010E8E000063
:010E8F000062
:010E90000061
:010E91000060
:010E9200005F
:010E9300005E
:010E9400005D
:010E9500005C
:010E9600005B
:010E9700005A
:010E98000059
:010E99000058
:010E9A000057
:010E9B000056
:010E9C000055
:010E9D000054
:010E9E000053
:010E9F000052
:010EA0000051
:010EA1000050
:010EA200004F
:010EA300004E
:010EA400004D
:010EA500004C
:010EA600004B
:010EA700004A
:010EA8000049
:010EA9000048
:010EAA000047
:010EAB000046
:010EAC000045
:010EAD000044
:010EAE000043
:010EAF000042
:010EB0000041
:010EB1000040
:010EB200003F
:010EB300003E
:010EB400003D
:010EB500003C
:010EB600003B
:010EB700003A
:010EB8000039
:010EB9000038
:010EBA000037
:010EBB000036
:010EBC000035
:010EBD000034
:010EBE000033
:010EBF000032
:010EC0000031
:010EC1000030
:010EC200002F
:010EC300002E
:010EC400002D
:010EC500002C
:010EC600002B
:010EC700002A
:010EC8000029
:010EC9000028
:010ECA000027
:010ECB000026
:010ECC000025
:010ECD000024
:010ECE000023
:010ECF000022
:010ED0000021
:010ED1000020
:010ED200001F
:010ED300001E
:010ED400001D
:010ED500001C
:010ED600001B
:010ED700001A
:010ED8000019
:010ED9000018
:010EDA000017
:010EDB000016
:010EDC000015
:010EDD000014
:010EDE000013
:010EDF000012
:010EE0000011
:010EE1000010
:010EE200000F
:010EE300000E
:010EE400000D
:010EE500000C
:010EE600000B
:010EE700000A
:010EE8000009
:010EE9000008
:010EEA000007
:010EEB000006
:010EEC000005
:010EED000004
:010EEE000003
:010EEF000002
:010EF0000001
:010EF1000000
:010EF20000FF
:010EF30000FE
:010EF40000FD
:010EF50000FC
:010EF60000FB
:010EF70000FA
:010EF80000F9
:010EF90000F8
:010EFA0000F7
:010EFB0000F6
:010EFC0000F5
:010EFD0000F4
:010EFE0000F3
:010EFF0000F2
:010F000000F0
:010F010000EF
:010F020000EE
:010F030000ED
:010F040000EC
:010F050000EB
:010F060000EA
:010F070000E9
:010F080000E8
:010F090000E7
:010F0A0000E6
:010F0B0000E5
:010F0C0000E4
:010F0D0000E3
:010F0E0000E2
:010F0F0000E1
:010F100000E0
:010F110000DF
:010F120000DE
:010F130000DD
:010F140000DC
:010F150000DB
:010F160000DA
:010F170000D9
:010F180000D8
:010F190000D7
:010F1A0000D6
:010F1B0000D5
:010F1C0000D4
:010F1D0000D3
:010F1E0000D2
:010F1F0000D1
:010F200000D0
:010F210000CF
:010F220000CE
:010F230000CD
:010F240000CC
:010F250000CB
:010F260000CA
:010F270000C9
:010F280000C8
:010F290000C7
:010F2A0000C6
:010F2B0000C5
:010F2C0000C4
:010F2D0000C3
:010F2E0000C2
:010F2F0000C1
:010F300000C0
:010F310000BF
:010F320000BE
:010F330000BD
:010F340000BC
:010F350000BB
:010F360000BA
:010F370000B9
:010F380000B8
:010F390000B7
:010F3A0000B6
:010F3B0000B5
:010F3C0000B4
:010F3D0000B3
:010F3E0000B2
:010F3F0000B1
:010F400000B0
:010F410000AF
:010F420000AE
:010F430000AD
:010F440000AC
:010F450000AB
:010F460000AA
:010F470000A9
:010F480000A8
:010F490000A7
:010F4A0000A6
:010F4B0000A5
:010F4C0000A4
:010F4D0000A3
:010F4E0000A2
:010F4F0000A1
:010F500000A0
:010F5100009F
:010F5200009E
:010F5300009D
:010F5400009C
:010F5500009B
:010F5600009A
:010F57000099
:010F58000098
:010F59000097
:010F5A000096
:010F5B000095
:010F5C000094
:010F5D000093
:010F5E000092
:010F5F000091
:010F60000090
:010F6100008F
:010F6200008E
:010F6300008D
:010F6400008C
:010F6500008B
:010F6600008A
:010F67000089
:010F68000088
:010F69000087
:010F6A000086
:010F6B000085
:010F6C000084
:010F6D000083
:010F6E000082
:010F6F000081
:010F70000080
:010F7100007F
:010F7200007E
:010F7300007D
:010F7400007C
:010F7500007B
:010F7600007A
:010F77000079
:010F78000078
:010F79000077
:010F7A000076
:010F7B000075
:010F7C000074
:010F7D000073
:010F7E000072
:010F7F000071
:010F80000070
:010F8100006F
:010F8200006E
:010F8300006D
:010F8400006C
:010F8500006B
:010F8600006A
:010F87000069
:010F88000068
:010F89000067
:010F8A000066
:010F8B000065
:010F8C000064
:010F8D000063
:010F8E000062
:010F8F000061
:010F90000060
:010F9100005F
:010F9200005E
:010F9300005D
:010F9400005C
:010F9500005B
:010F9600005A
:010F97000059
:010F98000058
:010F99000057
:010F9A000056
:010F9B000055
:010F9C000054
:010F9D000053
:010F9E000052
:010F9F000051
:010FA0000050
:010FA100004F
:010FA200004E
:010FA300004D
:010FA400004C
:010FA500004B
:010FA600004A
:010FA7000049
:010FA8000048
:010FA9000047
:010FAA000046
:010FAB000045
:010FAC000044
:010FAD000043
:010FAE000042
:010FAF000041
:010FB0000040
:010FB100003F
:010FB200003E
:010FB300003D
:010FB400003C
:010FB500003B
:010FB600003A
:010FB7000039
:010FB8000038
:010FB9000037
:010FBA000036
:010FBB000035
:010FBC000034
:010FBD000033
:010FBE000032
:010FBF000031
:010FC0000030
:010FC100002F
:010FC200002E
:010FC300002D
:010FC400002C
:010FC500002B
:010FC600002A
:010FC7000029
:010FC8000028
:010FC9000027
:010FCA000026
:010FCB000025
:010FCC000024
:010FCD000023
:010FCE000022
:010FCF000021
:010FD0000020
:010FD100001F
:010FD200001E
:010FD300001D
:010FD400001C
:010FD500001B
:010FD600001A
:010FD7000019
:010FD8000018
:010FD9000017
:010FDA000016
:010FDB000015
:010FDC000014
:010FDD000013
:010FDE000012
:010FDF000011
:010FE0000010
:010FE100000F
:010FE200000E
:010FE300000D
:010FE400000C
:010FE500000B
:010FE600000A
:010FE7000009
:010FE8000008
:010FE9000007
:010FEA000006
:010FEB000005
:010FEC000004
:010FED000003
:010FEE000002
:010FEF000001
:010FF0000000
:010FF10000FF
:010FF20000FE
:010FF30000FD
:010FF40000FC
:010FF50000FB
:010FF60000FA
:010FF70000F9
:010FF80000F8
:010FF90000F7
:010FFA0000F6
:010FFB0000F5
:010FFC0000F4
:010FFD0000F3
:010FFE0000F2
:010FFF0000F1
:00000001FF
