:020000001F7F60
:020001000032CB
:020002000059A3
:020003000017E4
:02000400003DBD
:02000500019761
:02000600000BED
:020007001FB325
:020008000018DE
:020009001FAA2C
:02000A000053A1
:02000B0000579C
:02000C0001777A
:02000D0000945D
:02000E001FB21F
:02000F000021CE
:02001000004BA3
:020011001FE4EA
:020012001FD8F5
:020013000040AB
:020014001FAC1F
:020015001DCDFF
:02001600003AAE
:020017000029BE
:0200180001766F
:02001900011DC7
:02001A00008163
:02001B00003AA9
:02001C00003BA7
:02001D001FF4CE
:02001E0000865A
:02001F001FE3DD
:0200200000CE10
:0200210000C01D
:020022001EE4DA
:020023001F3884
:02002400015B7E
:020025001FF9C1
:0200260001D9FE
:020027001F2E8A
:020028001F5265
:0200290005F2DE
:02002A00004F85
:02002B0000478C
:02002C0000A230
:02002D001FDBD7
:02002E000007C9
:02002F00007B54
:020030001EBEF2
:020031000008C5
:02003200006E5E
:020033001F4864
:020034001EF3B9
:02003500004089
:02003600025472
:020037000019AE
:02003800001BAB
:02003900004B7A
:02003A00005173
:02003B001B9018
:02003C0000259D
:02003D001F663C
:02003E00004B75
:02003F001FD3CD
:02004000008A34
:020041001F6E30
:020042001FD2CB
:020043001EF5A8
:020044001F5348
:020045000007B2
:020046001DEFAC
:02004700005D5A
:020048001F7522
:02004900006B4A
:02004A00005B59
:02004B001FE9AB
:02004C0000B200
:02004D0000EAC7
:02004E000009A7
:02004F0000357A
:020050001F94FB
:020051001FE9A5
:020052001FBDD0
:020053001EE9A4
:0200540000A307
:020055000302A4
:02005600013F68
:020057000000A7
:02005800015C49
:02005900002481
:02005A00002480
:02005B001FA0E4
:02005C00001C86
:02005D00008A17
:02005E001FF38E
:02005F00007728
:020060001FDEA1
:020061001FD4AA
:020062001F9CE1
:02006300000F8C
:020064001FCEAD
:020065001FED8D
:02006600013A5D
:02006700007522
:02006800005046
:020069001F89ED
:02006A001F89EC
:02006B00005043
:02006C00001181
:02006D001F6F03
:02006E001FBEB3
:02006F001FA6CA
:020070001FA3CC
:02007100004449
:020072001FCAA3
:020073001F76F6
:02007400004545
:02007500000D7C
:02007600015631
:02007700042063
:020078001F6BFC
:020079001FBDA9
:02007A001FF174
:02007B001FE67E
:02007C001FF172
:02007D001F461C
:02007E001F9EC3
:02007F001EC39E
:0200800000601E
:020081001FF668
:0200820001EB90
:02008300000972
:02008400011D5C
:020085001F4119
:020086001F3326
:02008700007BFC
:02008800017500
:02008900003441
:02008A00004133
:02008B0000096A
:02008C000082F0
:02008D00000B66
:02008E001FCF82
:02008F00005718
:02009000007CF2
:020091001F4806
:020092001EDB73
:0200930000F279
:02009400001B4F
:0200950000A8C1
:020096001FFD4C
:020097001F84C4
:020098001FCC7B
:020099000099CC
:02009A00006400
:02009B0000E97A
:02009C001FBE85
:02009D001D2E16
:02009E0002D18D
:02009F001FE25E
:0200A00000F965
:0200A1001F89B5
:0200A2001F46F7
:0200A3000098C3
:0200A4001F9D9E
:0200A5001F0C2E
:0200A6001F85B4
:0200A700001E39
:0200A8001FF83F
:0200A900005500
:0200AA001FE550
:0200AB00004C07
:0200AC001F4BE8
:0200AD00005DF4
:0200AE001FFC35
:0200AF00004609
:0200B0001F73BC
:0200B10001123A
:0200B20003CD7C
:0200B3001FCC60
:0200B400002B1F
:0200B500004504
:0200B6001FE346
:0200B700002B1C
:0200B80000192D
:0200B900003510
:0200BA00000C38
:0200BB001E41E4
:0200BC00002121
:0200BD000080C1
:0200BE000082BE
:0200BF00001B24
:0200C000006BD3
:0200C100003409
:0200C200006BD1
:0200C3001FC359
:0200C4001F61BA
:0200C5001FE931
:0200C6001FFA1F
:0200C7001F8C8C
:0200C800010F26
:0200C900002411
:0200CA00002E06
:0200CB001FF51F
:0200CC00002E04
:0200CD00001D14
:0200CE000082AE
:0200CF000067C8
:0200D000001E10
:0200D1000086A7
:0200D2001FF518
:0200D3001F65A7
:0200D4001F61AA
:0200D500000B1E
:0200D6001F23E6
:0200D7001FDE2A
:0200D800008A9C
:0200D9001E34D3
:0200DA001FD62F
:0200DB001FEC18
:0200DC001FDA29
:0200DD001FD032
:0200DE001FA160
:0200DF000045DA
:0200E0001F9E61
:0200E1001F6995
:0200E2001F04F9
:0200E3000058C3
:0200E4001FF10A
:0200E50000B762
:0200E60000EA2E
:0200E7001FD226
:0200E8001FCF28
:0200E900005CB9
:0200EA001FAF46
:0200EB000041D2
:0200EC001FDB18
:0200ED001FEE04
:0200EE00020905
:0200EF0000C34C
:0200F00000DB33
:0200F1001F5E90
:0200F2001EED01
:0200F3000222E7
:0200F4001CA846
:0200F5001EF4F7
:0200F60000FD0B
:0200F7001F9850
:0200F8001F7275
:0200F9001FB630
:0200FA00003DC7
:0200FB0000BD46
:0200FC00003FC3
:0200FD000034CD
:0200FE0000C937
:0200FF000033CC
:020100001FB42A
:0201010000AB51
:020102001F2EAE
:020103001EDEFE
:020104000044B5
:020105001FE7F2
:020106001F5F79
:020107000000F6
:020108001FA531
:020109000007ED
:02010A000004EF
:02010B0000A052
:02010C0000FEF3
:02010D000008E8
:02010E000003EC
:02010F001FE4EB
:020110001F9F2F
:020111001E5C72
:020112001FD9F3
:0201130000A347
:020114001FCBFF
:020115001F3198
:02011600006681
:020117001FE1E6
:0201180000AF36
:020119000000E4
:02011A000025BE
:02011B00002DB5
:02011C001F2A98
:02011D001C5272
:02011E001FBD03
:02011F001FBA05
:020120001F6A54
:020121001FD6E7
:020122001FC8F4
:02012300007862
:02012400006277
:020125000019BF
:020126001FA513
:020127001FE4D3
:020128001F5A5C
:020129001F9C19
:02012A00000AC9
:02012B001FB003
:02012C001F872B
:02012D001FC3EE
:02012E001F08A8
:02012F001FCCE3
:020130001FAE00
:020131001F832A
:020132001FAC00
:020133001FF9B2
:020134001F802A
:02013500004D7B
:020136000019AE
:020137001FD7D0
:020138001FFBAB
:020139001FF0B5
:02013A001F4C58
:02013B001F089B
:02013C001F7A28
:02013D001DA5FE
:02013E001FD0D0
:02013F0002526A
:0201400000D2EB
:02014100000CB0
:020142001F4E4E
:020143000210A8
:020144001E8B10
:02014500003A7E
:02014600008631
:02014700003383
:02014800003C79
:020149001F771E
:02014A0002476A
:02014B001FE7AC
:02014C00004A67
:02014D0000664A
:02014E0000BEF1
:02014F001FDCB3
:0201500000A706
:020151001F7419
:020152001F5E2E
:02015300000AA0
:02015400007039
:02015500008F19
:02015600001295
:02015700000B9B
:02015800009015
:02015900006A3A
:02015A001FC0C4
:02015B001FE1A2
:02015C0000554C
:02015D0000F5AB
:02015E00009F00
:02015F00005846
:020160001F90EE
:02016100002A72
:02016200006536
:020163001FBFBC
:0201640000C7D2
:02016500000593
:020166001E98E1
:02016700004B4B
:02016800009005
:020169001CBDBB
:02016A001FBCB8
:02016B00009AF8
:02016C00000988
:02016D001FC4AD
:02016E001F3B35
:02016F001F88E7
:020170001F432B
:020171001F8EDF
:020172001FE983
:020173001FD794
:02017400002E5B
:0201750000D4B4
:020176000088FF
:020177001FC5A2
:020178001F74F2
:020179001EB6B0
:02017A001FFD67
:02017B00018DF4
:02017C000095EC
:02017D0000D3AD
:02017E001F9CC4
:02017F00053C3D
:02018000001F5E
:020181000296E4
:020182001FED6F
:020183001FB5A6
:02018400013E3A
:02018500004D2B
:020186001EBB9E
:020187001EEA6E
:020188001FE86E
:020189000082F2
:02018A001F86CE
:02018B001EB79D
:02018C00000F62
:02018D000089E7
:02018E0000214E
:02018F00019DD0
:020190001FD876
:02019100001D4F
:02019200006605
:020193000477EF
:020194001F4BFF
:020195001FC782
:02019600023431
:02019700008DD9
:02019800004C19
:020199000066FE
:02019A0000EA79
:02019B00003D25
:02019C0000243D
:02019D00007CE4
:02019E001F4CF4
:02019F00004B13
:0201A000002B32
:0201A1001F44F9
:0201A200015307
:0201A3001FDC5F
:0201A40000AFAA
:0201A5001FDD5C
:0201A6001FEF49
:0201A700002135
:0201A800018CC8
:0201A9001F83B2
:0201AA001F072D
:0201AB001F64CF
:0201AC001FD959
:0201AD0000C888
:0201AE001F56DA
:0201AF001FAE81
:0201B0001FFC32
:0201B1001F77B6
:0201B200004FFC
:0201B3001FFF2C
:0201B4001FFF2B
:0201B5001E82A8
:0201B6001EC267
:0201B700004501
:0201B8001FA97D
:0201B9001FCC59
:0201BA00002023
:0201BB0001A59C
:0201BC001F67BB
:0201BD000068D8
:0201BE0000023D
:0201BF001B62C1
:0201C0000175C7
:0201C10001ED4E
:0201C2001ED24B
:0201C3001F79A2
:0201C4001F4DCD
:0201C50002E551
:0201C6001FD048
:0201C700001224
:0201C800001C19
:0201C9001F9F76
:0201CA001EED28
:0201CB001EF51F
:0201CC00005DD4
:0201CD001FB35E
:0201CE001FE42C
:0201CF001F5CB3
:0201D0001F5AB4
:0201D1001FCE3F
:0201D2001F917B
:0201D3001E9775
:0201D4001FE02A
:0201D5001F55B4
:0201D60000BB6C
:0201D7001DBF4A
:0201D8001F0EF8
:0201D900001113
:0201DA001FF80C
:0201DB000467B7
:0201DC001F946E
:0201DD0000A779
:0201DE00001609
:0201DF0000829C
:0201E0001F57A7
:0201E1001E7787
:0201E2001FD12B
:0201E300004BCF
:0201E4001F7585
:0201E5001F9C5D
:0201E60000C84F
:0201E7001FAC4B
:0201E8001FA254
:0201E90001080B
:0201EA000033E0
:0201EB001FCF24
:0201EC001F945E
:0201ED001F9859
:0201EE0000A06F
:0201EF001FE807
:0201F0001F7579
:0201F10000A666
:0201F2000068A3
:0201F3000331D6
:0201F4000032D7
:0201F50000A068
:0201F6001F8266
:0201F7001F6F78
:0201F8001F04E2
:0201F9001FD015
:0201FA000112F0
:0201FB001FAC37
:0201FC001FA53D
:0201FD000004FC
:0201FE0000926D
:0201FF00007D81
:020200000016E6
:020201001FE7F5
:020202001F8457
:020203001FD901
:020204001F17C2
:020205000010E7
:02020600008A6C
:020207001F7363
:0202080000C034
:020209001FDDF7
:02020A00010CE5
:02020B001F4C86
:02020C000046AA
:02020D00008768
:02020E001FAA25
:02020F00007974
:0202100000E20A
:020211001F7755
:0202120000509A
:020213001FAB1F
:02021400008563
:020215001FD4F4
:020216001FD8EF
:020217001FF1D5
:020218001F5570
:020219001F7450
:02021A000029B9
:02021B001E9033
:02021C00006A76
:02021D001FF1CF
:02021E0000825C
:02021F00004F8E
:020220000007D5
:020221001F4C70
:020222001F4972
:020223001E4873
:020224001DF2C9
:020225001F496F
:020226001F4C6B
:020227001E0AAD
:020228001FAF06
:020229001FC1F3
:02022A001F387B
:02022B0000E5EC
:02022C001FD8D9
:02022D00003798
:02022E00001AB4
:02022F00001DB0
:020230000013B9
:020231000027A4
:020232001F901B
:020233001F5F4B
:020234001F8326
:020235001FFAAE
:02023600030DB6
:020237000015B0
:02023800006262
:020239001F9410
:02023A000016AC
:02023B0000DEE3
:02023C000000C0
:02023D00003E81
:02023E00004579
:02023F00007C41
:02024000001AA2
:02024100024475
:02024200004F6B
:020243001FBAE0
:020244001FE7B2
:020245001FBFD9
:020246001E6236
:020247001FE2B4
:0202480000B5FF
:020249001E2471
:02024A0000139F
:02024B00005B56
:02024C001FCFC2
:02024D0000E5CA
:02024E001FDDB2
:02024F00001B92
:020250001FB6D7
:020251001FA3E9
:02025200003476
:020253001FC8C2
:02025400008028
:02025500017D29
:02025600006A3C
:02025700004362
:020258001FF98C
:020259001FDCA8
:02025A00005C46
:02025B001F661C
:02025C001FEA97
:02025D001F9FE1
:02025E001F94EB
:02025F0000326B
:02026000018B10
:020261001F90EC
:020262001FC0BB
:020263001FF882
:02026400003167
:020265001FC1B7
:020266001FEF88
:020267001FAACC
:020268001FBBBA
:020269001F591B
:02026A001FDF94
:02026B001FB2C0
:02026C001F4B26
:02026D001F016F
:02026E001FFC73
:02026F0000612C
:02027000005735
:02027100005239
:020272001F8BE0
:02027300000E7B
:0202740000E99F
:020275001E80E9
:0202760000483E
:0202770003A7DB
:020278001D1354
:020279001EE283
:02027A00003E44
:02027B00001B66
:02027C001FBFA2
:02027D0000354A
:02027E00003549
:02027F001F5D01
:02028000003D3F
:020281001FACB0
:020282001FA5B6
:020283001FE07A
:02028400003E3A
:020285001F7FD9
:020286001F82D5
:020287001FC195
:020288000090E4
:020289001FB79D
:02028A001FF360
:02028B00004031
:02028C00007AF6
:02028D00000C63
:02028E00015B12
:02028F001F103E
:0202900000B7B5
:0202910000A5C6
:02029200009AD0
:0202930000F871
:020294001FAF9A
:020295001D59F1
:02029600011A4B
:02029700002E37
:0202980000065E
:0202990001461C
:02029A001F162D
:02029B00001E43
:02029C001FB78A
:02029D000183DB
:02029E00001648
:02029F00001C41
:0202A000008DCF
:0202A1001F2C10
:0202A2001EE557
:0202A3001FEA50
:0202A40001183F
:0202A5001EEE4B
:0202A6001FAA8D
:0202A700005302
:0202A8001F40F5
:0202A900030050
:0202AA001F4FE4
:0202AB00005100
:0202AC0000212F
:0202AD00006FE0
:0202AE001E89A7
:0202AF001FCD61
:0202B000003C10
:0202B1000077D4
:0202B200002327
:0202B3001F200A
:0202B4001FC465
:0202B5000066E1
:0202B60000BE88
:0202B7000048FD
:0202B800029CA6
:0202B90000350E
:0202BA001FC063
:0202BB000149F7
:0202BC000090B0
:0202BD000087B8
:0202BE0000310D
:0202BF0000B08D
:0202C000007CC0
:0202C1000091AA
:0202C2001FC556
:0202C300003306
:0202C40000290F
:0202C5000076C1
:0202C600000234
:0202C70000C66F
:0202C8000084B0
:0202C9000088AB
:0202CA00001A18
:0202CB001FE929
:0202CC000034FC
:0202CD00001817
:0202CE00000A24
:0202CF001FBB53
:0202D0000073B9
:0202D100002A01
:0202D200002802
:0202D300006ABF
:0202D4001F9871
:0202D5001FF216
:0202D600002501
:0202D7000056CF
:0202D8001F2FD6
:0202D9001F0103
:0202DA001F798A
:0202DB001F679B
:0202DC0001FC23
:0202DD001FDC24
:0202DE001F0BF4
:0202DF00001904
:0202E0001FB845
:0202E1000048D3
:0202E200001505
:0202E3001FD525
:0202E4000357BE
:0202E5001F9464
:0202E60000F125
:0202E7001FD125
:0202E80000BC58
:0202E9001FA351
:0202EA001FDF14
:0202EB00000E03
:0202EC0000CA46
:0202ED00000E01
:0202EE001F826D
:0202EF000162AA
:0202F0001DD11E
:0202F1001FE903
:0202F2001FB734
:0202F3001FAF3B
:0202F4001F15D4
:0202F5001EAC3D
:0202F6001F24C3
:0202F7001FDE08
:0202F80000E222
:0202F9001EEDF8
:0202FA001F9F44
:0202FB000016EB
:0202FC000057A9
:0202FD001F9C44
:0202FE001FB02F
:0202FF001F26B8
:02030000001DDE
:020301001FA437
:020302001EAF2C
:020303000218DE
:02030400003ABD
:02030500001ADC
:020306001F4492
:0203070000EC08
:020308001FE8EC
:020309001F2BA8
:02030A0000BE33
:02030B00001ED2
:02030C00005897
:02030D001FB718
:02030E001F6866
:02030F001FFFCE
:02031000006685
:020311000026C4
:02031200008465
:020313001FE7E2
:0203140000D215
:020315001F9433
:020316001FC105
:02031700004F95
:0203180000895A
:0203190000766C
:02031A000000E1
:02031B001F378A
:02031C000139A5
:02031D0000617D
:02031E00000FCE
:02031F001E922C
:020320001FC3F9
:020321001FD3E8
:02032200018355
:0203230008CE02
:0203240000A92E
:02032500006571
:0203260000D005
:020327001FBBFA
:020328001E0EA7
:020329001FF2C1
:02032A0001DAF6
:02032B00009739
:02032C00002FA0
:02032D001FAE01
:02032E001F8B23
:02032F001FE9C4
:020330001F1D8F
:020331001FC4E7
:020332001FE3C7
:020333001F4861
:020334000107BF
:020335001FC4E3
:0203360000B80D
:020337001FFCA9
:0203380000CAF9
:0203390000774B
:02033A00008E33
:02033B001FE7BA
:02033C00003F80
:02033D00000BB3
:02033E001F2579
:02033F001FB2EB
:020340001F1E7E
:0203410000E6D4
:020342001F9FFB
:020343000007B1
:020344001F6632
:020345001F9EF9
:02034600007045
:0203470001D9DA
:020348001FA5EF
:0203490000367C
:02034A001FF1A1
:02034B001FF69B
:02034C00000DA2
:02034D00009A14
:02034E001FC8C6
:02034F001FF598
:020350001F6329
:020351001F7219
:02035200005F4A
:02035300008F19
:020354001FCABE
:02035500003472
:02035600000E97
:02035700019C07
:020358000000A3
:02035900002F73
:02035A001F6D15
:02035B001FAAD7
:02035C00003C63
:02035D001FEB94
:02035E0000603D
:02035F001F9AE3
:020360001FFD7F
:020361001F5B20
:02036200007326
:0203630000BBDD
:0203640000A2F5
:0203650000CEC8
:020366001FBABC
:0203670001484B
:02036800019002
:020369001FC1B2
:02036A001FC2B0
:02036B001FBDB4
:02036C001F95DB
:02036D0000246A
:02036E001F92DC
:02036F00001F6D
:020370001FBFAD
:02037100005535
:02037200015E2A
:02037300006127
:020374001F6008
:020375001EC1A7
:020376001FBBAB
:0203770001E69D
:02037800027F02
:020379001F441F
:02037A001FD68C
:02037B000188F7
:02037C00003847
:02037D00000975
:02037E000088F5
:02037F001F78E5
:02038000000B70
:020381001EF369
:02038200000871
:02038300005B1D
:020384001F1543
:02038500001B5B
:02038600003243
:020387001FDF76
:020388000096DD
:020389001991C8
:02038A001FA6AC
:02038B001FCB86
:02038C001FCC84
:02038D00005816
:02038E0000303D
:02038F001FB09D
:02039000010763
:0203910001BEAB
:020392001F75D5
:020393001FF158
:020394001FD474
:020395001FD176
:02039600006AFB
:02039700001153
:020398001F3D07
:02039900000161
:02039A0001D888
:02039B0000411F
:02039C0000E778
:02039D001FD56A
:02039E0001FC60
:02039F001FEA53
:0203A00000302B
:0203A1001F50EB
:0203A2001F79C1
:0203A3001FA990
:0203A4001FCE6A
:0203A5001FBB7C
:0203A6001FF640
:0203A7001F48ED
:0203A800009FB4
:0203A900001B37
:0203AA001FBD75
:0203AB00001937
:0203AC0000BB94
:0203AD0000103E
:0203AE0000004D
:0203AF00001D2F
:0203B0001F34F8
:0203B1001F9A91
:0203B200007ECB
:0203B30000BD8B
:0203B4001FF335
:0203B5001F9D8A
:0203B600003114
:0203B70000350F
:0203B80000F251
:0203B9001F58CB
:0203BA001EA87B
:0203BB0000B68A
:0203BC000064DB
:0203BD001FEF30
:0203BE000064D9
:0203BF001EA47A
:0203C0000059E2
:0203C1001FBC5F
:0203C2000085B4
:0203C300000A2E
:0203C40000E255
:0203C5001E4DCB
:0203C6001FE036
:0203C7000135FE
:0203C8001E8491
:0203C90000CA68
:0203CA001FD042
:0203CB00015FD0
:0203CC00014BE3
:0203CD001F7699
:0203CE00003FEE
:0203CF0000E04C
:0203D0000057D4
:0203D10000200A
:0203D2001F67A3
:0203D300028C9A
:0203D4001EE623
:0203D5001F7691
:0203D6001EFD0A
:0203D700001E06
:0203D8001FD92B
:0203D9001DE91C
:0203DA0000EB36
:0203DB001FE31E
:0203DC00007FA0
:0203DD0000928C
:0203DE001F7F7F
:0203DF001FB14C
:0203E0001FE319
:0203E1000021F9
:0203E2001F4EAC
:0203E300006CAC
:0203E400008394
:0203E5001ED91F
:0203E600008095
:0203E7001FFFF6
:0203E800000B08
:0203E90000868C
:0203EA001FC52D
:0203EB00009B75
:0203EC00000B04
:0203ED001F5699
:0203EE001F9B53
:0203EF000029E3
:0203F0001FAB41
:0203F100005BAF
:0203F2001F6882
:0203F3001FD514
:0203F40000E324
:0203F5000058AE
:0203F600000005
:0203F700003BC9
:0203F80001B949
:0203F90000936F
:0203FA001FF0F2
:0203FB000055AB
:0203FC001F865A
:0203FD00006A94
:0203FE00002BD2
:0203FF000023D9
:020400000057A3
:020401000131C7
:020402000013E5
:020403000007F0
:020404000004F2
:02040500007382
:020406001F7B5A
:02040700005C97
:020408001FA82B
:02040900001FD2
:02040A00003BB5
:02040B0000727D
:02040C000017D7
:02040D001FD8F6
:02040E001FF0DD
:02040F001FA428
:020410001F5E6D
:020411001FB911
:020412000024C4
:020413001FE0E8
:02041400006E78
:020415001FAC1A
:020416001EDAEC
:020417001F9232
:020418001F3E85
:020419001E4281
:02041A000037A9
:02041B001FE5DB
:02041C001FF0CF
:02041D001F6658
:02041E000023B9
:02041F001F7D3F
:0204200000EFEB
:020421001F5961
:020422001FAF0A
:020423001FEECA
:02042400004492
:020425000026AF
:020426001FB005
:02042700002CA7
:02042800009B37
:0204290000438E
:02042A001FAF02
:02042B00002DA2
:02042C000015B9
:02042D001FD3DB
:02042E001FD5D8
:02042F0001AF1B
:0204300000E0EA
:02043100004881
:020432001F8128
:020433001F1692
:020434001FD2D5
:02043500007D48
:020436000007BD
:02043700002E95
:02043800014D74
:0204390000DBE6
:02043A001F9E03
:02043B00001BA4
:02043C001F7C23
:02043D00009B22
:02043E00003F7D
:02043F001F4B51
:020440001FA2F9
:02044100004F6A
:0204420001A90E
:020443001FB3E5
:02044400009E18
:02044500005D58
:020446001F8015
:0204470000278C
:020448001F375C
:020449001F5F33
:02044A0000C4EC
:02044B0000D2DD
:02044C00003A74
:02044D001E8906
:02044E00001A92
:02044F00009219
:0204500000CFDB
:020451001FC5C5
:020452001F6227
:020453001F5B2D
:02045400006145
:02045500002382
:020456001DE0A7
:0204570000287B
:0204580000148E
:020459001F067C
:02045A001FFF82
:02045B00000D92
:02045C00005648
:02045D00001E7F
:02045E00006537
:02045F001F6F0D
:02046000005149
:02046100003D5C
:020462001FA2D7
:020463001FB4C4
:02046400073659
:02046500003065
:020466001F9BDA
:020467001F492B
:020468001FC5AE
:020469001F9CD6
:02046A00005E32
:02046B001F9AD6
:02046C0000048A
:02046D00003F4E
:02046E001F93DA
:02046F00000586
:020470001FFE6D
:020471001F7EEC
:020472001FEC7D
:02047300007F08
:020474001F77F0
:02047500003154
:020476001F72F3
:0204770000285B
:0204780000F48E
:020479001EF56E
:02047A001E84DE
:02047B001F5808
:02047C00005727
:02047D001F98C6
:02047E001F5805
:02047F001FB8A4
:02048000002456
:020481001FD189
:020482001FE277
:02048300000374
:020484001F83D4
:020485001FB3A3
:020486001FDF76
:020487001F72E2
:02048800004D25
:020489001FB39F
:02048A001E94BE
:02048B00001C53
:02048C001F8DC2
:02048D001FFF4F
:02048E001E4509
:02048F0000412A
:02049000002347
:020491001F99B1
:020492001FC980
:020493001FE167
:02049400012540
:020495001FC97D
:02049600000C58
:020497001F3014
:020498001FDC67
:02049900036DF1
:02049A00003927
:02049B0000AEB1
:02049C0000510D
:02049D001F77C7
:02049E00010457
:02049F00005902
:0204A0001EBF7D
:0204A100003A1F
:0204A2001EED4D
:0204A30002163F
:0204A4001F43F4
:0204A5001F86B0
:0204A6001FFF36
:0204A7001FA58F
:0204A8001FFA39
:0204A900003120
:0204AA000063ED
:0204AB001F3FF1
:0204AC001F9B94
:0204AD000059F4
:0204AE00030247
:0204AF001EC26B
:0204B0001F39F2
:0204B1001FBA70
:0204B2001FF534
:0204B3001E6CBD
:0204B4001FA780
:0204B50000FA4B
:0204B6001F9C89
:0204B700008AB9
:0204B800009CA6
:0204B9001FAE74
:0204BA000065DB
:0204BB001F9D83
:0204BC001F948B
:0204BD001FF22C
:0204BE0001B685
:0204BF0000B883
:0204C00000B585
:0204C100000435
:0204C200012413
:0204C3000092A5
:0204C4001FAB6C
:0204C50006CD62
:0204C600002E06
:0204C7001FC252
:0204C8001FC251
:0204C9001FB35F
:0204CA001FF31E
:0204CB00017DB1
:0204CC001FCD42
:0204CD001F927C
:0204CE001FA06D
:0204CF001FC646
:0204D0000073B7
:0204D10000D059
:0204D200002FF9
:0204D3001FC444
:0204D40003A77C
:0204D50001C65E
:0204D600000D17
:0204D700015DC5
:0204D800005AC8
:0204D9001FC042
:0204DA00054CCF
:0204DB000024FB
:0204DC0000BC62
:0204DD001F6698
:0204DE001EB14D
:0204DF00037B9D
:0204E000003CDE
:0204E10000D643
:0204E2000025F3
:0204E3000020F7
:0204E4001F9661
:0204E5001FF402
:0204E60000EA2A
:0204E7001FE70D
:0204E8001F5B98
:0204E9001FAD45
:0204EA001FBA37
:0204EB001F9D53
:0204EC0000E826
:0204ED0000010C
:0204EE000028E4
:0204EF001F29C3
:0204F0001FC823
:0204F1001F8466
:0204F2001B32BB
:0204F3001F6D7B
:0204F4001F1FC8
:0204F500008A7B
:0204F6001FDF06
:0204F7001FEAFA
:0204F800000CF6
:0204F90000DB26
:0204FA001DFFE4
:0204FB00017B83
:0204FC00009D61
:0204FD001FF8E6
:0204FE000027D5
:0204FF00006299
:020500001FB723
:020501001FD504
:020502001FE3F5
:02050300006294
:020504001FB521
:020505000040B4
:020506001F399B
:02050700001BD7
:020508000028C9
:02050900003CB4
:02050A00018D61
:02050B0000C529
:02050C000028C5
:02050D001F5D70
:02050E00005D8E
:02050F00001BCF
:0205100000F4F5
:02051100001CCC
:020512000040A7
:020513001F3592
:0205140000D60F
:02051500005B89
:0205160000A83B
:020517001FA81B
:020518001EAD16
:020519000022BE
:02051A0001439B
:02051B001E8F31
:02051C001F8935
:02051D00001CC0
:02051E001FDFDD
:02051F0000508A
:020520001FC4F6
:02052100006771
:020522001FC0F8
:0205230000785E
:020524001FDED8
:02052500006470
:020526001F763E
:020527001FF8BB
:02052800007C55
:020529000010C0
:02052A0000715E
:02052B000020AE
:02052C0000B419
:02052D001F7C31
:02052E00005576
:02052F00006763
:02053000001AAF
:020531001F1198
:02053200008245
:020533001F8423
:02053400003D88
:020535001F386D
:0205360001546E
:02053700006161
:0205380000437E
:020539001FD0D1
:02053A000000BF
:02053B00004E70
:02053C001FD7C7
:02053D001FC7D6
:02053E001E5A43
:02053F001E7923
:020540001F5743
:020541000009AF
:0205420001B7FF
:02054300000DA9
:0205440000773E
:02054500002E86
:020546001FCFC5
:020547001FCCC7
:0205480000644D
:0205490000BCF4
:02054A001F91FF
:02054B0000A40A
:02054C00005E4F
:02054D001F9FEE
:02054E00013D6D
:02054F001FCAC1
:020550001FA8E2
:020551001EDCAE
:020552001FEA9E
:02055300006D39
:020554001F5F27
:02055500006A3A
:0205560000C8DB
:0205570000970B
:0205580001435D
:0205590000762A
:02055A00001986
:02055B001EF38D
:02055C001EE699
:02055D001E235B
:02055E001FFB81
:02055F001F4A31
:0205600000D1C8
:020561001F7FFA
:02056200005641
:020563001DCAAF
:0205640000D5C0
:02056500006A2A
:020566001FCFA5
:020567001F9DD6
:020568001F99D9
:0205690000335D
:02056A0000EAA5
:02056B0000444A
:02056C001FA3CB
:02056D0000008C
:02056E001FE18B
:02056F00018108
:020570001F0169
:02057100004741
:020572001FA6C2
:020573001FD691
:020574001FDA8C
:020575001F8ADB
:020576001FAABA
:020577001F69FA
:02057800002B56
:02057900029EE0
:02057A000184FA
:02057B000090EE
:02057C00003449
:02057D00023941
:02057E0000304B
:02057F001FD883
:020580001FE872
:020581001FFB5E
:020582000084F3
:020583001FC790
:02058400000471
:02058500000074
:020586001FFF55
:02058700001062
:02058800003A37
:020589001F1E33
:02058A00017FEF
:02058B00006D01
:02058C00000F5E
:02058D001F7ECF
:02058E001FA4A8
:02058F00006703
:020590001F81C9
:020591001F94B5
:020592001FC880
:020593001EFF49
:020594001F49FD
:020595001FAD98
:020596001FE064
:0205970000233F
:020598001F91B1
:020599001FBD84
:02059A001FC878
:02059B000077E7
:02059C000099C4
:02059D001F9AA3
:02059E001EFB42
:02059F001FDA61
:0205A0001FFD3D
:0205A1001FA792
:0205A2001FB781
:0205A3001F9B9C
:0205A4000283D0
:0205A500011A39
:0205A6001FD361
:0205A7001FC86B
:0205A8001F82B0
:0205A9000057F9
:0205AA00017DD1
:0205AB000079D5
:0205AC0000004D
:0205AD001F54D9
:0205AE001FA488
:0205AF001FCC5F
:0205B0000072D7
:0205B1001F8F9A
:0205B2001FE741
:0205B3001FAD7A
:0205B4001FCE58
:0205B5001F5BCA
:0205B6000079CA
:0205B700001C26
:0205B8000042FF
:0205B90000CD73
:0205BA00000837
:0205BB000066D8
:0205BC001FC05E
:0205BD000098A4
:0205BE001EBC61
:0205BF001FBA61
:0205C0000086B3
:0205C1001E1FFB
:0205C20001ED49
:0205C300001125
:0205C4001ED740
:0205C50002D55D
:0205C600002211
:0205C7001FCB48
:0205C800004DE4
:0205C9000057D9
:0205CA0001032B
:0205CB001F7C93
:0205CC001FA06E
:0205CD00004CE0
:0205CE00007FAC
:0205CF001FD338
:0205D0001FCC3E
:0205D1001FCC3D
:0205D20001190D
:0205D300001511
:0205D4001F62A4
:0205D50000190B
:0205D60002CD54
:0205D70001DC45
:0205D8001FA260
:0205D9001F2ED3
:0205DA00039884
:0205DB000026F8
:0205DC001E1BE4
:0205DD00009A82
:0205DE00005AC1
:0205DF001F6C8F
:0205E0001DE418
:0205E1001F56A3
:0205E2001F797F
:0205E3000040D6
:0205E4001F5F97
:0205E5001EEB0B
:0205E6001F9361
:0205E70000A36F
:0205E800019C74
:0205E9001EB53D
:0205EA001FA947
:0205EB001FD51A
:0205EC0000030A
:0205ED00000EFE
:0205EE00004DBE
:0205EF001F9853
:0205F0001FF0FA
:0205F1001FFDEC
:0205F2001F36B2
:0205F300002FD7
:0205F400008D78
:0205F5001FDF06
:0205F6001FA53F
:0205F7001F8261
:0205F80000B34E
:0205F90000B050
:0205FA00006F90
:0205FB000026D8
:0205FC0001827A
:0205FD0002B941
:0205FE001F3F9D
:0205FF0001CA2F
:020600001FC613
:02060100008B6C
:0206020000589E
:0206030000599C
:020604000151A2
:02060500015A98
:020606001F1FB4
:020607001EF7DC
:020608001FA32E
:0206090000E00F
:02060A000000EE
:02060B0001925A
:02060C001FE3EA
:02060D0000CD1E
:02060E001FE9E2
:02060F000039B0
:02061000005791
:020611001F893F
:020612000001E5
:020613000007DE
:020614000023C1
:020615000104DE
:020616001F8E35
:0206170000C819
:020618001F8839
:0206190001FCE2
:02061A000020BE
:02061B00007C61
:02061C00006775
:02061D000029B2
:02061E001FBCFF
:02061F001FF5C5
:0206200000AD2B
:020621001F3A7E
:02062200007660
:020623001F5C5A
:020624001F585D
:020625000030A3
:020626001FA90A
:020627001F9F13
:02062800004987
:020629001F4E62
:02062A001FDBD4
:02062B0000C20B
:02062C001FC6E7
:02062D00000FBC
:02062E00000EBC
:02062F001F8921
:020630001FE6C3
:020631001F8523
:020632000020A6
:020633000024A1
:0206340001893A
:020635001F7A2A
:020636001FCAD9
:02063700003E83
:0206380000318F
:020639001EC8D9
:02063A001FCFD0
:02063B00005964
:02063C001FF5A8
:02063D001F3963
:02063E001FD6C5
:02063F001FE5B5
:02064000002395
:02064100005166
:02064200005A5C
:020643001F2B6B
:02064400005064
:02064500005E55
:020646001FC3D0
:020647001F345E
:020648001EE5AD
:0206490000139C
:02064A001F7619
:02064B001FBED0
:02064C001F335A
:02064D0000E9C2
:02064E0000A703
:02064F001FF496
:020650001F7B0E
:02065100019313
:020652001F6423
:020653001F4442
:020654001E176F
:020655001E1372
:02065600012180
:0206570000227F
:02065800005D43
:0206590000029D
:02065A00008D11
:02065B001FEE90
:02065C0000603C
:02065D00003467
:02065E001FD2A9
:02065F001F5624
:020660001E82F8
:020661001F91E7
:020662001FA7D0
:020663001FD99D
:02066400011C77
:02066500007F14
:020666001F353E
:020667001FADC5
:020668001FC2AF
:020669001F313F
:02066A001FACC3
:02066B001F82EC
:02066C001FEE7F
:02066D001F4527
:02066E00004446
:02066F00000D7C
:02067000006424
:020671001EBAAF
:0206720000B6D0
:020673001DFF69
:0206740000493B
:02067500004E35
:0206760000A3DF
:0206770000374A
:0206780000423E
:02067900002D52
:02067A0000A0DE
:02067B001FD985
:02067C0000720A
:02067D001FA0BC
:02067E00006E0C
:02067F00000178
:020680001F5801
:02068100001B5C
:0206820000C4B2
:020683001FF462
:020684001FDD78
:020685001FE272
:020686001FF95A
:020687001E9FB4
:0206880000BFB1
:0206890000006F
:02068A001FBE91
:02068B0000BBB2
:02068C001F90BD
:02068D001F8FBD
:02068E00001F4B
:02068F001FFE4C
:0206900001C4A3
:0206910001194D
:0206920000075F
:0206930003134F
:020694000284DE
:020695001F360E
:0206960000D48E
:0206970000CC95
:020698001F52EF
:020699001F67D9
:02069A001F68D7
:02069B00003924
:02069C001FFF3E
:02069D000083D8
:02069E001FEF4C
:02069F00002831
:0206A000017ED9
:0206A100004611
:0206A200002234
:0206A3001FC76F
:0206A4001FE154
:0206A5000072E1
:0206A6001FB380
:0206A7001FB47E
:0206A8001F6BC6
:0206A9000084CB
:0206AA0000F45A
:0206AB00002825
:0206AC001F70BD
:0206AD00000B40
:0206AE00002129
:0206AF00016CDC
:0206B0001F85A4
:0206B1001FA781
:0206B200009AAC
:0206B300000B3A
:0206B4001FD550
:0206B50002132E
:0206B6001FB86B
:0206B7001EC55E
:0206B8001FB26F
:0206B9001F2FF1
:0206BA00000836
:0206BB000068D5
:0206BC001F9F7E
:0206BD001FE636
:0206BE001F66B5
:0206BF000376C0
:0206C0001FCA4F
:0206C100012313
:0206C20000E551
:0206C30000A590
:0206C400010231
:0206C500002A09
:0206C600010031
:0206C7001F5FB3
:0206C8001FEA27
:0206C90001B975
:0206CA000045E9
:0206CB00007FAE
:0206CC001FA26B
:0206CD001FD339
:0206CE001FED1E
:0206CF001FB951
:0206D000004DDB
:0206D100001D0A
:0206D200004DD9
:0206D300007FA6
:0206D4000055CF
:0206D500002EF5
:0206D6001F17EC
:0206D7000127F9
:0206D8001FAF52
:0206D9001FBC44
:0206DA001F5DA2
:0206DB00006EAF
:0206DC001FF00D
:0206DD00005DBE
:0206DE001EE616
:0206DF0000B069
:0206E0000023F5
:0206E100003BDC
:0206E2001FD126
:0206E3001E3FB8
:0206E40000B95B
:0206E5001F9262
:0206E6000049C9
:0206E70000CE43
:0206E8001F866B
:0206E900009B74
:0206EA0002F814
:0206EB001FF0FE
:0206EC000029E3
:0206ED001FD11B
:0206EE001FE605
:0206EF00002BDE
:0206F0001FAD3C
:0206F1000009FE
:0206F2001FFAED
:0206F3000023E2
:0206F4001F9D48
:0206F5000130D2
:0206F6000045BD
:0206F7001F9C46
:0206F800007B85
:0206F9000031CE
:0206FA0001639A
:0206FB001F538B
:0206FC001FF6E7
:0206FD001F18C4
:0206FE0000609A
:0206FF001FAB2F
:02070000001DDA
:0207010005777A
:020702000019DC
:0207030000856F
:020704000000F3
:020705000002F0
:0207060000DF12
:020707001FD7FA
:020708001FB31D
:020709001FEBE4
:02070A001FD4FA
:02070B001F3499
:02070C000031BA
:02070D001FF7D4
:02070E00000CDD
:02070F000010D8
:020710001FE2E6
:0207110000D412
:02071200004B9A
:0207130002CC16
:0207140000DD06
:020715001AE0E8
:020716001F9230
:02071700013DA2
:0207180000617E
:02071900002FAF
:02071A00008558
:02071B001F4B72
:02071C001F11AB
:02071D00004F8B
:02071E001F4971
:02071F001F09B0
:02072000002FA8
:02072100007264
:02072200010BC9
:020723000027AD
:02072400000AC9
:02072500008250
:0207260000874A
:0207270000C20E
:020728001FB000
:020729001F208F
:02072A001FA40A
:02072B0001B615
:02072C001F6B41
:02072D00003991
:02072E00005574
:02072F0000C9FF
:02073000009433
:0207310000A81E
:02073200004085
:020733001FBEE7
:020734001FF4B0
:020735001DCCD9
:020736001FD9C9
:020737001F9B06
:020738001DC5DD
:020739001EB0F0
:02073A00000FAE
:02073B001FE5B8
:02073C001FBFDD
:02073D001F306B
:02073E00004475
:02073F00004177
:02074000000EA9
:020741001EA0F8
:0207420000872E
:020743001FF0A5
:020744001F9EF6
:0207450000238F
:020746001F8F03
:020747001CE4B0
:020748001E434E
:020749001FB1DE
:02074A00000CA1
:02074B0000F2BA
:02074C001F226A
:02074D001F5F2C
:02074E00015157
:02074F001FE2A7
:02075000001E89
:02075100001C8A
:020752001FC1C5
:020753001FF590
:020754001EDFA6
:020755001FD1B2
:0207560000029F
:020757001F6918
:020758001F7B05
:020759001ECEB2
:02075A0000A9F4
:02075B001F8AF3
:02075C0000BDDE
:02075D00041185
:02075E00000990
:02075F001EADCD
:020760001FD2A6
:020761001DF089
:02076200009DF8
:0207630001A1F2
:020764001FB2C2
:020765001F086B
:0207660000652C
:02076700006D23
:02076800003D52
:02076900006B23
:02076A001F6707
:02076B001FEB82
:02076C00004843
:02076D001F75F6
:02076E001FBFAB
:02076F00005038
:020770001E5811
:020771001FB2B5
:020772001FCC9A
:020773001FBEA7
:020774001DF670
:02077500004E34
:020776000085FC
:0207770000265A
:0207780000146B
:0207790000A9D5
:02077A001EC897
:02077B001ED688
:02077C0000F487
:02077D00005327
:02077E001EB8A3
:02077F001FB7A2
:02078000002E49
:020781001F98BF
:020782001FFD59
:020783001FC590
:02078400002350
:0207850000E092
:020786001E450E
:02078700005E12
:02078800000B64
:020789001FF857
:02078A001FA4AA
:02078B00015417
:02078C001FE567
:02078D00013930
:02078E00001653
:02078F001FD673
:020790000071F6
:020791001FA1A6
:020792001F1D29
:020793001F5AEB
:020794001FE262
:0207950000451D
:020796001F69D9
:020797001FB091
:020798001FA0A0
:020799001F4FF0
:02079A001FA698
:02079B00004319
:02079C001F7AC2
:02079D00012435
:02079E00000356
:02079F001FDE5B
:0207A0001FBA7E
:0207A1001FB483
:0207A2001FDB5B
:0207A300004B09
:0207A4001F3202
:0207A5001FA093
:0207A6001F91A1
:0207A700001A36
:0207A800005FF0
:0207A900003519
:0207AA001FE549
:0207AB001FA489
:0207AC001EFB32
:0207AD001F34F7
:0207AE00001B2E
:0207AF001F1C0D
:0207B000051C26
:0207B100014BFA
:0207B2001FC363
:0207B30000BF85
:0207B40000182B
:0207B5001F74AF
:0207B6001F71B1
:0207B700000C34
:0207B8001FC759
:0207B9001FE53A
:0207BA001F28F6
:0207BB001FF825
:0207BC00004BF0
:0207BD00003307
:0207BE00003405
:0207BF001FB762
:0207C000000730
:0207C1001FC453
:0207C2001FC353
:0207C300003BF9
:0207C4001FD440
:0207C5001FDB38
:0207C60000121F
:0207C7000060D0
:0207C8000082AD
:0207C9001FB55A
:0207CA000050DD
:0207CB00069591
:0207CC001F56B6
:0207CD001FD635
:0207CE000032F7
:0207CF001FDD2C
:0207D0000042E5
:0207D1001FD631
:0207D2001FCE38
:0207D3001F32D3
:0207D40000CA59
:0207D5001F58AB
:0207D60000041D
:0207D7001F33CE
:0207D8001FDD23
:0207D9001F33CC
:0207DA0001A27A
:0207DB001FC637
:0207DC00002AF1
:0207DD001FD02B
:0207DE000127F1
:0207DF001FB346
:0207E0001FED0B
:0207E1001F12E5
:0207E200000411
:0207E3001F36BF
:0207E4001E19DC
:0207E5001FB63D
:0207E6001FE012
:0207E70000D43C
:0207E8000111FD
:0207E9001FC827
:0207EA001FB836
:0207EB001F5499
:0207EC001FC923
:0207ED001FD318
:0207EE001E09E2
:0207EF0000C345
:0207F000008285
:0207F1000011F5
:0207F2001F05E1
:0207F3001FF5F0
:0207F4001EE8FD
:0207F50001A859
:0207F6000040C1
:0207F7001FD809
:0207F8001FDC04
:0207F9001EFBE5
:0207FA00009F5E
:0207FB001F5D80
:0207FC0000CE2D
:0207FD0000BD3D
:0207FE0000FEFB
:0207FF001EF7E3
:02080000007086
:020801000001F4
:020802001FEFE6
:0208030000C132
:020804000033BF
:0208050000BC35
:02080600032DC0
:020807000044AB
:020808000008E6
:02080900005B92
:02080A001FC805
:02080B001FE1EB
:02080C001FCA01
:02080D0000C821
:02080E00005395
:02080F001FBC0C
:020810001D4B7E
:020811001E3097
:020812001EC204
:020813001FC103
:020814001EF2D2
:020815000022BF
:0208160000914F
:020817001F615F
:020818001FD8E7
:020819001FA21C
:02081A00000CD0
:02081B000035A6
:02081C00003C9E
:02081D001F0AB0
:02081E0000D404
:02081F00006572
:020820001FCFE8
:020821001E6C4B
:0208220001E1F2
:020823001FB301
:020824001F8C27
:0208250000359C
:020826001E238F
:020827001FF1BF
:02082800007F4F
:02082900006766
:02082A001F8D20
:02082B00009536
:02082C001ED8D4
:02082D001F5654
:02082E0000C305
:02082F00010DB9
:0208300000388E
:020831001F8F17
:020832001FBFE6
:02083300012F93
:020834001FFDA6
:02083500004978
:020836001FF6AB
:020837001FDBC5
:0208380000C9F5
:020839001F831B
:02083A00019A21
:02083B00000DAE
:02083C00009129
:02083D000001B8
:02083E00006751
:02083F001FEBAD
:020840000006B0
:020841001FBED8
:020842001F870E
:020843001FFA9A
:020844001F2370
:020845001EF1A2
:0208460000723E
:02084700007639
:020848001FADE2
:0208490000327B
:02084A0000B1FB
:02084B0002FAAF
:02084C00008228
:02084D00003970
:02084E001FE7A2
:02084F001FEA9E
:02085000004462
:02085100006A3B
:020852001F93F2
:020853001FBBC9
:0208540000188A
:020855001FF58D
:020856001F4D34
:0208570000D3CC
:0208580000217D
:020859001F2856
:02085A0000D7C5
:02085B001FCDAF
:02085C00002F6B
:02085D001F9FDB
:02085E001F0475
:02085F001FF97F
:02086000009006
:020861001FB5C1
:020862001F6312
:020863000198FA
:02086400015938
:0208650000A4ED
:0208660000F19F
:02086700026429
:0208680000028C
:020869001F78F6
:02086A00002666
:02086B0000B0DB
:02086C001EEC80
:02086D001B046A
:02086E0000790F
:02086F00002B5C
:020870001F8ADD
:020871001FE97D
:02087200007410
:020873001F8ADA
:0208740000661C
:02087500003150
:020876001F520F
:02087700002A55
:020878001EE57B
:020879001FED71
:02087A001FC796
:02087B001FC29A
:02087C001FD784
:02087D001F302A
:02087E00007DFB
:02087F001FD385
:020880001FE770
:02088100014133
:020882001FD77E
:02088300007FF4
:0208840000A4CE
:0208850000422F
:020886001F460B
:020887001FB69A
:020888001FC788
:020889001F62EC
:02088A000081EB
:02088B001FD478
:02088C00003139
:02088D00012147
:02088E000880E0
:02088F001FC484
:020890001FF750
:0208910000CC99
:020892001F3D08
:020893001E8ABB
:02089400009BC7
:020895001FC181
:020896001FC180
:020897001F152B
:020898001FE857
:020899001EE25D
:02089A001F9AA3
:02089B00004615
:02089C001F4BF0
:02089D0000B4A5
:02089E00004117
:02089F001E85B4
:0208A000012233
:0208A10000EC69
:0208A2001FBD78
:0208A3000062F1
:0208A40000331F
:0208A5001F2210
:0208A6001FCA67
:0208A700001936
:0208A8000076D8
:0208A9001FA688
:0208AA00001537
:0208AB000160EA
:0208AC001FDD4E
:0208AD00001B2E
:0208AE001FE643
:0208AF00002423
:0208B000000D39
:0208B10000A99C
:0208B2001FE540
:0208B300007DC6
:0208B4001FE241
:0208B500016CD4
:0208B600001D23
:0208B7001FB66A
:0208B8001F9788
:0208B90001BF7D
:0208BA001FD24B
:0208BB001F1507
:0208BC0001A495
:0208BD00006ECB
:0208BE001FC950
:0208BF001ADB42
:0208C0000345EE
:0208C1001EE037
:0208C200009A9A
:0208C3001EE134
:0208C40001022F
:0208C50000959C
:0208C600001020
:0208C7001F37D9
:0208C8001EDB35
:0208C9001F65A9
:0208CA001FF419
:0208CB00004FDC
:0208CC00002EFC
:0208CD001F7793
:0208CE000178AF
:0208CF00000F18
:0208D0000034F2
:0208D1001DB652
:0208D2001E7492
:0208D3001FDC28
:0208D4000041E1
:0208D500012000
:0208D6001F659C
:0208D7000841D6
:0208D8001F7A85
:0208D9001F6C92
:0208DA00001B01
:0208DB001FBE3E
:0208DC000022F8
:0208DD001DCD2F
:0208DE0002D442
:0208DF000020F7
:0208E00001C154
:0208E1001F8472
:0208E2001FA253
:0208E3001FF400
:0208E4001F787B
:0208E5000036DB
:0208E600003CD4
:0208E7001FCA26
:0208E8001FBE31
:0208E9001F8A64
:0208EA001E618D
:0208EB00009A71
:0208EC001B6F80
:0208ED00027592
:0208EE00000008
:0208EF001FAC3C
:0208F00000996D
:0208F10000EA1B
:0208F2000014F0
:0208F3001F21C3
:0208F40000679B
:0208F50000639E
:0208F60000936D
:0208F7001E677A
:0208F8000159A4
:0208F9000041BC
:0208FA00008A72
:0208FB001F03D9
:0208FC00011EDB
:0208FD001F8E4C
:0208FE001FCC0D
:0208FF0000589F
:02090000019B59
:02090100006A8A
:0209020000747F
:02090300009E54
:020904001F4290
:020905001F5180
:02090600000FE0
:0209070000AD41
:0209080000509D
:020909000003E9
:02090A001FEFDD
:02090B000045A5
:02090C00009356
:02090D001EDEEC
:02090E001EFECB
:02090F0000796D
:02091000009B4A
:020911001F784D
:020912001F7F45
:020913000004DE
:020914001EDBE8
:020915001EB40E
:020916000012CD
:020917001F546B
:020918001EF4CB
:02091900004A92
:02091A001F2D8F
:02091B001F3F7C
:02091C00004792
:02091D001F9920
:02091E001F5A5E
:02091F001F6651
:020920001FCAEC
:020921000000D4
:020922001FD2E2
:0209230000983A
:02092400000DC4
:020925001FA40D
:02092600005F70
:020927001FC7E8
:02092800001EAF
:020929001FD1DC
:02092A0000D7F4
:02092B0000D7F3
:02092C001FD0DA
:02092D0001883F
:02092E001FBFE9
:02092F00008E38
:02093000008E37
:02093100004282
:020932001F4B59
:020933001FEAB9
:020934001EF3B0
:020935001ED4CE
:0209360000437C
:020937001FDBC4
:020938000018A5
:020939001FFDA0
:02093A0003496F
:02093B001FBBE0
:02093C001FB2E8
:02093D001F9603
:02093E001FA7F1
:02093F001F9EF9
:0209400000C1F4
:020941001F4451
:02094200006C47
:020943001F395A
:020944001FB4DE
:0209450000337D
:020946001FFC94
:020947001F3758
:020948001FB9D5
:020949001FC4C9
:02094A001C5639
:02094B001DF895
:02094C00002A7F
:02094D00001C8C
:02094E0004A4FF
:02094F001C3159
:0209500000FFA6
:02095100001391
:020952001F8FF5
:020953001FBBC8
:020954001F354D
:020955001ECEB4
:0209560000831C
:020957001E7E02
:020958001FC1BD
:020959001FF08D
:02095A00000C8F
:02095B001FD7A4
:02095C001F6218
:02095D00008D0B
:02095E001FED8B
:02095F00000294
:02096000009005
:020961001FA0D5
:020962001FF97B
:020963001FBCB7
:020964000A91F6
:0209650001C1CE
:02096600003758
:020967001FA3CC
:020968001EB1BE
:020969001F2944
:02096A001F99D3
:02096B001F4D1E
:02096C001FB6B4
:02096D00006028
:02096E00008CFB
:02096F0000691D
:020970001F94D2
:0209710000F98B
:02097200025031
:0209730000DAA8
:02097400002E53
:020975001FF76A
:020976001F87D9
:02097700006F0F
:020978001FF26C
:020979001FCD90
:02097A001E95C8
:02097B001FB2A9
:02097C001FBC9E
:02097D00003444
:02097E001FC98F
:02097F00004D29
:020980001FE670
:020981001F9DB8
:020982001F87CD
:0209830000145E
:020984001FE969
:0209850000442C
:02098600009CD3
:020987001F1738
:020988001F242A
:020989001FF657
:02098A0004C1A6
:02098B001E94B8
:02098C001F1A30
:02098D000097D1
:02098E001FDE6A
:02098F001FF750
:020990001EDB6C
:0209910000154F
:020992001FE75D
:02099300003F23
:02099400006AF7
:020995001FCF72
:020996001EEB56
:020997001FC47B
:020998000066F7
:02099900004D0F
:02099A001FA993
:02099B00002634
:02099C0003ACAA
:02099D001F65D4
:02099E001FC96F
:02099F000094C2
:0209A000001B3A
:0209A100018BC8
:0209A2001F6EC6
:0209A300002C26
:0209A40001440C
:0209A5000086CA
:0209A6001F8FA1
:0209A7001FF03F
:0209A800001E2F
:0209A90001CB80
:0209AA001E1A13
:0209AB001F56D5
:0209AC001F8E9C
:0209AD001E002A
:0209AE0003C97B
:0209AF001F889F
:0209B000009AAB
:0209B10001271C
:0209B20000281B
:0209B30000D56D
:0209B4001F4DD5
:0209B5001F63BE
:0209B6001E6CB5
:0209B7001E0D13
:0209B8001E1609
:0209B900007EBE
:0209BA00002C0F
:0209BB0000E852
:0209BC00000435
:0209BD001F8D8C
:0209BE001D71A9
:0209BF00001422
:0209C00000C075
:0209C1000063D1
:0209C200011F13
:0209C30000280A
:0209C4001F1AF8
:0209C50001C16E
:0209C6000055DA
:0209C700008F9F
:0209C80000A38A
:0209C9001FED20
:0209CA00000922
:0209CB000067C3
:0209CC001F7D8D
:0209CD000134F3
:0209CE001FB553
:0209CF001FCC3B
:0209D0001F9472
:0209D100005ACA
:0209D2000258C9
:0209D300000E14
:0209D4000026FB
:0209D5001FDD24
:0209D6001F60A0
:0209D7000065B9
:0209D8001F718D
:0209D9001FB548
:0209DA001FC933
:0209DB00001901
:0209DC001FB545
:0209DD00003ADE
:0209DE001F7B7D
:0209DF001FF601
:0209E0001FFDF9
:0209E10000C252
:0209E2001FE410
:0209E3001F50A3
:0209E4000054BD
:0209E5001FA54C
:0209E60000CC43
:0209E70000FD11
:0209E8001F5599
:0209E9001FF3FA
:0209EA000063A8
:0209EB001FBA31
:0209EC001FF0FA
:0209ED001FC623
:0209EE001FDB0D
:0209EF001E06E2
:0209F0001EB037
:0209F100010CF7
:0209F2001F7F65
:0209F3001EBA2A
:0209F4001FB32F
:0209F5001FECF5
:0209F6001FCE12
:0209F7000005F9
:0209F800007984
:0209F900007389
:0209FA00007C7F
:0209FB001FBA21
:0209FC001EA833
:0209FD00001EDA
:0209FE0000E710
:0209FF001FEBEC
:020A00001FC312
:020A010000E013
:020A02001FB023
:020A03001EEDE6
:020A04001FC60B
:020A0500007A75
:020A060000D41A
:020A070000A845
:020A08001DF2DD
:020A09000009E2
:020A0A00001FCB
:020A0B0000BA2F
:020A0C001EBE0C
:020A0D000020C7
:020A0E001FC9FE
:020A0F0000766F
:020A10001F9035
:020A11001ED6EF
:020A12001FC7FC
:020A130000B130
:020A1400007868
:020A15001F7E42
:020A1600009B43
:020A17001FA519
:020A180000F1EB
:020A1900007F5C
:020A1A00009941
:020A1B001FAB0F
:020A1C001F9821
:020A1D001FE3D5
:020A1E001F3087
:020A1F001FAC0A
:020A2000002BA9
:020A2100008251
:020A22001F9F14
:020A23001FE8CA
:020A240000616F
:020A250000725D
:020A2600003B93
:020A270001BD0F
:020A28001FC7E6
:020A29000010BB
:020A2A001FECBF
:020A2B001EA407
:020A2C000008C0
:020A2D0005D2F0
:020A2E0003883B
:020A2F001FBEE8
:020A30001F3B6A
:020A310000477C
:020A32001F742F
:020A33001FEEB4
:020A34000210AE
:020A3500007C43
:020A360000B40A
:020A3700000CB1
:020A38001F9508
:020A39001F8E0E
:020A3A0000308A
:020A3B000006B3
:020A3C001FF2A7
:020A3D001F7F19
:020A3E001F7D1A
:020A3F00027C37
:020A400001684B
:020A41001FFA9A
:020A420000268C
:020A4300009819
:020A4400014867
:020A45001FFD93
:020A46001FECA3
:020A470001E9C3
:020A48001FEE9F
:020A49001F8705
:020A4A00006D3D
:020A4B0000B5F4
:020A4C001F9DEC
:020A4D00005057
:020A4E00001690
:020A4F001C4A3F
:020A50001F98ED
:020A51001FE69E
:020A5200001092
:020A53001F6E14
:020A54001FC6BB
:020A55001DFB87
:020A5600011984
:020A5700015F3D
:020A5800003F5D
:020A5900014C4E
:020A5A00004B4F
:020A5B001E9FDC
:020A5C0001286F
:020A5D001EC0B9
:020A5E00018C09
:020A5F001F5D19
:020A60001FD99C
:020A6100000192
:020A6200003161
:020A63001FABC7
:020A640000EDA3
:020A650000008F
:020A66001FBAB5
:020A6700007D10
:020A68001FFD70
:020A6900016822
:020A6A001F610A
:020A6B00014840
:020A6C0000A1E7
:020A6D00005433
:020A6E001EEE7A
:020A6F0000BFC6
:020A7000014142
:020A7100010F73
:020A7200007B07
:020A730000463B
:020A740000522E
:020A75000087F8
:020A76001FC49B
:020A77001FD688
:020A78001F8BD2
:020A79001FED6F
:020A7A0005264F
:020A7B001FBB9F
:020A7C001FE277
:020A7D001F86D2
:020A7E001FD285
:020A7F00001362
:020A8000001460
:020A8100031858
:020A820000165C
:020A83001EE96A
:020A84001F71E0
:020A850000145B
:020A86000186E7
:020A87001EFF50
:020A88001D4708
:020A8900002B40
:020A8A001F56F5
:020A8B0002085F
:020A8C00015215
:020A8D00015D09
:020A8E0000E383
:020A8F00001253
:020A900000352F
:020A910000ED76
:020A92001FA3A0
:020A930000C59C
:020A94000069F7
:020A9500001C43
:020A96001F73CC
:020A97000078E5
:020A98001FF746
:020A99001E78C5
:020A9A00004416
:020A9B00006AEF
:020A9C00000157
:020A9D001FE553
:020A9E00004D09
:020A9F00000055
:020AA0001EC86E
:020AA10000CD86
:020AA2001FF53E
:020AA30000420F
:020AA400009AB6
:020AA5001FCE62
:020AA60000ED61
:020AA70000133A
:020AA80000BB91
:020AA9000057F4
:020AAA000282C6
:020AAB001FD654
:020AAC0000093F
:020AAD001FA187
:020AAE001FE443
:020AAF001F74B2
:020AB0001FAA7B
:020AB10000083B
:020AB2001FEF34
:020AB3001FC65C
:020AB4001FDF42
:020AB5001FDA46
:020AB6001F65BA
:020AB70000132A
:020AB8001FEE2F
:020AB900001526
:020ABA001FD942
:020ABB0000B881
:020ABC00003AFE
:020ABD00029E97
:020ABE00000A2C
:020ABF001FF125
:020AC0001F997C
:020AC1001FB163
:020AC200003BF7
:020AC30000D35E
:020AC4001F65AC
:020AC5001F8789
:020AC6001F60AF
:020AC7001F8985
:020AC8001EAA64
:020AC90006B86D
:020ACA0000F535
:020ACB001FB357
:020ACC001FE821
:020ACD001F12F6
:020ACE001FCE39
:020ACF0000BE67
:020AD000000420
:020AD1001E9570
:020AD2001FA261
:020AD30000B071
:020AD400000020
:020AD5000024FB
:020AD6001FB847
:020AD700001904
:020AD800005DBF
:020AD9001FA854
:020ADA0000FC1E
:020ADB001EC13A
:020ADC00002EEA
:020ADD001F9860
:020ADE001F6592
:020ADF000028ED
:020AE0001FC82D
:020AE1000022F1
:020AE2001EDC18
:020AE3000028E9
:020AE40001C24D
:020AE50000907F
:020AE6001E37B9
:020AE7001E2FC0
:020AE8000044C8
:020AE9001FE00C
:020AEA001F7972
:020AEB000033D6
:020AEC001F5495
:020AED000067A0
:020AEE001F9D4A
:020AEF001FCE18
:020AF0001E2EB8
:020AF1001EA540
:020AF2001F9C47
:020AF3001FDC06
:020AF400002DD3
:020AF5001F8858
:020AF600001AE4
:020AF7000039C4
:020AF8001FCA13
:020AF900048C6B
:020AFA001C35A9
:020AFB001E37A4
:020AFC00020BEB
:020AFD001EFFDA
:020AFE000047AF
:020AFF000005F0
:020B0000007083
:020B01001F4E85
:020B0200002DC4
:020B030000559B
:020B04001FA52B
:020B0500008569
:020B06000032BB
:020B07000022CA
:020B0800009952
:020B09001FC704
:020B0A0000E900
:020B0B000014D4
:020B0C001F9C2C
:020B0D001FD2F5
:020B0E00008D58
:020B0F00006381
:020B10001FE0E4
:020B1100008F53
:020B12000012CF
:020B13001EAC16
:020B14001FC7F9
:020B15000005D9
:020B16001FBC02
:020B17001EC6F8
:020B18001C3788
:020B19001E6557
:020B1A000005D4
:020B1B00005A7E
:020B1C001E3485
:020B1D00004393
:020B1E000116BE
:020B1F00004193
:020B20000013C0
:020B2100001BB7
:020B22000013BE
:020B2300000AC6
:020B2400000BC4
:020B25001F852A
:020B2600003A93
:020B27001F09A4
:020B28001FAFFD
:020B2900007F4B
:020B2A00004A7F
:020B2B000004C4
:020B2C001F6A3E
:020B2D00003195
:020B2E00013292
:020B2F001C3F69
:020B3000024180
:020B31000019A9
:020B32001F168C
:020B33001F1E83
:020B34001FA8F8
:020B3500006955
:020B36001FCBD3
:020B37000009B3
:020B3800002497
:020B39001FDCBF
:020B3A000010A9
:020B3B00006652
:020B3C001FE8B0
:020B3D000011A5
:020B3E001F7620
:020B3F0000B6FE
:020B40001F593B
:020B410000A111
:020B42001EE0B3
:020B430000921E
:020B44001F513F
:020B45001FAAE5
:020B46001D7C14
:020B470000208C
:020B480000604B
:020B4900013178
:020B4A001FFE8C
:020B4B001FBECB
:020B4C001F790F
:020B4D0000C7DF
:020B4E0000099C
:020B4F0000B9EB
:020B500001B6EC
:020B51001F5B28
:020B520000821F
:020B53001F156C
:020B5400003768
:020B5500012479
:020B56001FC3BB
:020B57001FD7A6
:020B5800000F8C
:020B5900004258
:020B5A001F5C1E
:020B5B00006E2A
:020B5C0000D6C1
:020B5D001FB2C5
:020B5E001FF185
:020B5F0001365D
:020B60001FA6CE
:020B6100000092
:020B6200000091
:020B6300000090
:020B640000008F
:020B650000008E
:020B660000008D
:020B670000008C
:020B680000008B
:020B690000008A
:020B6A00000089
:020B6B00000088
:020B6C00000087
:020B6D00000086
:020B6E00000085
:020B6F00000084
:020B7000000083
:020B7100000082
:020B7200000081
:020B7300000080
:020B740000007F
:020B750000007E
:020B760000007D
:020B770000007C
:020B780000007B
:020B790000007A
:020B7A00000079
:020B7B00000078
:020B7C00000077
:020B7D00000076
:020B7E00000075
:020B7F00000074
:020B8000000073
:020B8100000072
:020B8200000071
:020B8300000070
:020B840000006F
:020B850000006E
:020B860000006D
:020B870000006C
:020B880000006B
:020B890000006A
:020B8A00000069
:020B8B00000068
:020B8C00000067
:020B8D00000066
:020B8E00000065
:020B8F00000064
:020B9000000063
:020B9100000062
:020B9200000061
:020B9300000060
:020B940000005F
:020B950000005E
:020B960000005D
:020B970000005C
:020B980000005B
:020B990000005A
:020B9A00000059
:020B9B00000058
:020B9C00000057
:020B9D00000056
:020B9E00000055
:020B9F00000054
:020BA000000053
:020BA100000052
:020BA200000051
:020BA300000050
:020BA40000004F
:020BA50000004E
:020BA60000004D
:020BA70000004C
:020BA80000004B
:020BA90000004A
:020BAA00000049
:020BAB00000048
:020BAC00000047
:020BAD00000046
:020BAE00000045
:020BAF00000044
:020BB000000043
:020BB100000042
:020BB200000041
:020BB300000040
:020BB40000003F
:020BB50000003E
:020BB60000003D
:020BB70000003C
:020BB80000003B
:020BB90000003A
:020BBA00000039
:020BBB00000038
:020BBC00000037
:020BBD00000036
:020BBE00000035
:020BBF00000034
:020BC000000033
:020BC100000032
:020BC200000031
:020BC300000030
:020BC40000002F
:020BC50000002E
:020BC60000002D
:020BC70000002C
:020BC80000002B
:020BC90000002A
:020BCA00000029
:020BCB00000028
:020BCC00000027
:020BCD00000026
:020BCE00000025
:020BCF00000024
:020BD000000023
:020BD100000022
:020BD200000021
:020BD300000020
:020BD40000001F
:020BD50000001E
:020BD60000001D
:020BD70000001C
:020BD80000001B
:020BD90000001A
:020BDA00000019
:020BDB00000018
:020BDC00000017
:020BDD00000016
:020BDE00000015
:020BDF00000014
:020BE000000013
:020BE100000012
:020BE200000011
:020BE300000010
:020BE40000000F
:020BE50000000E
:020BE60000000D
:020BE70000000C
:020BE80000000B
:020BE90000000A
:020BEA00000009
:020BEB00000008
:020BEC00000007
:020BED00000006
:020BEE00000005
:020BEF00000004
:020BF000000003
:020BF100000002
:020BF200000001
:020BF300000000
:020BF4000000FF
:020BF5000000FE
:020BF6000000FD
:020BF7000000FC
:020BF8000000FB
:020BF9000000FA
:020BFA000000F9
:020BFB000000F8
:020BFC000000F7
:020BFD000000F6
:020BFE000000F5
:020BFF000000F4
:020C00000000F2
:020C01000000F1
:020C02000000F0
:020C03000000EF
:020C04000000EE
:020C05000000ED
:020C06000000EC
:020C07000000EB
:020C08000000EA
:020C09000000E9
:020C0A000000E8
:020C0B000000E7
:020C0C000000E6
:020C0D000000E5
:020C0E000000E4
:020C0F000000E3
:020C10000000E2
:020C11000000E1
:020C12000000E0
:020C13000000DF
:020C14000000DE
:020C15000000DD
:020C16000000DC
:020C17000000DB
:020C18000000DA
:020C19000000D9
:020C1A000000D8
:020C1B000000D7
:020C1C000000D6
:020C1D000000D5
:020C1E000000D4
:020C1F000000D3
:020C20000000D2
:020C21000000D1
:020C22000000D0
:020C23000000CF
:020C24000000CE
:020C25000000CD
:020C26000000CC
:020C27000000CB
:020C28000000CA
:020C29000000C9
:020C2A000000C8
:020C2B000000C7
:020C2C000000C6
:020C2D000000C5
:020C2E000000C4
:020C2F000000C3
:020C30000000C2
:020C31000000C1
:020C32000000C0
:020C33000000BF
:020C34000000BE
:020C35000000BD
:020C36000000BC
:020C37000000BB
:020C38000000BA
:020C39000000B9
:020C3A000000B8
:020C3B000000B7
:020C3C000000B6
:020C3D000000B5
:020C3E000000B4
:020C3F000000B3
:020C40000000B2
:020C41000000B1
:020C42000000B0
:020C43000000AF
:020C44000000AE
:020C45000000AD
:020C46000000AC
:020C47000000AB
:020C48000000AA
:020C49000000A9
:020C4A000000A8
:020C4B000000A7
:020C4C000000A6
:020C4D000000A5
:020C4E000000A4
:020C4F000000A3
:020C50000000A2
:020C51000000A1
:020C52000000A0
:020C530000009F
:020C540000009E
:020C550000009D
:020C560000009C
:020C570000009B
:020C580000009A
:020C5900000099
:020C5A00000098
:020C5B00000097
:020C5C00000096
:020C5D00000095
:020C5E00000094
:020C5F00000093
:020C6000000092
:020C6100000091
:020C6200000090
:020C630000008F
:020C640000008E
:020C650000008D
:020C660000008C
:020C670000008B
:020C680000008A
:020C6900000089
:020C6A00000088
:020C6B00000087
:020C6C00000086
:020C6D00000085
:020C6E00000084
:020C6F00000083
:020C7000000082
:020C7100000081
:020C7200000080
:020C730000007F
:020C740000007E
:020C750000007D
:020C760000007C
:020C770000007B
:020C780000007A
:020C7900000079
:020C7A00000078
:020C7B00000077
:020C7C00000076
:020C7D00000075
:020C7E00000074
:020C7F00000073
:020C8000000072
:020C8100000071
:020C8200000070
:020C830000006F
:020C840000006E
:020C850000006D
:020C860000006C
:020C870000006B
:020C880000006A
:020C8900000069
:020C8A00000068
:020C8B00000067
:020C8C00000066
:020C8D00000065
:020C8E00000064
:020C8F00000063
:020C9000000062
:020C9100000061
:020C9200000060
:020C930000005F
:020C940000005E
:020C950000005D
:020C960000005C
:020C970000005B
:020C980000005A
:020C9900000059
:020C9A00000058
:020C9B00000057
:020C9C00000056
:020C9D00000055
:020C9E00000054
:020C9F00000053
:020CA000000052
:020CA100000051
:020CA200000050
:020CA30000004F
:020CA40000004E
:020CA50000004D
:020CA60000004C
:020CA70000004B
:020CA80000004A
:020CA900000049
:020CAA00000048
:020CAB00000047
:020CAC00000046
:020CAD00000045
:020CAE00000044
:020CAF00000043
:020CB000000042
:020CB100000041
:020CB200000040
:020CB30000003F
:020CB40000003E
:020CB50000003D
:020CB60000003C
:020CB70000003B
:020CB80000003A
:020CB900000039
:020CBA00000038
:020CBB00000037
:020CBC00000036
:020CBD00000035
:020CBE00000034
:020CBF00000033
:020CC000000032
:020CC100000031
:020CC200000030
:020CC30000002F
:020CC40000002E
:020CC50000002D
:020CC60000002C
:020CC70000002B
:020CC80000002A
:020CC900000029
:020CCA00000028
:020CCB00000027
:020CCC00000026
:020CCD00000025
:020CCE00000024
:020CCF00000023
:020CD000000022
:020CD100000021
:020CD200000020
:020CD30000001F
:020CD40000001E
:020CD50000001D
:020CD60000001C
:020CD70000001B
:020CD80000001A
:020CD900000019
:020CDA00000018
:020CDB00000017
:020CDC00000016
:020CDD00000015
:020CDE00000014
:020CDF00000013
:020CE000000012
:020CE100000011
:020CE200000010
:020CE30000000F
:020CE40000000E
:020CE50000000D
:020CE60000000C
:020CE70000000B
:020CE80000000A
:020CE900000009
:020CEA00000008
:020CEB00000007
:020CEC00000006
:020CED00000005
:020CEE00000004
:020CEF00000003
:020CF000000002
:020CF100000001
:020CF200000000
:020CF3000000FF
:020CF4000000FE
:020CF5000000FD
:020CF6000000FC
:020CF7000000FB
:020CF8000000FA
:020CF9000000F9
:020CFA000000F8
:020CFB000000F7
:020CFC000000F6
:020CFD000000F5
:020CFE000000F4
:020CFF000000F3
:020D00000000F1
:020D01000000F0
:020D02000000EF
:020D03000000EE
:020D04000000ED
:020D05000000EC
:020D06000000EB
:020D07000000EA
:020D08000000E9
:020D09000000E8
:020D0A000000E7
:020D0B000000E6
:020D0C000000E5
:020D0D000000E4
:020D0E000000E3
:020D0F000000E2
:020D10000000E1
:020D11000000E0
:020D12000000DF
:020D13000000DE
:020D14000000DD
:020D15000000DC
:020D16000000DB
:020D17000000DA
:020D18000000D9
:020D19000000D8
:020D1A000000D7
:020D1B000000D6
:020D1C000000D5
:020D1D000000D4
:020D1E000000D3
:020D1F000000D2
:020D20000000D1
:020D21000000D0
:020D22000000CF
:020D23000000CE
:020D24000000CD
:020D25000000CC
:020D26000000CB
:020D27000000CA
:020D28000000C9
:020D29000000C8
:020D2A000000C7
:020D2B000000C6
:020D2C000000C5
:020D2D000000C4
:020D2E000000C3
:020D2F000000C2
:020D30000000C1
:020D31000000C0
:020D32000000BF
:020D33000000BE
:020D34000000BD
:020D35000000BC
:020D36000000BB
:020D37000000BA
:020D38000000B9
:020D39000000B8
:020D3A000000B7
:020D3B000000B6
:020D3C000000B5
:020D3D000000B4
:020D3E000000B3
:020D3F000000B2
:020D40000000B1
:020D41000000B0
:020D42000000AF
:020D43000000AE
:020D44000000AD
:020D45000000AC
:020D46000000AB
:020D47000000AA
:020D48000000A9
:020D49000000A8
:020D4A000000A7
:020D4B000000A6
:020D4C000000A5
:020D4D000000A4
:020D4E000000A3
:020D4F000000A2
:020D50000000A1
:020D51000000A0
:020D520000009F
:020D530000009E
:020D540000009D
:020D550000009C
:020D560000009B
:020D570000009A
:020D5800000099
:020D5900000098
:020D5A00000097
:020D5B00000096
:020D5C00000095
:020D5D00000094
:020D5E00000093
:020D5F00000092
:020D6000000091
:020D6100000090
:020D620000008F
:020D630000008E
:020D640000008D
:020D650000008C
:020D660000008B
:020D670000008A
:020D6800000089
:020D6900000088
:020D6A00000087
:020D6B00000086
:020D6C00000085
:020D6D00000084
:020D6E00000083
:020D6F00000082
:020D7000000081
:020D7100000080
:020D720000007F
:020D730000007E
:020D740000007D
:020D750000007C
:020D760000007B
:020D770000007A
:020D7800000079
:020D7900000078
:020D7A00000077
:020D7B00000076
:020D7C00000075
:020D7D00000074
:020D7E00000073
:020D7F00000072
:020D8000000071
:020D8100000070
:020D820000006F
:020D830000006E
:020D840000006D
:020D850000006C
:020D860000006B
:020D870000006A
:020D8800000069
:020D8900000068
:020D8A00000067
:020D8B00000066
:020D8C00000065
:020D8D00000064
:020D8E00000063
:020D8F00000062
:020D9000000061
:020D9100000060
:020D920000005F
:020D930000005E
:020D940000005D
:020D950000005C
:020D960000005B
:020D970000005A
:020D9800000059
:020D9900000058
:020D9A00000057
:020D9B00000056
:020D9C00000055
:020D9D00000054
:020D9E00000053
:020D9F00000052
:020DA000000051
:020DA100000050
:020DA20000004F
:020DA30000004E
:020DA40000004D
:020DA50000004C
:020DA60000004B
:020DA70000004A
:020DA800000049
:020DA900000048
:020DAA00000047
:020DAB00000046
:020DAC00000045
:020DAD00000044
:020DAE00000043
:020DAF00000042
:020DB000000041
:020DB100000040
:020DB20000003F
:020DB30000003E
:020DB40000003D
:020DB50000003C
:020DB60000003B
:020DB70000003A
:020DB800000039
:020DB900000038
:020DBA00000037
:020DBB00000036
:020DBC00000035
:020DBD00000034
:020DBE00000033
:020DBF00000032
:020DC000000031
:020DC100000030
:020DC20000002F
:020DC30000002E
:020DC40000002D
:020DC50000002C
:020DC60000002B
:020DC70000002A
:020DC800000029
:020DC900000028
:020DCA00000027
:020DCB00000026
:020DCC00000025
:020DCD00000024
:020DCE00000023
:020DCF00000022
:020DD000000021
:020DD100000020
:020DD20000001F
:020DD30000001E
:020DD40000001D
:020DD50000001C
:020DD60000001B
:020DD70000001A
:020DD800000019
:020DD900000018
:020DDA00000017
:020DDB00000016
:020DDC00000015
:020DDD00000014
:020DDE00000013
:020DDF00000012
:020DE000000011
:020DE100000010
:020DE20000000F
:020DE30000000E
:020DE40000000D
:020DE50000000C
:020DE60000000B
:020DE70000000A
:020DE800000009
:020DE900000008
:020DEA00000007
:020DEB00000006
:020DEC00000005
:020DED00000004
:020DEE00000003
:020DEF00000002
:020DF000000001
:020DF100000000
:020DF2000000FF
:020DF3000000FE
:020DF4000000FD
:020DF5000000FC
:020DF6000000FB
:020DF7000000FA
:020DF8000000F9
:020DF9000000F8
:020DFA000000F7
:020DFB000000F6
:020DFC000000F5
:020DFD000000F4
:020DFE000000F3
:020DFF000000F2
:020E00000000F0
:020E01000000EF
:020E02000000EE
:020E03000000ED
:020E04000000EC
:020E05000000EB
:020E06000000EA
:020E07000000E9
:020E08000000E8
:020E09000000E7
:020E0A000000E6
:020E0B000000E5
:020E0C000000E4
:020E0D000000E3
:020E0E000000E2
:020E0F000000E1
:020E10000000E0
:020E11000000DF
:020E12000000DE
:020E13000000DD
:020E14000000DC
:020E15000000DB
:020E16000000DA
:020E17000000D9
:020E18000000D8
:020E19000000D7
:020E1A000000D6
:020E1B000000D5
:020E1C000000D4
:020E1D000000D3
:020E1E000000D2
:020E1F000000D1
:020E20000000D0
:020E21000000CF
:020E22000000CE
:020E23000000CD
:020E24000000CC
:020E25000000CB
:020E26000000CA
:020E27000000C9
:020E28000000C8
:020E29000000C7
:020E2A000000C6
:020E2B000000C5
:020E2C000000C4
:020E2D000000C3
:020E2E000000C2
:020E2F000000C1
:020E30000000C0
:020E31000000BF
:020E32000000BE
:020E33000000BD
:020E34000000BC
:020E35000000BB
:020E36000000BA
:020E37000000B9
:020E38000000B8
:020E39000000B7
:020E3A000000B6
:020E3B000000B5
:020E3C000000B4
:020E3D000000B3
:020E3E000000B2
:020E3F000000B1
:020E40000000B0
:020E41000000AF
:020E42000000AE
:020E43000000AD
:020E44000000AC
:020E45000000AB
:020E46000000AA
:020E47000000A9
:020E48000000A8
:020E49000000A7
:020E4A000000A6
:020E4B000000A5
:020E4C000000A4
:020E4D000000A3
:020E4E000000A2
:020E4F000000A1
:020E50000000A0
:020E510000009F
:020E520000009E
:020E530000009D
:020E540000009C
:020E550000009B
:020E560000009A
:020E5700000099
:020E5800000098
:020E5900000097
:020E5A00000096
:020E5B00000095
:020E5C00000094
:020E5D00000093
:020E5E00000092
:020E5F00000091
:020E6000000090
:020E610000008F
:020E620000008E
:020E630000008D
:020E640000008C
:020E650000008B
:020E660000008A
:020E6700000089
:020E6800000088
:020E6900000087
:020E6A00000086
:020E6B00000085
:020E6C00000084
:020E6D00000083
:020E6E00000082
:020E6F00000081
:020E7000000080
:020E710000007F
:020E720000007E
:020E730000007D
:020E740000007C
:020E750000007B
:020E760000007A
:020E7700000079
:020E7800000078
:020E7900000077
:020E7A00000076
:020E7B00000075
:020E7C00000074
:020E7D00000073
:020E7E00000072
:020E7F00000071
:020E8000000070
:020E810000006F
:020E820000006E
:020E830000006D
:020E840000006C
:020E850000006B
:020E860000006A
:020E8700000069
:020E8800000068
:020E8900000067
:020E8A00000066
:020E8B00000065
:020E8C00000064
:020E8D00000063
:020E8E00000062
:020E8F00000061
:020E9000000060
:020E910000005F
:020E920000005E
:020E930000005D
:020E940000005C
:020E950000005B
:020E960000005A
:020E9700000059
:020E9800000058
:020E9900000057
:020E9A00000056
:020E9B00000055
:020E9C00000054
:020E9D00000053
:020E9E00000052
:020E9F00000051
:020EA000000050
:020EA10000004F
:020EA20000004E
:020EA30000004D
:020EA40000004C
:020EA50000004B
:020EA60000004A
:020EA700000049
:020EA800000048
:020EA900000047
:020EAA00000046
:020EAB00000045
:020EAC00000044
:020EAD00000043
:020EAE00000042
:020EAF00000041
:020EB000000040
:020EB10000003F
:020EB20000003E
:020EB30000003D
:020EB40000003C
:020EB50000003B
:020EB60000003A
:020EB700000039
:020EB800000038
:020EB900000037
:020EBA00000036
:020EBB00000035
:020EBC00000034
:020EBD00000033
:020EBE00000032
:020EBF00000031
:020EC000000030
:020EC10000002F
:020EC20000002E
:020EC30000002D
:020EC40000002C
:020EC50000002B
:020EC60000002A
:020EC700000029
:020EC800000028
:020EC900000027
:020ECA00000026
:020ECB00000025
:020ECC00000024
:020ECD00000023
:020ECE00000022
:020ECF00000021
:020ED000000020
:020ED10000001F
:020ED20000001E
:020ED30000001D
:020ED40000001C
:020ED50000001B
:020ED60000001A
:020ED700000019
:020ED800000018
:020ED900000017
:020EDA00000016
:020EDB00000015
:020EDC00000014
:020EDD00000013
:020EDE00000012
:020EDF00000011
:020EE000000010
:020EE10000000F
:020EE20000000E
:020EE30000000D
:020EE40000000C
:020EE50000000B
:020EE60000000A
:020EE700000009
:020EE800000008
:020EE900000007
:020EEA00000006
:020EEB00000005
:020EEC00000004
:020EED00000003
:020EEE00000002
:020EEF00000001
:020EF000000000
:020EF1000000FF
:020EF2000000FE
:020EF3000000FD
:020EF4000000FC
:020EF5000000FB
:020EF6000000FA
:020EF7000000F9
:020EF8000000F8
:020EF9000000F7
:020EFA000000F6
:020EFB000000F5
:020EFC000000F4
:020EFD000000F3
:020EFE000000F2
:020EFF000000F1
:020F00000000EF
:020F01000000EE
:020F02000000ED
:020F03000000EC
:020F04000000EB
:020F05000000EA
:020F06000000E9
:020F07000000E8
:020F08000000E7
:020F09000000E6
:020F0A000000E5
:020F0B000000E4
:020F0C000000E3
:020F0D000000E2
:020F0E000000E1
:020F0F000000E0
:020F10000000DF
:020F11000000DE
:020F12000000DD
:020F13000000DC
:020F14000000DB
:020F15000000DA
:020F16000000D9
:020F17000000D8
:020F18000000D7
:020F19000000D6
:020F1A000000D5
:020F1B000000D4
:020F1C000000D3
:020F1D000000D2
:020F1E000000D1
:020F1F000000D0
:020F20000000CF
:020F21000000CE
:020F22000000CD
:020F23000000CC
:020F24000000CB
:020F25000000CA
:020F26000000C9
:020F27000000C8
:020F28000000C7
:020F29000000C6
:020F2A000000C5
:020F2B000000C4
:020F2C000000C3
:020F2D000000C2
:020F2E000000C1
:020F2F000000C0
:020F30000000BF
:020F31000000BE
:020F32000000BD
:020F33000000BC
:020F34000000BB
:020F35000000BA
:020F36000000B9
:020F37000000B8
:020F38000000B7
:020F39000000B6
:020F3A000000B5
:020F3B000000B4
:020F3C000000B3
:020F3D000000B2
:020F3E000000B1
:020F3F000000B0
:020F40000000AF
:020F41000000AE
:020F42000000AD
:020F43000000AC
:020F44000000AB
:020F45000000AA
:020F46000000A9
:020F47000000A8
:020F48000000A7
:020F49000000A6
:020F4A000000A5
:020F4B000000A4
:020F4C000000A3
:020F4D000000A2
:020F4E000000A1
:020F4F000000A0
:020F500000009F
:020F510000009E
:020F520000009D
:020F530000009C
:020F540000009B
:020F550000009A
:020F5600000099
:020F5700000098
:020F5800000097
:020F5900000096
:020F5A00000095
:020F5B00000094
:020F5C00000093
:020F5D00000092
:020F5E00000091
:020F5F00000090
:020F600000008F
:020F610000008E
:020F620000008D
:020F630000008C
:020F640000008B
:020F650000008A
:020F6600000089
:020F6700000088
:020F6800000087
:020F6900000086
:020F6A00000085
:020F6B00000084
:020F6C00000083
:020F6D00000082
:020F6E00000081
:020F6F00000080
:020F700000007F
:020F710000007E
:020F720000007D
:020F730000007C
:020F740000007B
:020F750000007A
:020F7600000079
:020F7700000078
:020F7800000077
:020F7900000076
:020F7A00000075
:020F7B00000074
:020F7C00000073
:020F7D00000072
:020F7E00000071
:020F7F00000070
:020F800000006F
:020F810000006E
:020F820000006D
:020F830000006C
:020F840000006B
:020F850000006A
:020F8600000069
:020F8700000068
:020F8800000067
:020F8900000066
:020F8A00000065
:020F8B00000064
:020F8C00000063
:020F8D00000062
:020F8E00000061
:020F8F00000060
:020F900000005F
:020F910000005E
:020F920000005D
:020F930000005C
:020F940000005B
:020F950000005A
:020F9600000059
:020F9700000058
:020F9800000057
:020F9900000056
:020F9A00000055
:020F9B00000054
:020F9C00000053
:020F9D00000052
:020F9E00000051
:020F9F00000050
