:020000003000CE
:020001003000CD
:020002003000CC
:020003003000CB
:020004002000DA
:020005002000D9
:020006002000D8
:020007002000D7
:020008002000D6
:020009003000C5
:02000A003000C4
:02000B003000C3
:02000C003000C2
:02000D003000C1
:02000E002000D0
:02000F003000BF
:020010003000BE
:020011003000BD
:020012003000BC
:020013002000CB
:020014003000BA
:020015003000B9
:020016003000B8
:020017003000B7
:020018002000C6
:020019003000B5
:02001A002000C4
:02001B002000C3
:02001C003000B2
:02001D002000C1
:02001E003000B0
:02001F003000AF
:020020002000BE
:020021002000BD
:020022003000AC
:020023002000BB
:020024003000AA
:020025002000B9
:020026002000B8
:020027003000A7
:020028002000B6
:020029002000B5
:02002A003000A4
:02002B003000A3
:02002C002000B2
:02002D003000A1
:02002E002000B0
:02002F002000AF
:020030002000AE
:020031002000AD
:020032002000AC
:0200330030009B
:0200340030009A
:02003500300099
:02003600300098
:02003700300097
:020038002000A6
:020039002000A5
:02003A002000A4
:02003B00300093
:02003C00300092
:02003D002000A1
:02003E002000A0
:02003F0030008F
:0200400020009E
:0200410030008D
:0200420030008C
:0200430020009B
:0200440020009A
:02004500200099
:02004600200098
:02004700300087
:02004800300086
:02004900300085
:02004A00300084
:02004B00200093
:02004C00200092
:02004D00300081
:02004E00300080
:02004F0030007F
:0200500030007E
:0200510030007D
:0200520030007C
:0200530030007B
:0200540030007A
:02005500300079
:02005600300078
:02005700200087
:02005800300076
:02005900200085
:02005A00300074
:02005B00200083
:02005C00200082
:02005D00200081
:02005E00200080
:02005F0020007F
:0200600020007E
:0200610030006D
:0200620020007C
:0200630020007B
:0200640030006A
:02006500300069
:02006600200078
:02006700200077
:02006800200076
:02006900200075
:02006A00200074
:02006B00300063
:02006C00200072
:02006D00200071
:02006E00200070
:02006F0030005F
:0200700030005E
:0200710030005D
:0200720030005C
:0200730030005B
:0200740020006A
:02007500200069
:02007600200068
:02007700200067
:02007800200066
:02007900200065
:02007A00200064
:02007B00300053
:02007C00200062
:02007D00200061
:02007E00200060
:02007F0030004F
:0200800020005E
:0200810020005D
:0200820020005C
:0200830020005B
:0200840030004A
:02008500300049
:02008600300048
:02008700300047
:02008800300046
:02008900200055
:02008A00300044
:02008B00200053
:02008C00300042
:02008D00300041
:02008E00300040
:02008F0020004F
:0200900020004E
:0200910020004D
:0200920020004C
:0200930020004B
:0200940030003A
:02009500300039
:02009600300038
:02009700200047
:02009800200046
:02009900300035
:02009A00300034
:02009B00200043
:02009C00200042
:02009D00300031
:02009E00200040
:02009F0020003F
:0200A00020003E
:0200A10030002D
:0200A20020003C
:0200A30030002B
:0200A40020003A
:0200A500300029
:0200A600300028
:0200A700300027
:0200A800300026
:0200A900300025
:0200AA00300024
:0200AB00300023
:0200AC00200032
:0200AD00200031
:0200AE00200030
:0200AF0030001F
:0200B00020002E
:0200B10020002D
:0200B20020002C
:0200B30020002B
:0200B40020002A
:0200B500200029
:0200B600200028
:0200B700300017
:0200B800300016
:0200B900200025
:0200BA00300014
:0200BB00200023
:0200BC00300012
:0200BD00200021
:0200BE00200020
:0200BF0020001F
:0200C00020001E
:0200C10030000D
:0200C20030000C
:0200C30020001B
:0200C40020001A
:0200C500300009
:0200C600200018
:0200C700200017
:0200C800300006
:0200C900300005
:0200CA00200014
:0200CB00200013
:0200CC00300002
:0200CD00300001
:0200CE00200010
:0200CF0020000F
:0200D0003000FE
:0200D1003000FD
:0200D20020000C
:0200D30020000B
:0200D4003000FA
:0200D5003000F9
:0200D6003000F8
:0200D700200007
:0200D8003000F6
:0200D900200005
:0200DA00200004
:0200DB00200003
:0200DC003000F2
:0200DD003000F1
:0200DE003000F0
:0200DF002000FF
:0200E0002000FE
:0200E1003000ED
:0200E2003000EC
:0200E3002000FB
:0200E4003000EA
:0200E5003000E9
:0200E6002000F8
:0200E7003000E7
:0200E8003000E6
:0200E9003000E5
:0200EA002000F4
:0200EB002000F3
:0200EC002000F2
:0200ED002000F1
:0200EE003000E0
:0200EF003000DF
:0200F0002000EE
:0200F1002000ED
:0200F2002000EC
:0200F3003000DB
:0200F4003000DA
:0200F5002000E9
:0200F6002000E8
:0200F7002000E7
:0200F8002000E6
:0200F9002000E5
:0200FA003000D4
:0200FB003000D3
:0200FC003000D2
:0200FD003000D1
:0200FE002000E0
:0200FF002000DF
:020100003000CD
:020101002000DC
:020102003000CB
:020103003000CA
:020104003000C9
:020105002000D8
:020106002000D7
:020107002000D6
:020108002000D5
:020109003000C4
:02010A002000D3
:02010B003000C2
:02010C002000D1
:02010D002000D0
:02010E003000BF
:02010F003000BE
:020110002000CD
:020111003000BC
:020112003000BB
:020113003000BA
:020114002000C9
:020115003000B8
:020116002000C7
:020117002000C6
:020118002000C5
:020119002000C4
:02011A003000B3
:02011B003000B2
:02011C003000B1
:02011D003000B0
:02011E002000BF
:02011F002000BE
:020120002000BD
:020121003000AC
:020122003000AB
:020123002000BA
:020124002000B9
:020125002000B8
:020126003000A7
:020127002000B6
:020128003000A5
:020129003000A4
:02012A002000B3
:02012B003000A2
:02012C003000A1
:02012D003000A0
:02012E0030009F
:02012F0030009E
:020130002000AD
:020131002000AC
:020132002000AB
:020133002000AA
:020134002000A9
:02013500300098
:02013600300097
:02013700300096
:02013800300095
:02013900300094
:02013A00300093
:02013B00300092
:02013C002000A1
:02013D002000A0
:02013E0020009F
:02013F0020009E
:0201400020009D
:0201410030008C
:0201420030008B
:0201430030008A
:02014400300089
:02014500300088
:02014600300087
:02014700200096
:02014800200095
:02014900200094
:02014A00300083
:02014B00200092
:02014C00300081
:02014D00300080
:02014E0020008F
:02014F0030007E
:0201500020008D
:0201510020008C
:0201520030007B
:0201530030007A
:02015400300079
:02015500300078
:02015600200087
:02015700300076
:02015800300075
:02015900300074
:02015A00300073
:02015B00300072
:02015C00300071
:02015D00200080
:02015E0030006F
:02015F0020007E
:0201600030006D
:0201610020007C
:0201620020007B
:0201630020007A
:02016400300069
:02016500300068
:02016600300067
:02016700200076
:02016800200075
:02016900200074
:02016A00200073
:02016B00200072
:02016C00300061
:02016D00300060
:02016E0020006F
:02016F0020006E
:0201700030005D
:0201710030005C
:0201720030005B
:0201730030005A
:02017400300059
:02017500200068
:02017600200067
:02017700200066
:02017800300055
:02017900200064
:02017A00200063
:02017B00200062
:02017C00300051
:02017D00300050
:02017E0030004F
:02017F0030004E
:0201800020005D
:0201810030004C
:0201820030004B
:0201830030004A
:02018400300049
:02018500300048
:02018600300047
:02018700300046
:02018800200055
:02018900300044
:02018A00300043
:02018B00300042
:02018C00300041
:02018D00300040
:02018E0020004F
:02018F0030003E
:0201900030003D
:0201910030003C
:0201920030003B
:0201930020004A
:02019400200049
:02019500300038
:02019600300037
:02019700300036
:02019800300035
:02019900300034
:02019A00200043
:02019B00300032
:02019C00200041
:02019D00200040
:02019E0020003F
:02019F0020003E
:0201A00020003D
:0201A10030002C
:0201A20030002B
:0201A30030002A
:0201A400300029
:0201A500200038
:0201A600200037
:0201A700300026
:0201A800300025
:0201A900300024
:0201AA00200033
:0201AB00300022
:0201AC00300021
:0201AD00300020
:0201AE0030001F
:0201AF0020002E
:0201B00020002D
:0201B10030001C
:0201B20030001B
:0201B30020002A
:0201B400200029
:0201B500300018
:0201B600200027
:0201B700300016
:0201B800300015
:0201B900300014
:0201BA00300013
:0201BB00200022
:0201BC00200021
:0201BD00200020
:0201BE0020001F
:0201BF0030000E
:0201C00020001D
:0201C10030000C
:0201C20030000B
:0201C30020001A
:0201C400200019
:0201C500200018
:0201C600200017
:0201C700200016
:0201C800200015
:0201C900200014
:0201CA00300003
:0201CB00200012
:0201CC00200011
:0201CD00200010
:0201CE003000FF
:0201CF0020000E
:0201D00020000D
:0201D1003000FC
:0201D20020000B
:0201D3003000FA
:0201D4003000F9
:0201D5003000F8
:0201D600200007
:0201D7003000F6
:0201D8003000F5
:0201D900200004
:0201DA00200003
:0201DB003000F2
:0201DC003000F1
:0201DD003000F0
:0201DE002000FF
:0201DF003000EE
:0201E0003000ED
:0201E1002000FC
:0201E2002000FB
:0201E3003000EA
:0201E4003000E9
:0201E5003000E8
:0201E6003000E7
:0201E7002000F6
:0201E8002000F5
:0201E9002000F4
:0201EA002000F3
:0201EB003000E2
:0201EC003000E1
:0201ED003000E0
:0201EE003000DF
:0201EF002000EE
:0201F0002000ED
:0201F1003000DC
:0201F2003000DB
:0201F3003000DA
:0201F4003000D9
:0201F5003000D8
:0201F6003000D7
:0201F7003000D6
:0201F8003000D5
:0201F9002000E4
:0201FA003000D3
:0201FB003000D2
:0201FC003000D1
:0201FD002000E0
:0201FE003000CF
:0201FF003000CE
:020200003000CC
:020201003000CB
:020202003000CA
:020203003000C9
:020204003000C8
:020205002000D7
:020206003000C6
:020207003000C5
:020208002000D4
:020209002000D3
:02020A002000D2
:02020B002000D1
:02020C002000D0
:02020D002000CF
:02020E003000BE
:02020F003000BD
:020210003000BC
:020211002000CB
:020212003000BA
:020213002000C9
:020214003000B8
:020215003000B7
:020216003000B6
:020217003000B5
:020218003000B4
:020219002000C3
:02021A002000C2
:02021B002000C1
:02021C002000C0
:02021D003000AF
:02021E002000BE
:02021F002000BD
:020220003000AC
:020221003000AB
:020222002000BA
:020223003000A9
:020224002000B8
:020225002000B7
:020226002000B6
:020227003000A5
:020228002000B4
:020229002000B3
:02022A002000B2
:02022B003000A1
:02022C003000A0
:02022D0030009F
:02022E0030009E
:02022F002000AD
:0202300030009C
:0202310030009B
:0202320030009A
:02023300300099
:020234002000A8
:020235002000A7
:020236002000A6
:020237002000A5
:02023800300094
:02023900300093
:02023A00300092
:02023B00300091
:02023C002000A0
:02023D0030008F
:02023E0020009E
:02023F0020009D
:0202400030008C
:0202410030008B
:0202420030008A
:02024300300089
:02024400300088
:02024500300087
:02024600300086
:02024700300085
:02024800200094
:02024900300083
:02024A00300082
:02024B00200091
:02024C00200090
:02024D0030007F
:02024E0030007E
:02024F0020008D
:0202500020008C
:0202510030007B
:0202520020008A
:02025300200089
:02025400300078
:02025500300077
:02025600200086
:02025700300075
:02025800200084
:02025900200083
:02025A00200082
:02025B00200081
:02025C00300070
:02025D0030006F
:02025E0020007E
:02025F0020007D
:0202600030006C
:0202610020007B
:0202620030006A
:02026300200079
:02026400200078
:02026500300067
:02026600200076
:02026700300065
:02026800300064
:02026900300063
:02026A00300062
:02026B00300061
:02026C00200070
:02026D0030005F
:02026E0020006E
:02026F0020006D
:0202700020006C
:0202710020006B
:0202720020006A
:02027300200069
:02027400300058
:02027500200067
:02027600200066
:02027700200065
:02027800300054
:02027900200063
:02027A00300052
:02027B00300051
:02027C00300050
:02027D0020005F
:02027E0030004E
:02027F0020005D
:0202800030004C
:0202810030004B
:0202820030004A
:02028300300049
:02028400200058
:02028500300047
:02028600300046
:02028700300045
:02028800200054
:02028900300043
:02028A00300042
:02028B00300041
:02028C00300040
:02028D0030003F
:02028E0030003E
:02028F0020004D
:0202900030003C
:0202910030003B
:0202920030003A
:02029300200049
:02029400300038
:02029500300037
:02029600300036
:02029700200045
:02029800200044
:02029900200043
:02029A00200042
:02029B00200041
:02029C00300030
:02029D0020003F
:02029E0020003E
:02029F0030002D
:0202A00030002C
:0202A10020003B
:0202A20020003A
:0202A300200039
:0202A400300028
:0202A500300027
:0202A600200036
:0202A700200035
:0202A800200034
:0202A900200033
:0202AA00200032
:0202AB00200031
:0202AC00200030
:0202AD0030001F
:0202AE0020002E
:0202AF0030001D
:0202B00030001C
:0202B10030001B
:0202B20020002A
:0202B300200029
:0202B400300018
:0202B500300017
:0202B600200026
:0202B700200025
:0202B800200024
:0202B900300013
:0202BA00300012
:0202BB00200021
:0202BC00200020
:0202BD0020001F
:0202BE0030000E
:0202BF0020001D
:0202C00020001C
:0202C10020001B
:0202C20020001A
:0202C300300009
:0202C400300008
:0202C500200017
:0202C600200016
:0202C700300005
:0202C800300004
:0202C900200013
:0202CA00200012
:0202CB00200011
:0202CC00300000
:0202CD0020000F
:0202CE0020000E
:0202CF0020000D
:0202D0003000FC
:0202D10020000B
:0202D20020000A
:0202D3003000F9
:0202D400200008
:0202D500200007
:0202D600200006
:0202D700200005
:0202D800200004
:0202D9003000F3
:0202DA003000F2
:0202DB003000F1
:0202DC003000F0
:0202DD003000EF
:0202DE003000EE
:0202DF003000ED
:0202E0003000EC
:0202E1003000EB
:0202E2003000EA
:0202E3002000F9
:0202E4002000F8
:0202E5002000F7
:0202E6002000F6
:0202E7002000F5
:0202E8003000E4
:0202E9002000F3
:0202EA003000E2
:0202EB003000E1
:0202EC003000E0
:0202ED002000EF
:0202EE002000EE
:0202EF002000ED
:0202F0002000EC
:0202F1002000EB
:0202F2003000DA
:0202F3003000D9
:0202F4002000E8
:0202F5002000E7
:0202F6002000E6
:0202F7003000D5
:0202F8003000D4
:0202F9002000E3
:0202FA003000D2
:0202FB003000D1
:0202FC002000E0
:0202FD002000DF
:0202FE002000DE
:0202FF003000CD
:020300003000CB
:020301003000CA
:020302002000D9
:020303003000C8
:020304003000C7
:020305002000D6
:020306003000C5
:020307002000D4
:020308002000D3
:020309002000D2
:02030A002000D1
:02030B003000C0
:02030C002000CF
:02030D002000CE
:02030E002000CD
:02030F002000CC
:020310002000CB
:020311003000BA
:020312002000C9
:020313003000B8
:020314003000B7
:020315003000B6
:020316003000B5
:020317003000B4
:020318003000B3
:020319002000C2
:02031A002000C1
:02031B003000B0
:02031C003000AF
:02031D003000AE
:02031E002000BD
:02031F003000AC
:020320002000BB
:020321002000BA
:020322003000A9
:020323002000B8
:020324002000B7
:020325003000A6
:020326003000A5
:020327002000B4
:020328003000A3
:020329002000B2
:02032A002000B1
:02032B003000A0
:02032C002000AF
:02032D0030009E
:02032E0030009D
:02032F002000AC
:020330002000AB
:020331002000AA
:02033200300099
:020333002000A8
:02033400300097
:02033500300096
:02033600300095
:02033700300094
:020338002000A3
:020339002000A2
:02033A00300091
:02033B00300090
:02033C0020009F
:02033D0030008E
:02033E0030008D
:02033F0020009C
:0203400030008B
:0203410020009A
:02034200300089
:02034300300088
:02034400300087
:02034500300086
:02034600300085
:02034700300084
:02034800300083
:02034900300082
:02034A00200091
:02034B00200090
:02034C0020008F
:02034D0030007E
:02034E0030007D
:02034F0030007C
:0203500030007B
:0203510020008A
:02035200200089
:02035300200088
:02035400300077
:02035500300076
:02035600300075
:02035700200084
:02035800200083
:02035900300072
:02035A00300071
:02035B00200080
:02035C0030006F
:02035D0020007E
:02035E0020007D
:02035F0020007C
:0203600020007B
:0203610020007A
:02036200200079
:02036300300068
:02036400200077
:02036500300066
:02036600200075
:02036700300064
:02036800200073
:02036900200072
:02036A00200071
:02036B00300060
:02036C0020006F
:02036D0020006E
:02036E0030005D
:02036F0030005C
:0203700030005B
:0203710030005A
:02037200300059
:02037300200068
:02037400300057
:02037500300056
:02037600300055
:02037700300054
:02037800300053
:02037900300052
:02037A00300051
:02037B00300050
:02037C0020005F
:02037D0020005E
:02037E0020005D
:02037F0030004C
:0203800020005B
:0203810020005A
:02038200300049
:02038300200058
:02038400200057
:02038500300046
:02038600200055
:02038700300044
:02038800200053
:02038900200052
:02038A00200051
:02038B00200050
:02038C0020004F
:02038D0030003E
:02038E0030003D
:02038F0020004C
:0203900020004B
:0203910020004A
:02039200300039
:02039300200048
:02039400300037
:02039500300036
:02039600300035
:02039700300034
:02039800200043
:02039900300032
:02039A00200041
:02039B00200040
:02039C0030002F
:02039D0030002E
:02039E0030002D
:02039F0030002C
:0203A00030002B
:0203A10030002A
:0203A200300029
:0203A300300028
:0203A400300027
:0203A500200036
:0203A600200035
:0203A700300024
:0203A800300023
:0203A900300022
:0203AA00300021
:0203AB00200030
:0203AC0020002F
:0203AD0030001E
:0203AE0030001D
:0203AF0030001C
:0203B00030001B
:0203B10020002A
:0203B200200029
:0203B300200028
:0203B400300017
:0203B500200026
:0203B600200025
:0203B700200024
:0203B800300013
:0203B900200022
:0203BA00200021
:0203BB00200020
:0203BC0020001F
:0203BD0020001E
:0203BE0030000D
:0203BF0020001C
:0203C00020001B
:0203C10020001A
:0203C200200019
:0203C300200018
:0203C400200017
:0203C500200016
:0203C600200015
:0203C700300004
:0203C800200013
:0203C900200012
:0203CA00300001
:0203CB00200010
:0203CC0020000F
:0203CD0020000E
:0203CE003000FD
:0203CF003000FC
:0203D0003000FB
:0203D10020000A
:0203D200200009
:0203D3003000F8
:0203D400200007
:0203D500200006
:0203D600200005
:0203D700200004
:0203D800200003
:0203D9003000F2
:0203DA00200001
:0203DB003000F0
:0203DC002000FF
:0203DD003000EE
:0203DE002000FD
:0203DF002000FC
:0203E0003000EB
:0203E1003000EA
:0203E2002000F9
:0203E3002000F8
:0203E4003000E7
:0203E5003000E6
:0203E6002000F5
:0203E7002000F4
:0203E8003000E3
:0203E9003000E2
:0203EA003000E1
:0203EB003000E0
:0203EC002000EF
:0203ED002000EE
:0203EE002000ED
:0203EF003000DC
:0203F0003000DB
:0203F1002000EA
:0203F2003000D9
:0203F3003000D8
:0203F4002000E7
:0203F5002000E6
:0203F6002000E5
:0203F7003000D4
:0203F8002000E3
:0203F9002000E2
:0203FA002000E1
:0203FB003000D0
:0203FC003000CF
:0203FD002000DE
:0203FE003000CD
:0203FF003000CC
:020400003000CA
:020401002000D9
:020402002000D8
:020403002000D7
:020404002000D6
:020405002000D5
:020406003000C4
:020407003000C3
:020408003000C2
:020409003000C1
:02040A003000C0
:02040B002000CF
:02040C002000CE
:02040D003000BD
:02040E002000CC
:02040F002000CB
:020410003000BA
:020411003000B9
:020412003000B8
:020413003000B7
:020414002000C6
:020415003000B5
:020416002000C4
:020417002000C3
:020418002000C2
:020419003000B1
:02041A003000B0
:02041B002000BF
:02041C002000BE
:02041D002000BD
:02041E003000AC
:02041F003000AB
:020420003000AA
:020421002000B9
:020422002000B8
:020423002000B7
:020424002000B6
:020425003000A5
:020426002000B4
:020427003000A3
:020428002000B2
:020429003000A1
:02042A002000B0
:02042B0030009F
:02042C0030009E
:02042D002000AD
:02042E0030009C
:02042F0030009B
:0204300030009A
:02043100300099
:020432002000A8
:02043300300097
:02043400300096
:02043500300095
:020436002000A4
:020437002000A3
:020438002000A2
:020439002000A1
:02043A00300090
:02043B0020009F
:02043C0020009E
:02043D0020009D
:02043E0030008C
:02043F0020009B
:0204400020009A
:02044100200099
:02044200300088
:02044300200097
:02044400300086
:02044500300085
:02044600200094
:02044700200093
:02044800200092
:02044900300081
:02044A00200090
:02044B0020008F
:02044C0020008E
:02044D0020008D
:02044E0020008C
:02044F0020008B
:0204500020008A
:02045100300079
:02045200200088
:02045300300077
:02045400300076
:02045500200085
:02045600300074
:02045700300073
:02045800300072
:02045900300071
:02045A00200080
:02045B0030006F
:02045C0020007E
:02045D0020007D
:02045E0030006C
:02045F0030006B
:0204600020007A
:02046100200079
:02046200200078
:02046300200077
:02046400300066
:02046500300065
:02046600200074
:02046700200073
:02046800300062
:02046900300061
:02046A00300060
:02046B0020006F
:02046C0020006E
:02046D0020006D
:02046E0030005C
:02046F0020006B
:0204700020006A
:02047100200069
:02047200200068
:02047300200067
:02047400300056
:02047500200065
:02047600300054
:02047700300053
:02047800200062
:02047900300051
:02047A00300050
:02047B0030004F
:02047C0030004E
:02047D0030004D
:02047E0030004C
:02047F0030004B
:0204800030004A
:02048100300049
:02048200300048
:02048300200057
:02048400300046
:02048500300045
:02048600300044
:02048700300043
:02048800300042
:02048900200051
:02048A00300040
:02048B0030003F
:02048C0030003E
:02048D0030003D
:02048E0030003C
:02048F0030003B
:0204900030003A
:02049100300039
:02049200200048
:02049300200047
:02049400300036
:02049500300035
:02049600300034
:02049700300033
:02049800300032
:02049900200041
:02049A00200040
:02049B0020003F
:02049C0020003E
:02049D0020003D
:02049E0030002C
:02049F0030002B
:0204A00020003A
:0204A100300029
:0204A200300028
:0204A300200037
:0204A400200036
:0204A500300025
:0204A600200034
:0204A700200033
:0204A800200032
:0204A900300021
:0204AA00300020
:0204AB0030001F
:0204AC0030001E
:0204AD0030001D
:0204AE0030001C
:0204AF0020002B
:0204B00020002A
:0204B100200029
:0204B200300018
:0204B300200027
:0204B400300016
:0204B500300015
:0204B600300014
:0204B700300013
:0204B800300012
:0204B900200021
:0204BA00200020
:0204BB0020001F
:0204BC0020001E
:0204BD0030000D
:0204BE0030000C
:0204BF0030000B
:0204C00030000A
:0204C100300009
:0204C200300008
:0204C300300007
:0204C400300006
:0204C500200015
:0204C600300004
:0204C700300003
:0204C800300002
:0204C900300001
:0204CA00200010
:0204CB0020000F
:0204CC003000FE
:0204CD0020000D
:0204CE003000FC
:0204CF0020000B
:0204D0003000FA
:0204D100200009
:0204D200200008
:0204D300200007
:0204D4003000F6
:0204D500200005
:0204D600200004
:0204D7003000F3
:0204D800200002
:0204D900200001
:0204DA00200000
:0204DB002000FF
:0204DC002000FE
:0204DD003000ED
:0204DE003000EC
:0204DF003000EB
:0204E0002000FA
:0204E1003000E9
:0204E2002000F8
:0204E3002000F7
:0204E4003000E6
:0204E5002000F5
:0204E6003000E4
:0204E7003000E3
:0204E8002000F2
:0204E9003000E1
:0204EA003000E0
:0204EB003000DF
:0204EC003000DE
:0204ED002000ED
:0204EE002000EC
:0204EF002000EB
:0204F0002000EA
:0204F1002000E9
:0204F2002000E8
:0204F3003000D7
:0204F4003000D6
:0204F5003000D5
:0204F6003000D4
:0204F7002000E3
:0204F8002000E2
:0204F9003000D1
:0204FA003000D0
:0204FB003000CF
:0204FC003000CE
:0204FD003000CD
:0204FE003000CC
:0204FF003000CB
:020500003000C9
:020501003000C8
:020502003000C7
:020503003000C6
:020504003000C5
:020505003000C4
:020506003000C3
:020507003000C2
:020508003000C1
:020509002000D0
:02050A003000BF
:02050B002000CE
:02050C002000CD
:02050D002000CC
:02050E003000BB
:02050F002000CA
:020510002000C9
:020511002000C8
:020512002000C7
:020513002000C6
:020514002000C5
:020515002000C4
:020516002000C3
:020517002000C2
:020518002000C1
:020519002000C0
:02051A002000BF
:02051B002000BE
:02051C002000BD
:02051D003000AC
:02051E003000AB
:02051F003000AA
:020520002000B9
:020521003000A8
:020522003000A7
:020523002000B6
:020524003000A5
:020525003000A4
:020526003000A3
:020527002000B2
:020528003000A1
:020529003000A0
:02052A0030009F
:02052B0030009E
:02052C002000AD
:02052D002000AC
:02052E002000AB
:02052F002000AA
:02053000300099
:020531002000A8
:020532002000A7
:02053300300096
:02053400300095
:02053500300094
:02053600300093
:020537002000A2
:020538002000A1
:020539002000A0
:02053A0020009F
:02053B0020009E
:02053C0020009D
:02053D0030008C
:02053E0030008B
:02053F0020009A
:02054000200099
:02054100300088
:02054200200097
:02054300300086
:02054400200095
:02054500300084
:02054600300083
:02054700300082
:02054800300081
:02054900200090
:02054A0020008F
:02054B0020008E
:02054C0030007D
:02054D0020008C
:02054E0020008B
:02054F0030007A
:02055000200089
:02055100300078
:02055200300077
:02055300300076
:02055400200085
:02055500300074
:02055600300073
:02055700300072
:02055800300071
:02055900200080
:02055A0020007F
:02055B0020007E
:02055C0020007D
:02055D0020007C
:02055E0030006B
:02055F0030006A
:02056000300069
:02056100200078
:02056200300067
:02056300300066
:02056400200075
:02056500200074
:02056600200073
:02056700200072
:02056800200071
:02056900300060
:02056A0030005F
:02056B0030005E
:02056C0030005D
:02056D0020006C
:02056E0020006B
:02056F0020006A
:02057000200069
:02057100200068
:02057200200067
:02057300300056
:02057400300055
:02057500300054
:02057600200063
:02057700200062
:02057800200061
:02057900300050
:02057A0020005F
:02057B0030004E
:02057C0020005D
:02057D0030004C
:02057E0020005B
:02057F0020005A
:02058000200059
:02058100200058
:02058200300047
:02058300200056
:02058400200055
:02058500200054
:02058600300043
:02058700200052
:02058800200051
:02058900200050
:02058A0020004F
:02058B0020004E
:02058C0030003D
:02058D0020004C
:02058E0020004B
:02058F0020004A
:02059000200049
:02059100200048
:02059200300037
:02059300200046
:02059400300035
:02059500300034
:02059600300033
:02059700300032
:02059800300031
:02059900300030
:02059A0030002F
:02059B0030002E
:02059C0020003D
:02059D0020003C
:02059E0020003B
:02059F0020003A
:0205A000300029
:0205A100300028
:0205A200300027
:0205A300300026
:0205A400300025
:0205A500300024
:0205A600300023
:0205A700300022
:0205A800200031
:0205A900300020
:0205AA0030001F
:0205AB0020002E
:0205AC0020002D
:0205AD0030001C
:0205AE0020002B
:0205AF0030001A
:0205B000300019
:0205B100300018
:0205B200300017
:0205B300200026
:0205B400200025
:0205B500200024
:0205B600200023
:0205B700300012
:0205B800200021
:0205B900300010
:0205BA0030000F
:0205BB0020001E
:0205BC0020001D
:0205BD0020001C
:0205BE0020001B
:0205BF0020001A
:0205C000200019
:0205C100200018
:0205C200200017
:0205C300200016
:0205C400300005
:0205C500300004
:0205C600300003
:0205C700200012
:0205C800300001
:0205C900200010
:0205CA0020000F
:0205CB0020000E
:0205CC0020000D
:0205CD0020000C
:0205CE003000FB
:0205CF0020000A
:0205D000200009
:0205D100200008
:0205D200200007
:0205D300200006
:0205D400200005
:0205D500200004
:0205D6003000F3
:0205D7003000F2
:0205D800200001
:0205D900200000
:0205DA003000EF
:0205DB003000EE
:0205DC002000FD
:0205DD003000EC
:0205DE002000FB
:0205DF002000FA
:0205E0002000F9
:0205E1002000F8
:0205E2002000F7
:0205E3003000E6
:0205E4002000F5
:0205E5002000F4
:0205E6002000F3
:0205E7002000F2
:0205E8003000E1
:0205E9002000F0
:0205EA003000DF
:0205EB002000EE
:0205EC003000DD
:0205ED002000EC
:0205EE003000DB
:0205EF003000DA
:0205F0002000E9
:0205F1002000E8
:0205F2003000D7
:0205F3003000D6
:0205F4002000E5
:0205F5003000D4
:0205F6003000D3
:0205F7002000E2
:0205F8003000D1
:0205F9003000D0
:0205FA002000DF
:0205FB003000CE
:0205FC002000DD
:0205FD003000CC
:0205FE003000CB
:0205FF002000DA
:020600002000D8
:020601003000C7
:020602002000D6
:020603003000C5
:020604003000C4
:020605002000D3
:020606002000D2
:020607003000C1
:020608002000D0
:020609002000CF
:02060A002000CE
:02060B002000CD
:02060C002000CC
:02060D002000CB
:02060E002000CA
:02060F002000C9
:020610003000B8
:020611002000C7
:020612002000C6
:020613002000C5
:020614002000C4
:020615003000B3
:020616002000C2
:020617002000C1
:020618003000B0
:020619003000AF
:02061A003000AE
:02061B003000AD
:02061C002000BC
:02061D002000BB
:02061E002000BA
:02061F002000B9
:020620003000A8
:020621002000B7
:020622002000B6
:020623002000B5
:020624002000B4
:020625003000A3
:020626003000A2
:020627003000A1
:020628002000B0
:020629002000AF
:02062A0030009E
:02062B0030009D
:02062C0030009C
:02062D002000AB
:02062E002000AA
:02062F002000A9
:020630002000A8
:02063100300097
:02063200300096
:02063300300095
:02063400300094
:02063500300093
:02063600300092
:02063700300091
:02063800300090
:0206390030008F
:02063A0030008E
:02063B0030008D
:02063C0020009C
:02063D0020009B
:02063E0030008A
:02063F00300089
:02064000200098
:02064100200097
:02064200300086
:02064300300085
:02064400300084
:02064500200093
:02064600300082
:02064700200091
:02064800300080
:0206490020008F
:02064A0020008E
:02064B0020008D
:02064C0020008C
:02064D0030007B
:02064E0020008A
:02064F00200089
:02065000200088
:02065100300077
:02065200300076
:02065300300075
:02065400300074
:02065500200083
:02065600200082
:02065700200081
:02065800300070
:0206590020007F
:02065A0030006E
:02065B0020007D
:02065C0030006C
:02065D0020007B
:02065E0020007A
:02065F00300069
:02066000300068
:02066100300067
:02066200200076
:02066300200075
:02066400200074
:02066500300063
:02066600300062
:02066700200071
:02066800200070
:0206690020006F
:02066A0020006E
:02066B0030005D
:02066C0020006C
:02066D0020006B
:02066E0020006A
:02066F00200069
:02067000200068
:02067100200067
:02067200200066
:02067300200065
:02067400200064
:02067500200063
:02067600300052
:02067700300051
:02067800300050
:0206790020005F
:02067A0020005E
:02067B0020005D
:02067C0020005C
:02067D0020005B
:02067E0020005A
:02067F00300049
:02068000300048
:02068100300047
:02068200200056
:02068300300045
:02068400200054
:02068500200053
:02068600200052
:02068700200051
:02068800300040
:0206890030003F
:02068A0020004E
:02068B0020004D
:02068C0020004C
:02068D0020004B
:02068E0030003A
:02068F00300039
:02069000200048
:02069100200047
:02069200200046
:02069300200045
:02069400200044
:02069500200043
:02069600200042
:02069700300031
:02069800300030
:0206990030002F
:02069A0030002E
:02069B0030002D
:02069C0020003C
:02069D0020003B
:02069E0030002A
:02069F00300029
:0206A000300028
:0206A100300027
:0206A200300026
:0206A300200035
:0206A400300024
:0206A500300023
:0206A600200032
:0206A700200031
:0206A800200030
:0206A90030001F
:0206AA0030001E
:0206AB0020002D
:0206AC0030001C
:0206AD0020002B
:0206AE0030001A
:0206AF00300019
:0206B000300018
:0206B100200027
:0206B200200026
:0206B300300015
:0206B400300014
:0206B500200023
:0206B600200022
:0206B700300011
:0206B800200020
:0206B90020001F
:0206BA0020001E
:0206BB0030000D
:0206BC0030000C
:0206BD0020001B
:0206BE0020001A
:0206BF00200019
:0206C000300008
:0206C100300007
:0206C200300006
:0206C300200015
:0206C400200014
:0206C500200013
:0206C600300002
:0206C700200011
:0206C800300000
:0206C9003000FF
:0206CA003000FE
:0206CB003000FD
:0206CC003000FC
:0206CD003000FB
:0206CE003000FA
:0206CF003000F9
:0206D0003000F8
:0206D1003000F7
:0206D2003000F6
:0206D3003000F5
:0206D400200004
:0206D5003000F3
:0206D600200002
:0206D700200001
:0206D8003000F0
:0206D9002000FF
:0206DA003000EE
:0206DB002000FD
:0206DC003000EC
:0206DD002000FB
:0206DE002000FA
:0206DF003000E9
:0206E0002000F8
:0206E1003000E7
:0206E2002000F6
:0206E3002000F5
:0206E4002000F4
:0206E5003000E3
:0206E6002000F2
:0206E7002000F1
:0206E8002000F0
:0206E9002000EF
:0206EA003000DE
:0206EB003000DD
:0206EC003000DC
:0206ED003000DB
:0206EE002000EA
:0206EF002000E9
:0206F0002000E8
:0206F1002000E7
:0206F2002000E6
:0206F3003000D5
:0206F4003000D4
:0206F5002000E3
:0206F6003000D2
:0206F7003000D1
:0206F8002000E0
:0206F9003000CF
:0206FA002000DE
:0206FB003000CD
:0206FC002000DC
:0206FD002000DB
:0206FE002000DA
:0206FF002000D9
:020700003000C7
:020701002000D6
:020702002000D5
:020703002000D4
:020704003000C3
:020705003000C2
:020706003000C1
:020707003000C0
:020708002000CF
:020709003000BE
:02070A002000CD
:02070B002000CC
:02070C003000BB
:02070D002000CA
:02070E002000C9
:02070F002000C8
:020710002000C7
:020711003000B6
:020712002000C5
:020713003000B4
:020714003000B3
:020715002000C2
:020716003000B1
:020717002000C0
:020718002000BF
:020719003000AE
:02071A002000BD
:02071B003000AC
:02071C002000BB
:02071D002000BA
:02071E003000A9
:02071F003000A8
:020720003000A7
:020721002000B6
:020722003000A5
:020723003000A4
:020724003000A3
:020725003000A2
:020726002000B1
:020727003000A0
:0207280030009F
:020729002000AE
:02072A0030009D
:02072B0030009C
:02072C0030009B
:02072D002000AA
:02072E002000A9
:02072F00300098
:020730002000A7
:020731002000A6
:020732002000A5
:020733002000A4
:02073400300093
:020735002000A2
:02073600300091
:02073700300090
:0207380030008F
:0207390030008E
:02073A0030008D
:02073B0030008C
:02073C0030008B
:02073D0030008A
:02073E00300089
:02073F00300088
:02074000200097
:02074100300086
:02074200300085
:02074300300084
:02074400300083
:02074500300082
:02074600200091
:02074700300080
:0207480030007F
:0207490030007E
:02074A0020008D
:02074B0030007C
:02074C0030007B
:02074D0030007A
:02074E00300079
:02074F00300078
:02075000200087
:02075100200086
:02075200200085
:02075300200084
:02075400200083
:02075500200082
:02075600200081
:02075700300070
:0207580020007F
:0207590030006E
:02075A0030006D
:02075B0020007C
:02075C0020007B
:02075D0020007A
:02075E00200079
:02075F00300068
:02076000300067
:02076100300066
:02076200300065
:02076300300064
:02076400200073
:02076500200072
:02076600200071
:02076700300060
:0207680030005F
:0207690030005E
:02076A0030005D
:02076B0020006C
:02076C0020006B
:02076D0020006A
:02076E00300059
:02076F00300058
:02077000300057
:02077100300056
:02077200300055
:02077300300054
:02077400300053
:02077500300052
:02077600300051
:02077700200060
:0207780030004F
:0207790020005E
:02077A0020005D
:02077B0020005C
:02077C0020005B
:02077D0020005A
:02077E00300049
:02077F00300048
:02078000200057
:02078100200056
:02078200200055
:02078300200054
:02078400200053
:02078500300042
:02078600300041
:02078700300040
:0207880030003F
:0207890020004E
:02078A0030003D
:02078B0030003C
:02078C0020004B
:02078D0030003A
:02078E00200049
:02078F00300038
:02079000300037
:02079100300036
:02079200300035
:02079300300034
:02079400200043
:02079500200042
:02079600200041
:02079700200040
:0207980030002F
:0207990030002E
:02079A0020003D
:02079B0020003C
:02079C0030002B
:02079D0020003A
:02079E00200039
:02079F00200038
:0207A000300027
:0207A100300026
:0207A200300025
:0207A300200034
:0207A400200033
:0207A500300022
:0207A600200031
:0207A700300020
:0207A80020002F
:0207A90030001E
:0207AA0020002D
:0207AB0020002C
:0207AC0030001B
:0207AD0020002A
:0207AE00300019
:0207AF00200028
:0207B000300017
:0207B100200026
:0207B200300015
:0207B300200024
:0207B400200023
:0207B500300012
:0207B600300011
:0207B700200020
:0207B80020001F
:0207B90020001E
:0207BA0020001D
:0207BB0030000C
:0207BC0030000B
:0207BD0030000A
:0207BE00300009
:0207BF00300008
:0207C000200017
:0207C100200016
:0207C200200015
:0207C300200014
:0207C400300003
:0207C500200012
:0207C600300001
:0207C700300000
:0207C80020000F
:0207C90020000E
:0207CA003000FD
:0207CB003000FC
:0207CC0020000B
:0207CD0020000A
:0207CE00200009
:0207CF003000F8
:0207D000200007
:0207D100200006
:0207D2003000F5
:0207D300200004
:0207D400200003
:0207D500200002
:0207D6003000F1
:0207D700200000
:0207D8003000EF
:0207D9002000FE
:0207DA003000ED
:0207DB002000FC
:0207DC003000EB
:0207DD003000EA
:0207DE002000F9
:0207DF002000F8
:0207E0003000E7
:0207E1002000F6
:0207E2002000F5
:0207E3002000F4
:0207E4002000F3
:0207E5002000F2
:0207E6003000E1
:0207E7002000F0
:0207E8003000DF
:0207E9002000EE
:0207EA003000DD
:0207EB003000DC
:0207EC003000DB
:0207ED003000DA
:0207EE003000D9
:0207EF003000D8
:0207F0003000D7
:0207F1002000E6
:0207F2003000D5
:0207F3003000D4
:0207F4002000E3
:0207F5002000E2
:0207F6003000D1
:0207F7002000E0
:0207F8002000DF
:0207F9002000DE
:0207FA002000DD
:0207FB002000DC
:0207FC002000DB
:0207FD003000CA
:0207FE002000D9
:0207FF002000D8
:020800003000C6
:020801003000C5
:020802003000C4
:020803003000C3
:020804003000C2
:020805002000D1
:020806002000D0
:020807003000BF
:020808002000CE
:020809003000BD
:02080A003000BC
:02080B003000BB
:02080C002000CA
:02080D002000C9
:02080E003000B8
:02080F003000B7
:020810003000B6
:020811003000B5
:020812003000B4
:020813002000C3
:020814002000C2
:020815002000C1
:020816002000C0
:020817002000BF
:020818002000BE
:020819002000BD
:02081A002000BC
:02081B003000AB
:02081C002000BA
:02081D003000A9
:02081E002000B8
:02081F003000A7
:020820002000B6
:020821002000B5
:020822002000B4
:020823002000B3
:020824002000B2
:020825003000A1
:020826003000A0
:0208270030009F
:0208280030009E
:020829002000AD
:02082A002000AC
:02082B002000AB
:02082C002000AA
:02082D00300099
:02082E002000A8
:02082F002000A7
:020830002000A6
:02083100300095
:02083200300094
:020833002000A3
:02083400300092
:02083500300091
:020836002000A0
:0208370020009F
:0208380020009E
:0208390020009D
:02083A0020009C
:02083B0030008B
:02083C0020009A
:02083D00200099
:02083E00200098
:02083F00300087
:02084000200096
:02084100200095
:02084200200094
:02084300200093
:02084400300082
:02084500200091
:02084600300080
:0208470030007F
:0208480030007E
:0208490030007D
:02084A0030007C
:02084B0030007B
:02084C0030007A
:02084D00300079
:02084E00300078
:02084F00200087
:02085000300076
:02085100300075
:02085200300074
:02085300200083
:02085400200082
:02085500200081
:02085600300070
:0208570020007F
:0208580030006E
:0208590020007D
:02085A0020007C
:02085B0030006B
:02085C0030006A
:02085D00200079
:02085E00200078
:02085F00300067
:02086000300066
:02086100300065
:02086200200074
:02086300200073
:02086400200072
:02086500300061
:02086600300060
:0208670030005F
:0208680030005E
:0208690020006D
:02086A0030005C
:02086B0020006B
:02086C0020006A
:02086D00200069
:02086E00300058
:02086F00300057
:02087000300056
:02087100300055
:02087200300054
:02087300300053
:02087400200062
:02087500200061
:02087600200060
:0208770020005F
:0208780030004E
:0208790030004D
:02087A0020005C
:02087B0030004B
:02087C0030004A
:02087D00300049
:02087E00200058
:02087F00300047
:02088000300046
:02088100200055
:02088200200054
:02088300300043
:02088400300042
:02088500200051
:02088600300040
:0208870030003F
:0208880030003E
:0208890030003D
:02088A0020004C
:02088B0030003B
:02088C0030003A
:02088D00200049
:02088E00200048
:02088F00200047
:02089000200046
:02089100300035
:02089200300034
:02089300300033
:02089400300032
:02089500200041
:02089600300030
:0208970020003F
:0208980030002E
:0208990030002D
:02089A0020003C
:02089B0030002B
:02089C0020003A
:02089D00200039
:02089E00200038
:02089F00300027
:0208A000300026
:0208A100300025
:0208A200300024
:0208A300300023
:0208A400300022
:0208A500200031
:0208A600200030
:0208A70030001F
:0208A80030001E
:0208A90030001D
:0208AA0020002C
:0208AB0030001B
:0208AC0030001A
:0208AD00300019
:0208AE00300018
:0208AF00300017
:0208B000300016
:0208B100200025
:0208B200200024
:0208B300300013
:0208B400300012
:0208B500300011
:0208B600200020
:0208B70030000F
:0208B80030000E
:0208B90030000D
:0208BA0030000C
:0208BB0030000B
:0208BC0030000A
:0208BD00200019
:0208BE00200018
:0208BF00200017
:0208C000200016
:0208C100300005
:0208C200200014
:0208C300200013
:0208C400200012
:0208C500200011
:0208C600200010
:0208C70020000F
:0208C80020000E
:0208C9003000FD
:0208CA0020000C
:0208CB003000FB
:0208CC0020000A
:0208CD00200009
:0208CE003000F8
:0208CF00200007
:0208D0003000F6
:0208D1003000F5
:0208D2003000F4
:0208D3003000F3
:0208D4003000F2
:0208D5003000F1
:0208D6003000F0
:0208D7002000FF
:0208D8002000FE
:0208D9002000FD
:0208DA002000FC
:0208DB003000EB
:0208DC003000EA
:0208DD002000F9
:0208DE002000F8
:0208DF002000F7
:0208E0002000F6
:0208E1002000F5
:0208E2002000F4
:0208E3002000F3
:0208E4003000E2
:0208E5002000F1
:0208E6002000F0
:0208E7002000EF
:0208E8003000DE
:0208E9002000ED
:0208EA003000DC
:0208EB003000DB
:0208EC003000DA
:0208ED003000D9
:0208EE002000E8
:0208EF002000E7
:0208F0003000D6
:0208F1002000E5
:0208F2002000E4
:0208F3002000E3
:0208F4002000E2
:0208F5003000D1
:0208F6003000D0
:0208F7002000DF
:0208F8002000DE
:0208F9003000CD
:0208FA002000DC
:0208FB002000DB
:0208FC002000DA
:0208FD003000C9
:0208FE003000C8
:0208FF003000C7
:020900003000C5
:020901002000D4
:020902002000D3
:020903003000C2
:020904003000C1
:020905003000C0
:020906003000BF
:020907003000BE
:020908003000BD
:020909003000BC
:02090A003000BB
:02090B003000BA
:02090C003000B9
:02090D002000C8
:02090E002000C7
:02090F002000C6
:020910002000C5
:020911002000C4
:020912002000C3
:020913002000C2
:020914003000B1
:020915002000C0
:020916002000BF
:020917003000AE
:020918003000AD
:020919002000BC
:02091A003000AB
:02091B002000BA
:02091C002000B9
:02091D003000A8
:02091E003000A7
:02091F003000A6
:020920003000A5
:020921002000B4
:020922002000B3
:020923002000B2
:020924003000A1
:020925002000B0
:0209260030009F
:0209270030009E
:0209280030009D
:0209290030009C
:02092A002000AB
:02092B002000AA
:02092C002000A9
:02092D002000A8
:02092E002000A7
:02092F002000A6
:02093000300095
:02093100300094
:020932002000A3
:02093300300092
:020934002000A1
:020935002000A0
:0209360020009F
:0209370020009E
:0209380020009D
:0209390020009C
:02093A0030008B
:02093B0030008A
:02093C00300089
:02093D00200098
:02093E00300087
:02093F00300086
:02094000200095
:02094100200094
:02094200200093
:02094300200092
:02094400200091
:02094500300080
:0209460020008F
:0209470030007E
:0209480020008D
:0209490020008C
:02094A0020008B
:02094B0030007A
:02094C00300079
:02094D00200088
:02094E00200087
:02094F00200086
:02095000200085
:02095100200084
:02095200200083
:02095300200082
:02095400200081
:02095500300070
:0209560030006F
:0209570020007E
:0209580020007D
:0209590020007C
:02095A0030006B
:02095B0020007A
:02095C00300069
:02095D00300068
:02095E00300067
:02095F00300066
:02096000200075
:02096100200074
:02096200200073
:02096300300062
:02096400200071
:02096500200070
:0209660030005F
:0209670030005E
:0209680030005D
:0209690030005C
:02096A0030005B
:02096B0020006A
:02096C00200069
:02096D00300058
:02096E00300057
:02096F00300056
:02097000200065
:02097100300054
:02097200300053
:02097300200062
:02097400200061
:02097500200060
:0209760030004F
:0209770030004E
:0209780030004D
:0209790020005C
:02097A0030004B
:02097B0020005A
:02097C00200059
:02097D00200058
:02097E00300047
:02097F00300046
:02098000300045
:02098100200054
:02098200200053
:02098300200052
:02098400200051
:02098500200050
:0209860020004F
:0209870020004E
:0209880030003D
:0209890020004C
:02098A0030003B
:02098B0020004A
:02098C00200049
:02098D00200048
:02098E00300037
:02098F00300036
:02099000200045
:02099100200044
:02099200300033
:02099300300032
:02099400200041
:02099500200040
:0209960020003F
:0209970030002E
:0209980020003D
:0209990020003C
:02099A0030002B
:02099B0030002A
:02099C00200039
:02099D00300028
:02099E00200037
:02099F00200036
:0209A000300025
:0209A100300024
:0209A200300023
:0209A300300022
:0209A400300021
:0209A500300020
:0209A60030001F
:0209A70030001E
:0209A80030001D
:0209A90030001C
:0209AA0030001B
:0209AB0020002A
:0209AC00200029
:0209AD00200028
:0209AE00300017
:0209AF00200026
:0209B000300015
:0209B100200024
:0209B200200023
:0209B300200022
:0209B400300011
:0209B500200020
:0209B60030000F
:0209B70030000E
:0209B80030000D
:0209B90030000C
:0209BA0020001B
:0209BB0020001A
:0209BC00200019
:0209BD00200018
:0209BE00200017
:0209BF00300006
:0209C000200015
:0209C100300004
:0209C200300003
:0209C300200012
:0209C400300001
:0209C500200010
:0209C6003000FF
:0209C7003000FE
:0209C80020000D
:0209C90020000C
:0209CA0020000B
:0209CB0020000A
:0209CC00200009
:0209CD003000F8
:0209CE00200007
:0209CF00200006
:0209D0003000F5
:0209D100200004
:0209D2003000F3
:0209D300200002
:0209D400200001
:0209D5003000F0
:0209D6003000EF
:0209D7003000EE
:0209D8003000ED
:0209D9003000EC
:0209DA003000EB
:0209DB003000EA
:0209DC003000E9
:0209DD003000E8
:0209DE003000E7
:0209DF002000F6
:0209E0002000F5
:0209E1003000E4
:0209E2002000F3
:0209E3002000F2
:0209E4002000F1
:0209E5003000E0
:0209E6003000DF
:0209E7002000EE
:0209E8002000ED
:0209E9002000EC
:0209EA003000DB
:0209EB002000EA
:0209EC002000E9
:0209ED003000D8
:0209EE002000E7
:0209EF002000E6
:0209F0002000E5
:0209F1003000D4
:0209F2003000D3
:0209F3003000D2
:0209F4003000D1
:0209F5003000D0
:0209F6002000DF
:0209F7003000CE
:0209F8003000CD
:0209F9002000DC
:0209FA003000CB
:0209FB002000DA
:0209FC003000C9
:0209FD002000D8
:0209FE002000D7
:0209FF002000D6
:020A00003000C4
:020A01002000D3
:020A02002000D2
:020A03003000C1
:020A04003000C0
:020A05003000BF
:020A06003000BE
:020A07003000BD
:020A08002000CC
:020A09002000CB
:020A0A003000BA
:020A0B003000B9
:020A0C002000C8
:020A0D002000C7
:020A0E003000B6
:020A0F003000B5
:020A10003000B4
:020A11003000B3
:020A12003000B2
:020A13003000B1
:020A14002000C0
:020A15002000BF
:020A16002000BE
:020A17002000BD
:020A18002000BC
:020A19002000BB
:020A1A002000BA
:020A1B002000B9
:020A1C003000A8
:020A1D002000B7
:020A1E002000B6
:020A1F002000B5
:020A20002000B4
:020A21003000A3
:020A22003000A2
:020A23002000B1
:020A24003000A0
:020A25002000AF
:020A26002000AE
:020A270030009D
:020A280030009C
:020A290030009B
:020A2A0030009A
:020A2B002000A9
:020A2C002000A8
:020A2D002000A7
:020A2E00300096
:020A2F00300095
:020A30002000A4
:020A3100300093
:020A3200300092
:020A33002000A1
:020A34002000A0
:020A350020009F
:020A360020009E
:020A370030008D
:020A380020009C
:020A390030008B
:020A3A0030008A
:020A3B00300089
:020A3C00300088
:020A3D00300087
:020A3E00200096
:020A3F00200095
:020A4000200094
:020A4100300083
:020A4200200092
:020A4300200091
:020A4400200090
:020A450030007F
:020A460030007E
:020A470030007D
:020A480020008C
:020A490020008B
:020A4A0030007A
:020A4B00200089
:020A4C00200088
:020A4D00200087
:020A4E00300076
:020A4F00200085
:020A5000300074
:020A5100200083
:020A5200200082
:020A5300200081
:020A5400300070
:020A550020007F
:020A560020007E
:020A570020007D
:020A580020007C
:020A590020007B
:020A5A0020007A
:020A5B00300069
:020A5C00300068
:020A5D00200077
:020A5E00300066
:020A5F00300065
:020A6000200074
:020A6100300063
:020A6200300062
:020A6300300061
:020A6400300060
:020A650030005F
:020A660030005E
:020A670030005D
:020A680030005C
:020A690020006B
:020A6A0020006A
:020A6B00300059
:020A6C00300058
:020A6D00300057
:020A6E00200066
:020A6F00200065
:020A7000300054
:020A7100300053
:020A7200200062
:020A7300200061
:020A7400200060
:020A750030004F
:020A760030004E
:020A770020005D
:020A780030004C
:020A790020005B
:020A7A0020005A
:020A7B00300049
:020A7C00300048
:020A7D00200057
:020A7E00200056
:020A7F00300045
:020A8000300044
:020A8100200053
:020A8200300042
:020A8300200051
:020A8400300040
:020A850020004F
:020A860020004E
:020A870030003D
:020A880030003C
:020A890030003B
:020A8A0030003A
:020A8B00300039
:020A8C00300038
:020A8D00300037
:020A8E00300036
:020A8F00200045
:020A9000200044
:020A9100200043
:020A9200200042
:020A9300200041
:020A9400300030
:020A950030002F
:020A960030002E
:020A970020003D
:020A980020003C
:020A990030002B
:020A9A0030002A
:020A9B00200039
:020A9C00200038
:020A9D00300027
:020A9E00200036
:020A9F00200035
:020AA000200034
:020AA100300023
:020AA200200032
:020AA300200031
:020AA400300020
:020AA50030001F
:020AA60030001E
:020AA70030001D
:020AA80020002C
:020AA90020002B
:020AAA0030001A
:020AAB00200029
:020AAC00200028
:020AAD00300017
:020AAE00300016
:020AAF00300015
:020AB000200024
:020AB100300013
:020AB200200022
:020AB300300011
:020AB400300010
:020AB50030000F
:020AB60030000E
:020AB70030000D
:020AB80020001C
:020AB90020001B
:020ABA0030000A
:020ABB00200019
:020ABC00200018
:020ABD00200017
:020ABE00200016
:020ABF00200015
:020AC000300004
:020AC100300003
:020AC200300002
:020AC300200011
:020AC400200010
:020AC50020000F
:020AC6003000FE
:020AC70020000D
:020AC8003000FC
:020AC90020000B
:020ACA0020000A
:020ACB00200009
:020ACC003000F8
:020ACD003000F7
:020ACE003000F6
:020ACF003000F5
:020AD0003000F4
:020AD100200003
:020AD200200002
:020AD300200001
:020AD4003000F0
:020AD5002000FF
:020AD6002000FE
:020AD7002000FD
:020AD8002000FC
:020AD9002000FB
:020ADA002000FA
:020ADB002000F9
:020ADC003000E8
:020ADD003000E7
:020ADE003000E6
:020ADF003000E5
:020AE0002000F4
:020AE1003000E3
:020AE2002000F2
:020AE3003000E1
:020AE4003000E0
:020AE5002000EF
:020AE6002000EE
:020AE7002000ED
:020AE8002000EC
:020AE9002000EB
:020AEA002000EA
:020AEB002000E9
:020AEC003000D8
:020AED002000E7
:020AEE002000E6
:020AEF002000E5
:020AF0002000E4
:020AF1002000E3
:020AF2003000D2
:020AF3003000D1
:020AF4003000D0
:020AF5003000CF
:020AF6003000CE
:020AF7003000CD
:020AF8003000CC
:020AF9003000CB
:020AFA003000CA
:020AFB003000C9
:020AFC003000C8
:020AFD002000D7
:020AFE002000D6
:020AFF002000D5
:020B00002000D3
:020B01002000D2
:020B02002000D1
:020B03003000C0
:020B04002000CF
:020B05003000BE
:020B06003000BD
:020B07003000BC
:020B08003000BB
:020B09003000BA
:020B0A002000C9
:020B0B003000B8
:020B0C003000B7
:020B0D003000B6
:020B0E003000B5
:020B0F002000C4
:020B10002000C3
:020B11003000B2
:020B12003000B1
:020B13003000B0
:020B14003000AF
:020B15002000BE
:020B16002000BD
:020B17003000AC
:020B18003000AB
:020B19003000AA
:020B1A003000A9
:020B1B003000A8
:020B1C003000A7
:020B1D003000A6
:020B1E002000B5
:020B1F003000A4
:020B20003000A3
:020B21003000A2
:020B22003000A1
:020B23002000B0
:020B24002000AF
:020B250030009E
:020B260030009D
:020B27002000AC
:020B28002000AB
:020B29002000AA
:020B2A002000A9
:020B2B002000A8
:020B2C002000A7
:020B2D002000A6
:020B2E002000A5
:020B2F002000A4
:020B30002000A3
:020B3100300092
:020B32002000A1
:020B33002000A0
:020B340030008F
:020B350030008E
:020B360030008D
:020B370020009C
:020B380030008B
:020B390020009A
:020B3A00300089
:020B3B00200098
:020B3C00200097
:020B3D00200096
:020B3E00200095
:020B3F00200094
:020B4000200093
:020B4100200092
:020B4200200091
:020B4300200090
:020B440030007F
:020B450030007E
:020B460030007D
:020B470030007C
:020B480030007B
:020B490030007A
:020B4A00200089
:020B4B00300078
:020B4C00300077
:020B4D00300076
:020B4E00200085
:020B4F00200084
:020B5000200083
:020B5100200082
:020B5200200081
:020B5300200080
:020B540030006F
:020B550020007E
:020B560030006D
:020B570020007C
:020B580030006B
:020B590030006A
:020B5A00300069
:020B5B00300068
:020B5C00300067
:020B5D00300066
:020B5E00300065
:020B5F00200074
:020B6000200073
:020B6100000092
:020B6200000091
:020B6300000090
:020B640000008F
:020B650000008E
:020B660000008D
:020B670000008C
:020B680000008B
:020B690000008A
:020B6A00000089
:020B6B00000088
:020B6C00000087
:020B6D00000086
:020B6E00000085
:020B6F00000084
:020B7000000083
:020B7100000082
:020B7200000081
:020B7300000080
:020B740000007F
:020B750000007E
:020B760000007D
:020B770000007C
:020B780000007B
:020B790000007A
:020B7A00000079
:020B7B00000078
:020B7C00000077
:020B7D00000076
:020B7E00000075
:020B7F00000074
:020B8000000073
:020B8100000072
:020B8200000071
:020B8300000070
:020B840000006F
:020B850000006E
:020B860000006D
:020B870000006C
:020B880000006B
:020B890000006A
:020B8A00000069
:020B8B00000068
:020B8C00000067
:020B8D00000066
:020B8E00000065
:020B8F00000064
:020B9000000063
:020B9100000062
:020B9200000061
:020B9300000060
:020B940000005F
:020B950000005E
:020B960000005D
:020B970000005C
:020B980000005B
:020B990000005A
:020B9A00000059
:020B9B00000058
:020B9C00000057
:020B9D00000056
:020B9E00000055
:020B9F00000054
:020BA000000053
:020BA100000052
:020BA200000051
:020BA300000050
:020BA40000004F
:020BA50000004E
:020BA60000004D
:020BA70000004C
:020BA80000004B
:020BA90000004A
:020BAA00000049
:020BAB00000048
:020BAC00000047
:020BAD00000046
:020BAE00000045
:020BAF00000044
:020BB000000043
:020BB100000042
:020BB200000041
:020BB300000040
:020BB40000003F
:020BB50000003E
:020BB60000003D
:020BB70000003C
:020BB80000003B
:020BB90000003A
:020BBA00000039
:020BBB00000038
:020BBC00000037
:020BBD00000036
:020BBE00000035
:020BBF00000034
:020BC000000033
:020BC100000032
:020BC200000031
:020BC300000030
:020BC40000002F
:020BC50000002E
:020BC60000002D
:020BC70000002C
:020BC80000002B
:020BC90000002A
:020BCA00000029
:020BCB00000028
:020BCC00000027
:020BCD00000026
:020BCE00000025
:020BCF00000024
:020BD000000023
:020BD100000022
:020BD200000021
:020BD300000020
:020BD40000001F
:020BD50000001E
:020BD60000001D
:020BD70000001C
:020BD80000001B
:020BD90000001A
:020BDA00000019
:020BDB00000018
:020BDC00000017
:020BDD00000016
:020BDE00000015
:020BDF00000014
:020BE000000013
:020BE100000012
:020BE200000011
:020BE300000010
:020BE40000000F
:020BE50000000E
:020BE60000000D
:020BE70000000C
:020BE80000000B
:020BE90000000A
:020BEA00000009
:020BEB00000008
:020BEC00000007
:020BED00000006
:020BEE00000005
:020BEF00000004
:020BF000000003
:020BF100000002
:020BF200000001
:020BF300000000
:020BF4000000FF
:020BF5000000FE
:020BF6000000FD
:020BF7000000FC
:020BF8000000FB
:020BF9000000FA
:020BFA000000F9
:020BFB000000F8
:020BFC000000F7
:020BFD000000F6
:020BFE000000F5
:020BFF000000F4
:020C00000000F2
:020C01000000F1
:020C02000000F0
:020C03000000EF
:020C04000000EE
:020C05000000ED
:020C06000000EC
:020C07000000EB
:020C08000000EA
:020C09000000E9
:020C0A000000E8
:020C0B000000E7
:020C0C000000E6
:020C0D000000E5
:020C0E000000E4
:020C0F000000E3
:020C10000000E2
:020C11000000E1
:020C12000000E0
:020C13000000DF
:020C14000000DE
:020C15000000DD
:020C16000000DC
:020C17000000DB
:020C18000000DA
:020C19000000D9
:020C1A000000D8
:020C1B000000D7
:020C1C000000D6
:020C1D000000D5
:020C1E000000D4
:020C1F000000D3
:020C20000000D2
:020C21000000D1
:020C22000000D0
:020C23000000CF
:020C24000000CE
:020C25000000CD
:020C26000000CC
:020C27000000CB
:020C28000000CA
:020C29000000C9
:020C2A000000C8
:020C2B000000C7
:020C2C000000C6
:020C2D000000C5
:020C2E000000C4
:020C2F000000C3
:020C30000000C2
:020C31000000C1
:020C32000000C0
:020C33000000BF
:020C34000000BE
:020C35000000BD
:020C36000000BC
:020C37000000BB
:020C38000000BA
:020C39000000B9
:020C3A000000B8
:020C3B000000B7
:020C3C000000B6
:020C3D000000B5
:020C3E000000B4
:020C3F000000B3
:020C40000000B2
:020C41000000B1
:020C42000000B0
:020C43000000AF
:020C44000000AE
:020C45000000AD
:020C46000000AC
:020C47000000AB
:020C48000000AA
:020C49000000A9
:020C4A000000A8
:020C4B000000A7
:020C4C000000A6
:020C4D000000A5
:020C4E000000A4
:020C4F000000A3
:020C50000000A2
:020C51000000A1
:020C52000000A0
:020C530000009F
:020C540000009E
:020C550000009D
:020C560000009C
:020C570000009B
:020C580000009A
:020C5900000099
:020C5A00000098
:020C5B00000097
:020C5C00000096
:020C5D00000095
:020C5E00000094
:020C5F00000093
:020C6000000092
:020C6100000091
:020C6200000090
:020C630000008F
:020C640000008E
:020C650000008D
:020C660000008C
:020C670000008B
:020C680000008A
:020C6900000089
:020C6A00000088
:020C6B00000087
:020C6C00000086
:020C6D00000085
:020C6E00000084
:020C6F00000083
:020C7000000082
:020C7100000081
:020C7200000080
:020C730000007F
:020C740000007E
:020C750000007D
:020C760000007C
:020C770000007B
:020C780000007A
:020C7900000079
:020C7A00000078
:020C7B00000077
:020C7C00000076
:020C7D00000075
:020C7E00000074
:020C7F00000073
:020C8000000072
:020C8100000071
:020C8200000070
:020C830000006F
:020C840000006E
:020C850000006D
:020C860000006C
:020C870000006B
:020C880000006A
:020C8900000069
:020C8A00000068
:020C8B00000067
:020C8C00000066
:020C8D00000065
:020C8E00000064
:020C8F00000063
:020C9000000062
:020C9100000061
:020C9200000060
:020C930000005F
:020C940000005E
:020C950000005D
:020C960000005C
:020C970000005B
:020C980000005A
:020C9900000059
:020C9A00000058
:020C9B00000057
:020C9C00000056
:020C9D00000055
:020C9E00000054
:020C9F00000053
:020CA000000052
:020CA100000051
:020CA200000050
:020CA30000004F
:020CA40000004E
:020CA50000004D
:020CA60000004C
:020CA70000004B
:020CA80000004A
:020CA900000049
:020CAA00000048
:020CAB00000047
:020CAC00000046
:020CAD00000045
:020CAE00000044
:020CAF00000043
:020CB000000042
:020CB100000041
:020CB200000040
:020CB30000003F
:020CB40000003E
:020CB50000003D
:020CB60000003C
:020CB70000003B
:020CB80000003A
:020CB900000039
:020CBA00000038
:020CBB00000037
:020CBC00000036
:020CBD00000035
:020CBE00000034
:020CBF00000033
:020CC000000032
:020CC100000031
:020CC200000030
:020CC30000002F
:020CC40000002E
:020CC50000002D
:020CC60000002C
:020CC70000002B
:020CC80000002A
:020CC900000029
:020CCA00000028
:020CCB00000027
:020CCC00000026
:020CCD00000025
:020CCE00000024
:020CCF00000023
:020CD000000022
:020CD100000021
:020CD200000020
:020CD30000001F
:020CD40000001E
:020CD50000001D
:020CD60000001C
:020CD70000001B
:020CD80000001A
:020CD900000019
:020CDA00000018
:020CDB00000017
:020CDC00000016
:020CDD00000015
:020CDE00000014
:020CDF00000013
:020CE000000012
:020CE100000011
:020CE200000010
:020CE30000000F
:020CE40000000E
:020CE50000000D
:020CE60000000C
:020CE70000000B
:020CE80000000A
:020CE900000009
:020CEA00000008
:020CEB00000007
:020CEC00000006
:020CED00000005
:020CEE00000004
:020CEF00000003
:020CF000000002
:020CF100000001
:020CF200000000
:020CF3000000FF
:020CF4000000FE
:020CF5000000FD
:020CF6000000FC
:020CF7000000FB
:020CF8000000FA
:020CF9000000F9
:020CFA000000F8
:020CFB000000F7
:020CFC000000F6
:020CFD000000F5
:020CFE000000F4
:020CFF000000F3
:020D00000000F1
:020D01000000F0
:020D02000000EF
:020D03000000EE
:020D04000000ED
:020D05000000EC
:020D06000000EB
:020D07000000EA
:020D08000000E9
:020D09000000E8
:020D0A000000E7
:020D0B000000E6
:020D0C000000E5
:020D0D000000E4
:020D0E000000E3
:020D0F000000E2
:020D10000000E1
:020D11000000E0
:020D12000000DF
:020D13000000DE
:020D14000000DD
:020D15000000DC
:020D16000000DB
:020D17000000DA
:020D18000000D9
:020D19000000D8
:020D1A000000D7
:020D1B000000D6
:020D1C000000D5
:020D1D000000D4
:020D1E000000D3
:020D1F000000D2
:020D20000000D1
:020D21000000D0
:020D22000000CF
:020D23000000CE
:020D24000000CD
:020D25000000CC
:020D26000000CB
:020D27000000CA
:020D28000000C9
:020D29000000C8
:020D2A000000C7
:020D2B000000C6
:020D2C000000C5
:020D2D000000C4
:020D2E000000C3
:020D2F000000C2
:020D30000000C1
:020D31000000C0
:020D32000000BF
:020D33000000BE
:020D34000000BD
:020D35000000BC
:020D36000000BB
:020D37000000BA
:020D38000000B9
:020D39000000B8
:020D3A000000B7
:020D3B000000B6
:020D3C000000B5
:020D3D000000B4
:020D3E000000B3
:020D3F000000B2
:020D40000000B1
:020D41000000B0
:020D42000000AF
:020D43000000AE
:020D44000000AD
:020D45000000AC
:020D46000000AB
:020D47000000AA
:020D48000000A9
:020D49000000A8
:020D4A000000A7
:020D4B000000A6
:020D4C000000A5
:020D4D000000A4
:020D4E000000A3
:020D4F000000A2
:020D50000000A1
:020D51000000A0
:020D520000009F
:020D530000009E
:020D540000009D
:020D550000009C
:020D560000009B
:020D570000009A
:020D5800000099
:020D5900000098
:020D5A00000097
:020D5B00000096
:020D5C00000095
:020D5D00000094
:020D5E00000093
:020D5F00000092
:020D6000000091
:020D6100000090
:020D620000008F
:020D630000008E
:020D640000008D
:020D650000008C
:020D660000008B
:020D670000008A
:020D6800000089
:020D6900000088
:020D6A00000087
:020D6B00000086
:020D6C00000085
:020D6D00000084
:020D6E00000083
:020D6F00000082
:020D7000000081
:020D7100000080
:020D720000007F
:020D730000007E
:020D740000007D
:020D750000007C
:020D760000007B
:020D770000007A
:020D7800000079
:020D7900000078
:020D7A00000077
:020D7B00000076
:020D7C00000075
:020D7D00000074
:020D7E00000073
:020D7F00000072
:020D8000000071
:020D8100000070
:020D820000006F
:020D830000006E
:020D840000006D
:020D850000006C
:020D860000006B
:020D870000006A
:020D8800000069
:020D8900000068
:020D8A00000067
:020D8B00000066
:020D8C00000065
:020D8D00000064
:020D8E00000063
:020D8F00000062
:020D9000000061
:020D9100000060
:020D920000005F
:020D930000005E
:020D940000005D
:020D950000005C
:020D960000005B
:020D970000005A
:020D9800000059
:020D9900000058
:020D9A00000057
:020D9B00000056
:020D9C00000055
:020D9D00000054
:020D9E00000053
:020D9F00000052
:020DA000000051
:020DA100000050
:020DA20000004F
:020DA30000004E
:020DA40000004D
:020DA50000004C
:020DA60000004B
:020DA70000004A
:020DA800000049
:020DA900000048
:020DAA00000047
:020DAB00000046
:020DAC00000045
:020DAD00000044
:020DAE00000043
:020DAF00000042
:020DB000000041
:020DB100000040
:020DB20000003F
:020DB30000003E
:020DB40000003D
:020DB50000003C
:020DB60000003B
:020DB70000003A
:020DB800000039
:020DB900000038
:020DBA00000037
:020DBB00000036
:020DBC00000035
:020DBD00000034
:020DBE00000033
:020DBF00000032
:020DC000000031
:020DC100000030
:020DC20000002F
:020DC30000002E
:020DC40000002D
:020DC50000002C
:020DC60000002B
:020DC70000002A
:020DC800000029
:020DC900000028
:020DCA00000027
:020DCB00000026
:020DCC00000025
:020DCD00000024
:020DCE00000023
:020DCF00000022
:020DD000000021
:020DD100000020
:020DD20000001F
:020DD30000001E
:020DD40000001D
:020DD50000001C
:020DD60000001B
:020DD70000001A
:020DD800000019
:020DD900000018
:020DDA00000017
:020DDB00000016
:020DDC00000015
:020DDD00000014
:020DDE00000013
:020DDF00000012
:020DE000000011
:020DE100000010
:020DE20000000F
:020DE30000000E
:020DE40000000D
:020DE50000000C
:020DE60000000B
:020DE70000000A
:020DE800000009
:020DE900000008
:020DEA00000007
:020DEB00000006
:020DEC00000005
:020DED00000004
:020DEE00000003
:020DEF00000002
:020DF000000001
:020DF100000000
:020DF2000000FF
:020DF3000000FE
:020DF4000000FD
:020DF5000000FC
:020DF6000000FB
:020DF7000000FA
:020DF8000000F9
:020DF9000000F8
:020DFA000000F7
:020DFB000000F6
:020DFC000000F5
:020DFD000000F4
:020DFE000000F3
:020DFF000000F2
:020E00000000F0
:020E01000000EF
:020E02000000EE
:020E03000000ED
:020E04000000EC
:020E05000000EB
:020E06000000EA
:020E07000000E9
:020E08000000E8
:020E09000000E7
:020E0A000000E6
:020E0B000000E5
:020E0C000000E4
:020E0D000000E3
:020E0E000000E2
:020E0F000000E1
:020E10000000E0
:020E11000000DF
:020E12000000DE
:020E13000000DD
:020E14000000DC
:020E15000000DB
:020E16000000DA
:020E17000000D9
:020E18000000D8
:020E19000000D7
:020E1A000000D6
:020E1B000000D5
:020E1C000000D4
:020E1D000000D3
:020E1E000000D2
:020E1F000000D1
:020E20000000D0
:020E21000000CF
:020E22000000CE
:020E23000000CD
:020E24000000CC
:020E25000000CB
:020E26000000CA
:020E27000000C9
:020E28000000C8
:020E29000000C7
:020E2A000000C6
:020E2B000000C5
:020E2C000000C4
:020E2D000000C3
:020E2E000000C2
:020E2F000000C1
:020E30000000C0
:020E31000000BF
:020E32000000BE
:020E33000000BD
:020E34000000BC
:020E35000000BB
:020E36000000BA
:020E37000000B9
:020E38000000B8
:020E39000000B7
:020E3A000000B6
:020E3B000000B5
:020E3C000000B4
:020E3D000000B3
:020E3E000000B2
:020E3F000000B1
:020E40000000B0
:020E41000000AF
:020E42000000AE
:020E43000000AD
:020E44000000AC
:020E45000000AB
:020E46000000AA
:020E47000000A9
:020E48000000A8
:020E49000000A7
:020E4A000000A6
:020E4B000000A5
:020E4C000000A4
:020E4D000000A3
:020E4E000000A2
:020E4F000000A1
:020E50000000A0
:020E510000009F
:020E520000009E
:020E530000009D
:020E540000009C
:020E550000009B
:020E560000009A
:020E5700000099
:020E5800000098
:020E5900000097
:020E5A00000096
:020E5B00000095
:020E5C00000094
:020E5D00000093
:020E5E00000092
:020E5F00000091
:020E6000000090
:020E610000008F
:020E620000008E
:020E630000008D
:020E640000008C
:020E650000008B
:020E660000008A
:020E6700000089
:020E6800000088
:020E6900000087
:020E6A00000086
:020E6B00000085
:020E6C00000084
:020E6D00000083
:020E6E00000082
:020E6F00000081
:020E7000000080
:020E710000007F
:020E720000007E
:020E730000007D
:020E740000007C
:020E750000007B
:020E760000007A
:020E7700000079
:020E7800000078
:020E7900000077
:020E7A00000076
:020E7B00000075
:020E7C00000074
:020E7D00000073
:020E7E00000072
:020E7F00000071
:020E8000000070
:020E810000006F
:020E820000006E
:020E830000006D
:020E840000006C
:020E850000006B
:020E860000006A
:020E8700000069
:020E8800000068
:020E8900000067
:020E8A00000066
:020E8B00000065
:020E8C00000064
:020E8D00000063
:020E8E00000062
:020E8F00000061
:020E9000000060
:020E910000005F
:020E920000005E
:020E930000005D
:020E940000005C
:020E950000005B
:020E960000005A
:020E9700000059
:020E9800000058
:020E9900000057
:020E9A00000056
:020E9B00000055
:020E9C00000054
:020E9D00000053
:020E9E00000052
:020E9F00000051
:020EA000000050
:020EA10000004F
:020EA20000004E
:020EA30000004D
:020EA40000004C
:020EA50000004B
:020EA60000004A
:020EA700000049
:020EA800000048
:020EA900000047
:020EAA00000046
:020EAB00000045
:020EAC00000044
:020EAD00000043
:020EAE00000042
:020EAF00000041
:020EB000000040
:020EB10000003F
:020EB20000003E
:020EB30000003D
:020EB40000003C
:020EB50000003B
:020EB60000003A
:020EB700000039
:020EB800000038
:020EB900000037
:020EBA00000036
:020EBB00000035
:020EBC00000034
:020EBD00000033
:020EBE00000032
:020EBF00000031
:020EC000000030
:020EC10000002F
:020EC20000002E
:020EC30000002D
:020EC40000002C
:020EC50000002B
:020EC60000002A
:020EC700000029
:020EC800000028
:020EC900000027
:020ECA00000026
:020ECB00000025
:020ECC00000024
:020ECD00000023
:020ECE00000022
:020ECF00000021
:020ED000000020
:020ED10000001F
:020ED20000001E
:020ED30000001D
:020ED40000001C
:020ED50000001B
:020ED60000001A
:020ED700000019
:020ED800000018
:020ED900000017
:020EDA00000016
:020EDB00000015
:020EDC00000014
:020EDD00000013
:020EDE00000012
:020EDF00000011
:020EE000000010
:020EE10000000F
:020EE20000000E
:020EE30000000D
:020EE40000000C
:020EE50000000B
:020EE60000000A
:020EE700000009
:020EE800000008
:020EE900000007
:020EEA00000006
:020EEB00000005
:020EEC00000004
:020EED00000003
:020EEE00000002
:020EEF00000001
:020EF000000000
:020EF1000000FF
:020EF2000000FE
:020EF3000000FD
:020EF4000000FC
:020EF5000000FB
:020EF6000000FA
:020EF7000000F9
:020EF8000000F8
:020EF9000000F7
:020EFA000000F6
:020EFB000000F5
:020EFC000000F4
:020EFD000000F3
:020EFE000000F2
:020EFF000000F1
:020F00000000EF
:020F01000000EE
:020F02000000ED
:020F03000000EC
:020F04000000EB
:020F05000000EA
:020F06000000E9
:020F07000000E8
:020F08000000E7
:020F09000000E6
:020F0A000000E5
:020F0B000000E4
:020F0C000000E3
:020F0D000000E2
:020F0E000000E1
:020F0F000000E0
:020F10000000DF
:020F11000000DE
:020F12000000DD
:020F13000000DC
:020F14000000DB
:020F15000000DA
:020F16000000D9
:020F17000000D8
:020F18000000D7
:020F19000000D6
:020F1A000000D5
:020F1B000000D4
:020F1C000000D3
:020F1D000000D2
:020F1E000000D1
:020F1F000000D0
:020F20000000CF
:020F21000000CE
:020F22000000CD
:020F23000000CC
:020F24000000CB
:020F25000000CA
:020F26000000C9
:020F27000000C8
:020F28000000C7
:020F29000000C6
:020F2A000000C5
:020F2B000000C4
:020F2C000000C3
:020F2D000000C2
:020F2E000000C1
:020F2F000000C0
:020F30000000BF
:020F31000000BE
:020F32000000BD
:020F33000000BC
:020F34000000BB
:020F35000000BA
:020F36000000B9
:020F37000000B8
:020F38000000B7
:020F39000000B6
:020F3A000000B5
:020F3B000000B4
:020F3C000000B3
:020F3D000000B2
:020F3E000000B1
:020F3F000000B0
:020F40000000AF
:020F41000000AE
:020F42000000AD
:020F43000000AC
:020F44000000AB
:020F45000000AA
:020F46000000A9
:020F47000000A8
:020F48000000A7
:020F49000000A6
:020F4A000000A5
:020F4B000000A4
:020F4C000000A3
:020F4D000000A2
:020F4E000000A1
:020F4F000000A0
:020F500000009F
:020F510000009E
:020F520000009D
:020F530000009C
:020F540000009B
:020F550000009A
:020F5600000099
:020F5700000098
:020F5800000097
:020F5900000096
:020F5A00000095
:020F5B00000094
:020F5C00000093
:020F5D00000092
:020F5E00000091
:020F5F00000090
:020F600000008F
:020F610000008E
:020F620000008D
:020F630000008C
:020F640000008B
:020F650000008A
:020F6600000089
:020F6700000088
:020F6800000087
:020F6900000086
:020F6A00000085
:020F6B00000084
:020F6C00000083
:020F6D00000082
:020F6E00000081
:020F6F00000080
:020F700000007F
:020F710000007E
:020F720000007D
:020F730000007C
:020F740000007B
:020F750000007A
:020F7600000079
:020F7700000078
:020F7800000077
:020F7900000076
:020F7A00000075
:020F7B00000074
:020F7C00000073
:020F7D00000072
:020F7E00000071
:020F7F00000070
:020F800000006F
:020F810000006E
:020F820000006D
:020F830000006C
:020F840000006B
:020F850000006A
:020F8600000069
:020F8700000068
:020F8800000067
:020F8900000066
:020F8A00000065
:020F8B00000064
:020F8C00000063
:020F8D00000062
:020F8E00000061
:020F8F00000060
:020F900000005F
:020F910000005E
:020F920000005D
:020F930000005C
:020F940000005B
:020F950000005A
:020F9600000059
:020F9700000058
:020F9800000057
:020F9900000056
:020F9A00000055
:020F9B00000054
:020F9C00000053
:020F9D00000052
:020F9E00000051
:020F9F00000050
