:0100000006F9
:0100010006F8
:0100020003FA
:0100030008F4
:0100040003F8
:0100050006F4
:0100060005F4
:010007000BED
:0100080004F3
:0100090006F0
:01000A0006EF
:01000B0001F3
:01000C0000F3
:01000D0009E9
:01000E0005EC
:01000F0005EB
:010010000DE2
:0100110007E7
:010012000AE3
:0100130002EA
:0100140012D9
:0100150000EA
:0100160009E0
:0100170007E1
:0100180005E2
:0100190000E6
:01001A0005E0
:01001B0009DB
:01001C0009DA
:01001D0006DC
:01001E0003DE
:01001F0005DB
:0100200012CD
:0100210001DD
:0100220000DD
:0100230005D7
:0100240002D9
:0100250008D2
:0100260002D7
:0100270000D8
:0100280014C3
:0100290000D6
:01002A0012C3
:01002B0000D4
:01002C000CC7
:01002D0000D2
:01002E000CC5
:01002F0008C8
:0100300005CA
:0100310001CD
:0100320011BC
:0100330000CC
:0100340006C5
:0100350006C4
:0100360000C9
:0100370004C4
:0100380002C5
:0100390013B3
:01003A0001C4
:01003B0000C4
:01003C0001C2
:01003D000EB4
:01003E0003BE
:01003F0006BA
:0100400008B7
:010041000FAF
:0100420001BC
:0100430004B8
:0100440000BB
:0100450003B7
:0100460001B8
:0100470005B3
:0100480003B4
:010049000EA8
:01004A0001B4
:01004B000BA9
:01004C0005AE
:01004D0006AC
:01004E0009A8
:01004F0009A7
:0100500007A8
:010051000AA4
:0100520008A5
:0100530003A9
:0100540006A5
:0100550000AA
:0100560004A5
:010057000B9D
:0100580000A7
:010059000B9B
:01005A0004A1
:01005B000B99
:01005C00099A
:01005D000999
:01005E0001A0
:01005F000A96
:010060000699
:010061000797
:01006200009D
:010063000696
:01006400019A
:010065000694
:010066000297
:010067001484
:010068000097
:010069000294
:01006A000095
:01006B000C88
:01006C00058E
:01006D000B87
:01006E000091
:01006F000C84
:010070000689
:010071000886
:01007200008D
:010073000A82
:010074000388
:010075000288
:010076000287
:010077000385
:010078000582
:01007900097D
:01007A000481
:01007B000480
:01007C00067D
:01007D00037F
:01007E000081
:01007F00067A
:010080000679
:01008100037B
:01008200017C
:010083000874
:01008400007B
:010085000C6E
:010086000079
:010087001365
:010088000077
:010089000670
:01008A00076E
:01008B00096B
:01008C000073
:01008D00046E
:01008E00076A
:01008F00125E
:01009000006F
:01009100125C
:01009200006D
:01009300105C
:010094000269
:010095000961
:010096000267
:010097000E5A
:010098000562
:010099000F57
:01009A000065
:01009B00085C
:01009C00075C
:01009D000062
:01009E000160
:01009F000E52
:0100A0000758
:0100A1000A54
:0100A2000459
:0100A3000A52
:0100A400015A
:0100A5000A50
:0100A6000554
:0100A7000850
:0100A8000651
:0100A900074F
:0100AA000055
:0100AB000153
:0100AC00054E
:0100AD000C46
:0100AE00064B
:0100AF000749
:0100B000004F
:0100B100024C
:0100B200024B
:0100B3000E3E
:0100B4000843
:0100B5000E3C
:0100B6000841
:0100B7001137
:0100B8000641
:0100B9000D39
:0100BA000342
:0100BB00093B
:0100BC000043
:0100BD000042
:0100BE00063B
:0100BF000739
:0100C0000A35
:0100C100013D
:0100C2000538
:0100C3000933
:0100C4001427
:0100C5000238
:0100C6000534
:0100C7000038
:0100C8000532
:0100C9000036
:0100CA00062F
:0100CB000034
:0100CC000132
:0100CD000230
:0100CE00022F
:0100CF000030
:0100D0000926
:0100D1000727
:0100D2000B22
:0100D3000626
:0100D4001219
:0100D5000327
:0100D6001217
:0100D7000127
:0100D8000B1C
:0100D9000026
:0100DA000D18
:0100DB00071D
:0100DC000B18
:0100DD00081A
:0100DE000D14
:0100DF00021E
:0100E000031C
:0100E100001E
:0100E2000914
:0100E3000418
:0100E4000714
:0100E500001A
:0100E6000712
:0100E7000711
:0100E8000314
:0100E9000016
:0100EA000312
:0100EB000410
:0100EC000D06
:0100ED000909
:0100EE00050C
:0100EF00010F
:0100F0000A05
:0100F100000E
:0100F200010C
:0100F3000408
:0100F400000B
:0100F5000208
:0100F6000900
:0100F7000503
:0100F80011F6
:0100F9000105
:0100FA000EF7
:0100FB000301
:0100FC000FF4
:0100FD0009F9
:0100FE0011F0
:0100FF0003FD
:0101000007F7
:0101010001FC
:010102000AF2
:0101030000FB
:010104000FEB
:0101050003F6
:010106000CEC
:0101070006F1
:010108000EE8
:0101090001F4
:01010A000DE7
:01010B0007EC
:01010C000CE6
:01010D0006EB
:01010E0006EA
:01010F0007E8
:0101100007E7
:0101110008E5
:0101120007E5
:0101130000EB
:010114000FDB
:0101150000E9
:010116000FD9
:0101170007E0
:010118000FD7
:0101190000E5
:01011A0008DC
:01011B0000E3
:01011C0003DF
:01011D0000E1
:01011E0009D7
:01011F000AD5
:0101200007D7
:0101210005D8
:010122000ECE
:0101230002D9
:0101240000DA
:0101250004D5
:0101260009CF
:0101270000D7
:0101280012C4
:0101290000D5
:01012A0008CC
:01012B0008CB
:01012C000BC7
:01012D0007CA
:01012E000CC4
:01012F0006C9
:010130000FBF
:0101310005C8
:0101320009C3
:0101330007C4
:010134000EBC
:0101350002C7
:0101360005C3
:0101370009BE
:010138000CBA
:0101390009BC
:01013A0003C1
:01013B0006BD
:01013C000CB6
:01013D0001C0
:01013E000CB4
:01013F0001BE
:010140000AB4
:0101410003BA
:010142000AB2
:0101430000BB
:0101440006B4
:0101450006B3
:0101460005B3
:0101470004B3
:010148000BAB
:0101490007AE
:01014A0003B1
:01014B0002B1
:01014C0003AF
:01014D0008A9
:01014E0010A0
:01014F0007A8
:01015000129C
:0101510000AD
:01015200129A
:0101530003A8
:010154001298
:0101550000A9
:0101560005A3
:0101570006A1
:010158000A9C
:01015900089D
:01015A000F95
:01015B0003A0
:01015C000F93
:01015D00029F
:01015E000898
:01015F000897
:010160000F8F
:010161000499
:010162000D8F
:010163000794
:010164001288
:010165000198
:010166000E8A
:010167000196
:010168000492
:010169000194
:01016A000A8A
:01016B000093
:01016C000F83
:01016D00038E
:01016E000F81
:01016F00038C
:010170000F7F
:01017100008D
:010172000488
:010173000289
:010174000E7C
:010175000683
:010176001177
:010177000186
:010178001076
:01017900077E
:01017A000C78
:01017B00047F
:01017C000A78
:01017D00027F
:01017E000F71
:01017F00007F
:010180000678
:01018100017C
:010182000676
:01018300007B
:010184000872
:010185000970
:010186000672
:010187000077
:010188001066
:010189000075
:01018A000E66
:01018B000172
:01018C00056D
:01018D00046D
:01018E001060
:01018F00006F
:010190000A64
:010191000964
:010192000963
:010193000368
:010194000664
:010195000861
:010196000068
:010197000E59
:010198000561
:01019900095C
:01019A000064
:01019B000360
:01019C00035F
:01019D00144D
:01019E000060
:01019F000857
:0101A0000658
:0101A1000954
:0101A200015B
:0101A3000952
:0101A4000753
:0101A5000D4C
:0101A6000751
:0101A7000E49
:0101A8000254
:0101A9001243
:0101AA00064E
:0101AB001241
:0101AC00074B
:0101AD00123F
:0101AE000050
:0101AF000946
:0101B000004E
:0101B100113C
:0101B200014B
:0101B3000E3D
:0101B4000644
:0101B5000346
:0101B600093F
:0101B7000C3B
:0101B8000640
:0101B900063F
:0101BA000143
:0101BB000A39
:0101BC00053D
:0101BD00053C
:0101BE000040
:0101BF00003F
:0101C000013D
:0101C1000637
:0101C2000438
:0101C300013A
:0101C4000535
:0101C5000039
:0101C6000335
:0101C7000235
:0101C8000630
:0101C9000E27
:0101CA000034
:0101CB000E25
:0101CC000032
:0101CD000031
:0101CE000030
:0101CF00052A
:0101D000032B
:0101D1000627
:0101D200002C
:0101D3000D1E
:0101D4000723
:0101D5000920
:0101D6000127
:0101D7000D1A
:0101D8000521
:0101D9001015
:0101DA000420
:0101DB000023
:0101DC00051D
:0101DD000C15
:0101DE00021E
:0101DF000F10
:0101E000001E
:0101E1000C11
:0101E2000B11
:0101E3000912
:0101E4000812
:0101E5000C0D
:0101E6000315
:0101E7000611
:0101E800070F
:0101E9000C09
:0101EA000A0A
:0101EB001003
:0101EC00040E
:0101ED00020F
:0101EE00050B
:0101EF000A05
:0101F0000806
:0101F1000607
:0101F2000606
:0101F300000B
:0101F4000109
:0101F5000306
:0101F6000305
:0101F7000007
:0101F8000AFC
:0101F90008FD
:0101FA0005FF
:0101FB000003
:0101FC000EF4
:0101FD0009F8
:0101FE000EF2
:0101FF0001FE
:010200000FEE
:0102010000FC
:0102020011EA
:0102030002F8
:0102040003F6
:0102050009EF
:0102060012E5
:0102070000F6
:0102080004F1
:0102090002F2
:01020A000EE5
:01020B0000F2
:01020C0012DF
:01020D0005EB
:01020E0015DA
:01020F0006E8
:0102100008E5
:0102110007E5
:0102120015D6
:010213000AE0
:010214000FDA
:0102150000E8
:010216000BDC
:0102170007DF
:010218000CD9
:0102190006DE
:01021A000ED5
:01021B0006DC
:01021C0003DE
:01021D0003DD
:01021E0000DF
:01021F000AD4
:010220000BD2
:0102210006D6
:0102220010CB
:0102230003D7
:0102240010C9
:0102250000D8
:010226000ACD
:0102270000D6
:010228000DC8
:0102290007CD
:01022A0005CE
:01022B0000D2
:01022C0006CB
:01022D0003CD
:01022E0008C7
:01022F0002CC
:010230000FBE
:0102310003C9
:0102320011BA
:0102330001C9
:0102340013B6
:0102350001C7
:0102360004C3
:0102370006C0
:010238000FB6
:0102390000C4
:01023A000FB4
:01023B0003BF
:01023C0008B9
:01023D0006BA
:01023E0005BA
:01023F000AB4
:010240000AB3
:0102410000BC
:010242000FAC
:0102430000BA
:010244000CAD
:0102450009AF
:010246000CAB
:0102470006B0
:010248000FA6
:0102490000B4
:01024A000BA8
:01024B0006AC
:01024C000AA7
:01024D0000B0
:01024E0003AC
:01024F0003AB
:0102500000AD
:0102510000AC
:010252000C9F
:0102530002A8
:0102540007A2
:0102550000A8
:0102560003A4
:0102570006A0
:0102580005A0
:010259000B99
:01025A0000A3
:01025B001290
:01025C00039E
:01025D000997
:01025E00009F
:01025F000D91
:01026000009D
:010261000D8F
:010262000497
:010263000D8D
:010264000594
:010265000791
:010266000691
:010267000E88
:010268000491
:010269000B89
:01026A000093
:01026B000D85
:01026C00028F
:01026D000A86
:01026E000887
:01026F000E80
:010270000687
:010271000884
:010272000784
:010273000882
:010274000584
:010275000385
:010276000087
:010277000581
:010278000085
:010279000381
:01027A000182
:01027B00057D
:01027C000180
:01027D00017F
:01027E00037C
:01027F000678
:010280000677
:010281000E6E
:01028200017A
:010283000B6F
:010284000A6F
:010285000B6D
:010286000770
:010287000C6A
:010288000273
:010289000E66
:01028A00066D
:01028B000E64
:01028C000071
:01028D00056B
:01028E00016E
:01028F000D61
:010290000766
:010291000C60
:01029200006B
:010293000763
:010294000762
:010295000860
:010296000166
:010297000D59
:010298000560
:010299000E56
:01029A00045F
:01029B000C56
:01029C000958
:01029D000B55
:01029E00055A
:01029F000856
:0102A000015C
:0102A1000953
:0102A2000358
:0102A3000C4E
:0102A4000851
:0102A5000256
:0102A6000057
:0102A7000E48
:0102A8000253
:0102A9000252
:0102AA00064D
:0102AB00054D
:0102AC000150
:0102AD000749
:0102AE00034C
:0102AF000945
:0102B000024B
:0102B100123A
:0102B2000348
:0102B3001436
:0102B4000247
:0102B5000147
:0102B6000047
:0102B7001333
:0102B8000045
:0102B9001232
:0102BA000043
:0102BB00073B
:0102BC000041
:0102BD000A36
:0102BE000837
:0102BF00043A
:0102C000023B
:0102C1000735
:0102C2000338
:0102C300102A
:0102C4000534
:0102C5000A2E
:0102C6000433
:0102C7000234
:0102C800062F
:0102C9000133
:0102CA000C27
:0102CB000032
:0102CC000F22
:0102CD00052B
:0102CE000827
:0102CF00012D
:0102D000111C
:0102D1000824
:0102D200111A
:0102D3000723
:0102D4000F1A
:0102D5000226
:0102D6000A1D
:0102D7000026
:0102D8001411
:0102D9000123
:0102DA000F14
:0102DB000022
:0102DC001011
:0102DD00021E
:0102DE000A15
:0102DF00011D
:0102E0000B12
:0102E1000319
:0102E2000318
:0102E3000A10
:0102E4000316
:0102E5000018
:0102E6000C0B
:0102E700080E
:0102E8000A0B
:0102E900090B
:0102EA00040F
:0102EB000012
:0102EC000908
:0102ED000808
:0102EE000D02
:0102EF000509
:0102F000000D
:0102F100010B
:0102F20013F8
:0102F300000A
:0102F40010F9
:0102F5000008
:0102F6000CFB
:0102F70007FF
:0102F80009FC
:0102F9000004
:0102FA000102
:0102FB000101
:0102FC000DF4
:0102FD000000
:0102FE000CF3
:0102FF0004FA
:010300000FED
:0103010001FA
:0103020003F7
:0103030002F7
:010304000DEB
:0103050001F6
:0103060003F3
:0103070007EE
:010308000CE8
:0103090000F3
:01030A000DE5
:01030B0000F1
:01030C000FE1
:01030D0000EF
:01030E000DE1
:01030F0005E8
:0103100000EC
:0103110002E9
:0103120000EA
:0103130001E8
:010314000FD9
:0103150000E7
:0103160006E0
:0103170008DD
:010318000ADA
:0103190008DB
:01031A000CD6
:01031B0006DB
:01031C000DD3
:01031D0001DE
:01031E000FCF
:01031F0006D7
:010320000DCF
:0103210005D6
:0103220006D4
:0103230000D9
:010324000BCD
:0103250009CE
:010326000ACC
:0103270008CD
:0103280003D1
:010329000AC9
:01032A0004CE
:01032B0009C8
:01032C0005CB
:01032D0002CD
:01032E000DC1
:01032F0008C5
:010330000CC0
:0103310002C9
:0103320007C3
:0103330003C6
:010334000BBD
:0103350000C7
:0103360003C3
:0103370001C4
:010338000BB9
:0103390009BA
:01033A0009B9
:01033B0001C0
:01033C0006BA
:01033D0001BE
:01033E0008B6
:01033F0002BB
:010340000BB1
:0103410007B4
:010342000BAF
:0103430005B4
:010344000BAD
:0103450005B2
:0103460004B2
:0103470002B3
:0103480007AD
:0103490009AA
:01034A0002B0
:01034B0008A9
:01034C0003AD
:01034D0008A7
:01034E0000AE
:01034F0006A7
:0103500000AC
:010351001497
:0103520000AA
:0103530000A9
:0103540000A8
:010355000E99
:0103560000A6
:0103570001A4
:01035800059F
:01035900049F
:01035A00089A
:01035B00069B
:01035C00029E
:01035D000B94
:01035E00029C
:01035F000598
:010360000993
:010361000893
:010362000694
:010363000A8F
:010364000098
:010365001285
:010366000294
:010367000392
:010368000292
:010369000D86
:01036A00068C
:01036B000988
:01036C000789
:01036D00127D
:01036E000985
:01036F000687
:01037000008C
:010371000D7E
:01037200008A
:010373000D7C
:010374000583
:010375000B7C
:010376000482
:01037700067F
:010378000084
:010379000C77
:01037A000082
:01037B000C75
:01037C00057B
:01037D00057A
:01037E000579
:01037F00037A
:010380000775
:010381000D6E
:010382000278
:010383001366
:010384000177
:010385000572
:010386000076
:010387000273
:01038800056F
:010389000172
:01038A00036F
:01038B000869
:01038C00066A
:01038D000A65
:01038E00016D
:01038F000865
:010390000369
:010391000566
:010392000466
:010393000663
:010394000761
:010395000067
:010396000066
:010397000362
:010398000262
:01039900075C
:01039A00055D
:01039B000A57
:01039C000957
:01039D00124D
:01039E00045A
:01039F000A53
:0103A0000953
:0103A1000B50
:0103A2000753
:0103A3000455
:0103A4000256
:0103A5000D4A
:0103A600074F
:0103A7000352
:0103A8000153
:0103A900084B
:0103AA00034F
:0103AB00054C
:0103AC000848
:0103AD000946
:0103AE00004E
:0103AF000647
:0103B000004C
:0103B1000D3E
:0103B2000545
:0103B3000148
:0103B400093F
:0103B500093E
:0103B6000541
:0103B7000441
:0103B8000044
:0103B9001033
:0103BA000939
:0103BB000839
:0103BC000838
:0103BD000A35
:0103BE000737
:0103BF000538
:0103C000023A
:0103C1001229
:0103C2000139
:0103C3000633
:0103C400092F
:0103C5000A2D
:0103C6000630
:0103C700082D
:0103C8000133
:0103C900092A
:0103CA00062C
:0103CB001120
:0103CC00022E
:0103CD000728
:0103CE00012D
:0103CF00012C
:0103D0000923
:0103D1000328
:0103D200101A
:0103D3000029
:0103D4001018
:0103D5000027
:0103D600081E
:0103D7000520
:0103D8000420
:0103D9000023
:0103DA00061C
:0103DB000021
:0103DC00140C
:0103DD000817
:0103DE000618
:0103DF00001D
:0103E0000616
:0103E100001B
:0103E2001406
:0103E3000019
:0103E4000F09
:0103E5000017
:0103E6000D09
:0103E7000510
:0103E800050F
:0103E9000310
:0103EA00060C
:0103EB00060B
:0103EC000A06
:0103ED00010E
:0103EE000B03
:0103EF000508
:0103F0000C00
:0103F1000506
:0103F2000DFD
:0103F3000009
:0103F4000800
:0103F5000106
:0103F6000204
:0103F7000203
:0103F80011F3
:0103F9000102
:0103FA0007FB
:0103FB000001
:0103FC000FF1
:0103FD0001FE
:0103FE0009F5
:0103FF0000FD
:0104000010EB
:0104010004F6
:0104020007F2
:0104030009EF
:010404000CEB
:0104050008EE
:010406000FE6
:0104070003F1
:010408000FE4
:0104090001F1
:01040A000FE2
:01040B0006EA
:01040C000AE5
:01040D0006E8
:01040E000BE2
:01040F0006E6
:010410000BE0
:0104110009E1
:0104120003E6
:0104130002E6
:0104140003E4
:0104150003E3
:0104160004E1
:0104170000E4
:010418000AD9
:0104190000E2
:01041A0005DC
:01041B0008D8
:01041C000BD4
:01041D0005D9
:01041E0005D8
:01041F000AD2
:010420000AD1
:0104210007D3
:0104220001D8
:0104230000D8
:010424000CCB
:0104250002D4
:010426000CC9
:0104270001D3
:010428000CC7
:0104290000D2
:01042A0005CC
:01042B0006CA
:01042C000EC1
:01042D0005C9
:01042E0009C4
:01042F0001CB
:0104300008C3
:0104310003C7
:010432000CBD
:0104330000C8
:0104340008BF
:0104350004C2
:010436000CB9
:0104370009BB
:0104380009BA
:0104390001C1
:01043A0008B9
:01043B0003BD
:01043C0007B8
:01043D000AB4
:01043E000AB3
:01043F0003B9
:010440000CAF
:0104410003B7
:010442000AAF
:0104430005B3
:0104440007B0
:0104450006B0
:010446000CA9
:0104470002B2
:0104480000B3
:0104490000B2
:01044A0000B1
:01044B0005AB
:01044C0001AE
:01044D0009A5
:01044E0002AB
:01044F0005A7
:0104500004A7
:0104510002A8
:0104520007A2
:0104530000A8
:0104540002A5
:0104550003A3
:01045600069F
:01045700099B
:010458000F94
:01045900089A
:01045A00039E
:01045B00029E
:01045C00138C
:01045D00019D
:01045E000E8F
:01045F000498
:010460000E8D
:010461000694
:010462000E8B
:010463000494
:010464000097
:010465000195
:010466001481
:010467000094
:01046800088B
:01046900078B
:01046A001081
:01046B00058B
:01046C000B84
:01046D000A84
:01046E000A83
:01046F000785
:010470000E7D
:010471000585
:010472000C7D
:010473000682
:010474000B7C
:010475000185
:010476000F76
:01047700097B
:010478000A79
:01047900037F
:01047A001071
:01047B000779
:01047C000F70
:01047D00007E
:01047E000D70
:01047F00027A
:010480000576
:010481000179
:010482000574
:010483000177
:010484000E69
:010485000472
:010486000E67
:010487000470
:010488001261
:010489000171
:01048A00026F
:01048B000070
:01048C000C63
:01048D00036B
:01048E00105D
:01048F000369
:010490000962
:010491000961
:010492000F5A
:010493000761
:010494001156
:010495000363
:010496000362
:010497000064
:010498000261
:010499000062
:01049A000D54
:01049B00055B
:01049C00055A
:01049D000559
:01049E00124B
:01049F00005C
:0104A0000358
:0104A1000258
:0104A2000257
:0104A3000553
:0104A4000651
:0104A5000650
:0104A6000D48
:0104A700054F
:0104A800064D
:0104A9000052
:0104AA00123F
:0104AB000050
:0104AC000C43
:0104AD000648
:0104AE00004D
:0104AF000349
:0104B0000942
:0104B1000545
:0104B2000445
:0104B3000A3E
:0104B400083F
:0104B5000244
:0104B600083D
:0104B7000044
:0104B8001231
:0104B9000042
:0104BA000938
:0104BB00013F
:0104BC00023D
:0104BD000737
:0104BE000835
:0104BF000438
:0104C0000A31
:0104C1000238
:0104C2000F2A
:0104C3000335
:0104C4000F28
:0104C5000432
:0104C6000F26
:0104C7000034
:0104C8000F24
:0104C9000032
:0104CA000A27
:0104CB00012F
:0104CC000728
:0104CD000A24
:0104CE000825
:0104CF000329
:0104D0000724
:0104D100002A
:0104D2000A1F
:0104D3000721
:0104D4000522
:0104D5000521
:0104D600061F
:0104D7000321
:0104D8001013
:0104D9000022
:0104DA000021
:0104DB000020
:0104DC000A15
:0104DD000A14
:0104DE000419
:0104DF00001C
:0104E0000912
:0104E1000317
:0104E2000613
:0104E3000B0D
:0104E4000512
:0104E5000412
:0104E6000213
:0104E700070D
:0104E8000112
:0104E9000D05
:0104EA00050C
:0104EB000B05
:0104EC000609
:0104ED00030B
:0104EE00000D
:0104EF000A02
:0104F0000605
:0104F1000604
:0104F2000009
:0104F30012F6
:0104F4000007
:0104F5000BFB
:0104F6000005
:0104F7000202
:0104F8000102
:0104F90012F0
:0104FA000001
:0104FB0011EF
:0104FC0000FF
:0104FD0000FE
:0104FE0000FD
:0104FF000AF2
:0105000007F3
:010501000FEA
:0105020003F5
:010503000FE8
:0105040000F6
:010505000FE6
:0105060000F4
:0105070005EE
:0105080000F2
:0105090009E8
:01050A0003ED
:01050B0009E6
:01050C0005E9
:01050D0009E4
:01050E0008E4
:01050F000AE1
:0105100005E5
:0105110009E0
:0105120007E1
:010513000BDC
:0105140009DD
:0105150006DF
:0105160001E3
:0105170010D3
:0105180000E2
:0105190008D9
:01051A0000E0
:01051B0003DC
:01051C0000DE
:01051D0006D7
:01051E0000DC
:01051F000ECD
:0105200001D9
:010521000DCC
:0105220004D4
:010523000CCB
:0105240002D4
:0105250010C5
:0105260003D1
:010527000EC5
:0105280008CA
:0105290009C8
:01052A0000D0
:01052B0004CB
:01052C0005C9
:01052D000FBE
:01052E0000CC
:01052F0008C3
:0105300001C9
:010531000EBB
:0105320004C4
:0105330010B7
:0105340003C3
:0105350012B3
:0105360001C3
:010537000BB8
:0105380000C2
:010539000FB2
:01053A0007B9
:01053B0016A9
:01053C0000BE
:01053D0012AB
:01053E0000BC
:01053F0003B8
:0105400006B4
:0105410007B2
:0105420002B6
:0105430004B3
:0105440009AD
:0105450004B1
:0105460003B1
:0105470012A1
:0105480002B0
:0105490004AD
:01054A0007A9
:01054B0007A8
:01054C0006A8
:01054D000CA1
:01054E0000AC
:01054F0008A3
:0105500002A8
:010551000D9C
:0105520005A3
:01055300099E
:0105540005A1
:0105550003A2
:0105560002A2
:010557000B98
:01055800039F
:010559000998
:01055A00019F
:01055B000F90
:01055C00019D
:01055D000994
:01055E000696
:01055F000A91
:010560000793
:010561000A8F
:010562000494
:010563000097
:010564000393
:010565001382
:010566000094
:010567001182
:010568000191
:01056900127F
:01056A000090
:01056B00038C
:01056C00028C
:01056D000984
:01056E000587
:01056F000A81
:010570000882
:010571000782
:01057200097F
:010573000582
:01057400087E
:01057500087D
:01057600067E
:010577000E75
:01057800067C
:010579000879
:01057A00027E
:01057B00027D
:01057C00007E
:01057D00007D
:01057E000775
:01057F000675
:010580000E6C
:010581000475
:010582000276
:010583000671
:01058400096D
:01058500076E
:01058600066E
:01058700056E
:010588001260
:010589000071
:01058A00125E
:01058B00026D
:01058C000569
:01058D000B62
:01058E000F5D
:01058F000764
:010590000763
:010591000A5F
:010592000A5E
:010593000265
:010594000E58
:01059500085D
:010596000E56
:010597000360
:010598000E54
:010599000160
:01059A00035D
:01059B00015E
:01059C00124C
:01059D00005D
:01059E000557
:01059F000655
:0105A0000E4C
:0105A1000455
:0105A2000F49
:0105A3000057
:0105A4000056
:0105A5000352
:0105A6000351
:0105A7000053
:0105A8000151
:0105A9000051
:0105AA00024E
:0105AB00024D
:0105AC00004E
:0105AD000A43
:0105AE000A42
:0105AF000645
:0105B0000B3F
:0105B1000940
:0105B2000246
:0105B3000146
:0105B4000D39
:0105B500063F
:0105B6000A3A
:0105B700063D
:0105B8000E34
:0105B900063B
:0105BA000937
:0105BB000837
:0105BC00112D
:0105BD00013C
:0105BE000E2E
:0105BF000734
:0105C0000337
:0105C1000138
:0105C2000E2A
:0105C3000037
:0105C4000C2A
:0105C5000035
:0105C6000A2A
:0105C7000132
:0105C8000F23
:0105C900062B
:0105CA00062A
:0105CB000827
:0105CC000E20
:0105CD00002D
:0105CE000A22
:0105CF000625
:0105D0000723
:0105D1000920
:0105D2000A1E
:0105D300081F
:0105D400071F
:0105D5000421
:0105D6001113
:0105D7000320
:0105D8000A18
:0105D900021F
:0105DA00031D
:0105DB00041B
:0105DC000F0F
:0105DD000716
:0105DE000F0D
:0105DF00011A
:0105E0000B0F
:0105E1000514
:0105E2000A0E
:0105E3000413
:0105E4000016
:0105E5000411
:0105E6000A0A
:0105E7000013
:0105E800060C
:0105E9000110
:0105EA0012FE
:0105EB00040B
:0105EC000608
:0105ED00010C
:0105EE00010B
:0105EF000209
:0105F0000CFE
:0105F1000009
:0105F2000AFE
:0105F3000700
:0105F40009FD
:0105F5000401
:0105F60006FE
:0105F70005FE
:0105F8000AF8
:0105F90008F9
:0105FA0009F7
:0105FB0003FC
:0105FC0004FA
:0105FD0006F7
:0105FE0008F4
:0105FF0000FB
:010600000BEE
:0106010002F6
:0106020008EF
:0106030000F6
:0106040000F5
:0106050002F2
:0106060004EF
:010607000AE8
:0106080007EA
:0106090009E7
:01060A0011DE
:01060B0000EE
:01060C0010DD
:01060D0001EB
:01060E000CDF
:01060F0003E7
:010610000CDD
:0106110003E5
:010612000CDB
:0106130008DE
:010614000ADB
:0106150006DE
:010616000DD6
:0106170001E1
:0106180007DA
:0106190002DE
:01061A0000DF
:01061B0009D5
:01061C0000DD
:01061D0009D3
:01061E0002D9
:01061F000DCD
:0106200004D5
:0106210014C4
:0106220008CF
:0106230000D6
:0106240000D5
:0106250003D1
:0106260003D0
:010627000DC5
:0106280005CC
:010629000DC3
:01062A0002CD
:01062B0009C5
:01062C0008C5
:01062D000CC0
:01062E0008C3
:01062F0008C2
:010630000BBE
:0106310009BF
:0106320000C7
:0106330009BD
:0106340001C4
:010635000CB8
:0106360006BD
:010637000DB5
:0106380001C0
:0106390009B7
:01063A0002BD
:01063B000FAF
:01063C0000BD
:01063D0009B3
:01063E0002B9
:01063F000FAB
:0106400004B5
:0106410011A7
:0106420000B7
:010643000FA7
:0106440000B5
:0106450009AB
:0106460003B0
:0106470010A2
:0106480000B1
:010649000DA3
:01064A0000AF
:01064B0000AE
:01064C0005A8
:01064D0008A4
:01064E0004A7
:01064F000AA0
:0106500008A1
:010651000B9D
:0106520004A3
:010653000E98
:0106540002A3
:0106550004A0
:01065600089B
:0106570001A1
:01065800079A
:010659000D93
:01065A000897
:01065B00049A
:01065C00039A
:01065D000E8E
:01065E000893
:01065F000397
:010660000495
:010661000395
:01066200098E
:01066300098D
:01066400078E
:010665000C88
:01066600068D
:010667001280
:01066800038E
:01066900127E
:01066A00008F
:01066B000D81
:01066C000588
:01066D000B81
:01066E000388
:01066F00107A
:010670000584
:010671000781
:010672000186
:010673000284
:010674000382
:010675001173
:01067600057E
:010677000D75
:010678000081
:010679000F71
:01067A00017E
:01067B000C72
:01067C00017C
:01067D000379
:01067E000675
:01067F000575
:010680000970
:010681000B6D
:010682000473
:010683000670
:010684000570
:010685000B69
:01068600056E
:010687000171
:01068800076A
:01068900066A
:01068A000669
:01068B000B63
:01068C000568
:01068D000666
:01068E00006B
:01068F000268
:010690000069
:01069100095F
:01069200095E
:010693000C5A
:010694000065
:010695000163
:010696000360
:010697000260
:01069800055C
:010699000A56
:01069A000857
:01069B000559
:01069C000657
:01069D000755
:01069E000556
:01069F000456
:0106A0000059
:0106A100094F
:0106A200094E
:0106A3000650
:0106A400094C
:0106A5000A4A
:0106A600054E
:0106A7000E44
:0106A800054C
:0106A9000E42
:0106AA00004F
:0106AB00103E
:0106AC000449
:0106AD000844
:0106AE00004B
:0106AF000D3D
:0106B0000049
:0106B1000048
:0106B2000641
:0106B3000A3C
:0106B4000144
:0106B5000044
:0106B6000241
:0106B7000240
:0106B8000140
:0106B9000A36
:0106BA000738
:0106BB000935
:0106BC000736
:0106BD000339
:0106BE000734
:0106BF000337
:0106C0000831
:0106C1000335
:0106C2000631
:0106C3000135
:0106C4000530
:0106C500082C
:0106C6000330
:0106C7000032
:0106C800022F
:0106C900042C
:0106CA000926
:0106CB000925
:0106CC000E1F
:0106CD000725
:0106CE000E1D
:0106CF000426
:0106D0001118
:0106D1000127
:0106D2000E19
:0106D3000026
:0106D400091C
:0106D5000321
:0106D6000E15
:0106D700041E
:0106D800071A
:0106D9000719
:0106DA000E11
:0106DB000A14
:0106DC000E0F
:0106DD000517
:0106DE000417
:0106DF000911
:0106E0000316
:0106E1000414
:0106E2001007
:0106E3000412
:0106E400060F
:0106E5000A0A
:0106E600090A
:0106E700060C
:0106E800050C
:0106E900030D
:0106EA000609
:0106EB00000E
:0106EC000607
:0106ED00000C
:0106EE000407
:0106EF00000A
:0106F0000FFA
:0106F1000008
:0106F2000601
:0106F3000303
:0106F4000CF9
:0106F50006FE
:0106F60006FD
:0106F70009F9
:0106F8000AF7
:0106F90007F9
:0106FA000EF1
:0106FB0002FC
:0106FC000BF2
:0106FD0001FB
:0106FE000FEC
:0106FF0001F9
:010700000AEE
:0107010004F3
:0107020007EF
:010703000AEB
:010704000DE7
:0107050003F0
:010706000DE5
:0107070005EC
:010708000AE6
:0107090007E8
:01070A000FDF
:01070B0005E8
:01070C0008E4
:01070D0007E4
:01070E000CDE
:01070F0006E3
:0107100007E1
:0107110006E1
:0107120005E1
:0107130003E2
:0107140003E1
:0107150000E3
:010716000ED4
:0107170000E1
:0107180001DF
:0107190001DE
:01071A0007D7
:01071B0009D4
:01071C000AD2
:01071D0002D9
:01071E0008D2
:01071F0000D9
:0107200005D3
:0107210002D5
:010722000EC8
:0107230003D2
:0107240009CB
:0107250004CF
:0107260000D2
:0107270007CA
:010728000BC5
:0107290000CF
:01072A000EC0
:01072B0002CB
:01072C000BC1
:01072D0007C4
:01072E0006C4
:01072F0004C5
:010730000EBA
:0107310004C3
:010732000DB9
:0107330008BD
:0107340011B3
:0107350004BF
:010736000FB3
:0107370003BE
:010738000CB4
:0107390000BF
:01073A0010AE
:01073B0002BB
:01073C000FAD
:01073D0000BB
:01073E0012A8
:01073F0000B9
:0107400010A8
:0107410005B2
:010742000CAA
:0107430000B5
:0107440005AF
:0107450000B3
:0107460008AA
:0107470005AC
:010748000AA6
:0107490006A9
:01074A0006A8
:01074B0003AA
:01074C000CA0
:01074D0000AB
:01074E0000AA
:01074F0005A4
:010750000A9E
:01075100099E
:01075200089E
:0107530000A5
:010754001094
:0107550003A0
:01075600069C
:0107570000A1
:010758000E92
:01075900009F
:01075A00029C
:01075B000499
:01075C000C90
:01075D00009B
:01075E000694
:01075F000198
:010760000B8D
:010761000394
:010762000F87
:01076300068F
:01076400098B
:01076500048F
:01076600078B
:01076700058C
:010768000B85
:010769000788
:01076A000886
:01076B00008D
:01076C000A82
:01076D00008B
:01076E001476
:01076F000089
:010770000C7C
:010771000186
:010772000581
:010773000184
:01077400067E
:01077500057E
:010776000B77
:010777000180
:010778000B75
:01077900007F
:01077A00037B
:01077B00017C
:01077C00007C
:01077D00017A
:01077E000B6F
:01077F000475
:010780000C6C
:010781000473
:010782000D69
:010783000174
:01078400096B
:010785000073
:01078600066C
:01078700066B
:010788000A66
:010789000669
:01078A000D61
:01078B00026B
:01078C000B61
:01078D00016A
:01078E000169
:01078F000069
:010790000D5B
:010791000562
:010792001254
:010793000065
:010794000B59
:010795000063
:010796000C56
:010797000160
:010798000759
:010799000857
:01079A000658
:01079B00025B
:01079C000E4E
:01079D000358
:01079E000F4B
:01079F000554
:0107A0000B4D
:0107A1000750
:0107A2000B4B
:0107A300094C
:0107A4000450
:0107A500094A
:0107A6001141
:0107A7000150
:0107A8000749
:0107A9000649
:0107AA000945
:0107AB00014C
:0107AC001339
:0107AD00004B
:0107AE000347
:0107AF000148
:0107B0000246
:0107B1000443
:0107B2000640
:0107B3000441
:0107B4000F35
:0107B5000340
:0107B600083A
:0107B700033E
:0107B8000F31
:0107B900033C
:0107BA000539
:0107BB00013C
:0107BC000E2E
:0107BD00003B
:0107BE000F2B
:0107BF000336
:0107C000092F
:0107C1000136
:0107C2000D29
:0107C3000134
:0107C400062E
:0107C500082B
:0107C6000032
:0107C7000031
:0107C800042C
:0107C900012E
:0107CA000E20
:0107CB00012C
:0107CC000A22
:0107CD000625
:0107CE000A20
:0107CF000722
:0107D0000E1A
:0107D1000621
:0107D200081E
:0107D3000322
:0107D400051F
:0107D5000023
:0107D6000919
:0107D700041D
:0107D8000A16
:0107D9000817
:0107DA000717
:0107DB000815
:0107DC000B11
:0107DD000714
:0107DE000416
:0107DF000019
:0107E0000711
:0107E1000116
:0107E2000B0B
:0107E300060F
:0107E400070D
:0107E500070C
:0107E6000909
:0107E7000011
:0107E8000709
:0107E900010E
:0107EA000905
:0107EB00000D
:0107EC00010B
:0107ED00010A
:0107EE000901
:0107EF000306
:0107F00009FF
:0107F10009FE
:0107F20010F6
:0107F3000203
:0107F4000DF7
:0107F5000102
:0107F6000EF4
:0107F70003FE
:0107F8000DF3
:0107F90007F8
:0107FA0004FA
:0107FB0009F4
:0107FC0007F5
:0107FD0000FB
:0107FE000FEB
:0107FF0001F8
:010800000EE9
:0108010004F2
:010802000FE6
:0108030003F1
:0108040000F3
:0108050007EB
:0108060001F0
:0108070001EF
:0108080006E9
:0108090001ED
:01080A000FDE
:01080B0003E9
:01080C0004E7
:01080D0000EA
:01080E0006E3
:01080F0004E4
:0108100006E1
:0108110000E6
:0108120003E2
:0108130004E0
:0108140014CF
:0108150000E2
:010816000BD6
:0108170006DA
:010818000BD4
:0108190001DD
:01081A000BD2
:01081B0001DB
:01081C000BD0
:01081D0000DA
:01081E0003D6
:01081F0007D1
:0108200011C6
:0108210005D1
:0108220010C5
:0108230000D4
:0108240006CD
:0108250000D2
:0108260003CE
:0108270002CE
:010828000AC5
:010829000AC4
:01082A000BC2
:01082B0009C3
:01082C0005C6
:01082D0006C4
:01082E000ABF
:01082F0000C8
:0108300006C1
:0108310004C2
:010832000EB7
:0108330000C4
:0108340001C2
:0108350008BA
:010836000DB4
:010837000AB6
:0108380007B8
:0108390008B6
:01083A0007B6
:01083B0002BA
:01083C000BB0
:01083D0007B3
:01083E000DAC
:01083F0000B8
:010840000CAB
:0108410008AE
:010842000CA9
:0108430006AE
:010844000EA5
:0108450000B2
:010846000EA3
:0108470000B0
:0108480004AB
:0108490001AD
:01084A0004A9
:01084B0000AC
:01084C0003A8
:01084D0009A1
:01084E0000A9
:01084F0006A2
:0108500002A5
:010851001294
:0108520000A5
:010853000B99
:01085400099A
:01085500079B
:0108560001A0
:01085700128E
:01085800059A
:01085900128C
:01085A00009D
:01085B000993
:01085C000299
:01085D000A90
:01085E000594
:01085F00098F
:010860000790
:010861000A8C
:010862000491
:01086300068E
:010864000093
:01086500038F
:010866000988
:01086700068A
:01086800028D
:01086900137B
:01086A00008D
:01086B000587
:01086C000586
:01086D000189
:01086E000881
:01086F000682
:01087000097E
:010871000284
:010872000580
:01087300087C
:01087400097A
:010875000E74
:01087600027F
:010877000A76
:01087800017E
:010879000B73
:01087A000479
:01087B000676
:01087C000576
:01087D000971
:01087E000772
:01087F000771
:010880000275
:010881000571
:01088200076E
:010883000074
:010884000073
:010885001062
:01088600056C
:01088700056B
:01088800006F
:010889000B63
:01088A00006D
:01088B000468
:01088C000269
:01088D000367
:01088E000267
:01088F000662
:010890000067
:010891000363
:010892000065
:01089300055F
:010894000162
:01089500134F
:01089600035E
:01089700134D
:010898000758
:010899000955
:01089A00005D
:01089B000F4D
:01089C00015A
:01089D000951
:01089E000752
:01089F00094F
:0108A0000750
:0108A100094D
:0108A200074E
:0108A300094B
:0108A4000A49
:0108A500054D
:0108A6000051
:0108A7000947
:0108A800024D
:0108A9000F3F
:0108AA00014C
:0108AB000646
:0108AC00004B
:0108AD000644
:0108AE000049
:0108AF000D3B
:0108B0000245
:0108B1000D39
:0108B2000540
:0108B3000B39
:0108B400073C
:0108B5000A38
:0108B600033E
:0108B7000E32
:0108B800043B
:0108B900043A
:0108BA000538
:0108BB000735
:0108BC000239
:0108BD000A30
:0108BE000336
:0108BF001028
:0108C0000037
:0108C1000036
:0108C2000431
:0108C3000A2A
:0108C400072C
:0108C5000D25
:0108C600032E
:0108C7001020
:0108C800022D
:0108C900032B
:0108CA000429
:0108CB000428
:0108CC000328
:0108CD000822
:0108CE000227
:0108CF000E1A
:0108D0000720
:0108D1000422
:0108D2000025
:0108D3000A1A
:0108D400051E
:0108D5000022
:0108D6000021
:0108D700031D
:0108D8000916
:0108D900001E
:0108DA000617
:0108DB000814
:0108DC000219
:0108DD000C0E
:0108DE000514
:0108DF000E0A
:0108E0000512
:0108E1000610
:0108E200070E
:0108E3000B09
:0108E400070C
:0108E5000D05
:0108E6000011
:0108E700010F
:0108E8000609
:0108E9000A04
:0108EA00030A
:0108EB00000C
:0108EC00000B
:0108ED000307
:0108EE000702
:0108EF000AFE
:0108F00008FF
:0108F1000CFA
:0108F20006FF
:0108F30010F4
:0108F4000201
:0108F5000AF8
:0108F60008F9
:0108F7000EF2
:0108F80000FF
:0108F9000BF3
:0108FA0003FA
:0108FB000AF2
:0108FC0000FB
:0108FD0013E7
:0108FE0004F5
:0108FF0004F4
:0109000000F6
:0109010006EF
:0109020013E1
:0109030000F3
:0109040012E0
:0109050000F1
:0109060005EB
:010907000AE5
:0109080009E5
:0109090000ED
:01090A0007E5
:01090B0001EA
:01090C0008E2
:01090D0000E9
:01090E000DDB
:01090F000ADD
:010910000DD9
:0109110007DE
:0109120004E0
:0109130000E3
:0109140000E2
:0109150006DB
:0109160007D9
:0109170000DF
:010918000DD1
:0109190003DA
:01091A000CD0
:01091B0002D9
:01091C0009D1
:01091D0006D3
:01091E000ECA
:01091F0005D2
:010920000ACC
:0109210006CF
:010922000EC6
:0109230004CF
:010924000EC4
:0109250000D1
:010926000DC3
:0109270002CD
:0109280006C8
:0109290000CD
:01092A0013B9
:01092B0001CA
:01092C000FBB
:01092D0003C6
:01092E000BBD
:01092F0007C0
:010930000EB8
:0109310003C2
:0109320014B0
:0109330007BC
:0109340007BB
:0109350002BF
:010936000FB1
:0109370007B8
:010938000DB1
:0109390005B8
:01093A0003B9
:01093B0005B6
:01093C0009B1
:01093D0003B6
:01093E0013A5
:01093F0000B7
:0109400014A2
:0109410000B5
:0109420007AD
:0109430004AF
:010944000AA8
:0109450000B1
:0109460007A9
:0109470000AF
:010948000DA1
:0109490001AC
:01094A0007A5
:01094B0000AB
:01094C0006A4
:01094D0008A1
:01094E0007A1
:01094F0001A6
:010950001096
:0109510005A0
:01095200079D
:01095300049F
:01095400069C
:010955000998
:010956000F91
:010957000699
:010958000C92
:010959000796
:01095A000696
:01095B000A91
:01095C000A90
:01095D000396
:01095E000494
:01095F000295
:010960000D89
:01096100078E
:010962000193
:010963000093
:010964000092
:01096500038E
:01096600038D
:01096700038C
:010968000D81
:01096900028B
:01096A000A82
:01096B000685
:01096C000288
:01096D000287
:01096E000A7E
:01096F00087F
:010970000D79
:010971000382
:010972000381
:010973000281
:010974000E74
:01097500037E
:01097600057B
:01097700027D
:01097800116D
:01097900027B
:01097A00007C
:01097B000774
:01097C000F6B
:01097D000574
:01097E000B6D
:01097F000671
:010980000B6B
:010981000570
:010982000F65
:01098300046F
:010984000C66
:01098500066B
:01098600056B
:010987000966
:010988000C62
:010989000469
:01098A000468
:01098B000566
:01098C000E5C
:01098D000960
:01098E00095F
:01098F00095E
:010990000165
:010991000263
:010992000C58
:01099300065D
:010994000C56
:010995000859
:010996000759
:01099700005F
:01099800045A
:01099900025B
:01099A000F4D
:01099B00005B
:01099C000654
:01099D000653
:01099E000850
:01099F000156
:0109A0000650
:0109A100074E
:0109A2000A4A
:0109A3000350
:0109A4000F43
:0109A5000150
:0109A6000F41
:0109A7000A45
:0109A8000F3F
:0109A9000647
:0109AA000F3D
:0109AB000645
:0109AC00103A
:0109AD000247
:0109AE000246
:0109AF000641
:0109B000093D
:0109B1000243
:0109B2001034
:0109B3000043
:0109B4000F33
:0109B5000839
:0109B6000F31
:0109B700003F
:0109B8000C32
:0109B900033A
:0109BA000D2F
:0109BB00003B
:0109BC000A30
:0109BD000732
:0109BE000434
:0109BF000037
:0109C0000630
:0109C1000332
:0109C200092B
:0109C300052E
:0109C400052D
:0109C500032E
:0109C600052B
:0109C7000629
:0109C800002E
:0109C900022B
:0109CA000824
:0109CB001219
:0109CC00002A
:0109CD000425
:0109CE000622
:0109CF000423
:0109D0000422
:0109D100071E
:0109D2000024
:0109D3000D16
:0109D400051D
:0109D500031E
:0109D6000020
:0109D7000E11
:0109D800001E
:0109D9000E0F
:0109DA00001C
:0109DB000615
:0109DC00001A
:0109DD000E0B
:0109DE000612
:0109DF000F08
:0109E000080E
:0109E1000411
:0109E200050F
:0109E300070C
:0109E4000A08
:0109E500050C
:0109E600010F
:0109E70012FD
:0109E800000E
:0109E9000D00
:0109EA00000C
:0109EB000CFF
:0109EC000703
:0109ED000EFB
:0109EE000008
:0109EF000EF9
:0109F0000204
:0109F1000EF7
:0109F2000103
:0109F3000300
:0109F40005FD
:0109F50005FC
:0109F60008F8
:0109F70009F6
:0109F80006F8
:0109F90005F8
:0109FA0008F4
:0109FB0006F5
:0109FC0003F7
:0109FD000DEC
:0109FE0003F5
:0109FF000CEB
:010A000007EE
:010A01000DE7
:010A020007EC
:010A03000BE7
:010A040007EA
:010A050005EB
:010A060008E7
:010A070004EA
:010A080000ED
:010A090000EC
:010A0A0000EB
:010A0B0009E1
:010A0C0003E6
:010A0D000CDC
:010A0E0008DF
:010A0F000ADC
:010A100005E0
:010A110002E2
:010A120006DD
:010A130008DA
:010A140009D8
:010A15000FD1
:010A160001DE
:010A17000BD3
:010A180005D8
:010A190006D6
:010A1A0001DA
:010A1B0002D8
:010A1C0007D2
:010A1D000ACE
:010A1E0003D4
:010A1F0007CF
:010A200007CE
:010A210009CB
:010A220001D2
:010A23000DC5
:010A240003CE
:010A250008C8
:010A260006C9
:010A270004CA
:010A280000CD
:010A290003C9
:010A2A0002C9
:010A2B0010BA
:010A2C0004C5
:010A2D0010B8
:010A2E0001C6
:010A2F000FB7
:010A300003C2
:010A310012B2
:010A320000C3
:010A330004BE
:010A340002BF
:010A350011AF
:010A360001BE
:010A370008B6
:010A380000BD
:010A39000BB1
:010A3A0000BB
:010A3B0013A7
:010A3C0002B7
:010A3D0003B5
:010A3E0004B3
:010A3F0007AF
:010A400003B2
:010A410008AC
:010A420004AF
:010A43000AA8
:010A440003AE
:010A45000FA1
:010A460000AF
:010A470006A8
:010A480009A4
:010A49000CA0
:010A4A0008A3
:010A4B00109A
:010A4C0008A1
:010A4D0006A2
:010A4E0000A7
:010A4F001195
:010A500000A5
:010A5100099B
:010A520001A2
:010A5300079B
:010A5400079A
:010A55000799
:010A5600039C
:010A57000995
:010A5800039A
:010A59000696
:010A5A00019A
:010A5B00108A
:010A5C000099
:010A5D000098
:010A5E000394
:010A5F000492
:010A60000095
:010A61001480
:010A62000192
:010A63001280
:010A64000091
:010A65000888
:010A6600048B
:010A67000787
:010A68000687
:010A69000785
:010A6A000982
:010A6B000882
:010A6C000881
:010A6D000880
:010A6E000483
:010A6F00077F
:010A70000085
:010A71000C78
:010A7200047F
:010A7300087A
:010A74000978
:010A75000E72
:010A76000778
:010A7700047A
:010A78000A73
:010A79000C70
:010A7A00007B
:010A7B00106A
:010A7C000574
:010A7D000A6E
:010A7E000275
:010A7F000274
:010A8000076E
:010A81000371
:010A82000271
:010A83000F63
:010A8400026F
:010A85000A66
:010A8600046B
:010A87000F5F
:010A8800006D
:010A8900125A
:010A8A00006B
:010A8B000F5B
:010A8C000366
:010A8D000C5C
:010A8E000067
:010A8F000B5B
:010A9000095C
:010A91000C58
:010A92000360
:010A9300055D
:010A94000061
:010A95000858
:010A96000659
:010A97000E50
:010A98000954
:010A99000656
:010A9A000655
:010A9B000159
:010A9C000C4D
:010A9D000355
:010A9E00094E
:010A9F000452
:010AA0000B4A
:010AA1000351
:010AA200054E
:010AA300044E
:010AA4000948
:010AA5000848
:010AA600103F
:010AA700034B
:010AA8000647
:010AA9000844
:010AAA00004B
:010AAB00004A
:010AAC000544
:010AAD000048
:010AAE000245
:010AAF00093D
:010AB000093C
:010AB100093B
:010AB200053E
:010AB3000240
:010AB400063B
:010AB500053B
:010AB600122D
:010AB700003E
:010AB8000A33
:010AB9000636
:010ABA000338
:010ABB000535
:010ABC001128
:010ABD000038
:010ABE00092E
:010ABF000531
:010AC0000B2A
:010AC1000034
:010AC200062D
:010AC300042E
:010AC4000928
:010AC500052B
:010AC6000629
:010AC7000727
:010AC8000B22
:010AC900012B
:010ACA001219
:010ACB00002A
:010ACC000029
:010ACD000028
:010ACE000621
:010ACF000026
:010AD0001312
:010AD1000420
:010AD2001310
:010AD3000121
:010AD400031E
:010AD5000020
:010AD6000C13
:010AD7000717
:010AD8000C11
:010AD900021A
:010ADA000E0D
:010ADB00001A
:010ADC000F0A
:010ADD000018
:010ADE000E09
:010ADF000016
:010AE0000510
:010AE1000014
:010AE2000310
:010AE300050D
:010AE400040D
:010AE500030D
:010AE600040B
:010AE700040A
:010AE80010FD
:010AE9000606
:010AEA000DFE
:010AEB000307
:010AEC000CFD
:010AED000503
:010AEE000AFD
:010AEF000600
:010AF00006FF
:010AF1000004
:010AF2000CF7
:010AF3000002
:010AF4000CF5
:010AF50009F7
:010AF60006F9
:010AF70000FE
:010AF80002FB
:010AF90000FC
:010AFA0006F5
:010AFB0000FA
:010AFC0000F9
:010AFD0004F4
:010AFE000CEB
:010AFF0006F0
:010B00000FE5
:010B010003F0
:010B020006EC
:010B030005EC
:010B04000CE4
:010B050000EF
:010B06000BE3
:010B07000AE3
:010B080009E3
:010B090001EA
:010B0A0006E4
:010B0B0001E8
:010B0C0007E1
:010B0D0000E7
:010B0E000ADC
:010B0F0009DC
:010B10000ADA
:010B110008DB
:010B120009D9
:010B130001E0
:010B140000E0
:010B150006D9
:010B160008D6
:010B170005D8
:010B180004D8
:010B190004D7
:010B1A0008D2
:010B1B0001D8
:010B1C000ACE
:010B1D0001D6
:010B1E0000D6
:010B1F0001D4
:010B200005CF
:010B210000D3
:010B220009C9
:010B230001D0
:010B240008C8
:010B250008C7
:010B260005C9
:010B270009C4
:010B280006C6
:010B290002C9
:010B2A000AC0
:010B2B0007C2
:010B2C000EBA
:010B2D0008BF
:010B2E0009BD
:010B2F0003C2
:010B300005BF
:010B310004BF
:010B320006BC
:010B330009B8
:010B34000CB4
:010B350006B9
:010B360009B5
:010B370005B8
:010B380005B7
:010B390009B2
:010B3A000BAF
:010B3B0002B7
:010B3C000FA9
:010B3D0003B4
:010B3E0003B3
:010B3F0005B0
:010B400010A4
:010B410000B3
:010B42000DA5
:010B430001B0
:010B44000FA1
:010B450005AA
:010B460006A8
:010B470002AB
:010B48000E9E
:010B49000AA1
:010B4A000D9D
:010B4B0003A6
:010B4C000D9B
:010B4D0003A4
:010B4E000B9B
:010B4F0000A5
:010B500000A4
:010B5100069D
:010B52001290
:010B530000A1
:010B54000F91
:010B5500019E
:010B56000F8F
:010B5700009D
:010B58000399
:010B5900009B
:010B5A000F8B
:010B5B000099
:010B5C000C8C
:010B5D000394
:010B5E001086
:010B5F000095
:010B6000098B
:010B61000093
:010B62000092
:010B63000091
:010B64000090
:010B6500008F
:010B6600008E
:010B6700008D
:010B6800008C
:010B6900008B
:010B6A00008A
:010B6B000089
:010B6C000088
:010B6D000087
:010B6E000086
:010B6F000085
:010B70000084
:010B71000083
:010B72000082
:010B73000081
:010B74000080
:010B7500007F
:010B7600007E
:010B7700007D
:010B7800007C
:010B7900007B
:010B7A00007A
:010B7B000079
:010B7C000078
:010B7D000077
:010B7E000076
:010B7F000075
:010B80000074
:010B81000073
:010B82000072
:010B83000071
:010B84000070
:010B8500006F
:010B8600006E
:010B8700006D
:010B8800006C
:010B8900006B
:010B8A00006A
:010B8B000069
:010B8C000068
:010B8D000067
:010B8E000066
:010B8F000065
:010B90000064
:010B91000063
:010B92000062
:010B93000061
:010B94000060
:010B9500005F
:010B9600005E
:010B9700005D
:010B9800005C
:010B9900005B
:010B9A00005A
:010B9B000059
:010B9C000058
:010B9D000057
:010B9E000056
:010B9F000055
:010BA0000054
:010BA1000053
:010BA2000052
:010BA3000051
:010BA4000050
:010BA500004F
:010BA600004E
:010BA700004D
:010BA800004C
:010BA900004B
:010BAA00004A
:010BAB000049
:010BAC000048
:010BAD000047
:010BAE000046
:010BAF000045
:010BB0000044
:010BB1000043
:010BB2000042
:010BB3000041
:010BB4000040
:010BB500003F
:010BB600003E
:010BB700003D
:010BB800003C
:010BB900003B
:010BBA00003A
:010BBB000039
:010BBC000038
:010BBD000037
:010BBE000036
:010BBF000035
:010BC0000034
:010BC1000033
:010BC2000032
:010BC3000031
:010BC4000030
:010BC500002F
:010BC600002E
:010BC700002D
:010BC800002C
:010BC900002B
:010BCA00002A
:010BCB000029
:010BCC000028
:010BCD000027
:010BCE000026
:010BCF000025
:010BD0000024
:010BD1000023
:010BD2000022
:010BD3000021
:010BD4000020
:010BD500001F
:010BD600001E
:010BD700001D
:010BD800001C
:010BD900001B
:010BDA00001A
:010BDB000019
:010BDC000018
:010BDD000017
:010BDE000016
:010BDF000015
:010BE0000014
:010BE1000013
:010BE2000012
:010BE3000011
:010BE4000010
:010BE500000F
:010BE600000E
:010BE700000D
:010BE800000C
:010BE900000B
:010BEA00000A
:010BEB000009
:010BEC000008
:010BED000007
:010BEE000006
:010BEF000005
:010BF0000004
:010BF1000003
:010BF2000002
:010BF3000001
:010BF4000000
:010BF50000FF
:010BF60000FE
:010BF70000FD
:010BF80000FC
:010BF90000FB
:010BFA0000FA
:010BFB0000F9
:010BFC0000F8
:010BFD0000F7
:010BFE0000F6
:010BFF0000F5
:010C000000F3
:010C010000F2
:010C020000F1
:010C030000F0
:010C040000EF
:010C050000EE
:010C060000ED
:010C070000EC
:010C080000EB
:010C090000EA
:010C0A0000E9
:010C0B0000E8
:010C0C0000E7
:010C0D0000E6
:010C0E0000E5
:010C0F0000E4
:010C100000E3
:010C110000E2
:010C120000E1
:010C130000E0
:010C140000DF
:010C150000DE
:010C160000DD
:010C170000DC
:010C180000DB
:010C190000DA
:010C1A0000D9
:010C1B0000D8
:010C1C0000D7
:010C1D0000D6
:010C1E0000D5
:010C1F0000D4
:010C200000D3
:010C210000D2
:010C220000D1
:010C230000D0
:010C240000CF
:010C250000CE
:010C260000CD
:010C270000CC
:010C280000CB
:010C290000CA
:010C2A0000C9
:010C2B0000C8
:010C2C0000C7
:010C2D0000C6
:010C2E0000C5
:010C2F0000C4
:010C300000C3
:010C310000C2
:010C320000C1
:010C330000C0
:010C340000BF
:010C350000BE
:010C360000BD
:010C370000BC
:010C380000BB
:010C390000BA
:010C3A0000B9
:010C3B0000B8
:010C3C0000B7
:010C3D0000B6
:010C3E0000B5
:010C3F0000B4
:010C400000B3
:010C410000B2
:010C420000B1
:010C430000B0
:010C440000AF
:010C450000AE
:010C460000AD
:010C470000AC
:010C480000AB
:010C490000AA
:010C4A0000A9
:010C4B0000A8
:010C4C0000A7
:010C4D0000A6
:010C4E0000A5
:010C4F0000A4
:010C500000A3
:010C510000A2
:010C520000A1
:010C530000A0
:010C5400009F
:010C5500009E
:010C5600009D
:010C5700009C
:010C5800009B
:010C5900009A
:010C5A000099
:010C5B000098
:010C5C000097
:010C5D000096
:010C5E000095
:010C5F000094
:010C60000093
:010C61000092
:010C62000091
:010C63000090
:010C6400008F
:010C6500008E
:010C6600008D
:010C6700008C
:010C6800008B
:010C6900008A
:010C6A000089
:010C6B000088
:010C6C000087
:010C6D000086
:010C6E000085
:010C6F000084
:010C70000083
:010C71000082
:010C72000081
:010C73000080
:010C7400007F
:010C7500007E
:010C7600007D
:010C7700007C
:010C7800007B
:010C7900007A
:010C7A000079
:010C7B000078
:010C7C000077
:010C7D000076
:010C7E000075
:010C7F000074
:010C80000073
:010C81000072
:010C82000071
:010C83000070
:010C8400006F
:010C8500006E
:010C8600006D
:010C8700006C
:010C8800006B
:010C8900006A
:010C8A000069
:010C8B000068
:010C8C000067
:010C8D000066
:010C8E000065
:010C8F000064
:010C90000063
:010C91000062
:010C92000061
:010C93000060
:010C9400005F
:010C9500005E
:010C9600005D
:010C9700005C
:010C9800005B
:010C9900005A
:010C9A000059
:010C9B000058
:010C9C000057
:010C9D000056
:010C9E000055
:010C9F000054
:010CA0000053
:010CA1000052
:010CA2000051
:010CA3000050
:010CA400004F
:010CA500004E
:010CA600004D
:010CA700004C
:010CA800004B
:010CA900004A
:010CAA000049
:010CAB000048
:010CAC000047
:010CAD000046
:010CAE000045
:010CAF000044
:010CB0000043
:010CB1000042
:010CB2000041
:010CB3000040
:010CB400003F
:010CB500003E
:010CB600003D
:010CB700003C
:010CB800003B
:010CB900003A
:010CBA000039
:010CBB000038
:010CBC000037
:010CBD000036
:010CBE000035
:010CBF000034
:010CC0000033
:010CC1000032
:010CC2000031
:010CC3000030
:010CC400002F
:010CC500002E
:010CC600002D
:010CC700002C
:010CC800002B
:010CC900002A
:010CCA000029
:010CCB000028
:010CCC000027
:010CCD000026
:010CCE000025
:010CCF000024
:010CD0000023
:010CD1000022
:010CD2000021
:010CD3000020
:010CD400001F
:010CD500001E
:010CD600001D
:010CD700001C
:010CD800001B
:010CD900001A
:010CDA000019
:010CDB000018
:010CDC000017
:010CDD000016
:010CDE000015
:010CDF000014
:010CE0000013
:010CE1000012
:010CE2000011
:010CE3000010
:010CE400000F
:010CE500000E
:010CE600000D
:010CE700000C
:010CE800000B
:010CE900000A
:010CEA000009
:010CEB000008
:010CEC000007
:010CED000006
:010CEE000005
:010CEF000004
:010CF0000003
:010CF1000002
:010CF2000001
:010CF3000000
:010CF40000FF
:010CF50000FE
:010CF60000FD
:010CF70000FC
:010CF80000FB
:010CF90000FA
:010CFA0000F9
:010CFB0000F8
:010CFC0000F7
:010CFD0000F6
:010CFE0000F5
:010CFF0000F4
:010D000000F2
:010D010000F1
:010D020000F0
:010D030000EF
:010D040000EE
:010D050000ED
:010D060000EC
:010D070000EB
:010D080000EA
:010D090000E9
:010D0A0000E8
:010D0B0000E7
:010D0C0000E6
:010D0D0000E5
:010D0E0000E4
:010D0F0000E3
:010D100000E2
:010D110000E1
:010D120000E0
:010D130000DF
:010D140000DE
:010D150000DD
:010D160000DC
:010D170000DB
:010D180000DA
:010D190000D9
:010D1A0000D8
:010D1B0000D7
:010D1C0000D6
:010D1D0000D5
:010D1E0000D4
:010D1F0000D3
:010D200000D2
:010D210000D1
:010D220000D0
:010D230000CF
:010D240000CE
:010D250000CD
:010D260000CC
:010D270000CB
:010D280000CA
:010D290000C9
:010D2A0000C8
:010D2B0000C7
:010D2C0000C6
:010D2D0000C5
:010D2E0000C4
:010D2F0000C3
:010D300000C2
:010D310000C1
:010D320000C0
:010D330000BF
:010D340000BE
:010D350000BD
:010D360000BC
:010D370000BB
:010D380000BA
:010D390000B9
:010D3A0000B8
:010D3B0000B7
:010D3C0000B6
:010D3D0000B5
:010D3E0000B4
:010D3F0000B3
:010D400000B2
:010D410000B1
:010D420000B0
:010D430000AF
:010D440000AE
:010D450000AD
:010D460000AC
:010D470000AB
:010D480000AA
:010D490000A9
:010D4A0000A8
:010D4B0000A7
:010D4C0000A6
:010D4D0000A5
:010D4E0000A4
:010D4F0000A3
:010D500000A2
:010D510000A1
:010D520000A0
:010D5300009F
:010D5400009E
:010D5500009D
:010D5600009C
:010D5700009B
:010D5800009A
:010D59000099
:010D5A000098
:010D5B000097
:010D5C000096
:010D5D000095
:010D5E000094
:010D5F000093
:010D60000092
:010D61000091
:010D62000090
:010D6300008F
:010D6400008E
:010D6500008D
:010D6600008C
:010D6700008B
:010D6800008A
:010D69000089
:010D6A000088
:010D6B000087
:010D6C000086
:010D6D000085
:010D6E000084
:010D6F000083
:010D70000082
:010D71000081
:010D72000080
:010D7300007F
:010D7400007E
:010D7500007D
:010D7600007C
:010D7700007B
:010D7800007A
:010D79000079
:010D7A000078
:010D7B000077
:010D7C000076
:010D7D000075
:010D7E000074
:010D7F000073
:010D80000072
:010D81000071
:010D82000070
:010D8300006F
:010D8400006E
:010D8500006D
:010D8600006C
:010D8700006B
:010D8800006A
:010D89000069
:010D8A000068
:010D8B000067
:010D8C000066
:010D8D000065
:010D8E000064
:010D8F000063
:010D90000062
:010D91000061
:010D92000060
:010D9300005F
:010D9400005E
:010D9500005D
:010D9600005C
:010D9700005B
:010D9800005A
:010D99000059
:010D9A000058
:010D9B000057
:010D9C000056
:010D9D000055
:010D9E000054
:010D9F000053
:010DA0000052
:010DA1000051
:010DA2000050
:010DA300004F
:010DA400004E
:010DA500004D
:010DA600004C
:010DA700004B
:010DA800004A
:010DA9000049
:010DAA000048
:010DAB000047
:010DAC000046
:010DAD000045
:010DAE000044
:010DAF000043
:010DB0000042
:010DB1000041
:010DB2000040
:010DB300003F
:010DB400003E
:010DB500003D
:010DB600003C
:010DB700003B
:010DB800003A
:010DB9000039
:010DBA000038
:010DBB000037
:010DBC000036
:010DBD000035
:010DBE000034
:010DBF000033
:010DC0000032
:010DC1000031
:010DC2000030
:010DC300002F
:010DC400002E
:010DC500002D
:010DC600002C
:010DC700002B
:010DC800002A
:010DC9000029
:010DCA000028
:010DCB000027
:010DCC000026
:010DCD000025
:010DCE000024
:010DCF000023
:010DD0000022
:010DD1000021
:010DD2000020
:010DD300001F
:010DD400001E
:010DD500001D
:010DD600001C
:010DD700001B
:010DD800001A
:010DD9000019
:010DDA000018
:010DDB000017
:010DDC000016
:010DDD000015
:010DDE000014
:010DDF000013
:010DE0000012
:010DE1000011
:010DE2000010
:010DE300000F
:010DE400000E
:010DE500000D
:010DE600000C
:010DE700000B
:010DE800000A
:010DE9000009
:010DEA000008
:010DEB000007
:010DEC000006
:010DED000005
:010DEE000004
:010DEF000003
:010DF0000002
:010DF1000001
:010DF2000000
:010DF30000FF
:010DF40000FE
:010DF50000FD
:010DF60000FC
:010DF70000FB
:010DF80000FA
:010DF90000F9
:010DFA0000F8
:010DFB0000F7
:010DFC0000F6
:010DFD0000F5
:010DFE0000F4
:010DFF0000F3
:010E000000F1
:010E010000F0
:010E020000EF
:010E030000EE
:010E040000ED
:010E050000EC
:010E060000EB
:010E070000EA
:010E080000E9
:010E090000E8
:010E0A0000E7
:010E0B0000E6
:010E0C0000E5
:010E0D0000E4
:010E0E0000E3
:010E0F0000E2
:010E100000E1
:010E110000E0
:010E120000DF
:010E130000DE
:010E140000DD
:010E150000DC
:010E160000DB
:010E170000DA
:010E180000D9
:010E190000D8
:010E1A0000D7
:010E1B0000D6
:010E1C0000D5
:010E1D0000D4
:010E1E0000D3
:010E1F0000D2
:010E200000D1
:010E210000D0
:010E220000CF
:010E230000CE
:010E240000CD
:010E250000CC
:010E260000CB
:010E270000CA
:010E280000C9
:010E290000C8
:010E2A0000C7
:010E2B0000C6
:010E2C0000C5
:010E2D0000C4
:010E2E0000C3
:010E2F0000C2
:010E300000C1
:010E310000C0
:010E320000BF
:010E330000BE
:010E340000BD
:010E350000BC
:010E360000BB
:010E370000BA
:010E380000B9
:010E390000B8
:010E3A0000B7
:010E3B0000B6
:010E3C0000B5
:010E3D0000B4
:010E3E0000B3
:010E3F0000B2
:010E400000B1
:010E410000B0
:010E420000AF
:010E430000AE
:010E440000AD
:010E450000AC
:010E460000AB
:010E470000AA
:010E480000A9
:010E490000A8
:010E4A0000A7
:010E4B0000A6
:010E4C0000A5
:010E4D0000A4
:010E4E0000A3
:010E4F0000A2
:010E500000A1
:010E510000A0
:010E5200009F
:010E5300009E
:010E5400009D
:010E5500009C
:010E5600009B
:010E5700009A
:010E58000099
:010E59000098
:010E5A000097
:010E5B000096
:010E5C000095
:010E5D000094
:010E5E000093
:010E5F000092
:010E60000091
:010E61000090
:010E6200008F
:010E6300008E
:010E6400008D
:010E6500008C
:010E6600008B
:010E6700008A
:010E68000089
:010E69000088
:010E6A000087
:010E6B000086
:010E6C000085
:010E6D000084
:010E6E000083
:010E6F000082
:010E70000081
:010E71000080
:010E7200007F
:010E7300007E
:010E7400007D
:010E7500007C
:010E7600007B
:010E7700007A
:010E78000079
:010E79000078
:010E7A000077
:010E7B000076
:010E7C000075
:010E7D000074
:010E7E000073
:010E7F000072
:010E80000071
:010E81000070
:010E8200006F
:010E8300006E
:010E8400006D
:010E8500006C
:010E8600006B
:010E8700006A
:010E88000069
:010E89000068
:010E8A000067
:010E8B000066
:010E8C000065
:010E8D000064
:010E8E000063
:010E8F000062
:010E90000061
:010E91000060
:010E9200005F
:010E9300005E
:010E9400005D
:010E9500005C
:010E9600005B
:010E9700005A
:010E98000059
:010E99000058
:010E9A000057
:010E9B000056
:010E9C000055
:010E9D000054
:010E9E000053
:010E9F000052
:010EA0000051
:010EA1000050
:010EA200004F
:010EA300004E
:010EA400004D
:010EA500004C
:010EA600004B
:010EA700004A
:010EA8000049
:010EA9000048
:010EAA000047
:010EAB000046
:010EAC000045
:010EAD000044
:010EAE000043
:010EAF000042
:010EB0000041
:010EB1000040
:010EB200003F
:010EB300003E
:010EB400003D
:010EB500003C
:010EB600003B
:010EB700003A
:010EB8000039
:010EB9000038
:010EBA000037
:010EBB000036
:010EBC000035
:010EBD000034
:010EBE000033
:010EBF000032
:010EC0000031
:010EC1000030
:010EC200002F
:010EC300002E
:010EC400002D
:010EC500002C
:010EC600002B
:010EC700002A
:010EC8000029
:010EC9000028
:010ECA000027
:010ECB000026
:010ECC000025
:010ECD000024
:010ECE000023
:010ECF000022
:010ED0000021
:010ED1000020
:010ED200001F
:010ED300001E
:010ED400001D
:010ED500001C
:010ED600001B
:010ED700001A
:010ED8000019
:010ED9000018
:010EDA000017
:010EDB000016
:010EDC000015
:010EDD000014
:010EDE000013
:010EDF000012
:010EE0000011
:010EE1000010
:010EE200000F
:010EE300000E
:010EE400000D
:010EE500000C
:010EE600000B
:010EE700000A
:010EE8000009
:010EE9000008
:010EEA000007
:010EEB000006
:010EEC000005
:010EED000004
:010EEE000003
:010EEF000002
:010EF0000001
:010EF1000000
:010EF20000FF
:010EF30000FE
:010EF40000FD
:010EF50000FC
:010EF60000FB
:010EF70000FA
:010EF80000F9
:010EF90000F8
:010EFA0000F7
:010EFB0000F6
:010EFC0000F5
:010EFD0000F4
:010EFE0000F3
:010EFF0000F2
:010F000000F0
:010F010000EF
:010F020000EE
:010F030000ED
:010F040000EC
:010F050000EB
:010F060000EA
:010F070000E9
:010F080000E8
:010F090000E7
:010F0A0000E6
:010F0B0000E5
:010F0C0000E4
:010F0D0000E3
:010F0E0000E2
:010F0F0000E1
:010F100000E0
:010F110000DF
:010F120000DE
:010F130000DD
:010F140000DC
:010F150000DB
:010F160000DA
:010F170000D9
:010F180000D8
:010F190000D7
:010F1A0000D6
:010F1B0000D5
:010F1C0000D4
:010F1D0000D3
:010F1E0000D2
:010F1F0000D1
:010F200000D0
:010F210000CF
:010F220000CE
:010F230000CD
:010F240000CC
:010F250000CB
:010F260000CA
:010F270000C9
:010F280000C8
:010F290000C7
:010F2A0000C6
:010F2B0000C5
:010F2C0000C4
:010F2D0000C3
:010F2E0000C2
:010F2F0000C1
:010F300000C0
:010F310000BF
:010F320000BE
:010F330000BD
:010F340000BC
:010F350000BB
:010F360000BA
:010F370000B9
:010F380000B8
:010F390000B7
:010F3A0000B6
:010F3B0000B5
:010F3C0000B4
:010F3D0000B3
:010F3E0000B2
:010F3F0000B1
:010F400000B0
:010F410000AF
:010F420000AE
:010F430000AD
:010F440000AC
:010F450000AB
:010F460000AA
:010F470000A9
:010F480000A8
:010F490000A7
:010F4A0000A6
:010F4B0000A5
:010F4C0000A4
:010F4D0000A3
:010F4E0000A2
:010F4F0000A1
:010F500000A0
:010F5100009F
:010F5200009E
:010F5300009D
:010F5400009C
:010F5500009B
:010F5600009A
:010F57000099
:010F58000098
:010F59000097
:010F5A000096
:010F5B000095
:010F5C000094
:010F5D000093
:010F5E000092
:010F5F000091
:010F60000090
:010F6100008F
:010F6200008E
:010F6300008D
:010F6400008C
:010F6500008B
:010F6600008A
:010F67000089
:010F68000088
:010F69000087
:010F6A000086
:010F6B000085
:010F6C000084
:010F6D000083
:010F6E000082
:010F6F000081
:010F70000080
:010F7100007F
:010F7200007E
:010F7300007D
:010F7400007C
:010F7500007B
:010F7600007A
:010F77000079
:010F78000078
:010F79000077
:010F7A000076
:010F7B000075
:010F7C000074
:010F7D000073
:010F7E000072
:010F7F000071
:010F80000070
:010F8100006F
:010F8200006E
:010F8300006D
:010F8400006C
:010F8500006B
:010F8600006A
:010F87000069
:010F88000068
:010F89000067
:010F8A000066
:010F8B000065
:010F8C000064
:010F8D000063
:010F8E000062
:010F8F000061
:010F90000060
:010F9100005F
:010F9200005E
:010F9300005D
:010F9400005C
:010F9500005B
:010F9600005A
:010F97000059
:010F98000058
:010F99000057
:010F9A000056
:010F9B000055
:010F9C000054
:010F9D000053
:010F9E000052
:010F9F000051
:010FA0000050
:010FA100004F
:010FA200004E
:010FA300004D
:010FA400004C
:010FA500004B
:010FA600004A
:010FA7000049
:010FA8000048
:010FA9000047
:010FAA000046
:010FAB000045
:010FAC000044
:010FAD000043
:010FAE000042
:010FAF000041
:010FB0000040
:010FB100003F
:010FB200003E
:010FB300003D
:010FB400003C
:010FB500003B
:010FB600003A
:010FB7000039
:010FB8000038
:010FB9000037
:010FBA000036
:010FBB000035
:010FBC000034
:010FBD000033
:010FBE000032
:010FBF000031
:010FC0000030
:010FC100002F
:010FC200002E
:010FC300002D
:010FC400002C
:010FC500002B
:010FC600002A
:010FC7000029
:010FC8000028
:010FC9000027
:010FCA000026
:010FCB000025
:010FCC000024
:010FCD000023
:010FCE000022
:010FCF000021
:010FD0000020
:010FD100001F
:010FD200001E
:010FD300001D
:010FD400001C
:010FD500001B
:010FD600001A
:010FD7000019
:010FD8000018
:010FD9000017
:010FDA000016
:010FDB000015
:010FDC000014
:010FDD000013
:010FDE000012
:010FDF000011
:010FE0000010
:010FE100000F
:010FE200000E
:010FE300000D
:010FE400000C
:010FE500000B
:010FE600000A
:010FE7000009
:010FE8000008
:010FE9000007
:010FEA000006
:010FEB000005
:010FEC000004
:010FED000003
:010FEE000002
:010FEF000001
:010FF0000000
:010FF10000FF
:010FF20000FE
:010FF30000FD
:010FF40000FC
:010FF50000FB
:010FF60000FA
:010FF70000F9
:010FF80000F8
:010FF90000F7
:010FFA0000F6
:010FFB0000F5
:010FFC0000F4
:010FFD0000F3
:010FFE0000F2
:010FFF0000F1
:00000001FF
