:0100000004FB
:0100010004FA
:0100020009F4
:0100030012EA
:0100040005F6
:0100050005F5
:0100060008F1
:010007000EEA
:0100080000F7
:0100090006F0
:01000A0004F1
:01000B0008EC
:01000C0002F1
:01000D0009E9
:01000E0006EB
:01000F0000F0
:010010000BE4
:0100110005E9
:0100120008E5
:0100130005E7
:0100140000EB
:0100150006E4
:0100160006E3
:0100170012D6
:0100180007E0
:0100190003E3
:01001A0008DD
:01001B0006DE
:01001C0005DE
:01001D0006DC
:01001E0015CC
:01001F0006DA
:0100200001DE
:0100210001DD
:0100220008D5
:0100230006D6
:010024000CCF
:0100250001D9
:010026000DCC
:0100270001D7
:0100280002D5
:0100290005D1
:01002A0004D1
:01002B0003D1
:01002C0001D2
:01002D0006CC
:01002E0001D0
:01002F0001CF
:0100300005CA
:010031000AC4
:010032000DC0
:0100330004C8
:0100340004C7
:0100350005C5
:0100360001C8
:010037000ABE
:0100380011B6
:0100390003C3
:01003A0003C2
:01003B0001C3
:01003C0007BC
:01003D0007BB
:01003E000CB5
:01003F0006BA
:0100400007B8
:010041000FAF
:0100420011AC
:0100430004B8
:0100440001BA
:0100450000BA
:0100460005B4
:0100470008B0
:010048000EA9
:010049000FA7
:01004A000FA6
:01004B0006AE
:01004C0005AE
:01004D0000B2
:01004E0000B1
:01004F0006AA
:0100500000AF
:0100510006A8
:0100520006A7
:0100530008A4
:0100540000AB
:0100550000AA
:0100560007A2
:0100570006A2
:010058001493
:0100590006A0
:01005A000D98
:01005B00069E
:01005C00069D
:01005D000C96
:01005E00168B
:01005F000799
:010060000798
:010061000698
:010062000E8F
:01006300128A
:01006400019A
:01006500108A
:010066000495
:010067000494
:010068000493
:010069001086
:01006A000C89
:01006B000094
:01006C000A89
:01006D00088A
:01006E000889
:01006F000090
:01007000008F
:010071000E80
:01007200107D
:010073000884
:010074001378
:010075000A80
:010076000980
:010077000088
:010078000681
:010079000581
:01007A000580
:01007B000E76
:01007C000D76
:01007D001072
:01007E000081
:01007F00067A
:01008000017E
:01008100027C
:010082000875
:010083000973
:010084000C6F
:01008500106A
:010086001069
:010087000177
:010088000275
:01008900086E
:01008A000570
:01008B001163
:01008C00076C
:01008D000171
:01008E00056C
:01008F00016F
:01009000016E
:01009100006E
:01009200006D
:010093000765
:010094000A61
:010095000961
:010096000F5A
:010097000761
:010098000661
:01009900085E
:01009A00085D
:01009B00065E
:01009C00075C
:01009D000E54
:01009E000A57
:01009F000C54
:0100A000005F
:0100A100005E
:0100A200035A
:0100A300005C
:0100A400015A
:0100A500005A
:0100A6000059
:0100A7001246
:0100A8000354
:0100A9000353
:0100AA000A4B
:0100AB000A4A
:0100AC000B48
:0100AD000B47
:0100AE000B46
:0100AF000A46
:0100B0000D42
:0100B100044A
:0100B200004D
:0100B300004C
:0100B400004B
:0100B5000149
:0100B6000148
:0100B7000642
:0100B8000E39
:0100B9000E38
:0100BA001233
:0100BB000440
:0100BC001132
:0100BD000240
:0100BE000839
:0100BF00053B
:0100C000053A
:0100C100043A
:0100C200003D
:0100C3000F2D
:0100C400003B
:0100C500003A
:0100C6001623
:0100C7000038
:0100C8000631
:0100C9000135
:0100CA000530
:0100CB000133
:0100CC000231
:0100CD00082A
:0100CE000C25
:0100CF000C24
:0100D0000728
:0100D100012D
:0100D200022B
:0100D3000428
:0100D400012A
:0100D5000F1B
:0100D6000524
:0100D7000523
:0100D8000027
:0100D9000422
:0100DA000025
:0100DB000024
:0100DC00061D
:0100DD00071B
:0100DE001110
:0100DF00120E
:0100E000120D
:0100E100140A
:0100E2000F0E
:0100E3000418
:0100E4000615
:0100E5000E0C
:0100E6000910
:0100E7000612
:0100E8000611
:0100E9000A0C
:0100EA001005
:0100EB00060E
:0100EC000013
:0100ED000012
:0100EE00070A
:0100EF0014FC
:0100F000050A
:0100F100020C
:0100F200010C
:0100F300000C
:0100F400000B
:0100F50015F5
:0100F6000702
:0100F7000701
:0100F80008FF
:0100F9000FF7
:0100FA000FF6
:0100FB000004
:0100FC0006FD
:0100FD000101
:0100FE0002FF
:0100FF000EF2
:0101000006F8
:0101010002FB
:0101020004F8
:0101030011EA
:0101040007F3
:0101050001F8
:010106000DEB
:010107000DEA
:0101080006F0
:010109000CE9
:01010A0001F3
:01010B0000F3
:01010C0002F0
:01010D0002EF
:01010E0012DE
:01010F0006E9
:0101100007E7
:0101110003EA
:0101120004E8
:0101130001EA
:0101140002E8
:0101150003E6
:0101160003E5
:0101170000E7
:0101180008DE
:0101190008DD
:01011A000ED6
:01011B000ED5
:01011C000AD8
:01011D0000E1
:01011E0001DF
:01011F0006D9
:0101200009D5
:0101210000DD
:0101220000DC
:0101230000DB
:010124000BCF
:0101250009D0
:0101260008D0
:010127000CCB
:010128000CCA
:010129000CC9
:01012A0007CD
:01012B0007CC
:01012C0000D2
:01012D0000D1
:01012E0003CD
:01012F0003CC
:0101300002CC
:010131000AC3
:010132000EBE
:010133000DBE
:0101340005C5
:0101350011B8
:0101360012B6
:0101370000C7
:0101380004C2
:0101390004C1
:01013A0003C1
:01013B0001C2
:01013C0010B2
:01013D0003BE
:01013E0005BB
:01013F0002BD
:010140000EB0
:0101410015A8
:010142000EAE
:0101430002B9
:0101440004B6
:0101450006B3
:0101460008B0
:010147000EA9
:0101480006B0
:0101490006AF
:01014A0007AD
:01014B0003B0
:01014C000CA6
:01014D0006AB
:01014E0006AA
:01014F0009A6
:0101500006A8
:0101510006A7
:0101520002AA
:010153001299
:0101540002A8
:0101550002A7
:010156000A9E
:0101570000A7
:0101580000A6
:0101590000A5
:01015A000C98
:01015B00069D
:01015C000C96
:01015D00059C
:01015E000898
:01015F000699
:010160000C92
:010161000C91
:01016200019B
:01016300019A
:010164000991
:010165001584
:010166000D8B
:010167000D8A
:010168000690
:010169000095
:01016A00078D
:01016B00048F
:01016C000092
:01016D000091
:01016E000C84
:01016F000C83
:010170000C82
:010171000C81
:010172000E7E
:010173000D7E
:010174000F7B
:010175000089
:010176000187
:010177000186
:010178000E78
:010179000382
:01017A000183
:01017B000083
:01017C00067C
:01017D000A77
:01017E000F71
:01017F00017E
:010180000975
:01018100007D
:010182000F6D
:010183000F6C
:010184000773
:010185000C6D
:010186000870
:010187000E69
:010188000A6C
:010189000372
:01018A001163
:01018B000D66
:01018C000072
:01018D00036E
:01018E00056B
:01018F000768
:010190000668
:010191000865
:010192000F5D
:01019300016A
:010194000862
:010195000564
:010196000266
:010197000760
:01019800075F
:01019900065F
:01019A000163
:01019B000162
:01019C001250
:01019D00045D
:01019E001050
:01019F000758
:0101A0000757
:0101A100025B
:0101A2001448
:0101A3000C4F
:0101A4000258
:0101A5000059
:0101A6000058
:0101A7000F48
:0101A800084E
:0101A9000352
:0101AA00054F
:0101AB00044F
:0101AC00064C
:0101AD00044D
:0101AE00044C
:0101AF00044B
:0101B0001638
:0101B1000E3F
:0101B2000E3E
:0101B3000B40
:0101B4000B3F
:0101B5000940
:0101B6000C3C
:0101B7000047
:0101B8000046
:0101B9001134
:0101BA001133
:0101BB00063D
:0101BC00063C
:0101BD00043D
:0101BE000040
:0101BF00003F
:0101C0000F2F
:0101C1000835
:0101C2000C30
:0101C3000239
:0101C4001426
:0101C5000039
:0101C6000D2B
:0101C7000A2D
:0101C8000333
:0101C9000530
:0101CA00072D
:0101CB000033
:0101CC000032
:0101CD000130
:0101CE00111F
:0101CF000F20
:0101D0000F1F
:0101D100101D
:0101D2000D1F
:0101D300002B
:0101D4000426
:0101D5000524
:0101D6000424
:0101D7000027
:0101D8000026
:0101D900071E
:0101DA00071D
:0101DB00051E
:0101DC000D15
:0101DD000021
:0101DE000719
:0101DF00021D
:0101E000021C
:0101E100021B
:0101E2000616
:0101E3000516
:0101E4000614
:0101E5000019
:0101E6000315
:0101E7000710
:0101E800070F
:0101E900070E
:0101EA00060E
:0101EB000E05
:0101EC000012
:0101ED00020F
:0101EE00040C
:0101EF00030C
:0101F000040A
:0101F100000D
:0101F2000606
:0101F300000B
:0101F4000A00
:0101F50015F4
:0101F6000602
:0101F7000502
:0101F8000204
:0101F90007FE
:0101FA0007FD
:0101FB0011F2
:0101FC0012F0
:0101FD0006FB
:0101FE0012EE
:0101FF0012ED
:0102000009F4
:0102010009F3
:0102020003F8
:0102030011E9
:010204000FEA
:0102050011E7
:0102060003F4
:0102070003F3
:0102080000F5
:0102090000F4
:01020A0000F3
:01020B0000F2
:01020C0003EE
:01020D000BE5
:01020E0000EF
:01020F0000EE
:0102100008E5
:010211000CE0
:0102120000EB
:0102130006E4
:0102140000E9
:0102150002E6
:0102160007E0
:0102170006E0
:0102180001E4
:0102190004E0
:01021A0003E0
:01021B0001E1
:01021C0000E1
:01021D0000E0
:01021E000DD2
:01021F0005D9
:0102200001DC
:0102210002DA
:010222000AD1
:0102230004D6
:010224000ACF
:010225000ACE
:010226000EC9
:0102270007CF
:0102280001D4
:0102290001D3
:01022A0005CE
:01022B0009C9
:01022C0010C1
:01022D000CC4
:01022E000EC1
:01022F000DC1
:0102300005C8
:0102310005C7
:0102320005C6
:0102330005C5
:0102340001C8
:0102350001C7
:010236000FB8
:0102370009BD
:0102380002C3
:0102390002C2
:01023A0000C3
:01023B0000C2
:01023C0011B0
:01023D0005BB
:01023E0002BD
:01023F0002BC
:0102400007B6
:0102410007B5
:0102420000BB
:0102430000BA
:0102440006B3
:0102450007B1
:0102460006B1
:0102470006B0
:0102480003B2
:0102490000B4
:01024A0009AA
:01024B0007AB
:01024C0006AB
:01024D0000B0
:01024E000EA1
:01024F000EA0
:010250000CA1
:0102510002AA
:01025200109B
:01025300109A
:0102540000A9
:0102550000A8
:01025600089F
:0102570005A1
:010258000D98
:010259000E96
:01025A00069D
:01025B0000A2
:01025C0001A0
:01025D00069A
:01025E00009F
:01025F000B93
:010260001489
:010261000B91
:010262000C8F
:010263000B8F
:010264000B8E
:010265000494
:010266000F88
:010267000096
:010268000095
:010269000292
:01026A000093
:01026B001280
:01026C00078A
:01026D000E82
:01026E00028D
:01026F00038B
:010270000687
:010271000884
:010272000487
:010273000882
:010274000287
:010275001078
:010276000087
:010277000284
:010278000B7A
:010279000381
:01027A001073
:01027B001171
:01027C000D74
:01027D000977
:01027E000778
:01027F000876
:01028000027B
:01028100116B
:010282001269
:010283000377
:010284000673
:010285000078
:010286000077
:010287000A6C
:010288000B6A
:01028900056F
:01028A00066D
:01028B00056D
:01028C00036E
:01028D00155B
:01028E000A65
:01028F00046A
:010290000865
:010291000963
:010292000665
:010293000664
:010294000564
:010295000464
:010296000463
:010297000A5C
:010298000A5B
:010299000262
:01029A000261
:01029B00045E
:01029C00045D
:01029D00045C
:01029E00045B
:01029F00124C
:0102A000124B
:0102A100025A
:0102A2000259
:0102A3000555
:0102A4000851
:0102A5000751
:0102A6000552
:0102A7000E48
:0102A8000E47
:0102A9000B49
:0102AA00094A
:0102AB00064C
:0102AC00133E
:0102AD00054B
:0102AE00054A
:0102AF00044A
:0102B0000647
:0102B1000A42
:0102B2000744
:0102B3000248
:0102B4001237
:0102B500093F
:0102B6000245
:0102B7000046
:0102B8000342
:0102B9000242
:0102BA00053E
:0102BB000042
:0102BC00033E
:0102BD000E32
:0102BE000936
:0102BF000B33
:0102C0000538
:0102C1000636
:0102C2000635
:0102C3000535
:0102C4000534
:0102C5000A2E
:0102C6000A2D
:0102C7000036
:0102C8000332
:0102C9000133
:0102CA00072C
:0102CB000C26
:0102CC00062B
:0102CD000729
:0102CE00121D
:0102CF00022C
:0102D000032A
:0102D100022A
:0102D200002B
:0102D300002A
:0102D4000524
:0102D5001612
:0102D6000A1D
:0102D7000125
:0102D8000025
:0102D9000321
:0102DA000F14
:0102DB000D15
:0102DC000819
:0102DD000818
:0102DE00021D
:0102DF000519
:0102E0000815
:0102E1000814
:0102E2000615
:0102E300001A
:0102E4000910
:0102E5000018
:0102E6000512
:0102E7000511
:0102E8000510
:0102E9000410
:0102EA001003
:0102EB001002
:0102EC000908
:0102ED000D03
:0102EE000A05
:0102EF000905
:0102F000000D
:0102F1000B01
:0102F2000506
:0102F3000505
:0102F4000603
:0102F5000602
:0102F6000502
:0102F7000600
:0102F8000DF8
:0102F90005FF
:0102FA000201
:0102FB000FF3
:0102FC0011F0
:0102FD000DF3
:0102FE000AF5
:0102FF0006F8
:010300000EEE
:010301000CEF
:010302000AF0
:0103030000F9
:010304000BED
:0103050002F5
:0103060004F2
:0103070000F5
:0103080011E3
:0103090006ED
:01030A000AE8
:01030B0010E1
:01030C0010E0
:01030D0010DF
:01030E000BE3
:01030F000BE2
:0103100003E9
:0103110004E7
:0103120000EA
:0103130010D9
:010314000FD9
:010315000FD8
:0103160011D5
:0103170008DD
:0103180006DE
:0103190008DB
:01031A0008DA
:01031B0005DC
:01031C0006DA
:01031D0007D8
:01031E0005D9
:01031F0009D4
:0103200008D4
:0103210008D3
:010322000BCF
:0103230000D9
:0103240002D6
:0103250000D7
:0103260000D6
:0103270003D2
:010328000ACA
:0103290000D3
:01032A0003CF
:01032B0004CD
:01032C0000D0
:01032D0005CA
:01032E0000CE
:01032F0004C9
:010330000AC2
:010331000AC1
:010332000BBF
:010333000ABF
:010334000CBC
:0103350015B2
:0103360014B2
:010337000FB6
:0103380011B3
:010339000CB7
:01033A0006BC
:01033B000DB4
:01033C0010B0
:01033D0005BA
:01033E0001BD
:01033F0013AA
:0103400001BB
:0103410002B9
:010342000AB0
:010343000BAE
:0103440009AF
:010345000AAD
:0103460007AF
:0103470000B5
:0103480006AE
:0103490000B3
:01034A0002B0
:01034B0011A0
:01034C0000B0
:01034D0000AF
:01034E00119D
:01034F0007A6
:0103500003A9
:0103510002A9
:0103520002A8
:0103530001A8
:010354001098
:010355000D9A
:010356000F97
:0103570005A0
:010358000D97
:0103590002A1
:01035A000E94
:01035B000C95
:01035C000D93
:01035D000897
:01035E000C92
:01035F00108D
:01036000019B
:010361000299
:010362000694
:010363000792
:010364000098
:01036500088F
:010366000C8A
:010367001580
:010368000094
:01036900068D
:01036A00048E
:01036B00078A
:01036C000888
:01036D000887
:01036E000E80
:01036F000B82
:010370000C80
:01037100008B
:010372000A80
:010373000287
:010374000088
:010375000681
:010376000680
:010377000B7A
:010378000B79
:010379001073
:01037A00067C
:01037B001071
:01037C000779
:01037D000A75
:01037E00047A
:01037F00126B
:01038000007C
:010381000378
:01038200007A
:010383000178
:010384000177
:010385001067
:010386000373
:010387001065
:010388000371
:01038900096A
:01038A00046E
:01038B00076A
:01038C000769
:01038D00046B
:01038E000C62
:01038F00036A
:010390000666
:010391000665
:010392000367
:010393000366
:010394000662
:010395000166
:010396001155
:010397001253
:01039800055F
:01039900065D
:01039A000260
:01039B00075A
:01039C000060
:01039D000857
:01039E000757
:01039F000558
:0103A0000953
:0103A1000E4D
:0103A2000E4C
:0103A3000851
:0103A4000B4D
:0103A5000057
:0103A6000056
:0103A7000154
:0103A8000B49
:0103A9001241
:0103AA000949
:0103AB000A47
:0103AC00064A
:0103AD000E41
:0103AE000747
:0103AF000449
:0103B000103C
:0103B1000D3E
:0103B2000842
:0103B3001039
:0103B4000048
:0103B5000542
:0103B6000541
:0103B700063F
:0103B800073D
:0103B9000A39
:0103BA000C36
:0103BB000A37
:0103BC000040
:0103BD00043B
:0103BE000A34
:0103BF000637
:0103C0000B31
:0103C1000833
:0103C2000B2F
:0103C3000930
:0103C4000C2C
:0103C5000433
:0103C6000432
:0103C700092C
:0103C800052F
:0103C900092A
:0103CA000032
:0103CB000928
:0103CC000927
:0103CD00042B
:0103CE00032B
:0103CF00012C
:0103D0000626
:0103D1001219
:0103D2000822
:0103D3001316
:0103D4000820
:0103D500081F
:0103D6000C1A
:0103D700071E
:0103D8000123
:0103D9000C17
:0103DA000022
:0103DB000021
:0103DC00031D
:0103DD000619
:0103DE000B13
:0103DF000815
:0103E000110B
:0103E1000E0D
:0103E2000317
:0103E3000316
:0103E4000018
:0103E5000017
:0103E6000B0B
:0103E7000B0A
:0103E8000B09
:0103E90014FF
:0103EA00060C
:0103EB000011
:0103EC00030D
:0103ED00050A
:0103EE000C02
:0103EF00000D
:0103F000000C
:0103F1000506
:0103F2000CFE
:0103F3000DFC
:0103F4000107
:0103F5000007
:0103F6000204
:0103F7000203
:0103F8000AFA
:0103F9000AF9
:0103FA0006FC
:0103FB000CF5
:0103FC000EF2
:0103FD0001FE
:0103FE000BF3
:0103FF000FEE
:010400000EED
:0104010003F7
:0104020006F3
:0104030006F2
:0104040001F6
:0104050001F5
:010406000FE6
:010407000FE5
:0104080001F2
:0104090003EF
:01040A0000F1
:01040B0003ED
:01040C0005EA
:01040D0000EE
:01040E0001EC
:01040F0007E5
:0104100003E8
:0104110003E7
:0104120007E2
:0104130007E1
:010414000DDA
:0104150005E1
:0104160001E4
:0104170001E3
:010418000FD4
:0104190002E0
:01041A0005DC
:01041B000FD1
:01041C000CD3
:01041D000CD2
:01041E0000DD
:01041F0002DA
:0104200007D4
:0104210009D1
:0104220005D4
:0104230005D3
:0104240011C6
:0104250012C4
:0104260011C4
:0104270011C3
:0104280011C2
:0104290000D2
:01042A0000D1
:01042B000EC2
:01042C000DC2
:01042D0014BA
:01042E0009C4
:01042F000AC2
:0104300008C3
:010431000AC0
:010432000ABF
:010433000FB9
:0104340005C2
:010435000DB9
:0104360011B4
:010437000CB8
:0104380009BA
:0104390009B9
:01043A0007BA
:01043B0004BC
:01043C0008B7
:01043D0007B7
:01043E000FAE
:01043F0008B4
:0104400011AA
:0104410011A9
:0104420001B8
:0104430007B1
:0104440005B2
:0104450004B2
:0104460010A5
:0104470010A4
:0104480000B3
:0104490006AC
:01044A0004AD
:01044B0000B0
:01044C0001AE
:01044D0006A8
:01044E0009A4
:01044F0002AA
:0104500002A9
:0104510003A7
:0104520001A8
:01045300099F
:010454000A9D
:0104550000A6
:0104560004A1
:0104570001A3
:01045800089B
:0104590000A2
:01045A00168B
:01045B000F91
:01045C00009F
:01045D000797
:01045E000E8F
:01045F000E8E
:010460000596
:010461000595
:010462000594
:010463000593
:010464000295
:010465000294
:010466000095
:010467000490
:010468001083
:010469000092
:01046A000C85
:01046B00157B
:01046C00058A
:01046D000589
:01046E000687
:01046F000587
:010470000E7D
:010471000585
:010472000881
:010473000682
:010474000D7A
:010475000A7C
:010476000D78
:010477000084
:010478000182
:01047900047E
:01047A00037E
:01047B000D73
:01047C000D72
:01047D000D71
:01047E00106D
:01047F00106C
:01048000106B
:01048100106A
:010482000079
:010483000177
:010484000275
:010485000F67
:010486000273
:010487000272
:010488000271
:010489000270
:01048A000071
:01048B000C64
:01048C00026D
:01048D000A64
:01048E00036A
:01048F000765
:010490000B60
:010491000862
:010492000069
:010493000068
:010494000364
:010495001254
:010496001253
:010497000361
:01049800075C
:01049900035F
:01049A001150
:01049B00055B
:01049C000659
:01049D00104E
:01049E00025B
:01049F00025A
:0104A0000457
:0104A1000D4D
:0104A2000158
:0104A3000C4C
:0104A4000750
:0104A5000551
:0104A6000B4A
:0104A7000B49
:0104A800044F
:0104A9000250
:0104AA000051
:0104AB000050
:0104AC00004F
:0104AD00004E
:0104AE00024B
:0104AF000D3F
:0104B0000744
:0104B1000842
:0104B2000E3B
:0104B3000048
:0104B4000F38
:0104B500093D
:0104B6000441
:0104B7000A3A
:0104B800053E
:0104B9001230
:0104BA00122F
:0104BB00142C
:0104BC000837
:0104BD000836
:0104BE000538
:0104BF000537
:0104C0000635
:0104C100003A
:0104C2000435
:0104C3000434
:0104C4000C2B
:0104C5000036
:0104C6000C29
:0104C7000C28
:0104C8000F24
:0104C9000F23
:0104CA000031
:0104CB000030
:0104CC000629
:0104CD000C22
:0104CE000429
:0104CF001616
:0104D0000724
:0104D100002A
:0104D2000128
:0104D3001018
:0104D4000720
:0104D5000A1C
:0104D6000223
:0104D700091B
:0104D8000221
:0104D9000220
:0104DA00031E
:0104DB000D13
:0104DC000E11
:0104DD00021C
:0104DE000419
:0104DF00011B
:0104E0000615
:0104E1001505
:0104E2000514
:0104E3000612
:0104E4000611
:0104E5000313
:0104E6000A0B
:0104E7000F05
:0104E800040F
:0104E9000012
:0104EA000011
:0104EB000010
:0104EC000708
:0104ED00000E
:0104EE000A03
:0104EF00020A
:0104F0000506
:0104F100000A
:0104F2000009
:0104F3000206
:0104F4000205
:0104F5000006
:0104F6000005
:0104F7000202
:0104F8000AF9
:0104F90007FB
:0104FA000001
:0104FB0003FD
:0104FC0007F8
:0104FD0006F8
:0104FE0002FB
:0104FF0006F6
:0105000000FA
:0105010000F9
:0105020000F8
:0105030011E6
:0105040011E5
:010505000EE7
:010506000FE5
:010507000FE4
:010508000EE4
:0105090008E9
:01050A0007E9
:01050B0008E7
:01050C0000EE
:01050D0008E5
:01050E0005E7
:01050F0006E5
:0105100007E3
:0105110008E1
:0105120008E0
:010513000ADD
:0105140005E1
:010515000CD9
:0105160009DB
:010517000ED5
:0105180009D9
:0105190012CF
:01051A0006DA
:01051B0006D9
:01051C0010CE
:01051D0010CD
:01051E000BD1
:01051F0006D5
:0105200007D3
:0105210006D3
:0105220007D1
:010523000ACD
:010524000CCA
:010525000EC7
:010526000CC8
:010527000DC6
:0105280000D2
:0105290001D0
:01052A0010C0
:01052B0011BE
:01052C0002CC
:01052D0000CD
:01052E0000CC
:01052F0002C9
:0105300001C9
:0105310008C1
:0105320008C0
:0105330005C2
:0105340005C1
:0105350004C1
:0105360007BD
:010537000FB4
:0105380002C0
:0105390001C0
:01053A0001BF
:01053B0001BE
:01053C0001BD
:01053D000BB2
:01053E000BB1
:01053F0006B5
:010540000AB0
:0105410009B0
:0105420012A6
:0105430015A2
:010544000CAA
:0105450006AF
:0105460006AE
:0105470004AF
:010548000CA6
:010549000EA3
:01054A0007A9
:01054B000DA2
:01054C0007A7
:01054D000CA1
:01054E0002AA
:01054F0000AB
:0105500009A1
:010551000A9F
:010552000A9E
:010553000F98
:010554001096
:0105550002A3
:01055600059F
:0105570000A3
:010558001092
:010559000C95
:01055A000F91
:01055B000A95
:01055C000995
:01055D000B92
:01055E000795
:01055F000F8C
:010560000892
:010561000495
:010562000692
:010563000691
:01056400078F
:01056500088D
:01056600088C
:010567000390
:01056800038F
:01056900028F
:01056A00028E
:01056B00038C
:01056C00038B
:01056D00038A
:01056E000389
:01056F000B80
:010570000B7F
:010571000881
:010572000682
:010573001275
:010574000482
:010575000184
:010576000B79
:010577000C77
:010578000C76
:010579000081
:01057A000C74
:01057B00146B
:01057C00047A
:01057D00027B
:01057E000874
:01057F000774
:01058000007A
:010581000B6E
:010582000078
:010583000770
:010584001165
:010585000A6B
:01058600056F
:010587000B68
:01058800046E
:010589000071
:01058A00046C
:01058B00046B
:01058C00125C
:01058D00006D
:01058E000468
:01058F000467
:010590000B5F
:010591000663
:010592000068
:01059300095E
:010594000F57
:01059500075E
:010596000F55
:010597000C57
:010598000C56
:010599000C55
:01059A000759
:01059B000758
:01059C00045A
:01059D000459
:01059E000B51
:01059F00104B
:0105A0000F4B
:0105A1000F4A
:0105A2000157
:0105A3001542
:0105A4001442
:0105A5000154
:0105A6001143
:0105A7001043
:0105A8001042
:0105A9001041
:0105AA000A46
:0105AB00123D
:0105AC000549
:0105AD00024B
:0105AE000745
:0105AF000645
:0105B000004A
:0105B1000742
:0105B2000147
:0105B3001235
:0105B4000244
:0105B500073E
:0105B6000143
:0105B7000043
:0105B800033F
:0105B9000F32
:0105BA000A36
:0105BB00033C
:0105BC00003E
:0105BD00003D
:0105BE00003C
:0105BF000437
:0105C0001129
:0105C1001425
:0105C2000335
:0105C3000334
:0105C4000630
:0105C500062F
:0105C600092B
:0105C7001221
:0105C8000032
:0105C9000130
:0105CA000030
:0105CB000A25
:0105CC00101E
:0105CD00101D
:0105CE000C20
:0105CF00101B
:0105D0000624
:0105D1000623
:0105D200091F
:0105D300091E
:0105D4000422
:0105D500081D
:0105D6000321
:0105D7000320
:0105D8000121
:0105D900051C
:0105DA00061A
:0105DB000A15
:0105DC00041A
:0105DD00021B
:0105DE000418
:0105DF000417
:0105E0000812
:0105E1000811
:0105E2000D0B
:0105E3000D0A
:0105E4000D09
:0105E5000213
:0105E6000212
:0105E7000211
:0105E8000012
:0105E900020F
:0105EA00050B
:0105EB00030C
:0105EC0015F9
:0105ED000A03
:0105EE000A02
:0105EF000803
:0105F0000802
:0105F1000801
:0105F2000FF9
:0105F3000DFA
:0105F40008FE
:0105F5000DF8
:0105F6000FF5
:0105F70004FF
:0105F8000FF3
:0105F9000FF2
:0105FA000BF5
:0105FB0006F9
:0105FC0002FC
:0105FD0002FB
:0105FE0001FB
:0105FF0007F4
:0106000006F3
:010601000BED
:0106020010E7
:0106030000F6
:010604000BEA
:0106050009EB
:0106060005EE
:0106070002F0
:0106080003EE
:010609000FE1
:01060A0000EF
:01060B0000EE
:01060C0001EC
:01060D0000EC
:01060E0002E9
:01060F0002E8
:0106100002E7
:0106110004E4
:0106120001E6
:0106130001E5
:0106140005E0
:0106150004E0
:0106160005DE
:0106170005DD
:0106180005DC
:0106190000E0
:01061A0008D7
:01061B0006D8
:01061C0003DA
:01061D0012CA
:01061E0008D3
:01061F0002D8
:0106200005D4
:0106210004D4
:0106220006D1
:0106230001D5
:0106240004D1
:0106250006CE
:0106260011C2
:0106270006CC
:0106280006CB
:0106290005CB
:01062A0002CD
:01062B0002CC
:01062C0006C7
:01062D0003C9
:01062E0003C8
:01062F0003C7
:0106300001C8
:0106310002C6
:0106320002C5
:010633000EB8
:0106340008BD
:0106350000C4
:0106360000C3
:0106370006BC
:0106380005BC
:0106390007B9
:01063A0010AF
:01063B0011AD
:01063C0008B5
:01063D000DAF
:01063E0011AA
:01063F0011A9
:0106400000B9
:0106410002B6
:0106420003B4
:0106430011A5
:0106440011A4
:0106450012A2
:010646000FA4
:010647000DA5
:010648000EA3
:01064900129E
:01064A000DA2
:01064B000EA0
:01064C0002AB
:01064D0009A3
:01064E0003A8
:01064F0002A8
:0106500004A5
:0106510005A3
:0106520005A2
:0106530006A0
:0106540004A1
:0106550004A0
:01065600079C
:010657000999
:0106580000A1
:01065900039D
:01065A00019E
:01065B001688
:01065C000A93
:01065D00009C
:01065E00009B
:01065F000298
:010660000D8C
:010661001583
:010662000196
:01066300078F
:010664000095
:010665000193
:010666000192
:010667000290
:01066800058C
:01066900028E
:01066A00028D
:01066B000B83
:01066C000786
:01066D000983
:01066E000982
:01066F000486
:010670000683
:010671001573
:010672001572
:010673000581
:010674000A7B
:010675000084
:010676000281
:010677000082
:010678000C75
:010679000D73
:01067A00007F
:01067B00017D
:01067C000D70
:01067D001567
:01067E000378
:01067F000A70
:010680000376
:010681000276
:010682000176
:010683000076
:010684000174
:010685001262
:010686000F64
:010687000A68
:010688000968
:010689000B65
:01068A000768
:01068B00026C
:01068C00026B
:01068D000468
:01068E000566
:01068F000763
:010690000465
:010691000068
:010692000166
:010693000066
:010694000065
:010695000163
:010696000063
:01069700055D
:010698000061
:010699000E52
:01069A000E51
:01069B00124C
:01069C00005D
:01069D000458
:01069E000259
:01069F000159
:0106A0000851
:0106A1000F49
:0106A2000A4D
:0106A3001145
:0106A4000451
:0106A5000054
:0106A600064D
:0106A7000949
:0106A8000948
:0106A9000B45
:0106AA00024D
:0106AB00004E
:0106AC000F3E
:0106AD00123A
:0106AE00113A
:0106AF000B3F
:0106B0000B3E
:0106B100093F
:0106B2001037
:0106B3001036
:0106B4000144
:0106B5000242
:0106B6000F34
:0106B7000B37
:0106B800122F
:0106B9000E32
:0106BA000738
:0106BB000836
:0106BC00013C
:0106BD000E2E
:0106BE000734
:0106BF000C2E
:0106C0000039
:0106C1000038
:0106C2000037
:0106C3000036
:0106C400082D
:0106C500082C
:0106C600151E
:0106C7000032
:0106C8000031
:0106C900062A
:0106CA000629
:0106CB00002E
:0106CC00002D
:0106CD00101C
:0106CE00002B
:0106CF00002A
:0106D0000128
:0106D1000127
:0106D2000D1A
:0106D3000026
:0106D4000520
:0106D5000A1A
:0106D600071C
:0106D7000A18
:0106D800061B
:0106D900021E
:0106DA000D12
:0106DB000618
:0106DC000D10
:0106DD001408
:0106DE000417
:0106DF000614
:0106E0000019
:0106E1000D0B
:0106E2001007
:0106E3000016
:0106E400060F
:0106E500050F
:0106E6000F04
:0106E700070B
:0106E800060B
:0106E900060A
:0106EA00000F
:0106EB00000E
:0106EC0012FB
:0106ED000FFD
:0106EE000308
:0106EF000307
:0106F0000EFB
:0106F1000EFA
:0106F2000FF8
:0106F30011F5
:0106F4000005
:0106F5000004
:0106F60010F3
:0106F7000002
:0106F80007FA
:0106F90008F8
:0106FA0009F6
:0106FB0000FE
:0106FC0001FC
:0106FD0004F8
:0106FE0001FA
:0106FF0002F8
:0107000001F7
:0107010000F7
:0107020011E5
:010703000EE7
:010704000FE5
:0107050015DE
:010706000FE3
:010707000FE2
:0107080006EA
:0107090003EC
:01070A0001ED
:01070B0004E9
:01070C0001EB
:01070D0002E9
:01070E0002E8
:01070F0002E7
:0107100007E1
:0107110003E4
:0107120006E0
:0107130001E4
:0107140008DC
:0107150000E3
:0107160010D2
:0107170010D1
:0107180013CD
:0107190010CF
:01071A0008D6
:01071B000FCE
:01071C0012CA
:01071D0012C9
:01071E0003D7
:01071F0005D4
:0107200005D3
:0107210006D1
:0107220002D4
:0107230006CF
:0107240002D2
:0107250008CB
:0107260005CD
:0107270008C9
:0107280000D0
:010729000CC3
:01072A000CC2
:01072B0007C6
:01072C000EBE
:01072D0006C5
:01072E0006C4
:01072F000DBC
:010730000ABE
:010731000ABD
:0107320009BD
:0107330003C2
:0107340000C4
:010735000CB7
:0107360000C2
:0107370000C1
:0107380002BE
:0107390002BD
:01073A0000BE
:01073B0000BD
:01073C0006B6
:01073D0006B5
:01073E0001B9
:01073F0001B8
:0107400000B8
:010741000AAD
:0107420009AD
:0107430009AC
:0107440007AD
:010745000FA4
:010746000AA8
:0107470004AD
:0107480002AE
:0107490000AF
:01074A0009A5
:01074B0002AB
:01074C0000AC
:01074D000F9C
:01074E000E9C
:01074F0001A8
:0107500000A8
:0107510003A4
:0107520002A4
:0107530004A1
:010754001094
:010755001093
:010756001290
:0107570000A1
:01075800039D
:010759000C93
:01075A00039B
:01075B00039A
:01075C000894
:01075D000F8C
:01075E000D8D
:01075F000693
:01076000098F
:010761000097
:010762000393
:010763000392
:01076400058F
:01076500048F
:01076600078B
:010767000091
:010768000090
:01076900008F
:01076A00018D
:01076B00028B
:01076C000D7F
:01076D000D7E
:01076E000288
:01076F000980
:010770000682
:01077100087F
:01077200077F
:010773000C79
:010774000A7A
:01077500067D
:010776000C76
:010777000F72
:010778000E72
:010779000877
:01077A000A74
:01077B000A73
:01077C000973
:01077D000C6F
:01077E000C6E
:01077F000C6D
:010780000C6C
:010781000C6B
:010782000A6C
:010783000F66
:010784000A6A
:010785000172
:01078600046E
:01078700056C
:010788000A66
:010789000C63
:01078A00006E
:01078B000A63
:01078C00026A
:01078D001457
:01078E000A60
:01078F001158
:010790000068
:010791000067
:010792000264
:010793000263
:01079400075D
:010795000162
:010796000E54
:010797000D54
:01079800065A
:01079900025D
:01079A000658
:01079B00134A
:01079C000F4D
:01079D000556
:01079E000654
:01079F000653
:0107A0000058
:0107A1000057
:0107A2000551
:0107A3000550
:0107A4000153
:0107A5000D46
:0107A6000151
:0107A7001140
:0107A8000D43
:0107A900123D
:0107AA000E40
:0107AB00014C
:0107AC000448
:0107AD00004B
:0107AE000545
:0107AF000544
:0107B0000147
:0107B1000146
:0107B2000046
:0107B3000441
:0107B400063E
:0107B5001231
:0107B6001230
:0107B7000F32
:0107B8000739
:0107B9000738
:0107BA000935
:0107BB000D30
:0107BC000F2D
:0107BD000F2C
:0107BE000D2D
:0107BF000D2C
:0107C0000533
:0107C1001225
:0107C2001323
:0107C3001322
:0107C4001321
:0107C5000E25
:0107C6000032
:0107C7000130
:0107C8000927
:0107C9000F20
:0107CA00002E
:0107CB000A23
:0107CC000A22
:0107CD000823
:0107CE000525
:0107CF000524
:0107D0000424
:0107D1000423
:0107D200071F
:0107D300061F
:0107D4000420
:0107D5000023
:0107D6000121
:0107D7000120
:0107D8000E12
:0107D900031C
:0107DA00031B
:0107DB00021B
:0107DC00021A
:0107DD000714
:0107DE001604
:0107DF001009
:0107E0000315
:0107E1000A0D
:0107E2001006
:0107E3000015
:0107E400050F
:0107E500080B
:0107E6000111
:0107E700060B
:0107E800030D
:0107E9000D02
:0107EA000C02
:0107EB000508
:0107EC000507
:0107ED000605
:0107EE000109
:0107EF0013F6
:0107F0000EFA
:0107F1000601
:0107F2000006
:0107F3000005
:0107F4000103
:0107F50008FB
:0107F60007FB
:0107F7000CF5
:0107F80001FF
:0107F90001FE
:0107FA0007F7
:0107FB000AF3
:0107FC0007F5
:0107FD0003F8
:0107FE0000FA
:0107FF0000F9
:0108000005F2
:0108010005F1
:0108020000F5
:0108030000F4
:0108040002F1
:0108050001F1
:0108060000F1
:0108070011DF
:0108080012DD
:0108090011DD
:01080A000FDE
:01080B000FDD
:01080C000EDD
:01080D000AE0
:01080E0012D7
:01080F000CDC
:010810000ADD
:010811000ADC
:0108120002E3
:0108130006DE
:010814000ED5
:010815000ED4
:0108160001E0
:0108170015CB
:0108180001DE
:0108190010CE
:01081A0001DC
:01081B0000DC
:01081C0001DA
:01081D0001D9
:01081E0007D2
:01081F000ECA
:0108200001D6
:0108210000D6
:0108220001D4
:0108230001D3
:0108240000D3
:010825000EC4
:0108260007CA
:010827000BC5
:0108280005CA
:0108290006C8
:01082A0001CC
:01082B0001CB
:01082C0009C2
:01082D0004C6
:01082E0010B9
:01082F0000C8
:0108300005C2
:0108310003C3
:010832000CB9
:010833000BB9
:010834000AB9
:0108350009B9
:0108360002BF
:0108370006BA
:0108380008B7
:0108390001BD
:01083A0001BC
:01083B000EAE
:01083C0010AB
:01083D0010AA
:01083E0004B5
:01083F0013A5
:0108400008AF
:0108410001B5
:0108420008AD
:0108430008AC
:0108440005AE
:0108450006AC
:010846000CA5
:010847000CA4
:0108480006A9
:0108490006A8
:01084A0000AD
:01084B0001AB
:01084C0006A5
:01084D0006A4
:01084E001198
:01084F001692
:010850000C9B
:010851000C9A
:010852000C99
:010853000E96
:01085400069D
:01085500079B
:01085600039E
:01085700019F
:01085800019E
:01085900029C
:01085A00029B
:01085B000C90
:01085C000299
:01085D000694
:01085E000693
:01085F000098
:010860000097
:010861000690
:010862000194
:01086300078D
:01086400078C
:01086500147E
:01086600068B
:01086700028E
:01086800038C
:01086900048A
:01086A00018C
:01086B00008C
:01086C000289
:01086D000288
:01086E000F7A
:01086F001177
:010870000681
:010871000086
:010872000481
:01087300067E
:010874000C77
:010875000E74
:010876000E73
:01087700126E
:01087800037C
:01087900037B
:01087A000677
:01087B000577
:01087C000477
:01087D00106A
:01087E000871
:01087F000672
:010880000572
:010881000175
:010882000174
:010883000A6A
:010884000271
:010885000072
:010886000170
:01088700066A
:01088800016E
:01088900046A
:01088A00006D
:01088B00105C
:01088C00105B
:01088D00006A
:01088E000366
:01088F000761
:01089000095E
:010891000E58
:010892000E57
:01089300154F
:01089400154E
:01089500045E
:01089600075A
:01089700045C
:010898000F50
:010899000D51
:01089A000657
:01089B00104C
:01089C000556
:01089D000852
:01089E000851
:01089F000850
:0108A000084F
:0108A100084E
:0108A200064F
:0108A300084C
:0108A400054E
:0108A500054D
:0108A6000150
:0108A7000A46
:0108A800113E
:0108A900103E
:0108AA000A43
:0108AB000448
:0108AC001239
:0108AD001238
:0108AE001039
:0108AF000F39
:0108B0000F38
:0108B1000145
:0108B2000144
:0108B300053F
:0108B400053E
:0108B5000042
:0108B600043D
:0108B7000040
:0108B800003F
:0108B9000539
:0108BA000637
:0108BB00023A
:0108BC000239
:0108BD00003A
:0108BE000435
:0108BF000038
:0108C0000037
:0108C100072F
:0108C200072E
:0108C300082C
:0108C4000033
:0108C5000A28
:0108C6000031
:0108C700012F
:0108C800012E
:0108C9000628
:0108CA000C21
:0108CB000923
:0108CC000A21
:0108CD001218
:0108CE001019
:0108CF000E1A
:0108D0000E19
:0108D1000A1C
:0108D2000D18
:0108D3000D17
:0108D4000023
:0108D500081A
:0108D600051C
:0108D7000020
:0108D8000B14
:0108D9000519
:0108DA00120B
:0108DB000814
:0108DC000714
:0108DD00001A
:0108DE000019
:0108DF000216
:0108E000080F
:0108E100090D
:0108E200070E
:0108E3000212
:0108E4000013
:0108E5000E04
:0108E6000C05
:0108E7000C04
:0108E8000609
:0108E900000E
:0108EA000805
:0108EB000606
:0108EC000B00
:0108ED000307
:0108EE000CFD
:0108EF0010F8
:0108F0000601
:0108F1000AFC
:0108F2000AFB
:0108F3000CF8
:0108F4000CF7
:0108F5000FF3
:0108F6000FF2
:0108F70014EC
:0108F80014EB
:0108F90011ED
:0108FA0002FB
:0108FB0001FB
:0108FC000FEC
:0108FD0002F8
:0108FE000CED
:0108FF0007F1
:0109000001F5
:0109010008ED
:0109020003F1
:0109030006ED
:0109040000F2
:0109050000F1
:010906000FE1
:0109070007E8
:0109080006E8
:0109090015D8
:01090A0003E9
:01090B0007E4
:01090C0002E8
:01090D000ADF
:01090E0009DF
:01090F0005E2
:0109100009DD
:010911000BDA
:010912000DD7
:0109130000E3
:0109140012D0
:0109150004DD
:0109160008D8
:0109170003DC
:010918000FCF
:0109190012CB
:01091A000ECE
:01091B000FCC
:01091C0006D4
:01091D0006D3
:01091E0006D2
:01091F000EC9
:0109200008CE
:0109210006CF
:0109220009CB
:0109230009CA
:010924000FC3
:0109250014BD
:0109260012BE
:0109270012BD
:0109280010BE
:0109290010BD
:01092A0002CA
:01092B0002C9
:01092C0000CA
:01092D0014B5
:01092E0006C2
:01092F0009BE
:0109300006C0
:0109310006BF
:0109320004C0
:0109330006BD
:0109340000C2
:0109350001C0
:0109360000C0
:0109370000BF
:010938000CB2
:010939000CB1
:01093A0005B7
:01093B0006B5
:01093C0005B5
:01093D0010A9
:01093E0008B0
:01093F0008AF
:0109400004B2
:0109410004B1
:0109420007AD
:0109430013A0
:010944000BA7
:0109450001B0
:0109460002AE
:010947000DA2
:0109480000AE
:010949000BA2
:01094A0001AB
:01094B000AA1
:01094C001397
:01094D000A9F
:01094E0001A7
:01094F0001A6
:0109500004A2
:0109510004A1
:01095200069E
:01095300099A
:01095400059D
:01095500029F
:0109560000A0
:01095700009F
:010958000797
:01095900029B
:01095A00009C
:01095B000695
:01095C000892
:01095D001287
:01095E000E8A
:01095F000F88
:010960000096
:010961000095
:010962000490
:010963000093
:010964000092
:01096500028F
:01096600068A
:01096700018E
:01096800008E
:01096900008D
:01096A00028A
:01096B00008B
:01096C000288
:01096D000B7E
:01096E000880
:01096F00087F
:01097000087E
:010971000B7A
:01097200097B
:01097300047F
:010974001171
:01097500156C
:01097600047C
:010977000F70
:010978000876
:010979000C71
:01097A00116B
:01097B00106B
:01097C000179
:01097D000178
:01097E000D6B
:01097F000176
:010980000472
:01098100086D
:01098200076D
:01098300076C
:01098400066C
:01098500066B
:010986000967
:01098700016E
:010988000668
:010989000568
:01098A000666
:01098B000467
:01098C000862
:01098D000A5F
:01098E000563
:01098F000463
:010990000462
:01099100075E
:01099200065E
:01099300055E
:01099400075B
:01099500075A
:01099600025E
:01099700015E
:010998000D51
:010999000D50
:01099A000F4D
:01099B000F4C
:01099C00005A
:01099D000653
:01099E000751
:01099F00094E
:0109A0000650
:0109A100074E
:0109A2000C48
:0109A3000E45
:0109A4001141
:0109A5000C45
:0109A600113F
:0109A700034C
:0109A800113D
:0109A900014C
:0109AA00113B
:0109AB000546
:0109AC000743
:0109AD000445
:0109AE000147
:0109AF000542
:0109B0000046
:0109B1000B3A
:0109B200073D
:0109B300073C
:0109B4001131
:0109B500063B
:0109B6000F31
:0109B7000F30
:0109B8000A34
:0109B9000A33
:0109BA000F2D
:0109BB00013A
:0109BC00003A
:0109BD000039
:0109BE000137
:0109BF001522
:0109C000092D
:0109C1000431
:0109C2000133
:0109C300092A
:0109C4000131
:0109C5000031
:0109C6000030
:0109C7000629
:0109C800012D
:0109C9000C21
:0109CA00111B
:0109CB00012A
:0109CC00002A
:0109CD000623
:0109CE000028
:0109CF000720
:0109D0000C1A
:0109D100091C
:0109D2000123
:0109D3000B18
:0109D4000B17
:0109D5000A17
:0109D600021E
:0109D700100F
:0109D800100E
:0109D9000D10
:0109DA00100C
:0109DB00100B
:0109DC001208
:0109DD000D0C
:0109DE000216
:0109DF00080F
:0109E0000D09
:0109E1001401
:0109E200080C
:0109E300070C
:0109E400060C
:0109E50014FD
:0109E60014FC
:0109E700010E
:0109E800010D
:0109E900030A
:0109EA00020A
:0109EB000902
:0109EC000307
:0109ED000009
:0109EE0009FF
:0109EF000403
:0109F0000402
:0109F1000DF8
:0109F2000DF7
:0109F3000FF4
:0109F4000DF5
:0109F5000001
:0109F60002FE
:0109F70001FE
:0109F80001FD
:0109F90006F7
:0109FA0002FA
:0109FB000BF0
:0109FC0001F9
:0109FD0000F9
:0109FE0003F5
:0109FF0001F6
:010A000007EE
:010A010000F4
:010A020000F3
:010A030009E9
:010A04000FE2
:010A050007E9
:010A060009E6
:010A070011DD
:010A080003EA
:010A090001EB
:010A0A000FDC
:010A0B0000EA
:010A0C0003E6
:010A0D0001E7
:010A0E0000E7
:010A0F0006E0
:010A100000E5
:010A110000E4
:010A12000BD8
:010A130007DB
:010A140006DB
:010A15000ED2
:010A16000ED1
:010A170000DE
:010A180000DD
:010A190001DB
:010A1A000CCF
:010A1B0008D2
:010A1C0006D3
:010A1D0005D3
:010A1E0009CE
:010A1F0008CE
:010A20000CC9
:010A210013C1
:010A220000D3
:010A230004CE
:010A240010C1
:010A250007C9
:010A260007C8
:010A270006C8
:010A280011BC
:010A290011BB
:010A2A0004C7
:010A2B0000CA
:010A2C0000C9
:010A2D0000C8
:010A2E0004C3
:010A2F000CBA
:010A300009BC
:010A310005BF
:010A320005BE
:010A330007BB
:010A340001C0
:010A350000C0
:010A360006B9
:010A370008B6
:010A380006B7
:010A39000CB0
:010A3A0004B7
:010A3B0001B9
:010A3C0001B8
:010A3D000AAE
:010A3E0004B3
:010A3F000DA9
:010A40000DA8
:010A41000FA5
:010A42000EA5
:010A43000EA4
:010A440008A9
:010A45000AA6
:010A46000AA5
:010A470007A7
:010A48000AA3
:010A490001AB
:010A4A000F9C
:010A4B0006A4
:010A4C0001A8
:010A4D0006A2
:010A4E001295
:010A4F0000A6
:010A50000D98
:010A5100069E
:010A5200069D
:010A5300069C
:010A5400079A
:010A55000898
:010A56000897
:010A57000896
:010A5800029B
:010A59000A92
:010A5A000A91
:010A5B000793
:010A5C000792
:010A5D00098F
:010A5E000295
:010A5F000294
:010A60000194
:010A61000292
:010A62000390
:010A6300088A
:010A64000889
:010A6500127E
:010A66000689
:010A67000688
:010A6800038A
:010A69000686
:010A6A000883
:010A6B000288
:010A6C000E7B
:010A6D000286
:010A6E000384
:010A6F000680
:010A70000283
:010A71001173
:010A7200077C
:010A73000B77
:010A74000180
:010A75000080
:010A7600007F
:010A77000777
:010A7800027B
:010A7900017B
:010A7A00007B
:010A7B00007A
:010A7C000079
:010A7D000F69
:010A7E001265
:010A7F00086E
:010A8000066F
:010A81000272
:010A8200076C
:010A8300066C
:010A8400026F
:010A85000967
:010A8600046B
:010A87000866
:010A88000865
:010A8900006C
:010A8A00006B
:010A8B00006A
:010A8C000069
:010A8D000266
:010A8E000265
:010A8F000660
:010A90000065
:010A91000163
:010A9200045F
:010A9300055D
:010A94000D54
:010A95000E52
:010A9600025D
:010A9700015D
:010A9800015C
:010A99000458
:010A9A000556
:010A9B000159
:010A9C000C4D
:010A9D000C4C
:010A9E001245
:010A9F000D49
:010AA0000352
:010AA100094B
:010AA2000350
:010AA3000250
:010AA400064B
:010AA500064A
:010AA6000946
:010AA7000945
:010AA8000647
:010AA9000646
:010AAA00103B
:010AAB001436
:010AAC000A3F
:010AAD000642
:010AAE000146
:010AAF000D39
:010AB0000F36
:010AB1000C38
:010AB2000B38
:010AB300063C
:010AB4000041
:010AB5000040
:010AB600033C
:010AB700033B
:010AB8000538
:010AB9000537
:010ABA000239
:010ABB000238
:010ABC000039
:010ABD000038
:010ABE000B2C
:010ABF000B2B
:010AC000062F
:010AC1001024
:010AC2001023
:010AC300062C
:010AC400072A
:010AC500062A
:010AC600012E
:010AC7000925
:010AC8000528
:010AC9000B21
:010ACA000823
:010ACB000822
:010ACC000623
:010ACD000523
:010ACE000720
:010ACF000026
:010AD0000025
:010AD100061E
:010AD200061D
:010AD300061C
:010AD400150C
:010AD500130D
:010AD600120D
:010AD700120C
:010AD800100D
:010AD900100C
:010ADA00001B
:010ADB00001A
:010ADC000E0B
:010ADD000E0A
:010ADE000E09
:010ADF000E08
:010AE0001203
:010AE1001202
:010AE200050E
:010AE300030F
:010AE4000011
:010AE5000010
:010AE6000C03
:010AE700030B
:010AE8000409
:010AE9000408
:010AEA000EFD
:010AEB000EFC
:010AEC000603
:010AED000BFD
:010AEE000502
:010AEF000402
:010AF00008FD
:010AF10008FC
:010AF20006FD
:010AF3000EF4
:010AF40006FB
:010AF50006FA
:010AF6000EF1
:010AF70005F9
:010AF80005F8
:010AF90000FC
:010AFA0003F8
:010AFB0003F7
:010AFC000CED
:010AFD000AEE
:010AFE0008EF
:010AFF000EE8
:010B00000AEA
:010B01000AE9
:010B02000CE6
:010B030008E9
:010B04000BE5
:010B05000BE4
:010B060002EC
:010B070002EB
:010B08000CE0
:010B09000AE1
:010B0A0009E1
:010B0B0008E1
:010B0C0007E1
:010B0D0000E7
:010B0E0000E6
:010B0F0005E0
:010B100006DE
:010B110000E3
:010B120001E1
:010B130000E1
:010B140003DD
:010B15000ED1
:010B160009D5
:010B170002DB
:010B180004D8
:010B190004D7
:010B1A0005D5
:010B1B0007D2
:010B1C0005D3
:010B1D0005D2
:010B1E0004D2
:010B1F000EC7
:010B200011C3
:010B210010C3
:010B220011C1
:010B230014BD
:010B24000EC2
:010B250006C9
:010B260004CA
:010B270003CA
:010B280008C4
:010B290006C5
:010B2A0006C4
:010B2B0005C4
:010B2C0005C3
:010B2D0005C2
:010B2E0002C4
:010B2F0001C4
:010B300002C2
:010B310000C3
:010B320009B9
:010B330000C1
:010B340000C0
:010B350000BF
:010B360001BD
:010B370009B4
:010B380008B4
:010B390009B2
:010B3A0009B1
:010B3B0000B9
:010B3C0001B7
:010B3D0001B6
:010B3E0014A2
:010B3F0000B5
:010B400008AC
:010B410008AB
:010B42000DA5
:010B43000DA4
:010B440008A8
:010B450008A7
:010B46000BA3
:010B47000BA2
:010B48000CA0
:010B490001AA
:010B4A000B9F
:010B4B000A9F
:010B4C0008A0
:010B4D00089F
:010B4E000E98
:010B4F001293
:010B50001094
:010B5100148F
:010B52000C96
:010B53000C95
:010B5400118F
:010B55000699
:010B5600118D
:010B5700128B
:010B58000F8D
:010B59000D8E
:010B5A001189
:010B5B001188
:010B5C001187
:010B5D001186
:010B5E000294
:010B5F000D88
:010B60000193
:010B61000093
:010B62000092
:010B63000091
:010B64000090
:010B6500008F
:010B6600008E
:010B6700008D
:010B6800008C
:010B6900008B
:010B6A00008A
:010B6B000089
:010B6C000088
:010B6D000087
:010B6E000086
:010B6F000085
:010B70000084
:010B71000083
:010B72000082
:010B73000081
:010B74000080
:010B7500007F
:010B7600007E
:010B7700007D
:010B7800007C
:010B7900007B
:010B7A00007A
:010B7B000079
:010B7C000078
:010B7D000077
:010B7E000076
:010B7F000075
:010B80000074
:010B81000073
:010B82000072
:010B83000071
:010B84000070
:010B8500006F
:010B8600006E
:010B8700006D
:010B8800006C
:010B8900006B
:010B8A00006A
:010B8B000069
:010B8C000068
:010B8D000067
:010B8E000066
:010B8F000065
:010B90000064
:010B91000063
:010B92000062
:010B93000061
:010B94000060
:010B9500005F
:010B9600005E
:010B9700005D
:010B9800005C
:010B9900005B
:010B9A00005A
:010B9B000059
:010B9C000058
:010B9D000057
:010B9E000056
:010B9F000055
:010BA0000054
:010BA1000053
:010BA2000052
:010BA3000051
:010BA4000050
:010BA500004F
:010BA600004E
:010BA700004D
:010BA800004C
:010BA900004B
:010BAA00004A
:010BAB000049
:010BAC000048
:010BAD000047
:010BAE000046
:010BAF000045
:010BB0000044
:010BB1000043
:010BB2000042
:010BB3000041
:010BB4000040
:010BB500003F
:010BB600003E
:010BB700003D
:010BB800003C
:010BB900003B
:010BBA00003A
:010BBB000039
:010BBC000038
:010BBD000037
:010BBE000036
:010BBF000035
:010BC0000034
:010BC1000033
:010BC2000032
:010BC3000031
:010BC4000030
:010BC500002F
:010BC600002E
:010BC700002D
:010BC800002C
:010BC900002B
:010BCA00002A
:010BCB000029
:010BCC000028
:010BCD000027
:010BCE000026
:010BCF000025
:010BD0000024
:010BD1000023
:010BD2000022
:010BD3000021
:010BD4000020
:010BD500001F
:010BD600001E
:010BD700001D
:010BD800001C
:010BD900001B
:010BDA00001A
:010BDB000019
:010BDC000018
:010BDD000017
:010BDE000016
:010BDF000015
:010BE0000014
:010BE1000013
:010BE2000012
:010BE3000011
:010BE4000010
:010BE500000F
:010BE600000E
:010BE700000D
:010BE800000C
:010BE900000B
:010BEA00000A
:010BEB000009
:010BEC000008
:010BED000007
:010BEE000006
:010BEF000005
:010BF0000004
:010BF1000003
:010BF2000002
:010BF3000001
:010BF4000000
:010BF50000FF
:010BF60000FE
:010BF70000FD
:010BF80000FC
:010BF90000FB
:010BFA0000FA
:010BFB0000F9
:010BFC0000F8
:010BFD0000F7
:010BFE0000F6
:010BFF0000F5
:010C000000F3
:010C010000F2
:010C020000F1
:010C030000F0
:010C040000EF
:010C050000EE
:010C060000ED
:010C070000EC
:010C080000EB
:010C090000EA
:010C0A0000E9
:010C0B0000E8
:010C0C0000E7
:010C0D0000E6
:010C0E0000E5
:010C0F0000E4
:010C100000E3
:010C110000E2
:010C120000E1
:010C130000E0
:010C140000DF
:010C150000DE
:010C160000DD
:010C170000DC
:010C180000DB
:010C190000DA
:010C1A0000D9
:010C1B0000D8
:010C1C0000D7
:010C1D0000D6
:010C1E0000D5
:010C1F0000D4
:010C200000D3
:010C210000D2
:010C220000D1
:010C230000D0
:010C240000CF
:010C250000CE
:010C260000CD
:010C270000CC
:010C280000CB
:010C290000CA
:010C2A0000C9
:010C2B0000C8
:010C2C0000C7
:010C2D0000C6
:010C2E0000C5
:010C2F0000C4
:010C300000C3
:010C310000C2
:010C320000C1
:010C330000C0
:010C340000BF
:010C350000BE
:010C360000BD
:010C370000BC
:010C380000BB
:010C390000BA
:010C3A0000B9
:010C3B0000B8
:010C3C0000B7
:010C3D0000B6
:010C3E0000B5
:010C3F0000B4
:010C400000B3
:010C410000B2
:010C420000B1
:010C430000B0
:010C440000AF
:010C450000AE
:010C460000AD
:010C470000AC
:010C480000AB
:010C490000AA
:010C4A0000A9
:010C4B0000A8
:010C4C0000A7
:010C4D0000A6
:010C4E0000A5
:010C4F0000A4
:010C500000A3
:010C510000A2
:010C520000A1
:010C530000A0
:010C5400009F
:010C5500009E
:010C5600009D
:010C5700009C
:010C5800009B
:010C5900009A
:010C5A000099
:010C5B000098
:010C5C000097
:010C5D000096
:010C5E000095
:010C5F000094
:010C60000093
:010C61000092
:010C62000091
:010C63000090
:010C6400008F
:010C6500008E
:010C6600008D
:010C6700008C
:010C6800008B
:010C6900008A
:010C6A000089
:010C6B000088
:010C6C000087
:010C6D000086
:010C6E000085
:010C6F000084
:010C70000083
:010C71000082
:010C72000081
:010C73000080
:010C7400007F
:010C7500007E
:010C7600007D
:010C7700007C
:010C7800007B
:010C7900007A
:010C7A000079
:010C7B000078
:010C7C000077
:010C7D000076
:010C7E000075
:010C7F000074
:010C80000073
:010C81000072
:010C82000071
:010C83000070
:010C8400006F
:010C8500006E
:010C8600006D
:010C8700006C
:010C8800006B
:010C8900006A
:010C8A000069
:010C8B000068
:010C8C000067
:010C8D000066
:010C8E000065
:010C8F000064
:010C90000063
:010C91000062
:010C92000061
:010C93000060
:010C9400005F
:010C9500005E
:010C9600005D
:010C9700005C
:010C9800005B
:010C9900005A
:010C9A000059
:010C9B000058
:010C9C000057
:010C9D000056
:010C9E000055
:010C9F000054
:010CA0000053
:010CA1000052
:010CA2000051
:010CA3000050
:010CA400004F
:010CA500004E
:010CA600004D
:010CA700004C
:010CA800004B
:010CA900004A
:010CAA000049
:010CAB000048
:010CAC000047
:010CAD000046
:010CAE000045
:010CAF000044
:010CB0000043
:010CB1000042
:010CB2000041
:010CB3000040
:010CB400003F
:010CB500003E
:010CB600003D
:010CB700003C
:010CB800003B
:010CB900003A
:010CBA000039
:010CBB000038
:010CBC000037
:010CBD000036
:010CBE000035
:010CBF000034
:010CC0000033
:010CC1000032
:010CC2000031
:010CC3000030
:010CC400002F
:010CC500002E
:010CC600002D
:010CC700002C
:010CC800002B
:010CC900002A
:010CCA000029
:010CCB000028
:010CCC000027
:010CCD000026
:010CCE000025
:010CCF000024
:010CD0000023
:010CD1000022
:010CD2000021
:010CD3000020
:010CD400001F
:010CD500001E
:010CD600001D
:010CD700001C
:010CD800001B
:010CD900001A
:010CDA000019
:010CDB000018
:010CDC000017
:010CDD000016
:010CDE000015
:010CDF000014
:010CE0000013
:010CE1000012
:010CE2000011
:010CE3000010
:010CE400000F
:010CE500000E
:010CE600000D
:010CE700000C
:010CE800000B
:010CE900000A
:010CEA000009
:010CEB000008
:010CEC000007
:010CED000006
:010CEE000005
:010CEF000004
:010CF0000003
:010CF1000002
:010CF2000001
:010CF3000000
:010CF40000FF
:010CF50000FE
:010CF60000FD
:010CF70000FC
:010CF80000FB
:010CF90000FA
:010CFA0000F9
:010CFB0000F8
:010CFC0000F7
:010CFD0000F6
:010CFE0000F5
:010CFF0000F4
:010D000000F2
:010D010000F1
:010D020000F0
:010D030000EF
:010D040000EE
:010D050000ED
:010D060000EC
:010D070000EB
:010D080000EA
:010D090000E9
:010D0A0000E8
:010D0B0000E7
:010D0C0000E6
:010D0D0000E5
:010D0E0000E4
:010D0F0000E3
:010D100000E2
:010D110000E1
:010D120000E0
:010D130000DF
:010D140000DE
:010D150000DD
:010D160000DC
:010D170000DB
:010D180000DA
:010D190000D9
:010D1A0000D8
:010D1B0000D7
:010D1C0000D6
:010D1D0000D5
:010D1E0000D4
:010D1F0000D3
:010D200000D2
:010D210000D1
:010D220000D0
:010D230000CF
:010D240000CE
:010D250000CD
:010D260000CC
:010D270000CB
:010D280000CA
:010D290000C9
:010D2A0000C8
:010D2B0000C7
:010D2C0000C6
:010D2D0000C5
:010D2E0000C4
:010D2F0000C3
:010D300000C2
:010D310000C1
:010D320000C0
:010D330000BF
:010D340000BE
:010D350000BD
:010D360000BC
:010D370000BB
:010D380000BA
:010D390000B9
:010D3A0000B8
:010D3B0000B7
:010D3C0000B6
:010D3D0000B5
:010D3E0000B4
:010D3F0000B3
:010D400000B2
:010D410000B1
:010D420000B0
:010D430000AF
:010D440000AE
:010D450000AD
:010D460000AC
:010D470000AB
:010D480000AA
:010D490000A9
:010D4A0000A8
:010D4B0000A7
:010D4C0000A6
:010D4D0000A5
:010D4E0000A4
:010D4F0000A3
:010D500000A2
:010D510000A1
:010D520000A0
:010D5300009F
:010D5400009E
:010D5500009D
:010D5600009C
:010D5700009B
:010D5800009A
:010D59000099
:010D5A000098
:010D5B000097
:010D5C000096
:010D5D000095
:010D5E000094
:010D5F000093
:010D60000092
:010D61000091
:010D62000090
:010D6300008F
:010D6400008E
:010D6500008D
:010D6600008C
:010D6700008B
:010D6800008A
:010D69000089
:010D6A000088
:010D6B000087
:010D6C000086
:010D6D000085
:010D6E000084
:010D6F000083
:010D70000082
:010D71000081
:010D72000080
:010D7300007F
:010D7400007E
:010D7500007D
:010D7600007C
:010D7700007B
:010D7800007A
:010D79000079
:010D7A000078
:010D7B000077
:010D7C000076
:010D7D000075
:010D7E000074
:010D7F000073
:010D80000072
:010D81000071
:010D82000070
:010D8300006F
:010D8400006E
:010D8500006D
:010D8600006C
:010D8700006B
:010D8800006A
:010D89000069
:010D8A000068
:010D8B000067
:010D8C000066
:010D8D000065
:010D8E000064
:010D8F000063
:010D90000062
:010D91000061
:010D92000060
:010D9300005F
:010D9400005E
:010D9500005D
:010D9600005C
:010D9700005B
:010D9800005A
:010D99000059
:010D9A000058
:010D9B000057
:010D9C000056
:010D9D000055
:010D9E000054
:010D9F000053
:010DA0000052
:010DA1000051
:010DA2000050
:010DA300004F
:010DA400004E
:010DA500004D
:010DA600004C
:010DA700004B
:010DA800004A
:010DA9000049
:010DAA000048
:010DAB000047
:010DAC000046
:010DAD000045
:010DAE000044
:010DAF000043
:010DB0000042
:010DB1000041
:010DB2000040
:010DB300003F
:010DB400003E
:010DB500003D
:010DB600003C
:010DB700003B
:010DB800003A
:010DB9000039
:010DBA000038
:010DBB000037
:010DBC000036
:010DBD000035
:010DBE000034
:010DBF000033
:010DC0000032
:010DC1000031
:010DC2000030
:010DC300002F
:010DC400002E
:010DC500002D
:010DC600002C
:010DC700002B
:010DC800002A
:010DC9000029
:010DCA000028
:010DCB000027
:010DCC000026
:010DCD000025
:010DCE000024
:010DCF000023
:010DD0000022
:010DD1000021
:010DD2000020
:010DD300001F
:010DD400001E
:010DD500001D
:010DD600001C
:010DD700001B
:010DD800001A
:010DD9000019
:010DDA000018
:010DDB000017
:010DDC000016
:010DDD000015
:010DDE000014
:010DDF000013
:010DE0000012
:010DE1000011
:010DE2000010
:010DE300000F
:010DE400000E
:010DE500000D
:010DE600000C
:010DE700000B
:010DE800000A
:010DE9000009
:010DEA000008
:010DEB000007
:010DEC000006
:010DED000005
:010DEE000004
:010DEF000003
:010DF0000002
:010DF1000001
:010DF2000000
:010DF30000FF
:010DF40000FE
:010DF50000FD
:010DF60000FC
:010DF70000FB
:010DF80000FA
:010DF90000F9
:010DFA0000F8
:010DFB0000F7
:010DFC0000F6
:010DFD0000F5
:010DFE0000F4
:010DFF0000F3
:010E000000F1
:010E010000F0
:010E020000EF
:010E030000EE
:010E040000ED
:010E050000EC
:010E060000EB
:010E070000EA
:010E080000E9
:010E090000E8
:010E0A0000E7
:010E0B0000E6
:010E0C0000E5
:010E0D0000E4
:010E0E0000E3
:010E0F0000E2
:010E100000E1
:010E110000E0
:010E120000DF
:010E130000DE
:010E140000DD
:010E150000DC
:010E160000DB
:010E170000DA
:010E180000D9
:010E190000D8
:010E1A0000D7
:010E1B0000D6
:010E1C0000D5
:010E1D0000D4
:010E1E0000D3
:010E1F0000D2
:010E200000D1
:010E210000D0
:010E220000CF
:010E230000CE
:010E240000CD
:010E250000CC
:010E260000CB
:010E270000CA
:010E280000C9
:010E290000C8
:010E2A0000C7
:010E2B0000C6
:010E2C0000C5
:010E2D0000C4
:010E2E0000C3
:010E2F0000C2
:010E300000C1
:010E310000C0
:010E320000BF
:010E330000BE
:010E340000BD
:010E350000BC
:010E360000BB
:010E370000BA
:010E380000B9
:010E390000B8
:010E3A0000B7
:010E3B0000B6
:010E3C0000B5
:010E3D0000B4
:010E3E0000B3
:010E3F0000B2
:010E400000B1
:010E410000B0
:010E420000AF
:010E430000AE
:010E440000AD
:010E450000AC
:010E460000AB
:010E470000AA
:010E480000A9
:010E490000A8
:010E4A0000A7
:010E4B0000A6
:010E4C0000A5
:010E4D0000A4
:010E4E0000A3
:010E4F0000A2
:010E500000A1
:010E510000A0
:010E5200009F
:010E5300009E
:010E5400009D
:010E5500009C
:010E5600009B
:010E5700009A
:010E58000099
:010E59000098
:010E5A000097
:010E5B000096
:010E5C000095
:010E5D000094
:010E5E000093
:010E5F000092
:010E60000091
:010E61000090
:010E6200008F
:010E6300008E
:010E6400008D
:010E6500008C
:010E6600008B
:010E6700008A
:010E68000089
:010E69000088
:010E6A000087
:010E6B000086
:010E6C000085
:010E6D000084
:010E6E000083
:010E6F000082
:010E70000081
:010E71000080
:010E7200007F
:010E7300007E
:010E7400007D
:010E7500007C
:010E7600007B
:010E7700007A
:010E78000079
:010E79000078
:010E7A000077
:010E7B000076
:010E7C000075
:010E7D000074
:010E7E000073
:010E7F000072
:010E80000071
:010E81000070
:010E8200006F
:010E8300006E
:010E8400006D
:010E8500006C
:010E8600006B
:010E8700006A
:010E88000069
:010E89000068
:010E8A000067
:010E8B000066
:010E8C000065
:010E8D000064
:010E8E000063
:010E8F000062
:010E90000061
:010E91000060
:010E9200005F
:010E9300005E
:010E9400005D
:010E9500005C
:010E9600005B
:010E9700005A
:010E98000059
:010E99000058
:010E9A000057
:010E9B000056
:010E9C000055
:010E9D000054
:010E9E000053
:010E9F000052
:010EA0000051
:010EA1000050
:010EA200004F
:010EA300004E
:010EA400004D
:010EA500004C
:010EA600004B
:010EA700004A
:010EA8000049
:010EA9000048
:010EAA000047
:010EAB000046
:010EAC000045
:010EAD000044
:010EAE000043
:010EAF000042
:010EB0000041
:010EB1000040
:010EB200003F
:010EB300003E
:010EB400003D
:010EB500003C
:010EB600003B
:010EB700003A
:010EB8000039
:010EB9000038
:010EBA000037
:010EBB000036
:010EBC000035
:010EBD000034
:010EBE000033
:010EBF000032
:010EC0000031
:010EC1000030
:010EC200002F
:010EC300002E
:010EC400002D
:010EC500002C
:010EC600002B
:010EC700002A
:010EC8000029
:010EC9000028
:010ECA000027
:010ECB000026
:010ECC000025
:010ECD000024
:010ECE000023
:010ECF000022
:010ED0000021
:010ED1000020
:010ED200001F
:010ED300001E
:010ED400001D
:010ED500001C
:010ED600001B
:010ED700001A
:010ED8000019
:010ED9000018
:010EDA000017
:010EDB000016
:010EDC000015
:010EDD000014
:010EDE000013
:010EDF000012
:010EE0000011
:010EE1000010
:010EE200000F
:010EE300000E
:010EE400000D
:010EE500000C
:010EE600000B
:010EE700000A
:010EE8000009
:010EE9000008
:010EEA000007
:010EEB000006
:010EEC000005
:010EED000004
:010EEE000003
:010EEF000002
:010EF0000001
:010EF1000000
:010EF20000FF
:010EF30000FE
:010EF40000FD
:010EF50000FC
:010EF60000FB
:010EF70000FA
:010EF80000F9
:010EF90000F8
:010EFA0000F7
:010EFB0000F6
:010EFC0000F5
:010EFD0000F4
:010EFE0000F3
:010EFF0000F2
:010F000000F0
:010F010000EF
:010F020000EE
:010F030000ED
:010F040000EC
:010F050000EB
:010F060000EA
:010F070000E9
:010F080000E8
:010F090000E7
:010F0A0000E6
:010F0B0000E5
:010F0C0000E4
:010F0D0000E3
:010F0E0000E2
:010F0F0000E1
:010F100000E0
:010F110000DF
:010F120000DE
:010F130000DD
:010F140000DC
:010F150000DB
:010F160000DA
:010F170000D9
:010F180000D8
:010F190000D7
:010F1A0000D6
:010F1B0000D5
:010F1C0000D4
:010F1D0000D3
:010F1E0000D2
:010F1F0000D1
:010F200000D0
:010F210000CF
:010F220000CE
:010F230000CD
:010F240000CC
:010F250000CB
:010F260000CA
:010F270000C9
:010F280000C8
:010F290000C7
:010F2A0000C6
:010F2B0000C5
:010F2C0000C4
:010F2D0000C3
:010F2E0000C2
:010F2F0000C1
:010F300000C0
:010F310000BF
:010F320000BE
:010F330000BD
:010F340000BC
:010F350000BB
:010F360000BA
:010F370000B9
:010F380000B8
:010F390000B7
:010F3A0000B6
:010F3B0000B5
:010F3C0000B4
:010F3D0000B3
:010F3E0000B2
:010F3F0000B1
:010F400000B0
:010F410000AF
:010F420000AE
:010F430000AD
:010F440000AC
:010F450000AB
:010F460000AA
:010F470000A9
:010F480000A8
:010F490000A7
:010F4A0000A6
:010F4B0000A5
:010F4C0000A4
:010F4D0000A3
:010F4E0000A2
:010F4F0000A1
:010F500000A0
:010F5100009F
:010F5200009E
:010F5300009D
:010F5400009C
:010F5500009B
:010F5600009A
:010F57000099
:010F58000098
:010F59000097
:010F5A000096
:010F5B000095
:010F5C000094
:010F5D000093
:010F5E000092
:010F5F000091
:010F60000090
:010F6100008F
:010F6200008E
:010F6300008D
:010F6400008C
:010F6500008B
:010F6600008A
:010F67000089
:010F68000088
:010F69000087
:010F6A000086
:010F6B000085
:010F6C000084
:010F6D000083
:010F6E000082
:010F6F000081
:010F70000080
:010F7100007F
:010F7200007E
:010F7300007D
:010F7400007C
:010F7500007B
:010F7600007A
:010F77000079
:010F78000078
:010F79000077
:010F7A000076
:010F7B000075
:010F7C000074
:010F7D000073
:010F7E000072
:010F7F000071
:010F80000070
:010F8100006F
:010F8200006E
:010F8300006D
:010F8400006C
:010F8500006B
:010F8600006A
:010F87000069
:010F88000068
:010F89000067
:010F8A000066
:010F8B000065
:010F8C000064
:010F8D000063
:010F8E000062
:010F8F000061
:010F90000060
:010F9100005F
:010F9200005E
:010F9300005D
:010F9400005C
:010F9500005B
:010F9600005A
:010F97000059
:010F98000058
:010F99000057
:010F9A000056
:010F9B000055
:010F9C000054
:010F9D000053
:010F9E000052
:010F9F000051
:010FA0000050
:010FA100004F
:010FA200004E
:010FA300004D
:010FA400004C
:010FA500004B
:010FA600004A
:010FA7000049
:010FA8000048
:010FA9000047
:010FAA000046
:010FAB000045
:010FAC000044
:010FAD000043
:010FAE000042
:010FAF000041
:010FB0000040
:010FB100003F
:010FB200003E
:010FB300003D
:010FB400003C
:010FB500003B
:010FB600003A
:010FB7000039
:010FB8000038
:010FB9000037
:010FBA000036
:010FBB000035
:010FBC000034
:010FBD000033
:010FBE000032
:010FBF000031
:010FC0000030
:010FC100002F
:010FC200002E
:010FC300002D
:010FC400002C
:010FC500002B
:010FC600002A
:010FC7000029
:010FC8000028
:010FC9000027
:010FCA000026
:010FCB000025
:010FCC000024
:010FCD000023
:010FCE000022
:010FCF000021
:010FD0000020
:010FD100001F
:010FD200001E
:010FD300001D
:010FD400001C
:010FD500001B
:010FD600001A
:010FD7000019
:010FD8000018
:010FD9000017
:010FDA000016
:010FDB000015
:010FDC000014
:010FDD000013
:010FDE000012
:010FDF000011
:010FE0000010
:010FE100000F
:010FE200000E
:010FE300000D
:010FE400000C
:010FE500000B
:010FE600000A
:010FE7000009
:010FE8000008
:010FE9000007
:010FEA000006
:010FEB000005
:010FEC000004
:010FED000003
:010FEE000002
:010FEF000001
:010FF0000000
:010FF10000FF
:010FF20000FE
:010FF30000FD
:010FF40000FC
:010FF50000FB
:010FF60000FA
:010FF70000F9
:010FF80000F8
:010FF90000F7
:010FFA0000F6
:010FFB0000F5
:010FFC0000F4
:010FFD0000F3
:010FFE0000F2
:010FFF0000F1
:00000001FF
